{"src/contracts/Verification.sol":{"Verification":{"abi":[{"anonymous":false,"inputs":[{"indexed":true,"internalType":"uint256","name":"id","type":"uint256"},{"indexed":false,"internalType":"string","name":"name","type":"string"},{"indexed":false,"internalType":"uint256","name":"date","type":"uint256"},{"indexed":false,"internalType":"string","name":"location","type":"string"},{"indexed":false,"internalType":"string","name":"email","type":"string"},{"indexed":false,"internalType":"string","name":"phoneNumber","type":"string"}],"name":"CandidateAdded","type":"event"},{"anonymous":false,"inputs":[{"indexed":true,"internalType":"uint256","name":"id","type":"uint256"},{"indexed":false,"internalType":"address","name":"newCurrentCompany","type":"address"}],"name":"CandidateCurrentCompanyEdited","type":"event"},{"anonymous":false,"inputs":[{"indexed":true,"internalType":"uint256","name":"id","type":"uint256"},{"indexed":false,"internalType":"string","name":"name","type":"string"},{"indexed":false,"internalType":"uint256","name":"date","type":"uint256"},{"indexed":false,"internalType":"string","name":"location","type":"string"},{"indexed":false,"internalType":"string","name":"email","type":"string"},{"indexed":false,"internalType":"string","name":"phoneNumber","type":"string"}],"name":"CandidateEdited","type":"event"},{"anonymous":false,"inputs":[{"indexed":true,"internalType":"uint256","name":"id","type":"uint256"}],"name":"CandidateRemoved","type":"event"},{"anonymous":false,"inputs":[{"indexed":true,"internalType":"uint256","name":"id","type":"uint256"},{"indexed":true,"internalType":"address","name":"companyAddress","type":"address"},{"indexed":false,"internalType":"string","name":"name","type":"string"},{"indexed":false,"internalType":"uint256","name":"date","type":"uint256"},{"indexed":false,"internalType":"string","name":"location","type":"string"},{"indexed":false,"internalType":"string","name":"phoneNumber","type":"string"},{"indexed":false,"internalType":"string","name":"licenseNumber","type":"string"},{"indexed":false,"internalType":"string","name":"email","type":"string"}],"name":"CompanyAdded","type":"event"},{"anonymous":false,"inputs":[{"indexed":true,"internalType":"uint256","name":"id","type":"uint256"}],"name":"CompanyRemoved","type":"event"},{"anonymous":false,"inputs":[{"indexed":true,"internalType":"uint256","name":"id","type":"uint256"},{"indexed":false,"internalType":"string","name":"name","type":"string"},{"indexed":false,"internalType":"string","name":"cid","type":"string"},{"indexed":false,"internalType":"uint256","name":"companyId","type":"uint256"},{"indexed":false,"internalType":"uint256","name":"candidateId","type":"uint256"},{"indexed":false,"internalType":"uint256","name":"date","type":"uint256"},{"indexed":false,"internalType":"string","name":"typeOfDocument","type":"string"}],"name":"DocumentAdded","type":"event"},{"anonymous":false,"inputs":[{"indexed":false,"internalType":"uint256","name":"documentId","type":"uint256"},{"indexed":false,"internalType":"uint256","name":"candidateId","type":"uint256"},{"indexed":false,"internalType":"uint256","name":"companyId","type":"uint256"}],"name":"DocumentRemoved","type":"event"},{"anonymous":false,"inputs":[{"indexed":true,"internalType":"uint256","name":"id","type":"uint256"}],"name":"DocumentVerified","type":"event"},{"anonymous":false,"inputs":[{"indexed":true,"internalType":"address","name":"previousOwner","type":"address"},{"indexed":true,"internalType":"address","name":"newOwner","type":"address"}],"name":"OwnershipTransferred","type":"event"},{"anonymous":false,"inputs":[{"indexed":true,"internalType":"address","name":"verifier","type":"address"}],"name":"VerifierAdded","type":"event"},{"anonymous":false,"inputs":[{"indexed":true,"internalType":"address","name":"verifier","type":"address"}],"name":"VerifierRemoved","type":"event"},{"anonymous":false,"inputs":[{"indexed":true,"internalType":"address","name":"oldVerifier","type":"address"},{"indexed":true,"internalType":"address","name":"newVerifier","type":"address"}],"name":"VerifierReplaced","type":"event"},{"inputs":[{"internalType":"address[]","name":"_addresses","type":"address[]"},{"internalType":"string[]","name":"_names","type":"string[]"},{"internalType":"string[]","name":"_locations","type":"string[]"},{"internalType":"string[]","name":"_emails","type":"string[]"},{"internalType":"string[]","name":"_phoneNumbers","type":"string[]"}],"name":"addCandidates","outputs":[],"stateMutability":"nonpayable","type":"function"},{"inputs":[{"internalType":"address[]","name":"_addresses","type":"address[]"},{"internalType":"string[]","name":"_names","type":"string[]"},{"internalType":"string[]","name":"_locations","type":"string[]"},{"internalType":"string[]","name":"_phoneNumbers","type":"string[]"},{"internalType":"string[]","name":"_licenseNumbers","type":"string[]"},{"internalType":"string[]","name":"_emails","type":"string[]"}],"name":"addCompanies","outputs":[],"stateMutability":"nonpayable","type":"function"},{"inputs":[{"internalType":"string[]","name":"_names","type":"string[]"},{"internalType":"string[]","name":"_cids","type":"string[]"},{"internalType":"uint256[]","name":"_candidateIds","type":"uint256[]"},{"internalType":"string[]","name":"_typesOfDocument","type":"string[]"}],"name":"addDocuments","outputs":[],"stateMutability":"nonpayable","type":"function"},{"inputs":[{"internalType":"address[]","name":"_verifiers","type":"address[]"}],"name":"addVerifiers","outputs":[],"stateMutability":"nonpayable","type":"function"},{"inputs":[{"internalType":"address","name":"","type":"address"}],"name":"candidateAddress","outputs":[{"internalType":"uint256","name":"","type":"uint256"}],"stateMutability":"view","type":"function"},{"inputs":[{"internalType":"uint256","name":"","type":"uint256"}],"name":"candidates","outputs":[{"internalType":"uint256","name":"date","type":"uint256"},{"internalType":"address","name":"address_","type":"address"},{"internalType":"address","name":"currentCompany","type":"address"},{"internalType":"string","name":"name","type":"string"},{"internalType":"uint256","name":"Id","type":"uint256"},{"internalType":"string","name":"location","type":"string"},{"internalType":"string","name":"email","type":"string"},{"internalType":"string","name":"phoneNumber","type":"string"}],"stateMutability":"view","type":"function"},{"inputs":[{"internalType":"uint256","name":"","type":"uint256"}],"name":"companies","outputs":[{"internalType":"uint256","name":"date","type":"uint256"},{"internalType":"address","name":"address_","type":"address"},{"internalType":"string","name":"name","type":"string"},{"internalType":"uint256","name":"Id","type":"uint256"},{"internalType":"string","name":"location","type":"string"},{"internalType":"string","name":"phoneNumber","type":"string"},{"internalType":"string","name":"licenseNumber","type":"string"},{"internalType":"string","name":"email","type":"string"}],"stateMutability":"view","type":"function"},{"inputs":[{"internalType":"address","name":"","type":"address"}],"name":"companyAddress","outputs":[{"internalType":"uint256","name":"","type":"uint256"}],"stateMutability":"view","type":"function"},{"inputs":[{"internalType":"uint256","name":"","type":"uint256"},{"internalType":"uint256","name":"","type":"uint256"}],"name":"companyCandidateDocuments","outputs":[{"internalType":"uint256","name":"date","type":"uint256"},{"internalType":"string","name":"name","type":"string"},{"internalType":"uint256","name":"id","type":"uint256"},{"internalType":"string","name":"cid","type":"string"},{"internalType":"string","name":"typeOfDocument","type":"string"},{"internalType":"bool","name":"isVerified","type":"bool"},{"internalType":"uint256","name":"companyId","type":"uint256"},{"internalType":"uint256","name":"candidateId","type":"uint256"}],"stateMutability":"view","type":"function"},{"inputs":[{"internalType":"uint256","name":"","type":"uint256"}],"name":"documents","outputs":[{"internalType":"uint256","name":"date","type":"uint256"},{"internalType":"string","name":"name","type":"string"},{"internalType":"uint256","name":"id","type":"uint256"},{"internalType":"string","name":"cid","type":"string"},{"internalType":"string","name":"typeOfDocument","type":"string"},{"internalType":"bool","name":"isVerified","type":"bool"},{"internalType":"uint256","name":"companyId","type":"uint256"},{"internalType":"uint256","name":"candidateId","type":"uint256"}],"stateMutability":"view","type":"function"},{"inputs":[{"internalType":"uint256","name":"_id","type":"uint256"},{"internalType":"string","name":"_name","type":"string"},{"internalType":"string","name":"_location","type":"string"},{"internalType":"string","name":"_email","type":"string"},{"internalType":"string","name":"_phoneNumber","type":"string"}],"name":"editCandidate","outputs":[],"stateMutability":"nonpayable","type":"function"},{"inputs":[{"internalType":"uint256","name":"_id","type":"uint256"},{"internalType":"address","name":"_newCurrentCompany","type":"address"}],"name":"editCandidateCurrentCompany","outputs":[],"stateMutability":"nonpayable","type":"function"},{"inputs":[{"internalType":"uint256","name":"_id","type":"uint256"}],"name":"getCandidate","outputs":[{"internalType":"string","name":"","type":"string"},{"internalType":"uint256","name":"","type":"uint256"},{"internalType":"string","name":"","type":"string"},{"internalType":"string","name":"","type":"string"},{"internalType":"string","name":"","type":"string"}],"stateMutability":"view","type":"function"},{"inputs":[{"internalType":"uint256","name":"_id","type":"uint256"}],"name":"getCompany","outputs":[{"internalType":"address","name":"","type":"address"},{"internalType":"string","name":"","type":"string"},{"internalType":"uint256","name":"","type":"uint256"},{"internalType":"string","name":"","type":"string"},{"internalType":"string","name":"","type":"string"},{"internalType":"string","name":"","type":"string"},{"internalType":"string","name":"","type":"string"},{"internalType":"uint256","name":"","type":"uint256"}],"stateMutability":"view","type":"function"},{"inputs":[],"name":"getCompanyIdOfSender","outputs":[{"internalType":"uint256","name":"","type":"uint256"}],"stateMutability":"view","type":"function"},{"inputs":[{"internalType":"uint256","name":"_id","type":"uint256"}],"name":"getDocument","outputs":[{"internalType":"string","name":"","type":"string"},{"internalType":"string","name":"","type":"string"},{"internalType":"bool","name":"","type":"bool"},{"internalType":"uint256","name":"","type":"uint256"},{"internalType":"uint256","name":"","type":"uint256"}],"stateMutability":"view","type":"function"},{"inputs":[],"name":"getOwner","outputs":[{"internalType":"address","name":"","type":"address"}],"stateMutability":"view","type":"function"},{"inputs":[],"name":"getVerifiers","outputs":[{"internalType":"address[]","name":"","type":"address[]"}],"stateMutability":"view","type":"function"},{"inputs":[],"name":"maxVerifiers","outputs":[{"internalType":"uint256","name":"","type":"uint256"}],"stateMutability":"view","type":"function"},{"inputs":[],"name":"numCandidates","outputs":[{"internalType":"uint256","name":"","type":"uint256"}],"stateMutability":"view","type":"function"},{"inputs":[],"name":"numCompanies","outputs":[{"internalType":"uint256","name":"","type":"uint256"}],"stateMutability":"view","type":"function"},{"inputs":[],"name":"numDocuments","outputs":[{"internalType":"uint256","name":"","type":"uint256"}],"stateMutability":"view","type":"function"},{"inputs":[],"name":"owner","outputs":[{"internalType":"address","name":"","type":"address"}],"stateMutability":"view","type":"function"},{"inputs":[{"internalType":"uint256[]","name":"_ids","type":"uint256[]"}],"name":"removeCandidates","outputs":[],"stateMutability":"nonpayable","type":"function"},{"inputs":[{"internalType":"uint256[]","name":"_ids","type":"uint256[]"}],"name":"removeCompanies","outputs":[],"stateMutability":"nonpayable","type":"function"},{"inputs":[{"internalType":"uint256[]","name":"_candidateIds","type":"uint256[]"},{"internalType":"uint256[]","name":"_documentIds","type":"uint256[]"}],"name":"removeDocuments","outputs":[],"stateMutability":"nonpayable","type":"function"},{"inputs":[],"name":"renounceOwnership","outputs":[],"stateMutability":"nonpayable","type":"function"},{"inputs":[{"internalType":"address[]","name":"_oldVerifiers","type":"address[]"},{"internalType":"address[]","name":"_newVerifiers","type":"address[]"}],"name":"replaceVerifiers","outputs":[],"stateMutability":"nonpayable","type":"function"},{"inputs":[{"internalType":"uint256","name":"_maxVerifiers","type":"uint256"}],"name":"setMaxVerifiers","outputs":[],"stateMutability":"nonpayable","type":"function"},{"inputs":[{"internalType":"address","name":"newOwner","type":"address"}],"name":"transferOwnership","outputs":[],"stateMutability":"nonpayable","type":"function"},{"inputs":[{"internalType":"uint256","name":"","type":"uint256"}],"name":"verifiers","outputs":[{"internalType":"address","name":"","type":"address"}],"stateMutability":"view","type":"function"},{"inputs":[{"internalType":"uint256[]","name":"_candidateIds","type":"uint256[]"}],"name":"verifyDocuments","outputs":[],"stateMutability":"nonpayable","type":"function"}],"evm":{"bytecode":{"linkReferences":{},"object":"6080604052600a6002553480156200001657600080fd5b50620000223362000028565b62000078565b600080546001600160a01b038381166001600160a01b0319831681178455604051919092169283917f8be0079c531659141344cd1fd0a4f28419497f9722a3daafe3b4186f6b6457e09190a35050565b613cf780620000886000396000f3fe608060405234801561001057600080fd5b50600436106101f05760003560e01c8063854da6581161010f578063b4d7e8df116100a2578063c2ed2b0511610071578063c2ed2b051461048f578063eed18318146104a2578063f2fde38b146104b5578063fc7435e1146104c857600080fd5b8063b4d7e8df14610441578063b534425714610456578063bb3096aa14610469578063bfbbf5091461047c57600080fd5b80638da5cb5b116100de5780638da5cb5b146103e857806399e37a55146103f9578063a935e76614610419578063ac1eff681461042e57600080fd5b8063854da65814610380578063874fdf2d14610393578063893d20e81461039c5780638b0e6305146103c157600080fd5b80634dc95895116101875780636dd08047116101565780636dd080471461033c578063715018a61461035c57806378bda750146103645780637fbc12af1461036d57600080fd5b80634dc95895146102e65780635216509a146102f957806357d13917146103025780635990ce801461032957600080fd5b80633477ee2e116101c35780633477ee2e1461026057806335b8e820146102875780633f9b250a146102ab57806341affd45146102cf57600080fd5b80631546a239146101f5578063187c1ebe1461020a5780631a203a311461021d5780632813d19d14610230575b600080fd5b610208610203366004613064565b6104db565b005b61020861021836600461318e565b610794565b61020861022b366004613282565b610a9c565b61024361023e3660046132ae565b610c1c565b60405161025798979695949392919061330d565b60405180910390f35b61027361026e3660046132ae565b610f0f565b60405161025798979695949392919061339d565b61029a6102953660046132ae565b610fdf565b6040516102579594939291906133ea565b6102be6102b93660046132ae565b6112b3565b604051610257959493929190613449565b6102d860045481565b604051908152602001610257565b6102086102f436600461348c565b6114f7565b6102d860055481565b6103156103103660046132ae565b6117e7565b6040516102579897969594939291906134ef565b610208610337366004613580565b611b78565b6102d861034a3660046135bc565b60076020526000908152604090205481565b610208611d79565b6102d860025481565b61020861037b3660046135de565b611d8d565b61020861038e366004613580565b61212a565b6102d860035481565b6000546001600160a01b03165b6040516001600160a01b039091168152602001610257565b6103d46103cf3660046136af565b612285565b6040516102579897969594939291906136d1565b6000546001600160a01b03166103a9565b6102d86104073660046135bc565b600b6020526000908152604090205481565b61042161246f565b604051610257919061373a565b6103a961043c3660046132ae565b6124d1565b336000908152600760205260409020546102d8565b610208610464366004613787565b6124fb565b6102086104773660046137bb565b6126bb565b61020861048a366004613814565b6128e4565b6103d461049d3660046132ae565b612a8a565b6102086104b0366004613580565b612aac565b6102086104c33660046135bc565b612c4d565b6102086104d63660046132ae565b612cc6565b336000908152600760205260409020546105105760405162461bcd60e51b8152600401610507906138bd565b60405180910390fd5b82518451148015610522575081518451145b801561052f575080518451145b61054b5760405162461bcd60e51b8152600401610507906138ec565b33600090815260076020526040812054905b855181101561078c57600086828151811061057a5761057a613923565b60200260200101519050600086838151811061059857610598613923565b6020026020010151905060008684815181106105b6576105b6613923565b6020026020010151905060008685815181106105d4576105d4613923565b6020026020010151905060086000838152602001908152602001600020600401546000036106145760405162461bcd60e51b815260040161050790613939565b600082815260086020526040812060040154610631908790613995565b604080516101008101825242815260208082018981528284018590526060830189905260808301879052600060a0840181905260c084018d905260e084018990528c8152600a835284812089825290925292902081518155915192935091600182019061069e9082613a2e565b5060408201516002820155606082015160038201906106bd9082613a2e565b50608082015160048201906106d29082613a2e565b5060a082015160058201805460ff191691151591909117905560c0820151600682015560e0909101516007909101556004805490600061071183613aed565b90915550506000878152600a602090815260408083208684529091529081902054905182917fd3ed96614adf2b10e41f86dd9c3930fce8e45b5fd05644a610bb234bb21c29219161076c91899189918d918a91908a90613b06565b60405180910390a25050505050808061078490613aed565b91505061055d565b505050505050565b61079c612d36565b806107c05750336107b56000546001600160a01b031690565b6001600160a01b0316145b6107dc5760405162461bcd60e51b815260040161050790613b5e565b845186511480156107ee575083518651145b80156107fb575082518651145b8015610808575081518651145b8015610815575080518651145b6108315760405162461bcd60e51b8152600401610507906138ec565b60005b8651811015610a9357600087828151811061085157610851613923565b60200260200101519050600087838151811061086f5761086f613923565b60200260200101519050600087848151811061088d5761088d613923565b6020026020010151905060008785815181106108ab576108ab613923565b6020026020010151905060008786815181106108c9576108c9613923565b6020026020010151905060008787815181106108e7576108e7613923565b60200260200101519050600060035460016109029190613995565b60408051610100810182524281526001600160a01b038a811660208084019182528385018c815260608501879052608085018c905260a085018b905260c085018a905260e08501899052600087815260069092529490208351815590516001820180546001600160a01b0319169190931617909155915192935091600282019061098c9082613a2e565b5060608201516003820155608082015160048201906109ab9082613a2e565b5060a082015160058201906109c09082613a2e565b5060c082015160068201906109d59082613a2e565b5060e082015160078201906109ea9082613a2e565b5050506001600160a01b03871660009081526007602052604081208290556003805491610a1683613aed565b9091555050600081815260066020526040908190205490516001600160a01b0389169183917f261da74c4a3cfaa656ac5eaa9eefd94e3c13a0635ace95af2fae2dbf3390cde091610a71918b91908b908b908b908b90613b95565b60405180910390a3505050505050508080610a8b90613aed565b915050610834565b50505050505050565b33600090815260076020526040902054610ac85760405162461bcd60e51b8152600401610507906138bd565b6000828152600860205260408120600401549003610af85760405162461bcd60e51b815260040161050790613939565b6000828152600860205260409020600201546001600160a01b031615610bb5576000828152600860205260409020600201546001600160a01b03163314610bb55760405162461bcd60e51b8152602060048201526044602482018190527f596f7520646f206e6f742068617665207065726d697373696f6e20746f206564908201527f69742063757272656e74436f6d70616e7920666f7220746869732063616e64696064820152636461746560e01b608482015260a401610507565b60008281526008602090815260409182902060020180546001600160a01b0319166001600160a01b038516908117909155915191825283917f1004bf4098083445cd4ac13954fdcea1d9530a61f6f2a7d5a628bea6141eb17c910160405180910390a25050565b60066020526000908152604090208054600182015460028301805492936001600160a01b0390921692610c4e906139ae565b80601f0160208091040260200160405190810160405280929190818152602001828054610c7a906139ae565b8015610cc75780601f10610c9c57610100808354040283529160200191610cc7565b820191906000526020600020905b815481529060010190602001808311610caa57829003601f168201915b505050505090806003015490806004018054610ce2906139ae565b80601f0160208091040260200160405190810160405280929190818152602001828054610d0e906139ae565b8015610d5b5780601f10610d3057610100808354040283529160200191610d5b565b820191906000526020600020905b815481529060010190602001808311610d3e57829003601f168201915b505050505090806005018054610d70906139ae565b80601f0160208091040260200160405190810160405280929190818152602001828054610d9c906139ae565b8015610de95780601f10610dbe57610100808354040283529160200191610de9565b820191906000526020600020905b815481529060010190602001808311610dcc57829003601f168201915b505050505090806006018054610dfe906139ae565b80601f0160208091040260200160405190810160405280929190818152602001828054610e2a906139ae565b8015610e775780601f10610e4c57610100808354040283529160200191610e77565b820191906000526020600020905b815481529060010190602001808311610e5a57829003601f168201915b505050505090806007018054610e8c906139ae565b80601f0160208091040260200160405190810160405280929190818152602001828054610eb8906139ae565b8015610f055780601f10610eda57610100808354040283529160200191610f05565b820191906000526020600020905b815481529060010190602001808311610ee857829003601f168201915b5050505050905088565b600860205260009081526040902080546001820154600283015460038401805493946001600160a01b03938416949390921692610f4b906139ae565b80601f0160208091040260200160405190810160405280929190818152602001828054610f77906139ae565b8015610fc45780601f10610f9957610100808354040283529160200191610fc4565b820191906000526020600020905b815481529060010190602001808311610fa757829003601f168201915b505050505090806004015490806005018054610d70906139ae565b60008181526008602090815260408083208151610100810183528154815260018201546001600160a01b0390811694820194909452600282015490931691830191909152600381018054606094938593849384938793929183860191611044906139ae565b80601f0160208091040260200160405190810160405280929190818152602001828054611070906139ae565b80156110bd5780601f10611092576101008083540402835291602001916110bd565b820191906000526020600020905b8154815290600101906020018083116110a057829003601f168201915b50505050508152602001600482015481526020016005820180546110e0906139ae565b80601f016020809104026020016040519081016040528092919081815260200182805461110c906139ae565b80156111595780601f1061112e57610100808354040283529160200191611159565b820191906000526020600020905b81548152906001019060200180831161113c57829003601f168201915b50505050508152602001600682018054611172906139ae565b80601f016020809104026020016040519081016040528092919081815260200182805461119e906139ae565b80156111eb5780601f106111c0576101008083540402835291602001916111eb565b820191906000526020600020905b8154815290600101906020018083116111ce57829003601f168201915b50505050508152602001600782018054611204906139ae565b80601f0160208091040260200160405190810160405280929190818152602001828054611230906139ae565b801561127d5780601f106112525761010080835404028352916020019161127d565b820191906000526020600020905b81548152906001019060200180831161126057829003601f168201915b505050919092525050506060810151608082015160a083015160c084015160e090940151929b919a509850919650945092505050565b6060806000806000806009600088815260200190815260200160002060405180610100016040529081600082015481526020016001820180546112f5906139ae565b80601f0160208091040260200160405190810160405280929190818152602001828054611321906139ae565b801561136e5780601f106113435761010080835404028352916020019161136e565b820191906000526020600020905b81548152906001019060200180831161135157829003601f168201915b5050505050815260200160028201548152602001600382018054611391906139ae565b80601f01602080910402602001604051908101604052809291908181526020018280546113bd906139ae565b801561140a5780601f106113df5761010080835404028352916020019161140a565b820191906000526020600020905b8154815290600101906020018083116113ed57829003601f168201915b50505050508152602001600482018054611423906139ae565b80601f016020809104026020016040519081016040528092919081815260200182805461144f906139ae565b801561149c5780601f106114715761010080835404028352916020019161149c565b820191906000526020600020905b81548152906001019060200180831161147f57829003601f168201915b5050509183525050600582015460ff16151560208083019190915260068301546040830152600790920154606091820152908201519082015160a083015160c084015160e090940151929b919a509850919650945092505050565b6114ff612d41565b80518251146115205760405162461bcd60e51b8152600401610507906138ec565b60005b82518110156117e257600083828151811061154057611540613923565b60200260200101519050600083838151811061155e5761155e613923565b6020026020010151905060006001600160a01b0316826001600160a01b0316036115bc5760405162461bcd60e51b815260206004820152600f60248201526e496e76616c6964206164647265737360881b6044820152606401610507565b6001600160a01b03811661170b5760005b60015481101561170557826001600160a01b0316600182815481106115f4576115f4613923565b6000918252602090912001546001600160a01b0316036116f3576001805461161d908290613bfc565b8154811061162d5761162d613923565b600091825260209091200154600180546001600160a01b03909216918390811061165957611659613923565b9060005260206000200160006101000a8154816001600160a01b0302191690836001600160a01b03160217905550600180548061169857611698613c0f565b600082815260208120820160001990810180546001600160a01b03191690559091019091556040516001600160a01b038516917f44a3cd4eb5cc5748f6169df057b1cb2ae4c383e87cd94663c430e095d4cba42491a2611705565b806116fd81613aed565b9150506115cd565b506117cd565b60005b6001548110156117cb57826001600160a01b03166001828154811061173557611735613923565b6000918252602090912001546001600160a01b0316036117b957816001828154811061176357611763613923565b6000918252602082200180546001600160a01b0319166001600160a01b03938416179055604051848316928616917f50d741fe04ad9863c69d1406658f6ec7c4f5e48ec2faf966a36a3e47fc05c9d991a36117cb565b806117c381613aed565b91505061170e565b505b505080806117da90613aed565b915050611523565b505050565b600060606000606080606080600080600660008b815260200190815260200160002060405180610100016040529081600082015481526020016001820160009054906101000a90046001600160a01b03166001600160a01b03166001600160a01b0316815260200160028201805461185e906139ae565b80601f016020809104026020016040519081016040528092919081815260200182805461188a906139ae565b80156118d75780601f106118ac576101008083540402835291602001916118d7565b820191906000526020600020905b8154815290600101906020018083116118ba57829003601f168201915b50505050508152602001600382015481526020016004820180546118fa906139ae565b80601f0160208091040260200160405190810160405280929190818152602001828054611926906139ae565b80156119735780601f1061194857610100808354040283529160200191611973565b820191906000526020600020905b81548152906001019060200180831161195657829003601f168201915b5050505050815260200160058201805461198c906139ae565b80601f01602080910402602001604051908101604052809291908181526020018280546119b8906139ae565b8015611a055780601f106119da57610100808354040283529160200191611a05565b820191906000526020600020905b8154815290600101906020018083116119e857829003601f168201915b50505050508152602001600682018054611a1e906139ae565b80601f0160208091040260200160405190810160405280929190818152602001828054611a4a906139ae565b8015611a975780601f10611a6c57610100808354040283529160200191611a97565b820191906000526020600020905b815481529060010190602001808311611a7a57829003601f168201915b50505050508152602001600782018054611ab0906139ae565b80601f0160208091040260200160405190810160405280929190818152602001828054611adc906139ae565b8015611b295780601f10611afe57610100808354040283529160200191611b29565b820191906000526020600020905b815481529060010190602001808311611b0c57829003601f168201915b505050505081525050905080602001518160400151826060015183608001518460a001518560c001518660e0015187600001519850985098509850985098509850985050919395975091939597565b611b80612d36565b80611ba4575033611b996000546001600160a01b031690565b6001600160a01b0316145b611bc05760405162461bcd60e51b815260040161050790613c25565b6000815111611c115760405162461bcd60e51b815260206004820152601760248201527f4e6f20636f6d70616e79204944732070726f76696465640000000000000000006044820152606401610507565b60005b8151811015611d75576000828281518110611c3157611c31613923565b602002602001015190506006600082815260200190815260200160002060030154600003611cad5760405162461bcd60e51b8152602060048201526024808201527f436f6d70616e79207769746820676976656e20494420646f6573206e6f7420656044820152631e1a5cdd60e21b6064820152608401610507565b60008181526006602052604081208181556001810180546001600160a01b031916905590611cde6002830182612e54565b6003820160009055600482016000611cf69190612e54565b611d04600583016000612e54565b611d12600683016000612e54565b611d20600783016000612e54565b505060038054906000611d3283613c55565b909155505060405181907f028fe2791b514c47642f0d652f7c237752aea1929ed16396ef24b45eb7e2b31590600090a25080611d6d81613aed565b915050611c14565b5050565b611d81612d41565b611d8b6000612d9b565b565b33600090815260076020526040902054611db95760405162461bcd60e51b815260040161050790613b5e565b8351855114611dda5760405162461bcd60e51b8152600401610507906138ec565b60005b855181101561078c576000868281518110611dfa57611dfa613923565b602002602001015190506000868381518110611e1857611e18613923565b602002602001015190506000868481518110611e3657611e36613923565b602002602001015190506000868581518110611e5457611e54613923565b602002602001015190506000868681518110611e7257611e72613923565b60200260200101519050600b6000866001600160a01b03166001600160a01b0316815260200190815260200160002054600014611f095760405162461bcd60e51b815260206004820152602f60248201527f43616e64696461746520776974682074686520676976656e206164647265737360448201526e20616c72656164792065786973747360881b6064820152608401610507565b6001600160a01b038516611f585760405162461bcd60e51b8152602060048201526016602482015275416464726573732063616e6e6f74206265207a65726f60501b6044820152606401610507565b6000845111611fa05760405162461bcd60e51b81526020600482015260146024820152734e616d652063616e6e6f7420626520656d70747960601b6044820152606401610507565b60006005546001611fb19190613995565b60408051610100810182524281526001600160a01b03808a16602080840191825233848601908152606085018c81526080860188905260a086018c905260c086018b905260e086018a905260008881526008909352959091208451815591516001830180549185166001600160a01b0319928316179055905160028301805491909416911617909155915192935091600382019061204f9082613a2e565b506080820151600482015560a0820151600582019061206e9082613a2e565b5060c082015160068201906120839082613a2e565b5060e082015160078201906120989082613a2e565b5050336000908152600b60205260408120839055600580549250906120bc83613aed565b90915550506000818152600860205260409081902054905182917f7b9c7f27309ffd2ac53f4a79f1850d55fb69301e433730c1de54f3b266b4eb4c916121099189918990899089906133ea565b60405180910390a2505050505050808061212290613aed565b915050611ddd565b612132612d36565b61214e5760405162461bcd60e51b815260040161050790613c25565b33600090815260076020526040812054905b82518110156117e257600083828151811061217d5761217d613923565b6020908102919091018101516000858152600a83526040808220838352909352918220600681015491935091036121c65760405162461bcd60e51b815260040161050790613c6c565b600581015460ff161561222e5760405162461bcd60e51b815260206004820152602a60248201527f446f63756d656e74207769746820676976656e20494420697320616c726561646044820152691e481d995c9a599a595960b21b6064820152608401610507565b60058101805460ff1916600117905560028101546040517f4b93fd5160fbc8b35d08aff650902cf41c86e6df325a3eabab5bcca811976cf790600090a25050808061227890613aed565b915050612160565b905090565b600a602090815260009283526040808420909152908252902080546001820180549192916122b2906139ae565b80601f01602080910402602001604051908101604052809291908181526020018280546122de906139ae565b801561232b5780601f106123005761010080835404028352916020019161232b565b820191906000526020600020905b81548152906001019060200180831161230e57829003601f168201915b505050505090806002015490806003018054612346906139ae565b80601f0160208091040260200160405190810160405280929190818152602001828054612372906139ae565b80156123bf5780601f10612394576101008083540402835291602001916123bf565b820191906000526020600020905b8154815290600101906020018083116123a257829003601f168201915b5050505050908060040180546123d4906139ae565b80601f0160208091040260200160405190810160405280929190818152602001828054612400906139ae565b801561244d5780601f106124225761010080835404028352916020019161244d565b820191906000526020600020905b81548152906001019060200180831161243057829003601f168201915b5050505060058301546006840154600790940154929360ff9091169290915088565b606060018054806020026020016040519081016040528092919081815260200182805480156124c757602002820191906000526020600020905b81546001600160a01b031681526001909101906020018083116124a9575b5050505050905090565b600181815481106124e157600080fd5b6000918252602090912001546001600160a01b0316905081565b612503612d41565b600081511161254a5760405162461bcd60e51b8152602060048201526013602482015272139bc81d995c9a599a595c9cc81d1bc8185919606a1b6044820152606401610507565b600254815160015461255c9190613995565b11156125b65760405162461bcd60e51b815260206004820152602360248201527f45786365656473206d6178696d756d206e756d626572206f662076657269666960448201526265727360e81b6064820152608401610507565b60005b8151811015611d755760008282815181106125d6576125d6613923565b6020026020010151905060006001600160a01b0316816001600160a01b0316036126345760405162461bcd60e51b815260206004820152600f60248201526e496e76616c6964206164647265737360881b6044820152606401610507565b60018054808201825560009182527fb10e2d527612073b26eecdfd717e6a320cf44b4afac2b0732d9fcbe2b7fa0cf60180546001600160a01b0319166001600160a01b03841690811790915560405190917f6d05492139c5ea989514a5d2150c028041e5c087e2a39967f67dc7d2655adb8191a250806126b381613aed565b9150506125b9565b336000908152600760205260409020546126e75760405162461bcd60e51b8152600401610507906138bd565b3360009081526007602052604090205481518351146127185760405162461bcd60e51b8152600401610507906138ec565b60005b83518110156128de57600084828151811061273857612738613923565b60200260200101519050600084838151811061275657612756613923565b6020026020010151905060086000838152602001908152602001600020600401546000036127965760405162461bcd60e51b815260040161050790613939565b6000848152600a60209081526040808320858452909152812060068101549091036127d35760405162461bcd60e51b815260040161050790613c6c565b8060020154821461281b5760405162461bcd60e51b8152602060048201526012602482015271125b9d985b1a5908191bd8dd5b595b9d125960721b6044820152606401610507565b6000858152600a602090815260408083208684529091528120818155906128456001830182612e54565b600282016000905560038201600061285d9190612e54565b61286b600483016000612e54565b5060058101805460ff1916905560006006820181905560079091015560408051838152602081018590529081018690527fcefed05bf9cf6c25889c16d2d30733104edfd4536eb965a70e933dda18ef326e9060600160405180910390a150505080806128d690613aed565b91505061271b565b50505050565b336000908152600760205260409020546129105760405162461bcd60e51b815260040161050790613b5e565b60008581526008602052604081206004015490036129405760405162461bcd60e51b815260040161050790613939565b6000858152600860205260409020600201546001600160a01b031633146129c35760405162461bcd60e51b815260206004820152603160248201527f596f7520646f206e6f742068617665207065726d697373696f6e20746f206564604482015270697420746869732063616e64696461746560781b6064820152608401610507565b60008581526008602052604090206003016129de8582613a2e565b5060008581526008602052604090206005016129fa8482613a2e565b506000858152600860205260409020600601612a168382613a2e565b506000858152600860205260409020600701612a328282613a2e565b506000858152600860205260409081902054905186917fec0d46722939d1bbf8c6e9a7383f9f0aae3fc6cd4428fcb18978b87a5cbd34ff91612a7b9188918890889088906133ea565b60405180910390a25050505050565b600960205260009081526040902080546001820180549192916122b2906139ae565b612ab4612d36565b80612acd57503360009081526007602052604090205415155b612ae95760405162461bcd60e51b815260040161050790613c25565b6000815111612b3a5760405162461bcd60e51b815260206004820152601960248201527f4e6f2063616e646964617465204944732070726f7669646564000000000000006044820152606401610507565b60005b8151811015611d75576000828281518110612b5a57612b5a613923565b602002602001015190506008600082815260200190815260200160002060040154600003612b9a5760405162461bcd60e51b815260040161050790613939565b60008181526008602052604081208181556001810180546001600160a01b0319908116909155600282018054909116905590612bd96003830182612e54565b6004820160009055600582016000612bf19190612e54565b612bff600683016000612e54565b612c0d600783016000612e54565b505060405181907f294c5a9bc8a39e6e06502bc8da429980f6c7b0990d75b682c12cb8705e3ace8590600090a25080612c4581613aed565b915050612b3d565b612c55612d41565b6001600160a01b038116612cba5760405162461bcd60e51b815260206004820152602660248201527f4f776e61626c653a206e6577206f776e657220697320746865207a65726f206160448201526564647265737360d01b6064820152608401610507565b612cc381612d9b565b50565b612cce612d41565b60008111612d315760405162461bcd60e51b815260206004820152602a60248201527f4d6178696d756d207665726966696572732073686f756c6420626520677265616044820152690746572207468616e20360b41b6064820152608401610507565b600255565b600061228033612deb565b6000546001600160a01b03163314611d8b5760405162461bcd60e51b815260206004820181905260248201527f4f776e61626c653a2063616c6c6572206973206e6f7420746865206f776e65726044820152606401610507565b600080546001600160a01b038381166001600160a01b0319831681178455604051919092169283917f8be0079c531659141344cd1fd0a4f28419497f9722a3daafe3b4186f6b6457e09190a35050565b6000805b600154811015612e4b57826001600160a01b031660018281548110612e1657612e16613923565b6000918252602090912001546001600160a01b031603612e395750600192915050565b80612e4381613aed565b915050612def565b50600092915050565b508054612e60906139ae565b6000825580601f10612e70575050565b601f016020900490600052602060002090810190612cc391905b80821115612e9e5760008155600101612e8a565b5090565b634e487b7160e01b600052604160045260246000fd5b604051601f8201601f191681016001600160401b0381118282101715612ee057612ee0612ea2565b604052919050565b60006001600160401b03821115612f0157612f01612ea2565b5060051b60200190565b600082601f830112612f1c57600080fd5b81356001600160401b03811115612f3557612f35612ea2565b612f48601f8201601f1916602001612eb8565b818152846020838601011115612f5d57600080fd5b816020850160208301376000918101602001919091529392505050565b600082601f830112612f8b57600080fd5b81356020612fa0612f9b83612ee8565b612eb8565b82815260059290921b84018101918181019086841115612fbf57600080fd5b8286015b84811015612ffe5780356001600160401b03811115612fe25760008081fd5b612ff08986838b0101612f0b565b845250918301918301612fc3565b509695505050505050565b600082601f83011261301a57600080fd5b8135602061302a612f9b83612ee8565b82815260059290921b8401810191818101908684111561304957600080fd5b8286015b84811015612ffe578035835291830191830161304d565b6000806000806080858703121561307a57600080fd5b84356001600160401b038082111561309157600080fd5b61309d88838901612f7a565b955060208701359150808211156130b357600080fd5b6130bf88838901612f7a565b945060408701359150808211156130d557600080fd5b6130e188838901613009565b935060608701359150808211156130f757600080fd5b5061310487828801612f7a565b91505092959194509250565b80356001600160a01b038116811461312757600080fd5b919050565b600082601f83011261313d57600080fd5b8135602061314d612f9b83612ee8565b82815260059290921b8401810191818101908684111561316c57600080fd5b8286015b84811015612ffe5761318181613110565b8352918301918301613170565b60008060008060008060c087890312156131a757600080fd5b86356001600160401b03808211156131be57600080fd5b6131ca8a838b0161312c565b975060208901359150808211156131e057600080fd5b6131ec8a838b01612f7a565b9650604089013591508082111561320257600080fd5b61320e8a838b01612f7a565b9550606089013591508082111561322457600080fd5b6132308a838b01612f7a565b9450608089013591508082111561324657600080fd5b6132528a838b01612f7a565b935060a089013591508082111561326857600080fd5b5061327589828a01612f7a565b9150509295509295509295565b6000806040838503121561329557600080fd5b823591506132a560208401613110565b90509250929050565b6000602082840312156132c057600080fd5b5035919050565b6000815180845260005b818110156132ed576020818501810151868301820152016132d1565b506000602082860101526020601f19601f83011685010191505092915050565b8881526001600160a01b0388166020820152610100604082018190526000906133388382018a6132c7565b9050876060840152828103608084015261335281886132c7565b905082810360a084015261336681876132c7565b905082810360c084015261337a81866132c7565b905082810360e084015261338e81856132c7565b9b9a5050505050505050505050565b8881526001600160a01b03888116602083015287166040820152610100606082018190526000906133d0838201896132c7565b905086608084015282810360a084015261336681876132c7565b60a0815260006133fd60a08301886132c7565b866020840152828103604084015261341581876132c7565b9050828103606084015261342981866132c7565b9050828103608084015261343d81856132c7565b98975050505050505050565b60a08152600061345c60a08301886132c7565b828103602084015261346e81886132c7565b95151560408401525050606081019290925260809091015292915050565b6000806040838503121561349f57600080fd5b82356001600160401b03808211156134b657600080fd5b6134c28683870161312c565b935060208501359150808211156134d857600080fd5b506134e58582860161312c565b9150509250929050565b6001600160a01b0389168152610100602082018190526000906135148382018b6132c7565b9050886040840152828103606084015261352e81896132c7565b9050828103608084015261354281886132c7565b905082810360a084015261355681876132c7565b905082810360c084015261356a81866132c7565b9150508260e08301529998505050505050505050565b60006020828403121561359257600080fd5b81356001600160401b038111156135a857600080fd5b6135b484828501613009565b949350505050565b6000602082840312156135ce57600080fd5b6135d782613110565b9392505050565b600080600080600060a086880312156135f657600080fd5b85356001600160401b038082111561360d57600080fd5b61361989838a0161312c565b9650602088013591508082111561362f57600080fd5b61363b89838a01612f7a565b9550604088013591508082111561365157600080fd5b61365d89838a01612f7a565b9450606088013591508082111561367357600080fd5b61367f89838a01612f7a565b9350608088013591508082111561369557600080fd5b506136a288828901612f7a565b9150509295509295909350565b600080604083850312156136c257600080fd5b50508035926020909101359150565b60006101008a83528060208401526136eb8184018b6132c7565b9050886040840152828103606084015261370581896132c7565b9050828103608084015261371981886132c7565b95151560a0840152505060c081019290925260e09091015295945050505050565b6020808252825182820181905260009190848201906040850190845b8181101561377b5783516001600160a01b031683529284019291840191600101613756565b50909695505050505050565b60006020828403121561379957600080fd5b81356001600160401b038111156137af57600080fd5b6135b48482850161312c565b600080604083850312156137ce57600080fd5b82356001600160401b03808211156137e557600080fd5b6137f186838701613009565b9350602085013591508082111561380757600080fd5b506134e585828601613009565b600080600080600060a0868803121561382c57600080fd5b8535945060208601356001600160401b038082111561384a57600080fd5b61385689838a01612f0b565b9550604088013591508082111561386c57600080fd5b61387889838a01612f0b565b9450606088013591508082111561388e57600080fd5b61389a89838a01612f0b565b935060808801359150808211156138b057600080fd5b506136a288828901612f0b565b60208082526015908201527413db9b1e4818dbdb5c185b9e4818d85b8818d85b1b605a1b604082015260600190565b60208082526018908201527f4d69736d61746368656420696e707574206c656e677468730000000000000000604082015260600190565b634e487b7160e01b600052603260045260246000fd5b60208082526026908201527f43616e646964617465207769746820676976656e20494420646f6573206e6f7460408201526508195e1a5cdd60d21b606082015260800190565b634e487b7160e01b600052601160045260246000fd5b808201808211156139a8576139a861397f565b92915050565b600181811c908216806139c257607f821691505b6020821081036139e257634e487b7160e01b600052602260045260246000fd5b50919050565b601f8211156117e257600081815260208120601f850160051c81016020861015613a0f5750805b601f850160051c820191505b8181101561078c57828155600101613a1b565b81516001600160401b03811115613a4757613a47612ea2565b613a5b81613a5584546139ae565b846139e8565b602080601f831160018114613a905760008415613a785750858301515b600019600386901b1c1916600185901b17855561078c565b600085815260208120601f198616915b82811015613abf57888601518255948401946001909101908401613aa0565b5085821015613add5787850151600019600388901b60f8161c191681555b5050505050600190811b01905550565b600060018201613aff57613aff61397f565b5060010190565b60c081526000613b1960c08301896132c7565b8281036020840152613b2b81896132c7565b905086604084015285606084015284608084015282810360a0840152613b5181856132c7565b9998505050505050505050565b6020808252601f908201527f4f6e6c79207665726966696572206f72206f776e65722063616e2063616c6c00604082015260600190565b60c081526000613ba860c08301896132c7565b8760208401528281036040840152613bc081886132c7565b90508281036060840152613bd481876132c7565b90508281036080840152613be881866132c7565b905082810360a0840152613b5181856132c7565b818103818111156139a8576139a861397f565b634e487b7160e01b600052603160045260246000fd5b60208082526016908201527513db9b1e481d995c9a599a595c8818d85b8818d85b1b60521b604082015260600190565b600081613c6457613c6461397f565b506000190190565b60208082526035908201527f4e6f20646f63756d656e7420666f756e6420666f722074686520676976656e2060408201527463616e64696461746520616e6420636f6d70616e7960581b60608201526080019056fea264697066735822122030579bd5948c4f0a9d208f8f30edfc6aba11d7dc4fa3a95973dcf5670659bd7364736f6c63430008140033","opcodes":"PUSH1 0x80 PUSH1 0x40 MSTORE PUSH1 0xA PUSH1 0x2 SSTORE CALLVALUE DUP1 ISZERO PUSH3 0x16 JUMPI PUSH1 0x0 DUP1 REVERT JUMPDEST POP PUSH3 0x22 CALLER PUSH3 0x28 JUMP JUMPDEST PUSH3 0x78 JUMP JUMPDEST PUSH1 0x0 DUP1 SLOAD PUSH1 0x1 PUSH1 0x1 PUSH1 0xA0 SHL SUB DUP4 DUP2 AND PUSH1 0x1 PUSH1 0x1 PUSH1 0xA0 SHL SUB NOT DUP4 AND DUP2 OR DUP5 SSTORE PUSH1 0x40 MLOAD SWAP2 SWAP1 SWAP3 AND SWAP3 DUP4 SWAP2 PUSH32 0x8BE0079C531659141344CD1FD0A4F28419497F9722A3DAAFE3B4186F6B6457E0 SWAP2 SWAP1 LOG3 POP POP JUMP JUMPDEST PUSH2 0x3CF7 DUP1 PUSH3 0x88 PUSH1 0x0 CODECOPY PUSH1 0x0 RETURN INVALID PUSH1 0x80 PUSH1 0x40 MSTORE CALLVALUE DUP1 ISZERO PUSH2 0x10 JUMPI PUSH1 0x0 DUP1 REVERT JUMPDEST POP PUSH1 0x4 CALLDATASIZE LT PUSH2 0x1F0 JUMPI PUSH1 0x0 CALLDATALOAD PUSH1 0xE0 SHR DUP1 PUSH4 0x854DA658 GT PUSH2 0x10F JUMPI DUP1 PUSH4 0xB4D7E8DF GT PUSH2 0xA2 JUMPI DUP1 PUSH4 0xC2ED2B05 GT PUSH2 0x71 JUMPI DUP1 PUSH4 0xC2ED2B05 EQ PUSH2 0x48F JUMPI DUP1 PUSH4 0xEED18318 EQ PUSH2 0x4A2 JUMPI DUP1 PUSH4 0xF2FDE38B EQ PUSH2 0x4B5 JUMPI DUP1 PUSH4 0xFC7435E1 EQ PUSH2 0x4C8 JUMPI PUSH1 0x0 DUP1 REVERT JUMPDEST DUP1 PUSH4 0xB4D7E8DF EQ PUSH2 0x441 JUMPI DUP1 PUSH4 0xB5344257 EQ PUSH2 0x456 JUMPI DUP1 PUSH4 0xBB3096AA EQ PUSH2 0x469 JUMPI DUP1 PUSH4 0xBFBBF509 EQ PUSH2 0x47C JUMPI PUSH1 0x0 DUP1 REVERT JUMPDEST DUP1 PUSH4 0x8DA5CB5B GT PUSH2 0xDE JUMPI DUP1 PUSH4 0x8DA5CB5B EQ PUSH2 0x3E8 JUMPI DUP1 PUSH4 0x99E37A55 EQ PUSH2 0x3F9 JUMPI DUP1 PUSH4 0xA935E766 EQ PUSH2 0x419 JUMPI DUP1 PUSH4 0xAC1EFF68 EQ PUSH2 0x42E JUMPI PUSH1 0x0 DUP1 REVERT JUMPDEST DUP1 PUSH4 0x854DA658 EQ PUSH2 0x380 JUMPI DUP1 PUSH4 0x874FDF2D EQ PUSH2 0x393 JUMPI DUP1 PUSH4 0x893D20E8 EQ PUSH2 0x39C JUMPI DUP1 PUSH4 0x8B0E6305 EQ PUSH2 0x3C1 JUMPI PUSH1 0x0 DUP1 REVERT JUMPDEST DUP1 PUSH4 0x4DC95895 GT PUSH2 0x187 JUMPI DUP1 PUSH4 0x6DD08047 GT PUSH2 0x156 JUMPI DUP1 PUSH4 0x6DD08047 EQ PUSH2 0x33C JUMPI DUP1 PUSH4 0x715018A6 EQ PUSH2 0x35C JUMPI DUP1 PUSH4 0x78BDA750 EQ PUSH2 0x364 JUMPI DUP1 PUSH4 0x7FBC12AF EQ PUSH2 0x36D JUMPI PUSH1 0x0 DUP1 REVERT JUMPDEST DUP1 PUSH4 0x4DC95895 EQ PUSH2 0x2E6 JUMPI DUP1 PUSH4 0x5216509A EQ PUSH2 0x2F9 JUMPI DUP1 PUSH4 0x57D13917 EQ PUSH2 0x302 JUMPI DUP1 PUSH4 0x5990CE80 EQ PUSH2 0x329 JUMPI PUSH1 0x0 DUP1 REVERT JUMPDEST DUP1 PUSH4 0x3477EE2E GT PUSH2 0x1C3 JUMPI DUP1 PUSH4 0x3477EE2E EQ PUSH2 0x260 JUMPI DUP1 PUSH4 0x35B8E820 EQ PUSH2 0x287 JUMPI DUP1 PUSH4 0x3F9B250A EQ PUSH2 0x2AB JUMPI DUP1 PUSH4 0x41AFFD45 EQ PUSH2 0x2CF JUMPI PUSH1 0x0 DUP1 REVERT JUMPDEST DUP1 PUSH4 0x1546A239 EQ PUSH2 0x1F5 JUMPI DUP1 PUSH4 0x187C1EBE EQ PUSH2 0x20A JUMPI DUP1 PUSH4 0x1A203A31 EQ PUSH2 0x21D JUMPI DUP1 PUSH4 0x2813D19D EQ PUSH2 0x230 JUMPI JUMPDEST PUSH1 0x0 DUP1 REVERT JUMPDEST PUSH2 0x208 PUSH2 0x203 CALLDATASIZE PUSH1 0x4 PUSH2 0x3064 JUMP JUMPDEST PUSH2 0x4DB JUMP JUMPDEST STOP JUMPDEST PUSH2 0x208 PUSH2 0x218 CALLDATASIZE PUSH1 0x4 PUSH2 0x318E JUMP JUMPDEST PUSH2 0x794 JUMP JUMPDEST PUSH2 0x208 PUSH2 0x22B CALLDATASIZE PUSH1 0x4 PUSH2 0x3282 JUMP JUMPDEST PUSH2 0xA9C JUMP JUMPDEST PUSH2 0x243 PUSH2 0x23E CALLDATASIZE PUSH1 0x4 PUSH2 0x32AE JUMP JUMPDEST PUSH2 0xC1C JUMP JUMPDEST PUSH1 0x40 MLOAD PUSH2 0x257 SWAP9 SWAP8 SWAP7 SWAP6 SWAP5 SWAP4 SWAP3 SWAP2 SWAP1 PUSH2 0x330D JUMP JUMPDEST PUSH1 0x40 MLOAD DUP1 SWAP2 SUB SWAP1 RETURN JUMPDEST PUSH2 0x273 PUSH2 0x26E CALLDATASIZE PUSH1 0x4 PUSH2 0x32AE JUMP JUMPDEST PUSH2 0xF0F JUMP JUMPDEST PUSH1 0x40 MLOAD PUSH2 0x257 SWAP9 SWAP8 SWAP7 SWAP6 SWAP5 SWAP4 SWAP3 SWAP2 SWAP1 PUSH2 0x339D JUMP JUMPDEST PUSH2 0x29A PUSH2 0x295 CALLDATASIZE PUSH1 0x4 PUSH2 0x32AE JUMP JUMPDEST PUSH2 0xFDF JUMP JUMPDEST PUSH1 0x40 MLOAD PUSH2 0x257 SWAP6 SWAP5 SWAP4 SWAP3 SWAP2 SWAP1 PUSH2 0x33EA JUMP JUMPDEST PUSH2 0x2BE PUSH2 0x2B9 CALLDATASIZE PUSH1 0x4 PUSH2 0x32AE JUMP JUMPDEST PUSH2 0x12B3 JUMP JUMPDEST PUSH1 0x40 MLOAD PUSH2 0x257 SWAP6 SWAP5 SWAP4 SWAP3 SWAP2 SWAP1 PUSH2 0x3449 JUMP JUMPDEST PUSH2 0x2D8 PUSH1 0x4 SLOAD DUP2 JUMP JUMPDEST PUSH1 0x40 MLOAD SWAP1 DUP2 MSTORE PUSH1 0x20 ADD PUSH2 0x257 JUMP JUMPDEST PUSH2 0x208 PUSH2 0x2F4 CALLDATASIZE PUSH1 0x4 PUSH2 0x348C JUMP JUMPDEST PUSH2 0x14F7 JUMP JUMPDEST PUSH2 0x2D8 PUSH1 0x5 SLOAD DUP2 JUMP JUMPDEST PUSH2 0x315 PUSH2 0x310 CALLDATASIZE PUSH1 0x4 PUSH2 0x32AE JUMP JUMPDEST PUSH2 0x17E7 JUMP JUMPDEST PUSH1 0x40 MLOAD PUSH2 0x257 SWAP9 SWAP8 SWAP7 SWAP6 SWAP5 SWAP4 SWAP3 SWAP2 SWAP1 PUSH2 0x34EF JUMP JUMPDEST PUSH2 0x208 PUSH2 0x337 CALLDATASIZE PUSH1 0x4 PUSH2 0x3580 JUMP JUMPDEST PUSH2 0x1B78 JUMP JUMPDEST PUSH2 0x2D8 PUSH2 0x34A CALLDATASIZE PUSH1 0x4 PUSH2 0x35BC JUMP JUMPDEST PUSH1 0x7 PUSH1 0x20 MSTORE PUSH1 0x0 SWAP1 DUP2 MSTORE PUSH1 0x40 SWAP1 KECCAK256 SLOAD DUP2 JUMP JUMPDEST PUSH2 0x208 PUSH2 0x1D79 JUMP JUMPDEST PUSH2 0x2D8 PUSH1 0x2 SLOAD DUP2 JUMP JUMPDEST PUSH2 0x208 PUSH2 0x37B CALLDATASIZE PUSH1 0x4 PUSH2 0x35DE JUMP JUMPDEST PUSH2 0x1D8D JUMP JUMPDEST PUSH2 0x208 PUSH2 0x38E CALLDATASIZE PUSH1 0x4 PUSH2 0x3580 JUMP JUMPDEST PUSH2 0x212A JUMP JUMPDEST PUSH2 0x2D8 PUSH1 0x3 SLOAD DUP2 JUMP JUMPDEST PUSH1 0x0 SLOAD PUSH1 0x1 PUSH1 0x1 PUSH1 0xA0 SHL SUB AND JUMPDEST PUSH1 0x40 MLOAD PUSH1 0x1 PUSH1 0x1 PUSH1 0xA0 SHL SUB SWAP1 SWAP2 AND DUP2 MSTORE PUSH1 0x20 ADD PUSH2 0x257 JUMP JUMPDEST PUSH2 0x3D4 PUSH2 0x3CF CALLDATASIZE PUSH1 0x4 PUSH2 0x36AF JUMP JUMPDEST PUSH2 0x2285 JUMP JUMPDEST PUSH1 0x40 MLOAD PUSH2 0x257 SWAP9 SWAP8 SWAP7 SWAP6 SWAP5 SWAP4 SWAP3 SWAP2 SWAP1 PUSH2 0x36D1 JUMP JUMPDEST PUSH1 0x0 SLOAD PUSH1 0x1 PUSH1 0x1 PUSH1 0xA0 SHL SUB AND PUSH2 0x3A9 JUMP JUMPDEST PUSH2 0x2D8 PUSH2 0x407 CALLDATASIZE PUSH1 0x4 PUSH2 0x35BC JUMP JUMPDEST PUSH1 0xB PUSH1 0x20 MSTORE PUSH1 0x0 SWAP1 DUP2 MSTORE PUSH1 0x40 SWAP1 KECCAK256 SLOAD DUP2 JUMP JUMPDEST PUSH2 0x421 PUSH2 0x246F JUMP JUMPDEST PUSH1 0x40 MLOAD PUSH2 0x257 SWAP2 SWAP1 PUSH2 0x373A JUMP JUMPDEST PUSH2 0x3A9 PUSH2 0x43C CALLDATASIZE PUSH1 0x4 PUSH2 0x32AE JUMP JUMPDEST PUSH2 0x24D1 JUMP JUMPDEST CALLER PUSH1 0x0 SWAP1 DUP2 MSTORE PUSH1 0x7 PUSH1 0x20 MSTORE PUSH1 0x40 SWAP1 KECCAK256 SLOAD PUSH2 0x2D8 JUMP JUMPDEST PUSH2 0x208 PUSH2 0x464 CALLDATASIZE PUSH1 0x4 PUSH2 0x3787 JUMP JUMPDEST PUSH2 0x24FB JUMP JUMPDEST PUSH2 0x208 PUSH2 0x477 CALLDATASIZE PUSH1 0x4 PUSH2 0x37BB JUMP JUMPDEST PUSH2 0x26BB JUMP JUMPDEST PUSH2 0x208 PUSH2 0x48A CALLDATASIZE PUSH1 0x4 PUSH2 0x3814 JUMP JUMPDEST PUSH2 0x28E4 JUMP JUMPDEST PUSH2 0x3D4 PUSH2 0x49D CALLDATASIZE PUSH1 0x4 PUSH2 0x32AE JUMP JUMPDEST PUSH2 0x2A8A JUMP JUMPDEST PUSH2 0x208 PUSH2 0x4B0 CALLDATASIZE PUSH1 0x4 PUSH2 0x3580 JUMP JUMPDEST PUSH2 0x2AAC JUMP JUMPDEST PUSH2 0x208 PUSH2 0x4C3 CALLDATASIZE PUSH1 0x4 PUSH2 0x35BC JUMP JUMPDEST PUSH2 0x2C4D JUMP JUMPDEST PUSH2 0x208 PUSH2 0x4D6 CALLDATASIZE PUSH1 0x4 PUSH2 0x32AE JUMP JUMPDEST PUSH2 0x2CC6 JUMP JUMPDEST CALLER PUSH1 0x0 SWAP1 DUP2 MSTORE PUSH1 0x7 PUSH1 0x20 MSTORE PUSH1 0x40 SWAP1 KECCAK256 SLOAD PUSH2 0x510 JUMPI PUSH1 0x40 MLOAD PUSH3 0x461BCD PUSH1 0xE5 SHL DUP2 MSTORE PUSH1 0x4 ADD PUSH2 0x507 SWAP1 PUSH2 0x38BD JUMP JUMPDEST PUSH1 0x40 MLOAD DUP1 SWAP2 SUB SWAP1 REVERT JUMPDEST DUP3 MLOAD DUP5 MLOAD EQ DUP1 ISZERO PUSH2 0x522 JUMPI POP DUP2 MLOAD DUP5 MLOAD EQ JUMPDEST DUP1 ISZERO PUSH2 0x52F JUMPI POP DUP1 MLOAD DUP5 MLOAD EQ JUMPDEST PUSH2 0x54B JUMPI PUSH1 0x40 MLOAD PUSH3 0x461BCD PUSH1 0xE5 SHL DUP2 MSTORE PUSH1 0x4 ADD PUSH2 0x507 SWAP1 PUSH2 0x38EC JUMP JUMPDEST CALLER PUSH1 0x0 SWAP1 DUP2 MSTORE PUSH1 0x7 PUSH1 0x20 MSTORE PUSH1 0x40 DUP2 KECCAK256 SLOAD SWAP1 JUMPDEST DUP6 MLOAD DUP2 LT ISZERO PUSH2 0x78C JUMPI PUSH1 0x0 DUP7 DUP3 DUP2 MLOAD DUP2 LT PUSH2 0x57A JUMPI PUSH2 0x57A PUSH2 0x3923 JUMP JUMPDEST PUSH1 0x20 MUL PUSH1 0x20 ADD ADD MLOAD SWAP1 POP PUSH1 0x0 DUP7 DUP4 DUP2 MLOAD DUP2 LT PUSH2 0x598 JUMPI PUSH2 0x598 PUSH2 0x3923 JUMP JUMPDEST PUSH1 0x20 MUL PUSH1 0x20 ADD ADD MLOAD SWAP1 POP PUSH1 0x0 DUP7 DUP5 DUP2 MLOAD DUP2 LT PUSH2 0x5B6 JUMPI PUSH2 0x5B6 PUSH2 0x3923 JUMP JUMPDEST PUSH1 0x20 MUL PUSH1 0x20 ADD ADD MLOAD SWAP1 POP PUSH1 0x0 DUP7 DUP6 DUP2 MLOAD DUP2 LT PUSH2 0x5D4 JUMPI PUSH2 0x5D4 PUSH2 0x3923 JUMP JUMPDEST PUSH1 0x20 MUL PUSH1 0x20 ADD ADD MLOAD SWAP1 POP PUSH1 0x8 PUSH1 0x0 DUP4 DUP2 MSTORE PUSH1 0x20 ADD SWAP1 DUP2 MSTORE PUSH1 0x20 ADD PUSH1 0x0 KECCAK256 PUSH1 0x4 ADD SLOAD PUSH1 0x0 SUB PUSH2 0x614 JUMPI PUSH1 0x40 MLOAD PUSH3 0x461BCD PUSH1 0xE5 SHL DUP2 MSTORE PUSH1 0x4 ADD PUSH2 0x507 SWAP1 PUSH2 0x3939 JUMP JUMPDEST PUSH1 0x0 DUP3 DUP2 MSTORE PUSH1 0x8 PUSH1 0x20 MSTORE PUSH1 0x40 DUP2 KECCAK256 PUSH1 0x4 ADD SLOAD PUSH2 0x631 SWAP1 DUP8 SWAP1 PUSH2 0x3995 JUMP JUMPDEST PUSH1 0x40 DUP1 MLOAD PUSH2 0x100 DUP2 ADD DUP3 MSTORE TIMESTAMP DUP2 MSTORE PUSH1 0x20 DUP1 DUP3 ADD DUP10 DUP2 MSTORE DUP3 DUP5 ADD DUP6 SWAP1 MSTORE PUSH1 0x60 DUP4 ADD DUP10 SWAP1 MSTORE PUSH1 0x80 DUP4 ADD DUP8 SWAP1 MSTORE PUSH1 0x0 PUSH1 0xA0 DUP5 ADD DUP2 SWAP1 MSTORE PUSH1 0xC0 DUP5 ADD DUP14 SWAP1 MSTORE PUSH1 0xE0 DUP5 ADD DUP10 SWAP1 MSTORE DUP13 DUP2 MSTORE PUSH1 0xA DUP4 MSTORE DUP5 DUP2 KECCAK256 DUP10 DUP3 MSTORE SWAP1 SWAP3 MSTORE SWAP3 SWAP1 KECCAK256 DUP2 MLOAD DUP2 SSTORE SWAP2 MLOAD SWAP3 SWAP4 POP SWAP2 PUSH1 0x1 DUP3 ADD SWAP1 PUSH2 0x69E SWAP1 DUP3 PUSH2 0x3A2E JUMP JUMPDEST POP PUSH1 0x40 DUP3 ADD MLOAD PUSH1 0x2 DUP3 ADD SSTORE PUSH1 0x60 DUP3 ADD MLOAD PUSH1 0x3 DUP3 ADD SWAP1 PUSH2 0x6BD SWAP1 DUP3 PUSH2 0x3A2E JUMP JUMPDEST POP PUSH1 0x80 DUP3 ADD MLOAD PUSH1 0x4 DUP3 ADD SWAP1 PUSH2 0x6D2 SWAP1 DUP3 PUSH2 0x3A2E JUMP JUMPDEST POP PUSH1 0xA0 DUP3 ADD MLOAD PUSH1 0x5 DUP3 ADD DUP1 SLOAD PUSH1 0xFF NOT AND SWAP2 ISZERO ISZERO SWAP2 SWAP1 SWAP2 OR SWAP1 SSTORE PUSH1 0xC0 DUP3 ADD MLOAD PUSH1 0x6 DUP3 ADD SSTORE PUSH1 0xE0 SWAP1 SWAP2 ADD MLOAD PUSH1 0x7 SWAP1 SWAP2 ADD SSTORE PUSH1 0x4 DUP1 SLOAD SWAP1 PUSH1 0x0 PUSH2 0x711 DUP4 PUSH2 0x3AED JUMP JUMPDEST SWAP1 SWAP2 SSTORE POP POP PUSH1 0x0 DUP8 DUP2 MSTORE PUSH1 0xA PUSH1 0x20 SWAP1 DUP2 MSTORE PUSH1 0x40 DUP1 DUP4 KECCAK256 DUP7 DUP5 MSTORE SWAP1 SWAP2 MSTORE SWAP1 DUP2 SWAP1 KECCAK256 SLOAD SWAP1 MLOAD DUP3 SWAP2 PUSH32 0xD3ED96614ADF2B10E41F86DD9C3930FCE8E45B5FD05644A610BB234BB21C2921 SWAP2 PUSH2 0x76C SWAP2 DUP10 SWAP2 DUP10 SWAP2 DUP14 SWAP2 DUP11 SWAP2 SWAP1 DUP11 SWAP1 PUSH2 0x3B06 JUMP JUMPDEST PUSH1 0x40 MLOAD DUP1 SWAP2 SUB SWAP1 LOG2 POP POP POP POP POP DUP1 DUP1 PUSH2 0x784 SWAP1 PUSH2 0x3AED JUMP JUMPDEST SWAP2 POP POP PUSH2 0x55D JUMP JUMPDEST POP POP POP POP POP POP JUMP JUMPDEST PUSH2 0x79C PUSH2 0x2D36 JUMP JUMPDEST DUP1 PUSH2 0x7C0 JUMPI POP CALLER PUSH2 0x7B5 PUSH1 0x0 SLOAD PUSH1 0x1 PUSH1 0x1 PUSH1 0xA0 SHL SUB AND SWAP1 JUMP JUMPDEST PUSH1 0x1 PUSH1 0x1 PUSH1 0xA0 SHL SUB AND EQ JUMPDEST PUSH2 0x7DC JUMPI PUSH1 0x40 MLOAD PUSH3 0x461BCD PUSH1 0xE5 SHL DUP2 MSTORE PUSH1 0x4 ADD PUSH2 0x507 SWAP1 PUSH2 0x3B5E JUMP JUMPDEST DUP5 MLOAD DUP7 MLOAD EQ DUP1 ISZERO PUSH2 0x7EE JUMPI POP DUP4 MLOAD DUP7 MLOAD EQ JUMPDEST DUP1 ISZERO PUSH2 0x7FB JUMPI POP DUP3 MLOAD DUP7 MLOAD EQ JUMPDEST DUP1 ISZERO PUSH2 0x808 JUMPI POP DUP2 MLOAD DUP7 MLOAD EQ JUMPDEST DUP1 ISZERO PUSH2 0x815 JUMPI POP DUP1 MLOAD DUP7 MLOAD EQ JUMPDEST PUSH2 0x831 JUMPI PUSH1 0x40 MLOAD PUSH3 0x461BCD PUSH1 0xE5 SHL DUP2 MSTORE PUSH1 0x4 ADD PUSH2 0x507 SWAP1 PUSH2 0x38EC JUMP JUMPDEST PUSH1 0x0 JUMPDEST DUP7 MLOAD DUP2 LT ISZERO PUSH2 0xA93 JUMPI PUSH1 0x0 DUP8 DUP3 DUP2 MLOAD DUP2 LT PUSH2 0x851 JUMPI PUSH2 0x851 PUSH2 0x3923 JUMP JUMPDEST PUSH1 0x20 MUL PUSH1 0x20 ADD ADD MLOAD SWAP1 POP PUSH1 0x0 DUP8 DUP4 DUP2 MLOAD DUP2 LT PUSH2 0x86F JUMPI PUSH2 0x86F PUSH2 0x3923 JUMP JUMPDEST PUSH1 0x20 MUL PUSH1 0x20 ADD ADD MLOAD SWAP1 POP PUSH1 0x0 DUP8 DUP5 DUP2 MLOAD DUP2 LT PUSH2 0x88D JUMPI PUSH2 0x88D PUSH2 0x3923 JUMP JUMPDEST PUSH1 0x20 MUL PUSH1 0x20 ADD ADD MLOAD SWAP1 POP PUSH1 0x0 DUP8 DUP6 DUP2 MLOAD DUP2 LT PUSH2 0x8AB JUMPI PUSH2 0x8AB PUSH2 0x3923 JUMP JUMPDEST PUSH1 0x20 MUL PUSH1 0x20 ADD ADD MLOAD SWAP1 POP PUSH1 0x0 DUP8 DUP7 DUP2 MLOAD DUP2 LT PUSH2 0x8C9 JUMPI PUSH2 0x8C9 PUSH2 0x3923 JUMP JUMPDEST PUSH1 0x20 MUL PUSH1 0x20 ADD ADD MLOAD SWAP1 POP PUSH1 0x0 DUP8 DUP8 DUP2 MLOAD DUP2 LT PUSH2 0x8E7 JUMPI PUSH2 0x8E7 PUSH2 0x3923 JUMP JUMPDEST PUSH1 0x20 MUL PUSH1 0x20 ADD ADD MLOAD SWAP1 POP PUSH1 0x0 PUSH1 0x3 SLOAD PUSH1 0x1 PUSH2 0x902 SWAP2 SWAP1 PUSH2 0x3995 JUMP JUMPDEST PUSH1 0x40 DUP1 MLOAD PUSH2 0x100 DUP2 ADD DUP3 MSTORE TIMESTAMP DUP2 MSTORE PUSH1 0x1 PUSH1 0x1 PUSH1 0xA0 SHL SUB DUP11 DUP2 AND PUSH1 0x20 DUP1 DUP5 ADD SWAP2 DUP3 MSTORE DUP4 DUP6 ADD DUP13 DUP2 MSTORE PUSH1 0x60 DUP6 ADD DUP8 SWAP1 MSTORE PUSH1 0x80 DUP6 ADD DUP13 SWAP1 MSTORE PUSH1 0xA0 DUP6 ADD DUP12 SWAP1 MSTORE PUSH1 0xC0 DUP6 ADD DUP11 SWAP1 MSTORE PUSH1 0xE0 DUP6 ADD DUP10 SWAP1 MSTORE PUSH1 0x0 DUP8 DUP2 MSTORE PUSH1 0x6 SWAP1 SWAP3 MSTORE SWAP5 SWAP1 KECCAK256 DUP4 MLOAD DUP2 SSTORE SWAP1 MLOAD PUSH1 0x1 DUP3 ADD DUP1 SLOAD PUSH1 0x1 PUSH1 0x1 PUSH1 0xA0 SHL SUB NOT AND SWAP2 SWAP1 SWAP4 AND OR SWAP1 SWAP2 SSTORE SWAP2 MLOAD SWAP3 SWAP4 POP SWAP2 PUSH1 0x2 DUP3 ADD SWAP1 PUSH2 0x98C SWAP1 DUP3 PUSH2 0x3A2E JUMP JUMPDEST POP PUSH1 0x60 DUP3 ADD MLOAD PUSH1 0x3 DUP3 ADD SSTORE PUSH1 0x80 DUP3 ADD MLOAD PUSH1 0x4 DUP3 ADD SWAP1 PUSH2 0x9AB SWAP1 DUP3 PUSH2 0x3A2E JUMP JUMPDEST POP PUSH1 0xA0 DUP3 ADD MLOAD PUSH1 0x5 DUP3 ADD SWAP1 PUSH2 0x9C0 SWAP1 DUP3 PUSH2 0x3A2E JUMP JUMPDEST POP PUSH1 0xC0 DUP3 ADD MLOAD PUSH1 0x6 DUP3 ADD SWAP1 PUSH2 0x9D5 SWAP1 DUP3 PUSH2 0x3A2E JUMP JUMPDEST POP PUSH1 0xE0 DUP3 ADD MLOAD PUSH1 0x7 DUP3 ADD SWAP1 PUSH2 0x9EA SWAP1 DUP3 PUSH2 0x3A2E JUMP JUMPDEST POP POP POP PUSH1 0x1 PUSH1 0x1 PUSH1 0xA0 SHL SUB DUP8 AND PUSH1 0x0 SWAP1 DUP2 MSTORE PUSH1 0x7 PUSH1 0x20 MSTORE PUSH1 0x40 DUP2 KECCAK256 DUP3 SWAP1 SSTORE PUSH1 0x3 DUP1 SLOAD SWAP2 PUSH2 0xA16 DUP4 PUSH2 0x3AED JUMP JUMPDEST SWAP1 SWAP2 SSTORE POP POP PUSH1 0x0 DUP2 DUP2 MSTORE PUSH1 0x6 PUSH1 0x20 MSTORE PUSH1 0x40 SWAP1 DUP2 SWAP1 KECCAK256 SLOAD SWAP1 MLOAD PUSH1 0x1 PUSH1 0x1 PUSH1 0xA0 SHL SUB DUP10 AND SWAP2 DUP4 SWAP2 PUSH32 0x261DA74C4A3CFAA656AC5EAA9EEFD94E3C13A0635ACE95AF2FAE2DBF3390CDE0 SWAP2 PUSH2 0xA71 SWAP2 DUP12 SWAP2 SWAP1 DUP12 SWAP1 DUP12 SWAP1 DUP12 SWAP1 DUP12 SWAP1 PUSH2 0x3B95 JUMP JUMPDEST PUSH1 0x40 MLOAD DUP1 SWAP2 SUB SWAP1 LOG3 POP POP POP POP POP POP POP DUP1 DUP1 PUSH2 0xA8B SWAP1 PUSH2 0x3AED JUMP JUMPDEST SWAP2 POP POP PUSH2 0x834 JUMP JUMPDEST POP POP POP POP POP POP POP JUMP JUMPDEST CALLER PUSH1 0x0 SWAP1 DUP2 MSTORE PUSH1 0x7 PUSH1 0x20 MSTORE PUSH1 0x40 SWAP1 KECCAK256 SLOAD PUSH2 0xAC8 JUMPI PUSH1 0x40 MLOAD PUSH3 0x461BCD PUSH1 0xE5 SHL DUP2 MSTORE PUSH1 0x4 ADD PUSH2 0x507 SWAP1 PUSH2 0x38BD JUMP JUMPDEST PUSH1 0x0 DUP3 DUP2 MSTORE PUSH1 0x8 PUSH1 0x20 MSTORE PUSH1 0x40 DUP2 KECCAK256 PUSH1 0x4 ADD SLOAD SWAP1 SUB PUSH2 0xAF8 JUMPI PUSH1 0x40 MLOAD PUSH3 0x461BCD PUSH1 0xE5 SHL DUP2 MSTORE PUSH1 0x4 ADD PUSH2 0x507 SWAP1 PUSH2 0x3939 JUMP JUMPDEST PUSH1 0x0 DUP3 DUP2 MSTORE PUSH1 0x8 PUSH1 0x20 MSTORE PUSH1 0x40 SWAP1 KECCAK256 PUSH1 0x2 ADD SLOAD PUSH1 0x1 PUSH1 0x1 PUSH1 0xA0 SHL SUB AND ISZERO PUSH2 0xBB5 JUMPI PUSH1 0x0 DUP3 DUP2 MSTORE PUSH1 0x8 PUSH1 0x20 MSTORE PUSH1 0x40 SWAP1 KECCAK256 PUSH1 0x2 ADD SLOAD PUSH1 0x1 PUSH1 0x1 PUSH1 0xA0 SHL SUB AND CALLER EQ PUSH2 0xBB5 JUMPI PUSH1 0x40 MLOAD PUSH3 0x461BCD PUSH1 0xE5 SHL DUP2 MSTORE PUSH1 0x20 PUSH1 0x4 DUP3 ADD MSTORE PUSH1 0x44 PUSH1 0x24 DUP3 ADD DUP2 SWAP1 MSTORE PUSH32 0x596F7520646F206E6F742068617665207065726D697373696F6E20746F206564 SWAP1 DUP3 ADD MSTORE PUSH32 0x69742063757272656E74436F6D70616E7920666F7220746869732063616E6469 PUSH1 0x64 DUP3 ADD MSTORE PUSH4 0x64617465 PUSH1 0xE0 SHL PUSH1 0x84 DUP3 ADD MSTORE PUSH1 0xA4 ADD PUSH2 0x507 JUMP JUMPDEST PUSH1 0x0 DUP3 DUP2 MSTORE PUSH1 0x8 PUSH1 0x20 SWAP1 DUP2 MSTORE PUSH1 0x40 SWAP2 DUP3 SWAP1 KECCAK256 PUSH1 0x2 ADD DUP1 SLOAD PUSH1 0x1 PUSH1 0x1 PUSH1 0xA0 SHL SUB NOT AND PUSH1 0x1 PUSH1 0x1 PUSH1 0xA0 SHL SUB DUP6 AND SWAP1 DUP2 OR SWAP1 SWAP2 SSTORE SWAP2 MLOAD SWAP2 DUP3 MSTORE DUP4 SWAP2 PUSH32 0x1004BF4098083445CD4AC13954FDCEA1D9530A61F6F2A7D5A628BEA6141EB17C SWAP2 ADD PUSH1 0x40 MLOAD DUP1 SWAP2 SUB SWAP1 LOG2 POP POP JUMP JUMPDEST PUSH1 0x6 PUSH1 0x20 MSTORE PUSH1 0x0 SWAP1 DUP2 MSTORE PUSH1 0x40 SWAP1 KECCAK256 DUP1 SLOAD PUSH1 0x1 DUP3 ADD SLOAD PUSH1 0x2 DUP4 ADD DUP1 SLOAD SWAP3 SWAP4 PUSH1 0x1 PUSH1 0x1 PUSH1 0xA0 SHL SUB SWAP1 SWAP3 AND SWAP3 PUSH2 0xC4E SWAP1 PUSH2 0x39AE JUMP JUMPDEST DUP1 PUSH1 0x1F ADD PUSH1 0x20 DUP1 SWAP2 DIV MUL PUSH1 0x20 ADD PUSH1 0x40 MLOAD SWAP1 DUP2 ADD PUSH1 0x40 MSTORE DUP1 SWAP3 SWAP2 SWAP1 DUP2 DUP2 MSTORE PUSH1 0x20 ADD DUP3 DUP1 SLOAD PUSH2 0xC7A SWAP1 PUSH2 0x39AE JUMP JUMPDEST DUP1 ISZERO PUSH2 0xCC7 JUMPI DUP1 PUSH1 0x1F LT PUSH2 0xC9C JUMPI PUSH2 0x100 DUP1 DUP4 SLOAD DIV MUL DUP4 MSTORE SWAP2 PUSH1 0x20 ADD SWAP2 PUSH2 0xCC7 JUMP JUMPDEST DUP3 ADD SWAP2 SWAP1 PUSH1 0x0 MSTORE PUSH1 0x20 PUSH1 0x0 KECCAK256 SWAP1 JUMPDEST DUP2 SLOAD DUP2 MSTORE SWAP1 PUSH1 0x1 ADD SWAP1 PUSH1 0x20 ADD DUP1 DUP4 GT PUSH2 0xCAA JUMPI DUP3 SWAP1 SUB PUSH1 0x1F AND DUP3 ADD SWAP2 JUMPDEST POP POP POP POP POP SWAP1 DUP1 PUSH1 0x3 ADD SLOAD SWAP1 DUP1 PUSH1 0x4 ADD DUP1 SLOAD PUSH2 0xCE2 SWAP1 PUSH2 0x39AE JUMP JUMPDEST DUP1 PUSH1 0x1F ADD PUSH1 0x20 DUP1 SWAP2 DIV MUL PUSH1 0x20 ADD PUSH1 0x40 MLOAD SWAP1 DUP2 ADD PUSH1 0x40 MSTORE DUP1 SWAP3 SWAP2 SWAP1 DUP2 DUP2 MSTORE PUSH1 0x20 ADD DUP3 DUP1 SLOAD PUSH2 0xD0E SWAP1 PUSH2 0x39AE JUMP JUMPDEST DUP1 ISZERO PUSH2 0xD5B JUMPI DUP1 PUSH1 0x1F LT PUSH2 0xD30 JUMPI PUSH2 0x100 DUP1 DUP4 SLOAD DIV MUL DUP4 MSTORE SWAP2 PUSH1 0x20 ADD SWAP2 PUSH2 0xD5B JUMP JUMPDEST DUP3 ADD SWAP2 SWAP1 PUSH1 0x0 MSTORE PUSH1 0x20 PUSH1 0x0 KECCAK256 SWAP1 JUMPDEST DUP2 SLOAD DUP2 MSTORE SWAP1 PUSH1 0x1 ADD SWAP1 PUSH1 0x20 ADD DUP1 DUP4 GT PUSH2 0xD3E JUMPI DUP3 SWAP1 SUB PUSH1 0x1F AND DUP3 ADD SWAP2 JUMPDEST POP POP POP POP POP SWAP1 DUP1 PUSH1 0x5 ADD DUP1 SLOAD PUSH2 0xD70 SWAP1 PUSH2 0x39AE JUMP JUMPDEST DUP1 PUSH1 0x1F ADD PUSH1 0x20 DUP1 SWAP2 DIV MUL PUSH1 0x20 ADD PUSH1 0x40 MLOAD SWAP1 DUP2 ADD PUSH1 0x40 MSTORE DUP1 SWAP3 SWAP2 SWAP1 DUP2 DUP2 MSTORE PUSH1 0x20 ADD DUP3 DUP1 SLOAD PUSH2 0xD9C SWAP1 PUSH2 0x39AE JUMP JUMPDEST DUP1 ISZERO PUSH2 0xDE9 JUMPI DUP1 PUSH1 0x1F LT PUSH2 0xDBE JUMPI PUSH2 0x100 DUP1 DUP4 SLOAD DIV MUL DUP4 MSTORE SWAP2 PUSH1 0x20 ADD SWAP2 PUSH2 0xDE9 JUMP JUMPDEST DUP3 ADD SWAP2 SWAP1 PUSH1 0x0 MSTORE PUSH1 0x20 PUSH1 0x0 KECCAK256 SWAP1 JUMPDEST DUP2 SLOAD DUP2 MSTORE SWAP1 PUSH1 0x1 ADD SWAP1 PUSH1 0x20 ADD DUP1 DUP4 GT PUSH2 0xDCC JUMPI DUP3 SWAP1 SUB PUSH1 0x1F AND DUP3 ADD SWAP2 JUMPDEST POP POP POP POP POP SWAP1 DUP1 PUSH1 0x6 ADD DUP1 SLOAD PUSH2 0xDFE SWAP1 PUSH2 0x39AE JUMP JUMPDEST DUP1 PUSH1 0x1F ADD PUSH1 0x20 DUP1 SWAP2 DIV MUL PUSH1 0x20 ADD PUSH1 0x40 MLOAD SWAP1 DUP2 ADD PUSH1 0x40 MSTORE DUP1 SWAP3 SWAP2 SWAP1 DUP2 DUP2 MSTORE PUSH1 0x20 ADD DUP3 DUP1 SLOAD PUSH2 0xE2A SWAP1 PUSH2 0x39AE JUMP JUMPDEST DUP1 ISZERO PUSH2 0xE77 JUMPI DUP1 PUSH1 0x1F LT PUSH2 0xE4C JUMPI PUSH2 0x100 DUP1 DUP4 SLOAD DIV MUL DUP4 MSTORE SWAP2 PUSH1 0x20 ADD SWAP2 PUSH2 0xE77 JUMP JUMPDEST DUP3 ADD SWAP2 SWAP1 PUSH1 0x0 MSTORE PUSH1 0x20 PUSH1 0x0 KECCAK256 SWAP1 JUMPDEST DUP2 SLOAD DUP2 MSTORE SWAP1 PUSH1 0x1 ADD SWAP1 PUSH1 0x20 ADD DUP1 DUP4 GT PUSH2 0xE5A JUMPI DUP3 SWAP1 SUB PUSH1 0x1F AND DUP3 ADD SWAP2 JUMPDEST POP POP POP POP POP SWAP1 DUP1 PUSH1 0x7 ADD DUP1 SLOAD PUSH2 0xE8C SWAP1 PUSH2 0x39AE JUMP JUMPDEST DUP1 PUSH1 0x1F ADD PUSH1 0x20 DUP1 SWAP2 DIV MUL PUSH1 0x20 ADD PUSH1 0x40 MLOAD SWAP1 DUP2 ADD PUSH1 0x40 MSTORE DUP1 SWAP3 SWAP2 SWAP1 DUP2 DUP2 MSTORE PUSH1 0x20 ADD DUP3 DUP1 SLOAD PUSH2 0xEB8 SWAP1 PUSH2 0x39AE JUMP JUMPDEST DUP1 ISZERO PUSH2 0xF05 JUMPI DUP1 PUSH1 0x1F LT PUSH2 0xEDA JUMPI PUSH2 0x100 DUP1 DUP4 SLOAD DIV MUL DUP4 MSTORE SWAP2 PUSH1 0x20 ADD SWAP2 PUSH2 0xF05 JUMP JUMPDEST DUP3 ADD SWAP2 SWAP1 PUSH1 0x0 MSTORE PUSH1 0x20 PUSH1 0x0 KECCAK256 SWAP1 JUMPDEST DUP2 SLOAD DUP2 MSTORE SWAP1 PUSH1 0x1 ADD SWAP1 PUSH1 0x20 ADD DUP1 DUP4 GT PUSH2 0xEE8 JUMPI DUP3 SWAP1 SUB PUSH1 0x1F AND DUP3 ADD SWAP2 JUMPDEST POP POP POP POP POP SWAP1 POP DUP9 JUMP JUMPDEST PUSH1 0x8 PUSH1 0x20 MSTORE PUSH1 0x0 SWAP1 DUP2 MSTORE PUSH1 0x40 SWAP1 KECCAK256 DUP1 SLOAD PUSH1 0x1 DUP3 ADD SLOAD PUSH1 0x2 DUP4 ADD SLOAD PUSH1 0x3 DUP5 ADD DUP1 SLOAD SWAP4 SWAP5 PUSH1 0x1 PUSH1 0x1 PUSH1 0xA0 SHL SUB SWAP4 DUP5 AND SWAP5 SWAP4 SWAP1 SWAP3 AND SWAP3 PUSH2 0xF4B SWAP1 PUSH2 0x39AE JUMP JUMPDEST DUP1 PUSH1 0x1F ADD PUSH1 0x20 DUP1 SWAP2 DIV MUL PUSH1 0x20 ADD PUSH1 0x40 MLOAD SWAP1 DUP2 ADD PUSH1 0x40 MSTORE DUP1 SWAP3 SWAP2 SWAP1 DUP2 DUP2 MSTORE PUSH1 0x20 ADD DUP3 DUP1 SLOAD PUSH2 0xF77 SWAP1 PUSH2 0x39AE JUMP JUMPDEST DUP1 ISZERO PUSH2 0xFC4 JUMPI DUP1 PUSH1 0x1F LT PUSH2 0xF99 JUMPI PUSH2 0x100 DUP1 DUP4 SLOAD DIV MUL DUP4 MSTORE SWAP2 PUSH1 0x20 ADD SWAP2 PUSH2 0xFC4 JUMP JUMPDEST DUP3 ADD SWAP2 SWAP1 PUSH1 0x0 MSTORE PUSH1 0x20 PUSH1 0x0 KECCAK256 SWAP1 JUMPDEST DUP2 SLOAD DUP2 MSTORE SWAP1 PUSH1 0x1 ADD SWAP1 PUSH1 0x20 ADD DUP1 DUP4 GT PUSH2 0xFA7 JUMPI DUP3 SWAP1 SUB PUSH1 0x1F AND DUP3 ADD SWAP2 JUMPDEST POP POP POP POP POP SWAP1 DUP1 PUSH1 0x4 ADD SLOAD SWAP1 DUP1 PUSH1 0x5 ADD DUP1 SLOAD PUSH2 0xD70 SWAP1 PUSH2 0x39AE JUMP JUMPDEST PUSH1 0x0 DUP2 DUP2 MSTORE PUSH1 0x8 PUSH1 0x20 SWAP1 DUP2 MSTORE PUSH1 0x40 DUP1 DUP4 KECCAK256 DUP2 MLOAD PUSH2 0x100 DUP2 ADD DUP4 MSTORE DUP2 SLOAD DUP2 MSTORE PUSH1 0x1 DUP3 ADD SLOAD PUSH1 0x1 PUSH1 0x1 PUSH1 0xA0 SHL SUB SWAP1 DUP2 AND SWAP5 DUP3 ADD SWAP5 SWAP1 SWAP5 MSTORE PUSH1 0x2 DUP3 ADD SLOAD SWAP1 SWAP4 AND SWAP2 DUP4 ADD SWAP2 SWAP1 SWAP2 MSTORE PUSH1 0x3 DUP2 ADD DUP1 SLOAD PUSH1 0x60 SWAP5 SWAP4 DUP6 SWAP4 DUP5 SWAP4 DUP5 SWAP4 DUP8 SWAP4 SWAP3 SWAP2 DUP4 DUP7 ADD SWAP2 PUSH2 0x1044 SWAP1 PUSH2 0x39AE JUMP JUMPDEST DUP1 PUSH1 0x1F ADD PUSH1 0x20 DUP1 SWAP2 DIV MUL PUSH1 0x20 ADD PUSH1 0x40 MLOAD SWAP1 DUP2 ADD PUSH1 0x40 MSTORE DUP1 SWAP3 SWAP2 SWAP1 DUP2 DUP2 MSTORE PUSH1 0x20 ADD DUP3 DUP1 SLOAD PUSH2 0x1070 SWAP1 PUSH2 0x39AE JUMP JUMPDEST DUP1 ISZERO PUSH2 0x10BD JUMPI DUP1 PUSH1 0x1F LT PUSH2 0x1092 JUMPI PUSH2 0x100 DUP1 DUP4 SLOAD DIV MUL DUP4 MSTORE SWAP2 PUSH1 0x20 ADD SWAP2 PUSH2 0x10BD JUMP JUMPDEST DUP3 ADD SWAP2 SWAP1 PUSH1 0x0 MSTORE PUSH1 0x20 PUSH1 0x0 KECCAK256 SWAP1 JUMPDEST DUP2 SLOAD DUP2 MSTORE SWAP1 PUSH1 0x1 ADD SWAP1 PUSH1 0x20 ADD DUP1 DUP4 GT PUSH2 0x10A0 JUMPI DUP3 SWAP1 SUB PUSH1 0x1F AND DUP3 ADD SWAP2 JUMPDEST POP POP POP POP POP DUP2 MSTORE PUSH1 0x20 ADD PUSH1 0x4 DUP3 ADD SLOAD DUP2 MSTORE PUSH1 0x20 ADD PUSH1 0x5 DUP3 ADD DUP1 SLOAD PUSH2 0x10E0 SWAP1 PUSH2 0x39AE JUMP JUMPDEST DUP1 PUSH1 0x1F ADD PUSH1 0x20 DUP1 SWAP2 DIV MUL PUSH1 0x20 ADD PUSH1 0x40 MLOAD SWAP1 DUP2 ADD PUSH1 0x40 MSTORE DUP1 SWAP3 SWAP2 SWAP1 DUP2 DUP2 MSTORE PUSH1 0x20 ADD DUP3 DUP1 SLOAD PUSH2 0x110C SWAP1 PUSH2 0x39AE JUMP JUMPDEST DUP1 ISZERO PUSH2 0x1159 JUMPI DUP1 PUSH1 0x1F LT PUSH2 0x112E JUMPI PUSH2 0x100 DUP1 DUP4 SLOAD DIV MUL DUP4 MSTORE SWAP2 PUSH1 0x20 ADD SWAP2 PUSH2 0x1159 JUMP JUMPDEST DUP3 ADD SWAP2 SWAP1 PUSH1 0x0 MSTORE PUSH1 0x20 PUSH1 0x0 KECCAK256 SWAP1 JUMPDEST DUP2 SLOAD DUP2 MSTORE SWAP1 PUSH1 0x1 ADD SWAP1 PUSH1 0x20 ADD DUP1 DUP4 GT PUSH2 0x113C JUMPI DUP3 SWAP1 SUB PUSH1 0x1F AND DUP3 ADD SWAP2 JUMPDEST POP POP POP POP POP DUP2 MSTORE PUSH1 0x20 ADD PUSH1 0x6 DUP3 ADD DUP1 SLOAD PUSH2 0x1172 SWAP1 PUSH2 0x39AE JUMP JUMPDEST DUP1 PUSH1 0x1F ADD PUSH1 0x20 DUP1 SWAP2 DIV MUL PUSH1 0x20 ADD PUSH1 0x40 MLOAD SWAP1 DUP2 ADD PUSH1 0x40 MSTORE DUP1 SWAP3 SWAP2 SWAP1 DUP2 DUP2 MSTORE PUSH1 0x20 ADD DUP3 DUP1 SLOAD PUSH2 0x119E SWAP1 PUSH2 0x39AE JUMP JUMPDEST DUP1 ISZERO PUSH2 0x11EB JUMPI DUP1 PUSH1 0x1F LT PUSH2 0x11C0 JUMPI PUSH2 0x100 DUP1 DUP4 SLOAD DIV MUL DUP4 MSTORE SWAP2 PUSH1 0x20 ADD SWAP2 PUSH2 0x11EB JUMP JUMPDEST DUP3 ADD SWAP2 SWAP1 PUSH1 0x0 MSTORE PUSH1 0x20 PUSH1 0x0 KECCAK256 SWAP1 JUMPDEST DUP2 SLOAD DUP2 MSTORE SWAP1 PUSH1 0x1 ADD SWAP1 PUSH1 0x20 ADD DUP1 DUP4 GT PUSH2 0x11CE JUMPI DUP3 SWAP1 SUB PUSH1 0x1F AND DUP3 ADD SWAP2 JUMPDEST POP POP POP POP POP DUP2 MSTORE PUSH1 0x20 ADD PUSH1 0x7 DUP3 ADD DUP1 SLOAD PUSH2 0x1204 SWAP1 PUSH2 0x39AE JUMP JUMPDEST DUP1 PUSH1 0x1F ADD PUSH1 0x20 DUP1 SWAP2 DIV MUL PUSH1 0x20 ADD PUSH1 0x40 MLOAD SWAP1 DUP2 ADD PUSH1 0x40 MSTORE DUP1 SWAP3 SWAP2 SWAP1 DUP2 DUP2 MSTORE PUSH1 0x20 ADD DUP3 DUP1 SLOAD PUSH2 0x1230 SWAP1 PUSH2 0x39AE JUMP JUMPDEST DUP1 ISZERO PUSH2 0x127D JUMPI DUP1 PUSH1 0x1F LT PUSH2 0x1252 JUMPI PUSH2 0x100 DUP1 DUP4 SLOAD DIV MUL DUP4 MSTORE SWAP2 PUSH1 0x20 ADD SWAP2 PUSH2 0x127D JUMP JUMPDEST DUP3 ADD SWAP2 SWAP1 PUSH1 0x0 MSTORE PUSH1 0x20 PUSH1 0x0 KECCAK256 SWAP1 JUMPDEST DUP2 SLOAD DUP2 MSTORE SWAP1 PUSH1 0x1 ADD SWAP1 PUSH1 0x20 ADD DUP1 DUP4 GT PUSH2 0x1260 JUMPI DUP3 SWAP1 SUB PUSH1 0x1F AND DUP3 ADD SWAP2 JUMPDEST POP POP POP SWAP2 SWAP1 SWAP3 MSTORE POP POP POP PUSH1 0x60 DUP2 ADD MLOAD PUSH1 0x80 DUP3 ADD MLOAD PUSH1 0xA0 DUP4 ADD MLOAD PUSH1 0xC0 DUP5 ADD MLOAD PUSH1 0xE0 SWAP1 SWAP5 ADD MLOAD SWAP3 SWAP12 SWAP2 SWAP11 POP SWAP9 POP SWAP2 SWAP7 POP SWAP5 POP SWAP3 POP POP POP JUMP JUMPDEST PUSH1 0x60 DUP1 PUSH1 0x0 DUP1 PUSH1 0x0 DUP1 PUSH1 0x9 PUSH1 0x0 DUP9 DUP2 MSTORE PUSH1 0x20 ADD SWAP1 DUP2 MSTORE PUSH1 0x20 ADD PUSH1 0x0 KECCAK256 PUSH1 0x40 MLOAD DUP1 PUSH2 0x100 ADD PUSH1 0x40 MSTORE SWAP1 DUP2 PUSH1 0x0 DUP3 ADD SLOAD DUP2 MSTORE PUSH1 0x20 ADD PUSH1 0x1 DUP3 ADD DUP1 SLOAD PUSH2 0x12F5 SWAP1 PUSH2 0x39AE JUMP JUMPDEST DUP1 PUSH1 0x1F ADD PUSH1 0x20 DUP1 SWAP2 DIV MUL PUSH1 0x20 ADD PUSH1 0x40 MLOAD SWAP1 DUP2 ADD PUSH1 0x40 MSTORE DUP1 SWAP3 SWAP2 SWAP1 DUP2 DUP2 MSTORE PUSH1 0x20 ADD DUP3 DUP1 SLOAD PUSH2 0x1321 SWAP1 PUSH2 0x39AE JUMP JUMPDEST DUP1 ISZERO PUSH2 0x136E JUMPI DUP1 PUSH1 0x1F LT PUSH2 0x1343 JUMPI PUSH2 0x100 DUP1 DUP4 SLOAD DIV MUL DUP4 MSTORE SWAP2 PUSH1 0x20 ADD SWAP2 PUSH2 0x136E JUMP JUMPDEST DUP3 ADD SWAP2 SWAP1 PUSH1 0x0 MSTORE PUSH1 0x20 PUSH1 0x0 KECCAK256 SWAP1 JUMPDEST DUP2 SLOAD DUP2 MSTORE SWAP1 PUSH1 0x1 ADD SWAP1 PUSH1 0x20 ADD DUP1 DUP4 GT PUSH2 0x1351 JUMPI DUP3 SWAP1 SUB PUSH1 0x1F AND DUP3 ADD SWAP2 JUMPDEST POP POP POP POP POP DUP2 MSTORE PUSH1 0x20 ADD PUSH1 0x2 DUP3 ADD SLOAD DUP2 MSTORE PUSH1 0x20 ADD PUSH1 0x3 DUP3 ADD DUP1 SLOAD PUSH2 0x1391 SWAP1 PUSH2 0x39AE JUMP JUMPDEST DUP1 PUSH1 0x1F ADD PUSH1 0x20 DUP1 SWAP2 DIV MUL PUSH1 0x20 ADD PUSH1 0x40 MLOAD SWAP1 DUP2 ADD PUSH1 0x40 MSTORE DUP1 SWAP3 SWAP2 SWAP1 DUP2 DUP2 MSTORE PUSH1 0x20 ADD DUP3 DUP1 SLOAD PUSH2 0x13BD SWAP1 PUSH2 0x39AE JUMP JUMPDEST DUP1 ISZERO PUSH2 0x140A JUMPI DUP1 PUSH1 0x1F LT PUSH2 0x13DF JUMPI PUSH2 0x100 DUP1 DUP4 SLOAD DIV MUL DUP4 MSTORE SWAP2 PUSH1 0x20 ADD SWAP2 PUSH2 0x140A JUMP JUMPDEST DUP3 ADD SWAP2 SWAP1 PUSH1 0x0 MSTORE PUSH1 0x20 PUSH1 0x0 KECCAK256 SWAP1 JUMPDEST DUP2 SLOAD DUP2 MSTORE SWAP1 PUSH1 0x1 ADD SWAP1 PUSH1 0x20 ADD DUP1 DUP4 GT PUSH2 0x13ED JUMPI DUP3 SWAP1 SUB PUSH1 0x1F AND DUP3 ADD SWAP2 JUMPDEST POP POP POP POP POP DUP2 MSTORE PUSH1 0x20 ADD PUSH1 0x4 DUP3 ADD DUP1 SLOAD PUSH2 0x1423 SWAP1 PUSH2 0x39AE JUMP JUMPDEST DUP1 PUSH1 0x1F ADD PUSH1 0x20 DUP1 SWAP2 DIV MUL PUSH1 0x20 ADD PUSH1 0x40 MLOAD SWAP1 DUP2 ADD PUSH1 0x40 MSTORE DUP1 SWAP3 SWAP2 SWAP1 DUP2 DUP2 MSTORE PUSH1 0x20 ADD DUP3 DUP1 SLOAD PUSH2 0x144F SWAP1 PUSH2 0x39AE JUMP JUMPDEST DUP1 ISZERO PUSH2 0x149C JUMPI DUP1 PUSH1 0x1F LT PUSH2 0x1471 JUMPI PUSH2 0x100 DUP1 DUP4 SLOAD DIV MUL DUP4 MSTORE SWAP2 PUSH1 0x20 ADD SWAP2 PUSH2 0x149C JUMP JUMPDEST DUP3 ADD SWAP2 SWAP1 PUSH1 0x0 MSTORE PUSH1 0x20 PUSH1 0x0 KECCAK256 SWAP1 JUMPDEST DUP2 SLOAD DUP2 MSTORE SWAP1 PUSH1 0x1 ADD SWAP1 PUSH1 0x20 ADD DUP1 DUP4 GT PUSH2 0x147F JUMPI DUP3 SWAP1 SUB PUSH1 0x1F AND DUP3 ADD SWAP2 JUMPDEST POP POP POP SWAP2 DUP4 MSTORE POP POP PUSH1 0x5 DUP3 ADD SLOAD PUSH1 0xFF AND ISZERO ISZERO PUSH1 0x20 DUP1 DUP4 ADD SWAP2 SWAP1 SWAP2 MSTORE PUSH1 0x6 DUP4 ADD SLOAD PUSH1 0x40 DUP4 ADD MSTORE PUSH1 0x7 SWAP1 SWAP3 ADD SLOAD PUSH1 0x60 SWAP2 DUP3 ADD MSTORE SWAP1 DUP3 ADD MLOAD SWAP1 DUP3 ADD MLOAD PUSH1 0xA0 DUP4 ADD MLOAD PUSH1 0xC0 DUP5 ADD MLOAD PUSH1 0xE0 SWAP1 SWAP5 ADD MLOAD SWAP3 SWAP12 SWAP2 SWAP11 POP SWAP9 POP SWAP2 SWAP7 POP SWAP5 POP SWAP3 POP POP POP JUMP JUMPDEST PUSH2 0x14FF PUSH2 0x2D41 JUMP JUMPDEST DUP1 MLOAD DUP3 MLOAD EQ PUSH2 0x1520 JUMPI PUSH1 0x40 MLOAD PUSH3 0x461BCD PUSH1 0xE5 SHL DUP2 MSTORE PUSH1 0x4 ADD PUSH2 0x507 SWAP1 PUSH2 0x38EC JUMP JUMPDEST PUSH1 0x0 JUMPDEST DUP3 MLOAD DUP2 LT ISZERO PUSH2 0x17E2 JUMPI PUSH1 0x0 DUP4 DUP3 DUP2 MLOAD DUP2 LT PUSH2 0x1540 JUMPI PUSH2 0x1540 PUSH2 0x3923 JUMP JUMPDEST PUSH1 0x20 MUL PUSH1 0x20 ADD ADD MLOAD SWAP1 POP PUSH1 0x0 DUP4 DUP4 DUP2 MLOAD DUP2 LT PUSH2 0x155E JUMPI PUSH2 0x155E PUSH2 0x3923 JUMP JUMPDEST PUSH1 0x20 MUL PUSH1 0x20 ADD ADD MLOAD SWAP1 POP PUSH1 0x0 PUSH1 0x1 PUSH1 0x1 PUSH1 0xA0 SHL SUB AND DUP3 PUSH1 0x1 PUSH1 0x1 PUSH1 0xA0 SHL SUB AND SUB PUSH2 0x15BC JUMPI PUSH1 0x40 MLOAD PUSH3 0x461BCD PUSH1 0xE5 SHL DUP2 MSTORE PUSH1 0x20 PUSH1 0x4 DUP3 ADD MSTORE PUSH1 0xF PUSH1 0x24 DUP3 ADD MSTORE PUSH15 0x496E76616C69642061646472657373 PUSH1 0x88 SHL PUSH1 0x44 DUP3 ADD MSTORE PUSH1 0x64 ADD PUSH2 0x507 JUMP JUMPDEST PUSH1 0x1 PUSH1 0x1 PUSH1 0xA0 SHL SUB DUP2 AND PUSH2 0x170B JUMPI PUSH1 0x0 JUMPDEST PUSH1 0x1 SLOAD DUP2 LT ISZERO PUSH2 0x1705 JUMPI DUP3 PUSH1 0x1 PUSH1 0x1 PUSH1 0xA0 SHL SUB AND PUSH1 0x1 DUP3 DUP2 SLOAD DUP2 LT PUSH2 0x15F4 JUMPI PUSH2 0x15F4 PUSH2 0x3923 JUMP JUMPDEST PUSH1 0x0 SWAP2 DUP3 MSTORE PUSH1 0x20 SWAP1 SWAP2 KECCAK256 ADD SLOAD PUSH1 0x1 PUSH1 0x1 PUSH1 0xA0 SHL SUB AND SUB PUSH2 0x16F3 JUMPI PUSH1 0x1 DUP1 SLOAD PUSH2 0x161D SWAP1 DUP3 SWAP1 PUSH2 0x3BFC JUMP JUMPDEST DUP2 SLOAD DUP2 LT PUSH2 0x162D JUMPI PUSH2 0x162D PUSH2 0x3923 JUMP JUMPDEST PUSH1 0x0 SWAP2 DUP3 MSTORE PUSH1 0x20 SWAP1 SWAP2 KECCAK256 ADD SLOAD PUSH1 0x1 DUP1 SLOAD PUSH1 0x1 PUSH1 0x1 PUSH1 0xA0 SHL SUB SWAP1 SWAP3 AND SWAP2 DUP4 SWAP1 DUP2 LT PUSH2 0x1659 JUMPI PUSH2 0x1659 PUSH2 0x3923 JUMP JUMPDEST SWAP1 PUSH1 0x0 MSTORE PUSH1 0x20 PUSH1 0x0 KECCAK256 ADD PUSH1 0x0 PUSH2 0x100 EXP DUP2 SLOAD DUP2 PUSH1 0x1 PUSH1 0x1 PUSH1 0xA0 SHL SUB MUL NOT AND SWAP1 DUP4 PUSH1 0x1 PUSH1 0x1 PUSH1 0xA0 SHL SUB AND MUL OR SWAP1 SSTORE POP PUSH1 0x1 DUP1 SLOAD DUP1 PUSH2 0x1698 JUMPI PUSH2 0x1698 PUSH2 0x3C0F JUMP JUMPDEST PUSH1 0x0 DUP3 DUP2 MSTORE PUSH1 0x20 DUP2 KECCAK256 DUP3 ADD PUSH1 0x0 NOT SWAP1 DUP2 ADD DUP1 SLOAD PUSH1 0x1 PUSH1 0x1 PUSH1 0xA0 SHL SUB NOT AND SWAP1 SSTORE SWAP1 SWAP2 ADD SWAP1 SWAP2 SSTORE PUSH1 0x40 MLOAD PUSH1 0x1 PUSH1 0x1 PUSH1 0xA0 SHL SUB DUP6 AND SWAP2 PUSH32 0x44A3CD4EB5CC5748F6169DF057B1CB2AE4C383E87CD94663C430E095D4CBA424 SWAP2 LOG2 PUSH2 0x1705 JUMP JUMPDEST DUP1 PUSH2 0x16FD DUP2 PUSH2 0x3AED JUMP JUMPDEST SWAP2 POP POP PUSH2 0x15CD JUMP JUMPDEST POP PUSH2 0x17CD JUMP JUMPDEST PUSH1 0x0 JUMPDEST PUSH1 0x1 SLOAD DUP2 LT ISZERO PUSH2 0x17CB JUMPI DUP3 PUSH1 0x1 PUSH1 0x1 PUSH1 0xA0 SHL SUB AND PUSH1 0x1 DUP3 DUP2 SLOAD DUP2 LT PUSH2 0x1735 JUMPI PUSH2 0x1735 PUSH2 0x3923 JUMP JUMPDEST PUSH1 0x0 SWAP2 DUP3 MSTORE PUSH1 0x20 SWAP1 SWAP2 KECCAK256 ADD SLOAD PUSH1 0x1 PUSH1 0x1 PUSH1 0xA0 SHL SUB AND SUB PUSH2 0x17B9 JUMPI DUP2 PUSH1 0x1 DUP3 DUP2 SLOAD DUP2 LT PUSH2 0x1763 JUMPI PUSH2 0x1763 PUSH2 0x3923 JUMP JUMPDEST PUSH1 0x0 SWAP2 DUP3 MSTORE PUSH1 0x20 DUP3 KECCAK256 ADD DUP1 SLOAD PUSH1 0x1 PUSH1 0x1 PUSH1 0xA0 SHL SUB NOT AND PUSH1 0x1 PUSH1 0x1 PUSH1 0xA0 SHL SUB SWAP4 DUP5 AND OR SWAP1 SSTORE PUSH1 0x40 MLOAD DUP5 DUP4 AND SWAP3 DUP7 AND SWAP2 PUSH32 0x50D741FE04AD9863C69D1406658F6EC7C4F5E48EC2FAF966A36A3E47FC05C9D9 SWAP2 LOG3 PUSH2 0x17CB JUMP JUMPDEST DUP1 PUSH2 0x17C3 DUP2 PUSH2 0x3AED JUMP JUMPDEST SWAP2 POP POP PUSH2 0x170E JUMP JUMPDEST POP JUMPDEST POP POP DUP1 DUP1 PUSH2 0x17DA SWAP1 PUSH2 0x3AED JUMP JUMPDEST SWAP2 POP POP PUSH2 0x1523 JUMP JUMPDEST POP POP POP JUMP JUMPDEST PUSH1 0x0 PUSH1 0x60 PUSH1 0x0 PUSH1 0x60 DUP1 PUSH1 0x60 DUP1 PUSH1 0x0 DUP1 PUSH1 0x6 PUSH1 0x0 DUP12 DUP2 MSTORE PUSH1 0x20 ADD SWAP1 DUP2 MSTORE PUSH1 0x20 ADD PUSH1 0x0 KECCAK256 PUSH1 0x40 MLOAD DUP1 PUSH2 0x100 ADD PUSH1 0x40 MSTORE SWAP1 DUP2 PUSH1 0x0 DUP3 ADD SLOAD DUP2 MSTORE PUSH1 0x20 ADD PUSH1 0x1 DUP3 ADD PUSH1 0x0 SWAP1 SLOAD SWAP1 PUSH2 0x100 EXP SWAP1 DIV PUSH1 0x1 PUSH1 0x1 PUSH1 0xA0 SHL SUB AND PUSH1 0x1 PUSH1 0x1 PUSH1 0xA0 SHL SUB AND PUSH1 0x1 PUSH1 0x1 PUSH1 0xA0 SHL SUB AND DUP2 MSTORE PUSH1 0x20 ADD PUSH1 0x2 DUP3 ADD DUP1 SLOAD PUSH2 0x185E SWAP1 PUSH2 0x39AE JUMP JUMPDEST DUP1 PUSH1 0x1F ADD PUSH1 0x20 DUP1 SWAP2 DIV MUL PUSH1 0x20 ADD PUSH1 0x40 MLOAD SWAP1 DUP2 ADD PUSH1 0x40 MSTORE DUP1 SWAP3 SWAP2 SWAP1 DUP2 DUP2 MSTORE PUSH1 0x20 ADD DUP3 DUP1 SLOAD PUSH2 0x188A SWAP1 PUSH2 0x39AE JUMP JUMPDEST DUP1 ISZERO PUSH2 0x18D7 JUMPI DUP1 PUSH1 0x1F LT PUSH2 0x18AC JUMPI PUSH2 0x100 DUP1 DUP4 SLOAD DIV MUL DUP4 MSTORE SWAP2 PUSH1 0x20 ADD SWAP2 PUSH2 0x18D7 JUMP JUMPDEST DUP3 ADD SWAP2 SWAP1 PUSH1 0x0 MSTORE PUSH1 0x20 PUSH1 0x0 KECCAK256 SWAP1 JUMPDEST DUP2 SLOAD DUP2 MSTORE SWAP1 PUSH1 0x1 ADD SWAP1 PUSH1 0x20 ADD DUP1 DUP4 GT PUSH2 0x18BA JUMPI DUP3 SWAP1 SUB PUSH1 0x1F AND DUP3 ADD SWAP2 JUMPDEST POP POP POP POP POP DUP2 MSTORE PUSH1 0x20 ADD PUSH1 0x3 DUP3 ADD SLOAD DUP2 MSTORE PUSH1 0x20 ADD PUSH1 0x4 DUP3 ADD DUP1 SLOAD PUSH2 0x18FA SWAP1 PUSH2 0x39AE JUMP JUMPDEST DUP1 PUSH1 0x1F ADD PUSH1 0x20 DUP1 SWAP2 DIV MUL PUSH1 0x20 ADD PUSH1 0x40 MLOAD SWAP1 DUP2 ADD PUSH1 0x40 MSTORE DUP1 SWAP3 SWAP2 SWAP1 DUP2 DUP2 MSTORE PUSH1 0x20 ADD DUP3 DUP1 SLOAD PUSH2 0x1926 SWAP1 PUSH2 0x39AE JUMP JUMPDEST DUP1 ISZERO PUSH2 0x1973 JUMPI DUP1 PUSH1 0x1F LT PUSH2 0x1948 JUMPI PUSH2 0x100 DUP1 DUP4 SLOAD DIV MUL DUP4 MSTORE SWAP2 PUSH1 0x20 ADD SWAP2 PUSH2 0x1973 JUMP JUMPDEST DUP3 ADD SWAP2 SWAP1 PUSH1 0x0 MSTORE PUSH1 0x20 PUSH1 0x0 KECCAK256 SWAP1 JUMPDEST DUP2 SLOAD DUP2 MSTORE SWAP1 PUSH1 0x1 ADD SWAP1 PUSH1 0x20 ADD DUP1 DUP4 GT PUSH2 0x1956 JUMPI DUP3 SWAP1 SUB PUSH1 0x1F AND DUP3 ADD SWAP2 JUMPDEST POP POP POP POP POP DUP2 MSTORE PUSH1 0x20 ADD PUSH1 0x5 DUP3 ADD DUP1 SLOAD PUSH2 0x198C SWAP1 PUSH2 0x39AE JUMP JUMPDEST DUP1 PUSH1 0x1F ADD PUSH1 0x20 DUP1 SWAP2 DIV MUL PUSH1 0x20 ADD PUSH1 0x40 MLOAD SWAP1 DUP2 ADD PUSH1 0x40 MSTORE DUP1 SWAP3 SWAP2 SWAP1 DUP2 DUP2 MSTORE PUSH1 0x20 ADD DUP3 DUP1 SLOAD PUSH2 0x19B8 SWAP1 PUSH2 0x39AE JUMP JUMPDEST DUP1 ISZERO PUSH2 0x1A05 JUMPI DUP1 PUSH1 0x1F LT PUSH2 0x19DA JUMPI PUSH2 0x100 DUP1 DUP4 SLOAD DIV MUL DUP4 MSTORE SWAP2 PUSH1 0x20 ADD SWAP2 PUSH2 0x1A05 JUMP JUMPDEST DUP3 ADD SWAP2 SWAP1 PUSH1 0x0 MSTORE PUSH1 0x20 PUSH1 0x0 KECCAK256 SWAP1 JUMPDEST DUP2 SLOAD DUP2 MSTORE SWAP1 PUSH1 0x1 ADD SWAP1 PUSH1 0x20 ADD DUP1 DUP4 GT PUSH2 0x19E8 JUMPI DUP3 SWAP1 SUB PUSH1 0x1F AND DUP3 ADD SWAP2 JUMPDEST POP POP POP POP POP DUP2 MSTORE PUSH1 0x20 ADD PUSH1 0x6 DUP3 ADD DUP1 SLOAD PUSH2 0x1A1E SWAP1 PUSH2 0x39AE JUMP JUMPDEST DUP1 PUSH1 0x1F ADD PUSH1 0x20 DUP1 SWAP2 DIV MUL PUSH1 0x20 ADD PUSH1 0x40 MLOAD SWAP1 DUP2 ADD PUSH1 0x40 MSTORE DUP1 SWAP3 SWAP2 SWAP1 DUP2 DUP2 MSTORE PUSH1 0x20 ADD DUP3 DUP1 SLOAD PUSH2 0x1A4A SWAP1 PUSH2 0x39AE JUMP JUMPDEST DUP1 ISZERO PUSH2 0x1A97 JUMPI DUP1 PUSH1 0x1F LT PUSH2 0x1A6C JUMPI PUSH2 0x100 DUP1 DUP4 SLOAD DIV MUL DUP4 MSTORE SWAP2 PUSH1 0x20 ADD SWAP2 PUSH2 0x1A97 JUMP JUMPDEST DUP3 ADD SWAP2 SWAP1 PUSH1 0x0 MSTORE PUSH1 0x20 PUSH1 0x0 KECCAK256 SWAP1 JUMPDEST DUP2 SLOAD DUP2 MSTORE SWAP1 PUSH1 0x1 ADD SWAP1 PUSH1 0x20 ADD DUP1 DUP4 GT PUSH2 0x1A7A JUMPI DUP3 SWAP1 SUB PUSH1 0x1F AND DUP3 ADD SWAP2 JUMPDEST POP POP POP POP POP DUP2 MSTORE PUSH1 0x20 ADD PUSH1 0x7 DUP3 ADD DUP1 SLOAD PUSH2 0x1AB0 SWAP1 PUSH2 0x39AE JUMP JUMPDEST DUP1 PUSH1 0x1F ADD PUSH1 0x20 DUP1 SWAP2 DIV MUL PUSH1 0x20 ADD PUSH1 0x40 MLOAD SWAP1 DUP2 ADD PUSH1 0x40 MSTORE DUP1 SWAP3 SWAP2 SWAP1 DUP2 DUP2 MSTORE PUSH1 0x20 ADD DUP3 DUP1 SLOAD PUSH2 0x1ADC SWAP1 PUSH2 0x39AE JUMP JUMPDEST DUP1 ISZERO PUSH2 0x1B29 JUMPI DUP1 PUSH1 0x1F LT PUSH2 0x1AFE JUMPI PUSH2 0x100 DUP1 DUP4 SLOAD DIV MUL DUP4 MSTORE SWAP2 PUSH1 0x20 ADD SWAP2 PUSH2 0x1B29 JUMP JUMPDEST DUP3 ADD SWAP2 SWAP1 PUSH1 0x0 MSTORE PUSH1 0x20 PUSH1 0x0 KECCAK256 SWAP1 JUMPDEST DUP2 SLOAD DUP2 MSTORE SWAP1 PUSH1 0x1 ADD SWAP1 PUSH1 0x20 ADD DUP1 DUP4 GT PUSH2 0x1B0C JUMPI DUP3 SWAP1 SUB PUSH1 0x1F AND DUP3 ADD SWAP2 JUMPDEST POP POP POP POP POP DUP2 MSTORE POP POP SWAP1 POP DUP1 PUSH1 0x20 ADD MLOAD DUP2 PUSH1 0x40 ADD MLOAD DUP3 PUSH1 0x60 ADD MLOAD DUP4 PUSH1 0x80 ADD MLOAD DUP5 PUSH1 0xA0 ADD MLOAD DUP6 PUSH1 0xC0 ADD MLOAD DUP7 PUSH1 0xE0 ADD MLOAD DUP8 PUSH1 0x0 ADD MLOAD SWAP9 POP SWAP9 POP SWAP9 POP SWAP9 POP SWAP9 POP SWAP9 POP SWAP9 POP SWAP9 POP POP SWAP2 SWAP4 SWAP6 SWAP8 POP SWAP2 SWAP4 SWAP6 SWAP8 JUMP JUMPDEST PUSH2 0x1B80 PUSH2 0x2D36 JUMP JUMPDEST DUP1 PUSH2 0x1BA4 JUMPI POP CALLER PUSH2 0x1B99 PUSH1 0x0 SLOAD PUSH1 0x1 PUSH1 0x1 PUSH1 0xA0 SHL SUB AND SWAP1 JUMP JUMPDEST PUSH1 0x1 PUSH1 0x1 PUSH1 0xA0 SHL SUB AND EQ JUMPDEST PUSH2 0x1BC0 JUMPI PUSH1 0x40 MLOAD PUSH3 0x461BCD PUSH1 0xE5 SHL DUP2 MSTORE PUSH1 0x4 ADD PUSH2 0x507 SWAP1 PUSH2 0x3C25 JUMP JUMPDEST PUSH1 0x0 DUP2 MLOAD GT PUSH2 0x1C11 JUMPI PUSH1 0x40 MLOAD PUSH3 0x461BCD PUSH1 0xE5 SHL DUP2 MSTORE PUSH1 0x20 PUSH1 0x4 DUP3 ADD MSTORE PUSH1 0x17 PUSH1 0x24 DUP3 ADD MSTORE PUSH32 0x4E6F20636F6D70616E79204944732070726F7669646564000000000000000000 PUSH1 0x44 DUP3 ADD MSTORE PUSH1 0x64 ADD PUSH2 0x507 JUMP JUMPDEST PUSH1 0x0 JUMPDEST DUP2 MLOAD DUP2 LT ISZERO PUSH2 0x1D75 JUMPI PUSH1 0x0 DUP3 DUP3 DUP2 MLOAD DUP2 LT PUSH2 0x1C31 JUMPI PUSH2 0x1C31 PUSH2 0x3923 JUMP JUMPDEST PUSH1 0x20 MUL PUSH1 0x20 ADD ADD MLOAD SWAP1 POP PUSH1 0x6 PUSH1 0x0 DUP3 DUP2 MSTORE PUSH1 0x20 ADD SWAP1 DUP2 MSTORE PUSH1 0x20 ADD PUSH1 0x0 KECCAK256 PUSH1 0x3 ADD SLOAD PUSH1 0x0 SUB PUSH2 0x1CAD JUMPI PUSH1 0x40 MLOAD PUSH3 0x461BCD PUSH1 0xE5 SHL DUP2 MSTORE PUSH1 0x20 PUSH1 0x4 DUP3 ADD MSTORE PUSH1 0x24 DUP1 DUP3 ADD MSTORE PUSH32 0x436F6D70616E79207769746820676976656E20494420646F6573206E6F742065 PUSH1 0x44 DUP3 ADD MSTORE PUSH4 0x1E1A5CDD PUSH1 0xE2 SHL PUSH1 0x64 DUP3 ADD MSTORE PUSH1 0x84 ADD PUSH2 0x507 JUMP JUMPDEST PUSH1 0x0 DUP2 DUP2 MSTORE PUSH1 0x6 PUSH1 0x20 MSTORE PUSH1 0x40 DUP2 KECCAK256 DUP2 DUP2 SSTORE PUSH1 0x1 DUP2 ADD DUP1 SLOAD PUSH1 0x1 PUSH1 0x1 PUSH1 0xA0 SHL SUB NOT AND SWAP1 SSTORE SWAP1 PUSH2 0x1CDE PUSH1 0x2 DUP4 ADD DUP3 PUSH2 0x2E54 JUMP JUMPDEST PUSH1 0x3 DUP3 ADD PUSH1 0x0 SWAP1 SSTORE PUSH1 0x4 DUP3 ADD PUSH1 0x0 PUSH2 0x1CF6 SWAP2 SWAP1 PUSH2 0x2E54 JUMP JUMPDEST PUSH2 0x1D04 PUSH1 0x5 DUP4 ADD PUSH1 0x0 PUSH2 0x2E54 JUMP JUMPDEST PUSH2 0x1D12 PUSH1 0x6 DUP4 ADD PUSH1 0x0 PUSH2 0x2E54 JUMP JUMPDEST PUSH2 0x1D20 PUSH1 0x7 DUP4 ADD PUSH1 0x0 PUSH2 0x2E54 JUMP JUMPDEST POP POP PUSH1 0x3 DUP1 SLOAD SWAP1 PUSH1 0x0 PUSH2 0x1D32 DUP4 PUSH2 0x3C55 JUMP JUMPDEST SWAP1 SWAP2 SSTORE POP POP PUSH1 0x40 MLOAD DUP2 SWAP1 PUSH32 0x28FE2791B514C47642F0D652F7C237752AEA1929ED16396EF24B45EB7E2B315 SWAP1 PUSH1 0x0 SWAP1 LOG2 POP DUP1 PUSH2 0x1D6D DUP2 PUSH2 0x3AED JUMP JUMPDEST SWAP2 POP POP PUSH2 0x1C14 JUMP JUMPDEST POP POP JUMP JUMPDEST PUSH2 0x1D81 PUSH2 0x2D41 JUMP JUMPDEST PUSH2 0x1D8B PUSH1 0x0 PUSH2 0x2D9B JUMP JUMPDEST JUMP JUMPDEST CALLER PUSH1 0x0 SWAP1 DUP2 MSTORE PUSH1 0x7 PUSH1 0x20 MSTORE PUSH1 0x40 SWAP1 KECCAK256 SLOAD PUSH2 0x1DB9 JUMPI PUSH1 0x40 MLOAD PUSH3 0x461BCD PUSH1 0xE5 SHL DUP2 MSTORE PUSH1 0x4 ADD PUSH2 0x507 SWAP1 PUSH2 0x3B5E JUMP JUMPDEST DUP4 MLOAD DUP6 MLOAD EQ PUSH2 0x1DDA JUMPI PUSH1 0x40 MLOAD PUSH3 0x461BCD PUSH1 0xE5 SHL DUP2 MSTORE PUSH1 0x4 ADD PUSH2 0x507 SWAP1 PUSH2 0x38EC JUMP JUMPDEST PUSH1 0x0 JUMPDEST DUP6 MLOAD DUP2 LT ISZERO PUSH2 0x78C JUMPI PUSH1 0x0 DUP7 DUP3 DUP2 MLOAD DUP2 LT PUSH2 0x1DFA JUMPI PUSH2 0x1DFA PUSH2 0x3923 JUMP JUMPDEST PUSH1 0x20 MUL PUSH1 0x20 ADD ADD MLOAD SWAP1 POP PUSH1 0x0 DUP7 DUP4 DUP2 MLOAD DUP2 LT PUSH2 0x1E18 JUMPI PUSH2 0x1E18 PUSH2 0x3923 JUMP JUMPDEST PUSH1 0x20 MUL PUSH1 0x20 ADD ADD MLOAD SWAP1 POP PUSH1 0x0 DUP7 DUP5 DUP2 MLOAD DUP2 LT PUSH2 0x1E36 JUMPI PUSH2 0x1E36 PUSH2 0x3923 JUMP JUMPDEST PUSH1 0x20 MUL PUSH1 0x20 ADD ADD MLOAD SWAP1 POP PUSH1 0x0 DUP7 DUP6 DUP2 MLOAD DUP2 LT PUSH2 0x1E54 JUMPI PUSH2 0x1E54 PUSH2 0x3923 JUMP JUMPDEST PUSH1 0x20 MUL PUSH1 0x20 ADD ADD MLOAD SWAP1 POP PUSH1 0x0 DUP7 DUP7 DUP2 MLOAD DUP2 LT PUSH2 0x1E72 JUMPI PUSH2 0x1E72 PUSH2 0x3923 JUMP JUMPDEST PUSH1 0x20 MUL PUSH1 0x20 ADD ADD MLOAD SWAP1 POP PUSH1 0xB PUSH1 0x0 DUP7 PUSH1 0x1 PUSH1 0x1 PUSH1 0xA0 SHL SUB AND PUSH1 0x1 PUSH1 0x1 PUSH1 0xA0 SHL SUB AND DUP2 MSTORE PUSH1 0x20 ADD SWAP1 DUP2 MSTORE PUSH1 0x20 ADD PUSH1 0x0 KECCAK256 SLOAD PUSH1 0x0 EQ PUSH2 0x1F09 JUMPI PUSH1 0x40 MLOAD PUSH3 0x461BCD PUSH1 0xE5 SHL DUP2 MSTORE PUSH1 0x20 PUSH1 0x4 DUP3 ADD MSTORE PUSH1 0x2F PUSH1 0x24 DUP3 ADD MSTORE PUSH32 0x43616E64696461746520776974682074686520676976656E2061646472657373 PUSH1 0x44 DUP3 ADD MSTORE PUSH15 0x20616C726561647920657869737473 PUSH1 0x88 SHL PUSH1 0x64 DUP3 ADD MSTORE PUSH1 0x84 ADD PUSH2 0x507 JUMP JUMPDEST PUSH1 0x1 PUSH1 0x1 PUSH1 0xA0 SHL SUB DUP6 AND PUSH2 0x1F58 JUMPI PUSH1 0x40 MLOAD PUSH3 0x461BCD PUSH1 0xE5 SHL DUP2 MSTORE PUSH1 0x20 PUSH1 0x4 DUP3 ADD MSTORE PUSH1 0x16 PUSH1 0x24 DUP3 ADD MSTORE PUSH22 0x416464726573732063616E6E6F74206265207A65726F PUSH1 0x50 SHL PUSH1 0x44 DUP3 ADD MSTORE PUSH1 0x64 ADD PUSH2 0x507 JUMP JUMPDEST PUSH1 0x0 DUP5 MLOAD GT PUSH2 0x1FA0 JUMPI PUSH1 0x40 MLOAD PUSH3 0x461BCD PUSH1 0xE5 SHL DUP2 MSTORE PUSH1 0x20 PUSH1 0x4 DUP3 ADD MSTORE PUSH1 0x14 PUSH1 0x24 DUP3 ADD MSTORE PUSH20 0x4E616D652063616E6E6F7420626520656D707479 PUSH1 0x60 SHL PUSH1 0x44 DUP3 ADD MSTORE PUSH1 0x64 ADD PUSH2 0x507 JUMP JUMPDEST PUSH1 0x0 PUSH1 0x5 SLOAD PUSH1 0x1 PUSH2 0x1FB1 SWAP2 SWAP1 PUSH2 0x3995 JUMP JUMPDEST PUSH1 0x40 DUP1 MLOAD PUSH2 0x100 DUP2 ADD DUP3 MSTORE TIMESTAMP DUP2 MSTORE PUSH1 0x1 PUSH1 0x1 PUSH1 0xA0 SHL SUB DUP1 DUP11 AND PUSH1 0x20 DUP1 DUP5 ADD SWAP2 DUP3 MSTORE CALLER DUP5 DUP7 ADD SWAP1 DUP2 MSTORE PUSH1 0x60 DUP6 ADD DUP13 DUP2 MSTORE PUSH1 0x80 DUP7 ADD DUP9 SWAP1 MSTORE PUSH1 0xA0 DUP7 ADD DUP13 SWAP1 MSTORE PUSH1 0xC0 DUP7 ADD DUP12 SWAP1 MSTORE PUSH1 0xE0 DUP7 ADD DUP11 SWAP1 MSTORE PUSH1 0x0 DUP9 DUP2 MSTORE PUSH1 0x8 SWAP1 SWAP4 MSTORE SWAP6 SWAP1 SWAP2 KECCAK256 DUP5 MLOAD DUP2 SSTORE SWAP2 MLOAD PUSH1 0x1 DUP4 ADD DUP1 SLOAD SWAP2 DUP6 AND PUSH1 0x1 PUSH1 0x1 PUSH1 0xA0 SHL SUB NOT SWAP3 DUP4 AND OR SWAP1 SSTORE SWAP1 MLOAD PUSH1 0x2 DUP4 ADD DUP1 SLOAD SWAP2 SWAP1 SWAP5 AND SWAP2 AND OR SWAP1 SWAP2 SSTORE SWAP2 MLOAD SWAP3 SWAP4 POP SWAP2 PUSH1 0x3 DUP3 ADD SWAP1 PUSH2 0x204F SWAP1 DUP3 PUSH2 0x3A2E JUMP JUMPDEST POP PUSH1 0x80 DUP3 ADD MLOAD PUSH1 0x4 DUP3 ADD SSTORE PUSH1 0xA0 DUP3 ADD MLOAD PUSH1 0x5 DUP3 ADD SWAP1 PUSH2 0x206E SWAP1 DUP3 PUSH2 0x3A2E JUMP JUMPDEST POP PUSH1 0xC0 DUP3 ADD MLOAD PUSH1 0x6 DUP3 ADD SWAP1 PUSH2 0x2083 SWAP1 DUP3 PUSH2 0x3A2E JUMP JUMPDEST POP PUSH1 0xE0 DUP3 ADD MLOAD PUSH1 0x7 DUP3 ADD SWAP1 PUSH2 0x2098 SWAP1 DUP3 PUSH2 0x3A2E JUMP JUMPDEST POP POP CALLER PUSH1 0x0 SWAP1 DUP2 MSTORE PUSH1 0xB PUSH1 0x20 MSTORE PUSH1 0x40 DUP2 KECCAK256 DUP4 SWAP1 SSTORE PUSH1 0x5 DUP1 SLOAD SWAP3 POP SWAP1 PUSH2 0x20BC DUP4 PUSH2 0x3AED JUMP JUMPDEST SWAP1 SWAP2 SSTORE POP POP PUSH1 0x0 DUP2 DUP2 MSTORE PUSH1 0x8 PUSH1 0x20 MSTORE PUSH1 0x40 SWAP1 DUP2 SWAP1 KECCAK256 SLOAD SWAP1 MLOAD DUP3 SWAP2 PUSH32 0x7B9C7F27309FFD2AC53F4A79F1850D55FB69301E433730C1DE54F3B266B4EB4C SWAP2 PUSH2 0x2109 SWAP2 DUP10 SWAP2 DUP10 SWAP1 DUP10 SWAP1 DUP10 SWAP1 PUSH2 0x33EA JUMP JUMPDEST PUSH1 0x40 MLOAD DUP1 SWAP2 SUB SWAP1 LOG2 POP POP POP POP POP POP DUP1 DUP1 PUSH2 0x2122 SWAP1 PUSH2 0x3AED JUMP JUMPDEST SWAP2 POP POP PUSH2 0x1DDD JUMP JUMPDEST PUSH2 0x2132 PUSH2 0x2D36 JUMP JUMPDEST PUSH2 0x214E JUMPI PUSH1 0x40 MLOAD PUSH3 0x461BCD PUSH1 0xE5 SHL DUP2 MSTORE PUSH1 0x4 ADD PUSH2 0x507 SWAP1 PUSH2 0x3C25 JUMP JUMPDEST CALLER PUSH1 0x0 SWAP1 DUP2 MSTORE PUSH1 0x7 PUSH1 0x20 MSTORE PUSH1 0x40 DUP2 KECCAK256 SLOAD SWAP1 JUMPDEST DUP3 MLOAD DUP2 LT ISZERO PUSH2 0x17E2 JUMPI PUSH1 0x0 DUP4 DUP3 DUP2 MLOAD DUP2 LT PUSH2 0x217D JUMPI PUSH2 0x217D PUSH2 0x3923 JUMP JUMPDEST PUSH1 0x20 SWAP1 DUP2 MUL SWAP2 SWAP1 SWAP2 ADD DUP2 ADD MLOAD PUSH1 0x0 DUP6 DUP2 MSTORE PUSH1 0xA DUP4 MSTORE PUSH1 0x40 DUP1 DUP3 KECCAK256 DUP4 DUP4 MSTORE SWAP1 SWAP4 MSTORE SWAP2 DUP3 KECCAK256 PUSH1 0x6 DUP2 ADD SLOAD SWAP2 SWAP4 POP SWAP2 SUB PUSH2 0x21C6 JUMPI PUSH1 0x40 MLOAD PUSH3 0x461BCD PUSH1 0xE5 SHL DUP2 MSTORE PUSH1 0x4 ADD PUSH2 0x507 SWAP1 PUSH2 0x3C6C JUMP JUMPDEST PUSH1 0x5 DUP2 ADD SLOAD PUSH1 0xFF AND ISZERO PUSH2 0x222E JUMPI PUSH1 0x40 MLOAD PUSH3 0x461BCD PUSH1 0xE5 SHL DUP2 MSTORE PUSH1 0x20 PUSH1 0x4 DUP3 ADD MSTORE PUSH1 0x2A PUSH1 0x24 DUP3 ADD MSTORE PUSH32 0x446F63756D656E74207769746820676976656E20494420697320616C72656164 PUSH1 0x44 DUP3 ADD MSTORE PUSH10 0x1E481D995C9A599A5959 PUSH1 0xB2 SHL PUSH1 0x64 DUP3 ADD MSTORE PUSH1 0x84 ADD PUSH2 0x507 JUMP JUMPDEST PUSH1 0x5 DUP2 ADD DUP1 SLOAD PUSH1 0xFF NOT AND PUSH1 0x1 OR SWAP1 SSTORE PUSH1 0x2 DUP2 ADD SLOAD PUSH1 0x40 MLOAD PUSH32 0x4B93FD5160FBC8B35D08AFF650902CF41C86E6DF325A3EABAB5BCCA811976CF7 SWAP1 PUSH1 0x0 SWAP1 LOG2 POP POP DUP1 DUP1 PUSH2 0x2278 SWAP1 PUSH2 0x3AED JUMP JUMPDEST SWAP2 POP POP PUSH2 0x2160 JUMP JUMPDEST SWAP1 POP SWAP1 JUMP JUMPDEST PUSH1 0xA PUSH1 0x20 SWAP1 DUP2 MSTORE PUSH1 0x0 SWAP3 DUP4 MSTORE PUSH1 0x40 DUP1 DUP5 KECCAK256 SWAP1 SWAP2 MSTORE SWAP1 DUP3 MSTORE SWAP1 KECCAK256 DUP1 SLOAD PUSH1 0x1 DUP3 ADD DUP1 SLOAD SWAP2 SWAP3 SWAP2 PUSH2 0x22B2 SWAP1 PUSH2 0x39AE JUMP JUMPDEST DUP1 PUSH1 0x1F ADD PUSH1 0x20 DUP1 SWAP2 DIV MUL PUSH1 0x20 ADD PUSH1 0x40 MLOAD SWAP1 DUP2 ADD PUSH1 0x40 MSTORE DUP1 SWAP3 SWAP2 SWAP1 DUP2 DUP2 MSTORE PUSH1 0x20 ADD DUP3 DUP1 SLOAD PUSH2 0x22DE SWAP1 PUSH2 0x39AE JUMP JUMPDEST DUP1 ISZERO PUSH2 0x232B JUMPI DUP1 PUSH1 0x1F LT PUSH2 0x2300 JUMPI PUSH2 0x100 DUP1 DUP4 SLOAD DIV MUL DUP4 MSTORE SWAP2 PUSH1 0x20 ADD SWAP2 PUSH2 0x232B JUMP JUMPDEST DUP3 ADD SWAP2 SWAP1 PUSH1 0x0 MSTORE PUSH1 0x20 PUSH1 0x0 KECCAK256 SWAP1 JUMPDEST DUP2 SLOAD DUP2 MSTORE SWAP1 PUSH1 0x1 ADD SWAP1 PUSH1 0x20 ADD DUP1 DUP4 GT PUSH2 0x230E JUMPI DUP3 SWAP1 SUB PUSH1 0x1F AND DUP3 ADD SWAP2 JUMPDEST POP POP POP POP POP SWAP1 DUP1 PUSH1 0x2 ADD SLOAD SWAP1 DUP1 PUSH1 0x3 ADD DUP1 SLOAD PUSH2 0x2346 SWAP1 PUSH2 0x39AE JUMP JUMPDEST DUP1 PUSH1 0x1F ADD PUSH1 0x20 DUP1 SWAP2 DIV MUL PUSH1 0x20 ADD PUSH1 0x40 MLOAD SWAP1 DUP2 ADD PUSH1 0x40 MSTORE DUP1 SWAP3 SWAP2 SWAP1 DUP2 DUP2 MSTORE PUSH1 0x20 ADD DUP3 DUP1 SLOAD PUSH2 0x2372 SWAP1 PUSH2 0x39AE JUMP JUMPDEST DUP1 ISZERO PUSH2 0x23BF JUMPI DUP1 PUSH1 0x1F LT PUSH2 0x2394 JUMPI PUSH2 0x100 DUP1 DUP4 SLOAD DIV MUL DUP4 MSTORE SWAP2 PUSH1 0x20 ADD SWAP2 PUSH2 0x23BF JUMP JUMPDEST DUP3 ADD SWAP2 SWAP1 PUSH1 0x0 MSTORE PUSH1 0x20 PUSH1 0x0 KECCAK256 SWAP1 JUMPDEST DUP2 SLOAD DUP2 MSTORE SWAP1 PUSH1 0x1 ADD SWAP1 PUSH1 0x20 ADD DUP1 DUP4 GT PUSH2 0x23A2 JUMPI DUP3 SWAP1 SUB PUSH1 0x1F AND DUP3 ADD SWAP2 JUMPDEST POP POP POP POP POP SWAP1 DUP1 PUSH1 0x4 ADD DUP1 SLOAD PUSH2 0x23D4 SWAP1 PUSH2 0x39AE JUMP JUMPDEST DUP1 PUSH1 0x1F ADD PUSH1 0x20 DUP1 SWAP2 DIV MUL PUSH1 0x20 ADD PUSH1 0x40 MLOAD SWAP1 DUP2 ADD PUSH1 0x40 MSTORE DUP1 SWAP3 SWAP2 SWAP1 DUP2 DUP2 MSTORE PUSH1 0x20 ADD DUP3 DUP1 SLOAD PUSH2 0x2400 SWAP1 PUSH2 0x39AE JUMP JUMPDEST DUP1 ISZERO PUSH2 0x244D JUMPI DUP1 PUSH1 0x1F LT PUSH2 0x2422 JUMPI PUSH2 0x100 DUP1 DUP4 SLOAD DIV MUL DUP4 MSTORE SWAP2 PUSH1 0x20 ADD SWAP2 PUSH2 0x244D JUMP JUMPDEST DUP3 ADD SWAP2 SWAP1 PUSH1 0x0 MSTORE PUSH1 0x20 PUSH1 0x0 KECCAK256 SWAP1 JUMPDEST DUP2 SLOAD DUP2 MSTORE SWAP1 PUSH1 0x1 ADD SWAP1 PUSH1 0x20 ADD DUP1 DUP4 GT PUSH2 0x2430 JUMPI DUP3 SWAP1 SUB PUSH1 0x1F AND DUP3 ADD SWAP2 JUMPDEST POP POP POP POP PUSH1 0x5 DUP4 ADD SLOAD PUSH1 0x6 DUP5 ADD SLOAD PUSH1 0x7 SWAP1 SWAP5 ADD SLOAD SWAP3 SWAP4 PUSH1 0xFF SWAP1 SWAP2 AND SWAP3 SWAP1 SWAP2 POP DUP9 JUMP JUMPDEST PUSH1 0x60 PUSH1 0x1 DUP1 SLOAD DUP1 PUSH1 0x20 MUL PUSH1 0x20 ADD PUSH1 0x40 MLOAD SWAP1 DUP2 ADD PUSH1 0x40 MSTORE DUP1 SWAP3 SWAP2 SWAP1 DUP2 DUP2 MSTORE PUSH1 0x20 ADD DUP3 DUP1 SLOAD DUP1 ISZERO PUSH2 0x24C7 JUMPI PUSH1 0x20 MUL DUP3 ADD SWAP2 SWAP1 PUSH1 0x0 MSTORE PUSH1 0x20 PUSH1 0x0 KECCAK256 SWAP1 JUMPDEST DUP2 SLOAD PUSH1 0x1 PUSH1 0x1 PUSH1 0xA0 SHL SUB AND DUP2 MSTORE PUSH1 0x1 SWAP1 SWAP2 ADD SWAP1 PUSH1 0x20 ADD DUP1 DUP4 GT PUSH2 0x24A9 JUMPI JUMPDEST POP POP POP POP POP SWAP1 POP SWAP1 JUMP JUMPDEST PUSH1 0x1 DUP2 DUP2 SLOAD DUP2 LT PUSH2 0x24E1 JUMPI PUSH1 0x0 DUP1 REVERT JUMPDEST PUSH1 0x0 SWAP2 DUP3 MSTORE PUSH1 0x20 SWAP1 SWAP2 KECCAK256 ADD SLOAD PUSH1 0x1 PUSH1 0x1 PUSH1 0xA0 SHL SUB AND SWAP1 POP DUP2 JUMP JUMPDEST PUSH2 0x2503 PUSH2 0x2D41 JUMP JUMPDEST PUSH1 0x0 DUP2 MLOAD GT PUSH2 0x254A JUMPI PUSH1 0x40 MLOAD PUSH3 0x461BCD PUSH1 0xE5 SHL DUP2 MSTORE PUSH1 0x20 PUSH1 0x4 DUP3 ADD MSTORE PUSH1 0x13 PUSH1 0x24 DUP3 ADD MSTORE PUSH19 0x139BC81D995C9A599A595C9CC81D1BC8185919 PUSH1 0x6A SHL PUSH1 0x44 DUP3 ADD MSTORE PUSH1 0x64 ADD PUSH2 0x507 JUMP JUMPDEST PUSH1 0x2 SLOAD DUP2 MLOAD PUSH1 0x1 SLOAD PUSH2 0x255C SWAP2 SWAP1 PUSH2 0x3995 JUMP JUMPDEST GT ISZERO PUSH2 0x25B6 JUMPI PUSH1 0x40 MLOAD PUSH3 0x461BCD PUSH1 0xE5 SHL DUP2 MSTORE PUSH1 0x20 PUSH1 0x4 DUP3 ADD MSTORE PUSH1 0x23 PUSH1 0x24 DUP3 ADD MSTORE PUSH32 0x45786365656473206D6178696D756D206E756D626572206F6620766572696669 PUSH1 0x44 DUP3 ADD MSTORE PUSH3 0x657273 PUSH1 0xE8 SHL PUSH1 0x64 DUP3 ADD MSTORE PUSH1 0x84 ADD PUSH2 0x507 JUMP JUMPDEST PUSH1 0x0 JUMPDEST DUP2 MLOAD DUP2 LT ISZERO PUSH2 0x1D75 JUMPI PUSH1 0x0 DUP3 DUP3 DUP2 MLOAD DUP2 LT PUSH2 0x25D6 JUMPI PUSH2 0x25D6 PUSH2 0x3923 JUMP JUMPDEST PUSH1 0x20 MUL PUSH1 0x20 ADD ADD MLOAD SWAP1 POP PUSH1 0x0 PUSH1 0x1 PUSH1 0x1 PUSH1 0xA0 SHL SUB AND DUP2 PUSH1 0x1 PUSH1 0x1 PUSH1 0xA0 SHL SUB AND SUB PUSH2 0x2634 JUMPI PUSH1 0x40 MLOAD PUSH3 0x461BCD PUSH1 0xE5 SHL DUP2 MSTORE PUSH1 0x20 PUSH1 0x4 DUP3 ADD MSTORE PUSH1 0xF PUSH1 0x24 DUP3 ADD MSTORE PUSH15 0x496E76616C69642061646472657373 PUSH1 0x88 SHL PUSH1 0x44 DUP3 ADD MSTORE PUSH1 0x64 ADD PUSH2 0x507 JUMP JUMPDEST PUSH1 0x1 DUP1 SLOAD DUP1 DUP3 ADD DUP3 SSTORE PUSH1 0x0 SWAP2 DUP3 MSTORE PUSH32 0xB10E2D527612073B26EECDFD717E6A320CF44B4AFAC2B0732D9FCBE2B7FA0CF6 ADD DUP1 SLOAD PUSH1 0x1 PUSH1 0x1 PUSH1 0xA0 SHL SUB NOT AND PUSH1 0x1 PUSH1 0x1 PUSH1 0xA0 SHL SUB DUP5 AND SWAP1 DUP2 OR SWAP1 SWAP2 SSTORE PUSH1 0x40 MLOAD SWAP1 SWAP2 PUSH32 0x6D05492139C5EA989514A5D2150C028041E5C087E2A39967F67DC7D2655ADB81 SWAP2 LOG2 POP DUP1 PUSH2 0x26B3 DUP2 PUSH2 0x3AED JUMP JUMPDEST SWAP2 POP POP PUSH2 0x25B9 JUMP JUMPDEST CALLER PUSH1 0x0 SWAP1 DUP2 MSTORE PUSH1 0x7 PUSH1 0x20 MSTORE PUSH1 0x40 SWAP1 KECCAK256 SLOAD PUSH2 0x26E7 JUMPI PUSH1 0x40 MLOAD PUSH3 0x461BCD PUSH1 0xE5 SHL DUP2 MSTORE PUSH1 0x4 ADD PUSH2 0x507 SWAP1 PUSH2 0x38BD JUMP JUMPDEST CALLER PUSH1 0x0 SWAP1 DUP2 MSTORE PUSH1 0x7 PUSH1 0x20 MSTORE PUSH1 0x40 SWAP1 KECCAK256 SLOAD DUP2 MLOAD DUP4 MLOAD EQ PUSH2 0x2718 JUMPI PUSH1 0x40 MLOAD PUSH3 0x461BCD PUSH1 0xE5 SHL DUP2 MSTORE PUSH1 0x4 ADD PUSH2 0x507 SWAP1 PUSH2 0x38EC JUMP JUMPDEST PUSH1 0x0 JUMPDEST DUP4 MLOAD DUP2 LT ISZERO PUSH2 0x28DE JUMPI PUSH1 0x0 DUP5 DUP3 DUP2 MLOAD DUP2 LT PUSH2 0x2738 JUMPI PUSH2 0x2738 PUSH2 0x3923 JUMP JUMPDEST PUSH1 0x20 MUL PUSH1 0x20 ADD ADD MLOAD SWAP1 POP PUSH1 0x0 DUP5 DUP4 DUP2 MLOAD DUP2 LT PUSH2 0x2756 JUMPI PUSH2 0x2756 PUSH2 0x3923 JUMP JUMPDEST PUSH1 0x20 MUL PUSH1 0x20 ADD ADD MLOAD SWAP1 POP PUSH1 0x8 PUSH1 0x0 DUP4 DUP2 MSTORE PUSH1 0x20 ADD SWAP1 DUP2 MSTORE PUSH1 0x20 ADD PUSH1 0x0 KECCAK256 PUSH1 0x4 ADD SLOAD PUSH1 0x0 SUB PUSH2 0x2796 JUMPI PUSH1 0x40 MLOAD PUSH3 0x461BCD PUSH1 0xE5 SHL DUP2 MSTORE PUSH1 0x4 ADD PUSH2 0x507 SWAP1 PUSH2 0x3939 JUMP JUMPDEST PUSH1 0x0 DUP5 DUP2 MSTORE PUSH1 0xA PUSH1 0x20 SWAP1 DUP2 MSTORE PUSH1 0x40 DUP1 DUP4 KECCAK256 DUP6 DUP5 MSTORE SWAP1 SWAP2 MSTORE DUP2 KECCAK256 PUSH1 0x6 DUP2 ADD SLOAD SWAP1 SWAP2 SUB PUSH2 0x27D3 JUMPI PUSH1 0x40 MLOAD PUSH3 0x461BCD PUSH1 0xE5 SHL DUP2 MSTORE PUSH1 0x4 ADD PUSH2 0x507 SWAP1 PUSH2 0x3C6C JUMP JUMPDEST DUP1 PUSH1 0x2 ADD SLOAD DUP3 EQ PUSH2 0x281B JUMPI PUSH1 0x40 MLOAD PUSH3 0x461BCD PUSH1 0xE5 SHL DUP2 MSTORE PUSH1 0x20 PUSH1 0x4 DUP3 ADD MSTORE PUSH1 0x12 PUSH1 0x24 DUP3 ADD MSTORE PUSH18 0x125B9D985B1A5908191BD8DD5B595B9D1259 PUSH1 0x72 SHL PUSH1 0x44 DUP3 ADD MSTORE PUSH1 0x64 ADD PUSH2 0x507 JUMP JUMPDEST PUSH1 0x0 DUP6 DUP2 MSTORE PUSH1 0xA PUSH1 0x20 SWAP1 DUP2 MSTORE PUSH1 0x40 DUP1 DUP4 KECCAK256 DUP7 DUP5 MSTORE SWAP1 SWAP2 MSTORE DUP2 KECCAK256 DUP2 DUP2 SSTORE SWAP1 PUSH2 0x2845 PUSH1 0x1 DUP4 ADD DUP3 PUSH2 0x2E54 JUMP JUMPDEST PUSH1 0x2 DUP3 ADD PUSH1 0x0 SWAP1 SSTORE PUSH1 0x3 DUP3 ADD PUSH1 0x0 PUSH2 0x285D SWAP2 SWAP1 PUSH2 0x2E54 JUMP JUMPDEST PUSH2 0x286B PUSH1 0x4 DUP4 ADD PUSH1 0x0 PUSH2 0x2E54 JUMP JUMPDEST POP PUSH1 0x5 DUP2 ADD DUP1 SLOAD PUSH1 0xFF NOT AND SWAP1 SSTORE PUSH1 0x0 PUSH1 0x6 DUP3 ADD DUP2 SWAP1 SSTORE PUSH1 0x7 SWAP1 SWAP2 ADD SSTORE PUSH1 0x40 DUP1 MLOAD DUP4 DUP2 MSTORE PUSH1 0x20 DUP2 ADD DUP6 SWAP1 MSTORE SWAP1 DUP2 ADD DUP7 SWAP1 MSTORE PUSH32 0xCEFED05BF9CF6C25889C16D2D30733104EDFD4536EB965A70E933DDA18EF326E SWAP1 PUSH1 0x60 ADD PUSH1 0x40 MLOAD DUP1 SWAP2 SUB SWAP1 LOG1 POP POP POP DUP1 DUP1 PUSH2 0x28D6 SWAP1 PUSH2 0x3AED JUMP JUMPDEST SWAP2 POP POP PUSH2 0x271B JUMP JUMPDEST POP POP POP POP JUMP JUMPDEST CALLER PUSH1 0x0 SWAP1 DUP2 MSTORE PUSH1 0x7 PUSH1 0x20 MSTORE PUSH1 0x40 SWAP1 KECCAK256 SLOAD PUSH2 0x2910 JUMPI PUSH1 0x40 MLOAD PUSH3 0x461BCD PUSH1 0xE5 SHL DUP2 MSTORE PUSH1 0x4 ADD PUSH2 0x507 SWAP1 PUSH2 0x3B5E JUMP JUMPDEST PUSH1 0x0 DUP6 DUP2 MSTORE PUSH1 0x8 PUSH1 0x20 MSTORE PUSH1 0x40 DUP2 KECCAK256 PUSH1 0x4 ADD SLOAD SWAP1 SUB PUSH2 0x2940 JUMPI PUSH1 0x40 MLOAD PUSH3 0x461BCD PUSH1 0xE5 SHL DUP2 MSTORE PUSH1 0x4 ADD PUSH2 0x507 SWAP1 PUSH2 0x3939 JUMP JUMPDEST PUSH1 0x0 DUP6 DUP2 MSTORE PUSH1 0x8 PUSH1 0x20 MSTORE PUSH1 0x40 SWAP1 KECCAK256 PUSH1 0x2 ADD SLOAD PUSH1 0x1 PUSH1 0x1 PUSH1 0xA0 SHL SUB AND CALLER EQ PUSH2 0x29C3 JUMPI PUSH1 0x40 MLOAD PUSH3 0x461BCD PUSH1 0xE5 SHL DUP2 MSTORE PUSH1 0x20 PUSH1 0x4 DUP3 ADD MSTORE PUSH1 0x31 PUSH1 0x24 DUP3 ADD MSTORE PUSH32 0x596F7520646F206E6F742068617665207065726D697373696F6E20746F206564 PUSH1 0x44 DUP3 ADD MSTORE PUSH17 0x697420746869732063616E646964617465 PUSH1 0x78 SHL PUSH1 0x64 DUP3 ADD MSTORE PUSH1 0x84 ADD PUSH2 0x507 JUMP JUMPDEST PUSH1 0x0 DUP6 DUP2 MSTORE PUSH1 0x8 PUSH1 0x20 MSTORE PUSH1 0x40 SWAP1 KECCAK256 PUSH1 0x3 ADD PUSH2 0x29DE DUP6 DUP3 PUSH2 0x3A2E JUMP JUMPDEST POP PUSH1 0x0 DUP6 DUP2 MSTORE PUSH1 0x8 PUSH1 0x20 MSTORE PUSH1 0x40 SWAP1 KECCAK256 PUSH1 0x5 ADD PUSH2 0x29FA DUP5 DUP3 PUSH2 0x3A2E JUMP JUMPDEST POP PUSH1 0x0 DUP6 DUP2 MSTORE PUSH1 0x8 PUSH1 0x20 MSTORE PUSH1 0x40 SWAP1 KECCAK256 PUSH1 0x6 ADD PUSH2 0x2A16 DUP4 DUP3 PUSH2 0x3A2E JUMP JUMPDEST POP PUSH1 0x0 DUP6 DUP2 MSTORE PUSH1 0x8 PUSH1 0x20 MSTORE PUSH1 0x40 SWAP1 KECCAK256 PUSH1 0x7 ADD PUSH2 0x2A32 DUP3 DUP3 PUSH2 0x3A2E JUMP JUMPDEST POP PUSH1 0x0 DUP6 DUP2 MSTORE PUSH1 0x8 PUSH1 0x20 MSTORE PUSH1 0x40 SWAP1 DUP2 SWAP1 KECCAK256 SLOAD SWAP1 MLOAD DUP7 SWAP2 PUSH32 0xEC0D46722939D1BBF8C6E9A7383F9F0AAE3FC6CD4428FCB18978B87A5CBD34FF SWAP2 PUSH2 0x2A7B SWAP2 DUP9 SWAP2 DUP9 SWAP1 DUP9 SWAP1 DUP9 SWAP1 PUSH2 0x33EA JUMP JUMPDEST PUSH1 0x40 MLOAD DUP1 SWAP2 SUB SWAP1 LOG2 POP POP POP POP POP JUMP JUMPDEST PUSH1 0x9 PUSH1 0x20 MSTORE PUSH1 0x0 SWAP1 DUP2 MSTORE PUSH1 0x40 SWAP1 KECCAK256 DUP1 SLOAD PUSH1 0x1 DUP3 ADD DUP1 SLOAD SWAP2 SWAP3 SWAP2 PUSH2 0x22B2 SWAP1 PUSH2 0x39AE JUMP JUMPDEST PUSH2 0x2AB4 PUSH2 0x2D36 JUMP JUMPDEST DUP1 PUSH2 0x2ACD JUMPI POP CALLER PUSH1 0x0 SWAP1 DUP2 MSTORE PUSH1 0x7 PUSH1 0x20 MSTORE PUSH1 0x40 SWAP1 KECCAK256 SLOAD ISZERO ISZERO JUMPDEST PUSH2 0x2AE9 JUMPI PUSH1 0x40 MLOAD PUSH3 0x461BCD PUSH1 0xE5 SHL DUP2 MSTORE PUSH1 0x4 ADD PUSH2 0x507 SWAP1 PUSH2 0x3C25 JUMP JUMPDEST PUSH1 0x0 DUP2 MLOAD GT PUSH2 0x2B3A JUMPI PUSH1 0x40 MLOAD PUSH3 0x461BCD PUSH1 0xE5 SHL DUP2 MSTORE PUSH1 0x20 PUSH1 0x4 DUP3 ADD MSTORE PUSH1 0x19 PUSH1 0x24 DUP3 ADD MSTORE PUSH32 0x4E6F2063616E646964617465204944732070726F766964656400000000000000 PUSH1 0x44 DUP3 ADD MSTORE PUSH1 0x64 ADD PUSH2 0x507 JUMP JUMPDEST PUSH1 0x0 JUMPDEST DUP2 MLOAD DUP2 LT ISZERO PUSH2 0x1D75 JUMPI PUSH1 0x0 DUP3 DUP3 DUP2 MLOAD DUP2 LT PUSH2 0x2B5A JUMPI PUSH2 0x2B5A PUSH2 0x3923 JUMP JUMPDEST PUSH1 0x20 MUL PUSH1 0x20 ADD ADD MLOAD SWAP1 POP PUSH1 0x8 PUSH1 0x0 DUP3 DUP2 MSTORE PUSH1 0x20 ADD SWAP1 DUP2 MSTORE PUSH1 0x20 ADD PUSH1 0x0 KECCAK256 PUSH1 0x4 ADD SLOAD PUSH1 0x0 SUB PUSH2 0x2B9A JUMPI PUSH1 0x40 MLOAD PUSH3 0x461BCD PUSH1 0xE5 SHL DUP2 MSTORE PUSH1 0x4 ADD PUSH2 0x507 SWAP1 PUSH2 0x3939 JUMP JUMPDEST PUSH1 0x0 DUP2 DUP2 MSTORE PUSH1 0x8 PUSH1 0x20 MSTORE PUSH1 0x40 DUP2 KECCAK256 DUP2 DUP2 SSTORE PUSH1 0x1 DUP2 ADD DUP1 SLOAD PUSH1 0x1 PUSH1 0x1 PUSH1 0xA0 SHL SUB NOT SWAP1 DUP2 AND SWAP1 SWAP2 SSTORE PUSH1 0x2 DUP3 ADD DUP1 SLOAD SWAP1 SWAP2 AND SWAP1 SSTORE SWAP1 PUSH2 0x2BD9 PUSH1 0x3 DUP4 ADD DUP3 PUSH2 0x2E54 JUMP JUMPDEST PUSH1 0x4 DUP3 ADD PUSH1 0x0 SWAP1 SSTORE PUSH1 0x5 DUP3 ADD PUSH1 0x0 PUSH2 0x2BF1 SWAP2 SWAP1 PUSH2 0x2E54 JUMP JUMPDEST PUSH2 0x2BFF PUSH1 0x6 DUP4 ADD PUSH1 0x0 PUSH2 0x2E54 JUMP JUMPDEST PUSH2 0x2C0D PUSH1 0x7 DUP4 ADD PUSH1 0x0 PUSH2 0x2E54 JUMP JUMPDEST POP POP PUSH1 0x40 MLOAD DUP2 SWAP1 PUSH32 0x294C5A9BC8A39E6E06502BC8DA429980F6C7B0990D75B682C12CB8705E3ACE85 SWAP1 PUSH1 0x0 SWAP1 LOG2 POP DUP1 PUSH2 0x2C45 DUP2 PUSH2 0x3AED JUMP JUMPDEST SWAP2 POP POP PUSH2 0x2B3D JUMP JUMPDEST PUSH2 0x2C55 PUSH2 0x2D41 JUMP JUMPDEST PUSH1 0x1 PUSH1 0x1 PUSH1 0xA0 SHL SUB DUP2 AND PUSH2 0x2CBA JUMPI PUSH1 0x40 MLOAD PUSH3 0x461BCD PUSH1 0xE5 SHL DUP2 MSTORE PUSH1 0x20 PUSH1 0x4 DUP3 ADD MSTORE PUSH1 0x26 PUSH1 0x24 DUP3 ADD MSTORE PUSH32 0x4F776E61626C653A206E6577206F776E657220697320746865207A65726F2061 PUSH1 0x44 DUP3 ADD MSTORE PUSH6 0x646472657373 PUSH1 0xD0 SHL PUSH1 0x64 DUP3 ADD MSTORE PUSH1 0x84 ADD PUSH2 0x507 JUMP JUMPDEST PUSH2 0x2CC3 DUP2 PUSH2 0x2D9B JUMP JUMPDEST POP JUMP JUMPDEST PUSH2 0x2CCE PUSH2 0x2D41 JUMP JUMPDEST PUSH1 0x0 DUP2 GT PUSH2 0x2D31 JUMPI PUSH1 0x40 MLOAD PUSH3 0x461BCD PUSH1 0xE5 SHL DUP2 MSTORE PUSH1 0x20 PUSH1 0x4 DUP3 ADD MSTORE PUSH1 0x2A PUSH1 0x24 DUP3 ADD MSTORE PUSH32 0x4D6178696D756D207665726966696572732073686F756C642062652067726561 PUSH1 0x44 DUP3 ADD MSTORE PUSH10 0x746572207468616E203 PUSH1 0xB4 SHL PUSH1 0x64 DUP3 ADD MSTORE PUSH1 0x84 ADD PUSH2 0x507 JUMP JUMPDEST PUSH1 0x2 SSTORE JUMP JUMPDEST PUSH1 0x0 PUSH2 0x2280 CALLER PUSH2 0x2DEB JUMP JUMPDEST PUSH1 0x0 SLOAD PUSH1 0x1 PUSH1 0x1 PUSH1 0xA0 SHL SUB AND CALLER EQ PUSH2 0x1D8B JUMPI PUSH1 0x40 MLOAD PUSH3 0x461BCD PUSH1 0xE5 SHL DUP2 MSTORE PUSH1 0x20 PUSH1 0x4 DUP3 ADD DUP2 SWAP1 MSTORE PUSH1 0x24 DUP3 ADD MSTORE PUSH32 0x4F776E61626C653A2063616C6C6572206973206E6F7420746865206F776E6572 PUSH1 0x44 DUP3 ADD MSTORE PUSH1 0x64 ADD PUSH2 0x507 JUMP JUMPDEST PUSH1 0x0 DUP1 SLOAD PUSH1 0x1 PUSH1 0x1 PUSH1 0xA0 SHL SUB DUP4 DUP2 AND PUSH1 0x1 PUSH1 0x1 PUSH1 0xA0 SHL SUB NOT DUP4 AND DUP2 OR DUP5 SSTORE PUSH1 0x40 MLOAD SWAP2 SWAP1 SWAP3 AND SWAP3 DUP4 SWAP2 PUSH32 0x8BE0079C531659141344CD1FD0A4F28419497F9722A3DAAFE3B4186F6B6457E0 SWAP2 SWAP1 LOG3 POP POP JUMP JUMPDEST PUSH1 0x0 DUP1 JUMPDEST PUSH1 0x1 SLOAD DUP2 LT ISZERO PUSH2 0x2E4B JUMPI DUP3 PUSH1 0x1 PUSH1 0x1 PUSH1 0xA0 SHL SUB AND PUSH1 0x1 DUP3 DUP2 SLOAD DUP2 LT PUSH2 0x2E16 JUMPI PUSH2 0x2E16 PUSH2 0x3923 JUMP JUMPDEST PUSH1 0x0 SWAP2 DUP3 MSTORE PUSH1 0x20 SWAP1 SWAP2 KECCAK256 ADD SLOAD PUSH1 0x1 PUSH1 0x1 PUSH1 0xA0 SHL SUB AND SUB PUSH2 0x2E39 JUMPI POP PUSH1 0x1 SWAP3 SWAP2 POP POP JUMP JUMPDEST DUP1 PUSH2 0x2E43 DUP2 PUSH2 0x3AED JUMP JUMPDEST SWAP2 POP POP PUSH2 0x2DEF JUMP JUMPDEST POP PUSH1 0x0 SWAP3 SWAP2 POP POP JUMP JUMPDEST POP DUP1 SLOAD PUSH2 0x2E60 SWAP1 PUSH2 0x39AE JUMP JUMPDEST PUSH1 0x0 DUP3 SSTORE DUP1 PUSH1 0x1F LT PUSH2 0x2E70 JUMPI POP POP JUMP JUMPDEST PUSH1 0x1F ADD PUSH1 0x20 SWAP1 DIV SWAP1 PUSH1 0x0 MSTORE PUSH1 0x20 PUSH1 0x0 KECCAK256 SWAP1 DUP2 ADD SWAP1 PUSH2 0x2CC3 SWAP2 SWAP1 JUMPDEST DUP1 DUP3 GT ISZERO PUSH2 0x2E9E JUMPI PUSH1 0x0 DUP2 SSTORE PUSH1 0x1 ADD PUSH2 0x2E8A JUMP JUMPDEST POP SWAP1 JUMP JUMPDEST PUSH4 0x4E487B71 PUSH1 0xE0 SHL PUSH1 0x0 MSTORE PUSH1 0x41 PUSH1 0x4 MSTORE PUSH1 0x24 PUSH1 0x0 REVERT JUMPDEST PUSH1 0x40 MLOAD PUSH1 0x1F DUP3 ADD PUSH1 0x1F NOT AND DUP2 ADD PUSH1 0x1 PUSH1 0x1 PUSH1 0x40 SHL SUB DUP2 GT DUP3 DUP3 LT OR ISZERO PUSH2 0x2EE0 JUMPI PUSH2 0x2EE0 PUSH2 0x2EA2 JUMP JUMPDEST PUSH1 0x40 MSTORE SWAP2 SWAP1 POP JUMP JUMPDEST PUSH1 0x0 PUSH1 0x1 PUSH1 0x1 PUSH1 0x40 SHL SUB DUP3 GT ISZERO PUSH2 0x2F01 JUMPI PUSH2 0x2F01 PUSH2 0x2EA2 JUMP JUMPDEST POP PUSH1 0x5 SHL PUSH1 0x20 ADD SWAP1 JUMP JUMPDEST PUSH1 0x0 DUP3 PUSH1 0x1F DUP4 ADD SLT PUSH2 0x2F1C JUMPI PUSH1 0x0 DUP1 REVERT JUMPDEST DUP2 CALLDATALOAD PUSH1 0x1 PUSH1 0x1 PUSH1 0x40 SHL SUB DUP2 GT ISZERO PUSH2 0x2F35 JUMPI PUSH2 0x2F35 PUSH2 0x2EA2 JUMP JUMPDEST PUSH2 0x2F48 PUSH1 0x1F DUP3 ADD PUSH1 0x1F NOT AND PUSH1 0x20 ADD PUSH2 0x2EB8 JUMP JUMPDEST DUP2 DUP2 MSTORE DUP5 PUSH1 0x20 DUP4 DUP7 ADD ADD GT ISZERO PUSH2 0x2F5D JUMPI PUSH1 0x0 DUP1 REVERT JUMPDEST DUP2 PUSH1 0x20 DUP6 ADD PUSH1 0x20 DUP4 ADD CALLDATACOPY PUSH1 0x0 SWAP2 DUP2 ADD PUSH1 0x20 ADD SWAP2 SWAP1 SWAP2 MSTORE SWAP4 SWAP3 POP POP POP JUMP JUMPDEST PUSH1 0x0 DUP3 PUSH1 0x1F DUP4 ADD SLT PUSH2 0x2F8B JUMPI PUSH1 0x0 DUP1 REVERT JUMPDEST DUP2 CALLDATALOAD PUSH1 0x20 PUSH2 0x2FA0 PUSH2 0x2F9B DUP4 PUSH2 0x2EE8 JUMP JUMPDEST PUSH2 0x2EB8 JUMP JUMPDEST DUP3 DUP2 MSTORE PUSH1 0x5 SWAP3 SWAP1 SWAP3 SHL DUP5 ADD DUP2 ADD SWAP2 DUP2 DUP2 ADD SWAP1 DUP7 DUP5 GT ISZERO PUSH2 0x2FBF JUMPI PUSH1 0x0 DUP1 REVERT JUMPDEST DUP3 DUP7 ADD JUMPDEST DUP5 DUP2 LT ISZERO PUSH2 0x2FFE JUMPI DUP1 CALLDATALOAD PUSH1 0x1 PUSH1 0x1 PUSH1 0x40 SHL SUB DUP2 GT ISZERO PUSH2 0x2FE2 JUMPI PUSH1 0x0 DUP1 DUP2 REVERT JUMPDEST PUSH2 0x2FF0 DUP10 DUP7 DUP4 DUP12 ADD ADD PUSH2 0x2F0B JUMP JUMPDEST DUP5 MSTORE POP SWAP2 DUP4 ADD SWAP2 DUP4 ADD PUSH2 0x2FC3 JUMP JUMPDEST POP SWAP7 SWAP6 POP POP POP POP POP POP JUMP JUMPDEST PUSH1 0x0 DUP3 PUSH1 0x1F DUP4 ADD SLT PUSH2 0x301A JUMPI PUSH1 0x0 DUP1 REVERT JUMPDEST DUP2 CALLDATALOAD PUSH1 0x20 PUSH2 0x302A PUSH2 0x2F9B DUP4 PUSH2 0x2EE8 JUMP JUMPDEST DUP3 DUP2 MSTORE PUSH1 0x5 SWAP3 SWAP1 SWAP3 SHL DUP5 ADD DUP2 ADD SWAP2 DUP2 DUP2 ADD SWAP1 DUP7 DUP5 GT ISZERO PUSH2 0x3049 JUMPI PUSH1 0x0 DUP1 REVERT JUMPDEST DUP3 DUP7 ADD JUMPDEST DUP5 DUP2 LT ISZERO PUSH2 0x2FFE JUMPI DUP1 CALLDATALOAD DUP4 MSTORE SWAP2 DUP4 ADD SWAP2 DUP4 ADD PUSH2 0x304D JUMP JUMPDEST PUSH1 0x0 DUP1 PUSH1 0x0 DUP1 PUSH1 0x80 DUP6 DUP8 SUB SLT ISZERO PUSH2 0x307A JUMPI PUSH1 0x0 DUP1 REVERT JUMPDEST DUP5 CALLDATALOAD PUSH1 0x1 PUSH1 0x1 PUSH1 0x40 SHL SUB DUP1 DUP3 GT ISZERO PUSH2 0x3091 JUMPI PUSH1 0x0 DUP1 REVERT JUMPDEST PUSH2 0x309D DUP9 DUP4 DUP10 ADD PUSH2 0x2F7A JUMP JUMPDEST SWAP6 POP PUSH1 0x20 DUP8 ADD CALLDATALOAD SWAP2 POP DUP1 DUP3 GT ISZERO PUSH2 0x30B3 JUMPI PUSH1 0x0 DUP1 REVERT JUMPDEST PUSH2 0x30BF DUP9 DUP4 DUP10 ADD PUSH2 0x2F7A JUMP JUMPDEST SWAP5 POP PUSH1 0x40 DUP8 ADD CALLDATALOAD SWAP2 POP DUP1 DUP3 GT ISZERO PUSH2 0x30D5 JUMPI PUSH1 0x0 DUP1 REVERT JUMPDEST PUSH2 0x30E1 DUP9 DUP4 DUP10 ADD PUSH2 0x3009 JUMP JUMPDEST SWAP4 POP PUSH1 0x60 DUP8 ADD CALLDATALOAD SWAP2 POP DUP1 DUP3 GT ISZERO PUSH2 0x30F7 JUMPI PUSH1 0x0 DUP1 REVERT JUMPDEST POP PUSH2 0x3104 DUP8 DUP3 DUP9 ADD PUSH2 0x2F7A JUMP JUMPDEST SWAP2 POP POP SWAP3 SWAP6 SWAP2 SWAP5 POP SWAP3 POP JUMP JUMPDEST DUP1 CALLDATALOAD PUSH1 0x1 PUSH1 0x1 PUSH1 0xA0 SHL SUB DUP2 AND DUP2 EQ PUSH2 0x3127 JUMPI PUSH1 0x0 DUP1 REVERT JUMPDEST SWAP2 SWAP1 POP JUMP JUMPDEST PUSH1 0x0 DUP3 PUSH1 0x1F DUP4 ADD SLT PUSH2 0x313D JUMPI PUSH1 0x0 DUP1 REVERT JUMPDEST DUP2 CALLDATALOAD PUSH1 0x20 PUSH2 0x314D PUSH2 0x2F9B DUP4 PUSH2 0x2EE8 JUMP JUMPDEST DUP3 DUP2 MSTORE PUSH1 0x5 SWAP3 SWAP1 SWAP3 SHL DUP5 ADD DUP2 ADD SWAP2 DUP2 DUP2 ADD SWAP1 DUP7 DUP5 GT ISZERO PUSH2 0x316C JUMPI PUSH1 0x0 DUP1 REVERT JUMPDEST DUP3 DUP7 ADD JUMPDEST DUP5 DUP2 LT ISZERO PUSH2 0x2FFE JUMPI PUSH2 0x3181 DUP2 PUSH2 0x3110 JUMP JUMPDEST DUP4 MSTORE SWAP2 DUP4 ADD SWAP2 DUP4 ADD PUSH2 0x3170 JUMP JUMPDEST PUSH1 0x0 DUP1 PUSH1 0x0 DUP1 PUSH1 0x0 DUP1 PUSH1 0xC0 DUP8 DUP10 SUB SLT ISZERO PUSH2 0x31A7 JUMPI PUSH1 0x0 DUP1 REVERT JUMPDEST DUP7 CALLDATALOAD PUSH1 0x1 PUSH1 0x1 PUSH1 0x40 SHL SUB DUP1 DUP3 GT ISZERO PUSH2 0x31BE JUMPI PUSH1 0x0 DUP1 REVERT JUMPDEST PUSH2 0x31CA DUP11 DUP4 DUP12 ADD PUSH2 0x312C JUMP JUMPDEST SWAP8 POP PUSH1 0x20 DUP10 ADD CALLDATALOAD SWAP2 POP DUP1 DUP3 GT ISZERO PUSH2 0x31E0 JUMPI PUSH1 0x0 DUP1 REVERT JUMPDEST PUSH2 0x31EC DUP11 DUP4 DUP12 ADD PUSH2 0x2F7A JUMP JUMPDEST SWAP7 POP PUSH1 0x40 DUP10 ADD CALLDATALOAD SWAP2 POP DUP1 DUP3 GT ISZERO PUSH2 0x3202 JUMPI PUSH1 0x0 DUP1 REVERT JUMPDEST PUSH2 0x320E DUP11 DUP4 DUP12 ADD PUSH2 0x2F7A JUMP JUMPDEST SWAP6 POP PUSH1 0x60 DUP10 ADD CALLDATALOAD SWAP2 POP DUP1 DUP3 GT ISZERO PUSH2 0x3224 JUMPI PUSH1 0x0 DUP1 REVERT JUMPDEST PUSH2 0x3230 DUP11 DUP4 DUP12 ADD PUSH2 0x2F7A JUMP JUMPDEST SWAP5 POP PUSH1 0x80 DUP10 ADD CALLDATALOAD SWAP2 POP DUP1 DUP3 GT ISZERO PUSH2 0x3246 JUMPI PUSH1 0x0 DUP1 REVERT JUMPDEST PUSH2 0x3252 DUP11 DUP4 DUP12 ADD PUSH2 0x2F7A JUMP JUMPDEST SWAP4 POP PUSH1 0xA0 DUP10 ADD CALLDATALOAD SWAP2 POP DUP1 DUP3 GT ISZERO PUSH2 0x3268 JUMPI PUSH1 0x0 DUP1 REVERT JUMPDEST POP PUSH2 0x3275 DUP10 DUP3 DUP11 ADD PUSH2 0x2F7A JUMP JUMPDEST SWAP2 POP POP SWAP3 SWAP6 POP SWAP3 SWAP6 POP SWAP3 SWAP6 JUMP JUMPDEST PUSH1 0x0 DUP1 PUSH1 0x40 DUP4 DUP6 SUB SLT ISZERO PUSH2 0x3295 JUMPI PUSH1 0x0 DUP1 REVERT JUMPDEST DUP3 CALLDATALOAD SWAP2 POP PUSH2 0x32A5 PUSH1 0x20 DUP5 ADD PUSH2 0x3110 JUMP JUMPDEST SWAP1 POP SWAP3 POP SWAP3 SWAP1 POP JUMP JUMPDEST PUSH1 0x0 PUSH1 0x20 DUP3 DUP5 SUB SLT ISZERO PUSH2 0x32C0 JUMPI PUSH1 0x0 DUP1 REVERT JUMPDEST POP CALLDATALOAD SWAP2 SWAP1 POP JUMP JUMPDEST PUSH1 0x0 DUP2 MLOAD DUP1 DUP5 MSTORE PUSH1 0x0 JUMPDEST DUP2 DUP2 LT ISZERO PUSH2 0x32ED JUMPI PUSH1 0x20 DUP2 DUP6 ADD DUP2 ADD MLOAD DUP7 DUP4 ADD DUP3 ADD MSTORE ADD PUSH2 0x32D1 JUMP JUMPDEST POP PUSH1 0x0 PUSH1 0x20 DUP3 DUP7 ADD ADD MSTORE PUSH1 0x20 PUSH1 0x1F NOT PUSH1 0x1F DUP4 ADD AND DUP6 ADD ADD SWAP2 POP POP SWAP3 SWAP2 POP POP JUMP JUMPDEST DUP9 DUP2 MSTORE PUSH1 0x1 PUSH1 0x1 PUSH1 0xA0 SHL SUB DUP9 AND PUSH1 0x20 DUP3 ADD MSTORE PUSH2 0x100 PUSH1 0x40 DUP3 ADD DUP2 SWAP1 MSTORE PUSH1 0x0 SWAP1 PUSH2 0x3338 DUP4 DUP3 ADD DUP11 PUSH2 0x32C7 JUMP JUMPDEST SWAP1 POP DUP8 PUSH1 0x60 DUP5 ADD MSTORE DUP3 DUP2 SUB PUSH1 0x80 DUP5 ADD MSTORE PUSH2 0x3352 DUP2 DUP9 PUSH2 0x32C7 JUMP JUMPDEST SWAP1 POP DUP3 DUP2 SUB PUSH1 0xA0 DUP5 ADD MSTORE PUSH2 0x3366 DUP2 DUP8 PUSH2 0x32C7 JUMP JUMPDEST SWAP1 POP DUP3 DUP2 SUB PUSH1 0xC0 DUP5 ADD MSTORE PUSH2 0x337A DUP2 DUP7 PUSH2 0x32C7 JUMP JUMPDEST SWAP1 POP DUP3 DUP2 SUB PUSH1 0xE0 DUP5 ADD MSTORE PUSH2 0x338E DUP2 DUP6 PUSH2 0x32C7 JUMP JUMPDEST SWAP12 SWAP11 POP POP POP POP POP POP POP POP POP POP POP JUMP JUMPDEST DUP9 DUP2 MSTORE PUSH1 0x1 PUSH1 0x1 PUSH1 0xA0 SHL SUB DUP9 DUP2 AND PUSH1 0x20 DUP4 ADD MSTORE DUP8 AND PUSH1 0x40 DUP3 ADD MSTORE PUSH2 0x100 PUSH1 0x60 DUP3 ADD DUP2 SWAP1 MSTORE PUSH1 0x0 SWAP1 PUSH2 0x33D0 DUP4 DUP3 ADD DUP10 PUSH2 0x32C7 JUMP JUMPDEST SWAP1 POP DUP7 PUSH1 0x80 DUP5 ADD MSTORE DUP3 DUP2 SUB PUSH1 0xA0 DUP5 ADD MSTORE PUSH2 0x3366 DUP2 DUP8 PUSH2 0x32C7 JUMP JUMPDEST PUSH1 0xA0 DUP2 MSTORE PUSH1 0x0 PUSH2 0x33FD PUSH1 0xA0 DUP4 ADD DUP9 PUSH2 0x32C7 JUMP JUMPDEST DUP7 PUSH1 0x20 DUP5 ADD MSTORE DUP3 DUP2 SUB PUSH1 0x40 DUP5 ADD MSTORE PUSH2 0x3415 DUP2 DUP8 PUSH2 0x32C7 JUMP JUMPDEST SWAP1 POP DUP3 DUP2 SUB PUSH1 0x60 DUP5 ADD MSTORE PUSH2 0x3429 DUP2 DUP7 PUSH2 0x32C7 JUMP JUMPDEST SWAP1 POP DUP3 DUP2 SUB PUSH1 0x80 DUP5 ADD MSTORE PUSH2 0x343D DUP2 DUP6 PUSH2 0x32C7 JUMP JUMPDEST SWAP9 SWAP8 POP POP POP POP POP POP POP POP JUMP JUMPDEST PUSH1 0xA0 DUP2 MSTORE PUSH1 0x0 PUSH2 0x345C PUSH1 0xA0 DUP4 ADD DUP9 PUSH2 0x32C7 JUMP JUMPDEST DUP3 DUP2 SUB PUSH1 0x20 DUP5 ADD MSTORE PUSH2 0x346E DUP2 DUP9 PUSH2 0x32C7 JUMP JUMPDEST SWAP6 ISZERO ISZERO PUSH1 0x40 DUP5 ADD MSTORE POP POP PUSH1 0x60 DUP2 ADD SWAP3 SWAP1 SWAP3 MSTORE PUSH1 0x80 SWAP1 SWAP2 ADD MSTORE SWAP3 SWAP2 POP POP JUMP JUMPDEST PUSH1 0x0 DUP1 PUSH1 0x40 DUP4 DUP6 SUB SLT ISZERO PUSH2 0x349F JUMPI PUSH1 0x0 DUP1 REVERT JUMPDEST DUP3 CALLDATALOAD PUSH1 0x1 PUSH1 0x1 PUSH1 0x40 SHL SUB DUP1 DUP3 GT ISZERO PUSH2 0x34B6 JUMPI PUSH1 0x0 DUP1 REVERT JUMPDEST PUSH2 0x34C2 DUP7 DUP4 DUP8 ADD PUSH2 0x312C JUMP JUMPDEST SWAP4 POP PUSH1 0x20 DUP6 ADD CALLDATALOAD SWAP2 POP DUP1 DUP3 GT ISZERO PUSH2 0x34D8 JUMPI PUSH1 0x0 DUP1 REVERT JUMPDEST POP PUSH2 0x34E5 DUP6 DUP3 DUP7 ADD PUSH2 0x312C JUMP JUMPDEST SWAP2 POP POP SWAP3 POP SWAP3 SWAP1 POP JUMP JUMPDEST PUSH1 0x1 PUSH1 0x1 PUSH1 0xA0 SHL SUB DUP10 AND DUP2 MSTORE PUSH2 0x100 PUSH1 0x20 DUP3 ADD DUP2 SWAP1 MSTORE PUSH1 0x0 SWAP1 PUSH2 0x3514 DUP4 DUP3 ADD DUP12 PUSH2 0x32C7 JUMP JUMPDEST SWAP1 POP DUP9 PUSH1 0x40 DUP5 ADD MSTORE DUP3 DUP2 SUB PUSH1 0x60 DUP5 ADD MSTORE PUSH2 0x352E DUP2 DUP10 PUSH2 0x32C7 JUMP JUMPDEST SWAP1 POP DUP3 DUP2 SUB PUSH1 0x80 DUP5 ADD MSTORE PUSH2 0x3542 DUP2 DUP9 PUSH2 0x32C7 JUMP JUMPDEST SWAP1 POP DUP3 DUP2 SUB PUSH1 0xA0 DUP5 ADD MSTORE PUSH2 0x3556 DUP2 DUP8 PUSH2 0x32C7 JUMP JUMPDEST SWAP1 POP DUP3 DUP2 SUB PUSH1 0xC0 DUP5 ADD MSTORE PUSH2 0x356A DUP2 DUP7 PUSH2 0x32C7 JUMP JUMPDEST SWAP2 POP POP DUP3 PUSH1 0xE0 DUP4 ADD MSTORE SWAP10 SWAP9 POP POP POP POP POP POP POP POP POP JUMP JUMPDEST PUSH1 0x0 PUSH1 0x20 DUP3 DUP5 SUB SLT ISZERO PUSH2 0x3592 JUMPI PUSH1 0x0 DUP1 REVERT JUMPDEST DUP2 CALLDATALOAD PUSH1 0x1 PUSH1 0x1 PUSH1 0x40 SHL SUB DUP2 GT ISZERO PUSH2 0x35A8 JUMPI PUSH1 0x0 DUP1 REVERT JUMPDEST PUSH2 0x35B4 DUP5 DUP3 DUP6 ADD PUSH2 0x3009 JUMP JUMPDEST SWAP5 SWAP4 POP POP POP POP JUMP JUMPDEST PUSH1 0x0 PUSH1 0x20 DUP3 DUP5 SUB SLT ISZERO PUSH2 0x35CE JUMPI PUSH1 0x0 DUP1 REVERT JUMPDEST PUSH2 0x35D7 DUP3 PUSH2 0x3110 JUMP JUMPDEST SWAP4 SWAP3 POP POP POP JUMP JUMPDEST PUSH1 0x0 DUP1 PUSH1 0x0 DUP1 PUSH1 0x0 PUSH1 0xA0 DUP7 DUP9 SUB SLT ISZERO PUSH2 0x35F6 JUMPI PUSH1 0x0 DUP1 REVERT JUMPDEST DUP6 CALLDATALOAD PUSH1 0x1 PUSH1 0x1 PUSH1 0x40 SHL SUB DUP1 DUP3 GT ISZERO PUSH2 0x360D JUMPI PUSH1 0x0 DUP1 REVERT JUMPDEST PUSH2 0x3619 DUP10 DUP4 DUP11 ADD PUSH2 0x312C JUMP JUMPDEST SWAP7 POP PUSH1 0x20 DUP9 ADD CALLDATALOAD SWAP2 POP DUP1 DUP3 GT ISZERO PUSH2 0x362F JUMPI PUSH1 0x0 DUP1 REVERT JUMPDEST PUSH2 0x363B DUP10 DUP4 DUP11 ADD PUSH2 0x2F7A JUMP JUMPDEST SWAP6 POP PUSH1 0x40 DUP9 ADD CALLDATALOAD SWAP2 POP DUP1 DUP3 GT ISZERO PUSH2 0x3651 JUMPI PUSH1 0x0 DUP1 REVERT JUMPDEST PUSH2 0x365D DUP10 DUP4 DUP11 ADD PUSH2 0x2F7A JUMP JUMPDEST SWAP5 POP PUSH1 0x60 DUP9 ADD CALLDATALOAD SWAP2 POP DUP1 DUP3 GT ISZERO PUSH2 0x3673 JUMPI PUSH1 0x0 DUP1 REVERT JUMPDEST PUSH2 0x367F DUP10 DUP4 DUP11 ADD PUSH2 0x2F7A JUMP JUMPDEST SWAP4 POP PUSH1 0x80 DUP9 ADD CALLDATALOAD SWAP2 POP DUP1 DUP3 GT ISZERO PUSH2 0x3695 JUMPI PUSH1 0x0 DUP1 REVERT JUMPDEST POP PUSH2 0x36A2 DUP9 DUP3 DUP10 ADD PUSH2 0x2F7A JUMP JUMPDEST SWAP2 POP POP SWAP3 SWAP6 POP SWAP3 SWAP6 SWAP1 SWAP4 POP JUMP JUMPDEST PUSH1 0x0 DUP1 PUSH1 0x40 DUP4 DUP6 SUB SLT ISZERO PUSH2 0x36C2 JUMPI PUSH1 0x0 DUP1 REVERT JUMPDEST POP POP DUP1 CALLDATALOAD SWAP3 PUSH1 0x20 SWAP1 SWAP2 ADD CALLDATALOAD SWAP2 POP JUMP JUMPDEST PUSH1 0x0 PUSH2 0x100 DUP11 DUP4 MSTORE DUP1 PUSH1 0x20 DUP5 ADD MSTORE PUSH2 0x36EB DUP2 DUP5 ADD DUP12 PUSH2 0x32C7 JUMP JUMPDEST SWAP1 POP DUP9 PUSH1 0x40 DUP5 ADD MSTORE DUP3 DUP2 SUB PUSH1 0x60 DUP5 ADD MSTORE PUSH2 0x3705 DUP2 DUP10 PUSH2 0x32C7 JUMP JUMPDEST SWAP1 POP DUP3 DUP2 SUB PUSH1 0x80 DUP5 ADD MSTORE PUSH2 0x3719 DUP2 DUP9 PUSH2 0x32C7 JUMP JUMPDEST SWAP6 ISZERO ISZERO PUSH1 0xA0 DUP5 ADD MSTORE POP POP PUSH1 0xC0 DUP2 ADD SWAP3 SWAP1 SWAP3 MSTORE PUSH1 0xE0 SWAP1 SWAP2 ADD MSTORE SWAP6 SWAP5 POP POP POP POP POP JUMP JUMPDEST PUSH1 0x20 DUP1 DUP3 MSTORE DUP3 MLOAD DUP3 DUP3 ADD DUP2 SWAP1 MSTORE PUSH1 0x0 SWAP2 SWAP1 DUP5 DUP3 ADD SWAP1 PUSH1 0x40 DUP6 ADD SWAP1 DUP5 JUMPDEST DUP2 DUP2 LT ISZERO PUSH2 0x377B JUMPI DUP4 MLOAD PUSH1 0x1 PUSH1 0x1 PUSH1 0xA0 SHL SUB AND DUP4 MSTORE SWAP3 DUP5 ADD SWAP3 SWAP2 DUP5 ADD SWAP2 PUSH1 0x1 ADD PUSH2 0x3756 JUMP JUMPDEST POP SWAP1 SWAP7 SWAP6 POP POP POP POP POP POP JUMP JUMPDEST PUSH1 0x0 PUSH1 0x20 DUP3 DUP5 SUB SLT ISZERO PUSH2 0x3799 JUMPI PUSH1 0x0 DUP1 REVERT JUMPDEST DUP2 CALLDATALOAD PUSH1 0x1 PUSH1 0x1 PUSH1 0x40 SHL SUB DUP2 GT ISZERO PUSH2 0x37AF JUMPI PUSH1 0x0 DUP1 REVERT JUMPDEST PUSH2 0x35B4 DUP5 DUP3 DUP6 ADD PUSH2 0x312C JUMP JUMPDEST PUSH1 0x0 DUP1 PUSH1 0x40 DUP4 DUP6 SUB SLT ISZERO PUSH2 0x37CE JUMPI PUSH1 0x0 DUP1 REVERT JUMPDEST DUP3 CALLDATALOAD PUSH1 0x1 PUSH1 0x1 PUSH1 0x40 SHL SUB DUP1 DUP3 GT ISZERO PUSH2 0x37E5 JUMPI PUSH1 0x0 DUP1 REVERT JUMPDEST PUSH2 0x37F1 DUP7 DUP4 DUP8 ADD PUSH2 0x3009 JUMP JUMPDEST SWAP4 POP PUSH1 0x20 DUP6 ADD CALLDATALOAD SWAP2 POP DUP1 DUP3 GT ISZERO PUSH2 0x3807 JUMPI PUSH1 0x0 DUP1 REVERT JUMPDEST POP PUSH2 0x34E5 DUP6 DUP3 DUP7 ADD PUSH2 0x3009 JUMP JUMPDEST PUSH1 0x0 DUP1 PUSH1 0x0 DUP1 PUSH1 0x0 PUSH1 0xA0 DUP7 DUP9 SUB SLT ISZERO PUSH2 0x382C JUMPI PUSH1 0x0 DUP1 REVERT JUMPDEST DUP6 CALLDATALOAD SWAP5 POP PUSH1 0x20 DUP7 ADD CALLDATALOAD PUSH1 0x1 PUSH1 0x1 PUSH1 0x40 SHL SUB DUP1 DUP3 GT ISZERO PUSH2 0x384A JUMPI PUSH1 0x0 DUP1 REVERT JUMPDEST PUSH2 0x3856 DUP10 DUP4 DUP11 ADD PUSH2 0x2F0B JUMP JUMPDEST SWAP6 POP PUSH1 0x40 DUP9 ADD CALLDATALOAD SWAP2 POP DUP1 DUP3 GT ISZERO PUSH2 0x386C JUMPI PUSH1 0x0 DUP1 REVERT JUMPDEST PUSH2 0x3878 DUP10 DUP4 DUP11 ADD PUSH2 0x2F0B JUMP JUMPDEST SWAP5 POP PUSH1 0x60 DUP9 ADD CALLDATALOAD SWAP2 POP DUP1 DUP3 GT ISZERO PUSH2 0x388E JUMPI PUSH1 0x0 DUP1 REVERT JUMPDEST PUSH2 0x389A DUP10 DUP4 DUP11 ADD PUSH2 0x2F0B JUMP JUMPDEST SWAP4 POP PUSH1 0x80 DUP9 ADD CALLDATALOAD SWAP2 POP DUP1 DUP3 GT ISZERO PUSH2 0x38B0 JUMPI PUSH1 0x0 DUP1 REVERT JUMPDEST POP PUSH2 0x36A2 DUP9 DUP3 DUP10 ADD PUSH2 0x2F0B JUMP JUMPDEST PUSH1 0x20 DUP1 DUP3 MSTORE PUSH1 0x15 SWAP1 DUP3 ADD MSTORE PUSH21 0x13DB9B1E4818DBDB5C185B9E4818D85B8818D85B1B PUSH1 0x5A SHL PUSH1 0x40 DUP3 ADD MSTORE PUSH1 0x60 ADD SWAP1 JUMP JUMPDEST PUSH1 0x20 DUP1 DUP3 MSTORE PUSH1 0x18 SWAP1 DUP3 ADD MSTORE PUSH32 0x4D69736D61746368656420696E707574206C656E677468730000000000000000 PUSH1 0x40 DUP3 ADD MSTORE PUSH1 0x60 ADD SWAP1 JUMP JUMPDEST PUSH4 0x4E487B71 PUSH1 0xE0 SHL PUSH1 0x0 MSTORE PUSH1 0x32 PUSH1 0x4 MSTORE PUSH1 0x24 PUSH1 0x0 REVERT JUMPDEST PUSH1 0x20 DUP1 DUP3 MSTORE PUSH1 0x26 SWAP1 DUP3 ADD MSTORE PUSH32 0x43616E646964617465207769746820676976656E20494420646F6573206E6F74 PUSH1 0x40 DUP3 ADD MSTORE PUSH6 0x8195E1A5CDD PUSH1 0xD2 SHL PUSH1 0x60 DUP3 ADD MSTORE PUSH1 0x80 ADD SWAP1 JUMP JUMPDEST PUSH4 0x4E487B71 PUSH1 0xE0 SHL PUSH1 0x0 MSTORE PUSH1 0x11 PUSH1 0x4 MSTORE PUSH1 0x24 PUSH1 0x0 REVERT JUMPDEST DUP1 DUP3 ADD DUP1 DUP3 GT ISZERO PUSH2 0x39A8 JUMPI PUSH2 0x39A8 PUSH2 0x397F JUMP JUMPDEST SWAP3 SWAP2 POP POP JUMP JUMPDEST PUSH1 0x1 DUP2 DUP2 SHR SWAP1 DUP3 AND DUP1 PUSH2 0x39C2 JUMPI PUSH1 0x7F DUP3 AND SWAP2 POP JUMPDEST PUSH1 0x20 DUP3 LT DUP2 SUB PUSH2 0x39E2 JUMPI PUSH4 0x4E487B71 PUSH1 0xE0 SHL PUSH1 0x0 MSTORE PUSH1 0x22 PUSH1 0x4 MSTORE PUSH1 0x24 PUSH1 0x0 REVERT JUMPDEST POP SWAP2 SWAP1 POP JUMP JUMPDEST PUSH1 0x1F DUP3 GT ISZERO PUSH2 0x17E2 JUMPI PUSH1 0x0 DUP2 DUP2 MSTORE PUSH1 0x20 DUP2 KECCAK256 PUSH1 0x1F DUP6 ADD PUSH1 0x5 SHR DUP2 ADD PUSH1 0x20 DUP7 LT ISZERO PUSH2 0x3A0F JUMPI POP DUP1 JUMPDEST PUSH1 0x1F DUP6 ADD PUSH1 0x5 SHR DUP3 ADD SWAP2 POP JUMPDEST DUP2 DUP2 LT ISZERO PUSH2 0x78C JUMPI DUP3 DUP2 SSTORE PUSH1 0x1 ADD PUSH2 0x3A1B JUMP JUMPDEST DUP2 MLOAD PUSH1 0x1 PUSH1 0x1 PUSH1 0x40 SHL SUB DUP2 GT ISZERO PUSH2 0x3A47 JUMPI PUSH2 0x3A47 PUSH2 0x2EA2 JUMP JUMPDEST PUSH2 0x3A5B DUP2 PUSH2 0x3A55 DUP5 SLOAD PUSH2 0x39AE JUMP JUMPDEST DUP5 PUSH2 0x39E8 JUMP JUMPDEST PUSH1 0x20 DUP1 PUSH1 0x1F DUP4 GT PUSH1 0x1 DUP2 EQ PUSH2 0x3A90 JUMPI PUSH1 0x0 DUP5 ISZERO PUSH2 0x3A78 JUMPI POP DUP6 DUP4 ADD MLOAD JUMPDEST PUSH1 0x0 NOT PUSH1 0x3 DUP7 SWAP1 SHL SHR NOT AND PUSH1 0x1 DUP6 SWAP1 SHL OR DUP6 SSTORE PUSH2 0x78C JUMP JUMPDEST PUSH1 0x0 DUP6 DUP2 MSTORE PUSH1 0x20 DUP2 KECCAK256 PUSH1 0x1F NOT DUP7 AND SWAP2 JUMPDEST DUP3 DUP2 LT ISZERO PUSH2 0x3ABF JUMPI DUP9 DUP7 ADD MLOAD DUP3 SSTORE SWAP5 DUP5 ADD SWAP5 PUSH1 0x1 SWAP1 SWAP2 ADD SWAP1 DUP5 ADD PUSH2 0x3AA0 JUMP JUMPDEST POP DUP6 DUP3 LT ISZERO PUSH2 0x3ADD JUMPI DUP8 DUP6 ADD MLOAD PUSH1 0x0 NOT PUSH1 0x3 DUP9 SWAP1 SHL PUSH1 0xF8 AND SHR NOT AND DUP2 SSTORE JUMPDEST POP POP POP POP POP PUSH1 0x1 SWAP1 DUP2 SHL ADD SWAP1 SSTORE POP JUMP JUMPDEST PUSH1 0x0 PUSH1 0x1 DUP3 ADD PUSH2 0x3AFF JUMPI PUSH2 0x3AFF PUSH2 0x397F JUMP JUMPDEST POP PUSH1 0x1 ADD SWAP1 JUMP JUMPDEST PUSH1 0xC0 DUP2 MSTORE PUSH1 0x0 PUSH2 0x3B19 PUSH1 0xC0 DUP4 ADD DUP10 PUSH2 0x32C7 JUMP JUMPDEST DUP3 DUP2 SUB PUSH1 0x20 DUP5 ADD MSTORE PUSH2 0x3B2B DUP2 DUP10 PUSH2 0x32C7 JUMP JUMPDEST SWAP1 POP DUP7 PUSH1 0x40 DUP5 ADD MSTORE DUP6 PUSH1 0x60 DUP5 ADD MSTORE DUP5 PUSH1 0x80 DUP5 ADD MSTORE DUP3 DUP2 SUB PUSH1 0xA0 DUP5 ADD MSTORE PUSH2 0x3B51 DUP2 DUP6 PUSH2 0x32C7 JUMP JUMPDEST SWAP10 SWAP9 POP POP POP POP POP POP POP POP POP JUMP JUMPDEST PUSH1 0x20 DUP1 DUP3 MSTORE PUSH1 0x1F SWAP1 DUP3 ADD MSTORE PUSH32 0x4F6E6C79207665726966696572206F72206F776E65722063616E2063616C6C00 PUSH1 0x40 DUP3 ADD MSTORE PUSH1 0x60 ADD SWAP1 JUMP JUMPDEST PUSH1 0xC0 DUP2 MSTORE PUSH1 0x0 PUSH2 0x3BA8 PUSH1 0xC0 DUP4 ADD DUP10 PUSH2 0x32C7 JUMP JUMPDEST DUP8 PUSH1 0x20 DUP5 ADD MSTORE DUP3 DUP2 SUB PUSH1 0x40 DUP5 ADD MSTORE PUSH2 0x3BC0 DUP2 DUP9 PUSH2 0x32C7 JUMP JUMPDEST SWAP1 POP DUP3 DUP2 SUB PUSH1 0x60 DUP5 ADD MSTORE PUSH2 0x3BD4 DUP2 DUP8 PUSH2 0x32C7 JUMP JUMPDEST SWAP1 POP DUP3 DUP2 SUB PUSH1 0x80 DUP5 ADD MSTORE PUSH2 0x3BE8 DUP2 DUP7 PUSH2 0x32C7 JUMP JUMPDEST SWAP1 POP DUP3 DUP2 SUB PUSH1 0xA0 DUP5 ADD MSTORE PUSH2 0x3B51 DUP2 DUP6 PUSH2 0x32C7 JUMP JUMPDEST DUP2 DUP2 SUB DUP2 DUP2 GT ISZERO PUSH2 0x39A8 JUMPI PUSH2 0x39A8 PUSH2 0x397F JUMP JUMPDEST PUSH4 0x4E487B71 PUSH1 0xE0 SHL PUSH1 0x0 MSTORE PUSH1 0x31 PUSH1 0x4 MSTORE PUSH1 0x24 PUSH1 0x0 REVERT JUMPDEST PUSH1 0x20 DUP1 DUP3 MSTORE PUSH1 0x16 SWAP1 DUP3 ADD MSTORE PUSH22 0x13DB9B1E481D995C9A599A595C8818D85B8818D85B1B PUSH1 0x52 SHL PUSH1 0x40 DUP3 ADD MSTORE PUSH1 0x60 ADD SWAP1 JUMP JUMPDEST PUSH1 0x0 DUP2 PUSH2 0x3C64 JUMPI PUSH2 0x3C64 PUSH2 0x397F JUMP JUMPDEST POP PUSH1 0x0 NOT ADD SWAP1 JUMP JUMPDEST PUSH1 0x20 DUP1 DUP3 MSTORE PUSH1 0x35 SWAP1 DUP3 ADD MSTORE PUSH32 0x4E6F20646F63756D656E7420666F756E6420666F722074686520676976656E20 PUSH1 0x40 DUP3 ADD MSTORE PUSH21 0x63616E64696461746520616E6420636F6D70616E79 PUSH1 0x58 SHL PUSH1 0x60 DUP3 ADD MSTORE PUSH1 0x80 ADD SWAP1 JUMP INVALID LOG2 PUSH5 0x6970667358 0x22 SLT KECCAK256 ADDRESS JUMPI SWAP12 0xD5 SWAP5 DUP13 0x4F EXP SWAP14 KECCAK256 DUP16 DUP16 ADDRESS 0xED 0xFC PUSH11 0xBA11D7DC4FA3A95973DCF5 PUSH8 0x659BD7364736F6C PUSH4 0x43000814 STOP CALLER "},"methodIdentifiers":{"addCandidates(address[],string[],string[],string[],string[])":"7fbc12af","addCompanies(address[],string[],string[],string[],string[],string[])":"187c1ebe","addDocuments(string[],string[],uint256[],string[])":"1546a239","addVerifiers(address[])":"b5344257","candidateAddress(address)":"99e37a55","candidates(uint256)":"3477ee2e","companies(uint256)":"2813d19d","companyAddress(address)":"6dd08047","companyCandidateDocuments(uint256,uint256)":"8b0e6305","documents(uint256)":"c2ed2b05","editCandidate(uint256,string,string,string,string)":"bfbbf509","editCandidateCurrentCompany(uint256,address)":"1a203a31","getCandidate(uint256)":"35b8e820","getCompany(uint256)":"57d13917","getCompanyIdOfSender()":"b4d7e8df","getDocument(uint256)":"3f9b250a","getOwner()":"893d20e8","getVerifiers()":"a935e766","maxVerifiers()":"78bda750","numCandidates()":"5216509a","numCompanies()":"874fdf2d","numDocuments()":"41affd45","owner()":"8da5cb5b","removeCandidates(uint256[])":"eed18318","removeCompanies(uint256[])":"5990ce80","removeDocuments(uint256[],uint256[])":"bb3096aa","renounceOwnership()":"715018a6","replaceVerifiers(address[],address[])":"4dc95895","setMaxVerifiers(uint256)":"fc7435e1","transferOwnership(address)":"f2fde38b","verifiers(uint256)":"ac1eff68","verifyDocuments(uint256[])":"854da658"}}}}}