{"src/contracts/Verification.sol":{"Verification":{"abi":[{"anonymous":false,"inputs":[{"indexed":true,"internalType":"uint256","name":"id","type":"uint256"},{"indexed":false,"internalType":"string","name":"name","type":"string"},{"indexed":false,"internalType":"string","name":"location","type":"string"},{"indexed":false,"internalType":"string","name":"email","type":"string"},{"indexed":false,"internalType":"string","name":"phoneNumber","type":"string"}],"name":"CandidateAdded","type":"event"},{"anonymous":false,"inputs":[{"indexed":true,"internalType":"uint256","name":"id","type":"uint256"},{"indexed":false,"internalType":"address","name":"newCurrentCompany","type":"address"}],"name":"CandidateCurrentCompanyEdited","type":"event"},{"anonymous":false,"inputs":[{"indexed":true,"internalType":"uint256","name":"id","type":"uint256"},{"indexed":false,"internalType":"string","name":"name","type":"string"},{"indexed":false,"internalType":"string","name":"location","type":"string"},{"indexed":false,"internalType":"string","name":"email","type":"string"},{"indexed":false,"internalType":"string","name":"phoneNumber","type":"string"}],"name":"CandidateEdited","type":"event"},{"anonymous":false,"inputs":[{"indexed":true,"internalType":"uint256","name":"id","type":"uint256"}],"name":"CandidateRemoved","type":"event"},{"anonymous":false,"inputs":[{"indexed":true,"internalType":"uint256","name":"id","type":"uint256"},{"indexed":true,"internalType":"address","name":"companyAddress","type":"address"},{"indexed":false,"internalType":"string","name":"name","type":"string"},{"indexed":false,"internalType":"string","name":"location","type":"string"},{"indexed":false,"internalType":"string","name":"phoneNumber","type":"string"},{"indexed":false,"internalType":"string","name":"licenseNumber","type":"string"},{"indexed":false,"internalType":"string","name":"email","type":"string"}],"name":"CompanyAdded","type":"event"},{"anonymous":false,"inputs":[{"indexed":true,"internalType":"uint256","name":"id","type":"uint256"}],"name":"CompanyRemoved","type":"event"},{"anonymous":false,"inputs":[{"indexed":true,"internalType":"uint256","name":"id","type":"uint256"},{"indexed":false,"internalType":"string","name":"name","type":"string"},{"indexed":false,"internalType":"string","name":"cid","type":"string"},{"indexed":false,"internalType":"uint256","name":"candidateId","type":"uint256"},{"indexed":false,"internalType":"string","name":"typeOfDocument","type":"string"},{"indexed":false,"internalType":"string","name":"expirationDate","type":"string"}],"name":"DocumentAdded","type":"event"},{"anonymous":false,"inputs":[{"indexed":true,"internalType":"uint256","name":"id","type":"uint256"}],"name":"DocumentCancelled","type":"event"},{"anonymous":false,"inputs":[{"indexed":false,"internalType":"uint256","name":"documentId","type":"uint256"},{"indexed":false,"internalType":"uint256","name":"candidateId","type":"uint256"}],"name":"DocumentRemoved","type":"event"},{"anonymous":false,"inputs":[{"indexed":true,"internalType":"uint256","name":"id","type":"uint256"}],"name":"DocumentVerified","type":"event"},{"anonymous":false,"inputs":[{"indexed":true,"internalType":"address","name":"previousOwner","type":"address"},{"indexed":true,"internalType":"address","name":"newOwner","type":"address"}],"name":"OwnershipTransferred","type":"event"},{"anonymous":false,"inputs":[{"indexed":true,"internalType":"address","name":"verifier","type":"address"}],"name":"VerifierAdded","type":"event"},{"anonymous":false,"inputs":[{"indexed":true,"internalType":"address","name":"verifier","type":"address"}],"name":"VerifierRemoved","type":"event"},{"anonymous":false,"inputs":[{"indexed":true,"internalType":"address","name":"oldVerifier","type":"address"},{"indexed":true,"internalType":"address","name":"newVerifier","type":"address"}],"name":"VerifierReplaced","type":"event"},{"inputs":[{"internalType":"address[]","name":"_addresses","type":"address[]"},{"internalType":"string[]","name":"_names","type":"string[]"},{"internalType":"string[]","name":"_locations","type":"string[]"},{"internalType":"string[]","name":"_emails","type":"string[]"},{"internalType":"string[]","name":"_phoneNumbers","type":"string[]"}],"name":"addCandidates","outputs":[],"stateMutability":"nonpayable","type":"function"},{"inputs":[{"internalType":"address[]","name":"_addresses","type":"address[]"},{"internalType":"string[]","name":"_names","type":"string[]"},{"internalType":"string[]","name":"_locations","type":"string[]"},{"internalType":"string[]","name":"_phoneNumbers","type":"string[]"},{"internalType":"string[]","name":"_licenseNumbers","type":"string[]"},{"internalType":"string[]","name":"_emails","type":"string[]"}],"name":"addCompanies","outputs":[],"stateMutability":"nonpayable","type":"function"},{"inputs":[{"internalType":"string[]","name":"_names","type":"string[]"},{"internalType":"string[]","name":"_cids","type":"string[]"},{"internalType":"uint256[]","name":"_candidateIds","type":"uint256[]"},{"internalType":"string[]","name":"_typesOfDocument","type":"string[]"},{"internalType":"string[]","name":"_expirationDates","type":"string[]"}],"name":"addDocuments","outputs":[],"stateMutability":"nonpayable","type":"function"},{"inputs":[{"internalType":"address[]","name":"_verifiers","type":"address[]"}],"name":"addVerifiers","outputs":[],"stateMutability":"nonpayable","type":"function"},{"inputs":[{"internalType":"address","name":"","type":"address"}],"name":"candidateAddress","outputs":[{"internalType":"uint256","name":"","type":"uint256"}],"stateMutability":"view","type":"function"},{"inputs":[{"internalType":"uint256","name":"","type":"uint256"}],"name":"candidates","outputs":[{"internalType":"uint256","name":"date","type":"uint256"},{"internalType":"address","name":"address_","type":"address"},{"internalType":"address","name":"currentCompany","type":"address"},{"internalType":"string","name":"name","type":"string"},{"internalType":"uint256","name":"Id","type":"uint256"},{"internalType":"string","name":"location","type":"string"},{"internalType":"string","name":"email","type":"string"},{"internalType":"string","name":"phoneNumber","type":"string"}],"stateMutability":"view","type":"function"},{"inputs":[{"internalType":"uint256","name":"","type":"uint256"}],"name":"companies","outputs":[{"internalType":"uint256","name":"date","type":"uint256"},{"internalType":"address","name":"address_","type":"address"},{"internalType":"string","name":"name","type":"string"},{"internalType":"uint256","name":"Id","type":"uint256"},{"internalType":"string","name":"location","type":"string"},{"internalType":"string","name":"phoneNumber","type":"string"},{"internalType":"string","name":"licenseNumber","type":"string"},{"internalType":"string","name":"email","type":"string"}],"stateMutability":"view","type":"function"},{"inputs":[{"internalType":"address","name":"","type":"address"}],"name":"companyAddress","outputs":[{"internalType":"uint256","name":"","type":"uint256"}],"stateMutability":"view","type":"function"},{"inputs":[{"internalType":"uint256","name":"","type":"uint256"}],"name":"documents","outputs":[{"internalType":"uint256","name":"date","type":"uint256"},{"internalType":"string","name":"name","type":"string"},{"internalType":"uint256","name":"id","type":"uint256"},{"internalType":"string","name":"cid","type":"string"},{"internalType":"string","name":"typeOfDocument","type":"string"},{"internalType":"string","name":"expirationDate","type":"string"},{"internalType":"bool","name":"isVerified","type":"bool"},{"internalType":"bool","name":"isCancelled","type":"bool"},{"internalType":"uint256","name":"candidateId","type":"uint256"}],"stateMutability":"view","type":"function"},{"inputs":[{"internalType":"uint256","name":"_id","type":"uint256"},{"internalType":"string","name":"_name","type":"string"},{"internalType":"string","name":"_location","type":"string"},{"internalType":"string","name":"_email","type":"string"},{"internalType":"string","name":"_phoneNumber","type":"string"}],"name":"editCandidate","outputs":[],"stateMutability":"nonpayable","type":"function"},{"inputs":[{"internalType":"uint256","name":"_id","type":"uint256"},{"internalType":"address","name":"_newCurrentCompany","type":"address"}],"name":"editCandidateCurrentCompany","outputs":[],"stateMutability":"nonpayable","type":"function"},{"inputs":[{"internalType":"uint256","name":"_id","type":"uint256"}],"name":"getCandidate","outputs":[{"internalType":"string","name":"","type":"string"},{"internalType":"uint256","name":"","type":"uint256"},{"internalType":"string","name":"","type":"string"},{"internalType":"string","name":"","type":"string"},{"internalType":"string","name":"","type":"string"}],"stateMutability":"view","type":"function"},{"inputs":[{"internalType":"uint256","name":"_companyId","type":"uint256"}],"name":"getCandidatesByCompany","outputs":[{"components":[{"internalType":"uint256","name":"date","type":"uint256"},{"internalType":"address","name":"address_","type":"address"},{"internalType":"address","name":"currentCompany","type":"address"},{"internalType":"string","name":"name","type":"string"},{"internalType":"uint256[]","name":"documentIds","type":"uint256[]"},{"internalType":"uint256","name":"Id","type":"uint256"},{"internalType":"string","name":"location","type":"string"},{"internalType":"string","name":"email","type":"string"},{"internalType":"string","name":"phoneNumber","type":"string"}],"internalType":"struct Verification.Candidate[]","name":"","type":"tuple[]"}],"stateMutability":"view","type":"function"},{"inputs":[],"name":"getCompanyIdOfSender","outputs":[{"internalType":"uint256","name":"","type":"uint256"}],"stateMutability":"view","type":"function"},{"inputs":[{"internalType":"uint256","name":"_candidateId","type":"uint256"}],"name":"getDocuments","outputs":[{"components":[{"internalType":"uint256","name":"date","type":"uint256"},{"internalType":"string","name":"name","type":"string"},{"internalType":"uint256","name":"id","type":"uint256"},{"internalType":"string","name":"cid","type":"string"},{"internalType":"string","name":"typeOfDocument","type":"string"},{"internalType":"string","name":"expirationDate","type":"string"},{"internalType":"bool","name":"isVerified","type":"bool"},{"internalType":"bool","name":"isCancelled","type":"bool"},{"internalType":"uint256","name":"candidateId","type":"uint256"}],"internalType":"struct Verification.Document[]","name":"","type":"tuple[]"}],"stateMutability":"view","type":"function"},{"inputs":[{"internalType":"uint256","name":"_candidateId","type":"uint256"}],"name":"getDocumentsByCandidate","outputs":[{"components":[{"internalType":"uint256","name":"date","type":"uint256"},{"internalType":"string","name":"name","type":"string"},{"internalType":"uint256","name":"id","type":"uint256"},{"internalType":"string","name":"cid","type":"string"},{"internalType":"string","name":"typeOfDocument","type":"string"},{"internalType":"string","name":"expirationDate","type":"string"},{"internalType":"bool","name":"isVerified","type":"bool"},{"internalType":"bool","name":"isCancelled","type":"bool"},{"internalType":"uint256","name":"candidateId","type":"uint256"}],"internalType":"struct Verification.Document[]","name":"","type":"tuple[]"}],"stateMutability":"view","type":"function"},{"inputs":[],"name":"getOwner","outputs":[{"internalType":"address","name":"","type":"address"}],"stateMutability":"view","type":"function"},{"inputs":[],"name":"getVerifiers","outputs":[{"internalType":"address[]","name":"","type":"address[]"}],"stateMutability":"view","type":"function"},{"inputs":[],"name":"maxVerifiers","outputs":[{"internalType":"uint256","name":"","type":"uint256"}],"stateMutability":"view","type":"function"},{"inputs":[],"name":"owner","outputs":[{"internalType":"address","name":"","type":"address"}],"stateMutability":"view","type":"function"},{"inputs":[{"internalType":"uint256[]","name":"_ids","type":"uint256[]"}],"name":"removeCandidates","outputs":[],"stateMutability":"nonpayable","type":"function"},{"inputs":[{"internalType":"uint256[]","name":"_ids","type":"uint256[]"}],"name":"removeCompanies","outputs":[],"stateMutability":"nonpayable","type":"function"},{"inputs":[{"internalType":"uint256[]","name":"_candidateIds","type":"uint256[]"},{"internalType":"uint256[]","name":"_documentIds","type":"uint256[]"}],"name":"removeDocuments","outputs":[],"stateMutability":"nonpayable","type":"function"},{"inputs":[],"name":"renounceOwnership","outputs":[],"stateMutability":"nonpayable","type":"function"},{"inputs":[{"internalType":"address[]","name":"_oldVerifiers","type":"address[]"},{"internalType":"address[]","name":"_newVerifiers","type":"address[]"}],"name":"replaceVerifiers","outputs":[],"stateMutability":"nonpayable","type":"function"},{"inputs":[{"internalType":"uint256","name":"_maxVerifiers","type":"uint256"}],"name":"setMaxVerifiers","outputs":[],"stateMutability":"nonpayable","type":"function"},{"inputs":[{"internalType":"address","name":"newOwner","type":"address"}],"name":"transferOwnership","outputs":[],"stateMutability":"nonpayable","type":"function"},{"inputs":[{"internalType":"uint256","name":"","type":"uint256"}],"name":"verifiers","outputs":[{"internalType":"address","name":"","type":"address"}],"stateMutability":"view","type":"function"},{"inputs":[{"internalType":"uint256","name":"_documentId","type":"uint256"},{"internalType":"bool","name":"_isCancelled","type":"bool"}],"name":"verifyDocument","outputs":[],"stateMutability":"nonpayable","type":"function"}],"evm":{"bytecode":{"linkReferences":{},"object":"6080604052600a6002553480156200001657600080fd5b50620000223362000028565b62000078565b600080546001600160a01b038381166001600160a01b0319831681178455604051919092169283917f8be0079c531659141344cd1fd0a4f28419497f9722a3daafe3b4186f6b6457e09190a35050565b61492880620000886000396000f3fe608060405234801561001057600080fd5b50600436106101cf5760003560e01c80637fbc12af11610104578063b4d7e8df116100a2578063c2ed2b0511610071578063c2ed2b0514610434578063eed183181461045c578063f2fde38b1461046f578063fc7435e11461048257600080fd5b8063b4d7e8df146103e6578063b5344257146103fb578063bb3096aa1461040e578063bfbbf5091461042157600080fd5b806399e37a55116100de57806399e37a551461038b578063a2576089146103ab578063a935e766146103be578063ac1eff68146103d357600080fd5b80637fbc12af14610342578063893d20e8146103555780638da5cb5b1461037a57600080fd5b806335b8e820116101715780636dd080471161014b5780636dd08047146102e35780636eb3b4e914610311578063715018a61461033157806378bda7501461033957600080fd5b806335b8e820146102995780634dc95895146102bd5780635990ce80146102d057600080fd5b806324e96df6116101ad57806324e96df61461020f5780632813d19d146102225780633477ee2e1461025257806335af97421461027957600080fd5b8063187c1ebe146101d45780631a203a31146101e95780631e32f407146101fc575b600080fd5b6101e76101e2366004613baf565b610495565b005b6101e76101f7366004613ca3565b6107ea565b6101e761020a366004613d2a565b6109d1565b6101e761021d366004613dfb565b610cf7565b610235610230366004613e30565b610f3b565b604051610249989796959493929190613e8f565b60405180910390f35b610265610260366004613e30565b611242565b604051610249989796959493929190613f1f565b61028c610287366004613e30565b611325565b6040516102499190613fa7565b6102ac6102a7366004613e30565b611819565b6040516102499594939291906140bb565b6101e76102cb36600461411a565b611af9565b6101e76102de36600461417d565b611de9565b6103036102f13660046141b9565b60036020526000908152604090205481565b604051908152602001610249565b61032461031f366004613e30565b611fd2565b60405161024991906141db565b6101e7612411565b61030360025481565b6101e76103503660046142ca565b612425565b6000546001600160a01b03165b6040516001600160a01b039091168152602001610249565b6000546001600160a01b0316610362565b6103036103993660046141b9565b60046020526000908152604090205481565b6103246103b9366004613e30565b612882565b6103c6612cc3565b6040516102499190614349565b6103626103e1366004613e30565b612d25565b33600090815260036020526040902054610303565b6101e7610409366004614396565b612d4f565b6101e761041c3660046143ca565b612f0f565b6101e761042f366004614423565b61308a565b610447610442366004613e30565b6132a8565b604051610249999897969594939291906144cc565b6101e761046a36600461417d565b613529565b6101e761047d3660046141b9565b6136bb565b6101e7610490366004613e30565b613734565b61049d6137a4565b806104b257506000546001600160a01b031633145b6104d75760405162461bcd60e51b81526004016104ce9061454b565b60405180910390fd5b845186511480156104e9575083518651145b80156104f6575082518651145b8015610503575081518651145b8015610510575080518651145b61052c5760405162461bcd60e51b81526004016104ce90614582565b60005b86518110156107e157600087828151811061054c5761054c6145b9565b60200260200101519050600087838151811061056a5761056a6145b9565b602002602001015190506000878481518110610588576105886145b9565b6020026020010151905060008785815181106105a6576105a66145b9565b6020026020010151905060008786815181106105c4576105c46145b9565b6020026020010151905060008787815181106105e2576105e26145b9565b602002602001015190506000600580549050600161060091906145e5565b90506005604051806101200160405280428152602001896001600160a01b0316815260200188815260200183815260200160006001600160401b0381111561064a5761064a6139ca565b604051908082528060200260200182016040528015610673578160200160208202803683370190505b5081526020808201899052604080830189905260608301889052608090920186905283546001808201865560009586529482902084516009909202019081559083015193810180546001600160a01b0319166001600160a01b039095169490941790935581015190919060028201906106ec908261467e565b5060608201516003820155608082015180516107129160048401916020909101906138c2565b5060a08201516005820190610727908261467e565b5060c0820151600682019061073c908261467e565b5060e08201516007820190610751908261467e565b506101008201516008820190610767908261467e565b5050506001600160a01b038716600081815260036020526040908190208390555182907f471c9ccf46d064e5e94779f1db07ba06345ec7fabeffc2b89995df5fd62a84da906107bf908a908a908a908a908a9061473d565b60405180910390a35050505050505080806107d990614776565b91505061052f565b50505050505050565b336000908152600360205260409020546108165760405162461bcd60e51b81526004016104ce9061478f565b60068281548110610829576108296145b9565b90600052602060002090600902016005015460000361085a5760405162461bcd60e51b81526004016104ce906147be565b60006001600160a01b031660068381548110610878576108786145b9565b60009182526020909120600260099092020101546001600160a01b03161461095557336001600160a01b0316600683815481106108b7576108b76145b9565b60009182526020909120600260099092020101546001600160a01b0316146109555760405162461bcd60e51b8152602060048201526044602482018190527f596f7520646f206e6f742068617665207065726d697373696f6e20746f206564908201527f69742063757272656e74436f6d70616e7920666f7220746869732063616e64696064820152636461746560e01b608482015260a4016104ce565b8060068381548110610969576109696145b9565b60009182526020918290206009919091020160020180546001600160a01b0319166001600160a01b03938416179055604051918316825283917f1004bf4098083445cd4ac13954fdcea1d9530a61f6f2a7d5a628bea6141eb17c910160405180910390a25050565b336000908152600360205260409020546109fd5760405162461bcd60e51b81526004016104ce9061478f565b83518551148015610a0f575082518551145b610a2b5760405162461bcd60e51b81526004016104ce90614582565b60005b8551811015610cef576000868281518110610a4b57610a4b6145b9565b602002602001015190506000868381518110610a6957610a696145b9565b602002602001015190506000868481518110610a8757610a876145b9565b602002602001015190506000868581518110610aa557610aa56145b9565b602002602001015190506000868681518110610ac357610ac36145b9565b6020026020010151905060068381548110610ae057610ae06145b9565b906000526020600020906009020160050154600003610b115760405162461bcd60e51b81526004016104ce906147be565b600754600090610b229060016145e5565b604080516101208101825242815260208101898152918101839052606081018890526080810186905260a08101859052600060c0820181905260e082018190526101008201889052600780546001810182559152815160089091027fa66cc928b5edb82af9bd49922954155ab7b0942694bea4ce44661d9a8736c68881019182559251939450909290917fa66cc928b5edb82af9bd49922954155ab7b0942694bea4ce44661d9a8736c6890190610bd9908261467e565b506040820151600282015560608201516003820190610bf8908261467e565b5060808201516004820190610c0d908261467e565b5060a08201516005820190610c22908261467e565b5060c08201516006828101805460e086015161ffff1990911693151561ff001916939093176101009315158402179055920151600790910155805485908110610c6d57610c6d6145b9565b60009182526020808320600460099093020191909101805460018101825590835291200181905560405181907fdf3f376d0902d940a4e067b169121175e19dffa31960867f2ce6943bc6cb5abb90610cce9089908990899089908990614804565b60405180910390a25050505050508080610ce790614776565b915050610a2e565b505050505050565b610cff6137a4565b610d445760405162461bcd60e51b815260206004820152601660248201527513db9b1e481d995c9a599a595c8818d85b8818d85b1b60521b60448201526064016104ce565b600754821115610d8c5760405162461bcd60e51b8152602060048201526013602482015272125b9d985b1a5908191bd8dd5b595b9d081251606a1b60448201526064016104ce565b6000610d99600184614843565b9050600060078281548110610db057610db06145b9565b906000526020600020906008020190508060020154600003610e225760405162461bcd60e51b815260206004820152602560248201527f446f63756d656e74207769746820676976656e20494420646f6573206e6f7420604482015264195e1a5cdd60da1b60648201526084016104ce565b600681015460ff16158015610e4157506006810154610100900460ff16155b610eb35760405162461bcd60e51b815260206004820152603760248201527f446f63756d656e74207769746820676976656e20494420697320616c7265616460448201527f79207665726966696564206f722063616e63656c6c656400000000000000000060648201526084016104ce565b8215610efa5760068101805461ff00191661010017905560405184907f7b4845702fcfeef348208aa5c3ef0909d12e56c50c288cdba03c5462cfd921b590600090a2610f35565b60068101805460ff1916600117905560405184907f4b93fd5160fbc8b35d08aff650902cf41c86e6df325a3eabab5bcca811976cf790600090a25b50505050565b60058181548110610f4b57600080fd5b60009182526020909120600990910201805460018201546002830180549294506001600160a01b039091169291610f81906145fe565b80601f0160208091040260200160405190810160405280929190818152602001828054610fad906145fe565b8015610ffa5780601f10610fcf57610100808354040283529160200191610ffa565b820191906000526020600020905b815481529060010190602001808311610fdd57829003601f168201915b505050505090806003015490806005018054611015906145fe565b80601f0160208091040260200160405190810160405280929190818152602001828054611041906145fe565b801561108e5780601f106110635761010080835404028352916020019161108e565b820191906000526020600020905b81548152906001019060200180831161107157829003601f168201915b5050505050908060060180546110a3906145fe565b80601f01602080910402602001604051908101604052809291908181526020018280546110cf906145fe565b801561111c5780601f106110f15761010080835404028352916020019161111c565b820191906000526020600020905b8154815290600101906020018083116110ff57829003601f168201915b505050505090806007018054611131906145fe565b80601f016020809104026020016040519081016040528092919081815260200182805461115d906145fe565b80156111aa5780601f1061117f576101008083540402835291602001916111aa565b820191906000526020600020905b81548152906001019060200180831161118d57829003601f168201915b5050505050908060080180546111bf906145fe565b80601f01602080910402602001604051908101604052809291908181526020018280546111eb906145fe565b80156112385780601f1061120d57610100808354040283529160200191611238565b820191906000526020600020905b81548152906001019060200180831161121b57829003601f168201915b5050505050905088565b6006818154811061125257600080fd5b600091825260209091206009909102018054600182015460028301546003840180549395506001600160a01b03928316949290911692611291906145fe565b80601f01602080910402602001604051908101604052809291908181526020018280546112bd906145fe565b801561130a5780601f106112df5761010080835404028352916020019161130a565b820191906000526020600020905b8154815290600101906020018083116112ed57829003601f168201915b5050505050908060050154908060060180546110a3906145fe565b60055460609082111561136f5760405162461bcd60e51b8152602060048201526012602482015271125b9d985b1a590818dbdb5c185b9e48125160721b60448201526064016104ce565b600061137c600184614843565b9050600060058281548110611393576113936145b9565b90600052602060002090600902016004018054806020026020016040519081016040528092919081815260200182805480156113ee57602002820191906000526020600020905b8154815260200190600101908083116113da575b50505050509050600081516001600160401b03811115611410576114106139ca565b6040519080825280602002602001820160405280156114a257816020015b61148f6040518061012001604052806000815260200160006001600160a01b0316815260200160006001600160a01b031681526020016060815260200160608152602001600081526020016060815260200160608152602001606081525090565b81526020019060019003908161142e5790505b50905060005b825181101561181057600660018483815181106114c7576114c76145b9565b60200260200101516114d99190614843565b815481106114e9576114e96145b9565b6000918252602091829020604080516101208101825260099093029091018054835260018101546001600160a01b0390811694840194909452600281015490931690820152600382018054919291606084019190611546906145fe565b80601f0160208091040260200160405190810160405280929190818152602001828054611572906145fe565b80156115bf5780601f10611594576101008083540402835291602001916115bf565b820191906000526020600020905b8154815290600101906020018083116115a257829003601f168201915b505050505081526020016004820180548060200260200160405190810160405280929190818152602001828054801561161757602002820191906000526020600020905b815481526020019060010190808311611603575b505050505081526020016005820154815260200160068201805461163a906145fe565b80601f0160208091040260200160405190810160405280929190818152602001828054611666906145fe565b80156116b35780601f10611688576101008083540402835291602001916116b3565b820191906000526020600020905b81548152906001019060200180831161169657829003601f168201915b505050505081526020016007820180546116cc906145fe565b80601f01602080910402602001604051908101604052809291908181526020018280546116f8906145fe565b80156117455780601f1061171a57610100808354040283529160200191611745565b820191906000526020600020905b81548152906001019060200180831161172857829003601f168201915b5050505050815260200160088201805461175e906145fe565b80601f016020809104026020016040519081016040528092919081815260200182805461178a906145fe565b80156117d75780601f106117ac576101008083540402835291602001916117d7565b820191906000526020600020905b8154815290600101906020018083116117ba57829003601f168201915b5050505050815250508282815181106117f2576117f26145b9565b6020026020010181905250808061180890614776565b9150506114a8565b50949350505050565b6060600060608060606006805490508611156118475760405162461bcd60e51b81526004016104ce90614856565b6000611854600188614843565b905060006006828154811061186b5761186b6145b9565b90600052602060002090600902019050806005015460000361189f5760405162461bcd60e51b81526004016104ce906147be565b8060030181600501548260060183600701846008018480546118c0906145fe565b80601f01602080910402602001604051908101604052809291908181526020018280546118ec906145fe565b80156119395780601f1061190e57610100808354040283529160200191611939565b820191906000526020600020905b81548152906001019060200180831161191c57829003601f168201915b5050505050945082805461194c906145fe565b80601f0160208091040260200160405190810160405280929190818152602001828054611978906145fe565b80156119c55780601f1061199a576101008083540402835291602001916119c5565b820191906000526020600020905b8154815290600101906020018083116119a857829003601f168201915b505050505092508180546119d8906145fe565b80601f0160208091040260200160405190810160405280929190818152602001828054611a04906145fe565b8015611a515780601f10611a2657610100808354040283529160200191611a51565b820191906000526020600020905b815481529060010190602001808311611a3457829003601f168201915b50505050509150808054611a64906145fe565b80601f0160208091040260200160405190810160405280929190818152602001828054611a90906145fe565b8015611add5780601f10611ab257610100808354040283529160200191611add565b820191906000526020600020905b815481529060010190602001808311611ac057829003601f168201915b5050505050905096509650965096509650505091939590929450565b611b016137af565b8051825114611b225760405162461bcd60e51b81526004016104ce90614582565b60005b8251811015611de4576000838281518110611b4257611b426145b9565b602002602001015190506000838381518110611b6057611b606145b9565b6020026020010151905060006001600160a01b0316826001600160a01b031603611bbe5760405162461bcd60e51b815260206004820152600f60248201526e496e76616c6964206164647265737360881b60448201526064016104ce565b6001600160a01b038116611d0d5760005b600154811015611d0757826001600160a01b031660018281548110611bf657611bf66145b9565b6000918252602090912001546001600160a01b031603611cf55760018054611c1f908290614843565b81548110611c2f57611c2f6145b9565b600091825260209091200154600180546001600160a01b039092169183908110611c5b57611c5b6145b9565b9060005260206000200160006101000a8154816001600160a01b0302191690836001600160a01b031602179055506001805480611c9a57611c9a614884565b600082815260208120820160001990810180546001600160a01b03191690559091019091556040516001600160a01b038516917f44a3cd4eb5cc5748f6169df057b1cb2ae4c383e87cd94663c430e095d4cba42491a2611d07565b80611cff81614776565b915050611bcf565b50611dcf565b60005b600154811015611dcd57826001600160a01b031660018281548110611d3757611d376145b9565b6000918252602090912001546001600160a01b031603611dbb578160018281548110611d6557611d656145b9565b6000918252602082200180546001600160a01b0319166001600160a01b03938416179055604051848316928616917f50d741fe04ad9863c69d1406658f6ec7c4f5e48ec2faf966a36a3e47fc05c9d991a3611dcd565b80611dc581614776565b915050611d10565b505b50508080611ddc90614776565b915050611b25565b505050565b611df16137a4565b80611e0657506000546001600160a01b031633145b611e225760405162461bcd60e51b81526004016104ce9061454b565b6000815111611e735760405162461bcd60e51b815260206004820152601760248201527f4e6f20636f6d70616e79204944732070726f766964656400000000000000000060448201526064016104ce565b60005b8151811015611fce576000828281518110611e9357611e936145b9565b60200260200101519050600580549050811115611ee75760405162461bcd60e51b8152602060048201526012602482015271125b9d985b1a590818dbdb5c185b9e48125160721b60448201526064016104ce565b6000611ef4600183614843565b60405190915082907f028fe2791b514c47642f0d652f7c237752aea1929ed16396ef24b45eb7e2b31590600090a260058181548110611f3557611f356145b9565b6000918252602082206009909102018181556001810180546001600160a01b031916905590611f67600283018261390d565b6003820160009055600482016000611f7f9190613947565b611f8d60058301600061390d565b611f9b60068301600061390d565b611fa960078301600061390d565b611fb760088301600061390d565b505050508080611fc690614776565b915050611e76565b5050565b600654606090821115611ff75760405162461bcd60e51b81526004016104ce90614856565b6000612004600184614843565b905060006006828154811061201b5761201b6145b9565b90600052602060002090600902019050806005015460000361204f5760405162461bcd60e51b81526004016104ce906147be565b60008160040180548060200260200160405190810160405280929190818152602001828054801561209f57602002820191906000526020600020905b81548152602001906001019080831161208b575b50505050509050600081516001600160401b038111156120c1576120c16139ca565b6040519080825280602002602001820160405280156120fa57816020015b6120e7613965565b8152602001906001900390816120df5790505b50905060005b825181101561240757600783828151811061211d5761211d6145b9565b602002602001015181548110612135576121356145b9565b90600052602060002090600802016040518061012001604052908160008201548152602001600182018054612169906145fe565b80601f0160208091040260200160405190810160405280929190818152602001828054612195906145fe565b80156121e25780601f106121b7576101008083540402835291602001916121e2565b820191906000526020600020905b8154815290600101906020018083116121c557829003601f168201915b5050505050815260200160028201548152602001600382018054612205906145fe565b80601f0160208091040260200160405190810160405280929190818152602001828054612231906145fe565b801561227e5780601f106122535761010080835404028352916020019161227e565b820191906000526020600020905b81548152906001019060200180831161226157829003601f168201915b50505050508152602001600482018054612297906145fe565b80601f01602080910402602001604051908101604052809291908181526020018280546122c3906145fe565b80156123105780601f106122e557610100808354040283529160200191612310565b820191906000526020600020905b8154815290600101906020018083116122f357829003601f168201915b50505050508152602001600582018054612329906145fe565b80601f0160208091040260200160405190810160405280929190818152602001828054612355906145fe565b80156123a25780601f10612377576101008083540402835291602001916123a2565b820191906000526020600020905b81548152906001019060200180831161238557829003601f168201915b5050509183525050600682015460ff80821615156020840152610100909104161515604082015260079091015460609091015282518390839081106123e9576123e96145b9565b602002602001018190525080806123ff90614776565b915050612100565b5095945050505050565b6124196137af565b6124236000613809565b565b336000908152600360205260409020546124515760405162461bcd60e51b81526004016104ce9061478f565b83518551146124725760405162461bcd60e51b81526004016104ce90614582565b60005b8551811015610cef576000868281518110612492576124926145b9565b6020026020010151905060008683815181106124b0576124b06145b9565b6020026020010151905060008684815181106124ce576124ce6145b9565b6020026020010151905060008685815181106124ec576124ec6145b9565b60200260200101519050600086868151811061250a5761250a6145b9565b6020026020010151905060046000866001600160a01b03166001600160a01b03168152602001908152602001600020546000146125a15760405162461bcd60e51b815260206004820152602f60248201527f43616e64696461746520776974682074686520676976656e206164647265737360448201526e20616c72656164792065786973747360881b60648201526084016104ce565b6001600160a01b0385166125f05760405162461bcd60e51b8152602060048201526016602482015275416464726573732063616e6e6f74206265207a65726f60501b60448201526064016104ce565b60008451116126385760405162461bcd60e51b81526020600482015260146024820152734e616d652063616e6e6f7420626520656d70747960601b60448201526064016104ce565b6006546000906126499060016145e5565b90506006604051806101200160405280428152602001886001600160a01b03168152602001336001600160a01b0316815260200187815260200160006001600160401b0381111561269c5761269c6139ca565b6040519080825280602002602001820160405280156126c5578160200160208202803683370190505b508152602080820185905260408083018990526060808401899052608090930187905284546001818101875560009687529583902085516009909202019081559184015194820180546001600160a01b039687166001600160a01b03199182161790915590840151600283018054919096169116179093558101519091906003820190612752908261467e565b506080820151805161276e9160048401916020909101906138c2565b5060a0820151600582015560c0820151600682019061278d908261467e565b5060e082015160078201906127a2908261467e565b5061010082015160088201906127b8908261467e565b505033600090815260036020526040902054600591506127da90600190614843565b815481106127ea576127ea6145b9565b60009182526020808320600460099093020182018054600181018255908452818420018490556001600160a01b0389168352526040908190208290555181907f1908f3f8bf9e04cbee388cdea6025f92e954127dec768c7e092afb158071f0d09061285c90889088908890889061489a565b60405180910390a2505050505050808061287590614776565b915050612475565b905090565b6006546060908211156128a75760405162461bcd60e51b81526004016104ce90614856565b60006128b4600184614843565b90506000600682815481106128cb576128cb6145b9565b9060005260206000209060090201905080600501546000036128ff5760405162461bcd60e51b81526004016104ce906147be565b60008160040180548060200260200160405190810160405280929190818152602001828054801561294f57602002820191906000526020600020905b81548152602001906001019080831161293b575b50505050509050600081516001600160401b03811115612971576129716139ca565b6040519080825280602002602001820160405280156129aa57816020015b612997613965565b81526020019060019003908161298f5790505b50905060005b825181101561240757600760018483815181106129cf576129cf6145b9565b60200260200101516129e19190614843565b815481106129f1576129f16145b9565b90600052602060002090600802016040518061012001604052908160008201548152602001600182018054612a25906145fe565b80601f0160208091040260200160405190810160405280929190818152602001828054612a51906145fe565b8015612a9e5780601f10612a7357610100808354040283529160200191612a9e565b820191906000526020600020905b815481529060010190602001808311612a8157829003601f168201915b5050505050815260200160028201548152602001600382018054612ac1906145fe565b80601f0160208091040260200160405190810160405280929190818152602001828054612aed906145fe565b8015612b3a5780601f10612b0f57610100808354040283529160200191612b3a565b820191906000526020600020905b815481529060010190602001808311612b1d57829003601f168201915b50505050508152602001600482018054612b53906145fe565b80601f0160208091040260200160405190810160405280929190818152602001828054612b7f906145fe565b8015612bcc5780601f10612ba157610100808354040283529160200191612bcc565b820191906000526020600020905b815481529060010190602001808311612baf57829003601f168201915b50505050508152602001600582018054612be5906145fe565b80601f0160208091040260200160405190810160405280929190818152602001828054612c11906145fe565b8015612c5e5780601f10612c3357610100808354040283529160200191612c5e565b820191906000526020600020905b815481529060010190602001808311612c4157829003601f168201915b5050509183525050600682015460ff8082161515602084015261010090910416151560408201526007909101546060909101528251839083908110612ca557612ca56145b9565b60200260200101819052508080612cbb90614776565b9150506129b0565b60606001805480602002602001604051908101604052809291908181526020018280548015612d1b57602002820191906000526020600020905b81546001600160a01b03168152600190910190602001808311612cfd575b5050505050905090565b60018181548110612d3557600080fd5b6000918252602090912001546001600160a01b0316905081565b612d576137af565b6000815111612d9e5760405162461bcd60e51b8152602060048201526013602482015272139bc81d995c9a599a595c9cc81d1bc8185919606a1b60448201526064016104ce565b6002548151600154612db091906145e5565b1115612e0a5760405162461bcd60e51b815260206004820152602360248201527f45786365656473206d6178696d756d206e756d626572206f662076657269666960448201526265727360e81b60648201526084016104ce565b60005b8151811015611fce576000828281518110612e2a57612e2a6145b9565b6020026020010151905060006001600160a01b0316816001600160a01b031603612e885760405162461bcd60e51b815260206004820152600f60248201526e496e76616c6964206164647265737360881b60448201526064016104ce565b60018054808201825560009182527fb10e2d527612073b26eecdfd717e6a320cf44b4afac2b0732d9fcbe2b7fa0cf60180546001600160a01b0319166001600160a01b03841690811790915560405190917f6d05492139c5ea989514a5d2150c028041e5c087e2a39967f67dc7d2655adb8191a25080612f0781614776565b915050612e0d565b33600090815260036020526040902054612f3b5760405162461bcd60e51b81526004016104ce9061478f565b8051825114612f5c5760405162461bcd60e51b81526004016104ce90614582565b60005b8251811015611de4576000838281518110612f7c57612f7c6145b9565b602002602001015190506000838381518110612f9a57612f9a6145b9565b6020026020010151905060068281548110612fb757612fb76145b9565b906000526020600020906009020160050154600003612fe85760405162461bcd60e51b81526004016104ce906147be565b6000612ff5600183614843565b60408051848152602081018690529192507f61656cb8d1dc6013bb7713ae498059b6f4df3c60e832e655a6765c0c54863008910160405180910390a160068381548110613044576130446145b9565b90600052602060002090600902016004018181548110613066576130666145b9565b9060005260206000200160009055505050808061308290614776565b915050612f5f565b336000908152600360205260409020546130b65760405162461bcd60e51b81526004016104ce9061478f565b600685815481106130c9576130c96145b9565b9060005260206000209060090201600501546000036130fa5760405162461bcd60e51b81526004016104ce906147be565b336001600160a01b031660068681548110613117576131176145b9565b60009182526020909120600260099092020101546001600160a01b03161461319b5760405162461bcd60e51b815260206004820152603160248201527f596f7520646f206e6f742068617665207065726d697373696f6e20746f206564604482015270697420746869732063616e64696461746560781b60648201526084016104ce565b83600686815481106131af576131af6145b9565b906000526020600020906009020160030190816131cc919061467e565b5082600686815481106131e1576131e16145b9565b906000526020600020906009020160060190816131fe919061467e565b508160068681548110613213576132136145b9565b90600052602060002090600902016007019081613230919061467e565b508060068681548110613245576132456145b9565b90600052602060002090600902016008019081613262919061467e565b50847f3a644a3850d6352df61b7cd6576765eaafc13f0e881f637864caacdb1ed8905c85858585604051613299949392919061489a565b60405180910390a25050505050565b600781815481106132b857600080fd5b600091825260209091206008909102018054600182018054919350906132dd906145fe565b80601f0160208091040260200160405190810160405280929190818152602001828054613309906145fe565b80156133565780601f1061332b57610100808354040283529160200191613356565b820191906000526020600020905b81548152906001019060200180831161333957829003601f168201915b505050505090806002015490806003018054613371906145fe565b80601f016020809104026020016040519081016040528092919081815260200182805461339d906145fe565b80156133ea5780601f106133bf576101008083540402835291602001916133ea565b820191906000526020600020905b8154815290600101906020018083116133cd57829003601f168201915b5050505050908060040180546133ff906145fe565b80601f016020809104026020016040519081016040528092919081815260200182805461342b906145fe565b80156134785780601f1061344d57610100808354040283529160200191613478565b820191906000526020600020905b81548152906001019060200180831161345b57829003601f168201915b50505050509080600501805461348d906145fe565b80601f01602080910402602001604051908101604052809291908181526020018280546134b9906145fe565b80156135065780601f106134db57610100808354040283529160200191613506565b820191906000526020600020905b8154815290600101906020018083116134e957829003601f168201915b505050506006830154600790930154919260ff8082169361010090920416915089565b6135316137a4565b8061354a57503360009081526003602052604090205415155b6135665760405162461bcd60e51b81526004016104ce9061454b565b60005b8151811015611fce576000828281518110613586576135866145b9565b60200260200101519050600681815481106135a3576135a36145b9565b9060005260206000209060090201600501546000036135d45760405162461bcd60e51b81526004016104ce906147be565b60006135e1600183614843565b60405190915082907f294c5a9bc8a39e6e06502bc8da429980f6c7b0990d75b682c12cb8705e3ace8590600090a260068181548110613622576136226145b9565b6000918252602082206009909102018181556001810180546001600160a01b0319908116909155600282018054909116905590613662600383018261390d565b613670600483016000613947565b6005820160009055600682016000613688919061390d565b61369660078301600061390d565b6136a460088301600061390d565b5050505080806136b390614776565b915050613569565b6136c36137af565b6001600160a01b0381166137285760405162461bcd60e51b815260206004820152602660248201527f4f776e61626c653a206e6577206f776e657220697320746865207a65726f206160448201526564647265737360d01b60648201526084016104ce565b61373181613809565b50565b61373c6137af565b6000811161379f5760405162461bcd60e51b815260206004820152602a60248201527f4d6178696d756d207665726966696572732073686f756c6420626520677265616044820152690746572207468616e20360b41b60648201526084016104ce565b600255565b600061287d33613859565b6000546001600160a01b031633146124235760405162461bcd60e51b815260206004820181905260248201527f4f776e61626c653a2063616c6c6572206973206e6f7420746865206f776e657260448201526064016104ce565b600080546001600160a01b038381166001600160a01b0319831681178455604051919092169283917f8be0079c531659141344cd1fd0a4f28419497f9722a3daafe3b4186f6b6457e09190a35050565b6000805b6001548110156138b957826001600160a01b031660018281548110613884576138846145b9565b6000918252602090912001546001600160a01b0316036138a75750600192915050565b806138b181614776565b91505061385d565b50600092915050565b8280548282559060005260206000209081019282156138fd579160200282015b828111156138fd5782518255916020019190600101906138e2565b506139099291506139b5565b5090565b508054613919906145fe565b6000825580601f10613929575050565b601f01602090049060005260206000209081019061373191906139b5565b508054600082559060005260206000209081019061373191906139b5565b604051806101200160405280600081526020016060815260200160008152602001606081526020016060815260200160608152602001600015158152602001600015158152602001600081525090565b5b8082111561390957600081556001016139b6565b634e487b7160e01b600052604160045260246000fd5b604051601f8201601f191681016001600160401b0381118282101715613a0857613a086139ca565b604052919050565b60006001600160401b03821115613a2957613a296139ca565b5060051b60200190565b80356001600160a01b0381168114613a4a57600080fd5b919050565b600082601f830112613a6057600080fd5b81356020613a75613a7083613a10565b6139e0565b82815260059290921b84018101918181019086841115613a9457600080fd5b8286015b84811015613ab657613aa981613a33565b8352918301918301613a98565b509695505050505050565b600082601f830112613ad257600080fd5b81356001600160401b03811115613aeb57613aeb6139ca565b613afe601f8201601f19166020016139e0565b818152846020838601011115613b1357600080fd5b816020850160208301376000918101602001919091529392505050565b600082601f830112613b4157600080fd5b81356020613b51613a7083613a10565b82815260059290921b84018101918181019086841115613b7057600080fd5b8286015b84811015613ab65780356001600160401b03811115613b935760008081fd5b613ba18986838b0101613ac1565b845250918301918301613b74565b60008060008060008060c08789031215613bc857600080fd5b86356001600160401b0380821115613bdf57600080fd5b613beb8a838b01613a4f565b97506020890135915080821115613c0157600080fd5b613c0d8a838b01613b30565b96506040890135915080821115613c2357600080fd5b613c2f8a838b01613b30565b95506060890135915080821115613c4557600080fd5b613c518a838b01613b30565b94506080890135915080821115613c6757600080fd5b613c738a838b01613b30565b935060a0890135915080821115613c8957600080fd5b50613c9689828a01613b30565b9150509295509295509295565b60008060408385031215613cb657600080fd5b82359150613cc660208401613a33565b90509250929050565b600082601f830112613ce057600080fd5b81356020613cf0613a7083613a10565b82815260059290921b84018101918181019086841115613d0f57600080fd5b8286015b84811015613ab65780358352918301918301613d13565b600080600080600060a08688031215613d4257600080fd5b85356001600160401b0380821115613d5957600080fd5b613d6589838a01613b30565b96506020880135915080821115613d7b57600080fd5b613d8789838a01613b30565b95506040880135915080821115613d9d57600080fd5b613da989838a01613ccf565b94506060880135915080821115613dbf57600080fd5b613dcb89838a01613b30565b93506080880135915080821115613de157600080fd5b50613dee88828901613b30565b9150509295509295909350565b60008060408385031215613e0e57600080fd5b8235915060208301358015158114613e2557600080fd5b809150509250929050565b600060208284031215613e4257600080fd5b5035919050565b6000815180845260005b81811015613e6f57602081850181015186830182015201613e53565b506000602082860101526020601f19601f83011685010191505092915050565b8881526001600160a01b038816602082015261010060408201819052600090613eba8382018a613e49565b90508760608401528281036080840152613ed48188613e49565b905082810360a0840152613ee88187613e49565b905082810360c0840152613efc8186613e49565b905082810360e0840152613f108185613e49565b9b9a5050505050505050505050565b8881526001600160a01b0388811660208301528716604082015261010060608201819052600090613f5283820189613e49565b905086608084015282810360a0840152613ee88187613e49565b600081518084526020808501945080840160005b83811015613f9c57815187529582019590820190600101613f80565b509495945050505050565b60006020808301818452808551808352604092508286019150828160051b87010184880160005b838110156140ad57603f19898403018552815180518452878101516001600160a01b0390811689860152878201511687850152606080820151610120828701819052919061401e83880182613e49565b92505050608080830151868303828801526140398382613f6c565b9250505060a080830151818701525060c0808301518683038288015261405f8382613e49565b9250505060e0808301518683038288015261407a8382613e49565b9250505061010080830151925085820381870152506140998183613e49565b968901969450505090860190600101613fce565b509098975050505050505050565b60a0815260006140ce60a0830188613e49565b86602084015282810360408401526140e68187613e49565b905082810360608401526140fa8186613e49565b9050828103608084015261410e8185613e49565b98975050505050505050565b6000806040838503121561412d57600080fd5b82356001600160401b038082111561414457600080fd5b61415086838701613a4f565b9350602085013591508082111561416657600080fd5b5061417385828601613a4f565b9150509250929050565b60006020828403121561418f57600080fd5b81356001600160401b038111156141a557600080fd5b6141b184828501613ccf565b949350505050565b6000602082840312156141cb57600080fd5b6141d482613a33565b9392505050565b60006020808301818452808551808352604092508286019150828160051b87010184880160005b838110156140ad57603f1989840301855281516101208151855288820151818a87015261423182870182613e49565b9150508782015188860152606080830151868303828801526142538382613e49565b925050506080808301518683038288015261426e8382613e49565b9250505060a080830151868303828801526142898382613e49565b9250505060c0808301516142a08288018215159052565b505060e0828101511515908601526101009182015191909401529386019390860190600101614202565b600080600080600060a086880312156142e257600080fd5b85356001600160401b03808211156142f957600080fd5b61430589838a01613a4f565b9650602088013591508082111561431b57600080fd5b61432789838a01613b30565b9550604088013591508082111561433d57600080fd5b613da989838a01613b30565b6020808252825182820181905260009190848201906040850190845b8181101561438a5783516001600160a01b031683529284019291840191600101614365565b50909695505050505050565b6000602082840312156143a857600080fd5b81356001600160401b038111156143be57600080fd5b6141b184828501613a4f565b600080604083850312156143dd57600080fd5b82356001600160401b03808211156143f457600080fd5b61440086838701613ccf565b9350602085013591508082111561441657600080fd5b5061417385828601613ccf565b600080600080600060a0868803121561443b57600080fd5b8535945060208601356001600160401b038082111561445957600080fd5b61446589838a01613ac1565b9550604088013591508082111561447b57600080fd5b61448789838a01613ac1565b9450606088013591508082111561449d57600080fd5b6144a989838a01613ac1565b935060808801359150808211156144bf57600080fd5b50613dee88828901613ac1565b60006101208b83528060208401526144e68184018c613e49565b90508960408401528281036060840152614500818a613e49565b905082810360808401526145148189613e49565b905082810360a08401526145288188613e49565b95151560c0840152505091151560e0830152610100909101529695505050505050565b6020808252601f908201527f4f6e6c79207665726966696572206f72206f776e65722063616e2063616c6c00604082015260600190565b60208082526018908201527f4d69736d61746368656420696e707574206c656e677468730000000000000000604082015260600190565b634e487b7160e01b600052603260045260246000fd5b634e487b7160e01b600052601160045260246000fd5b808201808211156145f8576145f86145cf565b92915050565b600181811c9082168061461257607f821691505b60208210810361463257634e487b7160e01b600052602260045260246000fd5b50919050565b601f821115611de457600081815260208120601f850160051c8101602086101561465f5750805b601f850160051c820191505b81811015610cef5782815560010161466b565b81516001600160401b03811115614697576146976139ca565b6146ab816146a584546145fe565b84614638565b602080601f8311600181146146e057600084156146c85750858301515b600019600386901b1c1916600185901b178555610cef565b600085815260208120601f198616915b8281101561470f578886015182559484019460019091019084016146f0565b508582101561472d5787850151600019600388901b60f8161c191681555b5050505050600190811b01905550565b60a08152600061475060a0830188613e49565b82810360208401526147628188613e49565b905082810360408401526140e68187613e49565b600060018201614788576147886145cf565b5060010190565b60208082526015908201527413db9b1e4818dbdb5c185b9e4818d85b8818d85b1b605a1b604082015260600190565b60208082526026908201527f43616e646964617465207769746820676976656e20494420646f6573206e6f7460408201526508195e1a5cdd60d21b606082015260800190565b60a08152600061481760a0830188613e49565b82810360208401526148298188613e49565b905085604084015282810360608401526140fa8186613e49565b818103818111156145f8576145f86145cf565b602080825260149082015273125b9d985b1a590818d85b991a59185d1948125160621b604082015260600190565b634e487b7160e01b600052603160045260246000fd5b6080815260006148ad6080830187613e49565b82810360208401526148bf8187613e49565b905082810360408401526148d38186613e49565b905082810360608401526148e78185613e49565b97965050505050505056fea2646970667358221220bfcef68b67bae24645ebe1d11b25d48164250c149f2a460f1eeb42315a37b76064736f6c63430008140033","opcodes":"PUSH1 0x80 PUSH1 0x40 MSTORE PUSH1 0xA PUSH1 0x2 SSTORE CALLVALUE DUP1 ISZERO PUSH3 0x16 JUMPI PUSH1 0x0 DUP1 REVERT JUMPDEST POP PUSH3 0x22 CALLER PUSH3 0x28 JUMP JUMPDEST PUSH3 0x78 JUMP JUMPDEST PUSH1 0x0 DUP1 SLOAD PUSH1 0x1 PUSH1 0x1 PUSH1 0xA0 SHL SUB DUP4 DUP2 AND PUSH1 0x1 PUSH1 0x1 PUSH1 0xA0 SHL SUB NOT DUP4 AND DUP2 OR DUP5 SSTORE PUSH1 0x40 MLOAD SWAP2 SWAP1 SWAP3 AND SWAP3 DUP4 SWAP2 PUSH32 0x8BE0079C531659141344CD1FD0A4F28419497F9722A3DAAFE3B4186F6B6457E0 SWAP2 SWAP1 LOG3 POP POP JUMP JUMPDEST PUSH2 0x4928 DUP1 PUSH3 0x88 PUSH1 0x0 CODECOPY PUSH1 0x0 RETURN INVALID PUSH1 0x80 PUSH1 0x40 MSTORE CALLVALUE DUP1 ISZERO PUSH2 0x10 JUMPI PUSH1 0x0 DUP1 REVERT JUMPDEST POP PUSH1 0x4 CALLDATASIZE LT PUSH2 0x1CF JUMPI PUSH1 0x0 CALLDATALOAD PUSH1 0xE0 SHR DUP1 PUSH4 0x7FBC12AF GT PUSH2 0x104 JUMPI DUP1 PUSH4 0xB4D7E8DF GT PUSH2 0xA2 JUMPI DUP1 PUSH4 0xC2ED2B05 GT PUSH2 0x71 JUMPI DUP1 PUSH4 0xC2ED2B05 EQ PUSH2 0x434 JUMPI DUP1 PUSH4 0xEED18318 EQ PUSH2 0x45C JUMPI DUP1 PUSH4 0xF2FDE38B EQ PUSH2 0x46F JUMPI DUP1 PUSH4 0xFC7435E1 EQ PUSH2 0x482 JUMPI PUSH1 0x0 DUP1 REVERT JUMPDEST DUP1 PUSH4 0xB4D7E8DF EQ PUSH2 0x3E6 JUMPI DUP1 PUSH4 0xB5344257 EQ PUSH2 0x3FB JUMPI DUP1 PUSH4 0xBB3096AA EQ PUSH2 0x40E JUMPI DUP1 PUSH4 0xBFBBF509 EQ PUSH2 0x421 JUMPI PUSH1 0x0 DUP1 REVERT JUMPDEST DUP1 PUSH4 0x99E37A55 GT PUSH2 0xDE JUMPI DUP1 PUSH4 0x99E37A55 EQ PUSH2 0x38B JUMPI DUP1 PUSH4 0xA2576089 EQ PUSH2 0x3AB JUMPI DUP1 PUSH4 0xA935E766 EQ PUSH2 0x3BE JUMPI DUP1 PUSH4 0xAC1EFF68 EQ PUSH2 0x3D3 JUMPI PUSH1 0x0 DUP1 REVERT JUMPDEST DUP1 PUSH4 0x7FBC12AF EQ PUSH2 0x342 JUMPI DUP1 PUSH4 0x893D20E8 EQ PUSH2 0x355 JUMPI DUP1 PUSH4 0x8DA5CB5B EQ PUSH2 0x37A JUMPI PUSH1 0x0 DUP1 REVERT JUMPDEST DUP1 PUSH4 0x35B8E820 GT PUSH2 0x171 JUMPI DUP1 PUSH4 0x6DD08047 GT PUSH2 0x14B JUMPI DUP1 PUSH4 0x6DD08047 EQ PUSH2 0x2E3 JUMPI DUP1 PUSH4 0x6EB3B4E9 EQ PUSH2 0x311 JUMPI DUP1 PUSH4 0x715018A6 EQ PUSH2 0x331 JUMPI DUP1 PUSH4 0x78BDA750 EQ PUSH2 0x339 JUMPI PUSH1 0x0 DUP1 REVERT JUMPDEST DUP1 PUSH4 0x35B8E820 EQ PUSH2 0x299 JUMPI DUP1 PUSH4 0x4DC95895 EQ PUSH2 0x2BD JUMPI DUP1 PUSH4 0x5990CE80 EQ PUSH2 0x2D0 JUMPI PUSH1 0x0 DUP1 REVERT JUMPDEST DUP1 PUSH4 0x24E96DF6 GT PUSH2 0x1AD JUMPI DUP1 PUSH4 0x24E96DF6 EQ PUSH2 0x20F JUMPI DUP1 PUSH4 0x2813D19D EQ PUSH2 0x222 JUMPI DUP1 PUSH4 0x3477EE2E EQ PUSH2 0x252 JUMPI DUP1 PUSH4 0x35AF9742 EQ PUSH2 0x279 JUMPI PUSH1 0x0 DUP1 REVERT JUMPDEST DUP1 PUSH4 0x187C1EBE EQ PUSH2 0x1D4 JUMPI DUP1 PUSH4 0x1A203A31 EQ PUSH2 0x1E9 JUMPI DUP1 PUSH4 0x1E32F407 EQ PUSH2 0x1FC JUMPI JUMPDEST PUSH1 0x0 DUP1 REVERT JUMPDEST PUSH2 0x1E7 PUSH2 0x1E2 CALLDATASIZE PUSH1 0x4 PUSH2 0x3BAF JUMP JUMPDEST PUSH2 0x495 JUMP JUMPDEST STOP JUMPDEST PUSH2 0x1E7 PUSH2 0x1F7 CALLDATASIZE PUSH1 0x4 PUSH2 0x3CA3 JUMP JUMPDEST PUSH2 0x7EA JUMP JUMPDEST PUSH2 0x1E7 PUSH2 0x20A CALLDATASIZE PUSH1 0x4 PUSH2 0x3D2A JUMP JUMPDEST PUSH2 0x9D1 JUMP JUMPDEST PUSH2 0x1E7 PUSH2 0x21D CALLDATASIZE PUSH1 0x4 PUSH2 0x3DFB JUMP JUMPDEST PUSH2 0xCF7 JUMP JUMPDEST PUSH2 0x235 PUSH2 0x230 CALLDATASIZE PUSH1 0x4 PUSH2 0x3E30 JUMP JUMPDEST PUSH2 0xF3B JUMP JUMPDEST PUSH1 0x40 MLOAD PUSH2 0x249 SWAP9 SWAP8 SWAP7 SWAP6 SWAP5 SWAP4 SWAP3 SWAP2 SWAP1 PUSH2 0x3E8F JUMP JUMPDEST PUSH1 0x40 MLOAD DUP1 SWAP2 SUB SWAP1 RETURN JUMPDEST PUSH2 0x265 PUSH2 0x260 CALLDATASIZE PUSH1 0x4 PUSH2 0x3E30 JUMP JUMPDEST PUSH2 0x1242 JUMP JUMPDEST PUSH1 0x40 MLOAD PUSH2 0x249 SWAP9 SWAP8 SWAP7 SWAP6 SWAP5 SWAP4 SWAP3 SWAP2 SWAP1 PUSH2 0x3F1F JUMP JUMPDEST PUSH2 0x28C PUSH2 0x287 CALLDATASIZE PUSH1 0x4 PUSH2 0x3E30 JUMP JUMPDEST PUSH2 0x1325 JUMP JUMPDEST PUSH1 0x40 MLOAD PUSH2 0x249 SWAP2 SWAP1 PUSH2 0x3FA7 JUMP JUMPDEST PUSH2 0x2AC PUSH2 0x2A7 CALLDATASIZE PUSH1 0x4 PUSH2 0x3E30 JUMP JUMPDEST PUSH2 0x1819 JUMP JUMPDEST PUSH1 0x40 MLOAD PUSH2 0x249 SWAP6 SWAP5 SWAP4 SWAP3 SWAP2 SWAP1 PUSH2 0x40BB JUMP JUMPDEST PUSH2 0x1E7 PUSH2 0x2CB CALLDATASIZE PUSH1 0x4 PUSH2 0x411A JUMP JUMPDEST PUSH2 0x1AF9 JUMP JUMPDEST PUSH2 0x1E7 PUSH2 0x2DE CALLDATASIZE PUSH1 0x4 PUSH2 0x417D JUMP JUMPDEST PUSH2 0x1DE9 JUMP JUMPDEST PUSH2 0x303 PUSH2 0x2F1 CALLDATASIZE PUSH1 0x4 PUSH2 0x41B9 JUMP JUMPDEST PUSH1 0x3 PUSH1 0x20 MSTORE PUSH1 0x0 SWAP1 DUP2 MSTORE PUSH1 0x40 SWAP1 KECCAK256 SLOAD DUP2 JUMP JUMPDEST PUSH1 0x40 MLOAD SWAP1 DUP2 MSTORE PUSH1 0x20 ADD PUSH2 0x249 JUMP JUMPDEST PUSH2 0x324 PUSH2 0x31F CALLDATASIZE PUSH1 0x4 PUSH2 0x3E30 JUMP JUMPDEST PUSH2 0x1FD2 JUMP JUMPDEST PUSH1 0x40 MLOAD PUSH2 0x249 SWAP2 SWAP1 PUSH2 0x41DB JUMP JUMPDEST PUSH2 0x1E7 PUSH2 0x2411 JUMP JUMPDEST PUSH2 0x303 PUSH1 0x2 SLOAD DUP2 JUMP JUMPDEST PUSH2 0x1E7 PUSH2 0x350 CALLDATASIZE PUSH1 0x4 PUSH2 0x42CA JUMP JUMPDEST PUSH2 0x2425 JUMP JUMPDEST PUSH1 0x0 SLOAD PUSH1 0x1 PUSH1 0x1 PUSH1 0xA0 SHL SUB AND JUMPDEST PUSH1 0x40 MLOAD PUSH1 0x1 PUSH1 0x1 PUSH1 0xA0 SHL SUB SWAP1 SWAP2 AND DUP2 MSTORE PUSH1 0x20 ADD PUSH2 0x249 JUMP JUMPDEST PUSH1 0x0 SLOAD PUSH1 0x1 PUSH1 0x1 PUSH1 0xA0 SHL SUB AND PUSH2 0x362 JUMP JUMPDEST PUSH2 0x303 PUSH2 0x399 CALLDATASIZE PUSH1 0x4 PUSH2 0x41B9 JUMP JUMPDEST PUSH1 0x4 PUSH1 0x20 MSTORE PUSH1 0x0 SWAP1 DUP2 MSTORE PUSH1 0x40 SWAP1 KECCAK256 SLOAD DUP2 JUMP JUMPDEST PUSH2 0x324 PUSH2 0x3B9 CALLDATASIZE PUSH1 0x4 PUSH2 0x3E30 JUMP JUMPDEST PUSH2 0x2882 JUMP JUMPDEST PUSH2 0x3C6 PUSH2 0x2CC3 JUMP JUMPDEST PUSH1 0x40 MLOAD PUSH2 0x249 SWAP2 SWAP1 PUSH2 0x4349 JUMP JUMPDEST PUSH2 0x362 PUSH2 0x3E1 CALLDATASIZE PUSH1 0x4 PUSH2 0x3E30 JUMP JUMPDEST PUSH2 0x2D25 JUMP JUMPDEST CALLER PUSH1 0x0 SWAP1 DUP2 MSTORE PUSH1 0x3 PUSH1 0x20 MSTORE PUSH1 0x40 SWAP1 KECCAK256 SLOAD PUSH2 0x303 JUMP JUMPDEST PUSH2 0x1E7 PUSH2 0x409 CALLDATASIZE PUSH1 0x4 PUSH2 0x4396 JUMP JUMPDEST PUSH2 0x2D4F JUMP JUMPDEST PUSH2 0x1E7 PUSH2 0x41C CALLDATASIZE PUSH1 0x4 PUSH2 0x43CA JUMP JUMPDEST PUSH2 0x2F0F JUMP JUMPDEST PUSH2 0x1E7 PUSH2 0x42F CALLDATASIZE PUSH1 0x4 PUSH2 0x4423 JUMP JUMPDEST PUSH2 0x308A JUMP JUMPDEST PUSH2 0x447 PUSH2 0x442 CALLDATASIZE PUSH1 0x4 PUSH2 0x3E30 JUMP JUMPDEST PUSH2 0x32A8 JUMP JUMPDEST PUSH1 0x40 MLOAD PUSH2 0x249 SWAP10 SWAP9 SWAP8 SWAP7 SWAP6 SWAP5 SWAP4 SWAP3 SWAP2 SWAP1 PUSH2 0x44CC JUMP JUMPDEST PUSH2 0x1E7 PUSH2 0x46A CALLDATASIZE PUSH1 0x4 PUSH2 0x417D JUMP JUMPDEST PUSH2 0x3529 JUMP JUMPDEST PUSH2 0x1E7 PUSH2 0x47D CALLDATASIZE PUSH1 0x4 PUSH2 0x41B9 JUMP JUMPDEST PUSH2 0x36BB JUMP JUMPDEST PUSH2 0x1E7 PUSH2 0x490 CALLDATASIZE PUSH1 0x4 PUSH2 0x3E30 JUMP JUMPDEST PUSH2 0x3734 JUMP JUMPDEST PUSH2 0x49D PUSH2 0x37A4 JUMP JUMPDEST DUP1 PUSH2 0x4B2 JUMPI POP PUSH1 0x0 SLOAD PUSH1 0x1 PUSH1 0x1 PUSH1 0xA0 SHL SUB AND CALLER EQ JUMPDEST PUSH2 0x4D7 JUMPI PUSH1 0x40 MLOAD PUSH3 0x461BCD PUSH1 0xE5 SHL DUP2 MSTORE PUSH1 0x4 ADD PUSH2 0x4CE SWAP1 PUSH2 0x454B JUMP JUMPDEST PUSH1 0x40 MLOAD DUP1 SWAP2 SUB SWAP1 REVERT JUMPDEST DUP5 MLOAD DUP7 MLOAD EQ DUP1 ISZERO PUSH2 0x4E9 JUMPI POP DUP4 MLOAD DUP7 MLOAD EQ JUMPDEST DUP1 ISZERO PUSH2 0x4F6 JUMPI POP DUP3 MLOAD DUP7 MLOAD EQ JUMPDEST DUP1 ISZERO PUSH2 0x503 JUMPI POP DUP2 MLOAD DUP7 MLOAD EQ JUMPDEST DUP1 ISZERO PUSH2 0x510 JUMPI POP DUP1 MLOAD DUP7 MLOAD EQ JUMPDEST PUSH2 0x52C JUMPI PUSH1 0x40 MLOAD PUSH3 0x461BCD PUSH1 0xE5 SHL DUP2 MSTORE PUSH1 0x4 ADD PUSH2 0x4CE SWAP1 PUSH2 0x4582 JUMP JUMPDEST PUSH1 0x0 JUMPDEST DUP7 MLOAD DUP2 LT ISZERO PUSH2 0x7E1 JUMPI PUSH1 0x0 DUP8 DUP3 DUP2 MLOAD DUP2 LT PUSH2 0x54C JUMPI PUSH2 0x54C PUSH2 0x45B9 JUMP JUMPDEST PUSH1 0x20 MUL PUSH1 0x20 ADD ADD MLOAD SWAP1 POP PUSH1 0x0 DUP8 DUP4 DUP2 MLOAD DUP2 LT PUSH2 0x56A JUMPI PUSH2 0x56A PUSH2 0x45B9 JUMP JUMPDEST PUSH1 0x20 MUL PUSH1 0x20 ADD ADD MLOAD SWAP1 POP PUSH1 0x0 DUP8 DUP5 DUP2 MLOAD DUP2 LT PUSH2 0x588 JUMPI PUSH2 0x588 PUSH2 0x45B9 JUMP JUMPDEST PUSH1 0x20 MUL PUSH1 0x20 ADD ADD MLOAD SWAP1 POP PUSH1 0x0 DUP8 DUP6 DUP2 MLOAD DUP2 LT PUSH2 0x5A6 JUMPI PUSH2 0x5A6 PUSH2 0x45B9 JUMP JUMPDEST PUSH1 0x20 MUL PUSH1 0x20 ADD ADD MLOAD SWAP1 POP PUSH1 0x0 DUP8 DUP7 DUP2 MLOAD DUP2 LT PUSH2 0x5C4 JUMPI PUSH2 0x5C4 PUSH2 0x45B9 JUMP JUMPDEST PUSH1 0x20 MUL PUSH1 0x20 ADD ADD MLOAD SWAP1 POP PUSH1 0x0 DUP8 DUP8 DUP2 MLOAD DUP2 LT PUSH2 0x5E2 JUMPI PUSH2 0x5E2 PUSH2 0x45B9 JUMP JUMPDEST PUSH1 0x20 MUL PUSH1 0x20 ADD ADD MLOAD SWAP1 POP PUSH1 0x0 PUSH1 0x5 DUP1 SLOAD SWAP1 POP PUSH1 0x1 PUSH2 0x600 SWAP2 SWAP1 PUSH2 0x45E5 JUMP JUMPDEST SWAP1 POP PUSH1 0x5 PUSH1 0x40 MLOAD DUP1 PUSH2 0x120 ADD PUSH1 0x40 MSTORE DUP1 TIMESTAMP DUP2 MSTORE PUSH1 0x20 ADD DUP10 PUSH1 0x1 PUSH1 0x1 PUSH1 0xA0 SHL SUB AND DUP2 MSTORE PUSH1 0x20 ADD DUP9 DUP2 MSTORE PUSH1 0x20 ADD DUP4 DUP2 MSTORE PUSH1 0x20 ADD PUSH1 0x0 PUSH1 0x1 PUSH1 0x1 PUSH1 0x40 SHL SUB DUP2 GT ISZERO PUSH2 0x64A JUMPI PUSH2 0x64A PUSH2 0x39CA JUMP JUMPDEST PUSH1 0x40 MLOAD SWAP1 DUP1 DUP3 MSTORE DUP1 PUSH1 0x20 MUL PUSH1 0x20 ADD DUP3 ADD PUSH1 0x40 MSTORE DUP1 ISZERO PUSH2 0x673 JUMPI DUP2 PUSH1 0x20 ADD PUSH1 0x20 DUP3 MUL DUP1 CALLDATASIZE DUP4 CALLDATACOPY ADD SWAP1 POP JUMPDEST POP DUP2 MSTORE PUSH1 0x20 DUP1 DUP3 ADD DUP10 SWAP1 MSTORE PUSH1 0x40 DUP1 DUP4 ADD DUP10 SWAP1 MSTORE PUSH1 0x60 DUP4 ADD DUP9 SWAP1 MSTORE PUSH1 0x80 SWAP1 SWAP3 ADD DUP7 SWAP1 MSTORE DUP4 SLOAD PUSH1 0x1 DUP1 DUP3 ADD DUP7 SSTORE PUSH1 0x0 SWAP6 DUP7 MSTORE SWAP5 DUP3 SWAP1 KECCAK256 DUP5 MLOAD PUSH1 0x9 SWAP1 SWAP3 MUL ADD SWAP1 DUP2 SSTORE SWAP1 DUP4 ADD MLOAD SWAP4 DUP2 ADD DUP1 SLOAD PUSH1 0x1 PUSH1 0x1 PUSH1 0xA0 SHL SUB NOT AND PUSH1 0x1 PUSH1 0x1 PUSH1 0xA0 SHL SUB SWAP1 SWAP6 AND SWAP5 SWAP1 SWAP5 OR SWAP1 SWAP4 SSTORE DUP2 ADD MLOAD SWAP1 SWAP2 SWAP1 PUSH1 0x2 DUP3 ADD SWAP1 PUSH2 0x6EC SWAP1 DUP3 PUSH2 0x467E JUMP JUMPDEST POP PUSH1 0x60 DUP3 ADD MLOAD PUSH1 0x3 DUP3 ADD SSTORE PUSH1 0x80 DUP3 ADD MLOAD DUP1 MLOAD PUSH2 0x712 SWAP2 PUSH1 0x4 DUP5 ADD SWAP2 PUSH1 0x20 SWAP1 SWAP2 ADD SWAP1 PUSH2 0x38C2 JUMP JUMPDEST POP PUSH1 0xA0 DUP3 ADD MLOAD PUSH1 0x5 DUP3 ADD SWAP1 PUSH2 0x727 SWAP1 DUP3 PUSH2 0x467E JUMP JUMPDEST POP PUSH1 0xC0 DUP3 ADD MLOAD PUSH1 0x6 DUP3 ADD SWAP1 PUSH2 0x73C SWAP1 DUP3 PUSH2 0x467E JUMP JUMPDEST POP PUSH1 0xE0 DUP3 ADD MLOAD PUSH1 0x7 DUP3 ADD SWAP1 PUSH2 0x751 SWAP1 DUP3 PUSH2 0x467E JUMP JUMPDEST POP PUSH2 0x100 DUP3 ADD MLOAD PUSH1 0x8 DUP3 ADD SWAP1 PUSH2 0x767 SWAP1 DUP3 PUSH2 0x467E JUMP JUMPDEST POP POP POP PUSH1 0x1 PUSH1 0x1 PUSH1 0xA0 SHL SUB DUP8 AND PUSH1 0x0 DUP2 DUP2 MSTORE PUSH1 0x3 PUSH1 0x20 MSTORE PUSH1 0x40 SWAP1 DUP2 SWAP1 KECCAK256 DUP4 SWAP1 SSTORE MLOAD DUP3 SWAP1 PUSH32 0x471C9CCF46D064E5E94779F1DB07BA06345EC7FABEFFC2B89995DF5FD62A84DA SWAP1 PUSH2 0x7BF SWAP1 DUP11 SWAP1 DUP11 SWAP1 DUP11 SWAP1 DUP11 SWAP1 DUP11 SWAP1 PUSH2 0x473D JUMP JUMPDEST PUSH1 0x40 MLOAD DUP1 SWAP2 SUB SWAP1 LOG3 POP POP POP POP POP POP POP DUP1 DUP1 PUSH2 0x7D9 SWAP1 PUSH2 0x4776 JUMP JUMPDEST SWAP2 POP POP PUSH2 0x52F JUMP JUMPDEST POP POP POP POP POP POP POP JUMP JUMPDEST CALLER PUSH1 0x0 SWAP1 DUP2 MSTORE PUSH1 0x3 PUSH1 0x20 MSTORE PUSH1 0x40 SWAP1 KECCAK256 SLOAD PUSH2 0x816 JUMPI PUSH1 0x40 MLOAD PUSH3 0x461BCD PUSH1 0xE5 SHL DUP2 MSTORE PUSH1 0x4 ADD PUSH2 0x4CE SWAP1 PUSH2 0x478F JUMP JUMPDEST PUSH1 0x6 DUP3 DUP2 SLOAD DUP2 LT PUSH2 0x829 JUMPI PUSH2 0x829 PUSH2 0x45B9 JUMP JUMPDEST SWAP1 PUSH1 0x0 MSTORE PUSH1 0x20 PUSH1 0x0 KECCAK256 SWAP1 PUSH1 0x9 MUL ADD PUSH1 0x5 ADD SLOAD PUSH1 0x0 SUB PUSH2 0x85A JUMPI PUSH1 0x40 MLOAD PUSH3 0x461BCD PUSH1 0xE5 SHL DUP2 MSTORE PUSH1 0x4 ADD PUSH2 0x4CE SWAP1 PUSH2 0x47BE JUMP JUMPDEST PUSH1 0x0 PUSH1 0x1 PUSH1 0x1 PUSH1 0xA0 SHL SUB AND PUSH1 0x6 DUP4 DUP2 SLOAD DUP2 LT PUSH2 0x878 JUMPI PUSH2 0x878 PUSH2 0x45B9 JUMP JUMPDEST PUSH1 0x0 SWAP2 DUP3 MSTORE PUSH1 0x20 SWAP1 SWAP2 KECCAK256 PUSH1 0x2 PUSH1 0x9 SWAP1 SWAP3 MUL ADD ADD SLOAD PUSH1 0x1 PUSH1 0x1 PUSH1 0xA0 SHL SUB AND EQ PUSH2 0x955 JUMPI CALLER PUSH1 0x1 PUSH1 0x1 PUSH1 0xA0 SHL SUB AND PUSH1 0x6 DUP4 DUP2 SLOAD DUP2 LT PUSH2 0x8B7 JUMPI PUSH2 0x8B7 PUSH2 0x45B9 JUMP JUMPDEST PUSH1 0x0 SWAP2 DUP3 MSTORE PUSH1 0x20 SWAP1 SWAP2 KECCAK256 PUSH1 0x2 PUSH1 0x9 SWAP1 SWAP3 MUL ADD ADD SLOAD PUSH1 0x1 PUSH1 0x1 PUSH1 0xA0 SHL SUB AND EQ PUSH2 0x955 JUMPI PUSH1 0x40 MLOAD PUSH3 0x461BCD PUSH1 0xE5 SHL DUP2 MSTORE PUSH1 0x20 PUSH1 0x4 DUP3 ADD MSTORE PUSH1 0x44 PUSH1 0x24 DUP3 ADD DUP2 SWAP1 MSTORE PUSH32 0x596F7520646F206E6F742068617665207065726D697373696F6E20746F206564 SWAP1 DUP3 ADD MSTORE PUSH32 0x69742063757272656E74436F6D70616E7920666F7220746869732063616E6469 PUSH1 0x64 DUP3 ADD MSTORE PUSH4 0x64617465 PUSH1 0xE0 SHL PUSH1 0x84 DUP3 ADD MSTORE PUSH1 0xA4 ADD PUSH2 0x4CE JUMP JUMPDEST DUP1 PUSH1 0x6 DUP4 DUP2 SLOAD DUP2 LT PUSH2 0x969 JUMPI PUSH2 0x969 PUSH2 0x45B9 JUMP JUMPDEST PUSH1 0x0 SWAP2 DUP3 MSTORE PUSH1 0x20 SWAP2 DUP3 SWAP1 KECCAK256 PUSH1 0x9 SWAP2 SWAP1 SWAP2 MUL ADD PUSH1 0x2 ADD DUP1 SLOAD PUSH1 0x1 PUSH1 0x1 PUSH1 0xA0 SHL SUB NOT AND PUSH1 0x1 PUSH1 0x1 PUSH1 0xA0 SHL SUB SWAP4 DUP5 AND OR SWAP1 SSTORE PUSH1 0x40 MLOAD SWAP2 DUP4 AND DUP3 MSTORE DUP4 SWAP2 PUSH32 0x1004BF4098083445CD4AC13954FDCEA1D9530A61F6F2A7D5A628BEA6141EB17C SWAP2 ADD PUSH1 0x40 MLOAD DUP1 SWAP2 SUB SWAP1 LOG2 POP POP JUMP JUMPDEST CALLER PUSH1 0x0 SWAP1 DUP2 MSTORE PUSH1 0x3 PUSH1 0x20 MSTORE PUSH1 0x40 SWAP1 KECCAK256 SLOAD PUSH2 0x9FD JUMPI PUSH1 0x40 MLOAD PUSH3 0x461BCD PUSH1 0xE5 SHL DUP2 MSTORE PUSH1 0x4 ADD PUSH2 0x4CE SWAP1 PUSH2 0x478F JUMP JUMPDEST DUP4 MLOAD DUP6 MLOAD EQ DUP1 ISZERO PUSH2 0xA0F JUMPI POP DUP3 MLOAD DUP6 MLOAD EQ JUMPDEST PUSH2 0xA2B JUMPI PUSH1 0x40 MLOAD PUSH3 0x461BCD PUSH1 0xE5 SHL DUP2 MSTORE PUSH1 0x4 ADD PUSH2 0x4CE SWAP1 PUSH2 0x4582 JUMP JUMPDEST PUSH1 0x0 JUMPDEST DUP6 MLOAD DUP2 LT ISZERO PUSH2 0xCEF JUMPI PUSH1 0x0 DUP7 DUP3 DUP2 MLOAD DUP2 LT PUSH2 0xA4B JUMPI PUSH2 0xA4B PUSH2 0x45B9 JUMP JUMPDEST PUSH1 0x20 MUL PUSH1 0x20 ADD ADD MLOAD SWAP1 POP PUSH1 0x0 DUP7 DUP4 DUP2 MLOAD DUP2 LT PUSH2 0xA69 JUMPI PUSH2 0xA69 PUSH2 0x45B9 JUMP JUMPDEST PUSH1 0x20 MUL PUSH1 0x20 ADD ADD MLOAD SWAP1 POP PUSH1 0x0 DUP7 DUP5 DUP2 MLOAD DUP2 LT PUSH2 0xA87 JUMPI PUSH2 0xA87 PUSH2 0x45B9 JUMP JUMPDEST PUSH1 0x20 MUL PUSH1 0x20 ADD ADD MLOAD SWAP1 POP PUSH1 0x0 DUP7 DUP6 DUP2 MLOAD DUP2 LT PUSH2 0xAA5 JUMPI PUSH2 0xAA5 PUSH2 0x45B9 JUMP JUMPDEST PUSH1 0x20 MUL PUSH1 0x20 ADD ADD MLOAD SWAP1 POP PUSH1 0x0 DUP7 DUP7 DUP2 MLOAD DUP2 LT PUSH2 0xAC3 JUMPI PUSH2 0xAC3 PUSH2 0x45B9 JUMP JUMPDEST PUSH1 0x20 MUL PUSH1 0x20 ADD ADD MLOAD SWAP1 POP PUSH1 0x6 DUP4 DUP2 SLOAD DUP2 LT PUSH2 0xAE0 JUMPI PUSH2 0xAE0 PUSH2 0x45B9 JUMP JUMPDEST SWAP1 PUSH1 0x0 MSTORE PUSH1 0x20 PUSH1 0x0 KECCAK256 SWAP1 PUSH1 0x9 MUL ADD PUSH1 0x5 ADD SLOAD PUSH1 0x0 SUB PUSH2 0xB11 JUMPI PUSH1 0x40 MLOAD PUSH3 0x461BCD PUSH1 0xE5 SHL DUP2 MSTORE PUSH1 0x4 ADD PUSH2 0x4CE SWAP1 PUSH2 0x47BE JUMP JUMPDEST PUSH1 0x7 SLOAD PUSH1 0x0 SWAP1 PUSH2 0xB22 SWAP1 PUSH1 0x1 PUSH2 0x45E5 JUMP JUMPDEST PUSH1 0x40 DUP1 MLOAD PUSH2 0x120 DUP2 ADD DUP3 MSTORE TIMESTAMP DUP2 MSTORE PUSH1 0x20 DUP2 ADD DUP10 DUP2 MSTORE SWAP2 DUP2 ADD DUP4 SWAP1 MSTORE PUSH1 0x60 DUP2 ADD DUP9 SWAP1 MSTORE PUSH1 0x80 DUP2 ADD DUP7 SWAP1 MSTORE PUSH1 0xA0 DUP2 ADD DUP6 SWAP1 MSTORE PUSH1 0x0 PUSH1 0xC0 DUP3 ADD DUP2 SWAP1 MSTORE PUSH1 0xE0 DUP3 ADD DUP2 SWAP1 MSTORE PUSH2 0x100 DUP3 ADD DUP9 SWAP1 MSTORE PUSH1 0x7 DUP1 SLOAD PUSH1 0x1 DUP2 ADD DUP3 SSTORE SWAP2 MSTORE DUP2 MLOAD PUSH1 0x8 SWAP1 SWAP2 MUL PUSH32 0xA66CC928B5EDB82AF9BD49922954155AB7B0942694BEA4CE44661D9A8736C688 DUP2 ADD SWAP2 DUP3 SSTORE SWAP3 MLOAD SWAP4 SWAP5 POP SWAP1 SWAP3 SWAP1 SWAP2 PUSH32 0xA66CC928B5EDB82AF9BD49922954155AB7B0942694BEA4CE44661D9A8736C689 ADD SWAP1 PUSH2 0xBD9 SWAP1 DUP3 PUSH2 0x467E JUMP JUMPDEST POP PUSH1 0x40 DUP3 ADD MLOAD PUSH1 0x2 DUP3 ADD SSTORE PUSH1 0x60 DUP3 ADD MLOAD PUSH1 0x3 DUP3 ADD SWAP1 PUSH2 0xBF8 SWAP1 DUP3 PUSH2 0x467E JUMP JUMPDEST POP PUSH1 0x80 DUP3 ADD MLOAD PUSH1 0x4 DUP3 ADD SWAP1 PUSH2 0xC0D SWAP1 DUP3 PUSH2 0x467E JUMP JUMPDEST POP PUSH1 0xA0 DUP3 ADD MLOAD PUSH1 0x5 DUP3 ADD SWAP1 PUSH2 0xC22 SWAP1 DUP3 PUSH2 0x467E JUMP JUMPDEST POP PUSH1 0xC0 DUP3 ADD MLOAD PUSH1 0x6 DUP3 DUP2 ADD DUP1 SLOAD PUSH1 0xE0 DUP7 ADD MLOAD PUSH2 0xFFFF NOT SWAP1 SWAP2 AND SWAP4 ISZERO ISZERO PUSH2 0xFF00 NOT AND SWAP4 SWAP1 SWAP4 OR PUSH2 0x100 SWAP4 ISZERO ISZERO DUP5 MUL OR SWAP1 SSTORE SWAP3 ADD MLOAD PUSH1 0x7 SWAP1 SWAP2 ADD SSTORE DUP1 SLOAD DUP6 SWAP1 DUP2 LT PUSH2 0xC6D JUMPI PUSH2 0xC6D PUSH2 0x45B9 JUMP JUMPDEST PUSH1 0x0 SWAP2 DUP3 MSTORE PUSH1 0x20 DUP1 DUP4 KECCAK256 PUSH1 0x4 PUSH1 0x9 SWAP1 SWAP4 MUL ADD SWAP2 SWAP1 SWAP2 ADD DUP1 SLOAD PUSH1 0x1 DUP2 ADD DUP3 SSTORE SWAP1 DUP4 MSTORE SWAP2 KECCAK256 ADD DUP2 SWAP1 SSTORE PUSH1 0x40 MLOAD DUP2 SWAP1 PUSH32 0xDF3F376D0902D940A4E067B169121175E19DFFA31960867F2CE6943BC6CB5ABB SWAP1 PUSH2 0xCCE SWAP1 DUP10 SWAP1 DUP10 SWAP1 DUP10 SWAP1 DUP10 SWAP1 DUP10 SWAP1 PUSH2 0x4804 JUMP JUMPDEST PUSH1 0x40 MLOAD DUP1 SWAP2 SUB SWAP1 LOG2 POP POP POP POP POP POP DUP1 DUP1 PUSH2 0xCE7 SWAP1 PUSH2 0x4776 JUMP JUMPDEST SWAP2 POP POP PUSH2 0xA2E JUMP JUMPDEST POP POP POP POP POP POP JUMP JUMPDEST PUSH2 0xCFF PUSH2 0x37A4 JUMP JUMPDEST PUSH2 0xD44 JUMPI PUSH1 0x40 MLOAD PUSH3 0x461BCD PUSH1 0xE5 SHL DUP2 MSTORE PUSH1 0x20 PUSH1 0x4 DUP3 ADD MSTORE PUSH1 0x16 PUSH1 0x24 DUP3 ADD MSTORE PUSH22 0x13DB9B1E481D995C9A599A595C8818D85B8818D85B1B PUSH1 0x52 SHL PUSH1 0x44 DUP3 ADD MSTORE PUSH1 0x64 ADD PUSH2 0x4CE JUMP JUMPDEST PUSH1 0x7 SLOAD DUP3 GT ISZERO PUSH2 0xD8C JUMPI PUSH1 0x40 MLOAD PUSH3 0x461BCD PUSH1 0xE5 SHL DUP2 MSTORE PUSH1 0x20 PUSH1 0x4 DUP3 ADD MSTORE PUSH1 0x13 PUSH1 0x24 DUP3 ADD MSTORE PUSH19 0x125B9D985B1A5908191BD8DD5B595B9D081251 PUSH1 0x6A SHL PUSH1 0x44 DUP3 ADD MSTORE PUSH1 0x64 ADD PUSH2 0x4CE JUMP JUMPDEST PUSH1 0x0 PUSH2 0xD99 PUSH1 0x1 DUP5 PUSH2 0x4843 JUMP JUMPDEST SWAP1 POP PUSH1 0x0 PUSH1 0x7 DUP3 DUP2 SLOAD DUP2 LT PUSH2 0xDB0 JUMPI PUSH2 0xDB0 PUSH2 0x45B9 JUMP JUMPDEST SWAP1 PUSH1 0x0 MSTORE PUSH1 0x20 PUSH1 0x0 KECCAK256 SWAP1 PUSH1 0x8 MUL ADD SWAP1 POP DUP1 PUSH1 0x2 ADD SLOAD PUSH1 0x0 SUB PUSH2 0xE22 JUMPI PUSH1 0x40 MLOAD PUSH3 0x461BCD PUSH1 0xE5 SHL DUP2 MSTORE PUSH1 0x20 PUSH1 0x4 DUP3 ADD MSTORE PUSH1 0x25 PUSH1 0x24 DUP3 ADD MSTORE PUSH32 0x446F63756D656E74207769746820676976656E20494420646F6573206E6F7420 PUSH1 0x44 DUP3 ADD MSTORE PUSH5 0x195E1A5CDD PUSH1 0xDA SHL PUSH1 0x64 DUP3 ADD MSTORE PUSH1 0x84 ADD PUSH2 0x4CE JUMP JUMPDEST PUSH1 0x6 DUP2 ADD SLOAD PUSH1 0xFF AND ISZERO DUP1 ISZERO PUSH2 0xE41 JUMPI POP PUSH1 0x6 DUP2 ADD SLOAD PUSH2 0x100 SWAP1 DIV PUSH1 0xFF AND ISZERO JUMPDEST PUSH2 0xEB3 JUMPI PUSH1 0x40 MLOAD PUSH3 0x461BCD PUSH1 0xE5 SHL DUP2 MSTORE PUSH1 0x20 PUSH1 0x4 DUP3 ADD MSTORE PUSH1 0x37 PUSH1 0x24 DUP3 ADD MSTORE PUSH32 0x446F63756D656E74207769746820676976656E20494420697320616C72656164 PUSH1 0x44 DUP3 ADD MSTORE PUSH32 0x79207665726966696564206F722063616E63656C6C6564000000000000000000 PUSH1 0x64 DUP3 ADD MSTORE PUSH1 0x84 ADD PUSH2 0x4CE JUMP JUMPDEST DUP3 ISZERO PUSH2 0xEFA JUMPI PUSH1 0x6 DUP2 ADD DUP1 SLOAD PUSH2 0xFF00 NOT AND PUSH2 0x100 OR SWAP1 SSTORE PUSH1 0x40 MLOAD DUP5 SWAP1 PUSH32 0x7B4845702FCFEEF348208AA5C3EF0909D12E56C50C288CDBA03C5462CFD921B5 SWAP1 PUSH1 0x0 SWAP1 LOG2 PUSH2 0xF35 JUMP JUMPDEST PUSH1 0x6 DUP2 ADD DUP1 SLOAD PUSH1 0xFF NOT AND PUSH1 0x1 OR SWAP1 SSTORE PUSH1 0x40 MLOAD DUP5 SWAP1 PUSH32 0x4B93FD5160FBC8B35D08AFF650902CF41C86E6DF325A3EABAB5BCCA811976CF7 SWAP1 PUSH1 0x0 SWAP1 LOG2 JUMPDEST POP POP POP POP JUMP JUMPDEST PUSH1 0x5 DUP2 DUP2 SLOAD DUP2 LT PUSH2 0xF4B JUMPI PUSH1 0x0 DUP1 REVERT JUMPDEST PUSH1 0x0 SWAP2 DUP3 MSTORE PUSH1 0x20 SWAP1 SWAP2 KECCAK256 PUSH1 0x9 SWAP1 SWAP2 MUL ADD DUP1 SLOAD PUSH1 0x1 DUP3 ADD SLOAD PUSH1 0x2 DUP4 ADD DUP1 SLOAD SWAP3 SWAP5 POP PUSH1 0x1 PUSH1 0x1 PUSH1 0xA0 SHL SUB SWAP1 SWAP2 AND SWAP3 SWAP2 PUSH2 0xF81 SWAP1 PUSH2 0x45FE JUMP JUMPDEST DUP1 PUSH1 0x1F ADD PUSH1 0x20 DUP1 SWAP2 DIV MUL PUSH1 0x20 ADD PUSH1 0x40 MLOAD SWAP1 DUP2 ADD PUSH1 0x40 MSTORE DUP1 SWAP3 SWAP2 SWAP1 DUP2 DUP2 MSTORE PUSH1 0x20 ADD DUP3 DUP1 SLOAD PUSH2 0xFAD SWAP1 PUSH2 0x45FE JUMP JUMPDEST DUP1 ISZERO PUSH2 0xFFA JUMPI DUP1 PUSH1 0x1F LT PUSH2 0xFCF JUMPI PUSH2 0x100 DUP1 DUP4 SLOAD DIV MUL DUP4 MSTORE SWAP2 PUSH1 0x20 ADD SWAP2 PUSH2 0xFFA JUMP JUMPDEST DUP3 ADD SWAP2 SWAP1 PUSH1 0x0 MSTORE PUSH1 0x20 PUSH1 0x0 KECCAK256 SWAP1 JUMPDEST DUP2 SLOAD DUP2 MSTORE SWAP1 PUSH1 0x1 ADD SWAP1 PUSH1 0x20 ADD DUP1 DUP4 GT PUSH2 0xFDD JUMPI DUP3 SWAP1 SUB PUSH1 0x1F AND DUP3 ADD SWAP2 JUMPDEST POP POP POP POP POP SWAP1 DUP1 PUSH1 0x3 ADD SLOAD SWAP1 DUP1 PUSH1 0x5 ADD DUP1 SLOAD PUSH2 0x1015 SWAP1 PUSH2 0x45FE JUMP JUMPDEST DUP1 PUSH1 0x1F ADD PUSH1 0x20 DUP1 SWAP2 DIV MUL PUSH1 0x20 ADD PUSH1 0x40 MLOAD SWAP1 DUP2 ADD PUSH1 0x40 MSTORE DUP1 SWAP3 SWAP2 SWAP1 DUP2 DUP2 MSTORE PUSH1 0x20 ADD DUP3 DUP1 SLOAD PUSH2 0x1041 SWAP1 PUSH2 0x45FE JUMP JUMPDEST DUP1 ISZERO PUSH2 0x108E JUMPI DUP1 PUSH1 0x1F LT PUSH2 0x1063 JUMPI PUSH2 0x100 DUP1 DUP4 SLOAD DIV MUL DUP4 MSTORE SWAP2 PUSH1 0x20 ADD SWAP2 PUSH2 0x108E JUMP JUMPDEST DUP3 ADD SWAP2 SWAP1 PUSH1 0x0 MSTORE PUSH1 0x20 PUSH1 0x0 KECCAK256 SWAP1 JUMPDEST DUP2 SLOAD DUP2 MSTORE SWAP1 PUSH1 0x1 ADD SWAP1 PUSH1 0x20 ADD DUP1 DUP4 GT PUSH2 0x1071 JUMPI DUP3 SWAP1 SUB PUSH1 0x1F AND DUP3 ADD SWAP2 JUMPDEST POP POP POP POP POP SWAP1 DUP1 PUSH1 0x6 ADD DUP1 SLOAD PUSH2 0x10A3 SWAP1 PUSH2 0x45FE JUMP JUMPDEST DUP1 PUSH1 0x1F ADD PUSH1 0x20 DUP1 SWAP2 DIV MUL PUSH1 0x20 ADD PUSH1 0x40 MLOAD SWAP1 DUP2 ADD PUSH1 0x40 MSTORE DUP1 SWAP3 SWAP2 SWAP1 DUP2 DUP2 MSTORE PUSH1 0x20 ADD DUP3 DUP1 SLOAD PUSH2 0x10CF SWAP1 PUSH2 0x45FE JUMP JUMPDEST DUP1 ISZERO PUSH2 0x111C JUMPI DUP1 PUSH1 0x1F LT PUSH2 0x10F1 JUMPI PUSH2 0x100 DUP1 DUP4 SLOAD DIV MUL DUP4 MSTORE SWAP2 PUSH1 0x20 ADD SWAP2 PUSH2 0x111C JUMP JUMPDEST DUP3 ADD SWAP2 SWAP1 PUSH1 0x0 MSTORE PUSH1 0x20 PUSH1 0x0 KECCAK256 SWAP1 JUMPDEST DUP2 SLOAD DUP2 MSTORE SWAP1 PUSH1 0x1 ADD SWAP1 PUSH1 0x20 ADD DUP1 DUP4 GT PUSH2 0x10FF JUMPI DUP3 SWAP1 SUB PUSH1 0x1F AND DUP3 ADD SWAP2 JUMPDEST POP POP POP POP POP SWAP1 DUP1 PUSH1 0x7 ADD DUP1 SLOAD PUSH2 0x1131 SWAP1 PUSH2 0x45FE JUMP JUMPDEST DUP1 PUSH1 0x1F ADD PUSH1 0x20 DUP1 SWAP2 DIV MUL PUSH1 0x20 ADD PUSH1 0x40 MLOAD SWAP1 DUP2 ADD PUSH1 0x40 MSTORE DUP1 SWAP3 SWAP2 SWAP1 DUP2 DUP2 MSTORE PUSH1 0x20 ADD DUP3 DUP1 SLOAD PUSH2 0x115D SWAP1 PUSH2 0x45FE JUMP JUMPDEST DUP1 ISZERO PUSH2 0x11AA JUMPI DUP1 PUSH1 0x1F LT PUSH2 0x117F JUMPI PUSH2 0x100 DUP1 DUP4 SLOAD DIV MUL DUP4 MSTORE SWAP2 PUSH1 0x20 ADD SWAP2 PUSH2 0x11AA JUMP JUMPDEST DUP3 ADD SWAP2 SWAP1 PUSH1 0x0 MSTORE PUSH1 0x20 PUSH1 0x0 KECCAK256 SWAP1 JUMPDEST DUP2 SLOAD DUP2 MSTORE SWAP1 PUSH1 0x1 ADD SWAP1 PUSH1 0x20 ADD DUP1 DUP4 GT PUSH2 0x118D JUMPI DUP3 SWAP1 SUB PUSH1 0x1F AND DUP3 ADD SWAP2 JUMPDEST POP POP POP POP POP SWAP1 DUP1 PUSH1 0x8 ADD DUP1 SLOAD PUSH2 0x11BF SWAP1 PUSH2 0x45FE JUMP JUMPDEST DUP1 PUSH1 0x1F ADD PUSH1 0x20 DUP1 SWAP2 DIV MUL PUSH1 0x20 ADD PUSH1 0x40 MLOAD SWAP1 DUP2 ADD PUSH1 0x40 MSTORE DUP1 SWAP3 SWAP2 SWAP1 DUP2 DUP2 MSTORE PUSH1 0x20 ADD DUP3 DUP1 SLOAD PUSH2 0x11EB SWAP1 PUSH2 0x45FE JUMP JUMPDEST DUP1 ISZERO PUSH2 0x1238 JUMPI DUP1 PUSH1 0x1F LT PUSH2 0x120D JUMPI PUSH2 0x100 DUP1 DUP4 SLOAD DIV MUL DUP4 MSTORE SWAP2 PUSH1 0x20 ADD SWAP2 PUSH2 0x1238 JUMP JUMPDEST DUP3 ADD SWAP2 SWAP1 PUSH1 0x0 MSTORE PUSH1 0x20 PUSH1 0x0 KECCAK256 SWAP1 JUMPDEST DUP2 SLOAD DUP2 MSTORE SWAP1 PUSH1 0x1 ADD SWAP1 PUSH1 0x20 ADD DUP1 DUP4 GT PUSH2 0x121B JUMPI DUP3 SWAP1 SUB PUSH1 0x1F AND DUP3 ADD SWAP2 JUMPDEST POP POP POP POP POP SWAP1 POP DUP9 JUMP JUMPDEST PUSH1 0x6 DUP2 DUP2 SLOAD DUP2 LT PUSH2 0x1252 JUMPI PUSH1 0x0 DUP1 REVERT JUMPDEST PUSH1 0x0 SWAP2 DUP3 MSTORE PUSH1 0x20 SWAP1 SWAP2 KECCAK256 PUSH1 0x9 SWAP1 SWAP2 MUL ADD DUP1 SLOAD PUSH1 0x1 DUP3 ADD SLOAD PUSH1 0x2 DUP4 ADD SLOAD PUSH1 0x3 DUP5 ADD DUP1 SLOAD SWAP4 SWAP6 POP PUSH1 0x1 PUSH1 0x1 PUSH1 0xA0 SHL SUB SWAP3 DUP4 AND SWAP5 SWAP3 SWAP1 SWAP2 AND SWAP3 PUSH2 0x1291 SWAP1 PUSH2 0x45FE JUMP JUMPDEST DUP1 PUSH1 0x1F ADD PUSH1 0x20 DUP1 SWAP2 DIV MUL PUSH1 0x20 ADD PUSH1 0x40 MLOAD SWAP1 DUP2 ADD PUSH1 0x40 MSTORE DUP1 SWAP3 SWAP2 SWAP1 DUP2 DUP2 MSTORE PUSH1 0x20 ADD DUP3 DUP1 SLOAD PUSH2 0x12BD SWAP1 PUSH2 0x45FE JUMP JUMPDEST DUP1 ISZERO PUSH2 0x130A JUMPI DUP1 PUSH1 0x1F LT PUSH2 0x12DF JUMPI PUSH2 0x100 DUP1 DUP4 SLOAD DIV MUL DUP4 MSTORE SWAP2 PUSH1 0x20 ADD SWAP2 PUSH2 0x130A JUMP JUMPDEST DUP3 ADD SWAP2 SWAP1 PUSH1 0x0 MSTORE PUSH1 0x20 PUSH1 0x0 KECCAK256 SWAP1 JUMPDEST DUP2 SLOAD DUP2 MSTORE SWAP1 PUSH1 0x1 ADD SWAP1 PUSH1 0x20 ADD DUP1 DUP4 GT PUSH2 0x12ED JUMPI DUP3 SWAP1 SUB PUSH1 0x1F AND DUP3 ADD SWAP2 JUMPDEST POP POP POP POP POP SWAP1 DUP1 PUSH1 0x5 ADD SLOAD SWAP1 DUP1 PUSH1 0x6 ADD DUP1 SLOAD PUSH2 0x10A3 SWAP1 PUSH2 0x45FE JUMP JUMPDEST PUSH1 0x5 SLOAD PUSH1 0x60 SWAP1 DUP3 GT ISZERO PUSH2 0x136F JUMPI PUSH1 0x40 MLOAD PUSH3 0x461BCD PUSH1 0xE5 SHL DUP2 MSTORE PUSH1 0x20 PUSH1 0x4 DUP3 ADD MSTORE PUSH1 0x12 PUSH1 0x24 DUP3 ADD MSTORE PUSH18 0x125B9D985B1A590818DBDB5C185B9E481251 PUSH1 0x72 SHL PUSH1 0x44 DUP3 ADD MSTORE PUSH1 0x64 ADD PUSH2 0x4CE JUMP JUMPDEST PUSH1 0x0 PUSH2 0x137C PUSH1 0x1 DUP5 PUSH2 0x4843 JUMP JUMPDEST SWAP1 POP PUSH1 0x0 PUSH1 0x5 DUP3 DUP2 SLOAD DUP2 LT PUSH2 0x1393 JUMPI PUSH2 0x1393 PUSH2 0x45B9 JUMP JUMPDEST SWAP1 PUSH1 0x0 MSTORE PUSH1 0x20 PUSH1 0x0 KECCAK256 SWAP1 PUSH1 0x9 MUL ADD PUSH1 0x4 ADD DUP1 SLOAD DUP1 PUSH1 0x20 MUL PUSH1 0x20 ADD PUSH1 0x40 MLOAD SWAP1 DUP2 ADD PUSH1 0x40 MSTORE DUP1 SWAP3 SWAP2 SWAP1 DUP2 DUP2 MSTORE PUSH1 0x20 ADD DUP3 DUP1 SLOAD DUP1 ISZERO PUSH2 0x13EE JUMPI PUSH1 0x20 MUL DUP3 ADD SWAP2 SWAP1 PUSH1 0x0 MSTORE PUSH1 0x20 PUSH1 0x0 KECCAK256 SWAP1 JUMPDEST DUP2 SLOAD DUP2 MSTORE PUSH1 0x20 ADD SWAP1 PUSH1 0x1 ADD SWAP1 DUP1 DUP4 GT PUSH2 0x13DA JUMPI JUMPDEST POP POP POP POP POP SWAP1 POP PUSH1 0x0 DUP2 MLOAD PUSH1 0x1 PUSH1 0x1 PUSH1 0x40 SHL SUB DUP2 GT ISZERO PUSH2 0x1410 JUMPI PUSH2 0x1410 PUSH2 0x39CA JUMP JUMPDEST PUSH1 0x40 MLOAD SWAP1 DUP1 DUP3 MSTORE DUP1 PUSH1 0x20 MUL PUSH1 0x20 ADD DUP3 ADD PUSH1 0x40 MSTORE DUP1 ISZERO PUSH2 0x14A2 JUMPI DUP2 PUSH1 0x20 ADD JUMPDEST PUSH2 0x148F PUSH1 0x40 MLOAD DUP1 PUSH2 0x120 ADD PUSH1 0x40 MSTORE DUP1 PUSH1 0x0 DUP2 MSTORE PUSH1 0x20 ADD PUSH1 0x0 PUSH1 0x1 PUSH1 0x1 PUSH1 0xA0 SHL SUB AND DUP2 MSTORE PUSH1 0x20 ADD PUSH1 0x0 PUSH1 0x1 PUSH1 0x1 PUSH1 0xA0 SHL SUB AND DUP2 MSTORE PUSH1 0x20 ADD PUSH1 0x60 DUP2 MSTORE PUSH1 0x20 ADD PUSH1 0x60 DUP2 MSTORE PUSH1 0x20 ADD PUSH1 0x0 DUP2 MSTORE PUSH1 0x20 ADD PUSH1 0x60 DUP2 MSTORE PUSH1 0x20 ADD PUSH1 0x60 DUP2 MSTORE PUSH1 0x20 ADD PUSH1 0x60 DUP2 MSTORE POP SWAP1 JUMP JUMPDEST DUP2 MSTORE PUSH1 0x20 ADD SWAP1 PUSH1 0x1 SWAP1 SUB SWAP1 DUP2 PUSH2 0x142E JUMPI SWAP1 POP JUMPDEST POP SWAP1 POP PUSH1 0x0 JUMPDEST DUP3 MLOAD DUP2 LT ISZERO PUSH2 0x1810 JUMPI PUSH1 0x6 PUSH1 0x1 DUP5 DUP4 DUP2 MLOAD DUP2 LT PUSH2 0x14C7 JUMPI PUSH2 0x14C7 PUSH2 0x45B9 JUMP JUMPDEST PUSH1 0x20 MUL PUSH1 0x20 ADD ADD MLOAD PUSH2 0x14D9 SWAP2 SWAP1 PUSH2 0x4843 JUMP JUMPDEST DUP2 SLOAD DUP2 LT PUSH2 0x14E9 JUMPI PUSH2 0x14E9 PUSH2 0x45B9 JUMP JUMPDEST PUSH1 0x0 SWAP2 DUP3 MSTORE PUSH1 0x20 SWAP2 DUP3 SWAP1 KECCAK256 PUSH1 0x40 DUP1 MLOAD PUSH2 0x120 DUP2 ADD DUP3 MSTORE PUSH1 0x9 SWAP1 SWAP4 MUL SWAP1 SWAP2 ADD DUP1 SLOAD DUP4 MSTORE PUSH1 0x1 DUP2 ADD SLOAD PUSH1 0x1 PUSH1 0x1 PUSH1 0xA0 SHL SUB SWAP1 DUP2 AND SWAP5 DUP5 ADD SWAP5 SWAP1 SWAP5 MSTORE PUSH1 0x2 DUP2 ADD SLOAD SWAP1 SWAP4 AND SWAP1 DUP3 ADD MSTORE PUSH1 0x3 DUP3 ADD DUP1 SLOAD SWAP2 SWAP3 SWAP2 PUSH1 0x60 DUP5 ADD SWAP2 SWAP1 PUSH2 0x1546 SWAP1 PUSH2 0x45FE JUMP JUMPDEST DUP1 PUSH1 0x1F ADD PUSH1 0x20 DUP1 SWAP2 DIV MUL PUSH1 0x20 ADD PUSH1 0x40 MLOAD SWAP1 DUP2 ADD PUSH1 0x40 MSTORE DUP1 SWAP3 SWAP2 SWAP1 DUP2 DUP2 MSTORE PUSH1 0x20 ADD DUP3 DUP1 SLOAD PUSH2 0x1572 SWAP1 PUSH2 0x45FE JUMP JUMPDEST DUP1 ISZERO PUSH2 0x15BF JUMPI DUP1 PUSH1 0x1F LT PUSH2 0x1594 JUMPI PUSH2 0x100 DUP1 DUP4 SLOAD DIV MUL DUP4 MSTORE SWAP2 PUSH1 0x20 ADD SWAP2 PUSH2 0x15BF JUMP JUMPDEST DUP3 ADD SWAP2 SWAP1 PUSH1 0x0 MSTORE PUSH1 0x20 PUSH1 0x0 KECCAK256 SWAP1 JUMPDEST DUP2 SLOAD DUP2 MSTORE SWAP1 PUSH1 0x1 ADD SWAP1 PUSH1 0x20 ADD DUP1 DUP4 GT PUSH2 0x15A2 JUMPI DUP3 SWAP1 SUB PUSH1 0x1F AND DUP3 ADD SWAP2 JUMPDEST POP POP POP POP POP DUP2 MSTORE PUSH1 0x20 ADD PUSH1 0x4 DUP3 ADD DUP1 SLOAD DUP1 PUSH1 0x20 MUL PUSH1 0x20 ADD PUSH1 0x40 MLOAD SWAP1 DUP2 ADD PUSH1 0x40 MSTORE DUP1 SWAP3 SWAP2 SWAP1 DUP2 DUP2 MSTORE PUSH1 0x20 ADD DUP3 DUP1 SLOAD DUP1 ISZERO PUSH2 0x1617 JUMPI PUSH1 0x20 MUL DUP3 ADD SWAP2 SWAP1 PUSH1 0x0 MSTORE PUSH1 0x20 PUSH1 0x0 KECCAK256 SWAP1 JUMPDEST DUP2 SLOAD DUP2 MSTORE PUSH1 0x20 ADD SWAP1 PUSH1 0x1 ADD SWAP1 DUP1 DUP4 GT PUSH2 0x1603 JUMPI JUMPDEST POP POP POP POP POP DUP2 MSTORE PUSH1 0x20 ADD PUSH1 0x5 DUP3 ADD SLOAD DUP2 MSTORE PUSH1 0x20 ADD PUSH1 0x6 DUP3 ADD DUP1 SLOAD PUSH2 0x163A SWAP1 PUSH2 0x45FE JUMP JUMPDEST DUP1 PUSH1 0x1F ADD PUSH1 0x20 DUP1 SWAP2 DIV MUL PUSH1 0x20 ADD PUSH1 0x40 MLOAD SWAP1 DUP2 ADD PUSH1 0x40 MSTORE DUP1 SWAP3 SWAP2 SWAP1 DUP2 DUP2 MSTORE PUSH1 0x20 ADD DUP3 DUP1 SLOAD PUSH2 0x1666 SWAP1 PUSH2 0x45FE JUMP JUMPDEST DUP1 ISZERO PUSH2 0x16B3 JUMPI DUP1 PUSH1 0x1F LT PUSH2 0x1688 JUMPI PUSH2 0x100 DUP1 DUP4 SLOAD DIV MUL DUP4 MSTORE SWAP2 PUSH1 0x20 ADD SWAP2 PUSH2 0x16B3 JUMP JUMPDEST DUP3 ADD SWAP2 SWAP1 PUSH1 0x0 MSTORE PUSH1 0x20 PUSH1 0x0 KECCAK256 SWAP1 JUMPDEST DUP2 SLOAD DUP2 MSTORE SWAP1 PUSH1 0x1 ADD SWAP1 PUSH1 0x20 ADD DUP1 DUP4 GT PUSH2 0x1696 JUMPI DUP3 SWAP1 SUB PUSH1 0x1F AND DUP3 ADD SWAP2 JUMPDEST POP POP POP POP POP DUP2 MSTORE PUSH1 0x20 ADD PUSH1 0x7 DUP3 ADD DUP1 SLOAD PUSH2 0x16CC SWAP1 PUSH2 0x45FE JUMP JUMPDEST DUP1 PUSH1 0x1F ADD PUSH1 0x20 DUP1 SWAP2 DIV MUL PUSH1 0x20 ADD PUSH1 0x40 MLOAD SWAP1 DUP2 ADD PUSH1 0x40 MSTORE DUP1 SWAP3 SWAP2 SWAP1 DUP2 DUP2 MSTORE PUSH1 0x20 ADD DUP3 DUP1 SLOAD PUSH2 0x16F8 SWAP1 PUSH2 0x45FE JUMP JUMPDEST DUP1 ISZERO PUSH2 0x1745 JUMPI DUP1 PUSH1 0x1F LT PUSH2 0x171A JUMPI PUSH2 0x100 DUP1 DUP4 SLOAD DIV MUL DUP4 MSTORE SWAP2 PUSH1 0x20 ADD SWAP2 PUSH2 0x1745 JUMP JUMPDEST DUP3 ADD SWAP2 SWAP1 PUSH1 0x0 MSTORE PUSH1 0x20 PUSH1 0x0 KECCAK256 SWAP1 JUMPDEST DUP2 SLOAD DUP2 MSTORE SWAP1 PUSH1 0x1 ADD SWAP1 PUSH1 0x20 ADD DUP1 DUP4 GT PUSH2 0x1728 JUMPI DUP3 SWAP1 SUB PUSH1 0x1F AND DUP3 ADD SWAP2 JUMPDEST POP POP POP POP POP DUP2 MSTORE PUSH1 0x20 ADD PUSH1 0x8 DUP3 ADD DUP1 SLOAD PUSH2 0x175E SWAP1 PUSH2 0x45FE JUMP JUMPDEST DUP1 PUSH1 0x1F ADD PUSH1 0x20 DUP1 SWAP2 DIV MUL PUSH1 0x20 ADD PUSH1 0x40 MLOAD SWAP1 DUP2 ADD PUSH1 0x40 MSTORE DUP1 SWAP3 SWAP2 SWAP1 DUP2 DUP2 MSTORE PUSH1 0x20 ADD DUP3 DUP1 SLOAD PUSH2 0x178A SWAP1 PUSH2 0x45FE JUMP JUMPDEST DUP1 ISZERO PUSH2 0x17D7 JUMPI DUP1 PUSH1 0x1F LT PUSH2 0x17AC JUMPI PUSH2 0x100 DUP1 DUP4 SLOAD DIV MUL DUP4 MSTORE SWAP2 PUSH1 0x20 ADD SWAP2 PUSH2 0x17D7 JUMP JUMPDEST DUP3 ADD SWAP2 SWAP1 PUSH1 0x0 MSTORE PUSH1 0x20 PUSH1 0x0 KECCAK256 SWAP1 JUMPDEST DUP2 SLOAD DUP2 MSTORE SWAP1 PUSH1 0x1 ADD SWAP1 PUSH1 0x20 ADD DUP1 DUP4 GT PUSH2 0x17BA JUMPI DUP3 SWAP1 SUB PUSH1 0x1F AND DUP3 ADD SWAP2 JUMPDEST POP POP POP POP POP DUP2 MSTORE POP POP DUP3 DUP3 DUP2 MLOAD DUP2 LT PUSH2 0x17F2 JUMPI PUSH2 0x17F2 PUSH2 0x45B9 JUMP JUMPDEST PUSH1 0x20 MUL PUSH1 0x20 ADD ADD DUP2 SWAP1 MSTORE POP DUP1 DUP1 PUSH2 0x1808 SWAP1 PUSH2 0x4776 JUMP JUMPDEST SWAP2 POP POP PUSH2 0x14A8 JUMP JUMPDEST POP SWAP5 SWAP4 POP POP POP POP JUMP JUMPDEST PUSH1 0x60 PUSH1 0x0 PUSH1 0x60 DUP1 PUSH1 0x60 PUSH1 0x6 DUP1 SLOAD SWAP1 POP DUP7 GT ISZERO PUSH2 0x1847 JUMPI PUSH1 0x40 MLOAD PUSH3 0x461BCD PUSH1 0xE5 SHL DUP2 MSTORE PUSH1 0x4 ADD PUSH2 0x4CE SWAP1 PUSH2 0x4856 JUMP JUMPDEST PUSH1 0x0 PUSH2 0x1854 PUSH1 0x1 DUP9 PUSH2 0x4843 JUMP JUMPDEST SWAP1 POP PUSH1 0x0 PUSH1 0x6 DUP3 DUP2 SLOAD DUP2 LT PUSH2 0x186B JUMPI PUSH2 0x186B PUSH2 0x45B9 JUMP JUMPDEST SWAP1 PUSH1 0x0 MSTORE PUSH1 0x20 PUSH1 0x0 KECCAK256 SWAP1 PUSH1 0x9 MUL ADD SWAP1 POP DUP1 PUSH1 0x5 ADD SLOAD PUSH1 0x0 SUB PUSH2 0x189F JUMPI PUSH1 0x40 MLOAD PUSH3 0x461BCD PUSH1 0xE5 SHL DUP2 MSTORE PUSH1 0x4 ADD PUSH2 0x4CE SWAP1 PUSH2 0x47BE JUMP JUMPDEST DUP1 PUSH1 0x3 ADD DUP2 PUSH1 0x5 ADD SLOAD DUP3 PUSH1 0x6 ADD DUP4 PUSH1 0x7 ADD DUP5 PUSH1 0x8 ADD DUP5 DUP1 SLOAD PUSH2 0x18C0 SWAP1 PUSH2 0x45FE JUMP JUMPDEST DUP1 PUSH1 0x1F ADD PUSH1 0x20 DUP1 SWAP2 DIV MUL PUSH1 0x20 ADD PUSH1 0x40 MLOAD SWAP1 DUP2 ADD PUSH1 0x40 MSTORE DUP1 SWAP3 SWAP2 SWAP1 DUP2 DUP2 MSTORE PUSH1 0x20 ADD DUP3 DUP1 SLOAD PUSH2 0x18EC SWAP1 PUSH2 0x45FE JUMP JUMPDEST DUP1 ISZERO PUSH2 0x1939 JUMPI DUP1 PUSH1 0x1F LT PUSH2 0x190E JUMPI PUSH2 0x100 DUP1 DUP4 SLOAD DIV MUL DUP4 MSTORE SWAP2 PUSH1 0x20 ADD SWAP2 PUSH2 0x1939 JUMP JUMPDEST DUP3 ADD SWAP2 SWAP1 PUSH1 0x0 MSTORE PUSH1 0x20 PUSH1 0x0 KECCAK256 SWAP1 JUMPDEST DUP2 SLOAD DUP2 MSTORE SWAP1 PUSH1 0x1 ADD SWAP1 PUSH1 0x20 ADD DUP1 DUP4 GT PUSH2 0x191C JUMPI DUP3 SWAP1 SUB PUSH1 0x1F AND DUP3 ADD SWAP2 JUMPDEST POP POP POP POP POP SWAP5 POP DUP3 DUP1 SLOAD PUSH2 0x194C SWAP1 PUSH2 0x45FE JUMP JUMPDEST DUP1 PUSH1 0x1F ADD PUSH1 0x20 DUP1 SWAP2 DIV MUL PUSH1 0x20 ADD PUSH1 0x40 MLOAD SWAP1 DUP2 ADD PUSH1 0x40 MSTORE DUP1 SWAP3 SWAP2 SWAP1 DUP2 DUP2 MSTORE PUSH1 0x20 ADD DUP3 DUP1 SLOAD PUSH2 0x1978 SWAP1 PUSH2 0x45FE JUMP JUMPDEST DUP1 ISZERO PUSH2 0x19C5 JUMPI DUP1 PUSH1 0x1F LT PUSH2 0x199A JUMPI PUSH2 0x100 DUP1 DUP4 SLOAD DIV MUL DUP4 MSTORE SWAP2 PUSH1 0x20 ADD SWAP2 PUSH2 0x19C5 JUMP JUMPDEST DUP3 ADD SWAP2 SWAP1 PUSH1 0x0 MSTORE PUSH1 0x20 PUSH1 0x0 KECCAK256 SWAP1 JUMPDEST DUP2 SLOAD DUP2 MSTORE SWAP1 PUSH1 0x1 ADD SWAP1 PUSH1 0x20 ADD DUP1 DUP4 GT PUSH2 0x19A8 JUMPI DUP3 SWAP1 SUB PUSH1 0x1F AND DUP3 ADD SWAP2 JUMPDEST POP POP POP POP POP SWAP3 POP DUP2 DUP1 SLOAD PUSH2 0x19D8 SWAP1 PUSH2 0x45FE JUMP JUMPDEST DUP1 PUSH1 0x1F ADD PUSH1 0x20 DUP1 SWAP2 DIV MUL PUSH1 0x20 ADD PUSH1 0x40 MLOAD SWAP1 DUP2 ADD PUSH1 0x40 MSTORE DUP1 SWAP3 SWAP2 SWAP1 DUP2 DUP2 MSTORE PUSH1 0x20 ADD DUP3 DUP1 SLOAD PUSH2 0x1A04 SWAP1 PUSH2 0x45FE JUMP JUMPDEST DUP1 ISZERO PUSH2 0x1A51 JUMPI DUP1 PUSH1 0x1F LT PUSH2 0x1A26 JUMPI PUSH2 0x100 DUP1 DUP4 SLOAD DIV MUL DUP4 MSTORE SWAP2 PUSH1 0x20 ADD SWAP2 PUSH2 0x1A51 JUMP JUMPDEST DUP3 ADD SWAP2 SWAP1 PUSH1 0x0 MSTORE PUSH1 0x20 PUSH1 0x0 KECCAK256 SWAP1 JUMPDEST DUP2 SLOAD DUP2 MSTORE SWAP1 PUSH1 0x1 ADD SWAP1 PUSH1 0x20 ADD DUP1 DUP4 GT PUSH2 0x1A34 JUMPI DUP3 SWAP1 SUB PUSH1 0x1F AND DUP3 ADD SWAP2 JUMPDEST POP POP POP POP POP SWAP2 POP DUP1 DUP1 SLOAD PUSH2 0x1A64 SWAP1 PUSH2 0x45FE JUMP JUMPDEST DUP1 PUSH1 0x1F ADD PUSH1 0x20 DUP1 SWAP2 DIV MUL PUSH1 0x20 ADD PUSH1 0x40 MLOAD SWAP1 DUP2 ADD PUSH1 0x40 MSTORE DUP1 SWAP3 SWAP2 SWAP1 DUP2 DUP2 MSTORE PUSH1 0x20 ADD DUP3 DUP1 SLOAD PUSH2 0x1A90 SWAP1 PUSH2 0x45FE JUMP JUMPDEST DUP1 ISZERO PUSH2 0x1ADD JUMPI DUP1 PUSH1 0x1F LT PUSH2 0x1AB2 JUMPI PUSH2 0x100 DUP1 DUP4 SLOAD DIV MUL DUP4 MSTORE SWAP2 PUSH1 0x20 ADD SWAP2 PUSH2 0x1ADD JUMP JUMPDEST DUP3 ADD SWAP2 SWAP1 PUSH1 0x0 MSTORE PUSH1 0x20 PUSH1 0x0 KECCAK256 SWAP1 JUMPDEST DUP2 SLOAD DUP2 MSTORE SWAP1 PUSH1 0x1 ADD SWAP1 PUSH1 0x20 ADD DUP1 DUP4 GT PUSH2 0x1AC0 JUMPI DUP3 SWAP1 SUB PUSH1 0x1F AND DUP3 ADD SWAP2 JUMPDEST POP POP POP POP POP SWAP1 POP SWAP7 POP SWAP7 POP SWAP7 POP SWAP7 POP SWAP7 POP POP POP SWAP2 SWAP4 SWAP6 SWAP1 SWAP3 SWAP5 POP JUMP JUMPDEST PUSH2 0x1B01 PUSH2 0x37AF JUMP JUMPDEST DUP1 MLOAD DUP3 MLOAD EQ PUSH2 0x1B22 JUMPI PUSH1 0x40 MLOAD PUSH3 0x461BCD PUSH1 0xE5 SHL DUP2 MSTORE PUSH1 0x4 ADD PUSH2 0x4CE SWAP1 PUSH2 0x4582 JUMP JUMPDEST PUSH1 0x0 JUMPDEST DUP3 MLOAD DUP2 LT ISZERO PUSH2 0x1DE4 JUMPI PUSH1 0x0 DUP4 DUP3 DUP2 MLOAD DUP2 LT PUSH2 0x1B42 JUMPI PUSH2 0x1B42 PUSH2 0x45B9 JUMP JUMPDEST PUSH1 0x20 MUL PUSH1 0x20 ADD ADD MLOAD SWAP1 POP PUSH1 0x0 DUP4 DUP4 DUP2 MLOAD DUP2 LT PUSH2 0x1B60 JUMPI PUSH2 0x1B60 PUSH2 0x45B9 JUMP JUMPDEST PUSH1 0x20 MUL PUSH1 0x20 ADD ADD MLOAD SWAP1 POP PUSH1 0x0 PUSH1 0x1 PUSH1 0x1 PUSH1 0xA0 SHL SUB AND DUP3 PUSH1 0x1 PUSH1 0x1 PUSH1 0xA0 SHL SUB AND SUB PUSH2 0x1BBE JUMPI PUSH1 0x40 MLOAD PUSH3 0x461BCD PUSH1 0xE5 SHL DUP2 MSTORE PUSH1 0x20 PUSH1 0x4 DUP3 ADD MSTORE PUSH1 0xF PUSH1 0x24 DUP3 ADD MSTORE PUSH15 0x496E76616C69642061646472657373 PUSH1 0x88 SHL PUSH1 0x44 DUP3 ADD MSTORE PUSH1 0x64 ADD PUSH2 0x4CE JUMP JUMPDEST PUSH1 0x1 PUSH1 0x1 PUSH1 0xA0 SHL SUB DUP2 AND PUSH2 0x1D0D JUMPI PUSH1 0x0 JUMPDEST PUSH1 0x1 SLOAD DUP2 LT ISZERO PUSH2 0x1D07 JUMPI DUP3 PUSH1 0x1 PUSH1 0x1 PUSH1 0xA0 SHL SUB AND PUSH1 0x1 DUP3 DUP2 SLOAD DUP2 LT PUSH2 0x1BF6 JUMPI PUSH2 0x1BF6 PUSH2 0x45B9 JUMP JUMPDEST PUSH1 0x0 SWAP2 DUP3 MSTORE PUSH1 0x20 SWAP1 SWAP2 KECCAK256 ADD SLOAD PUSH1 0x1 PUSH1 0x1 PUSH1 0xA0 SHL SUB AND SUB PUSH2 0x1CF5 JUMPI PUSH1 0x1 DUP1 SLOAD PUSH2 0x1C1F SWAP1 DUP3 SWAP1 PUSH2 0x4843 JUMP JUMPDEST DUP2 SLOAD DUP2 LT PUSH2 0x1C2F JUMPI PUSH2 0x1C2F PUSH2 0x45B9 JUMP JUMPDEST PUSH1 0x0 SWAP2 DUP3 MSTORE PUSH1 0x20 SWAP1 SWAP2 KECCAK256 ADD SLOAD PUSH1 0x1 DUP1 SLOAD PUSH1 0x1 PUSH1 0x1 PUSH1 0xA0 SHL SUB SWAP1 SWAP3 AND SWAP2 DUP4 SWAP1 DUP2 LT PUSH2 0x1C5B JUMPI PUSH2 0x1C5B PUSH2 0x45B9 JUMP JUMPDEST SWAP1 PUSH1 0x0 MSTORE PUSH1 0x20 PUSH1 0x0 KECCAK256 ADD PUSH1 0x0 PUSH2 0x100 EXP DUP2 SLOAD DUP2 PUSH1 0x1 PUSH1 0x1 PUSH1 0xA0 SHL SUB MUL NOT AND SWAP1 DUP4 PUSH1 0x1 PUSH1 0x1 PUSH1 0xA0 SHL SUB AND MUL OR SWAP1 SSTORE POP PUSH1 0x1 DUP1 SLOAD DUP1 PUSH2 0x1C9A JUMPI PUSH2 0x1C9A PUSH2 0x4884 JUMP JUMPDEST PUSH1 0x0 DUP3 DUP2 MSTORE PUSH1 0x20 DUP2 KECCAK256 DUP3 ADD PUSH1 0x0 NOT SWAP1 DUP2 ADD DUP1 SLOAD PUSH1 0x1 PUSH1 0x1 PUSH1 0xA0 SHL SUB NOT AND SWAP1 SSTORE SWAP1 SWAP2 ADD SWAP1 SWAP2 SSTORE PUSH1 0x40 MLOAD PUSH1 0x1 PUSH1 0x1 PUSH1 0xA0 SHL SUB DUP6 AND SWAP2 PUSH32 0x44A3CD4EB5CC5748F6169DF057B1CB2AE4C383E87CD94663C430E095D4CBA424 SWAP2 LOG2 PUSH2 0x1D07 JUMP JUMPDEST DUP1 PUSH2 0x1CFF DUP2 PUSH2 0x4776 JUMP JUMPDEST SWAP2 POP POP PUSH2 0x1BCF JUMP JUMPDEST POP PUSH2 0x1DCF JUMP JUMPDEST PUSH1 0x0 JUMPDEST PUSH1 0x1 SLOAD DUP2 LT ISZERO PUSH2 0x1DCD JUMPI DUP3 PUSH1 0x1 PUSH1 0x1 PUSH1 0xA0 SHL SUB AND PUSH1 0x1 DUP3 DUP2 SLOAD DUP2 LT PUSH2 0x1D37 JUMPI PUSH2 0x1D37 PUSH2 0x45B9 JUMP JUMPDEST PUSH1 0x0 SWAP2 DUP3 MSTORE PUSH1 0x20 SWAP1 SWAP2 KECCAK256 ADD SLOAD PUSH1 0x1 PUSH1 0x1 PUSH1 0xA0 SHL SUB AND SUB PUSH2 0x1DBB JUMPI DUP2 PUSH1 0x1 DUP3 DUP2 SLOAD DUP2 LT PUSH2 0x1D65 JUMPI PUSH2 0x1D65 PUSH2 0x45B9 JUMP JUMPDEST PUSH1 0x0 SWAP2 DUP3 MSTORE PUSH1 0x20 DUP3 KECCAK256 ADD DUP1 SLOAD PUSH1 0x1 PUSH1 0x1 PUSH1 0xA0 SHL SUB NOT AND PUSH1 0x1 PUSH1 0x1 PUSH1 0xA0 SHL SUB SWAP4 DUP5 AND OR SWAP1 SSTORE PUSH1 0x40 MLOAD DUP5 DUP4 AND SWAP3 DUP7 AND SWAP2 PUSH32 0x50D741FE04AD9863C69D1406658F6EC7C4F5E48EC2FAF966A36A3E47FC05C9D9 SWAP2 LOG3 PUSH2 0x1DCD JUMP JUMPDEST DUP1 PUSH2 0x1DC5 DUP2 PUSH2 0x4776 JUMP JUMPDEST SWAP2 POP POP PUSH2 0x1D10 JUMP JUMPDEST POP JUMPDEST POP POP DUP1 DUP1 PUSH2 0x1DDC SWAP1 PUSH2 0x4776 JUMP JUMPDEST SWAP2 POP POP PUSH2 0x1B25 JUMP JUMPDEST POP POP POP JUMP JUMPDEST PUSH2 0x1DF1 PUSH2 0x37A4 JUMP JUMPDEST DUP1 PUSH2 0x1E06 JUMPI POP PUSH1 0x0 SLOAD PUSH1 0x1 PUSH1 0x1 PUSH1 0xA0 SHL SUB AND CALLER EQ JUMPDEST PUSH2 0x1E22 JUMPI PUSH1 0x40 MLOAD PUSH3 0x461BCD PUSH1 0xE5 SHL DUP2 MSTORE PUSH1 0x4 ADD PUSH2 0x4CE SWAP1 PUSH2 0x454B JUMP JUMPDEST PUSH1 0x0 DUP2 MLOAD GT PUSH2 0x1E73 JUMPI PUSH1 0x40 MLOAD PUSH3 0x461BCD PUSH1 0xE5 SHL DUP2 MSTORE PUSH1 0x20 PUSH1 0x4 DUP3 ADD MSTORE PUSH1 0x17 PUSH1 0x24 DUP3 ADD MSTORE PUSH32 0x4E6F20636F6D70616E79204944732070726F7669646564000000000000000000 PUSH1 0x44 DUP3 ADD MSTORE PUSH1 0x64 ADD PUSH2 0x4CE JUMP JUMPDEST PUSH1 0x0 JUMPDEST DUP2 MLOAD DUP2 LT ISZERO PUSH2 0x1FCE JUMPI PUSH1 0x0 DUP3 DUP3 DUP2 MLOAD DUP2 LT PUSH2 0x1E93 JUMPI PUSH2 0x1E93 PUSH2 0x45B9 JUMP JUMPDEST PUSH1 0x20 MUL PUSH1 0x20 ADD ADD MLOAD SWAP1 POP PUSH1 0x5 DUP1 SLOAD SWAP1 POP DUP2 GT ISZERO PUSH2 0x1EE7 JUMPI PUSH1 0x40 MLOAD PUSH3 0x461BCD PUSH1 0xE5 SHL DUP2 MSTORE PUSH1 0x20 PUSH1 0x4 DUP3 ADD MSTORE PUSH1 0x12 PUSH1 0x24 DUP3 ADD MSTORE PUSH18 0x125B9D985B1A590818DBDB5C185B9E481251 PUSH1 0x72 SHL PUSH1 0x44 DUP3 ADD MSTORE PUSH1 0x64 ADD PUSH2 0x4CE JUMP JUMPDEST PUSH1 0x0 PUSH2 0x1EF4 PUSH1 0x1 DUP4 PUSH2 0x4843 JUMP JUMPDEST PUSH1 0x40 MLOAD SWAP1 SWAP2 POP DUP3 SWAP1 PUSH32 0x28FE2791B514C47642F0D652F7C237752AEA1929ED16396EF24B45EB7E2B315 SWAP1 PUSH1 0x0 SWAP1 LOG2 PUSH1 0x5 DUP2 DUP2 SLOAD DUP2 LT PUSH2 0x1F35 JUMPI PUSH2 0x1F35 PUSH2 0x45B9 JUMP JUMPDEST PUSH1 0x0 SWAP2 DUP3 MSTORE PUSH1 0x20 DUP3 KECCAK256 PUSH1 0x9 SWAP1 SWAP2 MUL ADD DUP2 DUP2 SSTORE PUSH1 0x1 DUP2 ADD DUP1 SLOAD PUSH1 0x1 PUSH1 0x1 PUSH1 0xA0 SHL SUB NOT AND SWAP1 SSTORE SWAP1 PUSH2 0x1F67 PUSH1 0x2 DUP4 ADD DUP3 PUSH2 0x390D JUMP JUMPDEST PUSH1 0x3 DUP3 ADD PUSH1 0x0 SWAP1 SSTORE PUSH1 0x4 DUP3 ADD PUSH1 0x0 PUSH2 0x1F7F SWAP2 SWAP1 PUSH2 0x3947 JUMP JUMPDEST PUSH2 0x1F8D PUSH1 0x5 DUP4 ADD PUSH1 0x0 PUSH2 0x390D JUMP JUMPDEST PUSH2 0x1F9B PUSH1 0x6 DUP4 ADD PUSH1 0x0 PUSH2 0x390D JUMP JUMPDEST PUSH2 0x1FA9 PUSH1 0x7 DUP4 ADD PUSH1 0x0 PUSH2 0x390D JUMP JUMPDEST PUSH2 0x1FB7 PUSH1 0x8 DUP4 ADD PUSH1 0x0 PUSH2 0x390D JUMP JUMPDEST POP POP POP POP DUP1 DUP1 PUSH2 0x1FC6 SWAP1 PUSH2 0x4776 JUMP JUMPDEST SWAP2 POP POP PUSH2 0x1E76 JUMP JUMPDEST POP POP JUMP JUMPDEST PUSH1 0x6 SLOAD PUSH1 0x60 SWAP1 DUP3 GT ISZERO PUSH2 0x1FF7 JUMPI PUSH1 0x40 MLOAD PUSH3 0x461BCD PUSH1 0xE5 SHL DUP2 MSTORE PUSH1 0x4 ADD PUSH2 0x4CE SWAP1 PUSH2 0x4856 JUMP JUMPDEST PUSH1 0x0 PUSH2 0x2004 PUSH1 0x1 DUP5 PUSH2 0x4843 JUMP JUMPDEST SWAP1 POP PUSH1 0x0 PUSH1 0x6 DUP3 DUP2 SLOAD DUP2 LT PUSH2 0x201B JUMPI PUSH2 0x201B PUSH2 0x45B9 JUMP JUMPDEST SWAP1 PUSH1 0x0 MSTORE PUSH1 0x20 PUSH1 0x0 KECCAK256 SWAP1 PUSH1 0x9 MUL ADD SWAP1 POP DUP1 PUSH1 0x5 ADD SLOAD PUSH1 0x0 SUB PUSH2 0x204F JUMPI PUSH1 0x40 MLOAD PUSH3 0x461BCD PUSH1 0xE5 SHL DUP2 MSTORE PUSH1 0x4 ADD PUSH2 0x4CE SWAP1 PUSH2 0x47BE JUMP JUMPDEST PUSH1 0x0 DUP2 PUSH1 0x4 ADD DUP1 SLOAD DUP1 PUSH1 0x20 MUL PUSH1 0x20 ADD PUSH1 0x40 MLOAD SWAP1 DUP2 ADD PUSH1 0x40 MSTORE DUP1 SWAP3 SWAP2 SWAP1 DUP2 DUP2 MSTORE PUSH1 0x20 ADD DUP3 DUP1 SLOAD DUP1 ISZERO PUSH2 0x209F JUMPI PUSH1 0x20 MUL DUP3 ADD SWAP2 SWAP1 PUSH1 0x0 MSTORE PUSH1 0x20 PUSH1 0x0 KECCAK256 SWAP1 JUMPDEST DUP2 SLOAD DUP2 MSTORE PUSH1 0x20 ADD SWAP1 PUSH1 0x1 ADD SWAP1 DUP1 DUP4 GT PUSH2 0x208B JUMPI JUMPDEST POP POP POP POP POP SWAP1 POP PUSH1 0x0 DUP2 MLOAD PUSH1 0x1 PUSH1 0x1 PUSH1 0x40 SHL SUB DUP2 GT ISZERO PUSH2 0x20C1 JUMPI PUSH2 0x20C1 PUSH2 0x39CA JUMP JUMPDEST PUSH1 0x40 MLOAD SWAP1 DUP1 DUP3 MSTORE DUP1 PUSH1 0x20 MUL PUSH1 0x20 ADD DUP3 ADD PUSH1 0x40 MSTORE DUP1 ISZERO PUSH2 0x20FA JUMPI DUP2 PUSH1 0x20 ADD JUMPDEST PUSH2 0x20E7 PUSH2 0x3965 JUMP JUMPDEST DUP2 MSTORE PUSH1 0x20 ADD SWAP1 PUSH1 0x1 SWAP1 SUB SWAP1 DUP2 PUSH2 0x20DF JUMPI SWAP1 POP JUMPDEST POP SWAP1 POP PUSH1 0x0 JUMPDEST DUP3 MLOAD DUP2 LT ISZERO PUSH2 0x2407 JUMPI PUSH1 0x7 DUP4 DUP3 DUP2 MLOAD DUP2 LT PUSH2 0x211D JUMPI PUSH2 0x211D PUSH2 0x45B9 JUMP JUMPDEST PUSH1 0x20 MUL PUSH1 0x20 ADD ADD MLOAD DUP2 SLOAD DUP2 LT PUSH2 0x2135 JUMPI PUSH2 0x2135 PUSH2 0x45B9 JUMP JUMPDEST SWAP1 PUSH1 0x0 MSTORE PUSH1 0x20 PUSH1 0x0 KECCAK256 SWAP1 PUSH1 0x8 MUL ADD PUSH1 0x40 MLOAD DUP1 PUSH2 0x120 ADD PUSH1 0x40 MSTORE SWAP1 DUP2 PUSH1 0x0 DUP3 ADD SLOAD DUP2 MSTORE PUSH1 0x20 ADD PUSH1 0x1 DUP3 ADD DUP1 SLOAD PUSH2 0x2169 SWAP1 PUSH2 0x45FE JUMP JUMPDEST DUP1 PUSH1 0x1F ADD PUSH1 0x20 DUP1 SWAP2 DIV MUL PUSH1 0x20 ADD PUSH1 0x40 MLOAD SWAP1 DUP2 ADD PUSH1 0x40 MSTORE DUP1 SWAP3 SWAP2 SWAP1 DUP2 DUP2 MSTORE PUSH1 0x20 ADD DUP3 DUP1 SLOAD PUSH2 0x2195 SWAP1 PUSH2 0x45FE JUMP JUMPDEST DUP1 ISZERO PUSH2 0x21E2 JUMPI DUP1 PUSH1 0x1F LT PUSH2 0x21B7 JUMPI PUSH2 0x100 DUP1 DUP4 SLOAD DIV MUL DUP4 MSTORE SWAP2 PUSH1 0x20 ADD SWAP2 PUSH2 0x21E2 JUMP JUMPDEST DUP3 ADD SWAP2 SWAP1 PUSH1 0x0 MSTORE PUSH1 0x20 PUSH1 0x0 KECCAK256 SWAP1 JUMPDEST DUP2 SLOAD DUP2 MSTORE SWAP1 PUSH1 0x1 ADD SWAP1 PUSH1 0x20 ADD DUP1 DUP4 GT PUSH2 0x21C5 JUMPI DUP3 SWAP1 SUB PUSH1 0x1F AND DUP3 ADD SWAP2 JUMPDEST POP POP POP POP POP DUP2 MSTORE PUSH1 0x20 ADD PUSH1 0x2 DUP3 ADD SLOAD DUP2 MSTORE PUSH1 0x20 ADD PUSH1 0x3 DUP3 ADD DUP1 SLOAD PUSH2 0x2205 SWAP1 PUSH2 0x45FE JUMP JUMPDEST DUP1 PUSH1 0x1F ADD PUSH1 0x20 DUP1 SWAP2 DIV MUL PUSH1 0x20 ADD PUSH1 0x40 MLOAD SWAP1 DUP2 ADD PUSH1 0x40 MSTORE DUP1 SWAP3 SWAP2 SWAP1 DUP2 DUP2 MSTORE PUSH1 0x20 ADD DUP3 DUP1 SLOAD PUSH2 0x2231 SWAP1 PUSH2 0x45FE JUMP JUMPDEST DUP1 ISZERO PUSH2 0x227E JUMPI DUP1 PUSH1 0x1F LT PUSH2 0x2253 JUMPI PUSH2 0x100 DUP1 DUP4 SLOAD DIV MUL DUP4 MSTORE SWAP2 PUSH1 0x20 ADD SWAP2 PUSH2 0x227E JUMP JUMPDEST DUP3 ADD SWAP2 SWAP1 PUSH1 0x0 MSTORE PUSH1 0x20 PUSH1 0x0 KECCAK256 SWAP1 JUMPDEST DUP2 SLOAD DUP2 MSTORE SWAP1 PUSH1 0x1 ADD SWAP1 PUSH1 0x20 ADD DUP1 DUP4 GT PUSH2 0x2261 JUMPI DUP3 SWAP1 SUB PUSH1 0x1F AND DUP3 ADD SWAP2 JUMPDEST POP POP POP POP POP DUP2 MSTORE PUSH1 0x20 ADD PUSH1 0x4 DUP3 ADD DUP1 SLOAD PUSH2 0x2297 SWAP1 PUSH2 0x45FE JUMP JUMPDEST DUP1 PUSH1 0x1F ADD PUSH1 0x20 DUP1 SWAP2 DIV MUL PUSH1 0x20 ADD PUSH1 0x40 MLOAD SWAP1 DUP2 ADD PUSH1 0x40 MSTORE DUP1 SWAP3 SWAP2 SWAP1 DUP2 DUP2 MSTORE PUSH1 0x20 ADD DUP3 DUP1 SLOAD PUSH2 0x22C3 SWAP1 PUSH2 0x45FE JUMP JUMPDEST DUP1 ISZERO PUSH2 0x2310 JUMPI DUP1 PUSH1 0x1F LT PUSH2 0x22E5 JUMPI PUSH2 0x100 DUP1 DUP4 SLOAD DIV MUL DUP4 MSTORE SWAP2 PUSH1 0x20 ADD SWAP2 PUSH2 0x2310 JUMP JUMPDEST DUP3 ADD SWAP2 SWAP1 PUSH1 0x0 MSTORE PUSH1 0x20 PUSH1 0x0 KECCAK256 SWAP1 JUMPDEST DUP2 SLOAD DUP2 MSTORE SWAP1 PUSH1 0x1 ADD SWAP1 PUSH1 0x20 ADD DUP1 DUP4 GT PUSH2 0x22F3 JUMPI DUP3 SWAP1 SUB PUSH1 0x1F AND DUP3 ADD SWAP2 JUMPDEST POP POP POP POP POP DUP2 MSTORE PUSH1 0x20 ADD PUSH1 0x5 DUP3 ADD DUP1 SLOAD PUSH2 0x2329 SWAP1 PUSH2 0x45FE JUMP JUMPDEST DUP1 PUSH1 0x1F ADD PUSH1 0x20 DUP1 SWAP2 DIV MUL PUSH1 0x20 ADD PUSH1 0x40 MLOAD SWAP1 DUP2 ADD PUSH1 0x40 MSTORE DUP1 SWAP3 SWAP2 SWAP1 DUP2 DUP2 MSTORE PUSH1 0x20 ADD DUP3 DUP1 SLOAD PUSH2 0x2355 SWAP1 PUSH2 0x45FE JUMP JUMPDEST DUP1 ISZERO PUSH2 0x23A2 JUMPI DUP1 PUSH1 0x1F LT PUSH2 0x2377 JUMPI PUSH2 0x100 DUP1 DUP4 SLOAD DIV MUL DUP4 MSTORE SWAP2 PUSH1 0x20 ADD SWAP2 PUSH2 0x23A2 JUMP JUMPDEST DUP3 ADD SWAP2 SWAP1 PUSH1 0x0 MSTORE PUSH1 0x20 PUSH1 0x0 KECCAK256 SWAP1 JUMPDEST DUP2 SLOAD DUP2 MSTORE SWAP1 PUSH1 0x1 ADD SWAP1 PUSH1 0x20 ADD DUP1 DUP4 GT PUSH2 0x2385 JUMPI DUP3 SWAP1 SUB PUSH1 0x1F AND DUP3 ADD SWAP2 JUMPDEST POP POP POP SWAP2 DUP4 MSTORE POP POP PUSH1 0x6 DUP3 ADD SLOAD PUSH1 0xFF DUP1 DUP3 AND ISZERO ISZERO PUSH1 0x20 DUP5 ADD MSTORE PUSH2 0x100 SWAP1 SWAP2 DIV AND ISZERO ISZERO PUSH1 0x40 DUP3 ADD MSTORE PUSH1 0x7 SWAP1 SWAP2 ADD SLOAD PUSH1 0x60 SWAP1 SWAP2 ADD MSTORE DUP3 MLOAD DUP4 SWAP1 DUP4 SWAP1 DUP2 LT PUSH2 0x23E9 JUMPI PUSH2 0x23E9 PUSH2 0x45B9 JUMP JUMPDEST PUSH1 0x20 MUL PUSH1 0x20 ADD ADD DUP2 SWAP1 MSTORE POP DUP1 DUP1 PUSH2 0x23FF SWAP1 PUSH2 0x4776 JUMP JUMPDEST SWAP2 POP POP PUSH2 0x2100 JUMP JUMPDEST POP SWAP6 SWAP5 POP POP POP POP POP JUMP JUMPDEST PUSH2 0x2419 PUSH2 0x37AF JUMP JUMPDEST PUSH2 0x2423 PUSH1 0x0 PUSH2 0x3809 JUMP JUMPDEST JUMP JUMPDEST CALLER PUSH1 0x0 SWAP1 DUP2 MSTORE PUSH1 0x3 PUSH1 0x20 MSTORE PUSH1 0x40 SWAP1 KECCAK256 SLOAD PUSH2 0x2451 JUMPI PUSH1 0x40 MLOAD PUSH3 0x461BCD PUSH1 0xE5 SHL DUP2 MSTORE PUSH1 0x4 ADD PUSH2 0x4CE SWAP1 PUSH2 0x478F JUMP JUMPDEST DUP4 MLOAD DUP6 MLOAD EQ PUSH2 0x2472 JUMPI PUSH1 0x40 MLOAD PUSH3 0x461BCD PUSH1 0xE5 SHL DUP2 MSTORE PUSH1 0x4 ADD PUSH2 0x4CE SWAP1 PUSH2 0x4582 JUMP JUMPDEST PUSH1 0x0 JUMPDEST DUP6 MLOAD DUP2 LT ISZERO PUSH2 0xCEF JUMPI PUSH1 0x0 DUP7 DUP3 DUP2 MLOAD DUP2 LT PUSH2 0x2492 JUMPI PUSH2 0x2492 PUSH2 0x45B9 JUMP JUMPDEST PUSH1 0x20 MUL PUSH1 0x20 ADD ADD MLOAD SWAP1 POP PUSH1 0x0 DUP7 DUP4 DUP2 MLOAD DUP2 LT PUSH2 0x24B0 JUMPI PUSH2 0x24B0 PUSH2 0x45B9 JUMP JUMPDEST PUSH1 0x20 MUL PUSH1 0x20 ADD ADD MLOAD SWAP1 POP PUSH1 0x0 DUP7 DUP5 DUP2 MLOAD DUP2 LT PUSH2 0x24CE JUMPI PUSH2 0x24CE PUSH2 0x45B9 JUMP JUMPDEST PUSH1 0x20 MUL PUSH1 0x20 ADD ADD MLOAD SWAP1 POP PUSH1 0x0 DUP7 DUP6 DUP2 MLOAD DUP2 LT PUSH2 0x24EC JUMPI PUSH2 0x24EC PUSH2 0x45B9 JUMP JUMPDEST PUSH1 0x20 MUL PUSH1 0x20 ADD ADD MLOAD SWAP1 POP PUSH1 0x0 DUP7 DUP7 DUP2 MLOAD DUP2 LT PUSH2 0x250A JUMPI PUSH2 0x250A PUSH2 0x45B9 JUMP JUMPDEST PUSH1 0x20 MUL PUSH1 0x20 ADD ADD MLOAD SWAP1 POP PUSH1 0x4 PUSH1 0x0 DUP7 PUSH1 0x1 PUSH1 0x1 PUSH1 0xA0 SHL SUB AND PUSH1 0x1 PUSH1 0x1 PUSH1 0xA0 SHL SUB AND DUP2 MSTORE PUSH1 0x20 ADD SWAP1 DUP2 MSTORE PUSH1 0x20 ADD PUSH1 0x0 KECCAK256 SLOAD PUSH1 0x0 EQ PUSH2 0x25A1 JUMPI PUSH1 0x40 MLOAD PUSH3 0x461BCD PUSH1 0xE5 SHL DUP2 MSTORE PUSH1 0x20 PUSH1 0x4 DUP3 ADD MSTORE PUSH1 0x2F PUSH1 0x24 DUP3 ADD MSTORE PUSH32 0x43616E64696461746520776974682074686520676976656E2061646472657373 PUSH1 0x44 DUP3 ADD MSTORE PUSH15 0x20616C726561647920657869737473 PUSH1 0x88 SHL PUSH1 0x64 DUP3 ADD MSTORE PUSH1 0x84 ADD PUSH2 0x4CE JUMP JUMPDEST PUSH1 0x1 PUSH1 0x1 PUSH1 0xA0 SHL SUB DUP6 AND PUSH2 0x25F0 JUMPI PUSH1 0x40 MLOAD PUSH3 0x461BCD PUSH1 0xE5 SHL DUP2 MSTORE PUSH1 0x20 PUSH1 0x4 DUP3 ADD MSTORE PUSH1 0x16 PUSH1 0x24 DUP3 ADD MSTORE PUSH22 0x416464726573732063616E6E6F74206265207A65726F PUSH1 0x50 SHL PUSH1 0x44 DUP3 ADD MSTORE PUSH1 0x64 ADD PUSH2 0x4CE JUMP JUMPDEST PUSH1 0x0 DUP5 MLOAD GT PUSH2 0x2638 JUMPI PUSH1 0x40 MLOAD PUSH3 0x461BCD PUSH1 0xE5 SHL DUP2 MSTORE PUSH1 0x20 PUSH1 0x4 DUP3 ADD MSTORE PUSH1 0x14 PUSH1 0x24 DUP3 ADD MSTORE PUSH20 0x4E616D652063616E6E6F7420626520656D707479 PUSH1 0x60 SHL PUSH1 0x44 DUP3 ADD MSTORE PUSH1 0x64 ADD PUSH2 0x4CE JUMP JUMPDEST PUSH1 0x6 SLOAD PUSH1 0x0 SWAP1 PUSH2 0x2649 SWAP1 PUSH1 0x1 PUSH2 0x45E5 JUMP JUMPDEST SWAP1 POP PUSH1 0x6 PUSH1 0x40 MLOAD DUP1 PUSH2 0x120 ADD PUSH1 0x40 MSTORE DUP1 TIMESTAMP DUP2 MSTORE PUSH1 0x20 ADD DUP9 PUSH1 0x1 PUSH1 0x1 PUSH1 0xA0 SHL SUB AND DUP2 MSTORE PUSH1 0x20 ADD CALLER PUSH1 0x1 PUSH1 0x1 PUSH1 0xA0 SHL SUB AND DUP2 MSTORE PUSH1 0x20 ADD DUP8 DUP2 MSTORE PUSH1 0x20 ADD PUSH1 0x0 PUSH1 0x1 PUSH1 0x1 PUSH1 0x40 SHL SUB DUP2 GT ISZERO PUSH2 0x269C JUMPI PUSH2 0x269C PUSH2 0x39CA JUMP JUMPDEST PUSH1 0x40 MLOAD SWAP1 DUP1 DUP3 MSTORE DUP1 PUSH1 0x20 MUL PUSH1 0x20 ADD DUP3 ADD PUSH1 0x40 MSTORE DUP1 ISZERO PUSH2 0x26C5 JUMPI DUP2 PUSH1 0x20 ADD PUSH1 0x20 DUP3 MUL DUP1 CALLDATASIZE DUP4 CALLDATACOPY ADD SWAP1 POP JUMPDEST POP DUP2 MSTORE PUSH1 0x20 DUP1 DUP3 ADD DUP6 SWAP1 MSTORE PUSH1 0x40 DUP1 DUP4 ADD DUP10 SWAP1 MSTORE PUSH1 0x60 DUP1 DUP5 ADD DUP10 SWAP1 MSTORE PUSH1 0x80 SWAP1 SWAP4 ADD DUP8 SWAP1 MSTORE DUP5 SLOAD PUSH1 0x1 DUP2 DUP2 ADD DUP8 SSTORE PUSH1 0x0 SWAP7 DUP8 MSTORE SWAP6 DUP4 SWAP1 KECCAK256 DUP6 MLOAD PUSH1 0x9 SWAP1 SWAP3 MUL ADD SWAP1 DUP2 SSTORE SWAP2 DUP5 ADD MLOAD SWAP5 DUP3 ADD DUP1 SLOAD PUSH1 0x1 PUSH1 0x1 PUSH1 0xA0 SHL SUB SWAP7 DUP8 AND PUSH1 0x1 PUSH1 0x1 PUSH1 0xA0 SHL SUB NOT SWAP2 DUP3 AND OR SWAP1 SWAP2 SSTORE SWAP1 DUP5 ADD MLOAD PUSH1 0x2 DUP4 ADD DUP1 SLOAD SWAP2 SWAP1 SWAP7 AND SWAP2 AND OR SWAP1 SWAP4 SSTORE DUP2 ADD MLOAD SWAP1 SWAP2 SWAP1 PUSH1 0x3 DUP3 ADD SWAP1 PUSH2 0x2752 SWAP1 DUP3 PUSH2 0x467E JUMP JUMPDEST POP PUSH1 0x80 DUP3 ADD MLOAD DUP1 MLOAD PUSH2 0x276E SWAP2 PUSH1 0x4 DUP5 ADD SWAP2 PUSH1 0x20 SWAP1 SWAP2 ADD SWAP1 PUSH2 0x38C2 JUMP JUMPDEST POP PUSH1 0xA0 DUP3 ADD MLOAD PUSH1 0x5 DUP3 ADD SSTORE PUSH1 0xC0 DUP3 ADD MLOAD PUSH1 0x6 DUP3 ADD SWAP1 PUSH2 0x278D SWAP1 DUP3 PUSH2 0x467E JUMP JUMPDEST POP PUSH1 0xE0 DUP3 ADD MLOAD PUSH1 0x7 DUP3 ADD SWAP1 PUSH2 0x27A2 SWAP1 DUP3 PUSH2 0x467E JUMP JUMPDEST POP PUSH2 0x100 DUP3 ADD MLOAD PUSH1 0x8 DUP3 ADD SWAP1 PUSH2 0x27B8 SWAP1 DUP3 PUSH2 0x467E JUMP JUMPDEST POP POP CALLER PUSH1 0x0 SWAP1 DUP2 MSTORE PUSH1 0x3 PUSH1 0x20 MSTORE PUSH1 0x40 SWAP1 KECCAK256 SLOAD PUSH1 0x5 SWAP2 POP PUSH2 0x27DA SWAP1 PUSH1 0x1 SWAP1 PUSH2 0x4843 JUMP JUMPDEST DUP2 SLOAD DUP2 LT PUSH2 0x27EA JUMPI PUSH2 0x27EA PUSH2 0x45B9 JUMP JUMPDEST PUSH1 0x0 SWAP2 DUP3 MSTORE PUSH1 0x20 DUP1 DUP4 KECCAK256 PUSH1 0x4 PUSH1 0x9 SWAP1 SWAP4 MUL ADD DUP3 ADD DUP1 SLOAD PUSH1 0x1 DUP2 ADD DUP3 SSTORE SWAP1 DUP5 MSTORE DUP2 DUP5 KECCAK256 ADD DUP5 SWAP1 SSTORE PUSH1 0x1 PUSH1 0x1 PUSH1 0xA0 SHL SUB DUP10 AND DUP4 MSTORE MSTORE PUSH1 0x40 SWAP1 DUP2 SWAP1 KECCAK256 DUP3 SWAP1 SSTORE MLOAD DUP2 SWAP1 PUSH32 0x1908F3F8BF9E04CBEE388CDEA6025F92E954127DEC768C7E092AFB158071F0D0 SWAP1 PUSH2 0x285C SWAP1 DUP9 SWAP1 DUP9 SWAP1 DUP9 SWAP1 DUP9 SWAP1 PUSH2 0x489A JUMP JUMPDEST PUSH1 0x40 MLOAD DUP1 SWAP2 SUB SWAP1 LOG2 POP POP POP POP POP POP DUP1 DUP1 PUSH2 0x2875 SWAP1 PUSH2 0x4776 JUMP JUMPDEST SWAP2 POP POP PUSH2 0x2475 JUMP JUMPDEST SWAP1 POP SWAP1 JUMP JUMPDEST PUSH1 0x6 SLOAD PUSH1 0x60 SWAP1 DUP3 GT ISZERO PUSH2 0x28A7 JUMPI PUSH1 0x40 MLOAD PUSH3 0x461BCD PUSH1 0xE5 SHL DUP2 MSTORE PUSH1 0x4 ADD PUSH2 0x4CE SWAP1 PUSH2 0x4856 JUMP JUMPDEST PUSH1 0x0 PUSH2 0x28B4 PUSH1 0x1 DUP5 PUSH2 0x4843 JUMP JUMPDEST SWAP1 POP PUSH1 0x0 PUSH1 0x6 DUP3 DUP2 SLOAD DUP2 LT PUSH2 0x28CB JUMPI PUSH2 0x28CB PUSH2 0x45B9 JUMP JUMPDEST SWAP1 PUSH1 0x0 MSTORE PUSH1 0x20 PUSH1 0x0 KECCAK256 SWAP1 PUSH1 0x9 MUL ADD SWAP1 POP DUP1 PUSH1 0x5 ADD SLOAD PUSH1 0x0 SUB PUSH2 0x28FF JUMPI PUSH1 0x40 MLOAD PUSH3 0x461BCD PUSH1 0xE5 SHL DUP2 MSTORE PUSH1 0x4 ADD PUSH2 0x4CE SWAP1 PUSH2 0x47BE JUMP JUMPDEST PUSH1 0x0 DUP2 PUSH1 0x4 ADD DUP1 SLOAD DUP1 PUSH1 0x20 MUL PUSH1 0x20 ADD PUSH1 0x40 MLOAD SWAP1 DUP2 ADD PUSH1 0x40 MSTORE DUP1 SWAP3 SWAP2 SWAP1 DUP2 DUP2 MSTORE PUSH1 0x20 ADD DUP3 DUP1 SLOAD DUP1 ISZERO PUSH2 0x294F JUMPI PUSH1 0x20 MUL DUP3 ADD SWAP2 SWAP1 PUSH1 0x0 MSTORE PUSH1 0x20 PUSH1 0x0 KECCAK256 SWAP1 JUMPDEST DUP2 SLOAD DUP2 MSTORE PUSH1 0x20 ADD SWAP1 PUSH1 0x1 ADD SWAP1 DUP1 DUP4 GT PUSH2 0x293B JUMPI JUMPDEST POP POP POP POP POP SWAP1 POP PUSH1 0x0 DUP2 MLOAD PUSH1 0x1 PUSH1 0x1 PUSH1 0x40 SHL SUB DUP2 GT ISZERO PUSH2 0x2971 JUMPI PUSH2 0x2971 PUSH2 0x39CA JUMP JUMPDEST PUSH1 0x40 MLOAD SWAP1 DUP1 DUP3 MSTORE DUP1 PUSH1 0x20 MUL PUSH1 0x20 ADD DUP3 ADD PUSH1 0x40 MSTORE DUP1 ISZERO PUSH2 0x29AA JUMPI DUP2 PUSH1 0x20 ADD JUMPDEST PUSH2 0x2997 PUSH2 0x3965 JUMP JUMPDEST DUP2 MSTORE PUSH1 0x20 ADD SWAP1 PUSH1 0x1 SWAP1 SUB SWAP1 DUP2 PUSH2 0x298F JUMPI SWAP1 POP JUMPDEST POP SWAP1 POP PUSH1 0x0 JUMPDEST DUP3 MLOAD DUP2 LT ISZERO PUSH2 0x2407 JUMPI PUSH1 0x7 PUSH1 0x1 DUP5 DUP4 DUP2 MLOAD DUP2 LT PUSH2 0x29CF JUMPI PUSH2 0x29CF PUSH2 0x45B9 JUMP JUMPDEST PUSH1 0x20 MUL PUSH1 0x20 ADD ADD MLOAD PUSH2 0x29E1 SWAP2 SWAP1 PUSH2 0x4843 JUMP JUMPDEST DUP2 SLOAD DUP2 LT PUSH2 0x29F1 JUMPI PUSH2 0x29F1 PUSH2 0x45B9 JUMP JUMPDEST SWAP1 PUSH1 0x0 MSTORE PUSH1 0x20 PUSH1 0x0 KECCAK256 SWAP1 PUSH1 0x8 MUL ADD PUSH1 0x40 MLOAD DUP1 PUSH2 0x120 ADD PUSH1 0x40 MSTORE SWAP1 DUP2 PUSH1 0x0 DUP3 ADD SLOAD DUP2 MSTORE PUSH1 0x20 ADD PUSH1 0x1 DUP3 ADD DUP1 SLOAD PUSH2 0x2A25 SWAP1 PUSH2 0x45FE JUMP JUMPDEST DUP1 PUSH1 0x1F ADD PUSH1 0x20 DUP1 SWAP2 DIV MUL PUSH1 0x20 ADD PUSH1 0x40 MLOAD SWAP1 DUP2 ADD PUSH1 0x40 MSTORE DUP1 SWAP3 SWAP2 SWAP1 DUP2 DUP2 MSTORE PUSH1 0x20 ADD DUP3 DUP1 SLOAD PUSH2 0x2A51 SWAP1 PUSH2 0x45FE JUMP JUMPDEST DUP1 ISZERO PUSH2 0x2A9E JUMPI DUP1 PUSH1 0x1F LT PUSH2 0x2A73 JUMPI PUSH2 0x100 DUP1 DUP4 SLOAD DIV MUL DUP4 MSTORE SWAP2 PUSH1 0x20 ADD SWAP2 PUSH2 0x2A9E JUMP JUMPDEST DUP3 ADD SWAP2 SWAP1 PUSH1 0x0 MSTORE PUSH1 0x20 PUSH1 0x0 KECCAK256 SWAP1 JUMPDEST DUP2 SLOAD DUP2 MSTORE SWAP1 PUSH1 0x1 ADD SWAP1 PUSH1 0x20 ADD DUP1 DUP4 GT PUSH2 0x2A81 JUMPI DUP3 SWAP1 SUB PUSH1 0x1F AND DUP3 ADD SWAP2 JUMPDEST POP POP POP POP POP DUP2 MSTORE PUSH1 0x20 ADD PUSH1 0x2 DUP3 ADD SLOAD DUP2 MSTORE PUSH1 0x20 ADD PUSH1 0x3 DUP3 ADD DUP1 SLOAD PUSH2 0x2AC1 SWAP1 PUSH2 0x45FE JUMP JUMPDEST DUP1 PUSH1 0x1F ADD PUSH1 0x20 DUP1 SWAP2 DIV MUL PUSH1 0x20 ADD PUSH1 0x40 MLOAD SWAP1 DUP2 ADD PUSH1 0x40 MSTORE DUP1 SWAP3 SWAP2 SWAP1 DUP2 DUP2 MSTORE PUSH1 0x20 ADD DUP3 DUP1 SLOAD PUSH2 0x2AED SWAP1 PUSH2 0x45FE JUMP JUMPDEST DUP1 ISZERO PUSH2 0x2B3A JUMPI DUP1 PUSH1 0x1F LT PUSH2 0x2B0F JUMPI PUSH2 0x100 DUP1 DUP4 SLOAD DIV MUL DUP4 MSTORE SWAP2 PUSH1 0x20 ADD SWAP2 PUSH2 0x2B3A JUMP JUMPDEST DUP3 ADD SWAP2 SWAP1 PUSH1 0x0 MSTORE PUSH1 0x20 PUSH1 0x0 KECCAK256 SWAP1 JUMPDEST DUP2 SLOAD DUP2 MSTORE SWAP1 PUSH1 0x1 ADD SWAP1 PUSH1 0x20 ADD DUP1 DUP4 GT PUSH2 0x2B1D JUMPI DUP3 SWAP1 SUB PUSH1 0x1F AND DUP3 ADD SWAP2 JUMPDEST POP POP POP POP POP DUP2 MSTORE PUSH1 0x20 ADD PUSH1 0x4 DUP3 ADD DUP1 SLOAD PUSH2 0x2B53 SWAP1 PUSH2 0x45FE JUMP JUMPDEST DUP1 PUSH1 0x1F ADD PUSH1 0x20 DUP1 SWAP2 DIV MUL PUSH1 0x20 ADD PUSH1 0x40 MLOAD SWAP1 DUP2 ADD PUSH1 0x40 MSTORE DUP1 SWAP3 SWAP2 SWAP1 DUP2 DUP2 MSTORE PUSH1 0x20 ADD DUP3 DUP1 SLOAD PUSH2 0x2B7F SWAP1 PUSH2 0x45FE JUMP JUMPDEST DUP1 ISZERO PUSH2 0x2BCC JUMPI DUP1 PUSH1 0x1F LT PUSH2 0x2BA1 JUMPI PUSH2 0x100 DUP1 DUP4 SLOAD DIV MUL DUP4 MSTORE SWAP2 PUSH1 0x20 ADD SWAP2 PUSH2 0x2BCC JUMP JUMPDEST DUP3 ADD SWAP2 SWAP1 PUSH1 0x0 MSTORE PUSH1 0x20 PUSH1 0x0 KECCAK256 SWAP1 JUMPDEST DUP2 SLOAD DUP2 MSTORE SWAP1 PUSH1 0x1 ADD SWAP1 PUSH1 0x20 ADD DUP1 DUP4 GT PUSH2 0x2BAF JUMPI DUP3 SWAP1 SUB PUSH1 0x1F AND DUP3 ADD SWAP2 JUMPDEST POP POP POP POP POP DUP2 MSTORE PUSH1 0x20 ADD PUSH1 0x5 DUP3 ADD DUP1 SLOAD PUSH2 0x2BE5 SWAP1 PUSH2 0x45FE JUMP JUMPDEST DUP1 PUSH1 0x1F ADD PUSH1 0x20 DUP1 SWAP2 DIV MUL PUSH1 0x20 ADD PUSH1 0x40 MLOAD SWAP1 DUP2 ADD PUSH1 0x40 MSTORE DUP1 SWAP3 SWAP2 SWAP1 DUP2 DUP2 MSTORE PUSH1 0x20 ADD DUP3 DUP1 SLOAD PUSH2 0x2C11 SWAP1 PUSH2 0x45FE JUMP JUMPDEST DUP1 ISZERO PUSH2 0x2C5E JUMPI DUP1 PUSH1 0x1F LT PUSH2 0x2C33 JUMPI PUSH2 0x100 DUP1 DUP4 SLOAD DIV MUL DUP4 MSTORE SWAP2 PUSH1 0x20 ADD SWAP2 PUSH2 0x2C5E JUMP JUMPDEST DUP3 ADD SWAP2 SWAP1 PUSH1 0x0 MSTORE PUSH1 0x20 PUSH1 0x0 KECCAK256 SWAP1 JUMPDEST DUP2 SLOAD DUP2 MSTORE SWAP1 PUSH1 0x1 ADD SWAP1 PUSH1 0x20 ADD DUP1 DUP4 GT PUSH2 0x2C41 JUMPI DUP3 SWAP1 SUB PUSH1 0x1F AND DUP3 ADD SWAP2 JUMPDEST POP POP POP SWAP2 DUP4 MSTORE POP POP PUSH1 0x6 DUP3 ADD SLOAD PUSH1 0xFF DUP1 DUP3 AND ISZERO ISZERO PUSH1 0x20 DUP5 ADD MSTORE PUSH2 0x100 SWAP1 SWAP2 DIV AND ISZERO ISZERO PUSH1 0x40 DUP3 ADD MSTORE PUSH1 0x7 SWAP1 SWAP2 ADD SLOAD PUSH1 0x60 SWAP1 SWAP2 ADD MSTORE DUP3 MLOAD DUP4 SWAP1 DUP4 SWAP1 DUP2 LT PUSH2 0x2CA5 JUMPI PUSH2 0x2CA5 PUSH2 0x45B9 JUMP JUMPDEST PUSH1 0x20 MUL PUSH1 0x20 ADD ADD DUP2 SWAP1 MSTORE POP DUP1 DUP1 PUSH2 0x2CBB SWAP1 PUSH2 0x4776 JUMP JUMPDEST SWAP2 POP POP PUSH2 0x29B0 JUMP JUMPDEST PUSH1 0x60 PUSH1 0x1 DUP1 SLOAD DUP1 PUSH1 0x20 MUL PUSH1 0x20 ADD PUSH1 0x40 MLOAD SWAP1 DUP2 ADD PUSH1 0x40 MSTORE DUP1 SWAP3 SWAP2 SWAP1 DUP2 DUP2 MSTORE PUSH1 0x20 ADD DUP3 DUP1 SLOAD DUP1 ISZERO PUSH2 0x2D1B JUMPI PUSH1 0x20 MUL DUP3 ADD SWAP2 SWAP1 PUSH1 0x0 MSTORE PUSH1 0x20 PUSH1 0x0 KECCAK256 SWAP1 JUMPDEST DUP2 SLOAD PUSH1 0x1 PUSH1 0x1 PUSH1 0xA0 SHL SUB AND DUP2 MSTORE PUSH1 0x1 SWAP1 SWAP2 ADD SWAP1 PUSH1 0x20 ADD DUP1 DUP4 GT PUSH2 0x2CFD JUMPI JUMPDEST POP POP POP POP POP SWAP1 POP SWAP1 JUMP JUMPDEST PUSH1 0x1 DUP2 DUP2 SLOAD DUP2 LT PUSH2 0x2D35 JUMPI PUSH1 0x0 DUP1 REVERT JUMPDEST PUSH1 0x0 SWAP2 DUP3 MSTORE PUSH1 0x20 SWAP1 SWAP2 KECCAK256 ADD SLOAD PUSH1 0x1 PUSH1 0x1 PUSH1 0xA0 SHL SUB AND SWAP1 POP DUP2 JUMP JUMPDEST PUSH2 0x2D57 PUSH2 0x37AF JUMP JUMPDEST PUSH1 0x0 DUP2 MLOAD GT PUSH2 0x2D9E JUMPI PUSH1 0x40 MLOAD PUSH3 0x461BCD PUSH1 0xE5 SHL DUP2 MSTORE PUSH1 0x20 PUSH1 0x4 DUP3 ADD MSTORE PUSH1 0x13 PUSH1 0x24 DUP3 ADD MSTORE PUSH19 0x139BC81D995C9A599A595C9CC81D1BC8185919 PUSH1 0x6A SHL PUSH1 0x44 DUP3 ADD MSTORE PUSH1 0x64 ADD PUSH2 0x4CE JUMP JUMPDEST PUSH1 0x2 SLOAD DUP2 MLOAD PUSH1 0x1 SLOAD PUSH2 0x2DB0 SWAP2 SWAP1 PUSH2 0x45E5 JUMP JUMPDEST GT ISZERO PUSH2 0x2E0A JUMPI PUSH1 0x40 MLOAD PUSH3 0x461BCD PUSH1 0xE5 SHL DUP2 MSTORE PUSH1 0x20 PUSH1 0x4 DUP3 ADD MSTORE PUSH1 0x23 PUSH1 0x24 DUP3 ADD MSTORE PUSH32 0x45786365656473206D6178696D756D206E756D626572206F6620766572696669 PUSH1 0x44 DUP3 ADD MSTORE PUSH3 0x657273 PUSH1 0xE8 SHL PUSH1 0x64 DUP3 ADD MSTORE PUSH1 0x84 ADD PUSH2 0x4CE JUMP JUMPDEST PUSH1 0x0 JUMPDEST DUP2 MLOAD DUP2 LT ISZERO PUSH2 0x1FCE JUMPI PUSH1 0x0 DUP3 DUP3 DUP2 MLOAD DUP2 LT PUSH2 0x2E2A JUMPI PUSH2 0x2E2A PUSH2 0x45B9 JUMP JUMPDEST PUSH1 0x20 MUL PUSH1 0x20 ADD ADD MLOAD SWAP1 POP PUSH1 0x0 PUSH1 0x1 PUSH1 0x1 PUSH1 0xA0 SHL SUB AND DUP2 PUSH1 0x1 PUSH1 0x1 PUSH1 0xA0 SHL SUB AND SUB PUSH2 0x2E88 JUMPI PUSH1 0x40 MLOAD PUSH3 0x461BCD PUSH1 0xE5 SHL DUP2 MSTORE PUSH1 0x20 PUSH1 0x4 DUP3 ADD MSTORE PUSH1 0xF PUSH1 0x24 DUP3 ADD MSTORE PUSH15 0x496E76616C69642061646472657373 PUSH1 0x88 SHL PUSH1 0x44 DUP3 ADD MSTORE PUSH1 0x64 ADD PUSH2 0x4CE JUMP JUMPDEST PUSH1 0x1 DUP1 SLOAD DUP1 DUP3 ADD DUP3 SSTORE PUSH1 0x0 SWAP2 DUP3 MSTORE PUSH32 0xB10E2D527612073B26EECDFD717E6A320CF44B4AFAC2B0732D9FCBE2B7FA0CF6 ADD DUP1 SLOAD PUSH1 0x1 PUSH1 0x1 PUSH1 0xA0 SHL SUB NOT AND PUSH1 0x1 PUSH1 0x1 PUSH1 0xA0 SHL SUB DUP5 AND SWAP1 DUP2 OR SWAP1 SWAP2 SSTORE PUSH1 0x40 MLOAD SWAP1 SWAP2 PUSH32 0x6D05492139C5EA989514A5D2150C028041E5C087E2A39967F67DC7D2655ADB81 SWAP2 LOG2 POP DUP1 PUSH2 0x2F07 DUP2 PUSH2 0x4776 JUMP JUMPDEST SWAP2 POP POP PUSH2 0x2E0D JUMP JUMPDEST CALLER PUSH1 0x0 SWAP1 DUP2 MSTORE PUSH1 0x3 PUSH1 0x20 MSTORE PUSH1 0x40 SWAP1 KECCAK256 SLOAD PUSH2 0x2F3B JUMPI PUSH1 0x40 MLOAD PUSH3 0x461BCD PUSH1 0xE5 SHL DUP2 MSTORE PUSH1 0x4 ADD PUSH2 0x4CE SWAP1 PUSH2 0x478F JUMP JUMPDEST DUP1 MLOAD DUP3 MLOAD EQ PUSH2 0x2F5C JUMPI PUSH1 0x40 MLOAD PUSH3 0x461BCD PUSH1 0xE5 SHL DUP2 MSTORE PUSH1 0x4 ADD PUSH2 0x4CE SWAP1 PUSH2 0x4582 JUMP JUMPDEST PUSH1 0x0 JUMPDEST DUP3 MLOAD DUP2 LT ISZERO PUSH2 0x1DE4 JUMPI PUSH1 0x0 DUP4 DUP3 DUP2 MLOAD DUP2 LT PUSH2 0x2F7C JUMPI PUSH2 0x2F7C PUSH2 0x45B9 JUMP JUMPDEST PUSH1 0x20 MUL PUSH1 0x20 ADD ADD MLOAD SWAP1 POP PUSH1 0x0 DUP4 DUP4 DUP2 MLOAD DUP2 LT PUSH2 0x2F9A JUMPI PUSH2 0x2F9A PUSH2 0x45B9 JUMP JUMPDEST PUSH1 0x20 MUL PUSH1 0x20 ADD ADD MLOAD SWAP1 POP PUSH1 0x6 DUP3 DUP2 SLOAD DUP2 LT PUSH2 0x2FB7 JUMPI PUSH2 0x2FB7 PUSH2 0x45B9 JUMP JUMPDEST SWAP1 PUSH1 0x0 MSTORE PUSH1 0x20 PUSH1 0x0 KECCAK256 SWAP1 PUSH1 0x9 MUL ADD PUSH1 0x5 ADD SLOAD PUSH1 0x0 SUB PUSH2 0x2FE8 JUMPI PUSH1 0x40 MLOAD PUSH3 0x461BCD PUSH1 0xE5 SHL DUP2 MSTORE PUSH1 0x4 ADD PUSH2 0x4CE SWAP1 PUSH2 0x47BE JUMP JUMPDEST PUSH1 0x0 PUSH2 0x2FF5 PUSH1 0x1 DUP4 PUSH2 0x4843 JUMP JUMPDEST PUSH1 0x40 DUP1 MLOAD DUP5 DUP2 MSTORE PUSH1 0x20 DUP2 ADD DUP7 SWAP1 MSTORE SWAP2 SWAP3 POP PUSH32 0x61656CB8D1DC6013BB7713AE498059B6F4DF3C60E832E655A6765C0C54863008 SWAP2 ADD PUSH1 0x40 MLOAD DUP1 SWAP2 SUB SWAP1 LOG1 PUSH1 0x6 DUP4 DUP2 SLOAD DUP2 LT PUSH2 0x3044 JUMPI PUSH2 0x3044 PUSH2 0x45B9 JUMP JUMPDEST SWAP1 PUSH1 0x0 MSTORE PUSH1 0x20 PUSH1 0x0 KECCAK256 SWAP1 PUSH1 0x9 MUL ADD PUSH1 0x4 ADD DUP2 DUP2 SLOAD DUP2 LT PUSH2 0x3066 JUMPI PUSH2 0x3066 PUSH2 0x45B9 JUMP JUMPDEST SWAP1 PUSH1 0x0 MSTORE PUSH1 0x20 PUSH1 0x0 KECCAK256 ADD PUSH1 0x0 SWAP1 SSTORE POP POP POP DUP1 DUP1 PUSH2 0x3082 SWAP1 PUSH2 0x4776 JUMP JUMPDEST SWAP2 POP POP PUSH2 0x2F5F JUMP JUMPDEST CALLER PUSH1 0x0 SWAP1 DUP2 MSTORE PUSH1 0x3 PUSH1 0x20 MSTORE PUSH1 0x40 SWAP1 KECCAK256 SLOAD PUSH2 0x30B6 JUMPI PUSH1 0x40 MLOAD PUSH3 0x461BCD PUSH1 0xE5 SHL DUP2 MSTORE PUSH1 0x4 ADD PUSH2 0x4CE SWAP1 PUSH2 0x478F JUMP JUMPDEST PUSH1 0x6 DUP6 DUP2 SLOAD DUP2 LT PUSH2 0x30C9 JUMPI PUSH2 0x30C9 PUSH2 0x45B9 JUMP JUMPDEST SWAP1 PUSH1 0x0 MSTORE PUSH1 0x20 PUSH1 0x0 KECCAK256 SWAP1 PUSH1 0x9 MUL ADD PUSH1 0x5 ADD SLOAD PUSH1 0x0 SUB PUSH2 0x30FA JUMPI PUSH1 0x40 MLOAD PUSH3 0x461BCD PUSH1 0xE5 SHL DUP2 MSTORE PUSH1 0x4 ADD PUSH2 0x4CE SWAP1 PUSH2 0x47BE JUMP JUMPDEST CALLER PUSH1 0x1 PUSH1 0x1 PUSH1 0xA0 SHL SUB AND PUSH1 0x6 DUP7 DUP2 SLOAD DUP2 LT PUSH2 0x3117 JUMPI PUSH2 0x3117 PUSH2 0x45B9 JUMP JUMPDEST PUSH1 0x0 SWAP2 DUP3 MSTORE PUSH1 0x20 SWAP1 SWAP2 KECCAK256 PUSH1 0x2 PUSH1 0x9 SWAP1 SWAP3 MUL ADD ADD SLOAD PUSH1 0x1 PUSH1 0x1 PUSH1 0xA0 SHL SUB AND EQ PUSH2 0x319B JUMPI PUSH1 0x40 MLOAD PUSH3 0x461BCD PUSH1 0xE5 SHL DUP2 MSTORE PUSH1 0x20 PUSH1 0x4 DUP3 ADD MSTORE PUSH1 0x31 PUSH1 0x24 DUP3 ADD MSTORE PUSH32 0x596F7520646F206E6F742068617665207065726D697373696F6E20746F206564 PUSH1 0x44 DUP3 ADD MSTORE PUSH17 0x697420746869732063616E646964617465 PUSH1 0x78 SHL PUSH1 0x64 DUP3 ADD MSTORE PUSH1 0x84 ADD PUSH2 0x4CE JUMP JUMPDEST DUP4 PUSH1 0x6 DUP7 DUP2 SLOAD DUP2 LT PUSH2 0x31AF JUMPI PUSH2 0x31AF PUSH2 0x45B9 JUMP JUMPDEST SWAP1 PUSH1 0x0 MSTORE PUSH1 0x20 PUSH1 0x0 KECCAK256 SWAP1 PUSH1 0x9 MUL ADD PUSH1 0x3 ADD SWAP1 DUP2 PUSH2 0x31CC SWAP2 SWAP1 PUSH2 0x467E JUMP JUMPDEST POP DUP3 PUSH1 0x6 DUP7 DUP2 SLOAD DUP2 LT PUSH2 0x31E1 JUMPI PUSH2 0x31E1 PUSH2 0x45B9 JUMP JUMPDEST SWAP1 PUSH1 0x0 MSTORE PUSH1 0x20 PUSH1 0x0 KECCAK256 SWAP1 PUSH1 0x9 MUL ADD PUSH1 0x6 ADD SWAP1 DUP2 PUSH2 0x31FE SWAP2 SWAP1 PUSH2 0x467E JUMP JUMPDEST POP DUP2 PUSH1 0x6 DUP7 DUP2 SLOAD DUP2 LT PUSH2 0x3213 JUMPI PUSH2 0x3213 PUSH2 0x45B9 JUMP JUMPDEST SWAP1 PUSH1 0x0 MSTORE PUSH1 0x20 PUSH1 0x0 KECCAK256 SWAP1 PUSH1 0x9 MUL ADD PUSH1 0x7 ADD SWAP1 DUP2 PUSH2 0x3230 SWAP2 SWAP1 PUSH2 0x467E JUMP JUMPDEST POP DUP1 PUSH1 0x6 DUP7 DUP2 SLOAD DUP2 LT PUSH2 0x3245 JUMPI PUSH2 0x3245 PUSH2 0x45B9 JUMP JUMPDEST SWAP1 PUSH1 0x0 MSTORE PUSH1 0x20 PUSH1 0x0 KECCAK256 SWAP1 PUSH1 0x9 MUL ADD PUSH1 0x8 ADD SWAP1 DUP2 PUSH2 0x3262 SWAP2 SWAP1 PUSH2 0x467E JUMP JUMPDEST POP DUP5 PUSH32 0x3A644A3850D6352DF61B7CD6576765EAAFC13F0E881F637864CAACDB1ED8905C DUP6 DUP6 DUP6 DUP6 PUSH1 0x40 MLOAD PUSH2 0x3299 SWAP5 SWAP4 SWAP3 SWAP2 SWAP1 PUSH2 0x489A JUMP JUMPDEST PUSH1 0x40 MLOAD DUP1 SWAP2 SUB SWAP1 LOG2 POP POP POP POP POP JUMP JUMPDEST PUSH1 0x7 DUP2 DUP2 SLOAD DUP2 LT PUSH2 0x32B8 JUMPI PUSH1 0x0 DUP1 REVERT JUMPDEST PUSH1 0x0 SWAP2 DUP3 MSTORE PUSH1 0x20 SWAP1 SWAP2 KECCAK256 PUSH1 0x8 SWAP1 SWAP2 MUL ADD DUP1 SLOAD PUSH1 0x1 DUP3 ADD DUP1 SLOAD SWAP2 SWAP4 POP SWAP1 PUSH2 0x32DD SWAP1 PUSH2 0x45FE JUMP JUMPDEST DUP1 PUSH1 0x1F ADD PUSH1 0x20 DUP1 SWAP2 DIV MUL PUSH1 0x20 ADD PUSH1 0x40 MLOAD SWAP1 DUP2 ADD PUSH1 0x40 MSTORE DUP1 SWAP3 SWAP2 SWAP1 DUP2 DUP2 MSTORE PUSH1 0x20 ADD DUP3 DUP1 SLOAD PUSH2 0x3309 SWAP1 PUSH2 0x45FE JUMP JUMPDEST DUP1 ISZERO PUSH2 0x3356 JUMPI DUP1 PUSH1 0x1F LT PUSH2 0x332B JUMPI PUSH2 0x100 DUP1 DUP4 SLOAD DIV MUL DUP4 MSTORE SWAP2 PUSH1 0x20 ADD SWAP2 PUSH2 0x3356 JUMP JUMPDEST DUP3 ADD SWAP2 SWAP1 PUSH1 0x0 MSTORE PUSH1 0x20 PUSH1 0x0 KECCAK256 SWAP1 JUMPDEST DUP2 SLOAD DUP2 MSTORE SWAP1 PUSH1 0x1 ADD SWAP1 PUSH1 0x20 ADD DUP1 DUP4 GT PUSH2 0x3339 JUMPI DUP3 SWAP1 SUB PUSH1 0x1F AND DUP3 ADD SWAP2 JUMPDEST POP POP POP POP POP SWAP1 DUP1 PUSH1 0x2 ADD SLOAD SWAP1 DUP1 PUSH1 0x3 ADD DUP1 SLOAD PUSH2 0x3371 SWAP1 PUSH2 0x45FE JUMP JUMPDEST DUP1 PUSH1 0x1F ADD PUSH1 0x20 DUP1 SWAP2 DIV MUL PUSH1 0x20 ADD PUSH1 0x40 MLOAD SWAP1 DUP2 ADD PUSH1 0x40 MSTORE DUP1 SWAP3 SWAP2 SWAP1 DUP2 DUP2 MSTORE PUSH1 0x20 ADD DUP3 DUP1 SLOAD PUSH2 0x339D SWAP1 PUSH2 0x45FE JUMP JUMPDEST DUP1 ISZERO PUSH2 0x33EA JUMPI DUP1 PUSH1 0x1F LT PUSH2 0x33BF JUMPI PUSH2 0x100 DUP1 DUP4 SLOAD DIV MUL DUP4 MSTORE SWAP2 PUSH1 0x20 ADD SWAP2 PUSH2 0x33EA JUMP JUMPDEST DUP3 ADD SWAP2 SWAP1 PUSH1 0x0 MSTORE PUSH1 0x20 PUSH1 0x0 KECCAK256 SWAP1 JUMPDEST DUP2 SLOAD DUP2 MSTORE SWAP1 PUSH1 0x1 ADD SWAP1 PUSH1 0x20 ADD DUP1 DUP4 GT PUSH2 0x33CD JUMPI DUP3 SWAP1 SUB PUSH1 0x1F AND DUP3 ADD SWAP2 JUMPDEST POP POP POP POP POP SWAP1 DUP1 PUSH1 0x4 ADD DUP1 SLOAD PUSH2 0x33FF SWAP1 PUSH2 0x45FE JUMP JUMPDEST DUP1 PUSH1 0x1F ADD PUSH1 0x20 DUP1 SWAP2 DIV MUL PUSH1 0x20 ADD PUSH1 0x40 MLOAD SWAP1 DUP2 ADD PUSH1 0x40 MSTORE DUP1 SWAP3 SWAP2 SWAP1 DUP2 DUP2 MSTORE PUSH1 0x20 ADD DUP3 DUP1 SLOAD PUSH2 0x342B SWAP1 PUSH2 0x45FE JUMP JUMPDEST DUP1 ISZERO PUSH2 0x3478 JUMPI DUP1 PUSH1 0x1F LT PUSH2 0x344D JUMPI PUSH2 0x100 DUP1 DUP4 SLOAD DIV MUL DUP4 MSTORE SWAP2 PUSH1 0x20 ADD SWAP2 PUSH2 0x3478 JUMP JUMPDEST DUP3 ADD SWAP2 SWAP1 PUSH1 0x0 MSTORE PUSH1 0x20 PUSH1 0x0 KECCAK256 SWAP1 JUMPDEST DUP2 SLOAD DUP2 MSTORE SWAP1 PUSH1 0x1 ADD SWAP1 PUSH1 0x20 ADD DUP1 DUP4 GT PUSH2 0x345B JUMPI DUP3 SWAP1 SUB PUSH1 0x1F AND DUP3 ADD SWAP2 JUMPDEST POP POP POP POP POP SWAP1 DUP1 PUSH1 0x5 ADD DUP1 SLOAD PUSH2 0x348D SWAP1 PUSH2 0x45FE JUMP JUMPDEST DUP1 PUSH1 0x1F ADD PUSH1 0x20 DUP1 SWAP2 DIV MUL PUSH1 0x20 ADD PUSH1 0x40 MLOAD SWAP1 DUP2 ADD PUSH1 0x40 MSTORE DUP1 SWAP3 SWAP2 SWAP1 DUP2 DUP2 MSTORE PUSH1 0x20 ADD DUP3 DUP1 SLOAD PUSH2 0x34B9 SWAP1 PUSH2 0x45FE JUMP JUMPDEST DUP1 ISZERO PUSH2 0x3506 JUMPI DUP1 PUSH1 0x1F LT PUSH2 0x34DB JUMPI PUSH2 0x100 DUP1 DUP4 SLOAD DIV MUL DUP4 MSTORE SWAP2 PUSH1 0x20 ADD SWAP2 PUSH2 0x3506 JUMP JUMPDEST DUP3 ADD SWAP2 SWAP1 PUSH1 0x0 MSTORE PUSH1 0x20 PUSH1 0x0 KECCAK256 SWAP1 JUMPDEST DUP2 SLOAD DUP2 MSTORE SWAP1 PUSH1 0x1 ADD SWAP1 PUSH1 0x20 ADD DUP1 DUP4 GT PUSH2 0x34E9 JUMPI DUP3 SWAP1 SUB PUSH1 0x1F AND DUP3 ADD SWAP2 JUMPDEST POP POP POP POP PUSH1 0x6 DUP4 ADD SLOAD PUSH1 0x7 SWAP1 SWAP4 ADD SLOAD SWAP2 SWAP3 PUSH1 0xFF DUP1 DUP3 AND SWAP4 PUSH2 0x100 SWAP1 SWAP3 DIV AND SWAP2 POP DUP10 JUMP JUMPDEST PUSH2 0x3531 PUSH2 0x37A4 JUMP JUMPDEST DUP1 PUSH2 0x354A JUMPI POP CALLER PUSH1 0x0 SWAP1 DUP2 MSTORE PUSH1 0x3 PUSH1 0x20 MSTORE PUSH1 0x40 SWAP1 KECCAK256 SLOAD ISZERO ISZERO JUMPDEST PUSH2 0x3566 JUMPI PUSH1 0x40 MLOAD PUSH3 0x461BCD PUSH1 0xE5 SHL DUP2 MSTORE PUSH1 0x4 ADD PUSH2 0x4CE SWAP1 PUSH2 0x454B JUMP JUMPDEST PUSH1 0x0 JUMPDEST DUP2 MLOAD DUP2 LT ISZERO PUSH2 0x1FCE JUMPI PUSH1 0x0 DUP3 DUP3 DUP2 MLOAD DUP2 LT PUSH2 0x3586 JUMPI PUSH2 0x3586 PUSH2 0x45B9 JUMP JUMPDEST PUSH1 0x20 MUL PUSH1 0x20 ADD ADD MLOAD SWAP1 POP PUSH1 0x6 DUP2 DUP2 SLOAD DUP2 LT PUSH2 0x35A3 JUMPI PUSH2 0x35A3 PUSH2 0x45B9 JUMP JUMPDEST SWAP1 PUSH1 0x0 MSTORE PUSH1 0x20 PUSH1 0x0 KECCAK256 SWAP1 PUSH1 0x9 MUL ADD PUSH1 0x5 ADD SLOAD PUSH1 0x0 SUB PUSH2 0x35D4 JUMPI PUSH1 0x40 MLOAD PUSH3 0x461BCD PUSH1 0xE5 SHL DUP2 MSTORE PUSH1 0x4 ADD PUSH2 0x4CE SWAP1 PUSH2 0x47BE JUMP JUMPDEST PUSH1 0x0 PUSH2 0x35E1 PUSH1 0x1 DUP4 PUSH2 0x4843 JUMP JUMPDEST PUSH1 0x40 MLOAD SWAP1 SWAP2 POP DUP3 SWAP1 PUSH32 0x294C5A9BC8A39E6E06502BC8DA429980F6C7B0990D75B682C12CB8705E3ACE85 SWAP1 PUSH1 0x0 SWAP1 LOG2 PUSH1 0x6 DUP2 DUP2 SLOAD DUP2 LT PUSH2 0x3622 JUMPI PUSH2 0x3622 PUSH2 0x45B9 JUMP JUMPDEST PUSH1 0x0 SWAP2 DUP3 MSTORE PUSH1 0x20 DUP3 KECCAK256 PUSH1 0x9 SWAP1 SWAP2 MUL ADD DUP2 DUP2 SSTORE PUSH1 0x1 DUP2 ADD DUP1 SLOAD PUSH1 0x1 PUSH1 0x1 PUSH1 0xA0 SHL SUB NOT SWAP1 DUP2 AND SWAP1 SWAP2 SSTORE PUSH1 0x2 DUP3 ADD DUP1 SLOAD SWAP1 SWAP2 AND SWAP1 SSTORE SWAP1 PUSH2 0x3662 PUSH1 0x3 DUP4 ADD DUP3 PUSH2 0x390D JUMP JUMPDEST PUSH2 0x3670 PUSH1 0x4 DUP4 ADD PUSH1 0x0 PUSH2 0x3947 JUMP JUMPDEST PUSH1 0x5 DUP3 ADD PUSH1 0x0 SWAP1 SSTORE PUSH1 0x6 DUP3 ADD PUSH1 0x0 PUSH2 0x3688 SWAP2 SWAP1 PUSH2 0x390D JUMP JUMPDEST PUSH2 0x3696 PUSH1 0x7 DUP4 ADD PUSH1 0x0 PUSH2 0x390D JUMP JUMPDEST PUSH2 0x36A4 PUSH1 0x8 DUP4 ADD PUSH1 0x0 PUSH2 0x390D JUMP JUMPDEST POP POP POP POP DUP1 DUP1 PUSH2 0x36B3 SWAP1 PUSH2 0x4776 JUMP JUMPDEST SWAP2 POP POP PUSH2 0x3569 JUMP JUMPDEST PUSH2 0x36C3 PUSH2 0x37AF JUMP JUMPDEST PUSH1 0x1 PUSH1 0x1 PUSH1 0xA0 SHL SUB DUP2 AND PUSH2 0x3728 JUMPI PUSH1 0x40 MLOAD PUSH3 0x461BCD PUSH1 0xE5 SHL DUP2 MSTORE PUSH1 0x20 PUSH1 0x4 DUP3 ADD MSTORE PUSH1 0x26 PUSH1 0x24 DUP3 ADD MSTORE PUSH32 0x4F776E61626C653A206E6577206F776E657220697320746865207A65726F2061 PUSH1 0x44 DUP3 ADD MSTORE PUSH6 0x646472657373 PUSH1 0xD0 SHL PUSH1 0x64 DUP3 ADD MSTORE PUSH1 0x84 ADD PUSH2 0x4CE JUMP JUMPDEST PUSH2 0x3731 DUP2 PUSH2 0x3809 JUMP JUMPDEST POP JUMP JUMPDEST PUSH2 0x373C PUSH2 0x37AF JUMP JUMPDEST PUSH1 0x0 DUP2 GT PUSH2 0x379F JUMPI PUSH1 0x40 MLOAD PUSH3 0x461BCD PUSH1 0xE5 SHL DUP2 MSTORE PUSH1 0x20 PUSH1 0x4 DUP3 ADD MSTORE PUSH1 0x2A PUSH1 0x24 DUP3 ADD MSTORE PUSH32 0x4D6178696D756D207665726966696572732073686F756C642062652067726561 PUSH1 0x44 DUP3 ADD MSTORE PUSH10 0x746572207468616E203 PUSH1 0xB4 SHL PUSH1 0x64 DUP3 ADD MSTORE PUSH1 0x84 ADD PUSH2 0x4CE JUMP JUMPDEST PUSH1 0x2 SSTORE JUMP JUMPDEST PUSH1 0x0 PUSH2 0x287D CALLER PUSH2 0x3859 JUMP JUMPDEST PUSH1 0x0 SLOAD PUSH1 0x1 PUSH1 0x1 PUSH1 0xA0 SHL SUB AND CALLER EQ PUSH2 0x2423 JUMPI PUSH1 0x40 MLOAD PUSH3 0x461BCD PUSH1 0xE5 SHL DUP2 MSTORE PUSH1 0x20 PUSH1 0x4 DUP3 ADD DUP2 SWAP1 MSTORE PUSH1 0x24 DUP3 ADD MSTORE PUSH32 0x4F776E61626C653A2063616C6C6572206973206E6F7420746865206F776E6572 PUSH1 0x44 DUP3 ADD MSTORE PUSH1 0x64 ADD PUSH2 0x4CE JUMP JUMPDEST PUSH1 0x0 DUP1 SLOAD PUSH1 0x1 PUSH1 0x1 PUSH1 0xA0 SHL SUB DUP4 DUP2 AND PUSH1 0x1 PUSH1 0x1 PUSH1 0xA0 SHL SUB NOT DUP4 AND DUP2 OR DUP5 SSTORE PUSH1 0x40 MLOAD SWAP2 SWAP1 SWAP3 AND SWAP3 DUP4 SWAP2 PUSH32 0x8BE0079C531659141344CD1FD0A4F28419497F9722A3DAAFE3B4186F6B6457E0 SWAP2 SWAP1 LOG3 POP POP JUMP JUMPDEST PUSH1 0x0 DUP1 JUMPDEST PUSH1 0x1 SLOAD DUP2 LT ISZERO PUSH2 0x38B9 JUMPI DUP3 PUSH1 0x1 PUSH1 0x1 PUSH1 0xA0 SHL SUB AND PUSH1 0x1 DUP3 DUP2 SLOAD DUP2 LT PUSH2 0x3884 JUMPI PUSH2 0x3884 PUSH2 0x45B9 JUMP JUMPDEST PUSH1 0x0 SWAP2 DUP3 MSTORE PUSH1 0x20 SWAP1 SWAP2 KECCAK256 ADD SLOAD PUSH1 0x1 PUSH1 0x1 PUSH1 0xA0 SHL SUB AND SUB PUSH2 0x38A7 JUMPI POP PUSH1 0x1 SWAP3 SWAP2 POP POP JUMP JUMPDEST DUP1 PUSH2 0x38B1 DUP2 PUSH2 0x4776 JUMP JUMPDEST SWAP2 POP POP PUSH2 0x385D JUMP JUMPDEST POP PUSH1 0x0 SWAP3 SWAP2 POP POP JUMP JUMPDEST DUP3 DUP1 SLOAD DUP3 DUP3 SSTORE SWAP1 PUSH1 0x0 MSTORE PUSH1 0x20 PUSH1 0x0 KECCAK256 SWAP1 DUP2 ADD SWAP3 DUP3 ISZERO PUSH2 0x38FD JUMPI SWAP2 PUSH1 0x20 MUL DUP3 ADD JUMPDEST DUP3 DUP2 GT ISZERO PUSH2 0x38FD JUMPI DUP3 MLOAD DUP3 SSTORE SWAP2 PUSH1 0x20 ADD SWAP2 SWAP1 PUSH1 0x1 ADD SWAP1 PUSH2 0x38E2 JUMP JUMPDEST POP PUSH2 0x3909 SWAP3 SWAP2 POP PUSH2 0x39B5 JUMP JUMPDEST POP SWAP1 JUMP JUMPDEST POP DUP1 SLOAD PUSH2 0x3919 SWAP1 PUSH2 0x45FE JUMP JUMPDEST PUSH1 0x0 DUP3 SSTORE DUP1 PUSH1 0x1F LT PUSH2 0x3929 JUMPI POP POP JUMP JUMPDEST PUSH1 0x1F ADD PUSH1 0x20 SWAP1 DIV SWAP1 PUSH1 0x0 MSTORE PUSH1 0x20 PUSH1 0x0 KECCAK256 SWAP1 DUP2 ADD SWAP1 PUSH2 0x3731 SWAP2 SWAP1 PUSH2 0x39B5 JUMP JUMPDEST POP DUP1 SLOAD PUSH1 0x0 DUP3 SSTORE SWAP1 PUSH1 0x0 MSTORE PUSH1 0x20 PUSH1 0x0 KECCAK256 SWAP1 DUP2 ADD SWAP1 PUSH2 0x3731 SWAP2 SWAP1 PUSH2 0x39B5 JUMP JUMPDEST PUSH1 0x40 MLOAD DUP1 PUSH2 0x120 ADD PUSH1 0x40 MSTORE DUP1 PUSH1 0x0 DUP2 MSTORE PUSH1 0x20 ADD PUSH1 0x60 DUP2 MSTORE PUSH1 0x20 ADD PUSH1 0x0 DUP2 MSTORE PUSH1 0x20 ADD PUSH1 0x60 DUP2 MSTORE PUSH1 0x20 ADD PUSH1 0x60 DUP2 MSTORE PUSH1 0x20 ADD PUSH1 0x60 DUP2 MSTORE PUSH1 0x20 ADD PUSH1 0x0 ISZERO ISZERO DUP2 MSTORE PUSH1 0x20 ADD PUSH1 0x0 ISZERO ISZERO DUP2 MSTORE PUSH1 0x20 ADD PUSH1 0x0 DUP2 MSTORE POP SWAP1 JUMP JUMPDEST JUMPDEST DUP1 DUP3 GT ISZERO PUSH2 0x3909 JUMPI PUSH1 0x0 DUP2 SSTORE PUSH1 0x1 ADD PUSH2 0x39B6 JUMP JUMPDEST PUSH4 0x4E487B71 PUSH1 0xE0 SHL PUSH1 0x0 MSTORE PUSH1 0x41 PUSH1 0x4 MSTORE PUSH1 0x24 PUSH1 0x0 REVERT JUMPDEST PUSH1 0x40 MLOAD PUSH1 0x1F DUP3 ADD PUSH1 0x1F NOT AND DUP2 ADD PUSH1 0x1 PUSH1 0x1 PUSH1 0x40 SHL SUB DUP2 GT DUP3 DUP3 LT OR ISZERO PUSH2 0x3A08 JUMPI PUSH2 0x3A08 PUSH2 0x39CA JUMP JUMPDEST PUSH1 0x40 MSTORE SWAP2 SWAP1 POP JUMP JUMPDEST PUSH1 0x0 PUSH1 0x1 PUSH1 0x1 PUSH1 0x40 SHL SUB DUP3 GT ISZERO PUSH2 0x3A29 JUMPI PUSH2 0x3A29 PUSH2 0x39CA JUMP JUMPDEST POP PUSH1 0x5 SHL PUSH1 0x20 ADD SWAP1 JUMP JUMPDEST DUP1 CALLDATALOAD PUSH1 0x1 PUSH1 0x1 PUSH1 0xA0 SHL SUB DUP2 AND DUP2 EQ PUSH2 0x3A4A JUMPI PUSH1 0x0 DUP1 REVERT JUMPDEST SWAP2 SWAP1 POP JUMP JUMPDEST PUSH1 0x0 DUP3 PUSH1 0x1F DUP4 ADD SLT PUSH2 0x3A60 JUMPI PUSH1 0x0 DUP1 REVERT JUMPDEST DUP2 CALLDATALOAD PUSH1 0x20 PUSH2 0x3A75 PUSH2 0x3A70 DUP4 PUSH2 0x3A10 JUMP JUMPDEST PUSH2 0x39E0 JUMP JUMPDEST DUP3 DUP2 MSTORE PUSH1 0x5 SWAP3 SWAP1 SWAP3 SHL DUP5 ADD DUP2 ADD SWAP2 DUP2 DUP2 ADD SWAP1 DUP7 DUP5 GT ISZERO PUSH2 0x3A94 JUMPI PUSH1 0x0 DUP1 REVERT JUMPDEST DUP3 DUP7 ADD JUMPDEST DUP5 DUP2 LT ISZERO PUSH2 0x3AB6 JUMPI PUSH2 0x3AA9 DUP2 PUSH2 0x3A33 JUMP JUMPDEST DUP4 MSTORE SWAP2 DUP4 ADD SWAP2 DUP4 ADD PUSH2 0x3A98 JUMP JUMPDEST POP SWAP7 SWAP6 POP POP POP POP POP POP JUMP JUMPDEST PUSH1 0x0 DUP3 PUSH1 0x1F DUP4 ADD SLT PUSH2 0x3AD2 JUMPI PUSH1 0x0 DUP1 REVERT JUMPDEST DUP2 CALLDATALOAD PUSH1 0x1 PUSH1 0x1 PUSH1 0x40 SHL SUB DUP2 GT ISZERO PUSH2 0x3AEB JUMPI PUSH2 0x3AEB PUSH2 0x39CA JUMP JUMPDEST PUSH2 0x3AFE PUSH1 0x1F DUP3 ADD PUSH1 0x1F NOT AND PUSH1 0x20 ADD PUSH2 0x39E0 JUMP JUMPDEST DUP2 DUP2 MSTORE DUP5 PUSH1 0x20 DUP4 DUP7 ADD ADD GT ISZERO PUSH2 0x3B13 JUMPI PUSH1 0x0 DUP1 REVERT JUMPDEST DUP2 PUSH1 0x20 DUP6 ADD PUSH1 0x20 DUP4 ADD CALLDATACOPY PUSH1 0x0 SWAP2 DUP2 ADD PUSH1 0x20 ADD SWAP2 SWAP1 SWAP2 MSTORE SWAP4 SWAP3 POP POP POP JUMP JUMPDEST PUSH1 0x0 DUP3 PUSH1 0x1F DUP4 ADD SLT PUSH2 0x3B41 JUMPI PUSH1 0x0 DUP1 REVERT JUMPDEST DUP2 CALLDATALOAD PUSH1 0x20 PUSH2 0x3B51 PUSH2 0x3A70 DUP4 PUSH2 0x3A10 JUMP JUMPDEST DUP3 DUP2 MSTORE PUSH1 0x5 SWAP3 SWAP1 SWAP3 SHL DUP5 ADD DUP2 ADD SWAP2 DUP2 DUP2 ADD SWAP1 DUP7 DUP5 GT ISZERO PUSH2 0x3B70 JUMPI PUSH1 0x0 DUP1 REVERT JUMPDEST DUP3 DUP7 ADD JUMPDEST DUP5 DUP2 LT ISZERO PUSH2 0x3AB6 JUMPI DUP1 CALLDATALOAD PUSH1 0x1 PUSH1 0x1 PUSH1 0x40 SHL SUB DUP2 GT ISZERO PUSH2 0x3B93 JUMPI PUSH1 0x0 DUP1 DUP2 REVERT JUMPDEST PUSH2 0x3BA1 DUP10 DUP7 DUP4 DUP12 ADD ADD PUSH2 0x3AC1 JUMP JUMPDEST DUP5 MSTORE POP SWAP2 DUP4 ADD SWAP2 DUP4 ADD PUSH2 0x3B74 JUMP JUMPDEST PUSH1 0x0 DUP1 PUSH1 0x0 DUP1 PUSH1 0x0 DUP1 PUSH1 0xC0 DUP8 DUP10 SUB SLT ISZERO PUSH2 0x3BC8 JUMPI PUSH1 0x0 DUP1 REVERT JUMPDEST DUP7 CALLDATALOAD PUSH1 0x1 PUSH1 0x1 PUSH1 0x40 SHL SUB DUP1 DUP3 GT ISZERO PUSH2 0x3BDF JUMPI PUSH1 0x0 DUP1 REVERT JUMPDEST PUSH2 0x3BEB DUP11 DUP4 DUP12 ADD PUSH2 0x3A4F JUMP JUMPDEST SWAP8 POP PUSH1 0x20 DUP10 ADD CALLDATALOAD SWAP2 POP DUP1 DUP3 GT ISZERO PUSH2 0x3C01 JUMPI PUSH1 0x0 DUP1 REVERT JUMPDEST PUSH2 0x3C0D DUP11 DUP4 DUP12 ADD PUSH2 0x3B30 JUMP JUMPDEST SWAP7 POP PUSH1 0x40 DUP10 ADD CALLDATALOAD SWAP2 POP DUP1 DUP3 GT ISZERO PUSH2 0x3C23 JUMPI PUSH1 0x0 DUP1 REVERT JUMPDEST PUSH2 0x3C2F DUP11 DUP4 DUP12 ADD PUSH2 0x3B30 JUMP JUMPDEST SWAP6 POP PUSH1 0x60 DUP10 ADD CALLDATALOAD SWAP2 POP DUP1 DUP3 GT ISZERO PUSH2 0x3C45 JUMPI PUSH1 0x0 DUP1 REVERT JUMPDEST PUSH2 0x3C51 DUP11 DUP4 DUP12 ADD PUSH2 0x3B30 JUMP JUMPDEST SWAP5 POP PUSH1 0x80 DUP10 ADD CALLDATALOAD SWAP2 POP DUP1 DUP3 GT ISZERO PUSH2 0x3C67 JUMPI PUSH1 0x0 DUP1 REVERT JUMPDEST PUSH2 0x3C73 DUP11 DUP4 DUP12 ADD PUSH2 0x3B30 JUMP JUMPDEST SWAP4 POP PUSH1 0xA0 DUP10 ADD CALLDATALOAD SWAP2 POP DUP1 DUP3 GT ISZERO PUSH2 0x3C89 JUMPI PUSH1 0x0 DUP1 REVERT JUMPDEST POP PUSH2 0x3C96 DUP10 DUP3 DUP11 ADD PUSH2 0x3B30 JUMP JUMPDEST SWAP2 POP POP SWAP3 SWAP6 POP SWAP3 SWAP6 POP SWAP3 SWAP6 JUMP JUMPDEST PUSH1 0x0 DUP1 PUSH1 0x40 DUP4 DUP6 SUB SLT ISZERO PUSH2 0x3CB6 JUMPI PUSH1 0x0 DUP1 REVERT JUMPDEST DUP3 CALLDATALOAD SWAP2 POP PUSH2 0x3CC6 PUSH1 0x20 DUP5 ADD PUSH2 0x3A33 JUMP JUMPDEST SWAP1 POP SWAP3 POP SWAP3 SWAP1 POP JUMP JUMPDEST PUSH1 0x0 DUP3 PUSH1 0x1F DUP4 ADD SLT PUSH2 0x3CE0 JUMPI PUSH1 0x0 DUP1 REVERT JUMPDEST DUP2 CALLDATALOAD PUSH1 0x20 PUSH2 0x3CF0 PUSH2 0x3A70 DUP4 PUSH2 0x3A10 JUMP JUMPDEST DUP3 DUP2 MSTORE PUSH1 0x5 SWAP3 SWAP1 SWAP3 SHL DUP5 ADD DUP2 ADD SWAP2 DUP2 DUP2 ADD SWAP1 DUP7 DUP5 GT ISZERO PUSH2 0x3D0F JUMPI PUSH1 0x0 DUP1 REVERT JUMPDEST DUP3 DUP7 ADD JUMPDEST DUP5 DUP2 LT ISZERO PUSH2 0x3AB6 JUMPI DUP1 CALLDATALOAD DUP4 MSTORE SWAP2 DUP4 ADD SWAP2 DUP4 ADD PUSH2 0x3D13 JUMP JUMPDEST PUSH1 0x0 DUP1 PUSH1 0x0 DUP1 PUSH1 0x0 PUSH1 0xA0 DUP7 DUP9 SUB SLT ISZERO PUSH2 0x3D42 JUMPI PUSH1 0x0 DUP1 REVERT JUMPDEST DUP6 CALLDATALOAD PUSH1 0x1 PUSH1 0x1 PUSH1 0x40 SHL SUB DUP1 DUP3 GT ISZERO PUSH2 0x3D59 JUMPI PUSH1 0x0 DUP1 REVERT JUMPDEST PUSH2 0x3D65 DUP10 DUP4 DUP11 ADD PUSH2 0x3B30 JUMP JUMPDEST SWAP7 POP PUSH1 0x20 DUP9 ADD CALLDATALOAD SWAP2 POP DUP1 DUP3 GT ISZERO PUSH2 0x3D7B JUMPI PUSH1 0x0 DUP1 REVERT JUMPDEST PUSH2 0x3D87 DUP10 DUP4 DUP11 ADD PUSH2 0x3B30 JUMP JUMPDEST SWAP6 POP PUSH1 0x40 DUP9 ADD CALLDATALOAD SWAP2 POP DUP1 DUP3 GT ISZERO PUSH2 0x3D9D JUMPI PUSH1 0x0 DUP1 REVERT JUMPDEST PUSH2 0x3DA9 DUP10 DUP4 DUP11 ADD PUSH2 0x3CCF JUMP JUMPDEST SWAP5 POP PUSH1 0x60 DUP9 ADD CALLDATALOAD SWAP2 POP DUP1 DUP3 GT ISZERO PUSH2 0x3DBF JUMPI PUSH1 0x0 DUP1 REVERT JUMPDEST PUSH2 0x3DCB DUP10 DUP4 DUP11 ADD PUSH2 0x3B30 JUMP JUMPDEST SWAP4 POP PUSH1 0x80 DUP9 ADD CALLDATALOAD SWAP2 POP DUP1 DUP3 GT ISZERO PUSH2 0x3DE1 JUMPI PUSH1 0x0 DUP1 REVERT JUMPDEST POP PUSH2 0x3DEE DUP9 DUP3 DUP10 ADD PUSH2 0x3B30 JUMP JUMPDEST SWAP2 POP POP SWAP3 SWAP6 POP SWAP3 SWAP6 SWAP1 SWAP4 POP JUMP JUMPDEST PUSH1 0x0 DUP1 PUSH1 0x40 DUP4 DUP6 SUB SLT ISZERO PUSH2 0x3E0E JUMPI PUSH1 0x0 DUP1 REVERT JUMPDEST DUP3 CALLDATALOAD SWAP2 POP PUSH1 0x20 DUP4 ADD CALLDATALOAD DUP1 ISZERO ISZERO DUP2 EQ PUSH2 0x3E25 JUMPI PUSH1 0x0 DUP1 REVERT JUMPDEST DUP1 SWAP2 POP POP SWAP3 POP SWAP3 SWAP1 POP JUMP JUMPDEST PUSH1 0x0 PUSH1 0x20 DUP3 DUP5 SUB SLT ISZERO PUSH2 0x3E42 JUMPI PUSH1 0x0 DUP1 REVERT JUMPDEST POP CALLDATALOAD SWAP2 SWAP1 POP JUMP JUMPDEST PUSH1 0x0 DUP2 MLOAD DUP1 DUP5 MSTORE PUSH1 0x0 JUMPDEST DUP2 DUP2 LT ISZERO PUSH2 0x3E6F JUMPI PUSH1 0x20 DUP2 DUP6 ADD DUP2 ADD MLOAD DUP7 DUP4 ADD DUP3 ADD MSTORE ADD PUSH2 0x3E53 JUMP JUMPDEST POP PUSH1 0x0 PUSH1 0x20 DUP3 DUP7 ADD ADD MSTORE PUSH1 0x20 PUSH1 0x1F NOT PUSH1 0x1F DUP4 ADD AND DUP6 ADD ADD SWAP2 POP POP SWAP3 SWAP2 POP POP JUMP JUMPDEST DUP9 DUP2 MSTORE PUSH1 0x1 PUSH1 0x1 PUSH1 0xA0 SHL SUB DUP9 AND PUSH1 0x20 DUP3 ADD MSTORE PUSH2 0x100 PUSH1 0x40 DUP3 ADD DUP2 SWAP1 MSTORE PUSH1 0x0 SWAP1 PUSH2 0x3EBA DUP4 DUP3 ADD DUP11 PUSH2 0x3E49 JUMP JUMPDEST SWAP1 POP DUP8 PUSH1 0x60 DUP5 ADD MSTORE DUP3 DUP2 SUB PUSH1 0x80 DUP5 ADD MSTORE PUSH2 0x3ED4 DUP2 DUP9 PUSH2 0x3E49 JUMP JUMPDEST SWAP1 POP DUP3 DUP2 SUB PUSH1 0xA0 DUP5 ADD MSTORE PUSH2 0x3EE8 DUP2 DUP8 PUSH2 0x3E49 JUMP JUMPDEST SWAP1 POP DUP3 DUP2 SUB PUSH1 0xC0 DUP5 ADD MSTORE PUSH2 0x3EFC DUP2 DUP7 PUSH2 0x3E49 JUMP JUMPDEST SWAP1 POP DUP3 DUP2 SUB PUSH1 0xE0 DUP5 ADD MSTORE PUSH2 0x3F10 DUP2 DUP6 PUSH2 0x3E49 JUMP JUMPDEST SWAP12 SWAP11 POP POP POP POP POP POP POP POP POP POP POP JUMP JUMPDEST DUP9 DUP2 MSTORE PUSH1 0x1 PUSH1 0x1 PUSH1 0xA0 SHL SUB DUP9 DUP2 AND PUSH1 0x20 DUP4 ADD MSTORE DUP8 AND PUSH1 0x40 DUP3 ADD MSTORE PUSH2 0x100 PUSH1 0x60 DUP3 ADD DUP2 SWAP1 MSTORE PUSH1 0x0 SWAP1 PUSH2 0x3F52 DUP4 DUP3 ADD DUP10 PUSH2 0x3E49 JUMP JUMPDEST SWAP1 POP DUP7 PUSH1 0x80 DUP5 ADD MSTORE DUP3 DUP2 SUB PUSH1 0xA0 DUP5 ADD MSTORE PUSH2 0x3EE8 DUP2 DUP8 PUSH2 0x3E49 JUMP JUMPDEST PUSH1 0x0 DUP2 MLOAD DUP1 DUP5 MSTORE PUSH1 0x20 DUP1 DUP6 ADD SWAP5 POP DUP1 DUP5 ADD PUSH1 0x0 JUMPDEST DUP4 DUP2 LT ISZERO PUSH2 0x3F9C JUMPI DUP2 MLOAD DUP8 MSTORE SWAP6 DUP3 ADD SWAP6 SWAP1 DUP3 ADD SWAP1 PUSH1 0x1 ADD PUSH2 0x3F80 JUMP JUMPDEST POP SWAP5 SWAP6 SWAP5 POP POP POP POP POP JUMP JUMPDEST PUSH1 0x0 PUSH1 0x20 DUP1 DUP4 ADD DUP2 DUP5 MSTORE DUP1 DUP6 MLOAD DUP1 DUP4 MSTORE PUSH1 0x40 SWAP3 POP DUP3 DUP7 ADD SWAP2 POP DUP3 DUP2 PUSH1 0x5 SHL DUP8 ADD ADD DUP5 DUP9 ADD PUSH1 0x0 JUMPDEST DUP4 DUP2 LT ISZERO PUSH2 0x40AD JUMPI PUSH1 0x3F NOT DUP10 DUP5 SUB ADD DUP6 MSTORE DUP2 MLOAD DUP1 MLOAD DUP5 MSTORE DUP8 DUP2 ADD MLOAD PUSH1 0x1 PUSH1 0x1 PUSH1 0xA0 SHL SUB SWAP1 DUP2 AND DUP10 DUP7 ADD MSTORE DUP8 DUP3 ADD MLOAD AND DUP8 DUP6 ADD MSTORE PUSH1 0x60 DUP1 DUP3 ADD MLOAD PUSH2 0x120 DUP3 DUP8 ADD DUP2 SWAP1 MSTORE SWAP2 SWAP1 PUSH2 0x401E DUP4 DUP9 ADD DUP3 PUSH2 0x3E49 JUMP JUMPDEST SWAP3 POP POP POP PUSH1 0x80 DUP1 DUP4 ADD MLOAD DUP7 DUP4 SUB DUP3 DUP9 ADD MSTORE PUSH2 0x4039 DUP4 DUP3 PUSH2 0x3F6C JUMP JUMPDEST SWAP3 POP POP POP PUSH1 0xA0 DUP1 DUP4 ADD MLOAD DUP2 DUP8 ADD MSTORE POP PUSH1 0xC0 DUP1 DUP4 ADD MLOAD DUP7 DUP4 SUB DUP3 DUP9 ADD MSTORE PUSH2 0x405F DUP4 DUP3 PUSH2 0x3E49 JUMP JUMPDEST SWAP3 POP POP POP PUSH1 0xE0 DUP1 DUP4 ADD MLOAD DUP7 DUP4 SUB DUP3 DUP9 ADD MSTORE PUSH2 0x407A DUP4 DUP3 PUSH2 0x3E49 JUMP JUMPDEST SWAP3 POP POP POP PUSH2 0x100 DUP1 DUP4 ADD MLOAD SWAP3 POP DUP6 DUP3 SUB DUP2 DUP8 ADD MSTORE POP PUSH2 0x4099 DUP2 DUP4 PUSH2 0x3E49 JUMP JUMPDEST SWAP7 DUP10 ADD SWAP7 SWAP5 POP POP POP SWAP1 DUP7 ADD SWAP1 PUSH1 0x1 ADD PUSH2 0x3FCE JUMP JUMPDEST POP SWAP1 SWAP9 SWAP8 POP POP POP POP POP POP POP POP JUMP JUMPDEST PUSH1 0xA0 DUP2 MSTORE PUSH1 0x0 PUSH2 0x40CE PUSH1 0xA0 DUP4 ADD DUP9 PUSH2 0x3E49 JUMP JUMPDEST DUP7 PUSH1 0x20 DUP5 ADD MSTORE DUP3 DUP2 SUB PUSH1 0x40 DUP5 ADD MSTORE PUSH2 0x40E6 DUP2 DUP8 PUSH2 0x3E49 JUMP JUMPDEST SWAP1 POP DUP3 DUP2 SUB PUSH1 0x60 DUP5 ADD MSTORE PUSH2 0x40FA DUP2 DUP7 PUSH2 0x3E49 JUMP JUMPDEST SWAP1 POP DUP3 DUP2 SUB PUSH1 0x80 DUP5 ADD MSTORE PUSH2 0x410E DUP2 DUP6 PUSH2 0x3E49 JUMP JUMPDEST SWAP9 SWAP8 POP POP POP POP POP POP POP POP JUMP JUMPDEST PUSH1 0x0 DUP1 PUSH1 0x40 DUP4 DUP6 SUB SLT ISZERO PUSH2 0x412D JUMPI PUSH1 0x0 DUP1 REVERT JUMPDEST DUP3 CALLDATALOAD PUSH1 0x1 PUSH1 0x1 PUSH1 0x40 SHL SUB DUP1 DUP3 GT ISZERO PUSH2 0x4144 JUMPI PUSH1 0x0 DUP1 REVERT JUMPDEST PUSH2 0x4150 DUP7 DUP4 DUP8 ADD PUSH2 0x3A4F JUMP JUMPDEST SWAP4 POP PUSH1 0x20 DUP6 ADD CALLDATALOAD SWAP2 POP DUP1 DUP3 GT ISZERO PUSH2 0x4166 JUMPI PUSH1 0x0 DUP1 REVERT JUMPDEST POP PUSH2 0x4173 DUP6 DUP3 DUP7 ADD PUSH2 0x3A4F JUMP JUMPDEST SWAP2 POP POP SWAP3 POP SWAP3 SWAP1 POP JUMP JUMPDEST PUSH1 0x0 PUSH1 0x20 DUP3 DUP5 SUB SLT ISZERO PUSH2 0x418F JUMPI PUSH1 0x0 DUP1 REVERT JUMPDEST DUP2 CALLDATALOAD PUSH1 0x1 PUSH1 0x1 PUSH1 0x40 SHL SUB DUP2 GT ISZERO PUSH2 0x41A5 JUMPI PUSH1 0x0 DUP1 REVERT JUMPDEST PUSH2 0x41B1 DUP5 DUP3 DUP6 ADD PUSH2 0x3CCF JUMP JUMPDEST SWAP5 SWAP4 POP POP POP POP JUMP JUMPDEST PUSH1 0x0 PUSH1 0x20 DUP3 DUP5 SUB SLT ISZERO PUSH2 0x41CB JUMPI PUSH1 0x0 DUP1 REVERT JUMPDEST PUSH2 0x41D4 DUP3 PUSH2 0x3A33 JUMP JUMPDEST SWAP4 SWAP3 POP POP POP JUMP JUMPDEST PUSH1 0x0 PUSH1 0x20 DUP1 DUP4 ADD DUP2 DUP5 MSTORE DUP1 DUP6 MLOAD DUP1 DUP4 MSTORE PUSH1 0x40 SWAP3 POP DUP3 DUP7 ADD SWAP2 POP DUP3 DUP2 PUSH1 0x5 SHL DUP8 ADD ADD DUP5 DUP9 ADD PUSH1 0x0 JUMPDEST DUP4 DUP2 LT ISZERO PUSH2 0x40AD JUMPI PUSH1 0x3F NOT DUP10 DUP5 SUB ADD DUP6 MSTORE DUP2 MLOAD PUSH2 0x120 DUP2 MLOAD DUP6 MSTORE DUP9 DUP3 ADD MLOAD DUP2 DUP11 DUP8 ADD MSTORE PUSH2 0x4231 DUP3 DUP8 ADD DUP3 PUSH2 0x3E49 JUMP JUMPDEST SWAP2 POP POP DUP8 DUP3 ADD MLOAD DUP9 DUP7 ADD MSTORE PUSH1 0x60 DUP1 DUP4 ADD MLOAD DUP7 DUP4 SUB DUP3 DUP9 ADD MSTORE PUSH2 0x4253 DUP4 DUP3 PUSH2 0x3E49 JUMP JUMPDEST SWAP3 POP POP POP PUSH1 0x80 DUP1 DUP4 ADD MLOAD DUP7 DUP4 SUB DUP3 DUP9 ADD MSTORE PUSH2 0x426E DUP4 DUP3 PUSH2 0x3E49 JUMP JUMPDEST SWAP3 POP POP POP PUSH1 0xA0 DUP1 DUP4 ADD MLOAD DUP7 DUP4 SUB DUP3 DUP9 ADD MSTORE PUSH2 0x4289 DUP4 DUP3 PUSH2 0x3E49 JUMP JUMPDEST SWAP3 POP POP POP PUSH1 0xC0 DUP1 DUP4 ADD MLOAD PUSH2 0x42A0 DUP3 DUP9 ADD DUP3 ISZERO ISZERO SWAP1 MSTORE JUMP JUMPDEST POP POP PUSH1 0xE0 DUP3 DUP2 ADD MLOAD ISZERO ISZERO SWAP1 DUP7 ADD MSTORE PUSH2 0x100 SWAP2 DUP3 ADD MLOAD SWAP2 SWAP1 SWAP5 ADD MSTORE SWAP4 DUP7 ADD SWAP4 SWAP1 DUP7 ADD SWAP1 PUSH1 0x1 ADD PUSH2 0x4202 JUMP JUMPDEST PUSH1 0x0 DUP1 PUSH1 0x0 DUP1 PUSH1 0x0 PUSH1 0xA0 DUP7 DUP9 SUB SLT ISZERO PUSH2 0x42E2 JUMPI PUSH1 0x0 DUP1 REVERT JUMPDEST DUP6 CALLDATALOAD PUSH1 0x1 PUSH1 0x1 PUSH1 0x40 SHL SUB DUP1 DUP3 GT ISZERO PUSH2 0x42F9 JUMPI PUSH1 0x0 DUP1 REVERT JUMPDEST PUSH2 0x4305 DUP10 DUP4 DUP11 ADD PUSH2 0x3A4F JUMP JUMPDEST SWAP7 POP PUSH1 0x20 DUP9 ADD CALLDATALOAD SWAP2 POP DUP1 DUP3 GT ISZERO PUSH2 0x431B JUMPI PUSH1 0x0 DUP1 REVERT JUMPDEST PUSH2 0x4327 DUP10 DUP4 DUP11 ADD PUSH2 0x3B30 JUMP JUMPDEST SWAP6 POP PUSH1 0x40 DUP9 ADD CALLDATALOAD SWAP2 POP DUP1 DUP3 GT ISZERO PUSH2 0x433D JUMPI PUSH1 0x0 DUP1 REVERT JUMPDEST PUSH2 0x3DA9 DUP10 DUP4 DUP11 ADD PUSH2 0x3B30 JUMP JUMPDEST PUSH1 0x20 DUP1 DUP3 MSTORE DUP3 MLOAD DUP3 DUP3 ADD DUP2 SWAP1 MSTORE PUSH1 0x0 SWAP2 SWAP1 DUP5 DUP3 ADD SWAP1 PUSH1 0x40 DUP6 ADD SWAP1 DUP5 JUMPDEST DUP2 DUP2 LT ISZERO PUSH2 0x438A JUMPI DUP4 MLOAD PUSH1 0x1 PUSH1 0x1 PUSH1 0xA0 SHL SUB AND DUP4 MSTORE SWAP3 DUP5 ADD SWAP3 SWAP2 DUP5 ADD SWAP2 PUSH1 0x1 ADD PUSH2 0x4365 JUMP JUMPDEST POP SWAP1 SWAP7 SWAP6 POP POP POP POP POP POP JUMP JUMPDEST PUSH1 0x0 PUSH1 0x20 DUP3 DUP5 SUB SLT ISZERO PUSH2 0x43A8 JUMPI PUSH1 0x0 DUP1 REVERT JUMPDEST DUP2 CALLDATALOAD PUSH1 0x1 PUSH1 0x1 PUSH1 0x40 SHL SUB DUP2 GT ISZERO PUSH2 0x43BE JUMPI PUSH1 0x0 DUP1 REVERT JUMPDEST PUSH2 0x41B1 DUP5 DUP3 DUP6 ADD PUSH2 0x3A4F JUMP JUMPDEST PUSH1 0x0 DUP1 PUSH1 0x40 DUP4 DUP6 SUB SLT ISZERO PUSH2 0x43DD JUMPI PUSH1 0x0 DUP1 REVERT JUMPDEST DUP3 CALLDATALOAD PUSH1 0x1 PUSH1 0x1 PUSH1 0x40 SHL SUB DUP1 DUP3 GT ISZERO PUSH2 0x43F4 JUMPI PUSH1 0x0 DUP1 REVERT JUMPDEST PUSH2 0x4400 DUP7 DUP4 DUP8 ADD PUSH2 0x3CCF JUMP JUMPDEST SWAP4 POP PUSH1 0x20 DUP6 ADD CALLDATALOAD SWAP2 POP DUP1 DUP3 GT ISZERO PUSH2 0x4416 JUMPI PUSH1 0x0 DUP1 REVERT JUMPDEST POP PUSH2 0x4173 DUP6 DUP3 DUP7 ADD PUSH2 0x3CCF JUMP JUMPDEST PUSH1 0x0 DUP1 PUSH1 0x0 DUP1 PUSH1 0x0 PUSH1 0xA0 DUP7 DUP9 SUB SLT ISZERO PUSH2 0x443B JUMPI PUSH1 0x0 DUP1 REVERT JUMPDEST DUP6 CALLDATALOAD SWAP5 POP PUSH1 0x20 DUP7 ADD CALLDATALOAD PUSH1 0x1 PUSH1 0x1 PUSH1 0x40 SHL SUB DUP1 DUP3 GT ISZERO PUSH2 0x4459 JUMPI PUSH1 0x0 DUP1 REVERT JUMPDEST PUSH2 0x4465 DUP10 DUP4 DUP11 ADD PUSH2 0x3AC1 JUMP JUMPDEST SWAP6 POP PUSH1 0x40 DUP9 ADD CALLDATALOAD SWAP2 POP DUP1 DUP3 GT ISZERO PUSH2 0x447B JUMPI PUSH1 0x0 DUP1 REVERT JUMPDEST PUSH2 0x4487 DUP10 DUP4 DUP11 ADD PUSH2 0x3AC1 JUMP JUMPDEST SWAP5 POP PUSH1 0x60 DUP9 ADD CALLDATALOAD SWAP2 POP DUP1 DUP3 GT ISZERO PUSH2 0x449D JUMPI PUSH1 0x0 DUP1 REVERT JUMPDEST PUSH2 0x44A9 DUP10 DUP4 DUP11 ADD PUSH2 0x3AC1 JUMP JUMPDEST SWAP4 POP PUSH1 0x80 DUP9 ADD CALLDATALOAD SWAP2 POP DUP1 DUP3 GT ISZERO PUSH2 0x44BF JUMPI PUSH1 0x0 DUP1 REVERT JUMPDEST POP PUSH2 0x3DEE DUP9 DUP3 DUP10 ADD PUSH2 0x3AC1 JUMP JUMPDEST PUSH1 0x0 PUSH2 0x120 DUP12 DUP4 MSTORE DUP1 PUSH1 0x20 DUP5 ADD MSTORE PUSH2 0x44E6 DUP2 DUP5 ADD DUP13 PUSH2 0x3E49 JUMP JUMPDEST SWAP1 POP DUP10 PUSH1 0x40 DUP5 ADD MSTORE DUP3 DUP2 SUB PUSH1 0x60 DUP5 ADD MSTORE PUSH2 0x4500 DUP2 DUP11 PUSH2 0x3E49 JUMP JUMPDEST SWAP1 POP DUP3 DUP2 SUB PUSH1 0x80 DUP5 ADD MSTORE PUSH2 0x4514 DUP2 DUP10 PUSH2 0x3E49 JUMP JUMPDEST SWAP1 POP DUP3 DUP2 SUB PUSH1 0xA0 DUP5 ADD MSTORE PUSH2 0x4528 DUP2 DUP9 PUSH2 0x3E49 JUMP JUMPDEST SWAP6 ISZERO ISZERO PUSH1 0xC0 DUP5 ADD MSTORE POP POP SWAP2 ISZERO ISZERO PUSH1 0xE0 DUP4 ADD MSTORE PUSH2 0x100 SWAP1 SWAP2 ADD MSTORE SWAP7 SWAP6 POP POP POP POP POP POP JUMP JUMPDEST PUSH1 0x20 DUP1 DUP3 MSTORE PUSH1 0x1F SWAP1 DUP3 ADD MSTORE PUSH32 0x4F6E6C79207665726966696572206F72206F776E65722063616E2063616C6C00 PUSH1 0x40 DUP3 ADD MSTORE PUSH1 0x60 ADD SWAP1 JUMP JUMPDEST PUSH1 0x20 DUP1 DUP3 MSTORE PUSH1 0x18 SWAP1 DUP3 ADD MSTORE PUSH32 0x4D69736D61746368656420696E707574206C656E677468730000000000000000 PUSH1 0x40 DUP3 ADD MSTORE PUSH1 0x60 ADD SWAP1 JUMP JUMPDEST PUSH4 0x4E487B71 PUSH1 0xE0 SHL PUSH1 0x0 MSTORE PUSH1 0x32 PUSH1 0x4 MSTORE PUSH1 0x24 PUSH1 0x0 REVERT JUMPDEST PUSH4 0x4E487B71 PUSH1 0xE0 SHL PUSH1 0x0 MSTORE PUSH1 0x11 PUSH1 0x4 MSTORE PUSH1 0x24 PUSH1 0x0 REVERT JUMPDEST DUP1 DUP3 ADD DUP1 DUP3 GT ISZERO PUSH2 0x45F8 JUMPI PUSH2 0x45F8 PUSH2 0x45CF JUMP JUMPDEST SWAP3 SWAP2 POP POP JUMP JUMPDEST PUSH1 0x1 DUP2 DUP2 SHR SWAP1 DUP3 AND DUP1 PUSH2 0x4612 JUMPI PUSH1 0x7F DUP3 AND SWAP2 POP JUMPDEST PUSH1 0x20 DUP3 LT DUP2 SUB PUSH2 0x4632 JUMPI PUSH4 0x4E487B71 PUSH1 0xE0 SHL PUSH1 0x0 MSTORE PUSH1 0x22 PUSH1 0x4 MSTORE PUSH1 0x24 PUSH1 0x0 REVERT JUMPDEST POP SWAP2 SWAP1 POP JUMP JUMPDEST PUSH1 0x1F DUP3 GT ISZERO PUSH2 0x1DE4 JUMPI PUSH1 0x0 DUP2 DUP2 MSTORE PUSH1 0x20 DUP2 KECCAK256 PUSH1 0x1F DUP6 ADD PUSH1 0x5 SHR DUP2 ADD PUSH1 0x20 DUP7 LT ISZERO PUSH2 0x465F JUMPI POP DUP1 JUMPDEST PUSH1 0x1F DUP6 ADD PUSH1 0x5 SHR DUP3 ADD SWAP2 POP JUMPDEST DUP2 DUP2 LT ISZERO PUSH2 0xCEF JUMPI DUP3 DUP2 SSTORE PUSH1 0x1 ADD PUSH2 0x466B JUMP JUMPDEST DUP2 MLOAD PUSH1 0x1 PUSH1 0x1 PUSH1 0x40 SHL SUB DUP2 GT ISZERO PUSH2 0x4697 JUMPI PUSH2 0x4697 PUSH2 0x39CA JUMP JUMPDEST PUSH2 0x46AB DUP2 PUSH2 0x46A5 DUP5 SLOAD PUSH2 0x45FE JUMP JUMPDEST DUP5 PUSH2 0x4638 JUMP JUMPDEST PUSH1 0x20 DUP1 PUSH1 0x1F DUP4 GT PUSH1 0x1 DUP2 EQ PUSH2 0x46E0 JUMPI PUSH1 0x0 DUP5 ISZERO PUSH2 0x46C8 JUMPI POP DUP6 DUP4 ADD MLOAD JUMPDEST PUSH1 0x0 NOT PUSH1 0x3 DUP7 SWAP1 SHL SHR NOT AND PUSH1 0x1 DUP6 SWAP1 SHL OR DUP6 SSTORE PUSH2 0xCEF JUMP JUMPDEST PUSH1 0x0 DUP6 DUP2 MSTORE PUSH1 0x20 DUP2 KECCAK256 PUSH1 0x1F NOT DUP7 AND SWAP2 JUMPDEST DUP3 DUP2 LT ISZERO PUSH2 0x470F JUMPI DUP9 DUP7 ADD MLOAD DUP3 SSTORE SWAP5 DUP5 ADD SWAP5 PUSH1 0x1 SWAP1 SWAP2 ADD SWAP1 DUP5 ADD PUSH2 0x46F0 JUMP JUMPDEST POP DUP6 DUP3 LT ISZERO PUSH2 0x472D JUMPI DUP8 DUP6 ADD MLOAD PUSH1 0x0 NOT PUSH1 0x3 DUP9 SWAP1 SHL PUSH1 0xF8 AND SHR NOT AND DUP2 SSTORE JUMPDEST POP POP POP POP POP PUSH1 0x1 SWAP1 DUP2 SHL ADD SWAP1 SSTORE POP JUMP JUMPDEST PUSH1 0xA0 DUP2 MSTORE PUSH1 0x0 PUSH2 0x4750 PUSH1 0xA0 DUP4 ADD DUP9 PUSH2 0x3E49 JUMP JUMPDEST DUP3 DUP2 SUB PUSH1 0x20 DUP5 ADD MSTORE PUSH2 0x4762 DUP2 DUP9 PUSH2 0x3E49 JUMP JUMPDEST SWAP1 POP DUP3 DUP2 SUB PUSH1 0x40 DUP5 ADD MSTORE PUSH2 0x40E6 DUP2 DUP8 PUSH2 0x3E49 JUMP JUMPDEST PUSH1 0x0 PUSH1 0x1 DUP3 ADD PUSH2 0x4788 JUMPI PUSH2 0x4788 PUSH2 0x45CF JUMP JUMPDEST POP PUSH1 0x1 ADD SWAP1 JUMP JUMPDEST PUSH1 0x20 DUP1 DUP3 MSTORE PUSH1 0x15 SWAP1 DUP3 ADD MSTORE PUSH21 0x13DB9B1E4818DBDB5C185B9E4818D85B8818D85B1B PUSH1 0x5A SHL PUSH1 0x40 DUP3 ADD MSTORE PUSH1 0x60 ADD SWAP1 JUMP JUMPDEST PUSH1 0x20 DUP1 DUP3 MSTORE PUSH1 0x26 SWAP1 DUP3 ADD MSTORE PUSH32 0x43616E646964617465207769746820676976656E20494420646F6573206E6F74 PUSH1 0x40 DUP3 ADD MSTORE PUSH6 0x8195E1A5CDD PUSH1 0xD2 SHL PUSH1 0x60 DUP3 ADD MSTORE PUSH1 0x80 ADD SWAP1 JUMP JUMPDEST PUSH1 0xA0 DUP2 MSTORE PUSH1 0x0 PUSH2 0x4817 PUSH1 0xA0 DUP4 ADD DUP9 PUSH2 0x3E49 JUMP JUMPDEST DUP3 DUP2 SUB PUSH1 0x20 DUP5 ADD MSTORE PUSH2 0x4829 DUP2 DUP9 PUSH2 0x3E49 JUMP JUMPDEST SWAP1 POP DUP6 PUSH1 0x40 DUP5 ADD MSTORE DUP3 DUP2 SUB PUSH1 0x60 DUP5 ADD MSTORE PUSH2 0x40FA DUP2 DUP7 PUSH2 0x3E49 JUMP JUMPDEST DUP2 DUP2 SUB DUP2 DUP2 GT ISZERO PUSH2 0x45F8 JUMPI PUSH2 0x45F8 PUSH2 0x45CF JUMP JUMPDEST PUSH1 0x20 DUP1 DUP3 MSTORE PUSH1 0x14 SWAP1 DUP3 ADD MSTORE PUSH20 0x125B9D985B1A590818D85B991A59185D19481251 PUSH1 0x62 SHL PUSH1 0x40 DUP3 ADD MSTORE PUSH1 0x60 ADD SWAP1 JUMP JUMPDEST PUSH4 0x4E487B71 PUSH1 0xE0 SHL PUSH1 0x0 MSTORE PUSH1 0x31 PUSH1 0x4 MSTORE PUSH1 0x24 PUSH1 0x0 REVERT JUMPDEST PUSH1 0x80 DUP2 MSTORE PUSH1 0x0 PUSH2 0x48AD PUSH1 0x80 DUP4 ADD DUP8 PUSH2 0x3E49 JUMP JUMPDEST DUP3 DUP2 SUB PUSH1 0x20 DUP5 ADD MSTORE PUSH2 0x48BF DUP2 DUP8 PUSH2 0x3E49 JUMP JUMPDEST SWAP1 POP DUP3 DUP2 SUB PUSH1 0x40 DUP5 ADD MSTORE PUSH2 0x48D3 DUP2 DUP7 PUSH2 0x3E49 JUMP JUMPDEST SWAP1 POP DUP3 DUP2 SUB PUSH1 0x60 DUP5 ADD MSTORE PUSH2 0x48E7 DUP2 DUP6 PUSH2 0x3E49 JUMP JUMPDEST SWAP8 SWAP7 POP POP POP POP POP POP POP JUMP INVALID LOG2 PUSH5 0x6970667358 0x22 SLT KECCAK256 0xBF 0xCE 0xF6 DUP12 PUSH8 0xBAE24645EBE1D11B 0x25 0xD4 DUP2 PUSH5 0x250C149F2A CHAINID 0xF 0x1E 0xEB TIMESTAMP BALANCE GAS CALLDATACOPY 0xB7 PUSH1 0x64 PUSH20 0x6F6C634300081400330000000000000000000000 "},"methodIdentifiers":{"addCandidates(address[],string[],string[],string[],string[])":"7fbc12af","addCompanies(address[],string[],string[],string[],string[],string[])":"187c1ebe","addDocuments(string[],string[],uint256[],string[],string[])":"1e32f407","addVerifiers(address[])":"b5344257","candidateAddress(address)":"99e37a55","candidates(uint256)":"3477ee2e","companies(uint256)":"2813d19d","companyAddress(address)":"6dd08047","documents(uint256)":"c2ed2b05","editCandidate(uint256,string,string,string,string)":"bfbbf509","editCandidateCurrentCompany(uint256,address)":"1a203a31","getCandidate(uint256)":"35b8e820","getCandidatesByCompany(uint256)":"35af9742","getCompanyIdOfSender()":"b4d7e8df","getDocuments(uint256)":"6eb3b4e9","getDocumentsByCandidate(uint256)":"a2576089","getOwner()":"893d20e8","getVerifiers()":"a935e766","maxVerifiers()":"78bda750","owner()":"8da5cb5b","removeCandidates(uint256[])":"eed18318","removeCompanies(uint256[])":"5990ce80","removeDocuments(uint256[],uint256[])":"bb3096aa","renounceOwnership()":"715018a6","replaceVerifiers(address[],address[])":"4dc95895","setMaxVerifiers(uint256)":"fc7435e1","transferOwnership(address)":"f2fde38b","verifiers(uint256)":"ac1eff68","verifyDocument(uint256,bool)":"24e96df6"}}}}}