{"src/contracts/Verification.sol":{"Verification":{"abi":[{"anonymous":false,"inputs":[{"indexed":true,"internalType":"uint256","name":"id","type":"uint256"},{"indexed":false,"internalType":"string","name":"name","type":"string"},{"indexed":false,"internalType":"string","name":"location","type":"string"},{"indexed":false,"internalType":"string","name":"email","type":"string"},{"indexed":false,"internalType":"uint256","name":"phoneNumber","type":"uint256"}],"name":"CandidateAdded","type":"event"},{"anonymous":false,"inputs":[{"indexed":true,"internalType":"uint256","name":"id","type":"uint256"},{"indexed":false,"internalType":"address","name":"newCurrentCompany","type":"address"}],"name":"CandidateCurrentCompanyEdited","type":"event"},{"anonymous":false,"inputs":[{"indexed":true,"internalType":"uint256","name":"id","type":"uint256"},{"indexed":false,"internalType":"string","name":"name","type":"string"},{"indexed":false,"internalType":"string","name":"location","type":"string"},{"indexed":false,"internalType":"string","name":"email","type":"string"},{"indexed":false,"internalType":"uint256","name":"phoneNumber","type":"uint256"},{"indexed":false,"internalType":"address","name":"currentCompany","type":"address"}],"name":"CandidateEdited","type":"event"},{"anonymous":false,"inputs":[{"indexed":true,"internalType":"uint256","name":"id","type":"uint256"}],"name":"CandidateRemoved","type":"event"},{"anonymous":false,"inputs":[{"indexed":true,"internalType":"uint256","name":"id","type":"uint256"},{"indexed":true,"internalType":"address","name":"companyAddress","type":"address"},{"indexed":false,"internalType":"string","name":"name","type":"string"},{"indexed":false,"internalType":"string","name":"location","type":"string"},{"indexed":false,"internalType":"uint256","name":"phoneNumber","type":"uint256"},{"indexed":false,"internalType":"string","name":"licenseNumber","type":"string"},{"indexed":false,"internalType":"string","name":"email","type":"string"}],"name":"CompanyAdded","type":"event"},{"anonymous":false,"inputs":[{"indexed":true,"internalType":"uint256","name":"id","type":"uint256"}],"name":"CompanyRemoved","type":"event"},{"anonymous":false,"inputs":[{"indexed":true,"internalType":"uint256","name":"id","type":"uint256"},{"indexed":false,"internalType":"string","name":"name","type":"string"},{"indexed":false,"internalType":"string","name":"cid","type":"string"},{"indexed":false,"internalType":"uint256","name":"candidateId","type":"uint256"},{"indexed":false,"internalType":"string","name":"typeOfDocument","type":"string"},{"indexed":false,"internalType":"string","name":"expirationDate","type":"string"}],"name":"DocumentAdded","type":"event"},{"anonymous":false,"inputs":[{"indexed":true,"internalType":"uint256","name":"id","type":"uint256"}],"name":"DocumentCancelled","type":"event"},{"anonymous":false,"inputs":[{"indexed":false,"internalType":"uint256","name":"documentId","type":"uint256"},{"indexed":false,"internalType":"uint256","name":"candidateId","type":"uint256"}],"name":"DocumentRemoved","type":"event"},{"anonymous":false,"inputs":[{"indexed":true,"internalType":"uint256","name":"id","type":"uint256"}],"name":"DocumentVerified","type":"event"},{"anonymous":false,"inputs":[{"indexed":true,"internalType":"address","name":"previousOwner","type":"address"},{"indexed":true,"internalType":"address","name":"newOwner","type":"address"}],"name":"OwnershipTransferred","type":"event"},{"anonymous":false,"inputs":[{"indexed":true,"internalType":"address","name":"verifier","type":"address"}],"name":"VerifierAdded","type":"event"},{"anonymous":false,"inputs":[{"indexed":true,"internalType":"address","name":"verifier","type":"address"}],"name":"VerifierRemoved","type":"event"},{"anonymous":false,"inputs":[{"indexed":true,"internalType":"address","name":"oldVerifier","type":"address"},{"indexed":true,"internalType":"address","name":"newVerifier","type":"address"}],"name":"VerifierReplaced","type":"event"},{"inputs":[{"internalType":"address[]","name":"_addresses","type":"address[]"},{"internalType":"string[]","name":"_names","type":"string[]"},{"internalType":"string[]","name":"_locations","type":"string[]"},{"internalType":"string[]","name":"_emails","type":"string[]"},{"internalType":"uint256[]","name":"_phoneNumbers","type":"uint256[]"}],"name":"addCandidates","outputs":[],"stateMutability":"nonpayable","type":"function"},{"inputs":[{"internalType":"address[]","name":"_addresses","type":"address[]"},{"internalType":"string[]","name":"_names","type":"string[]"},{"internalType":"string[]","name":"_locations","type":"string[]"},{"internalType":"uint256[]","name":"_phoneNumbers","type":"uint256[]"},{"internalType":"string[]","name":"_licenseNumbers","type":"string[]"},{"internalType":"string[]","name":"_emails","type":"string[]"}],"name":"addCompanies","outputs":[],"stateMutability":"nonpayable","type":"function"},{"inputs":[{"internalType":"string[]","name":"_names","type":"string[]"},{"internalType":"string[]","name":"_cids","type":"string[]"},{"internalType":"uint256[]","name":"_candidateIds","type":"uint256[]"},{"internalType":"string[]","name":"_typesOfDocument","type":"string[]"},{"internalType":"string[]","name":"_expirationDates","type":"string[]"}],"name":"addDocuments","outputs":[],"stateMutability":"nonpayable","type":"function"},{"inputs":[{"internalType":"address[]","name":"_verifiers","type":"address[]"}],"name":"addVerifiers","outputs":[],"stateMutability":"nonpayable","type":"function"},{"inputs":[{"internalType":"address","name":"","type":"address"}],"name":"candidateAddress","outputs":[{"internalType":"uint256","name":"","type":"uint256"}],"stateMutability":"view","type":"function"},{"inputs":[{"internalType":"uint256","name":"","type":"uint256"}],"name":"candidates","outputs":[{"internalType":"uint256","name":"date","type":"uint256"},{"internalType":"address","name":"address_","type":"address"},{"internalType":"address","name":"currentCompany","type":"address"},{"internalType":"string","name":"name","type":"string"},{"internalType":"uint256","name":"Id","type":"uint256"},{"internalType":"string","name":"location","type":"string"},{"internalType":"string","name":"email","type":"string"},{"internalType":"uint256","name":"phoneNumber","type":"uint256"}],"stateMutability":"view","type":"function"},{"inputs":[{"internalType":"uint256","name":"","type":"uint256"}],"name":"companies","outputs":[{"internalType":"uint256","name":"date","type":"uint256"},{"internalType":"address","name":"address_","type":"address"},{"internalType":"string","name":"name","type":"string"},{"internalType":"uint256","name":"Id","type":"uint256"},{"internalType":"string","name":"location","type":"string"},{"internalType":"uint256","name":"phoneNumber","type":"uint256"},{"internalType":"string","name":"licenseNumber","type":"string"},{"internalType":"string","name":"email","type":"string"}],"stateMutability":"view","type":"function"},{"inputs":[{"internalType":"address","name":"","type":"address"}],"name":"companyAddress","outputs":[{"internalType":"uint256","name":"","type":"uint256"}],"stateMutability":"view","type":"function"},{"inputs":[{"internalType":"uint256","name":"","type":"uint256"}],"name":"documents","outputs":[{"internalType":"uint256","name":"date","type":"uint256"},{"internalType":"string","name":"name","type":"string"},{"internalType":"uint256","name":"id","type":"uint256"},{"internalType":"string","name":"cid","type":"string"},{"internalType":"string","name":"typeOfDocument","type":"string"},{"internalType":"string","name":"expirationDate","type":"string"},{"internalType":"bool","name":"isVerified","type":"bool"},{"internalType":"bool","name":"isCancelled","type":"bool"},{"internalType":"uint256","name":"candidateId","type":"uint256"}],"stateMutability":"view","type":"function"},{"inputs":[{"internalType":"uint256","name":"_candidateId","type":"uint256"},{"internalType":"string","name":"_name","type":"string"},{"internalType":"string","name":"_location","type":"string"},{"internalType":"string","name":"_email","type":"string"},{"internalType":"uint256","name":"_phoneNumber","type":"uint256"},{"internalType":"address","name":"_currentCompany","type":"address"}],"name":"editCandidate","outputs":[],"stateMutability":"nonpayable","type":"function"},{"inputs":[{"internalType":"uint256","name":"_candidateId","type":"uint256"},{"internalType":"address","name":"_newCurrentCompany","type":"address"}],"name":"editCandidateCurrentCompany","outputs":[],"stateMutability":"nonpayable","type":"function"},{"inputs":[{"internalType":"uint256","name":"_id","type":"uint256"}],"name":"getCandidate","outputs":[{"components":[{"internalType":"uint256","name":"date","type":"uint256"},{"internalType":"address","name":"address_","type":"address"},{"internalType":"address","name":"currentCompany","type":"address"},{"internalType":"string","name":"name","type":"string"},{"internalType":"uint256[]","name":"documentIds","type":"uint256[]"},{"internalType":"uint256","name":"Id","type":"uint256"},{"internalType":"string","name":"location","type":"string"},{"internalType":"string","name":"email","type":"string"},{"internalType":"uint256","name":"phoneNumber","type":"uint256"}],"internalType":"struct Verification.Candidate","name":"","type":"tuple"}],"stateMutability":"view","type":"function"},{"inputs":[{"internalType":"uint256","name":"_companyId","type":"uint256"}],"name":"getCandidatesByCompany","outputs":[{"components":[{"internalType":"uint256","name":"date","type":"uint256"},{"internalType":"address","name":"address_","type":"address"},{"internalType":"address","name":"currentCompany","type":"address"},{"internalType":"string","name":"name","type":"string"},{"internalType":"uint256[]","name":"documentIds","type":"uint256[]"},{"internalType":"uint256","name":"Id","type":"uint256"},{"internalType":"string","name":"location","type":"string"},{"internalType":"string","name":"email","type":"string"},{"internalType":"uint256","name":"phoneNumber","type":"uint256"}],"internalType":"struct Verification.Candidate[]","name":"","type":"tuple[]"}],"stateMutability":"view","type":"function"},{"inputs":[{"internalType":"uint256","name":"_companyId","type":"uint256"}],"name":"getCompany","outputs":[{"internalType":"uint256","name":"","type":"uint256"},{"internalType":"address","name":"","type":"address"},{"internalType":"string","name":"","type":"string"},{"internalType":"string","name":"","type":"string"},{"internalType":"uint256","name":"","type":"uint256"},{"internalType":"string","name":"","type":"string"},{"internalType":"string","name":"","type":"string"}],"stateMutability":"view","type":"function"},{"inputs":[],"name":"getCompanyIdOfSender","outputs":[{"internalType":"uint256","name":"","type":"uint256"}],"stateMutability":"view","type":"function"},{"inputs":[{"internalType":"uint256","name":"_candidateId","type":"uint256"}],"name":"getDocuments","outputs":[{"components":[{"internalType":"uint256","name":"date","type":"uint256"},{"internalType":"string","name":"name","type":"string"},{"internalType":"uint256","name":"id","type":"uint256"},{"internalType":"string","name":"cid","type":"string"},{"internalType":"string","name":"typeOfDocument","type":"string"},{"internalType":"string","name":"expirationDate","type":"string"},{"internalType":"bool","name":"isVerified","type":"bool"},{"internalType":"bool","name":"isCancelled","type":"bool"},{"internalType":"uint256","name":"candidateId","type":"uint256"}],"internalType":"struct Verification.Document[]","name":"","type":"tuple[]"}],"stateMutability":"view","type":"function"},{"inputs":[{"internalType":"uint256","name":"_candidateId","type":"uint256"}],"name":"getDocumentsByCandidate","outputs":[{"components":[{"internalType":"uint256","name":"date","type":"uint256"},{"internalType":"string","name":"name","type":"string"},{"internalType":"uint256","name":"id","type":"uint256"},{"internalType":"string","name":"cid","type":"string"},{"internalType":"string","name":"typeOfDocument","type":"string"},{"internalType":"string","name":"expirationDate","type":"string"},{"internalType":"bool","name":"isVerified","type":"bool"},{"internalType":"bool","name":"isCancelled","type":"bool"},{"internalType":"uint256","name":"candidateId","type":"uint256"}],"internalType":"struct Verification.Document[]","name":"","type":"tuple[]"}],"stateMutability":"view","type":"function"},{"inputs":[],"name":"getOwner","outputs":[{"internalType":"address","name":"","type":"address"}],"stateMutability":"view","type":"function"},{"inputs":[],"name":"getVerifiers","outputs":[{"internalType":"address[]","name":"","type":"address[]"}],"stateMutability":"view","type":"function"},{"inputs":[],"name":"getZeroAddress","outputs":[{"internalType":"address","name":"","type":"address"}],"stateMutability":"pure","type":"function"},{"inputs":[],"name":"maxVerifiers","outputs":[{"internalType":"uint256","name":"","type":"uint256"}],"stateMutability":"view","type":"function"},{"inputs":[],"name":"owner","outputs":[{"internalType":"address","name":"","type":"address"}],"stateMutability":"view","type":"function"},{"inputs":[{"internalType":"uint256[]","name":"_ids","type":"uint256[]"}],"name":"removeCandidates","outputs":[],"stateMutability":"nonpayable","type":"function"},{"inputs":[{"internalType":"uint256[]","name":"_ids","type":"uint256[]"}],"name":"removeCompanies","outputs":[],"stateMutability":"nonpayable","type":"function"},{"inputs":[{"internalType":"uint256[]","name":"_candidateIds","type":"uint256[]"},{"internalType":"uint256[]","name":"_documentIds","type":"uint256[]"}],"name":"removeDocuments","outputs":[],"stateMutability":"nonpayable","type":"function"},{"inputs":[],"name":"renounceOwnership","outputs":[],"stateMutability":"nonpayable","type":"function"},{"inputs":[{"internalType":"address[]","name":"_oldVerifiers","type":"address[]"},{"internalType":"address[]","name":"_newVerifiers","type":"address[]"}],"name":"replaceVerifiers","outputs":[],"stateMutability":"nonpayable","type":"function"},{"inputs":[{"internalType":"uint256","name":"_maxVerifiers","type":"uint256"}],"name":"setMaxVerifiers","outputs":[],"stateMutability":"nonpayable","type":"function"},{"inputs":[{"internalType":"address","name":"newOwner","type":"address"}],"name":"transferOwnership","outputs":[],"stateMutability":"nonpayable","type":"function"},{"inputs":[{"internalType":"uint256","name":"","type":"uint256"}],"name":"verifiers","outputs":[{"internalType":"address","name":"","type":"address"}],"stateMutability":"view","type":"function"},{"inputs":[{"internalType":"uint256","name":"_documentId","type":"uint256"},{"internalType":"bool","name":"_isCancelled","type":"bool"}],"name":"verifyDocument","outputs":[],"stateMutability":"nonpayable","type":"function"}],"evm":{"bytecode":{"linkReferences":{},"object":"6080604052600a6002553480156200001657600080fd5b50620000223362000028565b62000078565b600080546001600160a01b038381166001600160a01b0319831681178455604051919092169283917f8be0079c531659141344cd1fd0a4f28419497f9722a3daafe3b4186f6b6457e09190a35050565b614dd380620000886000396000f3fe608060405234801561001057600080fd5b50600436106101e55760003560e01c806378bda7501161010f578063b4d7e8df116100a2578063df2ba0de11610071578063df2ba0de14610488578063eed183181461049b578063f2fde38b146104ae578063fc7435e1146104c157600080fd5b8063b4d7e8df14610425578063b53442571461043a578063bb3096aa1461044d578063c2ed2b051461046057600080fd5b806399e37a55116100de57806399e37a55146103ca578063a2576089146103ea578063a935e766146103fd578063ac1eff681461041257600080fd5b806378bda75014610384578063893d20e81461038d5780638da5cb5b146103b25780639483fbcb146103c357600080fd5b806335af9742116101875780635990ce80116101565780635990ce801461031b5780636dd080471461032e5780636eb3b4e91461035c578063715018a61461037c57600080fd5b806335af9742146102a257806335b8e820146102c25780634dc95895146102e257806357d13917146102f557600080fd5b80631e32f407116101c35780631e32f4071461022557806324e96df6146102385780632813d19d1461024b5780633477ee2e1461027b57600080fd5b806313a1c563146101ea5780631a203a31146101ff5780631b280ea914610212575b600080fd5b6101fd6101f8366004613fab565b6104d4565b005b6101fd61020d36600461407c565b610933565b6101fd6102203660046140a8565b610b0b565b6101fd610233366004614152565b610d84565b6101fd610246366004614216565b6110a2565b61025e61025936600461424b565b6112e6565b6040516102729897969594939291906142aa565b60405180910390f35b61028e61028936600461424b565b611565565b60405161027298979695949392919061432c565b6102b56102b036600461424b565b61175f565b60405161027291906144a3565b6102d56102d036600461424b565b611b4d565b6040516102729190614505565b6101fd6102f0366004614518565b611e37565b61030861030336600461424b565b612127565b604051610272979695949392919061457b565b6101fd6103293660046145f3565b612468565b61034e61033c36600461462f565b60036020526000908152604090205481565b604051908152602001610272565b61036f61036a36600461424b565b612628565b604051610272919061464a565b6101fd612a67565b61034e60025481565b6000546001600160a01b03165b6040516001600160a01b039091168152602001610272565b6000546001600160a01b031661039a565b600061039a565b61034e6103d836600461462f565b60046020526000908152604090205481565b61036f6103f836600461424b565b612a80565b610405612ec1565b6040516102729190614747565b61039a61042036600461424b565b612f2b565b3360009081526003602052604090205461034e565b6101fd610448366004614794565b612f55565b6101fd61045b3660046147c8565b613115565b61047361046e36600461424b565b6132a6565b60405161027299989796959493929190614821565b6101fd6104963660046148a0565b613527565b6101fd6104a93660046145f3565b613868565b6101fd6104bc36600461462f565b6139fe565b6101fd6104cf36600461424b565b613a77565b336000908152600360205260409020546105095760405162461bcd60e51b815260040161050090614994565b60405180910390fd5b835185511461052a5760405162461bcd60e51b8152600401610500906149c3565b60005b855181101561092b57600086828151811061054a5761054a6149fa565b602002602001015190506000868381518110610568576105686149fa565b602002602001015190506000868481518110610586576105866149fa565b6020026020010151905060008685815181106105a4576105a46149fa565b6020026020010151905060008686815181106105c2576105c26149fa565b6020026020010151905060046000866001600160a01b03166001600160a01b03168152602001908152602001600020546000146106595760405162461bcd60e51b815260206004820152602f60248201527f43616e64696461746520776974682074686520676976656e206164647265737360448201526e20616c72656164792065786973747360881b6064820152608401610500565b6001600160a01b0385166106a85760405162461bcd60e51b8152602060048201526016602482015275416464726573732063616e6e6f74206265207a65726f60501b6044820152606401610500565b60008451116106f05760405162461bcd60e51b81526020600482015260146024820152734e616d652063616e6e6f7420626520656d70747960601b6044820152606401610500565b600654600090610701906001614a26565b90506006604051806101200160405280428152602001886001600160a01b03168152602001336001600160a01b0316815260200187815260200160006001600160401b0381111561075457610754613d6b565b60405190808252806020026020018201604052801561077d578160200160208202803683370190505b508152602080820185905260408083018990526060808401899052608090930187905284546001818101875560009687529583902085516009909202019081559184015194820180546001600160a01b039687166001600160a01b0319918216179091559084015160028301805491909616911617909355810151909190600382019061080a9082614abf565b5060808201518051610826916004840191602090910190613c05565b5060a0820151600582015560c082015160068201906108459082614abf565b5060e0820151600782019061085a9082614abf565b5061010091909101516008909101553360009081526003602052604090205460059061088890600190614b7e565b81548110610898576108986149fa565b60009182526020808320600460099093020182018054600181018255908452818420018490556001600160a01b0389168352526040908190208290555181907fb132c360d5c4c80c0d43f46e53b9b874e559e8e8ea4156a5fec2a021f826d00a9061090a908890889088908890614b91565b60405180910390a2505050505050808061092390614bdc565b91505061052d565b505050505050565b6000610940600184614b7e565b905061095a33600090815260036020526040902054151590565b6109765760405162461bcd60e51b815260040161050090614994565b60068181548110610989576109896149fa565b9060005260206000209060090201600501546000036109ba5760405162461bcd60e51b815260040161050090614bf5565b60006001600160a01b0316600682815481106109d8576109d86149fa565b60009182526020909120600260099092020101546001600160a01b031614610a8e5760405162461bcd60e51b815260206004820152605760248201527f41732074686520636f6d70616e7920686173206265656e20616c72656164792060448201527f61737369676e65642c20596f752063616e6e6f74206f7665722077726974652060648201527f63757272656e7420636f6d70616e792064657461696c73000000000000000000608482015260a401610500565b8160068281548110610aa257610aa26149fa565b60009182526020918290206009919091020160020180546001600160a01b0319166001600160a01b03938416179055604051918416825282917f1004bf4098083445cd4ac13954fdcea1d9530a61f6f2a7d5a628bea6141eb17c910160405180910390a2505050565b6000610b18600188614b7e565b9050610b3233600090815260036020526040902054151590565b610b4e5760405162461bcd60e51b815260040161050090614994565b60068181548110610b6157610b616149fa565b906000526020600020906009020160050154600003610b925760405162461bcd60e51b815260040161050090614bf5565b336001600160a01b031660068281548110610baf57610baf6149fa565b60009182526020909120600260099092020101546001600160a01b031614610c335760405162461bcd60e51b815260206004820152603160248201527f596f7520646f206e6f742068617665207065726d697373696f6e20746f206564604482015270697420746869732063616e64696461746560781b6064820152608401610500565b8560068281548110610c4757610c476149fa565b90600052602060002090600902016003019081610c649190614abf565b508460068281548110610c7957610c796149fa565b90600052602060002090600902016006019081610c969190614abf565b508360068281548110610cab57610cab6149fa565b90600052602060002090600902016007019081610cc89190614abf565b508260068281548110610cdd57610cdd6149fa565b9060005260206000209060090201600801819055508160068281548110610d0657610d066149fa565b906000526020600020906009020160020160006101000a8154816001600160a01b0302191690836001600160a01b03160217905550807fbdb27b8859f11d297edb4d29bc56f12a3d84d3a4d7f5668d62acf04df78789b48787878787604051610d73959493929190614c3b565b60405180910390a250505050505050565b33600090815260036020526040902054610db05760405162461bcd60e51b815260040161050090614994565b83518551148015610dc2575082518551145b610dde5760405162461bcd60e51b8152600401610500906149c3565b60005b855181101561092b576000868281518110610dfe57610dfe6149fa565b602002602001015190506000868381518110610e1c57610e1c6149fa565b602002602001015190506000868481518110610e3a57610e3a6149fa565b602002602001015190506000868581518110610e5857610e586149fa565b602002602001015190506000868681518110610e7657610e766149fa565b6020026020010151905060068381548110610e9357610e936149fa565b906000526020600020906009020160050154600003610ec45760405162461bcd60e51b815260040161050090614bf5565b600754600090610ed5906001614a26565b604080516101208101825242815260208101898152918101839052606081018890526080810186905260a08101859052600060c0820181905260e082018190526101008201889052600780546001810182559152815160089091027fa66cc928b5edb82af9bd49922954155ab7b0942694bea4ce44661d9a8736c68881019182559251939450909290917fa66cc928b5edb82af9bd49922954155ab7b0942694bea4ce44661d9a8736c6890190610f8c9082614abf565b506040820151600282015560608201516003820190610fab9082614abf565b5060808201516004820190610fc09082614abf565b5060a08201516005820190610fd59082614abf565b5060c08201516006828101805460e086015161ffff1990911693151561ff001916939093176101009315158402179055920151600790910155805485908110611020576110206149fa565b60009182526020808320600460099093020191909101805460018101825590835291200181905560405181907fdf3f376d0902d940a4e067b169121175e19dffa31960867f2ce6943bc6cb5abb906110819089908990899089908990614c97565b60405180910390a2505050505050808061109a90614bdc565b915050610de1565b6110aa613ae7565b6110ef5760405162461bcd60e51b815260206004820152601660248201527513db9b1e481d995c9a599a595c8818d85b8818d85b1b60521b6044820152606401610500565b6007548211156111375760405162461bcd60e51b8152602060048201526013602482015272125b9d985b1a5908191bd8dd5b595b9d081251606a1b6044820152606401610500565b6000611144600184614b7e565b905060006007828154811061115b5761115b6149fa565b9060005260206000209060080201905080600201546000036111cd5760405162461bcd60e51b815260206004820152602560248201527f446f63756d656e74207769746820676976656e20494420646f6573206e6f7420604482015264195e1a5cdd60da1b6064820152608401610500565b600681015460ff161580156111ec57506006810154610100900460ff16155b61125e5760405162461bcd60e51b815260206004820152603760248201527f446f63756d656e74207769746820676976656e20494420697320616c7265616460448201527f79207665726966696564206f722063616e63656c6c65640000000000000000006064820152608401610500565b82156112a55760068101805461ff00191661010017905560405184907f7b4845702fcfeef348208aa5c3ef0909d12e56c50c288cdba03c5462cfd921b590600090a26112e0565b60068101805460ff1916600117905560405184907f4b93fd5160fbc8b35d08aff650902cf41c86e6df325a3eabab5bcca811976cf790600090a25b50505050565b600581815481106112f657600080fd5b60009182526020909120600990910201805460018201546002830180549294506001600160a01b03909116929161132c90614a3f565b80601f016020809104026020016040519081016040528092919081815260200182805461135890614a3f565b80156113a55780601f1061137a576101008083540402835291602001916113a5565b820191906000526020600020905b81548152906001019060200180831161138857829003601f168201915b5050505050908060030154908060050180546113c090614a3f565b80601f01602080910402602001604051908101604052809291908181526020018280546113ec90614a3f565b80156114395780601f1061140e57610100808354040283529160200191611439565b820191906000526020600020905b81548152906001019060200180831161141c57829003601f168201915b50505050509080600601549080600701805461145490614a3f565b80601f016020809104026020016040519081016040528092919081815260200182805461148090614a3f565b80156114cd5780601f106114a2576101008083540402835291602001916114cd565b820191906000526020600020905b8154815290600101906020018083116114b057829003601f168201915b5050505050908060080180546114e290614a3f565b80601f016020809104026020016040519081016040528092919081815260200182805461150e90614a3f565b801561155b5780601f106115305761010080835404028352916020019161155b565b820191906000526020600020905b81548152906001019060200180831161153e57829003601f168201915b5050505050905088565b6006818154811061157557600080fd5b600091825260209091206009909102018054600182015460028301546003840180549395506001600160a01b039283169492909116926115b490614a3f565b80601f01602080910402602001604051908101604052809291908181526020018280546115e090614a3f565b801561162d5780601f106116025761010080835404028352916020019161162d565b820191906000526020600020905b81548152906001019060200180831161161057829003601f168201915b50505050509080600501549080600601805461164890614a3f565b80601f016020809104026020016040519081016040528092919081815260200182805461167490614a3f565b80156116c15780601f10611696576101008083540402835291602001916116c1565b820191906000526020600020905b8154815290600101906020018083116116a457829003601f168201915b5050505050908060070180546116d690614a3f565b80601f016020809104026020016040519081016040528092919081815260200182805461170290614a3f565b801561174f5780601f106117245761010080835404028352916020019161174f565b820191906000526020600020905b81548152906001019060200180831161173257829003601f168201915b5050505050908060080154905088565b6005546060908211156117845760405162461bcd60e51b815260040161050090614cf6565b6000611791600184614b7e565b90506000600582815481106117a8576117a86149fa565b906000526020600020906009020160040180548060200260200160405190810160405280929190818152602001828054801561180357602002820191906000526020600020905b8154815260200190600101908083116117ef575b50505050509050600081516001600160401b0381111561182557611825613d6b565b60405190808252806020026020018201604052801561185e57816020015b61184b613c50565b8152602001906001900390816118435790505b50905060005b8251811015611b445760066001848381518110611883576118836149fa565b60200260200101516118959190614b7e565b815481106118a5576118a56149fa565b6000918252602091829020604080516101208101825260099093029091018054835260018101546001600160a01b039081169484019490945260028101549093169082015260038201805491929160608401919061190290614a3f565b80601f016020809104026020016040519081016040528092919081815260200182805461192e90614a3f565b801561197b5780601f106119505761010080835404028352916020019161197b565b820191906000526020600020905b81548152906001019060200180831161195e57829003601f168201915b50505050508152602001600482018054806020026020016040519081016040528092919081815260200182805480156119d357602002820191906000526020600020905b8154815260200190600101908083116119bf575b50505050508152602001600582015481526020016006820180546119f690614a3f565b80601f0160208091040260200160405190810160405280929190818152602001828054611a2290614a3f565b8015611a6f5780601f10611a4457610100808354040283529160200191611a6f565b820191906000526020600020905b815481529060010190602001808311611a5257829003601f168201915b50505050508152602001600782018054611a8890614a3f565b80601f0160208091040260200160405190810160405280929190818152602001828054611ab490614a3f565b8015611b015780601f10611ad657610100808354040283529160200191611b01565b820191906000526020600020905b815481529060010190602001808311611ae457829003601f168201915b50505050508152602001600882015481525050828281518110611b2657611b266149fa565b60200260200101819052508080611b3c90614bdc565b915050611864565b50949350505050565b611b55613c50565b600654821115611b775760405162461bcd60e51b815260040161050090614d22565b6000611b84600184614b7e565b9050600060068281548110611b9b57611b9b6149fa565b6000918252602091829020604080516101208101825260099093029091018054835260018101546001600160a01b0390811694840194909452600281015490931690820152600382018054919291606084019190611bf890614a3f565b80601f0160208091040260200160405190810160405280929190818152602001828054611c2490614a3f565b8015611c715780601f10611c4657610100808354040283529160200191611c71565b820191906000526020600020905b815481529060010190602001808311611c5457829003601f168201915b5050505050815260200160048201805480602002602001604051908101604052809291908181526020018280548015611cc957602002820191906000526020600020905b815481526020019060010190808311611cb5575b5050505050815260200160058201548152602001600682018054611cec90614a3f565b80601f0160208091040260200160405190810160405280929190818152602001828054611d1890614a3f565b8015611d655780601f10611d3a57610100808354040283529160200191611d65565b820191906000526020600020905b815481529060010190602001808311611d4857829003601f168201915b50505050508152602001600782018054611d7e90614a3f565b80601f0160208091040260200160405190810160405280929190818152602001828054611daa90614a3f565b8015611df75780601f10611dcc57610100808354040283529160200191611df7565b820191906000526020600020905b815481529060010190602001808311611dda57829003601f168201915b5050505050815260200160088201548152505090508060a00151600003611e305760405162461bcd60e51b815260040161050090614bf5565b9392505050565b611e3f613af2565b8051825114611e605760405162461bcd60e51b8152600401610500906149c3565b60005b8251811015612122576000838281518110611e8057611e806149fa565b602002602001015190506000838381518110611e9e57611e9e6149fa565b6020026020010151905060006001600160a01b0316826001600160a01b031603611efc5760405162461bcd60e51b815260206004820152600f60248201526e496e76616c6964206164647265737360881b6044820152606401610500565b6001600160a01b03811661204b5760005b60015481101561204557826001600160a01b031660018281548110611f3457611f346149fa565b6000918252602090912001546001600160a01b0316036120335760018054611f5d908290614b7e565b81548110611f6d57611f6d6149fa565b600091825260209091200154600180546001600160a01b039092169183908110611f9957611f996149fa565b9060005260206000200160006101000a8154816001600160a01b0302191690836001600160a01b031602179055506001805480611fd857611fd8614d50565b600082815260208120820160001990810180546001600160a01b03191690559091019091556040516001600160a01b038516917f44a3cd4eb5cc5748f6169df057b1cb2ae4c383e87cd94663c430e095d4cba42491a2612045565b8061203d81614bdc565b915050611f0d565b5061210d565b60005b60015481101561210b57826001600160a01b031660018281548110612075576120756149fa565b6000918252602090912001546001600160a01b0316036120f95781600182815481106120a3576120a36149fa565b6000918252602082200180546001600160a01b0319166001600160a01b03938416179055604051848316928616917f50d741fe04ad9863c69d1406658f6ec7c4f5e48ec2faf966a36a3e47fc05c9d991a361210b565b8061210381614bdc565b91505061204e565b505b5050808061211a90614bdc565b915050611e63565b505050565b60008060608060006060806005805490508811156121575760405162461bcd60e51b815260040161050090614cf6565b600061216460018a614b7e565b905060006005828154811061217b5761217b6149fa565b9060005260206000209060090201905080600301546000036121eb5760405162461bcd60e51b8152602060048201526024808201527f436f6d70616e79207769746820676976656e20494420646f6573206e6f7420656044820152631e1a5cdd60e21b6064820152608401610500565b80600301548160010160009054906101000a90046001600160a01b031682600201836005018460060154856007018660080184805461222990614a3f565b80601f016020809104026020016040519081016040528092919081815260200182805461225590614a3f565b80156122a25780601f10612277576101008083540402835291602001916122a2565b820191906000526020600020905b81548152906001019060200180831161228557829003601f168201915b505050505094508380546122b590614a3f565b80601f01602080910402602001604051908101604052809291908181526020018280546122e190614a3f565b801561232e5780601f106123035761010080835404028352916020019161232e565b820191906000526020600020905b81548152906001019060200180831161231157829003601f168201915b5050505050935081805461234190614a3f565b80601f016020809104026020016040519081016040528092919081815260200182805461236d90614a3f565b80156123ba5780601f1061238f576101008083540402835291602001916123ba565b820191906000526020600020905b81548152906001019060200180831161239d57829003601f168201915b505050505091508080546123cd90614a3f565b80601f01602080910402602001604051908101604052809291908181526020018280546123f990614a3f565b80156124465780601f1061241b57610100808354040283529160200191612446565b820191906000526020600020905b81548152906001019060200180831161242957829003601f168201915b5050505050905098509850985098509850985098505050919395979092949650565b612470613ae7565b8061248557506000546001600160a01b031633145b6124a15760405162461bcd60e51b815260040161050090614d66565b60008151116124f25760405162461bcd60e51b815260206004820152601760248201527f4e6f20636f6d70616e79204944732070726f76696465640000000000000000006044820152606401610500565b60005b8151811015612624576000828281518110612512576125126149fa565b602002602001015190506005805490508111156125415760405162461bcd60e51b815260040161050090614cf6565b600061254e600183614b7e565b60405190915082907f028fe2791b514c47642f0d652f7c237752aea1929ed16396ef24b45eb7e2b31590600090a26005818154811061258f5761258f6149fa565b6000918252602082206009909102018181556001810180546001600160a01b0319169055906125c16002830182613cae565b60038201600090556004820160006125d99190613ce8565b6125e7600583016000613cae565b60068201600090556007820160006125ff9190613cae565b61260d600883016000613cae565b50505050808061261c90614bdc565b9150506124f5565b5050565b60065460609082111561264d5760405162461bcd60e51b815260040161050090614d22565b600061265a600184614b7e565b9050600060068281548110612671576126716149fa565b9060005260206000209060090201905080600501546000036126a55760405162461bcd60e51b815260040161050090614bf5565b6000816004018054806020026020016040519081016040528092919081815260200182805480156126f557602002820191906000526020600020905b8154815260200190600101908083116126e1575b50505050509050600081516001600160401b0381111561271757612717613d6b565b60405190808252806020026020018201604052801561275057816020015b61273d613d06565b8152602001906001900390816127355790505b50905060005b8251811015612a5d576007838281518110612773576127736149fa565b60200260200101518154811061278b5761278b6149fa565b906000526020600020906008020160405180610120016040529081600082015481526020016001820180546127bf90614a3f565b80601f01602080910402602001604051908101604052809291908181526020018280546127eb90614a3f565b80156128385780601f1061280d57610100808354040283529160200191612838565b820191906000526020600020905b81548152906001019060200180831161281b57829003601f168201915b505050505081526020016002820154815260200160038201805461285b90614a3f565b80601f016020809104026020016040519081016040528092919081815260200182805461288790614a3f565b80156128d45780601f106128a9576101008083540402835291602001916128d4565b820191906000526020600020905b8154815290600101906020018083116128b757829003601f168201915b505050505081526020016004820180546128ed90614a3f565b80601f016020809104026020016040519081016040528092919081815260200182805461291990614a3f565b80156129665780601f1061293b57610100808354040283529160200191612966565b820191906000526020600020905b81548152906001019060200180831161294957829003601f168201915b5050505050815260200160058201805461297f90614a3f565b80601f01602080910402602001604051908101604052809291908181526020018280546129ab90614a3f565b80156129f85780601f106129cd576101008083540402835291602001916129f8565b820191906000526020600020905b8154815290600101906020018083116129db57829003601f168201915b5050509183525050600682015460ff8082161515602084015261010090910416151560408201526007909101546060909101528251839083908110612a3f57612a3f6149fa565b60200260200101819052508080612a5590614bdc565b915050612756565b5095945050505050565b612a6f613af2565b612a796000613b4c565b565b905090565b600654606090821115612aa55760405162461bcd60e51b815260040161050090614d22565b6000612ab2600184614b7e565b9050600060068281548110612ac957612ac96149fa565b906000526020600020906009020190508060050154600003612afd5760405162461bcd60e51b815260040161050090614bf5565b600081600401805480602002602001604051908101604052809291908181526020018280548015612b4d57602002820191906000526020600020905b815481526020019060010190808311612b39575b50505050509050600081516001600160401b03811115612b6f57612b6f613d6b565b604051908082528060200260200182016040528015612ba857816020015b612b95613d06565b815260200190600190039081612b8d5790505b50905060005b8251811015612a5d5760076001848381518110612bcd57612bcd6149fa565b6020026020010151612bdf9190614b7e565b81548110612bef57612bef6149fa565b90600052602060002090600802016040518061012001604052908160008201548152602001600182018054612c2390614a3f565b80601f0160208091040260200160405190810160405280929190818152602001828054612c4f90614a3f565b8015612c9c5780601f10612c7157610100808354040283529160200191612c9c565b820191906000526020600020905b815481529060010190602001808311612c7f57829003601f168201915b5050505050815260200160028201548152602001600382018054612cbf90614a3f565b80601f0160208091040260200160405190810160405280929190818152602001828054612ceb90614a3f565b8015612d385780601f10612d0d57610100808354040283529160200191612d38565b820191906000526020600020905b815481529060010190602001808311612d1b57829003601f168201915b50505050508152602001600482018054612d5190614a3f565b80601f0160208091040260200160405190810160405280929190818152602001828054612d7d90614a3f565b8015612dca5780601f10612d9f57610100808354040283529160200191612dca565b820191906000526020600020905b815481529060010190602001808311612dad57829003601f168201915b50505050508152602001600582018054612de390614a3f565b80601f0160208091040260200160405190810160405280929190818152602001828054612e0f90614a3f565b8015612e5c5780601f10612e3157610100808354040283529160200191612e5c565b820191906000526020600020905b815481529060010190602001808311612e3f57829003601f168201915b5050509183525050600682015460ff8082161515602084015261010090910416151560408201526007909101546060909101528251839083908110612ea357612ea36149fa565b60200260200101819052508080612eb990614bdc565b915050612bae565b6060612ecb613af2565b6001805480602002602001604051908101604052809291908181526020018280548015612f2157602002820191906000526020600020905b81546001600160a01b03168152600190910190602001808311612f03575b5050505050905090565b60018181548110612f3b57600080fd5b6000918252602090912001546001600160a01b0316905081565b612f5d613af2565b6000815111612fa45760405162461bcd60e51b8152602060048201526013602482015272139bc81d995c9a599a595c9cc81d1bc8185919606a1b6044820152606401610500565b6002548151600154612fb69190614a26565b11156130105760405162461bcd60e51b815260206004820152602360248201527f45786365656473206d6178696d756d206e756d626572206f662076657269666960448201526265727360e81b6064820152608401610500565b60005b8151811015612624576000828281518110613030576130306149fa565b6020026020010151905060006001600160a01b0316816001600160a01b03160361308e5760405162461bcd60e51b815260206004820152600f60248201526e496e76616c6964206164647265737360881b6044820152606401610500565b60018054808201825560009182527fb10e2d527612073b26eecdfd717e6a320cf44b4afac2b0732d9fcbe2b7fa0cf60180546001600160a01b0319166001600160a01b03841690811790915560405190917f6d05492139c5ea989514a5d2150c028041e5c087e2a39967f67dc7d2655adb8191a2508061310d81614bdc565b915050613013565b336000908152600360205260409020546131415760405162461bcd60e51b815260040161050090614994565b80518251146131625760405162461bcd60e51b8152600401610500906149c3565b60005b82518110156121225760008361317c600184614b7e565b8151811061318c5761318c6149fa565b602002602001015190506000836001846131a69190614b7e565b815181106131b6576131b66149fa565b60200260200101519050600682815481106131d3576131d36149fa565b9060005260206000209060090201600501546000036132045760405162461bcd60e51b815260040161050090614bf5565b6000613211600183614b7e565b60408051848152602081018690529192507f61656cb8d1dc6013bb7713ae498059b6f4df3c60e832e655a6765c0c54863008910160405180910390a160068381548110613260576132606149fa565b90600052602060002090600902016004018181548110613282576132826149fa565b9060005260206000200160009055505050808061329e90614bdc565b915050613165565b600781815481106132b657600080fd5b600091825260209091206008909102018054600182018054919350906132db90614a3f565b80601f016020809104026020016040519081016040528092919081815260200182805461330790614a3f565b80156133545780601f1061332957610100808354040283529160200191613354565b820191906000526020600020905b81548152906001019060200180831161333757829003601f168201915b50505050509080600201549080600301805461336f90614a3f565b80601f016020809104026020016040519081016040528092919081815260200182805461339b90614a3f565b80156133e85780601f106133bd576101008083540402835291602001916133e8565b820191906000526020600020905b8154815290600101906020018083116133cb57829003601f168201915b5050505050908060040180546133fd90614a3f565b80601f016020809104026020016040519081016040528092919081815260200182805461342990614a3f565b80156134765780601f1061344b57610100808354040283529160200191613476565b820191906000526020600020905b81548152906001019060200180831161345957829003601f168201915b50505050509080600501805461348b90614a3f565b80601f01602080910402602001604051908101604052809291908181526020018280546134b790614a3f565b80156135045780601f106134d957610100808354040283529160200191613504565b820191906000526020600020905b8154815290600101906020018083116134e757829003601f168201915b505050506006830154600790930154919260ff8082169361010090920416915089565b61352f613ae7565b8061354457506000546001600160a01b031633145b6135605760405162461bcd60e51b815260040161050090614d66565b84518651148015613572575083518651145b801561357f575082518651145b801561358c575081518651145b8015613599575080518651145b6135b55760405162461bcd60e51b8152600401610500906149c3565b60005b865181101561385f5760008782815181106135d5576135d56149fa565b6020026020010151905060008783815181106135f3576135f36149fa565b602002602001015190506000878481518110613611576136116149fa565b60200260200101519050600087858151811061362f5761362f6149fa565b60200260200101519050600087868151811061364d5761364d6149fa565b60200260200101519050600087878151811061366b5761366b6149fa565b60200260200101519050600060058054905060016136899190614a26565b90506005604051806101200160405280428152602001896001600160a01b0316815260200188815260200183815260200160006001600160401b038111156136d3576136d3613d6b565b6040519080825280602002602001820160405280156136fc578160200160208202803683370190505b5081526020808201899052604080830189905260608301889052608090920186905283546001808201865560009586529482902084516009909202019081559083015193810180546001600160a01b0319166001600160a01b039095169490941790935581015190919060028201906137759082614abf565b50606082015160038201556080820151805161379b916004840191602090910190613c05565b5060a082015160058201906137b09082614abf565b5060c0820151600682015560e082015160078201906137cf9082614abf565b5061010082015160088201906137e59082614abf565b5050506001600160a01b038716600081815260036020526040908190208390555182907fc9c99e7b42f7789f7ac090a92a6e5f98c03ad412be267f7fb9bb60b571b690879061383d908a908a908a908a908a90614c97565b60405180910390a350505050505050808061385790614bdc565b9150506135b8565b50505050505050565b613870613ae7565b8061388957503360009081526003602052604090205415155b6138a55760405162461bcd60e51b815260040161050090614d66565b60005b8151811015612624576000826138bf600184614b7e565b815181106138cf576138cf6149fa565b60200260200101519050600681815481106138ec576138ec6149fa565b90600052602060002090600902016005015460000361391d5760405162461bcd60e51b815260040161050090614bf5565b600061392a600183614b7e565b60405190915082907f294c5a9bc8a39e6e06502bc8da429980f6c7b0990d75b682c12cb8705e3ace8590600090a26006818154811061396b5761396b6149fa565b6000918252602082206009909102018181556001810180546001600160a01b03199081169091556002820180549091169055906139ab6003830182613cae565b6139b9600483016000613ce8565b60058201600090556006820160006139d19190613cae565b6139df600783016000613cae565b60088201600090555050505080806139f690614bdc565b9150506138a8565b613a06613af2565b6001600160a01b038116613a6b5760405162461bcd60e51b815260206004820152602660248201527f4f776e61626c653a206e6577206f776e657220697320746865207a65726f206160448201526564647265737360d01b6064820152608401610500565b613a7481613b4c565b50565b613a7f613af2565b60008111613ae25760405162461bcd60e51b815260206004820152602a60248201527f4d6178696d756d207665726966696572732073686f756c6420626520677265616044820152690746572207468616e20360b41b6064820152608401610500565b600255565b6000612a7b33613b9c565b6000546001600160a01b03163314612a795760405162461bcd60e51b815260206004820181905260248201527f4f776e61626c653a2063616c6c6572206973206e6f7420746865206f776e65726044820152606401610500565b600080546001600160a01b038381166001600160a01b0319831681178455604051919092169283917f8be0079c531659141344cd1fd0a4f28419497f9722a3daafe3b4186f6b6457e09190a35050565b6000805b600154811015613bfc57826001600160a01b031660018281548110613bc757613bc76149fa565b6000918252602090912001546001600160a01b031603613bea5750600192915050565b80613bf481614bdc565b915050613ba0565b50600092915050565b828054828255906000526020600020908101928215613c40579160200282015b82811115613c40578251825591602001919060010190613c25565b50613c4c929150613d56565b5090565b6040518061012001604052806000815260200160006001600160a01b0316815260200160006001600160a01b031681526020016060815260200160608152602001600081526020016060815260200160608152602001600081525090565b508054613cba90614a3f565b6000825580601f10613cca575050565b601f016020900490600052602060002090810190613a749190613d56565b5080546000825590600052602060002090810190613a749190613d56565b604051806101200160405280600081526020016060815260200160008152602001606081526020016060815260200160608152602001600015158152602001600015158152602001600081525090565b5b80821115613c4c5760008155600101613d57565b634e487b7160e01b600052604160045260246000fd5b604051601f8201601f191681016001600160401b0381118282101715613da957613da9613d6b565b604052919050565b60006001600160401b03821115613dca57613dca613d6b565b5060051b60200190565b80356001600160a01b0381168114613deb57600080fd5b919050565b600082601f830112613e0157600080fd5b81356020613e16613e1183613db1565b613d81565b82815260059290921b84018101918181019086841115613e3557600080fd5b8286015b84811015613e5757613e4a81613dd4565b8352918301918301613e39565b509695505050505050565b600082601f830112613e7357600080fd5b81356001600160401b03811115613e8c57613e8c613d6b565b613e9f601f8201601f1916602001613d81565b818152846020838601011115613eb457600080fd5b816020850160208301376000918101602001919091529392505050565b600082601f830112613ee257600080fd5b81356020613ef2613e1183613db1565b82815260059290921b84018101918181019086841115613f1157600080fd5b8286015b84811015613e575780356001600160401b03811115613f345760008081fd5b613f428986838b0101613e62565b845250918301918301613f15565b600082601f830112613f6157600080fd5b81356020613f71613e1183613db1565b82815260059290921b84018101918181019086841115613f9057600080fd5b8286015b84811015613e575780358352918301918301613f94565b600080600080600060a08688031215613fc357600080fd5b85356001600160401b0380821115613fda57600080fd5b613fe689838a01613df0565b96506020880135915080821115613ffc57600080fd5b61400889838a01613ed1565b9550604088013591508082111561401e57600080fd5b61402a89838a01613ed1565b9450606088013591508082111561404057600080fd5b61404c89838a01613ed1565b9350608088013591508082111561406257600080fd5b5061406f88828901613f50565b9150509295509295909350565b6000806040838503121561408f57600080fd5b8235915061409f60208401613dd4565b90509250929050565b60008060008060008060c087890312156140c157600080fd5b8635955060208701356001600160401b03808211156140df57600080fd5b6140eb8a838b01613e62565b9650604089013591508082111561410157600080fd5b61410d8a838b01613e62565b9550606089013591508082111561412357600080fd5b5061413089828a01613e62565b9350506080870135915061414660a08801613dd4565b90509295509295509295565b600080600080600060a0868803121561416a57600080fd5b85356001600160401b038082111561418157600080fd5b61418d89838a01613ed1565b965060208801359150808211156141a357600080fd5b6141af89838a01613ed1565b955060408801359150808211156141c557600080fd5b6141d189838a01613f50565b945060608801359150808211156141e757600080fd5b6141f389838a01613ed1565b9350608088013591508082111561420957600080fd5b5061406f88828901613ed1565b6000806040838503121561422957600080fd5b823591506020830135801515811461424057600080fd5b809150509250929050565b60006020828403121561425d57600080fd5b5035919050565b6000815180845260005b8181101561428a5760208185018101518683018201520161426e565b506000602082860101526020601f19601f83011685010191505092915050565b8881526001600160a01b0388166020820152610100604082018190526000906142d58382018a614264565b905087606084015282810360808401526142ef8188614264565b90508560a084015282810360c08401526143098186614264565b905082810360e084015261431d8185614264565b9b9a5050505050505050505050565b8881526001600160a01b038881166020830152871660408201526101006060820181905260009061435f83820189614264565b905086608084015282810360a08401526143798187614264565b905082810360c084015261438d8186614264565b9150508260e08301529998505050505050505050565b600081518084526020808501945080840160005b838110156143d3578151875295820195908201906001016143b7565b509495945050505050565b600061012082518452602083015161440160208601826001600160a01b03169052565b50604083015161441c60408601826001600160a01b03169052565b50606083015181606086015261443482860182614264565b9150506080830151848203608086015261444e82826143a3565b91505060a083015160a085015260c083015184820360c08601526144728282614264565b91505060e083015184820360e086015261448c8282614264565b610100948501519590940194909452509092915050565b6000602080830181845280855180835260408601915060408160051b870101925083870160005b828110156144f857603f198886030184526144e68583516143de565b945092850192908501906001016144ca565b5092979650505050505050565b602081526000611e3060208301846143de565b6000806040838503121561452b57600080fd5b82356001600160401b038082111561454257600080fd5b61454e86838701613df0565b9350602085013591508082111561456457600080fd5b5061457185828601613df0565b9150509250929050565b8781526001600160a01b038716602082015260e0604082018190526000906145a590830188614264565b82810360608401526145b78188614264565b905085608084015282810360a08401526145d18186614264565b905082810360c08401526145e58185614264565b9a9950505050505050505050565b60006020828403121561460557600080fd5b81356001600160401b0381111561461b57600080fd5b61462784828501613f50565b949350505050565b60006020828403121561464157600080fd5b611e3082613dd4565b60006020808301818452808551808352604092508286019150828160051b87010184880160005b8381101561473957603f1989840301855281516101208151855288820151818a8701526146a082870182614264565b9150508782015188860152606080830151868303828801526146c28382614264565b92505050608080830151868303828801526146dd8382614264565b9250505060a080830151868303828801526146f88382614264565b9250505060c08083015161470f8288018215159052565b505060e0828101511515908601526101009182015191909401529386019390860190600101614671565b509098975050505050505050565b6020808252825182820181905260009190848201906040850190845b818110156147885783516001600160a01b031683529284019291840191600101614763565b50909695505050505050565b6000602082840312156147a657600080fd5b81356001600160401b038111156147bc57600080fd5b61462784828501613df0565b600080604083850312156147db57600080fd5b82356001600160401b03808211156147f257600080fd5b6147fe86838701613f50565b9350602085013591508082111561481457600080fd5b5061457185828601613f50565b60006101208b835280602084015261483b8184018c614264565b90508960408401528281036060840152614855818a614264565b905082810360808401526148698189614264565b905082810360a084015261487d8188614264565b95151560c0840152505091151560e0830152610100909101529695505050505050565b60008060008060008060c087890312156148b957600080fd5b86356001600160401b03808211156148d057600080fd5b6148dc8a838b01613df0565b975060208901359150808211156148f257600080fd5b6148fe8a838b01613ed1565b9650604089013591508082111561491457600080fd5b6149208a838b01613ed1565b9550606089013591508082111561493657600080fd5b6149428a838b01613f50565b9450608089013591508082111561495857600080fd5b6149648a838b01613ed1565b935060a089013591508082111561497a57600080fd5b5061498789828a01613ed1565b9150509295509295509295565b60208082526015908201527413db9b1e4818dbdb5c185b9e4818d85b8818d85b1b605a1b604082015260600190565b60208082526018908201527f4d69736d61746368656420696e707574206c656e677468730000000000000000604082015260600190565b634e487b7160e01b600052603260045260246000fd5b634e487b7160e01b600052601160045260246000fd5b80820180821115614a3957614a39614a10565b92915050565b600181811c90821680614a5357607f821691505b602082108103614a7357634e487b7160e01b600052602260045260246000fd5b50919050565b601f82111561212257600081815260208120601f850160051c81016020861015614aa05750805b601f850160051c820191505b8181101561092b57828155600101614aac565b81516001600160401b03811115614ad857614ad8613d6b565b614aec81614ae68454614a3f565b84614a79565b602080601f831160018114614b215760008415614b095750858301515b600019600386901b1c1916600185901b17855561092b565b600085815260208120601f198616915b82811015614b5057888601518255948401946001909101908401614b31565b5085821015614b6e5787850151600019600388901b60f8161c191681555b5050505050600190811b01905550565b81810381811115614a3957614a39614a10565b608081526000614ba46080830187614264565b8281036020840152614bb68187614264565b90508281036040840152614bca8186614264565b91505082606083015295945050505050565b600060018201614bee57614bee614a10565b5060010190565b60208082526026908201527f43616e646964617465207769746820676976656e20494420646f6573206e6f7460408201526508195e1a5cdd60d21b606082015260800190565b60a081526000614c4e60a0830188614264565b8281036020840152614c608188614264565b90508281036040840152614c748187614264565b606084019590955250506001600160a01b03919091166080909101529392505050565b60a081526000614caa60a0830188614264565b8281036020840152614cbc8188614264565b90508560408401528281036060840152614cd68186614264565b90508281036080840152614cea8185614264565b98975050505050505050565b602080825260129082015271125b9d985b1a590818dbdb5c185b9e48125160721b604082015260600190565b602080825260149082015273125b9d985b1a590818d85b991a59185d1948125160621b604082015260600190565b634e487b7160e01b600052603160045260246000fd5b6020808252601f908201527f4f6e6c79207665726966696572206f72206f776e65722063616e2063616c6c0060408201526060019056fea26469706673582212201208f4a82636cb9c74f6e6a462a3da220415767c920ac2233182be2277a4dc3764736f6c63430008150033","opcodes":"PUSH1 0x80 PUSH1 0x40 MSTORE PUSH1 0xA PUSH1 0x2 SSTORE CALLVALUE DUP1 ISZERO PUSH3 0x16 JUMPI PUSH1 0x0 DUP1 REVERT JUMPDEST POP PUSH3 0x22 CALLER PUSH3 0x28 JUMP JUMPDEST PUSH3 0x78 JUMP JUMPDEST PUSH1 0x0 DUP1 SLOAD PUSH1 0x1 PUSH1 0x1 PUSH1 0xA0 SHL SUB DUP4 DUP2 AND PUSH1 0x1 PUSH1 0x1 PUSH1 0xA0 SHL SUB NOT DUP4 AND DUP2 OR DUP5 SSTORE PUSH1 0x40 MLOAD SWAP2 SWAP1 SWAP3 AND SWAP3 DUP4 SWAP2 PUSH32 0x8BE0079C531659141344CD1FD0A4F28419497F9722A3DAAFE3B4186F6B6457E0 SWAP2 SWAP1 LOG3 POP POP JUMP JUMPDEST PUSH2 0x4DD3 DUP1 PUSH3 0x88 PUSH1 0x0 CODECOPY PUSH1 0x0 RETURN INVALID PUSH1 0x80 PUSH1 0x40 MSTORE CALLVALUE DUP1 ISZERO PUSH2 0x10 JUMPI PUSH1 0x0 DUP1 REVERT JUMPDEST POP PUSH1 0x4 CALLDATASIZE LT PUSH2 0x1E5 JUMPI PUSH1 0x0 CALLDATALOAD PUSH1 0xE0 SHR DUP1 PUSH4 0x78BDA750 GT PUSH2 0x10F JUMPI DUP1 PUSH4 0xB4D7E8DF GT PUSH2 0xA2 JUMPI DUP1 PUSH4 0xDF2BA0DE GT PUSH2 0x71 JUMPI DUP1 PUSH4 0xDF2BA0DE EQ PUSH2 0x488 JUMPI DUP1 PUSH4 0xEED18318 EQ PUSH2 0x49B JUMPI DUP1 PUSH4 0xF2FDE38B EQ PUSH2 0x4AE JUMPI DUP1 PUSH4 0xFC7435E1 EQ PUSH2 0x4C1 JUMPI PUSH1 0x0 DUP1 REVERT JUMPDEST DUP1 PUSH4 0xB4D7E8DF EQ PUSH2 0x425 JUMPI DUP1 PUSH4 0xB5344257 EQ PUSH2 0x43A JUMPI DUP1 PUSH4 0xBB3096AA EQ PUSH2 0x44D JUMPI DUP1 PUSH4 0xC2ED2B05 EQ PUSH2 0x460 JUMPI PUSH1 0x0 DUP1 REVERT JUMPDEST DUP1 PUSH4 0x99E37A55 GT PUSH2 0xDE JUMPI DUP1 PUSH4 0x99E37A55 EQ PUSH2 0x3CA JUMPI DUP1 PUSH4 0xA2576089 EQ PUSH2 0x3EA JUMPI DUP1 PUSH4 0xA935E766 EQ PUSH2 0x3FD JUMPI DUP1 PUSH4 0xAC1EFF68 EQ PUSH2 0x412 JUMPI PUSH1 0x0 DUP1 REVERT JUMPDEST DUP1 PUSH4 0x78BDA750 EQ PUSH2 0x384 JUMPI DUP1 PUSH4 0x893D20E8 EQ PUSH2 0x38D JUMPI DUP1 PUSH4 0x8DA5CB5B EQ PUSH2 0x3B2 JUMPI DUP1 PUSH4 0x9483FBCB EQ PUSH2 0x3C3 JUMPI PUSH1 0x0 DUP1 REVERT JUMPDEST DUP1 PUSH4 0x35AF9742 GT PUSH2 0x187 JUMPI DUP1 PUSH4 0x5990CE80 GT PUSH2 0x156 JUMPI DUP1 PUSH4 0x5990CE80 EQ PUSH2 0x31B JUMPI DUP1 PUSH4 0x6DD08047 EQ PUSH2 0x32E JUMPI DUP1 PUSH4 0x6EB3B4E9 EQ PUSH2 0x35C JUMPI DUP1 PUSH4 0x715018A6 EQ PUSH2 0x37C JUMPI PUSH1 0x0 DUP1 REVERT JUMPDEST DUP1 PUSH4 0x35AF9742 EQ PUSH2 0x2A2 JUMPI DUP1 PUSH4 0x35B8E820 EQ PUSH2 0x2C2 JUMPI DUP1 PUSH4 0x4DC95895 EQ PUSH2 0x2E2 JUMPI DUP1 PUSH4 0x57D13917 EQ PUSH2 0x2F5 JUMPI PUSH1 0x0 DUP1 REVERT JUMPDEST DUP1 PUSH4 0x1E32F407 GT PUSH2 0x1C3 JUMPI DUP1 PUSH4 0x1E32F407 EQ PUSH2 0x225 JUMPI DUP1 PUSH4 0x24E96DF6 EQ PUSH2 0x238 JUMPI DUP1 PUSH4 0x2813D19D EQ PUSH2 0x24B JUMPI DUP1 PUSH4 0x3477EE2E EQ PUSH2 0x27B JUMPI PUSH1 0x0 DUP1 REVERT JUMPDEST DUP1 PUSH4 0x13A1C563 EQ PUSH2 0x1EA JUMPI DUP1 PUSH4 0x1A203A31 EQ PUSH2 0x1FF JUMPI DUP1 PUSH4 0x1B280EA9 EQ PUSH2 0x212 JUMPI JUMPDEST PUSH1 0x0 DUP1 REVERT JUMPDEST PUSH2 0x1FD PUSH2 0x1F8 CALLDATASIZE PUSH1 0x4 PUSH2 0x3FAB JUMP JUMPDEST PUSH2 0x4D4 JUMP JUMPDEST STOP JUMPDEST PUSH2 0x1FD PUSH2 0x20D CALLDATASIZE PUSH1 0x4 PUSH2 0x407C JUMP JUMPDEST PUSH2 0x933 JUMP JUMPDEST PUSH2 0x1FD PUSH2 0x220 CALLDATASIZE PUSH1 0x4 PUSH2 0x40A8 JUMP JUMPDEST PUSH2 0xB0B JUMP JUMPDEST PUSH2 0x1FD PUSH2 0x233 CALLDATASIZE PUSH1 0x4 PUSH2 0x4152 JUMP JUMPDEST PUSH2 0xD84 JUMP JUMPDEST PUSH2 0x1FD PUSH2 0x246 CALLDATASIZE PUSH1 0x4 PUSH2 0x4216 JUMP JUMPDEST PUSH2 0x10A2 JUMP JUMPDEST PUSH2 0x25E PUSH2 0x259 CALLDATASIZE PUSH1 0x4 PUSH2 0x424B JUMP JUMPDEST PUSH2 0x12E6 JUMP JUMPDEST PUSH1 0x40 MLOAD PUSH2 0x272 SWAP9 SWAP8 SWAP7 SWAP6 SWAP5 SWAP4 SWAP3 SWAP2 SWAP1 PUSH2 0x42AA JUMP JUMPDEST PUSH1 0x40 MLOAD DUP1 SWAP2 SUB SWAP1 RETURN JUMPDEST PUSH2 0x28E PUSH2 0x289 CALLDATASIZE PUSH1 0x4 PUSH2 0x424B JUMP JUMPDEST PUSH2 0x1565 JUMP JUMPDEST PUSH1 0x40 MLOAD PUSH2 0x272 SWAP9 SWAP8 SWAP7 SWAP6 SWAP5 SWAP4 SWAP3 SWAP2 SWAP1 PUSH2 0x432C JUMP JUMPDEST PUSH2 0x2B5 PUSH2 0x2B0 CALLDATASIZE PUSH1 0x4 PUSH2 0x424B JUMP JUMPDEST PUSH2 0x175F JUMP JUMPDEST PUSH1 0x40 MLOAD PUSH2 0x272 SWAP2 SWAP1 PUSH2 0x44A3 JUMP JUMPDEST PUSH2 0x2D5 PUSH2 0x2D0 CALLDATASIZE PUSH1 0x4 PUSH2 0x424B JUMP JUMPDEST PUSH2 0x1B4D JUMP JUMPDEST PUSH1 0x40 MLOAD PUSH2 0x272 SWAP2 SWAP1 PUSH2 0x4505 JUMP JUMPDEST PUSH2 0x1FD PUSH2 0x2F0 CALLDATASIZE PUSH1 0x4 PUSH2 0x4518 JUMP JUMPDEST PUSH2 0x1E37 JUMP JUMPDEST PUSH2 0x308 PUSH2 0x303 CALLDATASIZE PUSH1 0x4 PUSH2 0x424B JUMP JUMPDEST PUSH2 0x2127 JUMP JUMPDEST PUSH1 0x40 MLOAD PUSH2 0x272 SWAP8 SWAP7 SWAP6 SWAP5 SWAP4 SWAP3 SWAP2 SWAP1 PUSH2 0x457B JUMP JUMPDEST PUSH2 0x1FD PUSH2 0x329 CALLDATASIZE PUSH1 0x4 PUSH2 0x45F3 JUMP JUMPDEST PUSH2 0x2468 JUMP JUMPDEST PUSH2 0x34E PUSH2 0x33C CALLDATASIZE PUSH1 0x4 PUSH2 0x462F JUMP JUMPDEST PUSH1 0x3 PUSH1 0x20 MSTORE PUSH1 0x0 SWAP1 DUP2 MSTORE PUSH1 0x40 SWAP1 KECCAK256 SLOAD DUP2 JUMP JUMPDEST PUSH1 0x40 MLOAD SWAP1 DUP2 MSTORE PUSH1 0x20 ADD PUSH2 0x272 JUMP JUMPDEST PUSH2 0x36F PUSH2 0x36A CALLDATASIZE PUSH1 0x4 PUSH2 0x424B JUMP JUMPDEST PUSH2 0x2628 JUMP JUMPDEST PUSH1 0x40 MLOAD PUSH2 0x272 SWAP2 SWAP1 PUSH2 0x464A JUMP JUMPDEST PUSH2 0x1FD PUSH2 0x2A67 JUMP JUMPDEST PUSH2 0x34E PUSH1 0x2 SLOAD DUP2 JUMP JUMPDEST PUSH1 0x0 SLOAD PUSH1 0x1 PUSH1 0x1 PUSH1 0xA0 SHL SUB AND JUMPDEST PUSH1 0x40 MLOAD PUSH1 0x1 PUSH1 0x1 PUSH1 0xA0 SHL SUB SWAP1 SWAP2 AND DUP2 MSTORE PUSH1 0x20 ADD PUSH2 0x272 JUMP JUMPDEST PUSH1 0x0 SLOAD PUSH1 0x1 PUSH1 0x1 PUSH1 0xA0 SHL SUB AND PUSH2 0x39A JUMP JUMPDEST PUSH1 0x0 PUSH2 0x39A JUMP JUMPDEST PUSH2 0x34E PUSH2 0x3D8 CALLDATASIZE PUSH1 0x4 PUSH2 0x462F JUMP JUMPDEST PUSH1 0x4 PUSH1 0x20 MSTORE PUSH1 0x0 SWAP1 DUP2 MSTORE PUSH1 0x40 SWAP1 KECCAK256 SLOAD DUP2 JUMP JUMPDEST PUSH2 0x36F PUSH2 0x3F8 CALLDATASIZE PUSH1 0x4 PUSH2 0x424B JUMP JUMPDEST PUSH2 0x2A80 JUMP JUMPDEST PUSH2 0x405 PUSH2 0x2EC1 JUMP JUMPDEST PUSH1 0x40 MLOAD PUSH2 0x272 SWAP2 SWAP1 PUSH2 0x4747 JUMP JUMPDEST PUSH2 0x39A PUSH2 0x420 CALLDATASIZE PUSH1 0x4 PUSH2 0x424B JUMP JUMPDEST PUSH2 0x2F2B JUMP JUMPDEST CALLER PUSH1 0x0 SWAP1 DUP2 MSTORE PUSH1 0x3 PUSH1 0x20 MSTORE PUSH1 0x40 SWAP1 KECCAK256 SLOAD PUSH2 0x34E JUMP JUMPDEST PUSH2 0x1FD PUSH2 0x448 CALLDATASIZE PUSH1 0x4 PUSH2 0x4794 JUMP JUMPDEST PUSH2 0x2F55 JUMP JUMPDEST PUSH2 0x1FD PUSH2 0x45B CALLDATASIZE PUSH1 0x4 PUSH2 0x47C8 JUMP JUMPDEST PUSH2 0x3115 JUMP JUMPDEST PUSH2 0x473 PUSH2 0x46E CALLDATASIZE PUSH1 0x4 PUSH2 0x424B JUMP JUMPDEST PUSH2 0x32A6 JUMP JUMPDEST PUSH1 0x40 MLOAD PUSH2 0x272 SWAP10 SWAP9 SWAP8 SWAP7 SWAP6 SWAP5 SWAP4 SWAP3 SWAP2 SWAP1 PUSH2 0x4821 JUMP JUMPDEST PUSH2 0x1FD PUSH2 0x496 CALLDATASIZE PUSH1 0x4 PUSH2 0x48A0 JUMP JUMPDEST PUSH2 0x3527 JUMP JUMPDEST PUSH2 0x1FD PUSH2 0x4A9 CALLDATASIZE PUSH1 0x4 PUSH2 0x45F3 JUMP JUMPDEST PUSH2 0x3868 JUMP JUMPDEST PUSH2 0x1FD PUSH2 0x4BC CALLDATASIZE PUSH1 0x4 PUSH2 0x462F JUMP JUMPDEST PUSH2 0x39FE JUMP JUMPDEST PUSH2 0x1FD PUSH2 0x4CF CALLDATASIZE PUSH1 0x4 PUSH2 0x424B JUMP JUMPDEST PUSH2 0x3A77 JUMP JUMPDEST CALLER PUSH1 0x0 SWAP1 DUP2 MSTORE PUSH1 0x3 PUSH1 0x20 MSTORE PUSH1 0x40 SWAP1 KECCAK256 SLOAD PUSH2 0x509 JUMPI PUSH1 0x40 MLOAD PUSH3 0x461BCD PUSH1 0xE5 SHL DUP2 MSTORE PUSH1 0x4 ADD PUSH2 0x500 SWAP1 PUSH2 0x4994 JUMP JUMPDEST PUSH1 0x40 MLOAD DUP1 SWAP2 SUB SWAP1 REVERT JUMPDEST DUP4 MLOAD DUP6 MLOAD EQ PUSH2 0x52A JUMPI PUSH1 0x40 MLOAD PUSH3 0x461BCD PUSH1 0xE5 SHL DUP2 MSTORE PUSH1 0x4 ADD PUSH2 0x500 SWAP1 PUSH2 0x49C3 JUMP JUMPDEST PUSH1 0x0 JUMPDEST DUP6 MLOAD DUP2 LT ISZERO PUSH2 0x92B JUMPI PUSH1 0x0 DUP7 DUP3 DUP2 MLOAD DUP2 LT PUSH2 0x54A JUMPI PUSH2 0x54A PUSH2 0x49FA JUMP JUMPDEST PUSH1 0x20 MUL PUSH1 0x20 ADD ADD MLOAD SWAP1 POP PUSH1 0x0 DUP7 DUP4 DUP2 MLOAD DUP2 LT PUSH2 0x568 JUMPI PUSH2 0x568 PUSH2 0x49FA JUMP JUMPDEST PUSH1 0x20 MUL PUSH1 0x20 ADD ADD MLOAD SWAP1 POP PUSH1 0x0 DUP7 DUP5 DUP2 MLOAD DUP2 LT PUSH2 0x586 JUMPI PUSH2 0x586 PUSH2 0x49FA JUMP JUMPDEST PUSH1 0x20 MUL PUSH1 0x20 ADD ADD MLOAD SWAP1 POP PUSH1 0x0 DUP7 DUP6 DUP2 MLOAD DUP2 LT PUSH2 0x5A4 JUMPI PUSH2 0x5A4 PUSH2 0x49FA JUMP JUMPDEST PUSH1 0x20 MUL PUSH1 0x20 ADD ADD MLOAD SWAP1 POP PUSH1 0x0 DUP7 DUP7 DUP2 MLOAD DUP2 LT PUSH2 0x5C2 JUMPI PUSH2 0x5C2 PUSH2 0x49FA JUMP JUMPDEST PUSH1 0x20 MUL PUSH1 0x20 ADD ADD MLOAD SWAP1 POP PUSH1 0x4 PUSH1 0x0 DUP7 PUSH1 0x1 PUSH1 0x1 PUSH1 0xA0 SHL SUB AND PUSH1 0x1 PUSH1 0x1 PUSH1 0xA0 SHL SUB AND DUP2 MSTORE PUSH1 0x20 ADD SWAP1 DUP2 MSTORE PUSH1 0x20 ADD PUSH1 0x0 KECCAK256 SLOAD PUSH1 0x0 EQ PUSH2 0x659 JUMPI PUSH1 0x40 MLOAD PUSH3 0x461BCD PUSH1 0xE5 SHL DUP2 MSTORE PUSH1 0x20 PUSH1 0x4 DUP3 ADD MSTORE PUSH1 0x2F PUSH1 0x24 DUP3 ADD MSTORE PUSH32 0x43616E64696461746520776974682074686520676976656E2061646472657373 PUSH1 0x44 DUP3 ADD MSTORE PUSH15 0x20616C726561647920657869737473 PUSH1 0x88 SHL PUSH1 0x64 DUP3 ADD MSTORE PUSH1 0x84 ADD PUSH2 0x500 JUMP JUMPDEST PUSH1 0x1 PUSH1 0x1 PUSH1 0xA0 SHL SUB DUP6 AND PUSH2 0x6A8 JUMPI PUSH1 0x40 MLOAD PUSH3 0x461BCD PUSH1 0xE5 SHL DUP2 MSTORE PUSH1 0x20 PUSH1 0x4 DUP3 ADD MSTORE PUSH1 0x16 PUSH1 0x24 DUP3 ADD MSTORE PUSH22 0x416464726573732063616E6E6F74206265207A65726F PUSH1 0x50 SHL PUSH1 0x44 DUP3 ADD MSTORE PUSH1 0x64 ADD PUSH2 0x500 JUMP JUMPDEST PUSH1 0x0 DUP5 MLOAD GT PUSH2 0x6F0 JUMPI PUSH1 0x40 MLOAD PUSH3 0x461BCD PUSH1 0xE5 SHL DUP2 MSTORE PUSH1 0x20 PUSH1 0x4 DUP3 ADD MSTORE PUSH1 0x14 PUSH1 0x24 DUP3 ADD MSTORE PUSH20 0x4E616D652063616E6E6F7420626520656D707479 PUSH1 0x60 SHL PUSH1 0x44 DUP3 ADD MSTORE PUSH1 0x64 ADD PUSH2 0x500 JUMP JUMPDEST PUSH1 0x6 SLOAD PUSH1 0x0 SWAP1 PUSH2 0x701 SWAP1 PUSH1 0x1 PUSH2 0x4A26 JUMP JUMPDEST SWAP1 POP PUSH1 0x6 PUSH1 0x40 MLOAD DUP1 PUSH2 0x120 ADD PUSH1 0x40 MSTORE DUP1 TIMESTAMP DUP2 MSTORE PUSH1 0x20 ADD DUP9 PUSH1 0x1 PUSH1 0x1 PUSH1 0xA0 SHL SUB AND DUP2 MSTORE PUSH1 0x20 ADD CALLER PUSH1 0x1 PUSH1 0x1 PUSH1 0xA0 SHL SUB AND DUP2 MSTORE PUSH1 0x20 ADD DUP8 DUP2 MSTORE PUSH1 0x20 ADD PUSH1 0x0 PUSH1 0x1 PUSH1 0x1 PUSH1 0x40 SHL SUB DUP2 GT ISZERO PUSH2 0x754 JUMPI PUSH2 0x754 PUSH2 0x3D6B JUMP JUMPDEST PUSH1 0x40 MLOAD SWAP1 DUP1 DUP3 MSTORE DUP1 PUSH1 0x20 MUL PUSH1 0x20 ADD DUP3 ADD PUSH1 0x40 MSTORE DUP1 ISZERO PUSH2 0x77D JUMPI DUP2 PUSH1 0x20 ADD PUSH1 0x20 DUP3 MUL DUP1 CALLDATASIZE DUP4 CALLDATACOPY ADD SWAP1 POP JUMPDEST POP DUP2 MSTORE PUSH1 0x20 DUP1 DUP3 ADD DUP6 SWAP1 MSTORE PUSH1 0x40 DUP1 DUP4 ADD DUP10 SWAP1 MSTORE PUSH1 0x60 DUP1 DUP5 ADD DUP10 SWAP1 MSTORE PUSH1 0x80 SWAP1 SWAP4 ADD DUP8 SWAP1 MSTORE DUP5 SLOAD PUSH1 0x1 DUP2 DUP2 ADD DUP8 SSTORE PUSH1 0x0 SWAP7 DUP8 MSTORE SWAP6 DUP4 SWAP1 KECCAK256 DUP6 MLOAD PUSH1 0x9 SWAP1 SWAP3 MUL ADD SWAP1 DUP2 SSTORE SWAP2 DUP5 ADD MLOAD SWAP5 DUP3 ADD DUP1 SLOAD PUSH1 0x1 PUSH1 0x1 PUSH1 0xA0 SHL SUB SWAP7 DUP8 AND PUSH1 0x1 PUSH1 0x1 PUSH1 0xA0 SHL SUB NOT SWAP2 DUP3 AND OR SWAP1 SWAP2 SSTORE SWAP1 DUP5 ADD MLOAD PUSH1 0x2 DUP4 ADD DUP1 SLOAD SWAP2 SWAP1 SWAP7 AND SWAP2 AND OR SWAP1 SWAP4 SSTORE DUP2 ADD MLOAD SWAP1 SWAP2 SWAP1 PUSH1 0x3 DUP3 ADD SWAP1 PUSH2 0x80A SWAP1 DUP3 PUSH2 0x4ABF JUMP JUMPDEST POP PUSH1 0x80 DUP3 ADD MLOAD DUP1 MLOAD PUSH2 0x826 SWAP2 PUSH1 0x4 DUP5 ADD SWAP2 PUSH1 0x20 SWAP1 SWAP2 ADD SWAP1 PUSH2 0x3C05 JUMP JUMPDEST POP PUSH1 0xA0 DUP3 ADD MLOAD PUSH1 0x5 DUP3 ADD SSTORE PUSH1 0xC0 DUP3 ADD MLOAD PUSH1 0x6 DUP3 ADD SWAP1 PUSH2 0x845 SWAP1 DUP3 PUSH2 0x4ABF JUMP JUMPDEST POP PUSH1 0xE0 DUP3 ADD MLOAD PUSH1 0x7 DUP3 ADD SWAP1 PUSH2 0x85A SWAP1 DUP3 PUSH2 0x4ABF JUMP JUMPDEST POP PUSH2 0x100 SWAP2 SWAP1 SWAP2 ADD MLOAD PUSH1 0x8 SWAP1 SWAP2 ADD SSTORE CALLER PUSH1 0x0 SWAP1 DUP2 MSTORE PUSH1 0x3 PUSH1 0x20 MSTORE PUSH1 0x40 SWAP1 KECCAK256 SLOAD PUSH1 0x5 SWAP1 PUSH2 0x888 SWAP1 PUSH1 0x1 SWAP1 PUSH2 0x4B7E JUMP JUMPDEST DUP2 SLOAD DUP2 LT PUSH2 0x898 JUMPI PUSH2 0x898 PUSH2 0x49FA JUMP JUMPDEST PUSH1 0x0 SWAP2 DUP3 MSTORE PUSH1 0x20 DUP1 DUP4 KECCAK256 PUSH1 0x4 PUSH1 0x9 SWAP1 SWAP4 MUL ADD DUP3 ADD DUP1 SLOAD PUSH1 0x1 DUP2 ADD DUP3 SSTORE SWAP1 DUP5 MSTORE DUP2 DUP5 KECCAK256 ADD DUP5 SWAP1 SSTORE PUSH1 0x1 PUSH1 0x1 PUSH1 0xA0 SHL SUB DUP10 AND DUP4 MSTORE MSTORE PUSH1 0x40 SWAP1 DUP2 SWAP1 KECCAK256 DUP3 SWAP1 SSTORE MLOAD DUP2 SWAP1 PUSH32 0xB132C360D5C4C80C0D43F46E53B9B874E559E8E8EA4156A5FEC2A021F826D00A SWAP1 PUSH2 0x90A SWAP1 DUP9 SWAP1 DUP9 SWAP1 DUP9 SWAP1 DUP9 SWAP1 PUSH2 0x4B91 JUMP JUMPDEST PUSH1 0x40 MLOAD DUP1 SWAP2 SUB SWAP1 LOG2 POP POP POP POP POP POP DUP1 DUP1 PUSH2 0x923 SWAP1 PUSH2 0x4BDC JUMP JUMPDEST SWAP2 POP POP PUSH2 0x52D JUMP JUMPDEST POP POP POP POP POP POP JUMP JUMPDEST PUSH1 0x0 PUSH2 0x940 PUSH1 0x1 DUP5 PUSH2 0x4B7E JUMP JUMPDEST SWAP1 POP PUSH2 0x95A CALLER PUSH1 0x0 SWAP1 DUP2 MSTORE PUSH1 0x3 PUSH1 0x20 MSTORE PUSH1 0x40 SWAP1 KECCAK256 SLOAD ISZERO ISZERO SWAP1 JUMP JUMPDEST PUSH2 0x976 JUMPI PUSH1 0x40 MLOAD PUSH3 0x461BCD PUSH1 0xE5 SHL DUP2 MSTORE PUSH1 0x4 ADD PUSH2 0x500 SWAP1 PUSH2 0x4994 JUMP JUMPDEST PUSH1 0x6 DUP2 DUP2 SLOAD DUP2 LT PUSH2 0x989 JUMPI PUSH2 0x989 PUSH2 0x49FA JUMP JUMPDEST SWAP1 PUSH1 0x0 MSTORE PUSH1 0x20 PUSH1 0x0 KECCAK256 SWAP1 PUSH1 0x9 MUL ADD PUSH1 0x5 ADD SLOAD PUSH1 0x0 SUB PUSH2 0x9BA JUMPI PUSH1 0x40 MLOAD PUSH3 0x461BCD PUSH1 0xE5 SHL DUP2 MSTORE PUSH1 0x4 ADD PUSH2 0x500 SWAP1 PUSH2 0x4BF5 JUMP JUMPDEST PUSH1 0x0 PUSH1 0x1 PUSH1 0x1 PUSH1 0xA0 SHL SUB AND PUSH1 0x6 DUP3 DUP2 SLOAD DUP2 LT PUSH2 0x9D8 JUMPI PUSH2 0x9D8 PUSH2 0x49FA JUMP JUMPDEST PUSH1 0x0 SWAP2 DUP3 MSTORE PUSH1 0x20 SWAP1 SWAP2 KECCAK256 PUSH1 0x2 PUSH1 0x9 SWAP1 SWAP3 MUL ADD ADD SLOAD PUSH1 0x1 PUSH1 0x1 PUSH1 0xA0 SHL SUB AND EQ PUSH2 0xA8E JUMPI PUSH1 0x40 MLOAD PUSH3 0x461BCD PUSH1 0xE5 SHL DUP2 MSTORE PUSH1 0x20 PUSH1 0x4 DUP3 ADD MSTORE PUSH1 0x57 PUSH1 0x24 DUP3 ADD MSTORE PUSH32 0x41732074686520636F6D70616E7920686173206265656E20616C726561647920 PUSH1 0x44 DUP3 ADD MSTORE PUSH32 0x61737369676E65642C20596F752063616E6E6F74206F76657220777269746520 PUSH1 0x64 DUP3 ADD MSTORE PUSH32 0x63757272656E7420636F6D70616E792064657461696C73000000000000000000 PUSH1 0x84 DUP3 ADD MSTORE PUSH1 0xA4 ADD PUSH2 0x500 JUMP JUMPDEST DUP2 PUSH1 0x6 DUP3 DUP2 SLOAD DUP2 LT PUSH2 0xAA2 JUMPI PUSH2 0xAA2 PUSH2 0x49FA JUMP JUMPDEST PUSH1 0x0 SWAP2 DUP3 MSTORE PUSH1 0x20 SWAP2 DUP3 SWAP1 KECCAK256 PUSH1 0x9 SWAP2 SWAP1 SWAP2 MUL ADD PUSH1 0x2 ADD DUP1 SLOAD PUSH1 0x1 PUSH1 0x1 PUSH1 0xA0 SHL SUB NOT AND PUSH1 0x1 PUSH1 0x1 PUSH1 0xA0 SHL SUB SWAP4 DUP5 AND OR SWAP1 SSTORE PUSH1 0x40 MLOAD SWAP2 DUP5 AND DUP3 MSTORE DUP3 SWAP2 PUSH32 0x1004BF4098083445CD4AC13954FDCEA1D9530A61F6F2A7D5A628BEA6141EB17C SWAP2 ADD PUSH1 0x40 MLOAD DUP1 SWAP2 SUB SWAP1 LOG2 POP POP POP JUMP JUMPDEST PUSH1 0x0 PUSH2 0xB18 PUSH1 0x1 DUP9 PUSH2 0x4B7E JUMP JUMPDEST SWAP1 POP PUSH2 0xB32 CALLER PUSH1 0x0 SWAP1 DUP2 MSTORE PUSH1 0x3 PUSH1 0x20 MSTORE PUSH1 0x40 SWAP1 KECCAK256 SLOAD ISZERO ISZERO SWAP1 JUMP JUMPDEST PUSH2 0xB4E JUMPI PUSH1 0x40 MLOAD PUSH3 0x461BCD PUSH1 0xE5 SHL DUP2 MSTORE PUSH1 0x4 ADD PUSH2 0x500 SWAP1 PUSH2 0x4994 JUMP JUMPDEST PUSH1 0x6 DUP2 DUP2 SLOAD DUP2 LT PUSH2 0xB61 JUMPI PUSH2 0xB61 PUSH2 0x49FA JUMP JUMPDEST SWAP1 PUSH1 0x0 MSTORE PUSH1 0x20 PUSH1 0x0 KECCAK256 SWAP1 PUSH1 0x9 MUL ADD PUSH1 0x5 ADD SLOAD PUSH1 0x0 SUB PUSH2 0xB92 JUMPI PUSH1 0x40 MLOAD PUSH3 0x461BCD PUSH1 0xE5 SHL DUP2 MSTORE PUSH1 0x4 ADD PUSH2 0x500 SWAP1 PUSH2 0x4BF5 JUMP JUMPDEST CALLER PUSH1 0x1 PUSH1 0x1 PUSH1 0xA0 SHL SUB AND PUSH1 0x6 DUP3 DUP2 SLOAD DUP2 LT PUSH2 0xBAF JUMPI PUSH2 0xBAF PUSH2 0x49FA JUMP JUMPDEST PUSH1 0x0 SWAP2 DUP3 MSTORE PUSH1 0x20 SWAP1 SWAP2 KECCAK256 PUSH1 0x2 PUSH1 0x9 SWAP1 SWAP3 MUL ADD ADD SLOAD PUSH1 0x1 PUSH1 0x1 PUSH1 0xA0 SHL SUB AND EQ PUSH2 0xC33 JUMPI PUSH1 0x40 MLOAD PUSH3 0x461BCD PUSH1 0xE5 SHL DUP2 MSTORE PUSH1 0x20 PUSH1 0x4 DUP3 ADD MSTORE PUSH1 0x31 PUSH1 0x24 DUP3 ADD MSTORE PUSH32 0x596F7520646F206E6F742068617665207065726D697373696F6E20746F206564 PUSH1 0x44 DUP3 ADD MSTORE PUSH17 0x697420746869732063616E646964617465 PUSH1 0x78 SHL PUSH1 0x64 DUP3 ADD MSTORE PUSH1 0x84 ADD PUSH2 0x500 JUMP JUMPDEST DUP6 PUSH1 0x6 DUP3 DUP2 SLOAD DUP2 LT PUSH2 0xC47 JUMPI PUSH2 0xC47 PUSH2 0x49FA JUMP JUMPDEST SWAP1 PUSH1 0x0 MSTORE PUSH1 0x20 PUSH1 0x0 KECCAK256 SWAP1 PUSH1 0x9 MUL ADD PUSH1 0x3 ADD SWAP1 DUP2 PUSH2 0xC64 SWAP2 SWAP1 PUSH2 0x4ABF JUMP JUMPDEST POP DUP5 PUSH1 0x6 DUP3 DUP2 SLOAD DUP2 LT PUSH2 0xC79 JUMPI PUSH2 0xC79 PUSH2 0x49FA JUMP JUMPDEST SWAP1 PUSH1 0x0 MSTORE PUSH1 0x20 PUSH1 0x0 KECCAK256 SWAP1 PUSH1 0x9 MUL ADD PUSH1 0x6 ADD SWAP1 DUP2 PUSH2 0xC96 SWAP2 SWAP1 PUSH2 0x4ABF JUMP JUMPDEST POP DUP4 PUSH1 0x6 DUP3 DUP2 SLOAD DUP2 LT PUSH2 0xCAB JUMPI PUSH2 0xCAB PUSH2 0x49FA JUMP JUMPDEST SWAP1 PUSH1 0x0 MSTORE PUSH1 0x20 PUSH1 0x0 KECCAK256 SWAP1 PUSH1 0x9 MUL ADD PUSH1 0x7 ADD SWAP1 DUP2 PUSH2 0xCC8 SWAP2 SWAP1 PUSH2 0x4ABF JUMP JUMPDEST POP DUP3 PUSH1 0x6 DUP3 DUP2 SLOAD DUP2 LT PUSH2 0xCDD JUMPI PUSH2 0xCDD PUSH2 0x49FA JUMP JUMPDEST SWAP1 PUSH1 0x0 MSTORE PUSH1 0x20 PUSH1 0x0 KECCAK256 SWAP1 PUSH1 0x9 MUL ADD PUSH1 0x8 ADD DUP2 SWAP1 SSTORE POP DUP2 PUSH1 0x6 DUP3 DUP2 SLOAD DUP2 LT PUSH2 0xD06 JUMPI PUSH2 0xD06 PUSH2 0x49FA JUMP JUMPDEST SWAP1 PUSH1 0x0 MSTORE PUSH1 0x20 PUSH1 0x0 KECCAK256 SWAP1 PUSH1 0x9 MUL ADD PUSH1 0x2 ADD PUSH1 0x0 PUSH2 0x100 EXP DUP2 SLOAD DUP2 PUSH1 0x1 PUSH1 0x1 PUSH1 0xA0 SHL SUB MUL NOT AND SWAP1 DUP4 PUSH1 0x1 PUSH1 0x1 PUSH1 0xA0 SHL SUB AND MUL OR SWAP1 SSTORE POP DUP1 PUSH32 0xBDB27B8859F11D297EDB4D29BC56F12A3D84D3A4D7F5668D62ACF04DF78789B4 DUP8 DUP8 DUP8 DUP8 DUP8 PUSH1 0x40 MLOAD PUSH2 0xD73 SWAP6 SWAP5 SWAP4 SWAP3 SWAP2 SWAP1 PUSH2 0x4C3B JUMP JUMPDEST PUSH1 0x40 MLOAD DUP1 SWAP2 SUB SWAP1 LOG2 POP POP POP POP POP POP POP JUMP JUMPDEST CALLER PUSH1 0x0 SWAP1 DUP2 MSTORE PUSH1 0x3 PUSH1 0x20 MSTORE PUSH1 0x40 SWAP1 KECCAK256 SLOAD PUSH2 0xDB0 JUMPI PUSH1 0x40 MLOAD PUSH3 0x461BCD PUSH1 0xE5 SHL DUP2 MSTORE PUSH1 0x4 ADD PUSH2 0x500 SWAP1 PUSH2 0x4994 JUMP JUMPDEST DUP4 MLOAD DUP6 MLOAD EQ DUP1 ISZERO PUSH2 0xDC2 JUMPI POP DUP3 MLOAD DUP6 MLOAD EQ JUMPDEST PUSH2 0xDDE JUMPI PUSH1 0x40 MLOAD PUSH3 0x461BCD PUSH1 0xE5 SHL DUP2 MSTORE PUSH1 0x4 ADD PUSH2 0x500 SWAP1 PUSH2 0x49C3 JUMP JUMPDEST PUSH1 0x0 JUMPDEST DUP6 MLOAD DUP2 LT ISZERO PUSH2 0x92B JUMPI PUSH1 0x0 DUP7 DUP3 DUP2 MLOAD DUP2 LT PUSH2 0xDFE JUMPI PUSH2 0xDFE PUSH2 0x49FA JUMP JUMPDEST PUSH1 0x20 MUL PUSH1 0x20 ADD ADD MLOAD SWAP1 POP PUSH1 0x0 DUP7 DUP4 DUP2 MLOAD DUP2 LT PUSH2 0xE1C JUMPI PUSH2 0xE1C PUSH2 0x49FA JUMP JUMPDEST PUSH1 0x20 MUL PUSH1 0x20 ADD ADD MLOAD SWAP1 POP PUSH1 0x0 DUP7 DUP5 DUP2 MLOAD DUP2 LT PUSH2 0xE3A JUMPI PUSH2 0xE3A PUSH2 0x49FA JUMP JUMPDEST PUSH1 0x20 MUL PUSH1 0x20 ADD ADD MLOAD SWAP1 POP PUSH1 0x0 DUP7 DUP6 DUP2 MLOAD DUP2 LT PUSH2 0xE58 JUMPI PUSH2 0xE58 PUSH2 0x49FA JUMP JUMPDEST PUSH1 0x20 MUL PUSH1 0x20 ADD ADD MLOAD SWAP1 POP PUSH1 0x0 DUP7 DUP7 DUP2 MLOAD DUP2 LT PUSH2 0xE76 JUMPI PUSH2 0xE76 PUSH2 0x49FA JUMP JUMPDEST PUSH1 0x20 MUL PUSH1 0x20 ADD ADD MLOAD SWAP1 POP PUSH1 0x6 DUP4 DUP2 SLOAD DUP2 LT PUSH2 0xE93 JUMPI PUSH2 0xE93 PUSH2 0x49FA JUMP JUMPDEST SWAP1 PUSH1 0x0 MSTORE PUSH1 0x20 PUSH1 0x0 KECCAK256 SWAP1 PUSH1 0x9 MUL ADD PUSH1 0x5 ADD SLOAD PUSH1 0x0 SUB PUSH2 0xEC4 JUMPI PUSH1 0x40 MLOAD PUSH3 0x461BCD PUSH1 0xE5 SHL DUP2 MSTORE PUSH1 0x4 ADD PUSH2 0x500 SWAP1 PUSH2 0x4BF5 JUMP JUMPDEST PUSH1 0x7 SLOAD PUSH1 0x0 SWAP1 PUSH2 0xED5 SWAP1 PUSH1 0x1 PUSH2 0x4A26 JUMP JUMPDEST PUSH1 0x40 DUP1 MLOAD PUSH2 0x120 DUP2 ADD DUP3 MSTORE TIMESTAMP DUP2 MSTORE PUSH1 0x20 DUP2 ADD DUP10 DUP2 MSTORE SWAP2 DUP2 ADD DUP4 SWAP1 MSTORE PUSH1 0x60 DUP2 ADD DUP9 SWAP1 MSTORE PUSH1 0x80 DUP2 ADD DUP7 SWAP1 MSTORE PUSH1 0xA0 DUP2 ADD DUP6 SWAP1 MSTORE PUSH1 0x0 PUSH1 0xC0 DUP3 ADD DUP2 SWAP1 MSTORE PUSH1 0xE0 DUP3 ADD DUP2 SWAP1 MSTORE PUSH2 0x100 DUP3 ADD DUP9 SWAP1 MSTORE PUSH1 0x7 DUP1 SLOAD PUSH1 0x1 DUP2 ADD DUP3 SSTORE SWAP2 MSTORE DUP2 MLOAD PUSH1 0x8 SWAP1 SWAP2 MUL PUSH32 0xA66CC928B5EDB82AF9BD49922954155AB7B0942694BEA4CE44661D9A8736C688 DUP2 ADD SWAP2 DUP3 SSTORE SWAP3 MLOAD SWAP4 SWAP5 POP SWAP1 SWAP3 SWAP1 SWAP2 PUSH32 0xA66CC928B5EDB82AF9BD49922954155AB7B0942694BEA4CE44661D9A8736C689 ADD SWAP1 PUSH2 0xF8C SWAP1 DUP3 PUSH2 0x4ABF JUMP JUMPDEST POP PUSH1 0x40 DUP3 ADD MLOAD PUSH1 0x2 DUP3 ADD SSTORE PUSH1 0x60 DUP3 ADD MLOAD PUSH1 0x3 DUP3 ADD SWAP1 PUSH2 0xFAB SWAP1 DUP3 PUSH2 0x4ABF JUMP JUMPDEST POP PUSH1 0x80 DUP3 ADD MLOAD PUSH1 0x4 DUP3 ADD SWAP1 PUSH2 0xFC0 SWAP1 DUP3 PUSH2 0x4ABF JUMP JUMPDEST POP PUSH1 0xA0 DUP3 ADD MLOAD PUSH1 0x5 DUP3 ADD SWAP1 PUSH2 0xFD5 SWAP1 DUP3 PUSH2 0x4ABF JUMP JUMPDEST POP PUSH1 0xC0 DUP3 ADD MLOAD PUSH1 0x6 DUP3 DUP2 ADD DUP1 SLOAD PUSH1 0xE0 DUP7 ADD MLOAD PUSH2 0xFFFF NOT SWAP1 SWAP2 AND SWAP4 ISZERO ISZERO PUSH2 0xFF00 NOT AND SWAP4 SWAP1 SWAP4 OR PUSH2 0x100 SWAP4 ISZERO ISZERO DUP5 MUL OR SWAP1 SSTORE SWAP3 ADD MLOAD PUSH1 0x7 SWAP1 SWAP2 ADD SSTORE DUP1 SLOAD DUP6 SWAP1 DUP2 LT PUSH2 0x1020 JUMPI PUSH2 0x1020 PUSH2 0x49FA JUMP JUMPDEST PUSH1 0x0 SWAP2 DUP3 MSTORE PUSH1 0x20 DUP1 DUP4 KECCAK256 PUSH1 0x4 PUSH1 0x9 SWAP1 SWAP4 MUL ADD SWAP2 SWAP1 SWAP2 ADD DUP1 SLOAD PUSH1 0x1 DUP2 ADD DUP3 SSTORE SWAP1 DUP4 MSTORE SWAP2 KECCAK256 ADD DUP2 SWAP1 SSTORE PUSH1 0x40 MLOAD DUP2 SWAP1 PUSH32 0xDF3F376D0902D940A4E067B169121175E19DFFA31960867F2CE6943BC6CB5ABB SWAP1 PUSH2 0x1081 SWAP1 DUP10 SWAP1 DUP10 SWAP1 DUP10 SWAP1 DUP10 SWAP1 DUP10 SWAP1 PUSH2 0x4C97 JUMP JUMPDEST PUSH1 0x40 MLOAD DUP1 SWAP2 SUB SWAP1 LOG2 POP POP POP POP POP POP DUP1 DUP1 PUSH2 0x109A SWAP1 PUSH2 0x4BDC JUMP JUMPDEST SWAP2 POP POP PUSH2 0xDE1 JUMP JUMPDEST PUSH2 0x10AA PUSH2 0x3AE7 JUMP JUMPDEST PUSH2 0x10EF JUMPI PUSH1 0x40 MLOAD PUSH3 0x461BCD PUSH1 0xE5 SHL DUP2 MSTORE PUSH1 0x20 PUSH1 0x4 DUP3 ADD MSTORE PUSH1 0x16 PUSH1 0x24 DUP3 ADD MSTORE PUSH22 0x13DB9B1E481D995C9A599A595C8818D85B8818D85B1B PUSH1 0x52 SHL PUSH1 0x44 DUP3 ADD MSTORE PUSH1 0x64 ADD PUSH2 0x500 JUMP JUMPDEST PUSH1 0x7 SLOAD DUP3 GT ISZERO PUSH2 0x1137 JUMPI PUSH1 0x40 MLOAD PUSH3 0x461BCD PUSH1 0xE5 SHL DUP2 MSTORE PUSH1 0x20 PUSH1 0x4 DUP3 ADD MSTORE PUSH1 0x13 PUSH1 0x24 DUP3 ADD MSTORE PUSH19 0x125B9D985B1A5908191BD8DD5B595B9D081251 PUSH1 0x6A SHL PUSH1 0x44 DUP3 ADD MSTORE PUSH1 0x64 ADD PUSH2 0x500 JUMP JUMPDEST PUSH1 0x0 PUSH2 0x1144 PUSH1 0x1 DUP5 PUSH2 0x4B7E JUMP JUMPDEST SWAP1 POP PUSH1 0x0 PUSH1 0x7 DUP3 DUP2 SLOAD DUP2 LT PUSH2 0x115B JUMPI PUSH2 0x115B PUSH2 0x49FA JUMP JUMPDEST SWAP1 PUSH1 0x0 MSTORE PUSH1 0x20 PUSH1 0x0 KECCAK256 SWAP1 PUSH1 0x8 MUL ADD SWAP1 POP DUP1 PUSH1 0x2 ADD SLOAD PUSH1 0x0 SUB PUSH2 0x11CD JUMPI PUSH1 0x40 MLOAD PUSH3 0x461BCD PUSH1 0xE5 SHL DUP2 MSTORE PUSH1 0x20 PUSH1 0x4 DUP3 ADD MSTORE PUSH1 0x25 PUSH1 0x24 DUP3 ADD MSTORE PUSH32 0x446F63756D656E74207769746820676976656E20494420646F6573206E6F7420 PUSH1 0x44 DUP3 ADD MSTORE PUSH5 0x195E1A5CDD PUSH1 0xDA SHL PUSH1 0x64 DUP3 ADD MSTORE PUSH1 0x84 ADD PUSH2 0x500 JUMP JUMPDEST PUSH1 0x6 DUP2 ADD SLOAD PUSH1 0xFF AND ISZERO DUP1 ISZERO PUSH2 0x11EC JUMPI POP PUSH1 0x6 DUP2 ADD SLOAD PUSH2 0x100 SWAP1 DIV PUSH1 0xFF AND ISZERO JUMPDEST PUSH2 0x125E JUMPI PUSH1 0x40 MLOAD PUSH3 0x461BCD PUSH1 0xE5 SHL DUP2 MSTORE PUSH1 0x20 PUSH1 0x4 DUP3 ADD MSTORE PUSH1 0x37 PUSH1 0x24 DUP3 ADD MSTORE PUSH32 0x446F63756D656E74207769746820676976656E20494420697320616C72656164 PUSH1 0x44 DUP3 ADD MSTORE PUSH32 0x79207665726966696564206F722063616E63656C6C6564000000000000000000 PUSH1 0x64 DUP3 ADD MSTORE PUSH1 0x84 ADD PUSH2 0x500 JUMP JUMPDEST DUP3 ISZERO PUSH2 0x12A5 JUMPI PUSH1 0x6 DUP2 ADD DUP1 SLOAD PUSH2 0xFF00 NOT AND PUSH2 0x100 OR SWAP1 SSTORE PUSH1 0x40 MLOAD DUP5 SWAP1 PUSH32 0x7B4845702FCFEEF348208AA5C3EF0909D12E56C50C288CDBA03C5462CFD921B5 SWAP1 PUSH1 0x0 SWAP1 LOG2 PUSH2 0x12E0 JUMP JUMPDEST PUSH1 0x6 DUP2 ADD DUP1 SLOAD PUSH1 0xFF NOT AND PUSH1 0x1 OR SWAP1 SSTORE PUSH1 0x40 MLOAD DUP5 SWAP1 PUSH32 0x4B93FD5160FBC8B35D08AFF650902CF41C86E6DF325A3EABAB5BCCA811976CF7 SWAP1 PUSH1 0x0 SWAP1 LOG2 JUMPDEST POP POP POP POP JUMP JUMPDEST PUSH1 0x5 DUP2 DUP2 SLOAD DUP2 LT PUSH2 0x12F6 JUMPI PUSH1 0x0 DUP1 REVERT JUMPDEST PUSH1 0x0 SWAP2 DUP3 MSTORE PUSH1 0x20 SWAP1 SWAP2 KECCAK256 PUSH1 0x9 SWAP1 SWAP2 MUL ADD DUP1 SLOAD PUSH1 0x1 DUP3 ADD SLOAD PUSH1 0x2 DUP4 ADD DUP1 SLOAD SWAP3 SWAP5 POP PUSH1 0x1 PUSH1 0x1 PUSH1 0xA0 SHL SUB SWAP1 SWAP2 AND SWAP3 SWAP2 PUSH2 0x132C SWAP1 PUSH2 0x4A3F JUMP JUMPDEST DUP1 PUSH1 0x1F ADD PUSH1 0x20 DUP1 SWAP2 DIV MUL PUSH1 0x20 ADD PUSH1 0x40 MLOAD SWAP1 DUP2 ADD PUSH1 0x40 MSTORE DUP1 SWAP3 SWAP2 SWAP1 DUP2 DUP2 MSTORE PUSH1 0x20 ADD DUP3 DUP1 SLOAD PUSH2 0x1358 SWAP1 PUSH2 0x4A3F JUMP JUMPDEST DUP1 ISZERO PUSH2 0x13A5 JUMPI DUP1 PUSH1 0x1F LT PUSH2 0x137A JUMPI PUSH2 0x100 DUP1 DUP4 SLOAD DIV MUL DUP4 MSTORE SWAP2 PUSH1 0x20 ADD SWAP2 PUSH2 0x13A5 JUMP JUMPDEST DUP3 ADD SWAP2 SWAP1 PUSH1 0x0 MSTORE PUSH1 0x20 PUSH1 0x0 KECCAK256 SWAP1 JUMPDEST DUP2 SLOAD DUP2 MSTORE SWAP1 PUSH1 0x1 ADD SWAP1 PUSH1 0x20 ADD DUP1 DUP4 GT PUSH2 0x1388 JUMPI DUP3 SWAP1 SUB PUSH1 0x1F AND DUP3 ADD SWAP2 JUMPDEST POP POP POP POP POP SWAP1 DUP1 PUSH1 0x3 ADD SLOAD SWAP1 DUP1 PUSH1 0x5 ADD DUP1 SLOAD PUSH2 0x13C0 SWAP1 PUSH2 0x4A3F JUMP JUMPDEST DUP1 PUSH1 0x1F ADD PUSH1 0x20 DUP1 SWAP2 DIV MUL PUSH1 0x20 ADD PUSH1 0x40 MLOAD SWAP1 DUP2 ADD PUSH1 0x40 MSTORE DUP1 SWAP3 SWAP2 SWAP1 DUP2 DUP2 MSTORE PUSH1 0x20 ADD DUP3 DUP1 SLOAD PUSH2 0x13EC SWAP1 PUSH2 0x4A3F JUMP JUMPDEST DUP1 ISZERO PUSH2 0x1439 JUMPI DUP1 PUSH1 0x1F LT PUSH2 0x140E JUMPI PUSH2 0x100 DUP1 DUP4 SLOAD DIV MUL DUP4 MSTORE SWAP2 PUSH1 0x20 ADD SWAP2 PUSH2 0x1439 JUMP JUMPDEST DUP3 ADD SWAP2 SWAP1 PUSH1 0x0 MSTORE PUSH1 0x20 PUSH1 0x0 KECCAK256 SWAP1 JUMPDEST DUP2 SLOAD DUP2 MSTORE SWAP1 PUSH1 0x1 ADD SWAP1 PUSH1 0x20 ADD DUP1 DUP4 GT PUSH2 0x141C JUMPI DUP3 SWAP1 SUB PUSH1 0x1F AND DUP3 ADD SWAP2 JUMPDEST POP POP POP POP POP SWAP1 DUP1 PUSH1 0x6 ADD SLOAD SWAP1 DUP1 PUSH1 0x7 ADD DUP1 SLOAD PUSH2 0x1454 SWAP1 PUSH2 0x4A3F JUMP JUMPDEST DUP1 PUSH1 0x1F ADD PUSH1 0x20 DUP1 SWAP2 DIV MUL PUSH1 0x20 ADD PUSH1 0x40 MLOAD SWAP1 DUP2 ADD PUSH1 0x40 MSTORE DUP1 SWAP3 SWAP2 SWAP1 DUP2 DUP2 MSTORE PUSH1 0x20 ADD DUP3 DUP1 SLOAD PUSH2 0x1480 SWAP1 PUSH2 0x4A3F JUMP JUMPDEST DUP1 ISZERO PUSH2 0x14CD JUMPI DUP1 PUSH1 0x1F LT PUSH2 0x14A2 JUMPI PUSH2 0x100 DUP1 DUP4 SLOAD DIV MUL DUP4 MSTORE SWAP2 PUSH1 0x20 ADD SWAP2 PUSH2 0x14CD JUMP JUMPDEST DUP3 ADD SWAP2 SWAP1 PUSH1 0x0 MSTORE PUSH1 0x20 PUSH1 0x0 KECCAK256 SWAP1 JUMPDEST DUP2 SLOAD DUP2 MSTORE SWAP1 PUSH1 0x1 ADD SWAP1 PUSH1 0x20 ADD DUP1 DUP4 GT PUSH2 0x14B0 JUMPI DUP3 SWAP1 SUB PUSH1 0x1F AND DUP3 ADD SWAP2 JUMPDEST POP POP POP POP POP SWAP1 DUP1 PUSH1 0x8 ADD DUP1 SLOAD PUSH2 0x14E2 SWAP1 PUSH2 0x4A3F JUMP JUMPDEST DUP1 PUSH1 0x1F ADD PUSH1 0x20 DUP1 SWAP2 DIV MUL PUSH1 0x20 ADD PUSH1 0x40 MLOAD SWAP1 DUP2 ADD PUSH1 0x40 MSTORE DUP1 SWAP3 SWAP2 SWAP1 DUP2 DUP2 MSTORE PUSH1 0x20 ADD DUP3 DUP1 SLOAD PUSH2 0x150E SWAP1 PUSH2 0x4A3F JUMP JUMPDEST DUP1 ISZERO PUSH2 0x155B JUMPI DUP1 PUSH1 0x1F LT PUSH2 0x1530 JUMPI PUSH2 0x100 DUP1 DUP4 SLOAD DIV MUL DUP4 MSTORE SWAP2 PUSH1 0x20 ADD SWAP2 PUSH2 0x155B JUMP JUMPDEST DUP3 ADD SWAP2 SWAP1 PUSH1 0x0 MSTORE PUSH1 0x20 PUSH1 0x0 KECCAK256 SWAP1 JUMPDEST DUP2 SLOAD DUP2 MSTORE SWAP1 PUSH1 0x1 ADD SWAP1 PUSH1 0x20 ADD DUP1 DUP4 GT PUSH2 0x153E JUMPI DUP3 SWAP1 SUB PUSH1 0x1F AND DUP3 ADD SWAP2 JUMPDEST POP POP POP POP POP SWAP1 POP DUP9 JUMP JUMPDEST PUSH1 0x6 DUP2 DUP2 SLOAD DUP2 LT PUSH2 0x1575 JUMPI PUSH1 0x0 DUP1 REVERT JUMPDEST PUSH1 0x0 SWAP2 DUP3 MSTORE PUSH1 0x20 SWAP1 SWAP2 KECCAK256 PUSH1 0x9 SWAP1 SWAP2 MUL ADD DUP1 SLOAD PUSH1 0x1 DUP3 ADD SLOAD PUSH1 0x2 DUP4 ADD SLOAD PUSH1 0x3 DUP5 ADD DUP1 SLOAD SWAP4 SWAP6 POP PUSH1 0x1 PUSH1 0x1 PUSH1 0xA0 SHL SUB SWAP3 DUP4 AND SWAP5 SWAP3 SWAP1 SWAP2 AND SWAP3 PUSH2 0x15B4 SWAP1 PUSH2 0x4A3F JUMP JUMPDEST DUP1 PUSH1 0x1F ADD PUSH1 0x20 DUP1 SWAP2 DIV MUL PUSH1 0x20 ADD PUSH1 0x40 MLOAD SWAP1 DUP2 ADD PUSH1 0x40 MSTORE DUP1 SWAP3 SWAP2 SWAP1 DUP2 DUP2 MSTORE PUSH1 0x20 ADD DUP3 DUP1 SLOAD PUSH2 0x15E0 SWAP1 PUSH2 0x4A3F JUMP JUMPDEST DUP1 ISZERO PUSH2 0x162D JUMPI DUP1 PUSH1 0x1F LT PUSH2 0x1602 JUMPI PUSH2 0x100 DUP1 DUP4 SLOAD DIV MUL DUP4 MSTORE SWAP2 PUSH1 0x20 ADD SWAP2 PUSH2 0x162D JUMP JUMPDEST DUP3 ADD SWAP2 SWAP1 PUSH1 0x0 MSTORE PUSH1 0x20 PUSH1 0x0 KECCAK256 SWAP1 JUMPDEST DUP2 SLOAD DUP2 MSTORE SWAP1 PUSH1 0x1 ADD SWAP1 PUSH1 0x20 ADD DUP1 DUP4 GT PUSH2 0x1610 JUMPI DUP3 SWAP1 SUB PUSH1 0x1F AND DUP3 ADD SWAP2 JUMPDEST POP POP POP POP POP SWAP1 DUP1 PUSH1 0x5 ADD SLOAD SWAP1 DUP1 PUSH1 0x6 ADD DUP1 SLOAD PUSH2 0x1648 SWAP1 PUSH2 0x4A3F JUMP JUMPDEST DUP1 PUSH1 0x1F ADD PUSH1 0x20 DUP1 SWAP2 DIV MUL PUSH1 0x20 ADD PUSH1 0x40 MLOAD SWAP1 DUP2 ADD PUSH1 0x40 MSTORE DUP1 SWAP3 SWAP2 SWAP1 DUP2 DUP2 MSTORE PUSH1 0x20 ADD DUP3 DUP1 SLOAD PUSH2 0x1674 SWAP1 PUSH2 0x4A3F JUMP JUMPDEST DUP1 ISZERO PUSH2 0x16C1 JUMPI DUP1 PUSH1 0x1F LT PUSH2 0x1696 JUMPI PUSH2 0x100 DUP1 DUP4 SLOAD DIV MUL DUP4 MSTORE SWAP2 PUSH1 0x20 ADD SWAP2 PUSH2 0x16C1 JUMP JUMPDEST DUP3 ADD SWAP2 SWAP1 PUSH1 0x0 MSTORE PUSH1 0x20 PUSH1 0x0 KECCAK256 SWAP1 JUMPDEST DUP2 SLOAD DUP2 MSTORE SWAP1 PUSH1 0x1 ADD SWAP1 PUSH1 0x20 ADD DUP1 DUP4 GT PUSH2 0x16A4 JUMPI DUP3 SWAP1 SUB PUSH1 0x1F AND DUP3 ADD SWAP2 JUMPDEST POP POP POP POP POP SWAP1 DUP1 PUSH1 0x7 ADD DUP1 SLOAD PUSH2 0x16D6 SWAP1 PUSH2 0x4A3F JUMP JUMPDEST DUP1 PUSH1 0x1F ADD PUSH1 0x20 DUP1 SWAP2 DIV MUL PUSH1 0x20 ADD PUSH1 0x40 MLOAD SWAP1 DUP2 ADD PUSH1 0x40 MSTORE DUP1 SWAP3 SWAP2 SWAP1 DUP2 DUP2 MSTORE PUSH1 0x20 ADD DUP3 DUP1 SLOAD PUSH2 0x1702 SWAP1 PUSH2 0x4A3F JUMP JUMPDEST DUP1 ISZERO PUSH2 0x174F JUMPI DUP1 PUSH1 0x1F LT PUSH2 0x1724 JUMPI PUSH2 0x100 DUP1 DUP4 SLOAD DIV MUL DUP4 MSTORE SWAP2 PUSH1 0x20 ADD SWAP2 PUSH2 0x174F JUMP JUMPDEST DUP3 ADD SWAP2 SWAP1 PUSH1 0x0 MSTORE PUSH1 0x20 PUSH1 0x0 KECCAK256 SWAP1 JUMPDEST DUP2 SLOAD DUP2 MSTORE SWAP1 PUSH1 0x1 ADD SWAP1 PUSH1 0x20 ADD DUP1 DUP4 GT PUSH2 0x1732 JUMPI DUP3 SWAP1 SUB PUSH1 0x1F AND DUP3 ADD SWAP2 JUMPDEST POP POP POP POP POP SWAP1 DUP1 PUSH1 0x8 ADD SLOAD SWAP1 POP DUP9 JUMP JUMPDEST PUSH1 0x5 SLOAD PUSH1 0x60 SWAP1 DUP3 GT ISZERO PUSH2 0x1784 JUMPI PUSH1 0x40 MLOAD PUSH3 0x461BCD PUSH1 0xE5 SHL DUP2 MSTORE PUSH1 0x4 ADD PUSH2 0x500 SWAP1 PUSH2 0x4CF6 JUMP JUMPDEST PUSH1 0x0 PUSH2 0x1791 PUSH1 0x1 DUP5 PUSH2 0x4B7E JUMP JUMPDEST SWAP1 POP PUSH1 0x0 PUSH1 0x5 DUP3 DUP2 SLOAD DUP2 LT PUSH2 0x17A8 JUMPI PUSH2 0x17A8 PUSH2 0x49FA JUMP JUMPDEST SWAP1 PUSH1 0x0 MSTORE PUSH1 0x20 PUSH1 0x0 KECCAK256 SWAP1 PUSH1 0x9 MUL ADD PUSH1 0x4 ADD DUP1 SLOAD DUP1 PUSH1 0x20 MUL PUSH1 0x20 ADD PUSH1 0x40 MLOAD SWAP1 DUP2 ADD PUSH1 0x40 MSTORE DUP1 SWAP3 SWAP2 SWAP1 DUP2 DUP2 MSTORE PUSH1 0x20 ADD DUP3 DUP1 SLOAD DUP1 ISZERO PUSH2 0x1803 JUMPI PUSH1 0x20 MUL DUP3 ADD SWAP2 SWAP1 PUSH1 0x0 MSTORE PUSH1 0x20 PUSH1 0x0 KECCAK256 SWAP1 JUMPDEST DUP2 SLOAD DUP2 MSTORE PUSH1 0x20 ADD SWAP1 PUSH1 0x1 ADD SWAP1 DUP1 DUP4 GT PUSH2 0x17EF JUMPI JUMPDEST POP POP POP POP POP SWAP1 POP PUSH1 0x0 DUP2 MLOAD PUSH1 0x1 PUSH1 0x1 PUSH1 0x40 SHL SUB DUP2 GT ISZERO PUSH2 0x1825 JUMPI PUSH2 0x1825 PUSH2 0x3D6B JUMP JUMPDEST PUSH1 0x40 MLOAD SWAP1 DUP1 DUP3 MSTORE DUP1 PUSH1 0x20 MUL PUSH1 0x20 ADD DUP3 ADD PUSH1 0x40 MSTORE DUP1 ISZERO PUSH2 0x185E JUMPI DUP2 PUSH1 0x20 ADD JUMPDEST PUSH2 0x184B PUSH2 0x3C50 JUMP JUMPDEST DUP2 MSTORE PUSH1 0x20 ADD SWAP1 PUSH1 0x1 SWAP1 SUB SWAP1 DUP2 PUSH2 0x1843 JUMPI SWAP1 POP JUMPDEST POP SWAP1 POP PUSH1 0x0 JUMPDEST DUP3 MLOAD DUP2 LT ISZERO PUSH2 0x1B44 JUMPI PUSH1 0x6 PUSH1 0x1 DUP5 DUP4 DUP2 MLOAD DUP2 LT PUSH2 0x1883 JUMPI PUSH2 0x1883 PUSH2 0x49FA JUMP JUMPDEST PUSH1 0x20 MUL PUSH1 0x20 ADD ADD MLOAD PUSH2 0x1895 SWAP2 SWAP1 PUSH2 0x4B7E JUMP JUMPDEST DUP2 SLOAD DUP2 LT PUSH2 0x18A5 JUMPI PUSH2 0x18A5 PUSH2 0x49FA JUMP JUMPDEST PUSH1 0x0 SWAP2 DUP3 MSTORE PUSH1 0x20 SWAP2 DUP3 SWAP1 KECCAK256 PUSH1 0x40 DUP1 MLOAD PUSH2 0x120 DUP2 ADD DUP3 MSTORE PUSH1 0x9 SWAP1 SWAP4 MUL SWAP1 SWAP2 ADD DUP1 SLOAD DUP4 MSTORE PUSH1 0x1 DUP2 ADD SLOAD PUSH1 0x1 PUSH1 0x1 PUSH1 0xA0 SHL SUB SWAP1 DUP2 AND SWAP5 DUP5 ADD SWAP5 SWAP1 SWAP5 MSTORE PUSH1 0x2 DUP2 ADD SLOAD SWAP1 SWAP4 AND SWAP1 DUP3 ADD MSTORE PUSH1 0x3 DUP3 ADD DUP1 SLOAD SWAP2 SWAP3 SWAP2 PUSH1 0x60 DUP5 ADD SWAP2 SWAP1 PUSH2 0x1902 SWAP1 PUSH2 0x4A3F JUMP JUMPDEST DUP1 PUSH1 0x1F ADD PUSH1 0x20 DUP1 SWAP2 DIV MUL PUSH1 0x20 ADD PUSH1 0x40 MLOAD SWAP1 DUP2 ADD PUSH1 0x40 MSTORE DUP1 SWAP3 SWAP2 SWAP1 DUP2 DUP2 MSTORE PUSH1 0x20 ADD DUP3 DUP1 SLOAD PUSH2 0x192E SWAP1 PUSH2 0x4A3F JUMP JUMPDEST DUP1 ISZERO PUSH2 0x197B JUMPI DUP1 PUSH1 0x1F LT PUSH2 0x1950 JUMPI PUSH2 0x100 DUP1 DUP4 SLOAD DIV MUL DUP4 MSTORE SWAP2 PUSH1 0x20 ADD SWAP2 PUSH2 0x197B JUMP JUMPDEST DUP3 ADD SWAP2 SWAP1 PUSH1 0x0 MSTORE PUSH1 0x20 PUSH1 0x0 KECCAK256 SWAP1 JUMPDEST DUP2 SLOAD DUP2 MSTORE SWAP1 PUSH1 0x1 ADD SWAP1 PUSH1 0x20 ADD DUP1 DUP4 GT PUSH2 0x195E JUMPI DUP3 SWAP1 SUB PUSH1 0x1F AND DUP3 ADD SWAP2 JUMPDEST POP POP POP POP POP DUP2 MSTORE PUSH1 0x20 ADD PUSH1 0x4 DUP3 ADD DUP1 SLOAD DUP1 PUSH1 0x20 MUL PUSH1 0x20 ADD PUSH1 0x40 MLOAD SWAP1 DUP2 ADD PUSH1 0x40 MSTORE DUP1 SWAP3 SWAP2 SWAP1 DUP2 DUP2 MSTORE PUSH1 0x20 ADD DUP3 DUP1 SLOAD DUP1 ISZERO PUSH2 0x19D3 JUMPI PUSH1 0x20 MUL DUP3 ADD SWAP2 SWAP1 PUSH1 0x0 MSTORE PUSH1 0x20 PUSH1 0x0 KECCAK256 SWAP1 JUMPDEST DUP2 SLOAD DUP2 MSTORE PUSH1 0x20 ADD SWAP1 PUSH1 0x1 ADD SWAP1 DUP1 DUP4 GT PUSH2 0x19BF JUMPI JUMPDEST POP POP POP POP POP DUP2 MSTORE PUSH1 0x20 ADD PUSH1 0x5 DUP3 ADD SLOAD DUP2 MSTORE PUSH1 0x20 ADD PUSH1 0x6 DUP3 ADD DUP1 SLOAD PUSH2 0x19F6 SWAP1 PUSH2 0x4A3F JUMP JUMPDEST DUP1 PUSH1 0x1F ADD PUSH1 0x20 DUP1 SWAP2 DIV MUL PUSH1 0x20 ADD PUSH1 0x40 MLOAD SWAP1 DUP2 ADD PUSH1 0x40 MSTORE DUP1 SWAP3 SWAP2 SWAP1 DUP2 DUP2 MSTORE PUSH1 0x20 ADD DUP3 DUP1 SLOAD PUSH2 0x1A22 SWAP1 PUSH2 0x4A3F JUMP JUMPDEST DUP1 ISZERO PUSH2 0x1A6F JUMPI DUP1 PUSH1 0x1F LT PUSH2 0x1A44 JUMPI PUSH2 0x100 DUP1 DUP4 SLOAD DIV MUL DUP4 MSTORE SWAP2 PUSH1 0x20 ADD SWAP2 PUSH2 0x1A6F JUMP JUMPDEST DUP3 ADD SWAP2 SWAP1 PUSH1 0x0 MSTORE PUSH1 0x20 PUSH1 0x0 KECCAK256 SWAP1 JUMPDEST DUP2 SLOAD DUP2 MSTORE SWAP1 PUSH1 0x1 ADD SWAP1 PUSH1 0x20 ADD DUP1 DUP4 GT PUSH2 0x1A52 JUMPI DUP3 SWAP1 SUB PUSH1 0x1F AND DUP3 ADD SWAP2 JUMPDEST POP POP POP POP POP DUP2 MSTORE PUSH1 0x20 ADD PUSH1 0x7 DUP3 ADD DUP1 SLOAD PUSH2 0x1A88 SWAP1 PUSH2 0x4A3F JUMP JUMPDEST DUP1 PUSH1 0x1F ADD PUSH1 0x20 DUP1 SWAP2 DIV MUL PUSH1 0x20 ADD PUSH1 0x40 MLOAD SWAP1 DUP2 ADD PUSH1 0x40 MSTORE DUP1 SWAP3 SWAP2 SWAP1 DUP2 DUP2 MSTORE PUSH1 0x20 ADD DUP3 DUP1 SLOAD PUSH2 0x1AB4 SWAP1 PUSH2 0x4A3F JUMP JUMPDEST DUP1 ISZERO PUSH2 0x1B01 JUMPI DUP1 PUSH1 0x1F LT PUSH2 0x1AD6 JUMPI PUSH2 0x100 DUP1 DUP4 SLOAD DIV MUL DUP4 MSTORE SWAP2 PUSH1 0x20 ADD SWAP2 PUSH2 0x1B01 JUMP JUMPDEST DUP3 ADD SWAP2 SWAP1 PUSH1 0x0 MSTORE PUSH1 0x20 PUSH1 0x0 KECCAK256 SWAP1 JUMPDEST DUP2 SLOAD DUP2 MSTORE SWAP1 PUSH1 0x1 ADD SWAP1 PUSH1 0x20 ADD DUP1 DUP4 GT PUSH2 0x1AE4 JUMPI DUP3 SWAP1 SUB PUSH1 0x1F AND DUP3 ADD SWAP2 JUMPDEST POP POP POP POP POP DUP2 MSTORE PUSH1 0x20 ADD PUSH1 0x8 DUP3 ADD SLOAD DUP2 MSTORE POP POP DUP3 DUP3 DUP2 MLOAD DUP2 LT PUSH2 0x1B26 JUMPI PUSH2 0x1B26 PUSH2 0x49FA JUMP JUMPDEST PUSH1 0x20 MUL PUSH1 0x20 ADD ADD DUP2 SWAP1 MSTORE POP DUP1 DUP1 PUSH2 0x1B3C SWAP1 PUSH2 0x4BDC JUMP JUMPDEST SWAP2 POP POP PUSH2 0x1864 JUMP JUMPDEST POP SWAP5 SWAP4 POP POP POP POP JUMP JUMPDEST PUSH2 0x1B55 PUSH2 0x3C50 JUMP JUMPDEST PUSH1 0x6 SLOAD DUP3 GT ISZERO PUSH2 0x1B77 JUMPI PUSH1 0x40 MLOAD PUSH3 0x461BCD PUSH1 0xE5 SHL DUP2 MSTORE PUSH1 0x4 ADD PUSH2 0x500 SWAP1 PUSH2 0x4D22 JUMP JUMPDEST PUSH1 0x0 PUSH2 0x1B84 PUSH1 0x1 DUP5 PUSH2 0x4B7E JUMP JUMPDEST SWAP1 POP PUSH1 0x0 PUSH1 0x6 DUP3 DUP2 SLOAD DUP2 LT PUSH2 0x1B9B JUMPI PUSH2 0x1B9B PUSH2 0x49FA JUMP JUMPDEST PUSH1 0x0 SWAP2 DUP3 MSTORE PUSH1 0x20 SWAP2 DUP3 SWAP1 KECCAK256 PUSH1 0x40 DUP1 MLOAD PUSH2 0x120 DUP2 ADD DUP3 MSTORE PUSH1 0x9 SWAP1 SWAP4 MUL SWAP1 SWAP2 ADD DUP1 SLOAD DUP4 MSTORE PUSH1 0x1 DUP2 ADD SLOAD PUSH1 0x1 PUSH1 0x1 PUSH1 0xA0 SHL SUB SWAP1 DUP2 AND SWAP5 DUP5 ADD SWAP5 SWAP1 SWAP5 MSTORE PUSH1 0x2 DUP2 ADD SLOAD SWAP1 SWAP4 AND SWAP1 DUP3 ADD MSTORE PUSH1 0x3 DUP3 ADD DUP1 SLOAD SWAP2 SWAP3 SWAP2 PUSH1 0x60 DUP5 ADD SWAP2 SWAP1 PUSH2 0x1BF8 SWAP1 PUSH2 0x4A3F JUMP JUMPDEST DUP1 PUSH1 0x1F ADD PUSH1 0x20 DUP1 SWAP2 DIV MUL PUSH1 0x20 ADD PUSH1 0x40 MLOAD SWAP1 DUP2 ADD PUSH1 0x40 MSTORE DUP1 SWAP3 SWAP2 SWAP1 DUP2 DUP2 MSTORE PUSH1 0x20 ADD DUP3 DUP1 SLOAD PUSH2 0x1C24 SWAP1 PUSH2 0x4A3F JUMP JUMPDEST DUP1 ISZERO PUSH2 0x1C71 JUMPI DUP1 PUSH1 0x1F LT PUSH2 0x1C46 JUMPI PUSH2 0x100 DUP1 DUP4 SLOAD DIV MUL DUP4 MSTORE SWAP2 PUSH1 0x20 ADD SWAP2 PUSH2 0x1C71 JUMP JUMPDEST DUP3 ADD SWAP2 SWAP1 PUSH1 0x0 MSTORE PUSH1 0x20 PUSH1 0x0 KECCAK256 SWAP1 JUMPDEST DUP2 SLOAD DUP2 MSTORE SWAP1 PUSH1 0x1 ADD SWAP1 PUSH1 0x20 ADD DUP1 DUP4 GT PUSH2 0x1C54 JUMPI DUP3 SWAP1 SUB PUSH1 0x1F AND DUP3 ADD SWAP2 JUMPDEST POP POP POP POP POP DUP2 MSTORE PUSH1 0x20 ADD PUSH1 0x4 DUP3 ADD DUP1 SLOAD DUP1 PUSH1 0x20 MUL PUSH1 0x20 ADD PUSH1 0x40 MLOAD SWAP1 DUP2 ADD PUSH1 0x40 MSTORE DUP1 SWAP3 SWAP2 SWAP1 DUP2 DUP2 MSTORE PUSH1 0x20 ADD DUP3 DUP1 SLOAD DUP1 ISZERO PUSH2 0x1CC9 JUMPI PUSH1 0x20 MUL DUP3 ADD SWAP2 SWAP1 PUSH1 0x0 MSTORE PUSH1 0x20 PUSH1 0x0 KECCAK256 SWAP1 JUMPDEST DUP2 SLOAD DUP2 MSTORE PUSH1 0x20 ADD SWAP1 PUSH1 0x1 ADD SWAP1 DUP1 DUP4 GT PUSH2 0x1CB5 JUMPI JUMPDEST POP POP POP POP POP DUP2 MSTORE PUSH1 0x20 ADD PUSH1 0x5 DUP3 ADD SLOAD DUP2 MSTORE PUSH1 0x20 ADD PUSH1 0x6 DUP3 ADD DUP1 SLOAD PUSH2 0x1CEC SWAP1 PUSH2 0x4A3F JUMP JUMPDEST DUP1 PUSH1 0x1F ADD PUSH1 0x20 DUP1 SWAP2 DIV MUL PUSH1 0x20 ADD PUSH1 0x40 MLOAD SWAP1 DUP2 ADD PUSH1 0x40 MSTORE DUP1 SWAP3 SWAP2 SWAP1 DUP2 DUP2 MSTORE PUSH1 0x20 ADD DUP3 DUP1 SLOAD PUSH2 0x1D18 SWAP1 PUSH2 0x4A3F JUMP JUMPDEST DUP1 ISZERO PUSH2 0x1D65 JUMPI DUP1 PUSH1 0x1F LT PUSH2 0x1D3A JUMPI PUSH2 0x100 DUP1 DUP4 SLOAD DIV MUL DUP4 MSTORE SWAP2 PUSH1 0x20 ADD SWAP2 PUSH2 0x1D65 JUMP JUMPDEST DUP3 ADD SWAP2 SWAP1 PUSH1 0x0 MSTORE PUSH1 0x20 PUSH1 0x0 KECCAK256 SWAP1 JUMPDEST DUP2 SLOAD DUP2 MSTORE SWAP1 PUSH1 0x1 ADD SWAP1 PUSH1 0x20 ADD DUP1 DUP4 GT PUSH2 0x1D48 JUMPI DUP3 SWAP1 SUB PUSH1 0x1F AND DUP3 ADD SWAP2 JUMPDEST POP POP POP POP POP DUP2 MSTORE PUSH1 0x20 ADD PUSH1 0x7 DUP3 ADD DUP1 SLOAD PUSH2 0x1D7E SWAP1 PUSH2 0x4A3F JUMP JUMPDEST DUP1 PUSH1 0x1F ADD PUSH1 0x20 DUP1 SWAP2 DIV MUL PUSH1 0x20 ADD PUSH1 0x40 MLOAD SWAP1 DUP2 ADD PUSH1 0x40 MSTORE DUP1 SWAP3 SWAP2 SWAP1 DUP2 DUP2 MSTORE PUSH1 0x20 ADD DUP3 DUP1 SLOAD PUSH2 0x1DAA SWAP1 PUSH2 0x4A3F JUMP JUMPDEST DUP1 ISZERO PUSH2 0x1DF7 JUMPI DUP1 PUSH1 0x1F LT PUSH2 0x1DCC JUMPI PUSH2 0x100 DUP1 DUP4 SLOAD DIV MUL DUP4 MSTORE SWAP2 PUSH1 0x20 ADD SWAP2 PUSH2 0x1DF7 JUMP JUMPDEST DUP3 ADD SWAP2 SWAP1 PUSH1 0x0 MSTORE PUSH1 0x20 PUSH1 0x0 KECCAK256 SWAP1 JUMPDEST DUP2 SLOAD DUP2 MSTORE SWAP1 PUSH1 0x1 ADD SWAP1 PUSH1 0x20 ADD DUP1 DUP4 GT PUSH2 0x1DDA JUMPI DUP3 SWAP1 SUB PUSH1 0x1F AND DUP3 ADD SWAP2 JUMPDEST POP POP POP POP POP DUP2 MSTORE PUSH1 0x20 ADD PUSH1 0x8 DUP3 ADD SLOAD DUP2 MSTORE POP POP SWAP1 POP DUP1 PUSH1 0xA0 ADD MLOAD PUSH1 0x0 SUB PUSH2 0x1E30 JUMPI PUSH1 0x40 MLOAD PUSH3 0x461BCD PUSH1 0xE5 SHL DUP2 MSTORE PUSH1 0x4 ADD PUSH2 0x500 SWAP1 PUSH2 0x4BF5 JUMP JUMPDEST SWAP4 SWAP3 POP POP POP JUMP JUMPDEST PUSH2 0x1E3F PUSH2 0x3AF2 JUMP JUMPDEST DUP1 MLOAD DUP3 MLOAD EQ PUSH2 0x1E60 JUMPI PUSH1 0x40 MLOAD PUSH3 0x461BCD PUSH1 0xE5 SHL DUP2 MSTORE PUSH1 0x4 ADD PUSH2 0x500 SWAP1 PUSH2 0x49C3 JUMP JUMPDEST PUSH1 0x0 JUMPDEST DUP3 MLOAD DUP2 LT ISZERO PUSH2 0x2122 JUMPI PUSH1 0x0 DUP4 DUP3 DUP2 MLOAD DUP2 LT PUSH2 0x1E80 JUMPI PUSH2 0x1E80 PUSH2 0x49FA JUMP JUMPDEST PUSH1 0x20 MUL PUSH1 0x20 ADD ADD MLOAD SWAP1 POP PUSH1 0x0 DUP4 DUP4 DUP2 MLOAD DUP2 LT PUSH2 0x1E9E JUMPI PUSH2 0x1E9E PUSH2 0x49FA JUMP JUMPDEST PUSH1 0x20 MUL PUSH1 0x20 ADD ADD MLOAD SWAP1 POP PUSH1 0x0 PUSH1 0x1 PUSH1 0x1 PUSH1 0xA0 SHL SUB AND DUP3 PUSH1 0x1 PUSH1 0x1 PUSH1 0xA0 SHL SUB AND SUB PUSH2 0x1EFC JUMPI PUSH1 0x40 MLOAD PUSH3 0x461BCD PUSH1 0xE5 SHL DUP2 MSTORE PUSH1 0x20 PUSH1 0x4 DUP3 ADD MSTORE PUSH1 0xF PUSH1 0x24 DUP3 ADD MSTORE PUSH15 0x496E76616C69642061646472657373 PUSH1 0x88 SHL PUSH1 0x44 DUP3 ADD MSTORE PUSH1 0x64 ADD PUSH2 0x500 JUMP JUMPDEST PUSH1 0x1 PUSH1 0x1 PUSH1 0xA0 SHL SUB DUP2 AND PUSH2 0x204B JUMPI PUSH1 0x0 JUMPDEST PUSH1 0x1 SLOAD DUP2 LT ISZERO PUSH2 0x2045 JUMPI DUP3 PUSH1 0x1 PUSH1 0x1 PUSH1 0xA0 SHL SUB AND PUSH1 0x1 DUP3 DUP2 SLOAD DUP2 LT PUSH2 0x1F34 JUMPI PUSH2 0x1F34 PUSH2 0x49FA JUMP JUMPDEST PUSH1 0x0 SWAP2 DUP3 MSTORE PUSH1 0x20 SWAP1 SWAP2 KECCAK256 ADD SLOAD PUSH1 0x1 PUSH1 0x1 PUSH1 0xA0 SHL SUB AND SUB PUSH2 0x2033 JUMPI PUSH1 0x1 DUP1 SLOAD PUSH2 0x1F5D SWAP1 DUP3 SWAP1 PUSH2 0x4B7E JUMP JUMPDEST DUP2 SLOAD DUP2 LT PUSH2 0x1F6D JUMPI PUSH2 0x1F6D PUSH2 0x49FA JUMP JUMPDEST PUSH1 0x0 SWAP2 DUP3 MSTORE PUSH1 0x20 SWAP1 SWAP2 KECCAK256 ADD SLOAD PUSH1 0x1 DUP1 SLOAD PUSH1 0x1 PUSH1 0x1 PUSH1 0xA0 SHL SUB SWAP1 SWAP3 AND SWAP2 DUP4 SWAP1 DUP2 LT PUSH2 0x1F99 JUMPI PUSH2 0x1F99 PUSH2 0x49FA JUMP JUMPDEST SWAP1 PUSH1 0x0 MSTORE PUSH1 0x20 PUSH1 0x0 KECCAK256 ADD PUSH1 0x0 PUSH2 0x100 EXP DUP2 SLOAD DUP2 PUSH1 0x1 PUSH1 0x1 PUSH1 0xA0 SHL SUB MUL NOT AND SWAP1 DUP4 PUSH1 0x1 PUSH1 0x1 PUSH1 0xA0 SHL SUB AND MUL OR SWAP1 SSTORE POP PUSH1 0x1 DUP1 SLOAD DUP1 PUSH2 0x1FD8 JUMPI PUSH2 0x1FD8 PUSH2 0x4D50 JUMP JUMPDEST PUSH1 0x0 DUP3 DUP2 MSTORE PUSH1 0x20 DUP2 KECCAK256 DUP3 ADD PUSH1 0x0 NOT SWAP1 DUP2 ADD DUP1 SLOAD PUSH1 0x1 PUSH1 0x1 PUSH1 0xA0 SHL SUB NOT AND SWAP1 SSTORE SWAP1 SWAP2 ADD SWAP1 SWAP2 SSTORE PUSH1 0x40 MLOAD PUSH1 0x1 PUSH1 0x1 PUSH1 0xA0 SHL SUB DUP6 AND SWAP2 PUSH32 0x44A3CD4EB5CC5748F6169DF057B1CB2AE4C383E87CD94663C430E095D4CBA424 SWAP2 LOG2 PUSH2 0x2045 JUMP JUMPDEST DUP1 PUSH2 0x203D DUP2 PUSH2 0x4BDC JUMP JUMPDEST SWAP2 POP POP PUSH2 0x1F0D JUMP JUMPDEST POP PUSH2 0x210D JUMP JUMPDEST PUSH1 0x0 JUMPDEST PUSH1 0x1 SLOAD DUP2 LT ISZERO PUSH2 0x210B JUMPI DUP3 PUSH1 0x1 PUSH1 0x1 PUSH1 0xA0 SHL SUB AND PUSH1 0x1 DUP3 DUP2 SLOAD DUP2 LT PUSH2 0x2075 JUMPI PUSH2 0x2075 PUSH2 0x49FA JUMP JUMPDEST PUSH1 0x0 SWAP2 DUP3 MSTORE PUSH1 0x20 SWAP1 SWAP2 KECCAK256 ADD SLOAD PUSH1 0x1 PUSH1 0x1 PUSH1 0xA0 SHL SUB AND SUB PUSH2 0x20F9 JUMPI DUP2 PUSH1 0x1 DUP3 DUP2 SLOAD DUP2 LT PUSH2 0x20A3 JUMPI PUSH2 0x20A3 PUSH2 0x49FA JUMP JUMPDEST PUSH1 0x0 SWAP2 DUP3 MSTORE PUSH1 0x20 DUP3 KECCAK256 ADD DUP1 SLOAD PUSH1 0x1 PUSH1 0x1 PUSH1 0xA0 SHL SUB NOT AND PUSH1 0x1 PUSH1 0x1 PUSH1 0xA0 SHL SUB SWAP4 DUP5 AND OR SWAP1 SSTORE PUSH1 0x40 MLOAD DUP5 DUP4 AND SWAP3 DUP7 AND SWAP2 PUSH32 0x50D741FE04AD9863C69D1406658F6EC7C4F5E48EC2FAF966A36A3E47FC05C9D9 SWAP2 LOG3 PUSH2 0x210B JUMP JUMPDEST DUP1 PUSH2 0x2103 DUP2 PUSH2 0x4BDC JUMP JUMPDEST SWAP2 POP POP PUSH2 0x204E JUMP JUMPDEST POP JUMPDEST POP POP DUP1 DUP1 PUSH2 0x211A SWAP1 PUSH2 0x4BDC JUMP JUMPDEST SWAP2 POP POP PUSH2 0x1E63 JUMP JUMPDEST POP POP POP JUMP JUMPDEST PUSH1 0x0 DUP1 PUSH1 0x60 DUP1 PUSH1 0x0 PUSH1 0x60 DUP1 PUSH1 0x5 DUP1 SLOAD SWAP1 POP DUP9 GT ISZERO PUSH2 0x2157 JUMPI PUSH1 0x40 MLOAD PUSH3 0x461BCD PUSH1 0xE5 SHL DUP2 MSTORE PUSH1 0x4 ADD PUSH2 0x500 SWAP1 PUSH2 0x4CF6 JUMP JUMPDEST PUSH1 0x0 PUSH2 0x2164 PUSH1 0x1 DUP11 PUSH2 0x4B7E JUMP JUMPDEST SWAP1 POP PUSH1 0x0 PUSH1 0x5 DUP3 DUP2 SLOAD DUP2 LT PUSH2 0x217B JUMPI PUSH2 0x217B PUSH2 0x49FA JUMP JUMPDEST SWAP1 PUSH1 0x0 MSTORE PUSH1 0x20 PUSH1 0x0 KECCAK256 SWAP1 PUSH1 0x9 MUL ADD SWAP1 POP DUP1 PUSH1 0x3 ADD SLOAD PUSH1 0x0 SUB PUSH2 0x21EB JUMPI PUSH1 0x40 MLOAD PUSH3 0x461BCD PUSH1 0xE5 SHL DUP2 MSTORE PUSH1 0x20 PUSH1 0x4 DUP3 ADD MSTORE PUSH1 0x24 DUP1 DUP3 ADD MSTORE PUSH32 0x436F6D70616E79207769746820676976656E20494420646F6573206E6F742065 PUSH1 0x44 DUP3 ADD MSTORE PUSH4 0x1E1A5CDD PUSH1 0xE2 SHL PUSH1 0x64 DUP3 ADD MSTORE PUSH1 0x84 ADD PUSH2 0x500 JUMP JUMPDEST DUP1 PUSH1 0x3 ADD SLOAD DUP2 PUSH1 0x1 ADD PUSH1 0x0 SWAP1 SLOAD SWAP1 PUSH2 0x100 EXP SWAP1 DIV PUSH1 0x1 PUSH1 0x1 PUSH1 0xA0 SHL SUB AND DUP3 PUSH1 0x2 ADD DUP4 PUSH1 0x5 ADD DUP5 PUSH1 0x6 ADD SLOAD DUP6 PUSH1 0x7 ADD DUP7 PUSH1 0x8 ADD DUP5 DUP1 SLOAD PUSH2 0x2229 SWAP1 PUSH2 0x4A3F JUMP JUMPDEST DUP1 PUSH1 0x1F ADD PUSH1 0x20 DUP1 SWAP2 DIV MUL PUSH1 0x20 ADD PUSH1 0x40 MLOAD SWAP1 DUP2 ADD PUSH1 0x40 MSTORE DUP1 SWAP3 SWAP2 SWAP1 DUP2 DUP2 MSTORE PUSH1 0x20 ADD DUP3 DUP1 SLOAD PUSH2 0x2255 SWAP1 PUSH2 0x4A3F JUMP JUMPDEST DUP1 ISZERO PUSH2 0x22A2 JUMPI DUP1 PUSH1 0x1F LT PUSH2 0x2277 JUMPI PUSH2 0x100 DUP1 DUP4 SLOAD DIV MUL DUP4 MSTORE SWAP2 PUSH1 0x20 ADD SWAP2 PUSH2 0x22A2 JUMP JUMPDEST DUP3 ADD SWAP2 SWAP1 PUSH1 0x0 MSTORE PUSH1 0x20 PUSH1 0x0 KECCAK256 SWAP1 JUMPDEST DUP2 SLOAD DUP2 MSTORE SWAP1 PUSH1 0x1 ADD SWAP1 PUSH1 0x20 ADD DUP1 DUP4 GT PUSH2 0x2285 JUMPI DUP3 SWAP1 SUB PUSH1 0x1F AND DUP3 ADD SWAP2 JUMPDEST POP POP POP POP POP SWAP5 POP DUP4 DUP1 SLOAD PUSH2 0x22B5 SWAP1 PUSH2 0x4A3F JUMP JUMPDEST DUP1 PUSH1 0x1F ADD PUSH1 0x20 DUP1 SWAP2 DIV MUL PUSH1 0x20 ADD PUSH1 0x40 MLOAD SWAP1 DUP2 ADD PUSH1 0x40 MSTORE DUP1 SWAP3 SWAP2 SWAP1 DUP2 DUP2 MSTORE PUSH1 0x20 ADD DUP3 DUP1 SLOAD PUSH2 0x22E1 SWAP1 PUSH2 0x4A3F JUMP JUMPDEST DUP1 ISZERO PUSH2 0x232E JUMPI DUP1 PUSH1 0x1F LT PUSH2 0x2303 JUMPI PUSH2 0x100 DUP1 DUP4 SLOAD DIV MUL DUP4 MSTORE SWAP2 PUSH1 0x20 ADD SWAP2 PUSH2 0x232E JUMP JUMPDEST DUP3 ADD SWAP2 SWAP1 PUSH1 0x0 MSTORE PUSH1 0x20 PUSH1 0x0 KECCAK256 SWAP1 JUMPDEST DUP2 SLOAD DUP2 MSTORE SWAP1 PUSH1 0x1 ADD SWAP1 PUSH1 0x20 ADD DUP1 DUP4 GT PUSH2 0x2311 JUMPI DUP3 SWAP1 SUB PUSH1 0x1F AND DUP3 ADD SWAP2 JUMPDEST POP POP POP POP POP SWAP4 POP DUP2 DUP1 SLOAD PUSH2 0x2341 SWAP1 PUSH2 0x4A3F JUMP JUMPDEST DUP1 PUSH1 0x1F ADD PUSH1 0x20 DUP1 SWAP2 DIV MUL PUSH1 0x20 ADD PUSH1 0x40 MLOAD SWAP1 DUP2 ADD PUSH1 0x40 MSTORE DUP1 SWAP3 SWAP2 SWAP1 DUP2 DUP2 MSTORE PUSH1 0x20 ADD DUP3 DUP1 SLOAD PUSH2 0x236D SWAP1 PUSH2 0x4A3F JUMP JUMPDEST DUP1 ISZERO PUSH2 0x23BA JUMPI DUP1 PUSH1 0x1F LT PUSH2 0x238F JUMPI PUSH2 0x100 DUP1 DUP4 SLOAD DIV MUL DUP4 MSTORE SWAP2 PUSH1 0x20 ADD SWAP2 PUSH2 0x23BA JUMP JUMPDEST DUP3 ADD SWAP2 SWAP1 PUSH1 0x0 MSTORE PUSH1 0x20 PUSH1 0x0 KECCAK256 SWAP1 JUMPDEST DUP2 SLOAD DUP2 MSTORE SWAP1 PUSH1 0x1 ADD SWAP1 PUSH1 0x20 ADD DUP1 DUP4 GT PUSH2 0x239D JUMPI DUP3 SWAP1 SUB PUSH1 0x1F AND DUP3 ADD SWAP2 JUMPDEST POP POP POP POP POP SWAP2 POP DUP1 DUP1 SLOAD PUSH2 0x23CD SWAP1 PUSH2 0x4A3F JUMP JUMPDEST DUP1 PUSH1 0x1F ADD PUSH1 0x20 DUP1 SWAP2 DIV MUL PUSH1 0x20 ADD PUSH1 0x40 MLOAD SWAP1 DUP2 ADD PUSH1 0x40 MSTORE DUP1 SWAP3 SWAP2 SWAP1 DUP2 DUP2 MSTORE PUSH1 0x20 ADD DUP3 DUP1 SLOAD PUSH2 0x23F9 SWAP1 PUSH2 0x4A3F JUMP JUMPDEST DUP1 ISZERO PUSH2 0x2446 JUMPI DUP1 PUSH1 0x1F LT PUSH2 0x241B JUMPI PUSH2 0x100 DUP1 DUP4 SLOAD DIV MUL DUP4 MSTORE SWAP2 PUSH1 0x20 ADD SWAP2 PUSH2 0x2446 JUMP JUMPDEST DUP3 ADD SWAP2 SWAP1 PUSH1 0x0 MSTORE PUSH1 0x20 PUSH1 0x0 KECCAK256 SWAP1 JUMPDEST DUP2 SLOAD DUP2 MSTORE SWAP1 PUSH1 0x1 ADD SWAP1 PUSH1 0x20 ADD DUP1 DUP4 GT PUSH2 0x2429 JUMPI DUP3 SWAP1 SUB PUSH1 0x1F AND DUP3 ADD SWAP2 JUMPDEST POP POP POP POP POP SWAP1 POP SWAP9 POP SWAP9 POP SWAP9 POP SWAP9 POP SWAP9 POP SWAP9 POP SWAP9 POP POP POP SWAP2 SWAP4 SWAP6 SWAP8 SWAP1 SWAP3 SWAP5 SWAP7 POP JUMP JUMPDEST PUSH2 0x2470 PUSH2 0x3AE7 JUMP JUMPDEST DUP1 PUSH2 0x2485 JUMPI POP PUSH1 0x0 SLOAD PUSH1 0x1 PUSH1 0x1 PUSH1 0xA0 SHL SUB AND CALLER EQ JUMPDEST PUSH2 0x24A1 JUMPI PUSH1 0x40 MLOAD PUSH3 0x461BCD PUSH1 0xE5 SHL DUP2 MSTORE PUSH1 0x4 ADD PUSH2 0x500 SWAP1 PUSH2 0x4D66 JUMP JUMPDEST PUSH1 0x0 DUP2 MLOAD GT PUSH2 0x24F2 JUMPI PUSH1 0x40 MLOAD PUSH3 0x461BCD PUSH1 0xE5 SHL DUP2 MSTORE PUSH1 0x20 PUSH1 0x4 DUP3 ADD MSTORE PUSH1 0x17 PUSH1 0x24 DUP3 ADD MSTORE PUSH32 0x4E6F20636F6D70616E79204944732070726F7669646564000000000000000000 PUSH1 0x44 DUP3 ADD MSTORE PUSH1 0x64 ADD PUSH2 0x500 JUMP JUMPDEST PUSH1 0x0 JUMPDEST DUP2 MLOAD DUP2 LT ISZERO PUSH2 0x2624 JUMPI PUSH1 0x0 DUP3 DUP3 DUP2 MLOAD DUP2 LT PUSH2 0x2512 JUMPI PUSH2 0x2512 PUSH2 0x49FA JUMP JUMPDEST PUSH1 0x20 MUL PUSH1 0x20 ADD ADD MLOAD SWAP1 POP PUSH1 0x5 DUP1 SLOAD SWAP1 POP DUP2 GT ISZERO PUSH2 0x2541 JUMPI PUSH1 0x40 MLOAD PUSH3 0x461BCD PUSH1 0xE5 SHL DUP2 MSTORE PUSH1 0x4 ADD PUSH2 0x500 SWAP1 PUSH2 0x4CF6 JUMP JUMPDEST PUSH1 0x0 PUSH2 0x254E PUSH1 0x1 DUP4 PUSH2 0x4B7E JUMP JUMPDEST PUSH1 0x40 MLOAD SWAP1 SWAP2 POP DUP3 SWAP1 PUSH32 0x28FE2791B514C47642F0D652F7C237752AEA1929ED16396EF24B45EB7E2B315 SWAP1 PUSH1 0x0 SWAP1 LOG2 PUSH1 0x5 DUP2 DUP2 SLOAD DUP2 LT PUSH2 0x258F JUMPI PUSH2 0x258F PUSH2 0x49FA JUMP JUMPDEST PUSH1 0x0 SWAP2 DUP3 MSTORE PUSH1 0x20 DUP3 KECCAK256 PUSH1 0x9 SWAP1 SWAP2 MUL ADD DUP2 DUP2 SSTORE PUSH1 0x1 DUP2 ADD DUP1 SLOAD PUSH1 0x1 PUSH1 0x1 PUSH1 0xA0 SHL SUB NOT AND SWAP1 SSTORE SWAP1 PUSH2 0x25C1 PUSH1 0x2 DUP4 ADD DUP3 PUSH2 0x3CAE JUMP JUMPDEST PUSH1 0x3 DUP3 ADD PUSH1 0x0 SWAP1 SSTORE PUSH1 0x4 DUP3 ADD PUSH1 0x0 PUSH2 0x25D9 SWAP2 SWAP1 PUSH2 0x3CE8 JUMP JUMPDEST PUSH2 0x25E7 PUSH1 0x5 DUP4 ADD PUSH1 0x0 PUSH2 0x3CAE JUMP JUMPDEST PUSH1 0x6 DUP3 ADD PUSH1 0x0 SWAP1 SSTORE PUSH1 0x7 DUP3 ADD PUSH1 0x0 PUSH2 0x25FF SWAP2 SWAP1 PUSH2 0x3CAE JUMP JUMPDEST PUSH2 0x260D PUSH1 0x8 DUP4 ADD PUSH1 0x0 PUSH2 0x3CAE JUMP JUMPDEST POP POP POP POP DUP1 DUP1 PUSH2 0x261C SWAP1 PUSH2 0x4BDC JUMP JUMPDEST SWAP2 POP POP PUSH2 0x24F5 JUMP JUMPDEST POP POP JUMP JUMPDEST PUSH1 0x6 SLOAD PUSH1 0x60 SWAP1 DUP3 GT ISZERO PUSH2 0x264D JUMPI PUSH1 0x40 MLOAD PUSH3 0x461BCD PUSH1 0xE5 SHL DUP2 MSTORE PUSH1 0x4 ADD PUSH2 0x500 SWAP1 PUSH2 0x4D22 JUMP JUMPDEST PUSH1 0x0 PUSH2 0x265A PUSH1 0x1 DUP5 PUSH2 0x4B7E JUMP JUMPDEST SWAP1 POP PUSH1 0x0 PUSH1 0x6 DUP3 DUP2 SLOAD DUP2 LT PUSH2 0x2671 JUMPI PUSH2 0x2671 PUSH2 0x49FA JUMP JUMPDEST SWAP1 PUSH1 0x0 MSTORE PUSH1 0x20 PUSH1 0x0 KECCAK256 SWAP1 PUSH1 0x9 MUL ADD SWAP1 POP DUP1 PUSH1 0x5 ADD SLOAD PUSH1 0x0 SUB PUSH2 0x26A5 JUMPI PUSH1 0x40 MLOAD PUSH3 0x461BCD PUSH1 0xE5 SHL DUP2 MSTORE PUSH1 0x4 ADD PUSH2 0x500 SWAP1 PUSH2 0x4BF5 JUMP JUMPDEST PUSH1 0x0 DUP2 PUSH1 0x4 ADD DUP1 SLOAD DUP1 PUSH1 0x20 MUL PUSH1 0x20 ADD PUSH1 0x40 MLOAD SWAP1 DUP2 ADD PUSH1 0x40 MSTORE DUP1 SWAP3 SWAP2 SWAP1 DUP2 DUP2 MSTORE PUSH1 0x20 ADD DUP3 DUP1 SLOAD DUP1 ISZERO PUSH2 0x26F5 JUMPI PUSH1 0x20 MUL DUP3 ADD SWAP2 SWAP1 PUSH1 0x0 MSTORE PUSH1 0x20 PUSH1 0x0 KECCAK256 SWAP1 JUMPDEST DUP2 SLOAD DUP2 MSTORE PUSH1 0x20 ADD SWAP1 PUSH1 0x1 ADD SWAP1 DUP1 DUP4 GT PUSH2 0x26E1 JUMPI JUMPDEST POP POP POP POP POP SWAP1 POP PUSH1 0x0 DUP2 MLOAD PUSH1 0x1 PUSH1 0x1 PUSH1 0x40 SHL SUB DUP2 GT ISZERO PUSH2 0x2717 JUMPI PUSH2 0x2717 PUSH2 0x3D6B JUMP JUMPDEST PUSH1 0x40 MLOAD SWAP1 DUP1 DUP3 MSTORE DUP1 PUSH1 0x20 MUL PUSH1 0x20 ADD DUP3 ADD PUSH1 0x40 MSTORE DUP1 ISZERO PUSH2 0x2750 JUMPI DUP2 PUSH1 0x20 ADD JUMPDEST PUSH2 0x273D PUSH2 0x3D06 JUMP JUMPDEST DUP2 MSTORE PUSH1 0x20 ADD SWAP1 PUSH1 0x1 SWAP1 SUB SWAP1 DUP2 PUSH2 0x2735 JUMPI SWAP1 POP JUMPDEST POP SWAP1 POP PUSH1 0x0 JUMPDEST DUP3 MLOAD DUP2 LT ISZERO PUSH2 0x2A5D JUMPI PUSH1 0x7 DUP4 DUP3 DUP2 MLOAD DUP2 LT PUSH2 0x2773 JUMPI PUSH2 0x2773 PUSH2 0x49FA JUMP JUMPDEST PUSH1 0x20 MUL PUSH1 0x20 ADD ADD MLOAD DUP2 SLOAD DUP2 LT PUSH2 0x278B JUMPI PUSH2 0x278B PUSH2 0x49FA JUMP JUMPDEST SWAP1 PUSH1 0x0 MSTORE PUSH1 0x20 PUSH1 0x0 KECCAK256 SWAP1 PUSH1 0x8 MUL ADD PUSH1 0x40 MLOAD DUP1 PUSH2 0x120 ADD PUSH1 0x40 MSTORE SWAP1 DUP2 PUSH1 0x0 DUP3 ADD SLOAD DUP2 MSTORE PUSH1 0x20 ADD PUSH1 0x1 DUP3 ADD DUP1 SLOAD PUSH2 0x27BF SWAP1 PUSH2 0x4A3F JUMP JUMPDEST DUP1 PUSH1 0x1F ADD PUSH1 0x20 DUP1 SWAP2 DIV MUL PUSH1 0x20 ADD PUSH1 0x40 MLOAD SWAP1 DUP2 ADD PUSH1 0x40 MSTORE DUP1 SWAP3 SWAP2 SWAP1 DUP2 DUP2 MSTORE PUSH1 0x20 ADD DUP3 DUP1 SLOAD PUSH2 0x27EB SWAP1 PUSH2 0x4A3F JUMP JUMPDEST DUP1 ISZERO PUSH2 0x2838 JUMPI DUP1 PUSH1 0x1F LT PUSH2 0x280D JUMPI PUSH2 0x100 DUP1 DUP4 SLOAD DIV MUL DUP4 MSTORE SWAP2 PUSH1 0x20 ADD SWAP2 PUSH2 0x2838 JUMP JUMPDEST DUP3 ADD SWAP2 SWAP1 PUSH1 0x0 MSTORE PUSH1 0x20 PUSH1 0x0 KECCAK256 SWAP1 JUMPDEST DUP2 SLOAD DUP2 MSTORE SWAP1 PUSH1 0x1 ADD SWAP1 PUSH1 0x20 ADD DUP1 DUP4 GT PUSH2 0x281B JUMPI DUP3 SWAP1 SUB PUSH1 0x1F AND DUP3 ADD SWAP2 JUMPDEST POP POP POP POP POP DUP2 MSTORE PUSH1 0x20 ADD PUSH1 0x2 DUP3 ADD SLOAD DUP2 MSTORE PUSH1 0x20 ADD PUSH1 0x3 DUP3 ADD DUP1 SLOAD PUSH2 0x285B SWAP1 PUSH2 0x4A3F JUMP JUMPDEST DUP1 PUSH1 0x1F ADD PUSH1 0x20 DUP1 SWAP2 DIV MUL PUSH1 0x20 ADD PUSH1 0x40 MLOAD SWAP1 DUP2 ADD PUSH1 0x40 MSTORE DUP1 SWAP3 SWAP2 SWAP1 DUP2 DUP2 MSTORE PUSH1 0x20 ADD DUP3 DUP1 SLOAD PUSH2 0x2887 SWAP1 PUSH2 0x4A3F JUMP JUMPDEST DUP1 ISZERO PUSH2 0x28D4 JUMPI DUP1 PUSH1 0x1F LT PUSH2 0x28A9 JUMPI PUSH2 0x100 DUP1 DUP4 SLOAD DIV MUL DUP4 MSTORE SWAP2 PUSH1 0x20 ADD SWAP2 PUSH2 0x28D4 JUMP JUMPDEST DUP3 ADD SWAP2 SWAP1 PUSH1 0x0 MSTORE PUSH1 0x20 PUSH1 0x0 KECCAK256 SWAP1 JUMPDEST DUP2 SLOAD DUP2 MSTORE SWAP1 PUSH1 0x1 ADD SWAP1 PUSH1 0x20 ADD DUP1 DUP4 GT PUSH2 0x28B7 JUMPI DUP3 SWAP1 SUB PUSH1 0x1F AND DUP3 ADD SWAP2 JUMPDEST POP POP POP POP POP DUP2 MSTORE PUSH1 0x20 ADD PUSH1 0x4 DUP3 ADD DUP1 SLOAD PUSH2 0x28ED SWAP1 PUSH2 0x4A3F JUMP JUMPDEST DUP1 PUSH1 0x1F ADD PUSH1 0x20 DUP1 SWAP2 DIV MUL PUSH1 0x20 ADD PUSH1 0x40 MLOAD SWAP1 DUP2 ADD PUSH1 0x40 MSTORE DUP1 SWAP3 SWAP2 SWAP1 DUP2 DUP2 MSTORE PUSH1 0x20 ADD DUP3 DUP1 SLOAD PUSH2 0x2919 SWAP1 PUSH2 0x4A3F JUMP JUMPDEST DUP1 ISZERO PUSH2 0x2966 JUMPI DUP1 PUSH1 0x1F LT PUSH2 0x293B JUMPI PUSH2 0x100 DUP1 DUP4 SLOAD DIV MUL DUP4 MSTORE SWAP2 PUSH1 0x20 ADD SWAP2 PUSH2 0x2966 JUMP JUMPDEST DUP3 ADD SWAP2 SWAP1 PUSH1 0x0 MSTORE PUSH1 0x20 PUSH1 0x0 KECCAK256 SWAP1 JUMPDEST DUP2 SLOAD DUP2 MSTORE SWAP1 PUSH1 0x1 ADD SWAP1 PUSH1 0x20 ADD DUP1 DUP4 GT PUSH2 0x2949 JUMPI DUP3 SWAP1 SUB PUSH1 0x1F AND DUP3 ADD SWAP2 JUMPDEST POP POP POP POP POP DUP2 MSTORE PUSH1 0x20 ADD PUSH1 0x5 DUP3 ADD DUP1 SLOAD PUSH2 0x297F SWAP1 PUSH2 0x4A3F JUMP JUMPDEST DUP1 PUSH1 0x1F ADD PUSH1 0x20 DUP1 SWAP2 DIV MUL PUSH1 0x20 ADD PUSH1 0x40 MLOAD SWAP1 DUP2 ADD PUSH1 0x40 MSTORE DUP1 SWAP3 SWAP2 SWAP1 DUP2 DUP2 MSTORE PUSH1 0x20 ADD DUP3 DUP1 SLOAD PUSH2 0x29AB SWAP1 PUSH2 0x4A3F JUMP JUMPDEST DUP1 ISZERO PUSH2 0x29F8 JUMPI DUP1 PUSH1 0x1F LT PUSH2 0x29CD JUMPI PUSH2 0x100 DUP1 DUP4 SLOAD DIV MUL DUP4 MSTORE SWAP2 PUSH1 0x20 ADD SWAP2 PUSH2 0x29F8 JUMP JUMPDEST DUP3 ADD SWAP2 SWAP1 PUSH1 0x0 MSTORE PUSH1 0x20 PUSH1 0x0 KECCAK256 SWAP1 JUMPDEST DUP2 SLOAD DUP2 MSTORE SWAP1 PUSH1 0x1 ADD SWAP1 PUSH1 0x20 ADD DUP1 DUP4 GT PUSH2 0x29DB JUMPI DUP3 SWAP1 SUB PUSH1 0x1F AND DUP3 ADD SWAP2 JUMPDEST POP POP POP SWAP2 DUP4 MSTORE POP POP PUSH1 0x6 DUP3 ADD SLOAD PUSH1 0xFF DUP1 DUP3 AND ISZERO ISZERO PUSH1 0x20 DUP5 ADD MSTORE PUSH2 0x100 SWAP1 SWAP2 DIV AND ISZERO ISZERO PUSH1 0x40 DUP3 ADD MSTORE PUSH1 0x7 SWAP1 SWAP2 ADD SLOAD PUSH1 0x60 SWAP1 SWAP2 ADD MSTORE DUP3 MLOAD DUP4 SWAP1 DUP4 SWAP1 DUP2 LT PUSH2 0x2A3F JUMPI PUSH2 0x2A3F PUSH2 0x49FA JUMP JUMPDEST PUSH1 0x20 MUL PUSH1 0x20 ADD ADD DUP2 SWAP1 MSTORE POP DUP1 DUP1 PUSH2 0x2A55 SWAP1 PUSH2 0x4BDC JUMP JUMPDEST SWAP2 POP POP PUSH2 0x2756 JUMP JUMPDEST POP SWAP6 SWAP5 POP POP POP POP POP JUMP JUMPDEST PUSH2 0x2A6F PUSH2 0x3AF2 JUMP JUMPDEST PUSH2 0x2A79 PUSH1 0x0 PUSH2 0x3B4C JUMP JUMPDEST JUMP JUMPDEST SWAP1 POP SWAP1 JUMP JUMPDEST PUSH1 0x6 SLOAD PUSH1 0x60 SWAP1 DUP3 GT ISZERO PUSH2 0x2AA5 JUMPI PUSH1 0x40 MLOAD PUSH3 0x461BCD PUSH1 0xE5 SHL DUP2 MSTORE PUSH1 0x4 ADD PUSH2 0x500 SWAP1 PUSH2 0x4D22 JUMP JUMPDEST PUSH1 0x0 PUSH2 0x2AB2 PUSH1 0x1 DUP5 PUSH2 0x4B7E JUMP JUMPDEST SWAP1 POP PUSH1 0x0 PUSH1 0x6 DUP3 DUP2 SLOAD DUP2 LT PUSH2 0x2AC9 JUMPI PUSH2 0x2AC9 PUSH2 0x49FA JUMP JUMPDEST SWAP1 PUSH1 0x0 MSTORE PUSH1 0x20 PUSH1 0x0 KECCAK256 SWAP1 PUSH1 0x9 MUL ADD SWAP1 POP DUP1 PUSH1 0x5 ADD SLOAD PUSH1 0x0 SUB PUSH2 0x2AFD JUMPI PUSH1 0x40 MLOAD PUSH3 0x461BCD PUSH1 0xE5 SHL DUP2 MSTORE PUSH1 0x4 ADD PUSH2 0x500 SWAP1 PUSH2 0x4BF5 JUMP JUMPDEST PUSH1 0x0 DUP2 PUSH1 0x4 ADD DUP1 SLOAD DUP1 PUSH1 0x20 MUL PUSH1 0x20 ADD PUSH1 0x40 MLOAD SWAP1 DUP2 ADD PUSH1 0x40 MSTORE DUP1 SWAP3 SWAP2 SWAP1 DUP2 DUP2 MSTORE PUSH1 0x20 ADD DUP3 DUP1 SLOAD DUP1 ISZERO PUSH2 0x2B4D JUMPI PUSH1 0x20 MUL DUP3 ADD SWAP2 SWAP1 PUSH1 0x0 MSTORE PUSH1 0x20 PUSH1 0x0 KECCAK256 SWAP1 JUMPDEST DUP2 SLOAD DUP2 MSTORE PUSH1 0x20 ADD SWAP1 PUSH1 0x1 ADD SWAP1 DUP1 DUP4 GT PUSH2 0x2B39 JUMPI JUMPDEST POP POP POP POP POP SWAP1 POP PUSH1 0x0 DUP2 MLOAD PUSH1 0x1 PUSH1 0x1 PUSH1 0x40 SHL SUB DUP2 GT ISZERO PUSH2 0x2B6F JUMPI PUSH2 0x2B6F PUSH2 0x3D6B JUMP JUMPDEST PUSH1 0x40 MLOAD SWAP1 DUP1 DUP3 MSTORE DUP1 PUSH1 0x20 MUL PUSH1 0x20 ADD DUP3 ADD PUSH1 0x40 MSTORE DUP1 ISZERO PUSH2 0x2BA8 JUMPI DUP2 PUSH1 0x20 ADD JUMPDEST PUSH2 0x2B95 PUSH2 0x3D06 JUMP JUMPDEST DUP2 MSTORE PUSH1 0x20 ADD SWAP1 PUSH1 0x1 SWAP1 SUB SWAP1 DUP2 PUSH2 0x2B8D JUMPI SWAP1 POP JUMPDEST POP SWAP1 POP PUSH1 0x0 JUMPDEST DUP3 MLOAD DUP2 LT ISZERO PUSH2 0x2A5D JUMPI PUSH1 0x7 PUSH1 0x1 DUP5 DUP4 DUP2 MLOAD DUP2 LT PUSH2 0x2BCD JUMPI PUSH2 0x2BCD PUSH2 0x49FA JUMP JUMPDEST PUSH1 0x20 MUL PUSH1 0x20 ADD ADD MLOAD PUSH2 0x2BDF SWAP2 SWAP1 PUSH2 0x4B7E JUMP JUMPDEST DUP2 SLOAD DUP2 LT PUSH2 0x2BEF JUMPI PUSH2 0x2BEF PUSH2 0x49FA JUMP JUMPDEST SWAP1 PUSH1 0x0 MSTORE PUSH1 0x20 PUSH1 0x0 KECCAK256 SWAP1 PUSH1 0x8 MUL ADD PUSH1 0x40 MLOAD DUP1 PUSH2 0x120 ADD PUSH1 0x40 MSTORE SWAP1 DUP2 PUSH1 0x0 DUP3 ADD SLOAD DUP2 MSTORE PUSH1 0x20 ADD PUSH1 0x1 DUP3 ADD DUP1 SLOAD PUSH2 0x2C23 SWAP1 PUSH2 0x4A3F JUMP JUMPDEST DUP1 PUSH1 0x1F ADD PUSH1 0x20 DUP1 SWAP2 DIV MUL PUSH1 0x20 ADD PUSH1 0x40 MLOAD SWAP1 DUP2 ADD PUSH1 0x40 MSTORE DUP1 SWAP3 SWAP2 SWAP1 DUP2 DUP2 MSTORE PUSH1 0x20 ADD DUP3 DUP1 SLOAD PUSH2 0x2C4F SWAP1 PUSH2 0x4A3F JUMP JUMPDEST DUP1 ISZERO PUSH2 0x2C9C JUMPI DUP1 PUSH1 0x1F LT PUSH2 0x2C71 JUMPI PUSH2 0x100 DUP1 DUP4 SLOAD DIV MUL DUP4 MSTORE SWAP2 PUSH1 0x20 ADD SWAP2 PUSH2 0x2C9C JUMP JUMPDEST DUP3 ADD SWAP2 SWAP1 PUSH1 0x0 MSTORE PUSH1 0x20 PUSH1 0x0 KECCAK256 SWAP1 JUMPDEST DUP2 SLOAD DUP2 MSTORE SWAP1 PUSH1 0x1 ADD SWAP1 PUSH1 0x20 ADD DUP1 DUP4 GT PUSH2 0x2C7F JUMPI DUP3 SWAP1 SUB PUSH1 0x1F AND DUP3 ADD SWAP2 JUMPDEST POP POP POP POP POP DUP2 MSTORE PUSH1 0x20 ADD PUSH1 0x2 DUP3 ADD SLOAD DUP2 MSTORE PUSH1 0x20 ADD PUSH1 0x3 DUP3 ADD DUP1 SLOAD PUSH2 0x2CBF SWAP1 PUSH2 0x4A3F JUMP JUMPDEST DUP1 PUSH1 0x1F ADD PUSH1 0x20 DUP1 SWAP2 DIV MUL PUSH1 0x20 ADD PUSH1 0x40 MLOAD SWAP1 DUP2 ADD PUSH1 0x40 MSTORE DUP1 SWAP3 SWAP2 SWAP1 DUP2 DUP2 MSTORE PUSH1 0x20 ADD DUP3 DUP1 SLOAD PUSH2 0x2CEB SWAP1 PUSH2 0x4A3F JUMP JUMPDEST DUP1 ISZERO PUSH2 0x2D38 JUMPI DUP1 PUSH1 0x1F LT PUSH2 0x2D0D JUMPI PUSH2 0x100 DUP1 DUP4 SLOAD DIV MUL DUP4 MSTORE SWAP2 PUSH1 0x20 ADD SWAP2 PUSH2 0x2D38 JUMP JUMPDEST DUP3 ADD SWAP2 SWAP1 PUSH1 0x0 MSTORE PUSH1 0x20 PUSH1 0x0 KECCAK256 SWAP1 JUMPDEST DUP2 SLOAD DUP2 MSTORE SWAP1 PUSH1 0x1 ADD SWAP1 PUSH1 0x20 ADD DUP1 DUP4 GT PUSH2 0x2D1B JUMPI DUP3 SWAP1 SUB PUSH1 0x1F AND DUP3 ADD SWAP2 JUMPDEST POP POP POP POP POP DUP2 MSTORE PUSH1 0x20 ADD PUSH1 0x4 DUP3 ADD DUP1 SLOAD PUSH2 0x2D51 SWAP1 PUSH2 0x4A3F JUMP JUMPDEST DUP1 PUSH1 0x1F ADD PUSH1 0x20 DUP1 SWAP2 DIV MUL PUSH1 0x20 ADD PUSH1 0x40 MLOAD SWAP1 DUP2 ADD PUSH1 0x40 MSTORE DUP1 SWAP3 SWAP2 SWAP1 DUP2 DUP2 MSTORE PUSH1 0x20 ADD DUP3 DUP1 SLOAD PUSH2 0x2D7D SWAP1 PUSH2 0x4A3F JUMP JUMPDEST DUP1 ISZERO PUSH2 0x2DCA JUMPI DUP1 PUSH1 0x1F LT PUSH2 0x2D9F JUMPI PUSH2 0x100 DUP1 DUP4 SLOAD DIV MUL DUP4 MSTORE SWAP2 PUSH1 0x20 ADD SWAP2 PUSH2 0x2DCA JUMP JUMPDEST DUP3 ADD SWAP2 SWAP1 PUSH1 0x0 MSTORE PUSH1 0x20 PUSH1 0x0 KECCAK256 SWAP1 JUMPDEST DUP2 SLOAD DUP2 MSTORE SWAP1 PUSH1 0x1 ADD SWAP1 PUSH1 0x20 ADD DUP1 DUP4 GT PUSH2 0x2DAD JUMPI DUP3 SWAP1 SUB PUSH1 0x1F AND DUP3 ADD SWAP2 JUMPDEST POP POP POP POP POP DUP2 MSTORE PUSH1 0x20 ADD PUSH1 0x5 DUP3 ADD DUP1 SLOAD PUSH2 0x2DE3 SWAP1 PUSH2 0x4A3F JUMP JUMPDEST DUP1 PUSH1 0x1F ADD PUSH1 0x20 DUP1 SWAP2 DIV MUL PUSH1 0x20 ADD PUSH1 0x40 MLOAD SWAP1 DUP2 ADD PUSH1 0x40 MSTORE DUP1 SWAP3 SWAP2 SWAP1 DUP2 DUP2 MSTORE PUSH1 0x20 ADD DUP3 DUP1 SLOAD PUSH2 0x2E0F SWAP1 PUSH2 0x4A3F JUMP JUMPDEST DUP1 ISZERO PUSH2 0x2E5C JUMPI DUP1 PUSH1 0x1F LT PUSH2 0x2E31 JUMPI PUSH2 0x100 DUP1 DUP4 SLOAD DIV MUL DUP4 MSTORE SWAP2 PUSH1 0x20 ADD SWAP2 PUSH2 0x2E5C JUMP JUMPDEST DUP3 ADD SWAP2 SWAP1 PUSH1 0x0 MSTORE PUSH1 0x20 PUSH1 0x0 KECCAK256 SWAP1 JUMPDEST DUP2 SLOAD DUP2 MSTORE SWAP1 PUSH1 0x1 ADD SWAP1 PUSH1 0x20 ADD DUP1 DUP4 GT PUSH2 0x2E3F JUMPI DUP3 SWAP1 SUB PUSH1 0x1F AND DUP3 ADD SWAP2 JUMPDEST POP POP POP SWAP2 DUP4 MSTORE POP POP PUSH1 0x6 DUP3 ADD SLOAD PUSH1 0xFF DUP1 DUP3 AND ISZERO ISZERO PUSH1 0x20 DUP5 ADD MSTORE PUSH2 0x100 SWAP1 SWAP2 DIV AND ISZERO ISZERO PUSH1 0x40 DUP3 ADD MSTORE PUSH1 0x7 SWAP1 SWAP2 ADD SLOAD PUSH1 0x60 SWAP1 SWAP2 ADD MSTORE DUP3 MLOAD DUP4 SWAP1 DUP4 SWAP1 DUP2 LT PUSH2 0x2EA3 JUMPI PUSH2 0x2EA3 PUSH2 0x49FA JUMP JUMPDEST PUSH1 0x20 MUL PUSH1 0x20 ADD ADD DUP2 SWAP1 MSTORE POP DUP1 DUP1 PUSH2 0x2EB9 SWAP1 PUSH2 0x4BDC JUMP JUMPDEST SWAP2 POP POP PUSH2 0x2BAE JUMP JUMPDEST PUSH1 0x60 PUSH2 0x2ECB PUSH2 0x3AF2 JUMP JUMPDEST PUSH1 0x1 DUP1 SLOAD DUP1 PUSH1 0x20 MUL PUSH1 0x20 ADD PUSH1 0x40 MLOAD SWAP1 DUP2 ADD PUSH1 0x40 MSTORE DUP1 SWAP3 SWAP2 SWAP1 DUP2 DUP2 MSTORE PUSH1 0x20 ADD DUP3 DUP1 SLOAD DUP1 ISZERO PUSH2 0x2F21 JUMPI PUSH1 0x20 MUL DUP3 ADD SWAP2 SWAP1 PUSH1 0x0 MSTORE PUSH1 0x20 PUSH1 0x0 KECCAK256 SWAP1 JUMPDEST DUP2 SLOAD PUSH1 0x1 PUSH1 0x1 PUSH1 0xA0 SHL SUB AND DUP2 MSTORE PUSH1 0x1 SWAP1 SWAP2 ADD SWAP1 PUSH1 0x20 ADD DUP1 DUP4 GT PUSH2 0x2F03 JUMPI JUMPDEST POP POP POP POP POP SWAP1 POP SWAP1 JUMP JUMPDEST PUSH1 0x1 DUP2 DUP2 SLOAD DUP2 LT PUSH2 0x2F3B JUMPI PUSH1 0x0 DUP1 REVERT JUMPDEST PUSH1 0x0 SWAP2 DUP3 MSTORE PUSH1 0x20 SWAP1 SWAP2 KECCAK256 ADD SLOAD PUSH1 0x1 PUSH1 0x1 PUSH1 0xA0 SHL SUB AND SWAP1 POP DUP2 JUMP JUMPDEST PUSH2 0x2F5D PUSH2 0x3AF2 JUMP JUMPDEST PUSH1 0x0 DUP2 MLOAD GT PUSH2 0x2FA4 JUMPI PUSH1 0x40 MLOAD PUSH3 0x461BCD PUSH1 0xE5 SHL DUP2 MSTORE PUSH1 0x20 PUSH1 0x4 DUP3 ADD MSTORE PUSH1 0x13 PUSH1 0x24 DUP3 ADD MSTORE PUSH19 0x139BC81D995C9A599A595C9CC81D1BC8185919 PUSH1 0x6A SHL PUSH1 0x44 DUP3 ADD MSTORE PUSH1 0x64 ADD PUSH2 0x500 JUMP JUMPDEST PUSH1 0x2 SLOAD DUP2 MLOAD PUSH1 0x1 SLOAD PUSH2 0x2FB6 SWAP2 SWAP1 PUSH2 0x4A26 JUMP JUMPDEST GT ISZERO PUSH2 0x3010 JUMPI PUSH1 0x40 MLOAD PUSH3 0x461BCD PUSH1 0xE5 SHL DUP2 MSTORE PUSH1 0x20 PUSH1 0x4 DUP3 ADD MSTORE PUSH1 0x23 PUSH1 0x24 DUP3 ADD MSTORE PUSH32 0x45786365656473206D6178696D756D206E756D626572206F6620766572696669 PUSH1 0x44 DUP3 ADD MSTORE PUSH3 0x657273 PUSH1 0xE8 SHL PUSH1 0x64 DUP3 ADD MSTORE PUSH1 0x84 ADD PUSH2 0x500 JUMP JUMPDEST PUSH1 0x0 JUMPDEST DUP2 MLOAD DUP2 LT ISZERO PUSH2 0x2624 JUMPI PUSH1 0x0 DUP3 DUP3 DUP2 MLOAD DUP2 LT PUSH2 0x3030 JUMPI PUSH2 0x3030 PUSH2 0x49FA JUMP JUMPDEST PUSH1 0x20 MUL PUSH1 0x20 ADD ADD MLOAD SWAP1 POP PUSH1 0x0 PUSH1 0x1 PUSH1 0x1 PUSH1 0xA0 SHL SUB AND DUP2 PUSH1 0x1 PUSH1 0x1 PUSH1 0xA0 SHL SUB AND SUB PUSH2 0x308E JUMPI PUSH1 0x40 MLOAD PUSH3 0x461BCD PUSH1 0xE5 SHL DUP2 MSTORE PUSH1 0x20 PUSH1 0x4 DUP3 ADD MSTORE PUSH1 0xF PUSH1 0x24 DUP3 ADD MSTORE PUSH15 0x496E76616C69642061646472657373 PUSH1 0x88 SHL PUSH1 0x44 DUP3 ADD MSTORE PUSH1 0x64 ADD PUSH2 0x500 JUMP JUMPDEST PUSH1 0x1 DUP1 SLOAD DUP1 DUP3 ADD DUP3 SSTORE PUSH1 0x0 SWAP2 DUP3 MSTORE PUSH32 0xB10E2D527612073B26EECDFD717E6A320CF44B4AFAC2B0732D9FCBE2B7FA0CF6 ADD DUP1 SLOAD PUSH1 0x1 PUSH1 0x1 PUSH1 0xA0 SHL SUB NOT AND PUSH1 0x1 PUSH1 0x1 PUSH1 0xA0 SHL SUB DUP5 AND SWAP1 DUP2 OR SWAP1 SWAP2 SSTORE PUSH1 0x40 MLOAD SWAP1 SWAP2 PUSH32 0x6D05492139C5EA989514A5D2150C028041E5C087E2A39967F67DC7D2655ADB81 SWAP2 LOG2 POP DUP1 PUSH2 0x310D DUP2 PUSH2 0x4BDC JUMP JUMPDEST SWAP2 POP POP PUSH2 0x3013 JUMP JUMPDEST CALLER PUSH1 0x0 SWAP1 DUP2 MSTORE PUSH1 0x3 PUSH1 0x20 MSTORE PUSH1 0x40 SWAP1 KECCAK256 SLOAD PUSH2 0x3141 JUMPI PUSH1 0x40 MLOAD PUSH3 0x461BCD PUSH1 0xE5 SHL DUP2 MSTORE PUSH1 0x4 ADD PUSH2 0x500 SWAP1 PUSH2 0x4994 JUMP JUMPDEST DUP1 MLOAD DUP3 MLOAD EQ PUSH2 0x3162 JUMPI PUSH1 0x40 MLOAD PUSH3 0x461BCD PUSH1 0xE5 SHL DUP2 MSTORE PUSH1 0x4 ADD PUSH2 0x500 SWAP1 PUSH2 0x49C3 JUMP JUMPDEST PUSH1 0x0 JUMPDEST DUP3 MLOAD DUP2 LT ISZERO PUSH2 0x2122 JUMPI PUSH1 0x0 DUP4 PUSH2 0x317C PUSH1 0x1 DUP5 PUSH2 0x4B7E JUMP JUMPDEST DUP2 MLOAD DUP2 LT PUSH2 0x318C JUMPI PUSH2 0x318C PUSH2 0x49FA JUMP JUMPDEST PUSH1 0x20 MUL PUSH1 0x20 ADD ADD MLOAD SWAP1 POP PUSH1 0x0 DUP4 PUSH1 0x1 DUP5 PUSH2 0x31A6 SWAP2 SWAP1 PUSH2 0x4B7E JUMP JUMPDEST DUP2 MLOAD DUP2 LT PUSH2 0x31B6 JUMPI PUSH2 0x31B6 PUSH2 0x49FA JUMP JUMPDEST PUSH1 0x20 MUL PUSH1 0x20 ADD ADD MLOAD SWAP1 POP PUSH1 0x6 DUP3 DUP2 SLOAD DUP2 LT PUSH2 0x31D3 JUMPI PUSH2 0x31D3 PUSH2 0x49FA JUMP JUMPDEST SWAP1 PUSH1 0x0 MSTORE PUSH1 0x20 PUSH1 0x0 KECCAK256 SWAP1 PUSH1 0x9 MUL ADD PUSH1 0x5 ADD SLOAD PUSH1 0x0 SUB PUSH2 0x3204 JUMPI PUSH1 0x40 MLOAD PUSH3 0x461BCD PUSH1 0xE5 SHL DUP2 MSTORE PUSH1 0x4 ADD PUSH2 0x500 SWAP1 PUSH2 0x4BF5 JUMP JUMPDEST PUSH1 0x0 PUSH2 0x3211 PUSH1 0x1 DUP4 PUSH2 0x4B7E JUMP JUMPDEST PUSH1 0x40 DUP1 MLOAD DUP5 DUP2 MSTORE PUSH1 0x20 DUP2 ADD DUP7 SWAP1 MSTORE SWAP2 SWAP3 POP PUSH32 0x61656CB8D1DC6013BB7713AE498059B6F4DF3C60E832E655A6765C0C54863008 SWAP2 ADD PUSH1 0x40 MLOAD DUP1 SWAP2 SUB SWAP1 LOG1 PUSH1 0x6 DUP4 DUP2 SLOAD DUP2 LT PUSH2 0x3260 JUMPI PUSH2 0x3260 PUSH2 0x49FA JUMP JUMPDEST SWAP1 PUSH1 0x0 MSTORE PUSH1 0x20 PUSH1 0x0 KECCAK256 SWAP1 PUSH1 0x9 MUL ADD PUSH1 0x4 ADD DUP2 DUP2 SLOAD DUP2 LT PUSH2 0x3282 JUMPI PUSH2 0x3282 PUSH2 0x49FA JUMP JUMPDEST SWAP1 PUSH1 0x0 MSTORE PUSH1 0x20 PUSH1 0x0 KECCAK256 ADD PUSH1 0x0 SWAP1 SSTORE POP POP POP DUP1 DUP1 PUSH2 0x329E SWAP1 PUSH2 0x4BDC JUMP JUMPDEST SWAP2 POP POP PUSH2 0x3165 JUMP JUMPDEST PUSH1 0x7 DUP2 DUP2 SLOAD DUP2 LT PUSH2 0x32B6 JUMPI PUSH1 0x0 DUP1 REVERT JUMPDEST PUSH1 0x0 SWAP2 DUP3 MSTORE PUSH1 0x20 SWAP1 SWAP2 KECCAK256 PUSH1 0x8 SWAP1 SWAP2 MUL ADD DUP1 SLOAD PUSH1 0x1 DUP3 ADD DUP1 SLOAD SWAP2 SWAP4 POP SWAP1 PUSH2 0x32DB SWAP1 PUSH2 0x4A3F JUMP JUMPDEST DUP1 PUSH1 0x1F ADD PUSH1 0x20 DUP1 SWAP2 DIV MUL PUSH1 0x20 ADD PUSH1 0x40 MLOAD SWAP1 DUP2 ADD PUSH1 0x40 MSTORE DUP1 SWAP3 SWAP2 SWAP1 DUP2 DUP2 MSTORE PUSH1 0x20 ADD DUP3 DUP1 SLOAD PUSH2 0x3307 SWAP1 PUSH2 0x4A3F JUMP JUMPDEST DUP1 ISZERO PUSH2 0x3354 JUMPI DUP1 PUSH1 0x1F LT PUSH2 0x3329 JUMPI PUSH2 0x100 DUP1 DUP4 SLOAD DIV MUL DUP4 MSTORE SWAP2 PUSH1 0x20 ADD SWAP2 PUSH2 0x3354 JUMP JUMPDEST DUP3 ADD SWAP2 SWAP1 PUSH1 0x0 MSTORE PUSH1 0x20 PUSH1 0x0 KECCAK256 SWAP1 JUMPDEST DUP2 SLOAD DUP2 MSTORE SWAP1 PUSH1 0x1 ADD SWAP1 PUSH1 0x20 ADD DUP1 DUP4 GT PUSH2 0x3337 JUMPI DUP3 SWAP1 SUB PUSH1 0x1F AND DUP3 ADD SWAP2 JUMPDEST POP POP POP POP POP SWAP1 DUP1 PUSH1 0x2 ADD SLOAD SWAP1 DUP1 PUSH1 0x3 ADD DUP1 SLOAD PUSH2 0x336F SWAP1 PUSH2 0x4A3F JUMP JUMPDEST DUP1 PUSH1 0x1F ADD PUSH1 0x20 DUP1 SWAP2 DIV MUL PUSH1 0x20 ADD PUSH1 0x40 MLOAD SWAP1 DUP2 ADD PUSH1 0x40 MSTORE DUP1 SWAP3 SWAP2 SWAP1 DUP2 DUP2 MSTORE PUSH1 0x20 ADD DUP3 DUP1 SLOAD PUSH2 0x339B SWAP1 PUSH2 0x4A3F JUMP JUMPDEST DUP1 ISZERO PUSH2 0x33E8 JUMPI DUP1 PUSH1 0x1F LT PUSH2 0x33BD JUMPI PUSH2 0x100 DUP1 DUP4 SLOAD DIV MUL DUP4 MSTORE SWAP2 PUSH1 0x20 ADD SWAP2 PUSH2 0x33E8 JUMP JUMPDEST DUP3 ADD SWAP2 SWAP1 PUSH1 0x0 MSTORE PUSH1 0x20 PUSH1 0x0 KECCAK256 SWAP1 JUMPDEST DUP2 SLOAD DUP2 MSTORE SWAP1 PUSH1 0x1 ADD SWAP1 PUSH1 0x20 ADD DUP1 DUP4 GT PUSH2 0x33CB JUMPI DUP3 SWAP1 SUB PUSH1 0x1F AND DUP3 ADD SWAP2 JUMPDEST POP POP POP POP POP SWAP1 DUP1 PUSH1 0x4 ADD DUP1 SLOAD PUSH2 0x33FD SWAP1 PUSH2 0x4A3F JUMP JUMPDEST DUP1 PUSH1 0x1F ADD PUSH1 0x20 DUP1 SWAP2 DIV MUL PUSH1 0x20 ADD PUSH1 0x40 MLOAD SWAP1 DUP2 ADD PUSH1 0x40 MSTORE DUP1 SWAP3 SWAP2 SWAP1 DUP2 DUP2 MSTORE PUSH1 0x20 ADD DUP3 DUP1 SLOAD PUSH2 0x3429 SWAP1 PUSH2 0x4A3F JUMP JUMPDEST DUP1 ISZERO PUSH2 0x3476 JUMPI DUP1 PUSH1 0x1F LT PUSH2 0x344B JUMPI PUSH2 0x100 DUP1 DUP4 SLOAD DIV MUL DUP4 MSTORE SWAP2 PUSH1 0x20 ADD SWAP2 PUSH2 0x3476 JUMP JUMPDEST DUP3 ADD SWAP2 SWAP1 PUSH1 0x0 MSTORE PUSH1 0x20 PUSH1 0x0 KECCAK256 SWAP1 JUMPDEST DUP2 SLOAD DUP2 MSTORE SWAP1 PUSH1 0x1 ADD SWAP1 PUSH1 0x20 ADD DUP1 DUP4 GT PUSH2 0x3459 JUMPI DUP3 SWAP1 SUB PUSH1 0x1F AND DUP3 ADD SWAP2 JUMPDEST POP POP POP POP POP SWAP1 DUP1 PUSH1 0x5 ADD DUP1 SLOAD PUSH2 0x348B SWAP1 PUSH2 0x4A3F JUMP JUMPDEST DUP1 PUSH1 0x1F ADD PUSH1 0x20 DUP1 SWAP2 DIV MUL PUSH1 0x20 ADD PUSH1 0x40 MLOAD SWAP1 DUP2 ADD PUSH1 0x40 MSTORE DUP1 SWAP3 SWAP2 SWAP1 DUP2 DUP2 MSTORE PUSH1 0x20 ADD DUP3 DUP1 SLOAD PUSH2 0x34B7 SWAP1 PUSH2 0x4A3F JUMP JUMPDEST DUP1 ISZERO PUSH2 0x3504 JUMPI DUP1 PUSH1 0x1F LT PUSH2 0x34D9 JUMPI PUSH2 0x100 DUP1 DUP4 SLOAD DIV MUL DUP4 MSTORE SWAP2 PUSH1 0x20 ADD SWAP2 PUSH2 0x3504 JUMP JUMPDEST DUP3 ADD SWAP2 SWAP1 PUSH1 0x0 MSTORE PUSH1 0x20 PUSH1 0x0 KECCAK256 SWAP1 JUMPDEST DUP2 SLOAD DUP2 MSTORE SWAP1 PUSH1 0x1 ADD SWAP1 PUSH1 0x20 ADD DUP1 DUP4 GT PUSH2 0x34E7 JUMPI DUP3 SWAP1 SUB PUSH1 0x1F AND DUP3 ADD SWAP2 JUMPDEST POP POP POP POP PUSH1 0x6 DUP4 ADD SLOAD PUSH1 0x7 SWAP1 SWAP4 ADD SLOAD SWAP2 SWAP3 PUSH1 0xFF DUP1 DUP3 AND SWAP4 PUSH2 0x100 SWAP1 SWAP3 DIV AND SWAP2 POP DUP10 JUMP JUMPDEST PUSH2 0x352F PUSH2 0x3AE7 JUMP JUMPDEST DUP1 PUSH2 0x3544 JUMPI POP PUSH1 0x0 SLOAD PUSH1 0x1 PUSH1 0x1 PUSH1 0xA0 SHL SUB AND CALLER EQ JUMPDEST PUSH2 0x3560 JUMPI PUSH1 0x40 MLOAD PUSH3 0x461BCD PUSH1 0xE5 SHL DUP2 MSTORE PUSH1 0x4 ADD PUSH2 0x500 SWAP1 PUSH2 0x4D66 JUMP JUMPDEST DUP5 MLOAD DUP7 MLOAD EQ DUP1 ISZERO PUSH2 0x3572 JUMPI POP DUP4 MLOAD DUP7 MLOAD EQ JUMPDEST DUP1 ISZERO PUSH2 0x357F JUMPI POP DUP3 MLOAD DUP7 MLOAD EQ JUMPDEST DUP1 ISZERO PUSH2 0x358C JUMPI POP DUP2 MLOAD DUP7 MLOAD EQ JUMPDEST DUP1 ISZERO PUSH2 0x3599 JUMPI POP DUP1 MLOAD DUP7 MLOAD EQ JUMPDEST PUSH2 0x35B5 JUMPI PUSH1 0x40 MLOAD PUSH3 0x461BCD PUSH1 0xE5 SHL DUP2 MSTORE PUSH1 0x4 ADD PUSH2 0x500 SWAP1 PUSH2 0x49C3 JUMP JUMPDEST PUSH1 0x0 JUMPDEST DUP7 MLOAD DUP2 LT ISZERO PUSH2 0x385F JUMPI PUSH1 0x0 DUP8 DUP3 DUP2 MLOAD DUP2 LT PUSH2 0x35D5 JUMPI PUSH2 0x35D5 PUSH2 0x49FA JUMP JUMPDEST PUSH1 0x20 MUL PUSH1 0x20 ADD ADD MLOAD SWAP1 POP PUSH1 0x0 DUP8 DUP4 DUP2 MLOAD DUP2 LT PUSH2 0x35F3 JUMPI PUSH2 0x35F3 PUSH2 0x49FA JUMP JUMPDEST PUSH1 0x20 MUL PUSH1 0x20 ADD ADD MLOAD SWAP1 POP PUSH1 0x0 DUP8 DUP5 DUP2 MLOAD DUP2 LT PUSH2 0x3611 JUMPI PUSH2 0x3611 PUSH2 0x49FA JUMP JUMPDEST PUSH1 0x20 MUL PUSH1 0x20 ADD ADD MLOAD SWAP1 POP PUSH1 0x0 DUP8 DUP6 DUP2 MLOAD DUP2 LT PUSH2 0x362F JUMPI PUSH2 0x362F PUSH2 0x49FA JUMP JUMPDEST PUSH1 0x20 MUL PUSH1 0x20 ADD ADD MLOAD SWAP1 POP PUSH1 0x0 DUP8 DUP7 DUP2 MLOAD DUP2 LT PUSH2 0x364D JUMPI PUSH2 0x364D PUSH2 0x49FA JUMP JUMPDEST PUSH1 0x20 MUL PUSH1 0x20 ADD ADD MLOAD SWAP1 POP PUSH1 0x0 DUP8 DUP8 DUP2 MLOAD DUP2 LT PUSH2 0x366B JUMPI PUSH2 0x366B PUSH2 0x49FA JUMP JUMPDEST PUSH1 0x20 MUL PUSH1 0x20 ADD ADD MLOAD SWAP1 POP PUSH1 0x0 PUSH1 0x5 DUP1 SLOAD SWAP1 POP PUSH1 0x1 PUSH2 0x3689 SWAP2 SWAP1 PUSH2 0x4A26 JUMP JUMPDEST SWAP1 POP PUSH1 0x5 PUSH1 0x40 MLOAD DUP1 PUSH2 0x120 ADD PUSH1 0x40 MSTORE DUP1 TIMESTAMP DUP2 MSTORE PUSH1 0x20 ADD DUP10 PUSH1 0x1 PUSH1 0x1 PUSH1 0xA0 SHL SUB AND DUP2 MSTORE PUSH1 0x20 ADD DUP9 DUP2 MSTORE PUSH1 0x20 ADD DUP4 DUP2 MSTORE PUSH1 0x20 ADD PUSH1 0x0 PUSH1 0x1 PUSH1 0x1 PUSH1 0x40 SHL SUB DUP2 GT ISZERO PUSH2 0x36D3 JUMPI PUSH2 0x36D3 PUSH2 0x3D6B JUMP JUMPDEST PUSH1 0x40 MLOAD SWAP1 DUP1 DUP3 MSTORE DUP1 PUSH1 0x20 MUL PUSH1 0x20 ADD DUP3 ADD PUSH1 0x40 MSTORE DUP1 ISZERO PUSH2 0x36FC JUMPI DUP2 PUSH1 0x20 ADD PUSH1 0x20 DUP3 MUL DUP1 CALLDATASIZE DUP4 CALLDATACOPY ADD SWAP1 POP JUMPDEST POP DUP2 MSTORE PUSH1 0x20 DUP1 DUP3 ADD DUP10 SWAP1 MSTORE PUSH1 0x40 DUP1 DUP4 ADD DUP10 SWAP1 MSTORE PUSH1 0x60 DUP4 ADD DUP9 SWAP1 MSTORE PUSH1 0x80 SWAP1 SWAP3 ADD DUP7 SWAP1 MSTORE DUP4 SLOAD PUSH1 0x1 DUP1 DUP3 ADD DUP7 SSTORE PUSH1 0x0 SWAP6 DUP7 MSTORE SWAP5 DUP3 SWAP1 KECCAK256 DUP5 MLOAD PUSH1 0x9 SWAP1 SWAP3 MUL ADD SWAP1 DUP2 SSTORE SWAP1 DUP4 ADD MLOAD SWAP4 DUP2 ADD DUP1 SLOAD PUSH1 0x1 PUSH1 0x1 PUSH1 0xA0 SHL SUB NOT AND PUSH1 0x1 PUSH1 0x1 PUSH1 0xA0 SHL SUB SWAP1 SWAP6 AND SWAP5 SWAP1 SWAP5 OR SWAP1 SWAP4 SSTORE DUP2 ADD MLOAD SWAP1 SWAP2 SWAP1 PUSH1 0x2 DUP3 ADD SWAP1 PUSH2 0x3775 SWAP1 DUP3 PUSH2 0x4ABF JUMP JUMPDEST POP PUSH1 0x60 DUP3 ADD MLOAD PUSH1 0x3 DUP3 ADD SSTORE PUSH1 0x80 DUP3 ADD MLOAD DUP1 MLOAD PUSH2 0x379B SWAP2 PUSH1 0x4 DUP5 ADD SWAP2 PUSH1 0x20 SWAP1 SWAP2 ADD SWAP1 PUSH2 0x3C05 JUMP JUMPDEST POP PUSH1 0xA0 DUP3 ADD MLOAD PUSH1 0x5 DUP3 ADD SWAP1 PUSH2 0x37B0 SWAP1 DUP3 PUSH2 0x4ABF JUMP JUMPDEST POP PUSH1 0xC0 DUP3 ADD MLOAD PUSH1 0x6 DUP3 ADD SSTORE PUSH1 0xE0 DUP3 ADD MLOAD PUSH1 0x7 DUP3 ADD SWAP1 PUSH2 0x37CF SWAP1 DUP3 PUSH2 0x4ABF JUMP JUMPDEST POP PUSH2 0x100 DUP3 ADD MLOAD PUSH1 0x8 DUP3 ADD SWAP1 PUSH2 0x37E5 SWAP1 DUP3 PUSH2 0x4ABF JUMP JUMPDEST POP POP POP PUSH1 0x1 PUSH1 0x1 PUSH1 0xA0 SHL SUB DUP8 AND PUSH1 0x0 DUP2 DUP2 MSTORE PUSH1 0x3 PUSH1 0x20 MSTORE PUSH1 0x40 SWAP1 DUP2 SWAP1 KECCAK256 DUP4 SWAP1 SSTORE MLOAD DUP3 SWAP1 PUSH32 0xC9C99E7B42F7789F7AC090A92A6E5F98C03AD412BE267F7FB9BB60B571B69087 SWAP1 PUSH2 0x383D SWAP1 DUP11 SWAP1 DUP11 SWAP1 DUP11 SWAP1 DUP11 SWAP1 DUP11 SWAP1 PUSH2 0x4C97 JUMP JUMPDEST PUSH1 0x40 MLOAD DUP1 SWAP2 SUB SWAP1 LOG3 POP POP POP POP POP POP POP DUP1 DUP1 PUSH2 0x3857 SWAP1 PUSH2 0x4BDC JUMP JUMPDEST SWAP2 POP POP PUSH2 0x35B8 JUMP JUMPDEST POP POP POP POP POP POP POP JUMP JUMPDEST PUSH2 0x3870 PUSH2 0x3AE7 JUMP JUMPDEST DUP1 PUSH2 0x3889 JUMPI POP CALLER PUSH1 0x0 SWAP1 DUP2 MSTORE PUSH1 0x3 PUSH1 0x20 MSTORE PUSH1 0x40 SWAP1 KECCAK256 SLOAD ISZERO ISZERO JUMPDEST PUSH2 0x38A5 JUMPI PUSH1 0x40 MLOAD PUSH3 0x461BCD PUSH1 0xE5 SHL DUP2 MSTORE PUSH1 0x4 ADD PUSH2 0x500 SWAP1 PUSH2 0x4D66 JUMP JUMPDEST PUSH1 0x0 JUMPDEST DUP2 MLOAD DUP2 LT ISZERO PUSH2 0x2624 JUMPI PUSH1 0x0 DUP3 PUSH2 0x38BF PUSH1 0x1 DUP5 PUSH2 0x4B7E JUMP JUMPDEST DUP2 MLOAD DUP2 LT PUSH2 0x38CF JUMPI PUSH2 0x38CF PUSH2 0x49FA JUMP JUMPDEST PUSH1 0x20 MUL PUSH1 0x20 ADD ADD MLOAD SWAP1 POP PUSH1 0x6 DUP2 DUP2 SLOAD DUP2 LT PUSH2 0x38EC JUMPI PUSH2 0x38EC PUSH2 0x49FA JUMP JUMPDEST SWAP1 PUSH1 0x0 MSTORE PUSH1 0x20 PUSH1 0x0 KECCAK256 SWAP1 PUSH1 0x9 MUL ADD PUSH1 0x5 ADD SLOAD PUSH1 0x0 SUB PUSH2 0x391D JUMPI PUSH1 0x40 MLOAD PUSH3 0x461BCD PUSH1 0xE5 SHL DUP2 MSTORE PUSH1 0x4 ADD PUSH2 0x500 SWAP1 PUSH2 0x4BF5 JUMP JUMPDEST PUSH1 0x0 PUSH2 0x392A PUSH1 0x1 DUP4 PUSH2 0x4B7E JUMP JUMPDEST PUSH1 0x40 MLOAD SWAP1 SWAP2 POP DUP3 SWAP1 PUSH32 0x294C5A9BC8A39E6E06502BC8DA429980F6C7B0990D75B682C12CB8705E3ACE85 SWAP1 PUSH1 0x0 SWAP1 LOG2 PUSH1 0x6 DUP2 DUP2 SLOAD DUP2 LT PUSH2 0x396B JUMPI PUSH2 0x396B PUSH2 0x49FA JUMP JUMPDEST PUSH1 0x0 SWAP2 DUP3 MSTORE PUSH1 0x20 DUP3 KECCAK256 PUSH1 0x9 SWAP1 SWAP2 MUL ADD DUP2 DUP2 SSTORE PUSH1 0x1 DUP2 ADD DUP1 SLOAD PUSH1 0x1 PUSH1 0x1 PUSH1 0xA0 SHL SUB NOT SWAP1 DUP2 AND SWAP1 SWAP2 SSTORE PUSH1 0x2 DUP3 ADD DUP1 SLOAD SWAP1 SWAP2 AND SWAP1 SSTORE SWAP1 PUSH2 0x39AB PUSH1 0x3 DUP4 ADD DUP3 PUSH2 0x3CAE JUMP JUMPDEST PUSH2 0x39B9 PUSH1 0x4 DUP4 ADD PUSH1 0x0 PUSH2 0x3CE8 JUMP JUMPDEST PUSH1 0x5 DUP3 ADD PUSH1 0x0 SWAP1 SSTORE PUSH1 0x6 DUP3 ADD PUSH1 0x0 PUSH2 0x39D1 SWAP2 SWAP1 PUSH2 0x3CAE JUMP JUMPDEST PUSH2 0x39DF PUSH1 0x7 DUP4 ADD PUSH1 0x0 PUSH2 0x3CAE JUMP JUMPDEST PUSH1 0x8 DUP3 ADD PUSH1 0x0 SWAP1 SSTORE POP POP POP POP DUP1 DUP1 PUSH2 0x39F6 SWAP1 PUSH2 0x4BDC JUMP JUMPDEST SWAP2 POP POP PUSH2 0x38A8 JUMP JUMPDEST PUSH2 0x3A06 PUSH2 0x3AF2 JUMP JUMPDEST PUSH1 0x1 PUSH1 0x1 PUSH1 0xA0 SHL SUB DUP2 AND PUSH2 0x3A6B JUMPI PUSH1 0x40 MLOAD PUSH3 0x461BCD PUSH1 0xE5 SHL DUP2 MSTORE PUSH1 0x20 PUSH1 0x4 DUP3 ADD MSTORE PUSH1 0x26 PUSH1 0x24 DUP3 ADD MSTORE PUSH32 0x4F776E61626C653A206E6577206F776E657220697320746865207A65726F2061 PUSH1 0x44 DUP3 ADD MSTORE PUSH6 0x646472657373 PUSH1 0xD0 SHL PUSH1 0x64 DUP3 ADD MSTORE PUSH1 0x84 ADD PUSH2 0x500 JUMP JUMPDEST PUSH2 0x3A74 DUP2 PUSH2 0x3B4C JUMP JUMPDEST POP JUMP JUMPDEST PUSH2 0x3A7F PUSH2 0x3AF2 JUMP JUMPDEST PUSH1 0x0 DUP2 GT PUSH2 0x3AE2 JUMPI PUSH1 0x40 MLOAD PUSH3 0x461BCD PUSH1 0xE5 SHL DUP2 MSTORE PUSH1 0x20 PUSH1 0x4 DUP3 ADD MSTORE PUSH1 0x2A PUSH1 0x24 DUP3 ADD MSTORE PUSH32 0x4D6178696D756D207665726966696572732073686F756C642062652067726561 PUSH1 0x44 DUP3 ADD MSTORE PUSH10 0x746572207468616E203 PUSH1 0xB4 SHL PUSH1 0x64 DUP3 ADD MSTORE PUSH1 0x84 ADD PUSH2 0x500 JUMP JUMPDEST PUSH1 0x2 SSTORE JUMP JUMPDEST PUSH1 0x0 PUSH2 0x2A7B CALLER PUSH2 0x3B9C JUMP JUMPDEST PUSH1 0x0 SLOAD PUSH1 0x1 PUSH1 0x1 PUSH1 0xA0 SHL SUB AND CALLER EQ PUSH2 0x2A79 JUMPI PUSH1 0x40 MLOAD PUSH3 0x461BCD PUSH1 0xE5 SHL DUP2 MSTORE PUSH1 0x20 PUSH1 0x4 DUP3 ADD DUP2 SWAP1 MSTORE PUSH1 0x24 DUP3 ADD MSTORE PUSH32 0x4F776E61626C653A2063616C6C6572206973206E6F7420746865206F776E6572 PUSH1 0x44 DUP3 ADD MSTORE PUSH1 0x64 ADD PUSH2 0x500 JUMP JUMPDEST PUSH1 0x0 DUP1 SLOAD PUSH1 0x1 PUSH1 0x1 PUSH1 0xA0 SHL SUB DUP4 DUP2 AND PUSH1 0x1 PUSH1 0x1 PUSH1 0xA0 SHL SUB NOT DUP4 AND DUP2 OR DUP5 SSTORE PUSH1 0x40 MLOAD SWAP2 SWAP1 SWAP3 AND SWAP3 DUP4 SWAP2 PUSH32 0x8BE0079C531659141344CD1FD0A4F28419497F9722A3DAAFE3B4186F6B6457E0 SWAP2 SWAP1 LOG3 POP POP JUMP JUMPDEST PUSH1 0x0 DUP1 JUMPDEST PUSH1 0x1 SLOAD DUP2 LT ISZERO PUSH2 0x3BFC JUMPI DUP3 PUSH1 0x1 PUSH1 0x1 PUSH1 0xA0 SHL SUB AND PUSH1 0x1 DUP3 DUP2 SLOAD DUP2 LT PUSH2 0x3BC7 JUMPI PUSH2 0x3BC7 PUSH2 0x49FA JUMP JUMPDEST PUSH1 0x0 SWAP2 DUP3 MSTORE PUSH1 0x20 SWAP1 SWAP2 KECCAK256 ADD SLOAD PUSH1 0x1 PUSH1 0x1 PUSH1 0xA0 SHL SUB AND SUB PUSH2 0x3BEA JUMPI POP PUSH1 0x1 SWAP3 SWAP2 POP POP JUMP JUMPDEST DUP1 PUSH2 0x3BF4 DUP2 PUSH2 0x4BDC JUMP JUMPDEST SWAP2 POP POP PUSH2 0x3BA0 JUMP JUMPDEST POP PUSH1 0x0 SWAP3 SWAP2 POP POP JUMP JUMPDEST DUP3 DUP1 SLOAD DUP3 DUP3 SSTORE SWAP1 PUSH1 0x0 MSTORE PUSH1 0x20 PUSH1 0x0 KECCAK256 SWAP1 DUP2 ADD SWAP3 DUP3 ISZERO PUSH2 0x3C40 JUMPI SWAP2 PUSH1 0x20 MUL DUP3 ADD JUMPDEST DUP3 DUP2 GT ISZERO PUSH2 0x3C40 JUMPI DUP3 MLOAD DUP3 SSTORE SWAP2 PUSH1 0x20 ADD SWAP2 SWAP1 PUSH1 0x1 ADD SWAP1 PUSH2 0x3C25 JUMP JUMPDEST POP PUSH2 0x3C4C SWAP3 SWAP2 POP PUSH2 0x3D56 JUMP JUMPDEST POP SWAP1 JUMP JUMPDEST PUSH1 0x40 MLOAD DUP1 PUSH2 0x120 ADD PUSH1 0x40 MSTORE DUP1 PUSH1 0x0 DUP2 MSTORE PUSH1 0x20 ADD PUSH1 0x0 PUSH1 0x1 PUSH1 0x1 PUSH1 0xA0 SHL SUB AND DUP2 MSTORE PUSH1 0x20 ADD PUSH1 0x0 PUSH1 0x1 PUSH1 0x1 PUSH1 0xA0 SHL SUB AND DUP2 MSTORE PUSH1 0x20 ADD PUSH1 0x60 DUP2 MSTORE PUSH1 0x20 ADD PUSH1 0x60 DUP2 MSTORE PUSH1 0x20 ADD PUSH1 0x0 DUP2 MSTORE PUSH1 0x20 ADD PUSH1 0x60 DUP2 MSTORE PUSH1 0x20 ADD PUSH1 0x60 DUP2 MSTORE PUSH1 0x20 ADD PUSH1 0x0 DUP2 MSTORE POP SWAP1 JUMP JUMPDEST POP DUP1 SLOAD PUSH2 0x3CBA SWAP1 PUSH2 0x4A3F JUMP JUMPDEST PUSH1 0x0 DUP3 SSTORE DUP1 PUSH1 0x1F LT PUSH2 0x3CCA JUMPI POP POP JUMP JUMPDEST PUSH1 0x1F ADD PUSH1 0x20 SWAP1 DIV SWAP1 PUSH1 0x0 MSTORE PUSH1 0x20 PUSH1 0x0 KECCAK256 SWAP1 DUP2 ADD SWAP1 PUSH2 0x3A74 SWAP2 SWAP1 PUSH2 0x3D56 JUMP JUMPDEST POP DUP1 SLOAD PUSH1 0x0 DUP3 SSTORE SWAP1 PUSH1 0x0 MSTORE PUSH1 0x20 PUSH1 0x0 KECCAK256 SWAP1 DUP2 ADD SWAP1 PUSH2 0x3A74 SWAP2 SWAP1 PUSH2 0x3D56 JUMP JUMPDEST PUSH1 0x40 MLOAD DUP1 PUSH2 0x120 ADD PUSH1 0x40 MSTORE DUP1 PUSH1 0x0 DUP2 MSTORE PUSH1 0x20 ADD PUSH1 0x60 DUP2 MSTORE PUSH1 0x20 ADD PUSH1 0x0 DUP2 MSTORE PUSH1 0x20 ADD PUSH1 0x60 DUP2 MSTORE PUSH1 0x20 ADD PUSH1 0x60 DUP2 MSTORE PUSH1 0x20 ADD PUSH1 0x60 DUP2 MSTORE PUSH1 0x20 ADD PUSH1 0x0 ISZERO ISZERO DUP2 MSTORE PUSH1 0x20 ADD PUSH1 0x0 ISZERO ISZERO DUP2 MSTORE PUSH1 0x20 ADD PUSH1 0x0 DUP2 MSTORE POP SWAP1 JUMP JUMPDEST JUMPDEST DUP1 DUP3 GT ISZERO PUSH2 0x3C4C JUMPI PUSH1 0x0 DUP2 SSTORE PUSH1 0x1 ADD PUSH2 0x3D57 JUMP JUMPDEST PUSH4 0x4E487B71 PUSH1 0xE0 SHL PUSH1 0x0 MSTORE PUSH1 0x41 PUSH1 0x4 MSTORE PUSH1 0x24 PUSH1 0x0 REVERT JUMPDEST PUSH1 0x40 MLOAD PUSH1 0x1F DUP3 ADD PUSH1 0x1F NOT AND DUP2 ADD PUSH1 0x1 PUSH1 0x1 PUSH1 0x40 SHL SUB DUP2 GT DUP3 DUP3 LT OR ISZERO PUSH2 0x3DA9 JUMPI PUSH2 0x3DA9 PUSH2 0x3D6B JUMP JUMPDEST PUSH1 0x40 MSTORE SWAP2 SWAP1 POP JUMP JUMPDEST PUSH1 0x0 PUSH1 0x1 PUSH1 0x1 PUSH1 0x40 SHL SUB DUP3 GT ISZERO PUSH2 0x3DCA JUMPI PUSH2 0x3DCA PUSH2 0x3D6B JUMP JUMPDEST POP PUSH1 0x5 SHL PUSH1 0x20 ADD SWAP1 JUMP JUMPDEST DUP1 CALLDATALOAD PUSH1 0x1 PUSH1 0x1 PUSH1 0xA0 SHL SUB DUP2 AND DUP2 EQ PUSH2 0x3DEB JUMPI PUSH1 0x0 DUP1 REVERT JUMPDEST SWAP2 SWAP1 POP JUMP JUMPDEST PUSH1 0x0 DUP3 PUSH1 0x1F DUP4 ADD SLT PUSH2 0x3E01 JUMPI PUSH1 0x0 DUP1 REVERT JUMPDEST DUP2 CALLDATALOAD PUSH1 0x20 PUSH2 0x3E16 PUSH2 0x3E11 DUP4 PUSH2 0x3DB1 JUMP JUMPDEST PUSH2 0x3D81 JUMP JUMPDEST DUP3 DUP2 MSTORE PUSH1 0x5 SWAP3 SWAP1 SWAP3 SHL DUP5 ADD DUP2 ADD SWAP2 DUP2 DUP2 ADD SWAP1 DUP7 DUP5 GT ISZERO PUSH2 0x3E35 JUMPI PUSH1 0x0 DUP1 REVERT JUMPDEST DUP3 DUP7 ADD JUMPDEST DUP5 DUP2 LT ISZERO PUSH2 0x3E57 JUMPI PUSH2 0x3E4A DUP2 PUSH2 0x3DD4 JUMP JUMPDEST DUP4 MSTORE SWAP2 DUP4 ADD SWAP2 DUP4 ADD PUSH2 0x3E39 JUMP JUMPDEST POP SWAP7 SWAP6 POP POP POP POP POP POP JUMP JUMPDEST PUSH1 0x0 DUP3 PUSH1 0x1F DUP4 ADD SLT PUSH2 0x3E73 JUMPI PUSH1 0x0 DUP1 REVERT JUMPDEST DUP2 CALLDATALOAD PUSH1 0x1 PUSH1 0x1 PUSH1 0x40 SHL SUB DUP2 GT ISZERO PUSH2 0x3E8C JUMPI PUSH2 0x3E8C PUSH2 0x3D6B JUMP JUMPDEST PUSH2 0x3E9F PUSH1 0x1F DUP3 ADD PUSH1 0x1F NOT AND PUSH1 0x20 ADD PUSH2 0x3D81 JUMP JUMPDEST DUP2 DUP2 MSTORE DUP5 PUSH1 0x20 DUP4 DUP7 ADD ADD GT ISZERO PUSH2 0x3EB4 JUMPI PUSH1 0x0 DUP1 REVERT JUMPDEST DUP2 PUSH1 0x20 DUP6 ADD PUSH1 0x20 DUP4 ADD CALLDATACOPY PUSH1 0x0 SWAP2 DUP2 ADD PUSH1 0x20 ADD SWAP2 SWAP1 SWAP2 MSTORE SWAP4 SWAP3 POP POP POP JUMP JUMPDEST PUSH1 0x0 DUP3 PUSH1 0x1F DUP4 ADD SLT PUSH2 0x3EE2 JUMPI PUSH1 0x0 DUP1 REVERT JUMPDEST DUP2 CALLDATALOAD PUSH1 0x20 PUSH2 0x3EF2 PUSH2 0x3E11 DUP4 PUSH2 0x3DB1 JUMP JUMPDEST DUP3 DUP2 MSTORE PUSH1 0x5 SWAP3 SWAP1 SWAP3 SHL DUP5 ADD DUP2 ADD SWAP2 DUP2 DUP2 ADD SWAP1 DUP7 DUP5 GT ISZERO PUSH2 0x3F11 JUMPI PUSH1 0x0 DUP1 REVERT JUMPDEST DUP3 DUP7 ADD JUMPDEST DUP5 DUP2 LT ISZERO PUSH2 0x3E57 JUMPI DUP1 CALLDATALOAD PUSH1 0x1 PUSH1 0x1 PUSH1 0x40 SHL SUB DUP2 GT ISZERO PUSH2 0x3F34 JUMPI PUSH1 0x0 DUP1 DUP2 REVERT JUMPDEST PUSH2 0x3F42 DUP10 DUP7 DUP4 DUP12 ADD ADD PUSH2 0x3E62 JUMP JUMPDEST DUP5 MSTORE POP SWAP2 DUP4 ADD SWAP2 DUP4 ADD PUSH2 0x3F15 JUMP JUMPDEST PUSH1 0x0 DUP3 PUSH1 0x1F DUP4 ADD SLT PUSH2 0x3F61 JUMPI PUSH1 0x0 DUP1 REVERT JUMPDEST DUP2 CALLDATALOAD PUSH1 0x20 PUSH2 0x3F71 PUSH2 0x3E11 DUP4 PUSH2 0x3DB1 JUMP JUMPDEST DUP3 DUP2 MSTORE PUSH1 0x5 SWAP3 SWAP1 SWAP3 SHL DUP5 ADD DUP2 ADD SWAP2 DUP2 DUP2 ADD SWAP1 DUP7 DUP5 GT ISZERO PUSH2 0x3F90 JUMPI PUSH1 0x0 DUP1 REVERT JUMPDEST DUP3 DUP7 ADD JUMPDEST DUP5 DUP2 LT ISZERO PUSH2 0x3E57 JUMPI DUP1 CALLDATALOAD DUP4 MSTORE SWAP2 DUP4 ADD SWAP2 DUP4 ADD PUSH2 0x3F94 JUMP JUMPDEST PUSH1 0x0 DUP1 PUSH1 0x0 DUP1 PUSH1 0x0 PUSH1 0xA0 DUP7 DUP9 SUB SLT ISZERO PUSH2 0x3FC3 JUMPI PUSH1 0x0 DUP1 REVERT JUMPDEST DUP6 CALLDATALOAD PUSH1 0x1 PUSH1 0x1 PUSH1 0x40 SHL SUB DUP1 DUP3 GT ISZERO PUSH2 0x3FDA JUMPI PUSH1 0x0 DUP1 REVERT JUMPDEST PUSH2 0x3FE6 DUP10 DUP4 DUP11 ADD PUSH2 0x3DF0 JUMP JUMPDEST SWAP7 POP PUSH1 0x20 DUP9 ADD CALLDATALOAD SWAP2 POP DUP1 DUP3 GT ISZERO PUSH2 0x3FFC JUMPI PUSH1 0x0 DUP1 REVERT JUMPDEST PUSH2 0x4008 DUP10 DUP4 DUP11 ADD PUSH2 0x3ED1 JUMP JUMPDEST SWAP6 POP PUSH1 0x40 DUP9 ADD CALLDATALOAD SWAP2 POP DUP1 DUP3 GT ISZERO PUSH2 0x401E JUMPI PUSH1 0x0 DUP1 REVERT JUMPDEST PUSH2 0x402A DUP10 DUP4 DUP11 ADD PUSH2 0x3ED1 JUMP JUMPDEST SWAP5 POP PUSH1 0x60 DUP9 ADD CALLDATALOAD SWAP2 POP DUP1 DUP3 GT ISZERO PUSH2 0x4040 JUMPI PUSH1 0x0 DUP1 REVERT JUMPDEST PUSH2 0x404C DUP10 DUP4 DUP11 ADD PUSH2 0x3ED1 JUMP JUMPDEST SWAP4 POP PUSH1 0x80 DUP9 ADD CALLDATALOAD SWAP2 POP DUP1 DUP3 GT ISZERO PUSH2 0x4062 JUMPI PUSH1 0x0 DUP1 REVERT JUMPDEST POP PUSH2 0x406F DUP9 DUP3 DUP10 ADD PUSH2 0x3F50 JUMP JUMPDEST SWAP2 POP POP SWAP3 SWAP6 POP SWAP3 SWAP6 SWAP1 SWAP4 POP JUMP JUMPDEST PUSH1 0x0 DUP1 PUSH1 0x40 DUP4 DUP6 SUB SLT ISZERO PUSH2 0x408F JUMPI PUSH1 0x0 DUP1 REVERT JUMPDEST DUP3 CALLDATALOAD SWAP2 POP PUSH2 0x409F PUSH1 0x20 DUP5 ADD PUSH2 0x3DD4 JUMP JUMPDEST SWAP1 POP SWAP3 POP SWAP3 SWAP1 POP JUMP JUMPDEST PUSH1 0x0 DUP1 PUSH1 0x0 DUP1 PUSH1 0x0 DUP1 PUSH1 0xC0 DUP8 DUP10 SUB SLT ISZERO PUSH2 0x40C1 JUMPI PUSH1 0x0 DUP1 REVERT JUMPDEST DUP7 CALLDATALOAD SWAP6 POP PUSH1 0x20 DUP8 ADD CALLDATALOAD PUSH1 0x1 PUSH1 0x1 PUSH1 0x40 SHL SUB DUP1 DUP3 GT ISZERO PUSH2 0x40DF JUMPI PUSH1 0x0 DUP1 REVERT JUMPDEST PUSH2 0x40EB DUP11 DUP4 DUP12 ADD PUSH2 0x3E62 JUMP JUMPDEST SWAP7 POP PUSH1 0x40 DUP10 ADD CALLDATALOAD SWAP2 POP DUP1 DUP3 GT ISZERO PUSH2 0x4101 JUMPI PUSH1 0x0 DUP1 REVERT JUMPDEST PUSH2 0x410D DUP11 DUP4 DUP12 ADD PUSH2 0x3E62 JUMP JUMPDEST SWAP6 POP PUSH1 0x60 DUP10 ADD CALLDATALOAD SWAP2 POP DUP1 DUP3 GT ISZERO PUSH2 0x4123 JUMPI PUSH1 0x0 DUP1 REVERT JUMPDEST POP PUSH2 0x4130 DUP10 DUP3 DUP11 ADD PUSH2 0x3E62 JUMP JUMPDEST SWAP4 POP POP PUSH1 0x80 DUP8 ADD CALLDATALOAD SWAP2 POP PUSH2 0x4146 PUSH1 0xA0 DUP9 ADD PUSH2 0x3DD4 JUMP JUMPDEST SWAP1 POP SWAP3 SWAP6 POP SWAP3 SWAP6 POP SWAP3 SWAP6 JUMP JUMPDEST PUSH1 0x0 DUP1 PUSH1 0x0 DUP1 PUSH1 0x0 PUSH1 0xA0 DUP7 DUP9 SUB SLT ISZERO PUSH2 0x416A JUMPI PUSH1 0x0 DUP1 REVERT JUMPDEST DUP6 CALLDATALOAD PUSH1 0x1 PUSH1 0x1 PUSH1 0x40 SHL SUB DUP1 DUP3 GT ISZERO PUSH2 0x4181 JUMPI PUSH1 0x0 DUP1 REVERT JUMPDEST PUSH2 0x418D DUP10 DUP4 DUP11 ADD PUSH2 0x3ED1 JUMP JUMPDEST SWAP7 POP PUSH1 0x20 DUP9 ADD CALLDATALOAD SWAP2 POP DUP1 DUP3 GT ISZERO PUSH2 0x41A3 JUMPI PUSH1 0x0 DUP1 REVERT JUMPDEST PUSH2 0x41AF DUP10 DUP4 DUP11 ADD PUSH2 0x3ED1 JUMP JUMPDEST SWAP6 POP PUSH1 0x40 DUP9 ADD CALLDATALOAD SWAP2 POP DUP1 DUP3 GT ISZERO PUSH2 0x41C5 JUMPI PUSH1 0x0 DUP1 REVERT JUMPDEST PUSH2 0x41D1 DUP10 DUP4 DUP11 ADD PUSH2 0x3F50 JUMP JUMPDEST SWAP5 POP PUSH1 0x60 DUP9 ADD CALLDATALOAD SWAP2 POP DUP1 DUP3 GT ISZERO PUSH2 0x41E7 JUMPI PUSH1 0x0 DUP1 REVERT JUMPDEST PUSH2 0x41F3 DUP10 DUP4 DUP11 ADD PUSH2 0x3ED1 JUMP JUMPDEST SWAP4 POP PUSH1 0x80 DUP9 ADD CALLDATALOAD SWAP2 POP DUP1 DUP3 GT ISZERO PUSH2 0x4209 JUMPI PUSH1 0x0 DUP1 REVERT JUMPDEST POP PUSH2 0x406F DUP9 DUP3 DUP10 ADD PUSH2 0x3ED1 JUMP JUMPDEST PUSH1 0x0 DUP1 PUSH1 0x40 DUP4 DUP6 SUB SLT ISZERO PUSH2 0x4229 JUMPI PUSH1 0x0 DUP1 REVERT JUMPDEST DUP3 CALLDATALOAD SWAP2 POP PUSH1 0x20 DUP4 ADD CALLDATALOAD DUP1 ISZERO ISZERO DUP2 EQ PUSH2 0x4240 JUMPI PUSH1 0x0 DUP1 REVERT JUMPDEST DUP1 SWAP2 POP POP SWAP3 POP SWAP3 SWAP1 POP JUMP JUMPDEST PUSH1 0x0 PUSH1 0x20 DUP3 DUP5 SUB SLT ISZERO PUSH2 0x425D JUMPI PUSH1 0x0 DUP1 REVERT JUMPDEST POP CALLDATALOAD SWAP2 SWAP1 POP JUMP JUMPDEST PUSH1 0x0 DUP2 MLOAD DUP1 DUP5 MSTORE PUSH1 0x0 JUMPDEST DUP2 DUP2 LT ISZERO PUSH2 0x428A JUMPI PUSH1 0x20 DUP2 DUP6 ADD DUP2 ADD MLOAD DUP7 DUP4 ADD DUP3 ADD MSTORE ADD PUSH2 0x426E JUMP JUMPDEST POP PUSH1 0x0 PUSH1 0x20 DUP3 DUP7 ADD ADD MSTORE PUSH1 0x20 PUSH1 0x1F NOT PUSH1 0x1F DUP4 ADD AND DUP6 ADD ADD SWAP2 POP POP SWAP3 SWAP2 POP POP JUMP JUMPDEST DUP9 DUP2 MSTORE PUSH1 0x1 PUSH1 0x1 PUSH1 0xA0 SHL SUB DUP9 AND PUSH1 0x20 DUP3 ADD MSTORE PUSH2 0x100 PUSH1 0x40 DUP3 ADD DUP2 SWAP1 MSTORE PUSH1 0x0 SWAP1 PUSH2 0x42D5 DUP4 DUP3 ADD DUP11 PUSH2 0x4264 JUMP JUMPDEST SWAP1 POP DUP8 PUSH1 0x60 DUP5 ADD MSTORE DUP3 DUP2 SUB PUSH1 0x80 DUP5 ADD MSTORE PUSH2 0x42EF DUP2 DUP9 PUSH2 0x4264 JUMP JUMPDEST SWAP1 POP DUP6 PUSH1 0xA0 DUP5 ADD MSTORE DUP3 DUP2 SUB PUSH1 0xC0 DUP5 ADD MSTORE PUSH2 0x4309 DUP2 DUP7 PUSH2 0x4264 JUMP JUMPDEST SWAP1 POP DUP3 DUP2 SUB PUSH1 0xE0 DUP5 ADD MSTORE PUSH2 0x431D DUP2 DUP6 PUSH2 0x4264 JUMP JUMPDEST SWAP12 SWAP11 POP POP POP POP POP POP POP POP POP POP POP JUMP JUMPDEST DUP9 DUP2 MSTORE PUSH1 0x1 PUSH1 0x1 PUSH1 0xA0 SHL SUB DUP9 DUP2 AND PUSH1 0x20 DUP4 ADD MSTORE DUP8 AND PUSH1 0x40 DUP3 ADD MSTORE PUSH2 0x100 PUSH1 0x60 DUP3 ADD DUP2 SWAP1 MSTORE PUSH1 0x0 SWAP1 PUSH2 0x435F DUP4 DUP3 ADD DUP10 PUSH2 0x4264 JUMP JUMPDEST SWAP1 POP DUP7 PUSH1 0x80 DUP5 ADD MSTORE DUP3 DUP2 SUB PUSH1 0xA0 DUP5 ADD MSTORE PUSH2 0x4379 DUP2 DUP8 PUSH2 0x4264 JUMP JUMPDEST SWAP1 POP DUP3 DUP2 SUB PUSH1 0xC0 DUP5 ADD MSTORE PUSH2 0x438D DUP2 DUP7 PUSH2 0x4264 JUMP JUMPDEST SWAP2 POP POP DUP3 PUSH1 0xE0 DUP4 ADD MSTORE SWAP10 SWAP9 POP POP POP POP POP POP POP POP POP JUMP JUMPDEST PUSH1 0x0 DUP2 MLOAD DUP1 DUP5 MSTORE PUSH1 0x20 DUP1 DUP6 ADD SWAP5 POP DUP1 DUP5 ADD PUSH1 0x0 JUMPDEST DUP4 DUP2 LT ISZERO PUSH2 0x43D3 JUMPI DUP2 MLOAD DUP8 MSTORE SWAP6 DUP3 ADD SWAP6 SWAP1 DUP3 ADD SWAP1 PUSH1 0x1 ADD PUSH2 0x43B7 JUMP JUMPDEST POP SWAP5 SWAP6 SWAP5 POP POP POP POP POP JUMP JUMPDEST PUSH1 0x0 PUSH2 0x120 DUP3 MLOAD DUP5 MSTORE PUSH1 0x20 DUP4 ADD MLOAD PUSH2 0x4401 PUSH1 0x20 DUP7 ADD DUP3 PUSH1 0x1 PUSH1 0x1 PUSH1 0xA0 SHL SUB AND SWAP1 MSTORE JUMP JUMPDEST POP PUSH1 0x40 DUP4 ADD MLOAD PUSH2 0x441C PUSH1 0x40 DUP7 ADD DUP3 PUSH1 0x1 PUSH1 0x1 PUSH1 0xA0 SHL SUB AND SWAP1 MSTORE JUMP JUMPDEST POP PUSH1 0x60 DUP4 ADD MLOAD DUP2 PUSH1 0x60 DUP7 ADD MSTORE PUSH2 0x4434 DUP3 DUP7 ADD DUP3 PUSH2 0x4264 JUMP JUMPDEST SWAP2 POP POP PUSH1 0x80 DUP4 ADD MLOAD DUP5 DUP3 SUB PUSH1 0x80 DUP7 ADD MSTORE PUSH2 0x444E DUP3 DUP3 PUSH2 0x43A3 JUMP JUMPDEST SWAP2 POP POP PUSH1 0xA0 DUP4 ADD MLOAD PUSH1 0xA0 DUP6 ADD MSTORE PUSH1 0xC0 DUP4 ADD MLOAD DUP5 DUP3 SUB PUSH1 0xC0 DUP7 ADD MSTORE PUSH2 0x4472 DUP3 DUP3 PUSH2 0x4264 JUMP JUMPDEST SWAP2 POP POP PUSH1 0xE0 DUP4 ADD MLOAD DUP5 DUP3 SUB PUSH1 0xE0 DUP7 ADD MSTORE PUSH2 0x448C DUP3 DUP3 PUSH2 0x4264 JUMP JUMPDEST PUSH2 0x100 SWAP5 DUP6 ADD MLOAD SWAP6 SWAP1 SWAP5 ADD SWAP5 SWAP1 SWAP5 MSTORE POP SWAP1 SWAP3 SWAP2 POP POP JUMP JUMPDEST PUSH1 0x0 PUSH1 0x20 DUP1 DUP4 ADD DUP2 DUP5 MSTORE DUP1 DUP6 MLOAD DUP1 DUP4 MSTORE PUSH1 0x40 DUP7 ADD SWAP2 POP PUSH1 0x40 DUP2 PUSH1 0x5 SHL DUP8 ADD ADD SWAP3 POP DUP4 DUP8 ADD PUSH1 0x0 JUMPDEST DUP3 DUP2 LT ISZERO PUSH2 0x44F8 JUMPI PUSH1 0x3F NOT DUP9 DUP7 SUB ADD DUP5 MSTORE PUSH2 0x44E6 DUP6 DUP4 MLOAD PUSH2 0x43DE JUMP JUMPDEST SWAP5 POP SWAP3 DUP6 ADD SWAP3 SWAP1 DUP6 ADD SWAP1 PUSH1 0x1 ADD PUSH2 0x44CA JUMP JUMPDEST POP SWAP3 SWAP8 SWAP7 POP POP POP POP POP POP POP JUMP JUMPDEST PUSH1 0x20 DUP2 MSTORE PUSH1 0x0 PUSH2 0x1E30 PUSH1 0x20 DUP4 ADD DUP5 PUSH2 0x43DE JUMP JUMPDEST PUSH1 0x0 DUP1 PUSH1 0x40 DUP4 DUP6 SUB SLT ISZERO PUSH2 0x452B JUMPI PUSH1 0x0 DUP1 REVERT JUMPDEST DUP3 CALLDATALOAD PUSH1 0x1 PUSH1 0x1 PUSH1 0x40 SHL SUB DUP1 DUP3 GT ISZERO PUSH2 0x4542 JUMPI PUSH1 0x0 DUP1 REVERT JUMPDEST PUSH2 0x454E DUP7 DUP4 DUP8 ADD PUSH2 0x3DF0 JUMP JUMPDEST SWAP4 POP PUSH1 0x20 DUP6 ADD CALLDATALOAD SWAP2 POP DUP1 DUP3 GT ISZERO PUSH2 0x4564 JUMPI PUSH1 0x0 DUP1 REVERT JUMPDEST POP PUSH2 0x4571 DUP6 DUP3 DUP7 ADD PUSH2 0x3DF0 JUMP JUMPDEST SWAP2 POP POP SWAP3 POP SWAP3 SWAP1 POP JUMP JUMPDEST DUP8 DUP2 MSTORE PUSH1 0x1 PUSH1 0x1 PUSH1 0xA0 SHL SUB DUP8 AND PUSH1 0x20 DUP3 ADD MSTORE PUSH1 0xE0 PUSH1 0x40 DUP3 ADD DUP2 SWAP1 MSTORE PUSH1 0x0 SWAP1 PUSH2 0x45A5 SWAP1 DUP4 ADD DUP9 PUSH2 0x4264 JUMP JUMPDEST DUP3 DUP2 SUB PUSH1 0x60 DUP5 ADD MSTORE PUSH2 0x45B7 DUP2 DUP9 PUSH2 0x4264 JUMP JUMPDEST SWAP1 POP DUP6 PUSH1 0x80 DUP5 ADD MSTORE DUP3 DUP2 SUB PUSH1 0xA0 DUP5 ADD MSTORE PUSH2 0x45D1 DUP2 DUP7 PUSH2 0x4264 JUMP JUMPDEST SWAP1 POP DUP3 DUP2 SUB PUSH1 0xC0 DUP5 ADD MSTORE PUSH2 0x45E5 DUP2 DUP6 PUSH2 0x4264 JUMP JUMPDEST SWAP11 SWAP10 POP POP POP POP POP POP POP POP POP POP JUMP JUMPDEST PUSH1 0x0 PUSH1 0x20 DUP3 DUP5 SUB SLT ISZERO PUSH2 0x4605 JUMPI PUSH1 0x0 DUP1 REVERT JUMPDEST DUP2 CALLDATALOAD PUSH1 0x1 PUSH1 0x1 PUSH1 0x40 SHL SUB DUP2 GT ISZERO PUSH2 0x461B JUMPI PUSH1 0x0 DUP1 REVERT JUMPDEST PUSH2 0x4627 DUP5 DUP3 DUP6 ADD PUSH2 0x3F50 JUMP JUMPDEST SWAP5 SWAP4 POP POP POP POP JUMP JUMPDEST PUSH1 0x0 PUSH1 0x20 DUP3 DUP5 SUB SLT ISZERO PUSH2 0x4641 JUMPI PUSH1 0x0 DUP1 REVERT JUMPDEST PUSH2 0x1E30 DUP3 PUSH2 0x3DD4 JUMP JUMPDEST PUSH1 0x0 PUSH1 0x20 DUP1 DUP4 ADD DUP2 DUP5 MSTORE DUP1 DUP6 MLOAD DUP1 DUP4 MSTORE PUSH1 0x40 SWAP3 POP DUP3 DUP7 ADD SWAP2 POP DUP3 DUP2 PUSH1 0x5 SHL DUP8 ADD ADD DUP5 DUP9 ADD PUSH1 0x0 JUMPDEST DUP4 DUP2 LT ISZERO PUSH2 0x4739 JUMPI PUSH1 0x3F NOT DUP10 DUP5 SUB ADD DUP6 MSTORE DUP2 MLOAD PUSH2 0x120 DUP2 MLOAD DUP6 MSTORE DUP9 DUP3 ADD MLOAD DUP2 DUP11 DUP8 ADD MSTORE PUSH2 0x46A0 DUP3 DUP8 ADD DUP3 PUSH2 0x4264 JUMP JUMPDEST SWAP2 POP POP DUP8 DUP3 ADD MLOAD DUP9 DUP7 ADD MSTORE PUSH1 0x60 DUP1 DUP4 ADD MLOAD DUP7 DUP4 SUB DUP3 DUP9 ADD MSTORE PUSH2 0x46C2 DUP4 DUP3 PUSH2 0x4264 JUMP JUMPDEST SWAP3 POP POP POP PUSH1 0x80 DUP1 DUP4 ADD MLOAD DUP7 DUP4 SUB DUP3 DUP9 ADD MSTORE PUSH2 0x46DD DUP4 DUP3 PUSH2 0x4264 JUMP JUMPDEST SWAP3 POP POP POP PUSH1 0xA0 DUP1 DUP4 ADD MLOAD DUP7 DUP4 SUB DUP3 DUP9 ADD MSTORE PUSH2 0x46F8 DUP4 DUP3 PUSH2 0x4264 JUMP JUMPDEST SWAP3 POP POP POP PUSH1 0xC0 DUP1 DUP4 ADD MLOAD PUSH2 0x470F DUP3 DUP9 ADD DUP3 ISZERO ISZERO SWAP1 MSTORE JUMP JUMPDEST POP POP PUSH1 0xE0 DUP3 DUP2 ADD MLOAD ISZERO ISZERO SWAP1 DUP7 ADD MSTORE PUSH2 0x100 SWAP2 DUP3 ADD MLOAD SWAP2 SWAP1 SWAP5 ADD MSTORE SWAP4 DUP7 ADD SWAP4 SWAP1 DUP7 ADD SWAP1 PUSH1 0x1 ADD PUSH2 0x4671 JUMP JUMPDEST POP SWAP1 SWAP9 SWAP8 POP POP POP POP POP POP POP POP JUMP JUMPDEST PUSH1 0x20 DUP1 DUP3 MSTORE DUP3 MLOAD DUP3 DUP3 ADD DUP2 SWAP1 MSTORE PUSH1 0x0 SWAP2 SWAP1 DUP5 DUP3 ADD SWAP1 PUSH1 0x40 DUP6 ADD SWAP1 DUP5 JUMPDEST DUP2 DUP2 LT ISZERO PUSH2 0x4788 JUMPI DUP4 MLOAD PUSH1 0x1 PUSH1 0x1 PUSH1 0xA0 SHL SUB AND DUP4 MSTORE SWAP3 DUP5 ADD SWAP3 SWAP2 DUP5 ADD SWAP2 PUSH1 0x1 ADD PUSH2 0x4763 JUMP JUMPDEST POP SWAP1 SWAP7 SWAP6 POP POP POP POP POP POP JUMP JUMPDEST PUSH1 0x0 PUSH1 0x20 DUP3 DUP5 SUB SLT ISZERO PUSH2 0x47A6 JUMPI PUSH1 0x0 DUP1 REVERT JUMPDEST DUP2 CALLDATALOAD PUSH1 0x1 PUSH1 0x1 PUSH1 0x40 SHL SUB DUP2 GT ISZERO PUSH2 0x47BC JUMPI PUSH1 0x0 DUP1 REVERT JUMPDEST PUSH2 0x4627 DUP5 DUP3 DUP6 ADD PUSH2 0x3DF0 JUMP JUMPDEST PUSH1 0x0 DUP1 PUSH1 0x40 DUP4 DUP6 SUB SLT ISZERO PUSH2 0x47DB JUMPI PUSH1 0x0 DUP1 REVERT JUMPDEST DUP3 CALLDATALOAD PUSH1 0x1 PUSH1 0x1 PUSH1 0x40 SHL SUB DUP1 DUP3 GT ISZERO PUSH2 0x47F2 JUMPI PUSH1 0x0 DUP1 REVERT JUMPDEST PUSH2 0x47FE DUP7 DUP4 DUP8 ADD PUSH2 0x3F50 JUMP JUMPDEST SWAP4 POP PUSH1 0x20 DUP6 ADD CALLDATALOAD SWAP2 POP DUP1 DUP3 GT ISZERO PUSH2 0x4814 JUMPI PUSH1 0x0 DUP1 REVERT JUMPDEST POP PUSH2 0x4571 DUP6 DUP3 DUP7 ADD PUSH2 0x3F50 JUMP JUMPDEST PUSH1 0x0 PUSH2 0x120 DUP12 DUP4 MSTORE DUP1 PUSH1 0x20 DUP5 ADD MSTORE PUSH2 0x483B DUP2 DUP5 ADD DUP13 PUSH2 0x4264 JUMP JUMPDEST SWAP1 POP DUP10 PUSH1 0x40 DUP5 ADD MSTORE DUP3 DUP2 SUB PUSH1 0x60 DUP5 ADD MSTORE PUSH2 0x4855 DUP2 DUP11 PUSH2 0x4264 JUMP JUMPDEST SWAP1 POP DUP3 DUP2 SUB PUSH1 0x80 DUP5 ADD MSTORE PUSH2 0x4869 DUP2 DUP10 PUSH2 0x4264 JUMP JUMPDEST SWAP1 POP DUP3 DUP2 SUB PUSH1 0xA0 DUP5 ADD MSTORE PUSH2 0x487D DUP2 DUP9 PUSH2 0x4264 JUMP JUMPDEST SWAP6 ISZERO ISZERO PUSH1 0xC0 DUP5 ADD MSTORE POP POP SWAP2 ISZERO ISZERO PUSH1 0xE0 DUP4 ADD MSTORE PUSH2 0x100 SWAP1 SWAP2 ADD MSTORE SWAP7 SWAP6 POP POP POP POP POP POP JUMP JUMPDEST PUSH1 0x0 DUP1 PUSH1 0x0 DUP1 PUSH1 0x0 DUP1 PUSH1 0xC0 DUP8 DUP10 SUB SLT ISZERO PUSH2 0x48B9 JUMPI PUSH1 0x0 DUP1 REVERT JUMPDEST DUP7 CALLDATALOAD PUSH1 0x1 PUSH1 0x1 PUSH1 0x40 SHL SUB DUP1 DUP3 GT ISZERO PUSH2 0x48D0 JUMPI PUSH1 0x0 DUP1 REVERT JUMPDEST PUSH2 0x48DC DUP11 DUP4 DUP12 ADD PUSH2 0x3DF0 JUMP JUMPDEST SWAP8 POP PUSH1 0x20 DUP10 ADD CALLDATALOAD SWAP2 POP DUP1 DUP3 GT ISZERO PUSH2 0x48F2 JUMPI PUSH1 0x0 DUP1 REVERT JUMPDEST PUSH2 0x48FE DUP11 DUP4 DUP12 ADD PUSH2 0x3ED1 JUMP JUMPDEST SWAP7 POP PUSH1 0x40 DUP10 ADD CALLDATALOAD SWAP2 POP DUP1 DUP3 GT ISZERO PUSH2 0x4914 JUMPI PUSH1 0x0 DUP1 REVERT JUMPDEST PUSH2 0x4920 DUP11 DUP4 DUP12 ADD PUSH2 0x3ED1 JUMP JUMPDEST SWAP6 POP PUSH1 0x60 DUP10 ADD CALLDATALOAD SWAP2 POP DUP1 DUP3 GT ISZERO PUSH2 0x4936 JUMPI PUSH1 0x0 DUP1 REVERT JUMPDEST PUSH2 0x4942 DUP11 DUP4 DUP12 ADD PUSH2 0x3F50 JUMP JUMPDEST SWAP5 POP PUSH1 0x80 DUP10 ADD CALLDATALOAD SWAP2 POP DUP1 DUP3 GT ISZERO PUSH2 0x4958 JUMPI PUSH1 0x0 DUP1 REVERT JUMPDEST PUSH2 0x4964 DUP11 DUP4 DUP12 ADD PUSH2 0x3ED1 JUMP JUMPDEST SWAP4 POP PUSH1 0xA0 DUP10 ADD CALLDATALOAD SWAP2 POP DUP1 DUP3 GT ISZERO PUSH2 0x497A JUMPI PUSH1 0x0 DUP1 REVERT JUMPDEST POP PUSH2 0x4987 DUP10 DUP3 DUP11 ADD PUSH2 0x3ED1 JUMP JUMPDEST SWAP2 POP POP SWAP3 SWAP6 POP SWAP3 SWAP6 POP SWAP3 SWAP6 JUMP JUMPDEST PUSH1 0x20 DUP1 DUP3 MSTORE PUSH1 0x15 SWAP1 DUP3 ADD MSTORE PUSH21 0x13DB9B1E4818DBDB5C185B9E4818D85B8818D85B1B PUSH1 0x5A SHL PUSH1 0x40 DUP3 ADD MSTORE PUSH1 0x60 ADD SWAP1 JUMP JUMPDEST PUSH1 0x20 DUP1 DUP3 MSTORE PUSH1 0x18 SWAP1 DUP3 ADD MSTORE PUSH32 0x4D69736D61746368656420696E707574206C656E677468730000000000000000 PUSH1 0x40 DUP3 ADD MSTORE PUSH1 0x60 ADD SWAP1 JUMP JUMPDEST PUSH4 0x4E487B71 PUSH1 0xE0 SHL PUSH1 0x0 MSTORE PUSH1 0x32 PUSH1 0x4 MSTORE PUSH1 0x24 PUSH1 0x0 REVERT JUMPDEST PUSH4 0x4E487B71 PUSH1 0xE0 SHL PUSH1 0x0 MSTORE PUSH1 0x11 PUSH1 0x4 MSTORE PUSH1 0x24 PUSH1 0x0 REVERT JUMPDEST DUP1 DUP3 ADD DUP1 DUP3 GT ISZERO PUSH2 0x4A39 JUMPI PUSH2 0x4A39 PUSH2 0x4A10 JUMP JUMPDEST SWAP3 SWAP2 POP POP JUMP JUMPDEST PUSH1 0x1 DUP2 DUP2 SHR SWAP1 DUP3 AND DUP1 PUSH2 0x4A53 JUMPI PUSH1 0x7F DUP3 AND SWAP2 POP JUMPDEST PUSH1 0x20 DUP3 LT DUP2 SUB PUSH2 0x4A73 JUMPI PUSH4 0x4E487B71 PUSH1 0xE0 SHL PUSH1 0x0 MSTORE PUSH1 0x22 PUSH1 0x4 MSTORE PUSH1 0x24 PUSH1 0x0 REVERT JUMPDEST POP SWAP2 SWAP1 POP JUMP JUMPDEST PUSH1 0x1F DUP3 GT ISZERO PUSH2 0x2122 JUMPI PUSH1 0x0 DUP2 DUP2 MSTORE PUSH1 0x20 DUP2 KECCAK256 PUSH1 0x1F DUP6 ADD PUSH1 0x5 SHR DUP2 ADD PUSH1 0x20 DUP7 LT ISZERO PUSH2 0x4AA0 JUMPI POP DUP1 JUMPDEST PUSH1 0x1F DUP6 ADD PUSH1 0x5 SHR DUP3 ADD SWAP2 POP JUMPDEST DUP2 DUP2 LT ISZERO PUSH2 0x92B JUMPI DUP3 DUP2 SSTORE PUSH1 0x1 ADD PUSH2 0x4AAC JUMP JUMPDEST DUP2 MLOAD PUSH1 0x1 PUSH1 0x1 PUSH1 0x40 SHL SUB DUP2 GT ISZERO PUSH2 0x4AD8 JUMPI PUSH2 0x4AD8 PUSH2 0x3D6B JUMP JUMPDEST PUSH2 0x4AEC DUP2 PUSH2 0x4AE6 DUP5 SLOAD PUSH2 0x4A3F JUMP JUMPDEST DUP5 PUSH2 0x4A79 JUMP JUMPDEST PUSH1 0x20 DUP1 PUSH1 0x1F DUP4 GT PUSH1 0x1 DUP2 EQ PUSH2 0x4B21 JUMPI PUSH1 0x0 DUP5 ISZERO PUSH2 0x4B09 JUMPI POP DUP6 DUP4 ADD MLOAD JUMPDEST PUSH1 0x0 NOT PUSH1 0x3 DUP7 SWAP1 SHL SHR NOT AND PUSH1 0x1 DUP6 SWAP1 SHL OR DUP6 SSTORE PUSH2 0x92B JUMP JUMPDEST PUSH1 0x0 DUP6 DUP2 MSTORE PUSH1 0x20 DUP2 KECCAK256 PUSH1 0x1F NOT DUP7 AND SWAP2 JUMPDEST DUP3 DUP2 LT ISZERO PUSH2 0x4B50 JUMPI DUP9 DUP7 ADD MLOAD DUP3 SSTORE SWAP5 DUP5 ADD SWAP5 PUSH1 0x1 SWAP1 SWAP2 ADD SWAP1 DUP5 ADD PUSH2 0x4B31 JUMP JUMPDEST POP DUP6 DUP3 LT ISZERO PUSH2 0x4B6E JUMPI DUP8 DUP6 ADD MLOAD PUSH1 0x0 NOT PUSH1 0x3 DUP9 SWAP1 SHL PUSH1 0xF8 AND SHR NOT AND DUP2 SSTORE JUMPDEST POP POP POP POP POP PUSH1 0x1 SWAP1 DUP2 SHL ADD SWAP1 SSTORE POP JUMP JUMPDEST DUP2 DUP2 SUB DUP2 DUP2 GT ISZERO PUSH2 0x4A39 JUMPI PUSH2 0x4A39 PUSH2 0x4A10 JUMP JUMPDEST PUSH1 0x80 DUP2 MSTORE PUSH1 0x0 PUSH2 0x4BA4 PUSH1 0x80 DUP4 ADD DUP8 PUSH2 0x4264 JUMP JUMPDEST DUP3 DUP2 SUB PUSH1 0x20 DUP5 ADD MSTORE PUSH2 0x4BB6 DUP2 DUP8 PUSH2 0x4264 JUMP JUMPDEST SWAP1 POP DUP3 DUP2 SUB PUSH1 0x40 DUP5 ADD MSTORE PUSH2 0x4BCA DUP2 DUP7 PUSH2 0x4264 JUMP JUMPDEST SWAP2 POP POP DUP3 PUSH1 0x60 DUP4 ADD MSTORE SWAP6 SWAP5 POP POP POP POP POP JUMP JUMPDEST PUSH1 0x0 PUSH1 0x1 DUP3 ADD PUSH2 0x4BEE JUMPI PUSH2 0x4BEE PUSH2 0x4A10 JUMP JUMPDEST POP PUSH1 0x1 ADD SWAP1 JUMP JUMPDEST PUSH1 0x20 DUP1 DUP3 MSTORE PUSH1 0x26 SWAP1 DUP3 ADD MSTORE PUSH32 0x43616E646964617465207769746820676976656E20494420646F6573206E6F74 PUSH1 0x40 DUP3 ADD MSTORE PUSH6 0x8195E1A5CDD PUSH1 0xD2 SHL PUSH1 0x60 DUP3 ADD MSTORE PUSH1 0x80 ADD SWAP1 JUMP JUMPDEST PUSH1 0xA0 DUP2 MSTORE PUSH1 0x0 PUSH2 0x4C4E PUSH1 0xA0 DUP4 ADD DUP9 PUSH2 0x4264 JUMP JUMPDEST DUP3 DUP2 SUB PUSH1 0x20 DUP5 ADD MSTORE PUSH2 0x4C60 DUP2 DUP9 PUSH2 0x4264 JUMP JUMPDEST SWAP1 POP DUP3 DUP2 SUB PUSH1 0x40 DUP5 ADD MSTORE PUSH2 0x4C74 DUP2 DUP8 PUSH2 0x4264 JUMP JUMPDEST PUSH1 0x60 DUP5 ADD SWAP6 SWAP1 SWAP6 MSTORE POP POP PUSH1 0x1 PUSH1 0x1 PUSH1 0xA0 SHL SUB SWAP2 SWAP1 SWAP2 AND PUSH1 0x80 SWAP1 SWAP2 ADD MSTORE SWAP4 SWAP3 POP POP POP JUMP JUMPDEST PUSH1 0xA0 DUP2 MSTORE PUSH1 0x0 PUSH2 0x4CAA PUSH1 0xA0 DUP4 ADD DUP9 PUSH2 0x4264 JUMP JUMPDEST DUP3 DUP2 SUB PUSH1 0x20 DUP5 ADD MSTORE PUSH2 0x4CBC DUP2 DUP9 PUSH2 0x4264 JUMP JUMPDEST SWAP1 POP DUP6 PUSH1 0x40 DUP5 ADD MSTORE DUP3 DUP2 SUB PUSH1 0x60 DUP5 ADD MSTORE PUSH2 0x4CD6 DUP2 DUP7 PUSH2 0x4264 JUMP JUMPDEST SWAP1 POP DUP3 DUP2 SUB PUSH1 0x80 DUP5 ADD MSTORE PUSH2 0x4CEA DUP2 DUP6 PUSH2 0x4264 JUMP JUMPDEST SWAP9 SWAP8 POP POP POP POP POP POP POP POP JUMP JUMPDEST PUSH1 0x20 DUP1 DUP3 MSTORE PUSH1 0x12 SWAP1 DUP3 ADD MSTORE PUSH18 0x125B9D985B1A590818DBDB5C185B9E481251 PUSH1 0x72 SHL PUSH1 0x40 DUP3 ADD MSTORE PUSH1 0x60 ADD SWAP1 JUMP JUMPDEST PUSH1 0x20 DUP1 DUP3 MSTORE PUSH1 0x14 SWAP1 DUP3 ADD MSTORE PUSH20 0x125B9D985B1A590818D85B991A59185D19481251 PUSH1 0x62 SHL PUSH1 0x40 DUP3 ADD MSTORE PUSH1 0x60 ADD SWAP1 JUMP JUMPDEST PUSH4 0x4E487B71 PUSH1 0xE0 SHL PUSH1 0x0 MSTORE PUSH1 0x31 PUSH1 0x4 MSTORE PUSH1 0x24 PUSH1 0x0 REVERT JUMPDEST PUSH1 0x20 DUP1 DUP3 MSTORE PUSH1 0x1F SWAP1 DUP3 ADD MSTORE PUSH32 0x4F6E6C79207665726966696572206F72206F776E65722063616E2063616C6C00 PUSH1 0x40 DUP3 ADD MSTORE PUSH1 0x60 ADD SWAP1 JUMP INVALID LOG2 PUSH5 0x6970667358 0x22 SLT KECCAK256 SLT ADDMOD DELEGATECALL 0xA8 0x26 CALLDATASIZE 0xCB SWAP13 PUSH21 0xF6E6A462A3DA220415767C920AC2233182BE2277A4 0xDC CALLDATACOPY PUSH5 0x736F6C6343 STOP ADDMOD ISZERO STOP CALLER "},"methodIdentifiers":{"addCandidates(address[],string[],string[],string[],uint256[])":"13a1c563","addCompanies(address[],string[],string[],uint256[],string[],string[])":"df2ba0de","addDocuments(string[],string[],uint256[],string[],string[])":"1e32f407","addVerifiers(address[])":"b5344257","candidateAddress(address)":"99e37a55","candidates(uint256)":"3477ee2e","companies(uint256)":"2813d19d","companyAddress(address)":"6dd08047","documents(uint256)":"c2ed2b05","editCandidate(uint256,string,string,string,uint256,address)":"1b280ea9","editCandidateCurrentCompany(uint256,address)":"1a203a31","getCandidate(uint256)":"35b8e820","getCandidatesByCompany(uint256)":"35af9742","getCompany(uint256)":"57d13917","getCompanyIdOfSender()":"b4d7e8df","getDocuments(uint256)":"6eb3b4e9","getDocumentsByCandidate(uint256)":"a2576089","getOwner()":"893d20e8","getVerifiers()":"a935e766","getZeroAddress()":"9483fbcb","maxVerifiers()":"78bda750","owner()":"8da5cb5b","removeCandidates(uint256[])":"eed18318","removeCompanies(uint256[])":"5990ce80","removeDocuments(uint256[],uint256[])":"bb3096aa","renounceOwnership()":"715018a6","replaceVerifiers(address[],address[])":"4dc95895","setMaxVerifiers(uint256)":"fc7435e1","transferOwnership(address)":"f2fde38b","verifiers(uint256)":"ac1eff68","verifyDocument(uint256,bool)":"24e96df6"}}}}}