{"src/contracts/Verification.sol":{"Verification":{"abi":[{"anonymous":false,"inputs":[{"indexed":true,"internalType":"uint256","name":"id","type":"uint256"},{"indexed":false,"internalType":"string","name":"name","type":"string"}],"name":"CandidateAdded","type":"event"},{"anonymous":false,"inputs":[{"indexed":true,"internalType":"uint256","name":"id","type":"uint256"}],"name":"CandidateVerified","type":"event"},{"anonymous":false,"inputs":[{"indexed":true,"internalType":"uint256","name":"id","type":"uint256"},{"indexed":true,"internalType":"address","name":"companyAddress","type":"address"},{"indexed":false,"internalType":"string","name":"name","type":"string"}],"name":"CompanyAdded","type":"event"},{"anonymous":false,"inputs":[{"indexed":true,"internalType":"uint256","name":"id","type":"uint256"}],"name":"CompanyVerified","type":"event"},{"anonymous":false,"inputs":[{"indexed":true,"internalType":"address","name":"previousOwner","type":"address"},{"indexed":true,"internalType":"address","name":"newOwner","type":"address"}],"name":"OwnershipTransferred","type":"event"},{"anonymous":false,"inputs":[{"indexed":true,"internalType":"address","name":"verifier","type":"address"}],"name":"VerifierAdded","type":"event"},{"anonymous":false,"inputs":[{"indexed":true,"internalType":"address","name":"verifier","type":"address"}],"name":"VerifierRemoved","type":"event"},{"anonymous":false,"inputs":[{"indexed":true,"internalType":"address","name":"oldVerifier","type":"address"},{"indexed":true,"internalType":"address","name":"newVerifier","type":"address"}],"name":"VerifierReplaced","type":"event"},{"inputs":[{"internalType":"uint256[]","name":"_ids","type":"uint256[]"},{"internalType":"string[]","name":"_names","type":"string[]"}],"name":"addCandidates","outputs":[],"stateMutability":"nonpayable","type":"function"},{"inputs":[{"internalType":"uint256[]","name":"_ids","type":"uint256[]"},{"internalType":"address[]","name":"_addresses","type":"address[]"},{"internalType":"string[]","name":"_names","type":"string[]"}],"name":"addCompanies","outputs":[],"stateMutability":"nonpayable","type":"function"},{"inputs":[{"internalType":"address[]","name":"_verifiers","type":"address[]"}],"name":"addVerifiers","outputs":[],"stateMutability":"nonpayable","type":"function"},{"inputs":[{"internalType":"uint256","name":"","type":"uint256"}],"name":"candidates","outputs":[{"internalType":"string","name":"name","type":"string"},{"internalType":"uint256","name":"Id","type":"uint256"},{"internalType":"bool","name":"isVerified","type":"bool"}],"stateMutability":"view","type":"function"},{"inputs":[{"internalType":"uint256","name":"","type":"uint256"}],"name":"companies","outputs":[{"internalType":"address","name":"address_","type":"address"},{"internalType":"string","name":"name","type":"string"},{"internalType":"uint256","name":"Id","type":"uint256"},{"internalType":"bool","name":"isVerifiedCompany","type":"bool"}],"stateMutability":"view","type":"function"},{"inputs":[{"internalType":"uint256","name":"_id","type":"uint256"}],"name":"getCandidate","outputs":[{"internalType":"string","name":"","type":"string"},{"internalType":"uint256","name":"","type":"uint256"},{"internalType":"bool","name":"","type":"bool"}],"stateMutability":"view","type":"function"},{"inputs":[{"internalType":"uint256","name":"_id","type":"uint256"}],"name":"getCompany","outputs":[{"internalType":"address","name":"","type":"address"},{"internalType":"string","name":"","type":"string"},{"internalType":"uint256","name":"","type":"uint256"}],"stateMutability":"view","type":"function"},{"inputs":[],"name":"getVerifiers","outputs":[{"internalType":"address[]","name":"","type":"address[]"}],"stateMutability":"view","type":"function"},{"inputs":[],"name":"maxVerifiers","outputs":[{"internalType":"uint256","name":"","type":"uint256"}],"stateMutability":"view","type":"function"},{"inputs":[],"name":"numCompanies","outputs":[{"internalType":"uint256","name":"","type":"uint256"}],"stateMutability":"view","type":"function"},{"inputs":[],"name":"owner","outputs":[{"internalType":"address","name":"","type":"address"}],"stateMutability":"view","type":"function"},{"inputs":[{"internalType":"address[]","name":"_verifiers","type":"address[]"}],"name":"removeVerifiers","outputs":[],"stateMutability":"nonpayable","type":"function"},{"inputs":[],"name":"renounceOwnership","outputs":[],"stateMutability":"nonpayable","type":"function"},{"inputs":[{"internalType":"address[]","name":"_oldVerifiers","type":"address[]"},{"internalType":"address[]","name":"_newVerifiers","type":"address[]"}],"name":"replaceVerifiers","outputs":[],"stateMutability":"nonpayable","type":"function"},{"inputs":[{"internalType":"uint256","name":"_maxVerifiers","type":"uint256"}],"name":"setMaxVerifiers","outputs":[],"stateMutability":"nonpayable","type":"function"},{"inputs":[{"internalType":"address","name":"newOwner","type":"address"}],"name":"transferOwnership","outputs":[],"stateMutability":"nonpayable","type":"function"},{"inputs":[{"internalType":"uint256","name":"","type":"uint256"}],"name":"verifiers","outputs":[{"internalType":"address","name":"","type":"address"}],"stateMutability":"view","type":"function"},{"inputs":[{"internalType":"uint256[]","name":"_ids","type":"uint256[]"}],"name":"verifyCandidates","outputs":[],"stateMutability":"nonpayable","type":"function"},{"inputs":[{"internalType":"uint256[]","name":"_ids","type":"uint256[]"}],"name":"verifyCompanies","outputs":[],"stateMutability":"nonpayable","type":"function"}],"evm":{"bytecode":{"linkReferences":{},"object":"6080604052600a60025534801561001557600080fd5b5061001f33610024565b610074565b600080546001600160a01b038381166001600160a01b0319831681178455604051919092169283917f8be0079c531659141344cd1fd0a4f28419497f9722a3daafe3b4186f6b6457e09190a35050565b611c1e806100836000396000f3fe608060405234801561001057600080fd5b50600436106101215760003560e01c806378bda750116100ad578063a935e76611610071578063a935e7661461026a578063ac1eff681461027f578063b534425714610292578063f2fde38b146102a5578063fc7435e1146102b857600080fd5b806378bda750146101ff57806386ae47f014610216578063874fdf2d146102295780638da5cb5b14610232578063950bf50d1461025757600080fd5b80634dc95895116100f45780634dc958951461019c578063540faf24146101af57806357d13917146101c257806358b8a88c146101e4578063715018a6146101f757600080fd5b8063249f77b1146101265780632813d19d1461013b5780633477ee2e1461016757806335b8e82014610189575b600080fd5b610139610134366004611699565b6102cb565b005b61014e610149366004611721565b6104db565b60405161015e9493929190611780565b60405180910390f35b61017a610175366004611721565b61059a565b60405161015e939291906117bc565b61017a610197366004611721565b610648565b6101396101aa3660046117e6565b610733565b6101396101bd36600461184a565b6108d7565b6101d56101d0366004611721565b610b29565b60405161015e939291906118a4565b6101396101f23660046118d8565b610c24565b610139610dd3565b61020860025481565b60405190815260200161015e565b610139610224366004611915565b610de7565b61020860035481565b6000546001600160a01b03165b6040516001600160a01b03909116815260200161015e565b6101396102653660046118d8565b610fb7565b6102726110b1565b60405161015e919061194a565b61023f61028d366004611721565b611113565b6101396102a0366004611915565b61113d565b6101396102b3366004611997565b6112ce565b6101396102c6366004611721565b611347565b6102d36113b7565b815183511480156102e5575080518351145b61030a5760405162461bcd60e51b8152600401610301906119b9565b60405180910390fd5b60005b83518110156104d557600084828151811061032a5761032a6119f0565b602002602001015190506000848381518110610348576103486119f0565b602002602001015190506000848481518110610366576103666119f0565b6020026020010151905060046000848152602001908152602001600020600201546000146103e25760405162461bcd60e51b8152602060048201526024808201527f436f6d70616e79207769746820676976656e20494420616c72656164792065786044820152636973747360e01b6064820152608401610301565b604080516080810182526001600160a01b03848116825260208083018581528385018890526000606085018190528881526004909252939020825181546001600160a01b0319169216919091178155915190919060018201906104459082611a8e565b50604082015160028201556060909101516003918201805460ff1916911515919091179055805490600061047883611b64565b9190505550816001600160a01b0316837fdc1e73d079344d1e85a82a0b8774d8c7d9c194542b8061b78db50b702833428b836040516104b79190611b7d565b60405180910390a350505080806104cd90611b64565b91505061030d565b50505050565b600460205260009081526040902080546001820180546001600160a01b03909216929161050790611a06565b80601f016020809104026020016040519081016040528092919081815260200182805461053390611a06565b80156105805780601f1061055557610100808354040283529160200191610580565b820191906000526020600020905b81548152906001019060200180831161056357829003601f168201915b50505050600283015460039093015491929160ff16905084565b6005602052600090815260409020805481906105b590611a06565b80601f01602080910402602001604051908101604052809291908181526020018280546105e190611a06565b801561062e5780601f106106035761010080835404028352916020019161062e565b820191906000526020600020905b81548152906001019060200180831161061157829003601f168201915b50505050600183015460029093015491929160ff16905083565b606060008060006005600086815260200190815260200160002060405180606001604052908160008201805461067d90611a06565b80601f01602080910402602001604051908101604052809291908181526020018280546106a990611a06565b80156106f65780601f106106cb576101008083540402835291602001916106f6565b820191906000526020600020905b8154815290600101906020018083116106d957829003601f168201915b5050509183525050600182015460208083019190915260029092015460ff1615156040918201528251918301519201519097919650945092505050565b61073b6113b7565b805182511461075c5760405162461bcd60e51b8152600401610301906119b9565b60005b82518110156108d257600083828151811061077c5761077c6119f0565b60200260200101519050600083838151811061079a5761079a6119f0565b6020026020010151905060006001600160a01b0316826001600160a01b0316036107d65760405162461bcd60e51b815260040161030190611b90565b6001600160a01b0381166107fc5760405162461bcd60e51b815260040161030190611b90565b60005b6001548110156108bc57826001600160a01b031660018281548110610826576108266119f0565b6000918252602090912001546001600160a01b0316036108aa578160018281548110610854576108546119f0565b6000918252602082200180546001600160a01b0319166001600160a01b03938416179055604051848316928616917f50d741fe04ad9863c69d1406658f6ec7c4f5e48ec2faf966a36a3e47fc05c9d991a36108bc565b806108b481611b64565b9150506107ff565b50505080806108ca90611b64565b91505061075f565b505050565b600060015b600354811161093c5760008181526004602052604090206003015460ff16801561091c57506000818152600460205260409020546001600160a01b031633145b1561092a576001915061093c565b8061093481611b64565b9150506108dc565b50806109a25760405162461bcd60e51b815260206004820152602f60248201527f53656e646572206973206e6f742061207265676973746572656420616e64207660448201526e6572696669656420636f6d70616e7960881b6064820152608401610301565b81518351146109c35760405162461bcd60e51b8152600401610301906119b9565b60005b83518110156104d55760008482815181106109e3576109e36119f0565b602002602001015190506000848381518110610a0157610a016119f0565b602002602001015190506005600083815260200190815260200160002060010154600014610a805760405162461bcd60e51b815260206004820152602660248201527f43616e646964617465207769746820676976656e20494420616c72656164792060448201526565786973747360d01b6064820152608401610301565b604080516060810182528281526020808201859052600082840181905285815260059091529190912081518190610ab79082611a8e565b50602082015160018201556040918201516002909101805460ff19169115159190911790555182907fe83b2a43e7e82d975c8a0a6d2f045153c869e111136a34d1889ab7b598e396a390610b0c908490611b7d565b60405180910390a250508080610b2190611b64565b9150506109c6565b600081815260046020908152604080832081516080810190925280546001600160a01b03168252600181018054606094869485949093909291840191610b6e90611a06565b80601f0160208091040260200160405190810160405280929190818152602001828054610b9a90611a06565b8015610be75780601f10610bbc57610100808354040283529160200191610be7565b820191906000526020600020905b815481529060010190602001808311610bca57829003601f168201915b5050509183525050600282015460208083019190915260039092015460ff1615156040918201528251918301519201519097919650945092505050565b6000805b600154811015610c8457336001600160a01b031660018281548110610c4f57610c4f6119f0565b6000918252602090912001546001600160a01b031603610c725760019150610c84565b80610c7c81611b64565b915050610c28565b5080610cde5760405162461bcd60e51b815260206004820152602360248201527f53656e646572206973206e6f742061207265676973746572656420766572696660448201526234b2b960e91b6064820152608401610301565b60005b82518110156108d2576000838281518110610cfe57610cfe6119f0565b602002602001015190506005600082815260200190815260200160002060010154600003610d7d5760405162461bcd60e51b815260206004820152602660248201527f43616e646964617465207769746820676976656e20494420646f6573206e6f7460448201526508195e1a5cdd60d21b6064820152608401610301565b600081815260056020526040808220600201805460ff191660011790555182917f997c311b21ca9ada6475cc93d746592ebf05cb114894e4105380cd22dd4ff87a91a25080610dcb81611b64565b915050610ce1565b610ddb6113b7565b610de56000611411565b565b610def6113b7565b6000815111610e395760405162461bcd60e51b81526020600482015260166024820152754e6f2076657269666965727320746f2072656d6f766560501b6044820152606401610301565b60005b8151811015610fb3576000828281518110610e5957610e596119f0565b6020026020010151905060005b600154811015610f9e57816001600160a01b031660018281548110610e8d57610e8d6119f0565b6000918252602090912001546001600160a01b031603610f8c5760018054610eb6908290611bb9565b81548110610ec657610ec66119f0565b600091825260209091200154600180546001600160a01b039092169183908110610ef257610ef26119f0565b9060005260206000200160006101000a8154816001600160a01b0302191690836001600160a01b031602179055506001805480610f3157610f31611bd2565b600082815260208120820160001990810180546001600160a01b03191690559091019091556040516001600160a01b038416917f44a3cd4eb5cc5748f6169df057b1cb2ae4c383e87cd94663c430e095d4cba42491a2610f9e565b80610f9681611b64565b915050610e66565b50508080610fab90611b64565b915050610e3c565b5050565b610fbf6113b7565b60005b8151811015610fb3576000828281518110610fdf57610fdf6119f0565b60200260200101519050600460008281526020019081526020016000206002015460000361105b5760405162461bcd60e51b8152602060048201526024808201527f436f6d70616e79207769746820676976656e20494420646f6573206e6f7420656044820152631e1a5cdd60e21b6064820152608401610301565b600081815260046020526040808220600301805460ff191660011790555182917fb1d23f50e6f774ca910c932d482a8c9d0f0f32e7f4eaf8f9b590aca21cbd2c3791a250806110a981611b64565b915050610fc2565b6060600180548060200260200160405190810160405280929190818152602001828054801561110957602002820191906000526020600020905b81546001600160a01b031681526001909101906020018083116110eb575b5050505050905090565b6001818154811061112357600080fd5b6000918252602090912001546001600160a01b0316905081565b6111456113b7565b600081511161118c5760405162461bcd60e51b8152602060048201526013602482015272139bc81d995c9a599a595c9cc81d1bc8185919606a1b6044820152606401610301565b60005b8151811015610fb35760008282815181106111ac576111ac6119f0565b6020026020010151905060006001600160a01b0316816001600160a01b0316036111e85760405162461bcd60e51b815260040161030190611b90565b600254600154106112475760405162461bcd60e51b815260206004820152602360248201527f4d6178696d756d206e756d626572206f662076657269666965727320726561636044820152621a195960ea1b6064820152608401610301565b60018054808201825560009182527fb10e2d527612073b26eecdfd717e6a320cf44b4afac2b0732d9fcbe2b7fa0cf60180546001600160a01b0319166001600160a01b03841690811790915560405190917f6d05492139c5ea989514a5d2150c028041e5c087e2a39967f67dc7d2655adb8191a250806112c681611b64565b91505061118f565b6112d66113b7565b6001600160a01b03811661133b5760405162461bcd60e51b815260206004820152602660248201527f4f776e61626c653a206e6577206f776e657220697320746865207a65726f206160448201526564647265737360d01b6064820152608401610301565b61134481611411565b50565b61134f6113b7565b600081116113b25760405162461bcd60e51b815260206004820152602a60248201527f4d6178696d756d207665726966696572732073686f756c6420626520677265616044820152690746572207468616e20360b41b6064820152608401610301565b600255565b6000546001600160a01b03163314610de55760405162461bcd60e51b815260206004820181905260248201527f4f776e61626c653a2063616c6c6572206973206e6f7420746865206f776e65726044820152606401610301565b600080546001600160a01b038381166001600160a01b0319831681178455604051919092169283917f8be0079c531659141344cd1fd0a4f28419497f9722a3daafe3b4186f6b6457e09190a35050565b634e487b7160e01b600052604160045260246000fd5b604051601f8201601f1916810167ffffffffffffffff811182821017156114a0576114a0611461565b604052919050565b600067ffffffffffffffff8211156114c2576114c2611461565b5060051b60200190565b600082601f8301126114dd57600080fd5b813560206114f26114ed836114a8565b611477565b82815260059290921b8401810191818101908684111561151157600080fd5b8286015b8481101561152c5780358352918301918301611515565b509695505050505050565b80356001600160a01b038116811461154e57600080fd5b919050565b600082601f83011261156457600080fd5b813560206115746114ed836114a8565b82815260059290921b8401810191818101908684111561159357600080fd5b8286015b8481101561152c576115a881611537565b8352918301918301611597565b6000601f83818401126115c757600080fd5b823560206115d76114ed836114a8565b82815260059290921b850181019181810190878411156115f657600080fd5b8287015b8481101561168d57803567ffffffffffffffff8082111561161b5760008081fd5b818a0191508a603f8301126116305760008081fd5b8582013560408282111561164657611646611461565b611657828b01601f19168901611477565b92508183528c8183860101111561166e5760008081fd5b81818501898501375060009082018701528452509183019183016115fa565b50979650505050505050565b6000806000606084860312156116ae57600080fd5b833567ffffffffffffffff808211156116c657600080fd5b6116d2878388016114cc565b945060208601359150808211156116e857600080fd5b6116f487838801611553565b9350604086013591508082111561170a57600080fd5b50611717868287016115b5565b9150509250925092565b60006020828403121561173357600080fd5b5035919050565b6000815180845260005b8181101561176057602081850181015186830182015201611744565b506000602082860101526020601f19601f83011685010191505092915050565b6001600160a01b03851681526080602082018190526000906117a49083018661173a565b60408301949094525090151560609091015292915050565b6060815260006117cf606083018661173a565b602083019490945250901515604090910152919050565b600080604083850312156117f957600080fd5b823567ffffffffffffffff8082111561181157600080fd5b61181d86838701611553565b9350602085013591508082111561183357600080fd5b5061184085828601611553565b9150509250929050565b6000806040838503121561185d57600080fd5b823567ffffffffffffffff8082111561187557600080fd5b611881868387016114cc565b9350602085013591508082111561189757600080fd5b50611840858286016115b5565b6001600160a01b03841681526060602082018190526000906118c89083018561173a565b9050826040830152949350505050565b6000602082840312156118ea57600080fd5b813567ffffffffffffffff81111561190157600080fd5b61190d848285016114cc565b949350505050565b60006020828403121561192757600080fd5b813567ffffffffffffffff81111561193e57600080fd5b61190d84828501611553565b6020808252825182820181905260009190848201906040850190845b8181101561198b5783516001600160a01b031683529284019291840191600101611966565b50909695505050505050565b6000602082840312156119a957600080fd5b6119b282611537565b9392505050565b60208082526018908201527f4d69736d61746368656420696e707574206c656e677468730000000000000000604082015260600190565b634e487b7160e01b600052603260045260246000fd5b600181811c90821680611a1a57607f821691505b602082108103611a3a57634e487b7160e01b600052602260045260246000fd5b50919050565b601f8211156108d257600081815260208120601f850160051c81016020861015611a675750805b601f850160051c820191505b81811015611a8657828155600101611a73565b505050505050565b815167ffffffffffffffff811115611aa857611aa8611461565b611abc81611ab68454611a06565b84611a40565b602080601f831160018114611af15760008415611ad95750858301515b600019600386901b1c1916600185901b178555611a86565b600085815260208120601f198616915b82811015611b2057888601518255948401946001909101908401611b01565b5085821015611b3e5787850151600019600388901b60f8161c191681555b5050505050600190811b01905550565b634e487b7160e01b600052601160045260246000fd5b600060018201611b7657611b76611b4e565b5060010190565b6020815260006119b2602083018461173a565b6020808252600f908201526e496e76616c6964206164647265737360881b604082015260600190565b81810381811115611bcc57611bcc611b4e565b92915050565b634e487b7160e01b600052603160045260246000fdfea26469706673582212208a620351d761c44e1039bff0643d812824303de7b2e933f2a756680325fc5c8164736f6c63430008140033","opcodes":"PUSH1 0x80 PUSH1 0x40 MSTORE PUSH1 0xA PUSH1 0x2 SSTORE CALLVALUE DUP1 ISZERO PUSH2 0x15 JUMPI PUSH1 0x0 DUP1 REVERT JUMPDEST POP PUSH2 0x1F CALLER PUSH2 0x24 JUMP JUMPDEST PUSH2 0x74 JUMP JUMPDEST PUSH1 0x0 DUP1 SLOAD PUSH1 0x1 PUSH1 0x1 PUSH1 0xA0 SHL SUB DUP4 DUP2 AND PUSH1 0x1 PUSH1 0x1 PUSH1 0xA0 SHL SUB NOT DUP4 AND DUP2 OR DUP5 SSTORE PUSH1 0x40 MLOAD SWAP2 SWAP1 SWAP3 AND SWAP3 DUP4 SWAP2 PUSH32 0x8BE0079C531659141344CD1FD0A4F28419497F9722A3DAAFE3B4186F6B6457E0 SWAP2 SWAP1 LOG3 POP POP JUMP JUMPDEST PUSH2 0x1C1E DUP1 PUSH2 0x83 PUSH1 0x0 CODECOPY PUSH1 0x0 RETURN INVALID PUSH1 0x80 PUSH1 0x40 MSTORE CALLVALUE DUP1 ISZERO PUSH2 0x10 JUMPI PUSH1 0x0 DUP1 REVERT JUMPDEST POP PUSH1 0x4 CALLDATASIZE LT PUSH2 0x121 JUMPI PUSH1 0x0 CALLDATALOAD PUSH1 0xE0 SHR DUP1 PUSH4 0x78BDA750 GT PUSH2 0xAD JUMPI DUP1 PUSH4 0xA935E766 GT PUSH2 0x71 JUMPI DUP1 PUSH4 0xA935E766 EQ PUSH2 0x26A JUMPI DUP1 PUSH4 0xAC1EFF68 EQ PUSH2 0x27F JUMPI DUP1 PUSH4 0xB5344257 EQ PUSH2 0x292 JUMPI DUP1 PUSH4 0xF2FDE38B EQ PUSH2 0x2A5 JUMPI DUP1 PUSH4 0xFC7435E1 EQ PUSH2 0x2B8 JUMPI PUSH1 0x0 DUP1 REVERT JUMPDEST DUP1 PUSH4 0x78BDA750 EQ PUSH2 0x1FF JUMPI DUP1 PUSH4 0x86AE47F0 EQ PUSH2 0x216 JUMPI DUP1 PUSH4 0x874FDF2D EQ PUSH2 0x229 JUMPI DUP1 PUSH4 0x8DA5CB5B EQ PUSH2 0x232 JUMPI DUP1 PUSH4 0x950BF50D EQ PUSH2 0x257 JUMPI PUSH1 0x0 DUP1 REVERT JUMPDEST DUP1 PUSH4 0x4DC95895 GT PUSH2 0xF4 JUMPI DUP1 PUSH4 0x4DC95895 EQ PUSH2 0x19C JUMPI DUP1 PUSH4 0x540FAF24 EQ PUSH2 0x1AF JUMPI DUP1 PUSH4 0x57D13917 EQ PUSH2 0x1C2 JUMPI DUP1 PUSH4 0x58B8A88C EQ PUSH2 0x1E4 JUMPI DUP1 PUSH4 0x715018A6 EQ PUSH2 0x1F7 JUMPI PUSH1 0x0 DUP1 REVERT JUMPDEST DUP1 PUSH4 0x249F77B1 EQ PUSH2 0x126 JUMPI DUP1 PUSH4 0x2813D19D EQ PUSH2 0x13B JUMPI DUP1 PUSH4 0x3477EE2E EQ PUSH2 0x167 JUMPI DUP1 PUSH4 0x35B8E820 EQ PUSH2 0x189 JUMPI JUMPDEST PUSH1 0x0 DUP1 REVERT JUMPDEST PUSH2 0x139 PUSH2 0x134 CALLDATASIZE PUSH1 0x4 PUSH2 0x1699 JUMP JUMPDEST PUSH2 0x2CB JUMP JUMPDEST STOP JUMPDEST PUSH2 0x14E PUSH2 0x149 CALLDATASIZE PUSH1 0x4 PUSH2 0x1721 JUMP JUMPDEST PUSH2 0x4DB JUMP JUMPDEST PUSH1 0x40 MLOAD PUSH2 0x15E SWAP5 SWAP4 SWAP3 SWAP2 SWAP1 PUSH2 0x1780 JUMP JUMPDEST PUSH1 0x40 MLOAD DUP1 SWAP2 SUB SWAP1 RETURN JUMPDEST PUSH2 0x17A PUSH2 0x175 CALLDATASIZE PUSH1 0x4 PUSH2 0x1721 JUMP JUMPDEST PUSH2 0x59A JUMP JUMPDEST PUSH1 0x40 MLOAD PUSH2 0x15E SWAP4 SWAP3 SWAP2 SWAP1 PUSH2 0x17BC JUMP JUMPDEST PUSH2 0x17A PUSH2 0x197 CALLDATASIZE PUSH1 0x4 PUSH2 0x1721 JUMP JUMPDEST PUSH2 0x648 JUMP JUMPDEST PUSH2 0x139 PUSH2 0x1AA CALLDATASIZE PUSH1 0x4 PUSH2 0x17E6 JUMP JUMPDEST PUSH2 0x733 JUMP JUMPDEST PUSH2 0x139 PUSH2 0x1BD CALLDATASIZE PUSH1 0x4 PUSH2 0x184A JUMP JUMPDEST PUSH2 0x8D7 JUMP JUMPDEST PUSH2 0x1D5 PUSH2 0x1D0 CALLDATASIZE PUSH1 0x4 PUSH2 0x1721 JUMP JUMPDEST PUSH2 0xB29 JUMP JUMPDEST PUSH1 0x40 MLOAD PUSH2 0x15E SWAP4 SWAP3 SWAP2 SWAP1 PUSH2 0x18A4 JUMP JUMPDEST PUSH2 0x139 PUSH2 0x1F2 CALLDATASIZE PUSH1 0x4 PUSH2 0x18D8 JUMP JUMPDEST PUSH2 0xC24 JUMP JUMPDEST PUSH2 0x139 PUSH2 0xDD3 JUMP JUMPDEST PUSH2 0x208 PUSH1 0x2 SLOAD DUP2 JUMP JUMPDEST PUSH1 0x40 MLOAD SWAP1 DUP2 MSTORE PUSH1 0x20 ADD PUSH2 0x15E JUMP JUMPDEST PUSH2 0x139 PUSH2 0x224 CALLDATASIZE PUSH1 0x4 PUSH2 0x1915 JUMP JUMPDEST PUSH2 0xDE7 JUMP JUMPDEST PUSH2 0x208 PUSH1 0x3 SLOAD DUP2 JUMP JUMPDEST PUSH1 0x0 SLOAD PUSH1 0x1 PUSH1 0x1 PUSH1 0xA0 SHL SUB AND JUMPDEST PUSH1 0x40 MLOAD PUSH1 0x1 PUSH1 0x1 PUSH1 0xA0 SHL SUB SWAP1 SWAP2 AND DUP2 MSTORE PUSH1 0x20 ADD PUSH2 0x15E JUMP JUMPDEST PUSH2 0x139 PUSH2 0x265 CALLDATASIZE PUSH1 0x4 PUSH2 0x18D8 JUMP JUMPDEST PUSH2 0xFB7 JUMP JUMPDEST PUSH2 0x272 PUSH2 0x10B1 JUMP JUMPDEST PUSH1 0x40 MLOAD PUSH2 0x15E SWAP2 SWAP1 PUSH2 0x194A JUMP JUMPDEST PUSH2 0x23F PUSH2 0x28D CALLDATASIZE PUSH1 0x4 PUSH2 0x1721 JUMP JUMPDEST PUSH2 0x1113 JUMP JUMPDEST PUSH2 0x139 PUSH2 0x2A0 CALLDATASIZE PUSH1 0x4 PUSH2 0x1915 JUMP JUMPDEST PUSH2 0x113D JUMP JUMPDEST PUSH2 0x139 PUSH2 0x2B3 CALLDATASIZE PUSH1 0x4 PUSH2 0x1997 JUMP JUMPDEST PUSH2 0x12CE JUMP JUMPDEST PUSH2 0x139 PUSH2 0x2C6 CALLDATASIZE PUSH1 0x4 PUSH2 0x1721 JUMP JUMPDEST PUSH2 0x1347 JUMP JUMPDEST PUSH2 0x2D3 PUSH2 0x13B7 JUMP JUMPDEST DUP2 MLOAD DUP4 MLOAD EQ DUP1 ISZERO PUSH2 0x2E5 JUMPI POP DUP1 MLOAD DUP4 MLOAD EQ JUMPDEST PUSH2 0x30A JUMPI PUSH1 0x40 MLOAD PUSH3 0x461BCD PUSH1 0xE5 SHL DUP2 MSTORE PUSH1 0x4 ADD PUSH2 0x301 SWAP1 PUSH2 0x19B9 JUMP JUMPDEST PUSH1 0x40 MLOAD DUP1 SWAP2 SUB SWAP1 REVERT JUMPDEST PUSH1 0x0 JUMPDEST DUP4 MLOAD DUP2 LT ISZERO PUSH2 0x4D5 JUMPI PUSH1 0x0 DUP5 DUP3 DUP2 MLOAD DUP2 LT PUSH2 0x32A JUMPI PUSH2 0x32A PUSH2 0x19F0 JUMP JUMPDEST PUSH1 0x20 MUL PUSH1 0x20 ADD ADD MLOAD SWAP1 POP PUSH1 0x0 DUP5 DUP4 DUP2 MLOAD DUP2 LT PUSH2 0x348 JUMPI PUSH2 0x348 PUSH2 0x19F0 JUMP JUMPDEST PUSH1 0x20 MUL PUSH1 0x20 ADD ADD MLOAD SWAP1 POP PUSH1 0x0 DUP5 DUP5 DUP2 MLOAD DUP2 LT PUSH2 0x366 JUMPI PUSH2 0x366 PUSH2 0x19F0 JUMP JUMPDEST PUSH1 0x20 MUL PUSH1 0x20 ADD ADD MLOAD SWAP1 POP PUSH1 0x4 PUSH1 0x0 DUP5 DUP2 MSTORE PUSH1 0x20 ADD SWAP1 DUP2 MSTORE PUSH1 0x20 ADD PUSH1 0x0 KECCAK256 PUSH1 0x2 ADD SLOAD PUSH1 0x0 EQ PUSH2 0x3E2 JUMPI PUSH1 0x40 MLOAD PUSH3 0x461BCD PUSH1 0xE5 SHL DUP2 MSTORE PUSH1 0x20 PUSH1 0x4 DUP3 ADD MSTORE PUSH1 0x24 DUP1 DUP3 ADD MSTORE PUSH32 0x436F6D70616E79207769746820676976656E20494420616C7265616479206578 PUSH1 0x44 DUP3 ADD MSTORE PUSH4 0x69737473 PUSH1 0xE0 SHL PUSH1 0x64 DUP3 ADD MSTORE PUSH1 0x84 ADD PUSH2 0x301 JUMP JUMPDEST PUSH1 0x40 DUP1 MLOAD PUSH1 0x80 DUP2 ADD DUP3 MSTORE PUSH1 0x1 PUSH1 0x1 PUSH1 0xA0 SHL SUB DUP5 DUP2 AND DUP3 MSTORE PUSH1 0x20 DUP1 DUP4 ADD DUP6 DUP2 MSTORE DUP4 DUP6 ADD DUP9 SWAP1 MSTORE PUSH1 0x0 PUSH1 0x60 DUP6 ADD DUP2 SWAP1 MSTORE DUP9 DUP2 MSTORE PUSH1 0x4 SWAP1 SWAP3 MSTORE SWAP4 SWAP1 KECCAK256 DUP3 MLOAD DUP2 SLOAD PUSH1 0x1 PUSH1 0x1 PUSH1 0xA0 SHL SUB NOT AND SWAP3 AND SWAP2 SWAP1 SWAP2 OR DUP2 SSTORE SWAP2 MLOAD SWAP1 SWAP2 SWAP1 PUSH1 0x1 DUP3 ADD SWAP1 PUSH2 0x445 SWAP1 DUP3 PUSH2 0x1A8E JUMP JUMPDEST POP PUSH1 0x40 DUP3 ADD MLOAD PUSH1 0x2 DUP3 ADD SSTORE PUSH1 0x60 SWAP1 SWAP2 ADD MLOAD PUSH1 0x3 SWAP2 DUP3 ADD DUP1 SLOAD PUSH1 0xFF NOT AND SWAP2 ISZERO ISZERO SWAP2 SWAP1 SWAP2 OR SWAP1 SSTORE DUP1 SLOAD SWAP1 PUSH1 0x0 PUSH2 0x478 DUP4 PUSH2 0x1B64 JUMP JUMPDEST SWAP2 SWAP1 POP SSTORE POP DUP2 PUSH1 0x1 PUSH1 0x1 PUSH1 0xA0 SHL SUB AND DUP4 PUSH32 0xDC1E73D079344D1E85A82A0B8774D8C7D9C194542B8061B78DB50B702833428B DUP4 PUSH1 0x40 MLOAD PUSH2 0x4B7 SWAP2 SWAP1 PUSH2 0x1B7D JUMP JUMPDEST PUSH1 0x40 MLOAD DUP1 SWAP2 SUB SWAP1 LOG3 POP POP POP DUP1 DUP1 PUSH2 0x4CD SWAP1 PUSH2 0x1B64 JUMP JUMPDEST SWAP2 POP POP PUSH2 0x30D JUMP JUMPDEST POP POP POP POP JUMP JUMPDEST PUSH1 0x4 PUSH1 0x20 MSTORE PUSH1 0x0 SWAP1 DUP2 MSTORE PUSH1 0x40 SWAP1 KECCAK256 DUP1 SLOAD PUSH1 0x1 DUP3 ADD DUP1 SLOAD PUSH1 0x1 PUSH1 0x1 PUSH1 0xA0 SHL SUB SWAP1 SWAP3 AND SWAP3 SWAP2 PUSH2 0x507 SWAP1 PUSH2 0x1A06 JUMP JUMPDEST DUP1 PUSH1 0x1F ADD PUSH1 0x20 DUP1 SWAP2 DIV MUL PUSH1 0x20 ADD PUSH1 0x40 MLOAD SWAP1 DUP2 ADD PUSH1 0x40 MSTORE DUP1 SWAP3 SWAP2 SWAP1 DUP2 DUP2 MSTORE PUSH1 0x20 ADD DUP3 DUP1 SLOAD PUSH2 0x533 SWAP1 PUSH2 0x1A06 JUMP JUMPDEST DUP1 ISZERO PUSH2 0x580 JUMPI DUP1 PUSH1 0x1F LT PUSH2 0x555 JUMPI PUSH2 0x100 DUP1 DUP4 SLOAD DIV MUL DUP4 MSTORE SWAP2 PUSH1 0x20 ADD SWAP2 PUSH2 0x580 JUMP JUMPDEST DUP3 ADD SWAP2 SWAP1 PUSH1 0x0 MSTORE PUSH1 0x20 PUSH1 0x0 KECCAK256 SWAP1 JUMPDEST DUP2 SLOAD DUP2 MSTORE SWAP1 PUSH1 0x1 ADD SWAP1 PUSH1 0x20 ADD DUP1 DUP4 GT PUSH2 0x563 JUMPI DUP3 SWAP1 SUB PUSH1 0x1F AND DUP3 ADD SWAP2 JUMPDEST POP POP POP POP PUSH1 0x2 DUP4 ADD SLOAD PUSH1 0x3 SWAP1 SWAP4 ADD SLOAD SWAP2 SWAP3 SWAP2 PUSH1 0xFF AND SWAP1 POP DUP5 JUMP JUMPDEST PUSH1 0x5 PUSH1 0x20 MSTORE PUSH1 0x0 SWAP1 DUP2 MSTORE PUSH1 0x40 SWAP1 KECCAK256 DUP1 SLOAD DUP2 SWAP1 PUSH2 0x5B5 SWAP1 PUSH2 0x1A06 JUMP JUMPDEST DUP1 PUSH1 0x1F ADD PUSH1 0x20 DUP1 SWAP2 DIV MUL PUSH1 0x20 ADD PUSH1 0x40 MLOAD SWAP1 DUP2 ADD PUSH1 0x40 MSTORE DUP1 SWAP3 SWAP2 SWAP1 DUP2 DUP2 MSTORE PUSH1 0x20 ADD DUP3 DUP1 SLOAD PUSH2 0x5E1 SWAP1 PUSH2 0x1A06 JUMP JUMPDEST DUP1 ISZERO PUSH2 0x62E JUMPI DUP1 PUSH1 0x1F LT PUSH2 0x603 JUMPI PUSH2 0x100 DUP1 DUP4 SLOAD DIV MUL DUP4 MSTORE SWAP2 PUSH1 0x20 ADD SWAP2 PUSH2 0x62E JUMP JUMPDEST DUP3 ADD SWAP2 SWAP1 PUSH1 0x0 MSTORE PUSH1 0x20 PUSH1 0x0 KECCAK256 SWAP1 JUMPDEST DUP2 SLOAD DUP2 MSTORE SWAP1 PUSH1 0x1 ADD SWAP1 PUSH1 0x20 ADD DUP1 DUP4 GT PUSH2 0x611 JUMPI DUP3 SWAP1 SUB PUSH1 0x1F AND DUP3 ADD SWAP2 JUMPDEST POP POP POP POP PUSH1 0x1 DUP4 ADD SLOAD PUSH1 0x2 SWAP1 SWAP4 ADD SLOAD SWAP2 SWAP3 SWAP2 PUSH1 0xFF AND SWAP1 POP DUP4 JUMP JUMPDEST PUSH1 0x60 PUSH1 0x0 DUP1 PUSH1 0x0 PUSH1 0x5 PUSH1 0x0 DUP7 DUP2 MSTORE PUSH1 0x20 ADD SWAP1 DUP2 MSTORE PUSH1 0x20 ADD PUSH1 0x0 KECCAK256 PUSH1 0x40 MLOAD DUP1 PUSH1 0x60 ADD PUSH1 0x40 MSTORE SWAP1 DUP2 PUSH1 0x0 DUP3 ADD DUP1 SLOAD PUSH2 0x67D SWAP1 PUSH2 0x1A06 JUMP JUMPDEST DUP1 PUSH1 0x1F ADD PUSH1 0x20 DUP1 SWAP2 DIV MUL PUSH1 0x20 ADD PUSH1 0x40 MLOAD SWAP1 DUP2 ADD PUSH1 0x40 MSTORE DUP1 SWAP3 SWAP2 SWAP1 DUP2 DUP2 MSTORE PUSH1 0x20 ADD DUP3 DUP1 SLOAD PUSH2 0x6A9 SWAP1 PUSH2 0x1A06 JUMP JUMPDEST DUP1 ISZERO PUSH2 0x6F6 JUMPI DUP1 PUSH1 0x1F LT PUSH2 0x6CB JUMPI PUSH2 0x100 DUP1 DUP4 SLOAD DIV MUL DUP4 MSTORE SWAP2 PUSH1 0x20 ADD SWAP2 PUSH2 0x6F6 JUMP JUMPDEST DUP3 ADD SWAP2 SWAP1 PUSH1 0x0 MSTORE PUSH1 0x20 PUSH1 0x0 KECCAK256 SWAP1 JUMPDEST DUP2 SLOAD DUP2 MSTORE SWAP1 PUSH1 0x1 ADD SWAP1 PUSH1 0x20 ADD DUP1 DUP4 GT PUSH2 0x6D9 JUMPI DUP3 SWAP1 SUB PUSH1 0x1F AND DUP3 ADD SWAP2 JUMPDEST POP POP POP SWAP2 DUP4 MSTORE POP POP PUSH1 0x1 DUP3 ADD SLOAD PUSH1 0x20 DUP1 DUP4 ADD SWAP2 SWAP1 SWAP2 MSTORE PUSH1 0x2 SWAP1 SWAP3 ADD SLOAD PUSH1 0xFF AND ISZERO ISZERO PUSH1 0x40 SWAP2 DUP3 ADD MSTORE DUP3 MLOAD SWAP2 DUP4 ADD MLOAD SWAP3 ADD MLOAD SWAP1 SWAP8 SWAP2 SWAP7 POP SWAP5 POP SWAP3 POP POP POP JUMP JUMPDEST PUSH2 0x73B PUSH2 0x13B7 JUMP JUMPDEST DUP1 MLOAD DUP3 MLOAD EQ PUSH2 0x75C JUMPI PUSH1 0x40 MLOAD PUSH3 0x461BCD PUSH1 0xE5 SHL DUP2 MSTORE PUSH1 0x4 ADD PUSH2 0x301 SWAP1 PUSH2 0x19B9 JUMP JUMPDEST PUSH1 0x0 JUMPDEST DUP3 MLOAD DUP2 LT ISZERO PUSH2 0x8D2 JUMPI PUSH1 0x0 DUP4 DUP3 DUP2 MLOAD DUP2 LT PUSH2 0x77C JUMPI PUSH2 0x77C PUSH2 0x19F0 JUMP JUMPDEST PUSH1 0x20 MUL PUSH1 0x20 ADD ADD MLOAD SWAP1 POP PUSH1 0x0 DUP4 DUP4 DUP2 MLOAD DUP2 LT PUSH2 0x79A JUMPI PUSH2 0x79A PUSH2 0x19F0 JUMP JUMPDEST PUSH1 0x20 MUL PUSH1 0x20 ADD ADD MLOAD SWAP1 POP PUSH1 0x0 PUSH1 0x1 PUSH1 0x1 PUSH1 0xA0 SHL SUB AND DUP3 PUSH1 0x1 PUSH1 0x1 PUSH1 0xA0 SHL SUB AND SUB PUSH2 0x7D6 JUMPI PUSH1 0x40 MLOAD PUSH3 0x461BCD PUSH1 0xE5 SHL DUP2 MSTORE PUSH1 0x4 ADD PUSH2 0x301 SWAP1 PUSH2 0x1B90 JUMP JUMPDEST PUSH1 0x1 PUSH1 0x1 PUSH1 0xA0 SHL SUB DUP2 AND PUSH2 0x7FC JUMPI PUSH1 0x40 MLOAD PUSH3 0x461BCD PUSH1 0xE5 SHL DUP2 MSTORE PUSH1 0x4 ADD PUSH2 0x301 SWAP1 PUSH2 0x1B90 JUMP JUMPDEST PUSH1 0x0 JUMPDEST PUSH1 0x1 SLOAD DUP2 LT ISZERO PUSH2 0x8BC JUMPI DUP3 PUSH1 0x1 PUSH1 0x1 PUSH1 0xA0 SHL SUB AND PUSH1 0x1 DUP3 DUP2 SLOAD DUP2 LT PUSH2 0x826 JUMPI PUSH2 0x826 PUSH2 0x19F0 JUMP JUMPDEST PUSH1 0x0 SWAP2 DUP3 MSTORE PUSH1 0x20 SWAP1 SWAP2 KECCAK256 ADD SLOAD PUSH1 0x1 PUSH1 0x1 PUSH1 0xA0 SHL SUB AND SUB PUSH2 0x8AA JUMPI DUP2 PUSH1 0x1 DUP3 DUP2 SLOAD DUP2 LT PUSH2 0x854 JUMPI PUSH2 0x854 PUSH2 0x19F0 JUMP JUMPDEST PUSH1 0x0 SWAP2 DUP3 MSTORE PUSH1 0x20 DUP3 KECCAK256 ADD DUP1 SLOAD PUSH1 0x1 PUSH1 0x1 PUSH1 0xA0 SHL SUB NOT AND PUSH1 0x1 PUSH1 0x1 PUSH1 0xA0 SHL SUB SWAP4 DUP5 AND OR SWAP1 SSTORE PUSH1 0x40 MLOAD DUP5 DUP4 AND SWAP3 DUP7 AND SWAP2 PUSH32 0x50D741FE04AD9863C69D1406658F6EC7C4F5E48EC2FAF966A36A3E47FC05C9D9 SWAP2 LOG3 PUSH2 0x8BC JUMP JUMPDEST DUP1 PUSH2 0x8B4 DUP2 PUSH2 0x1B64 JUMP JUMPDEST SWAP2 POP POP PUSH2 0x7FF JUMP JUMPDEST POP POP POP DUP1 DUP1 PUSH2 0x8CA SWAP1 PUSH2 0x1B64 JUMP JUMPDEST SWAP2 POP POP PUSH2 0x75F JUMP JUMPDEST POP POP POP JUMP JUMPDEST PUSH1 0x0 PUSH1 0x1 JUMPDEST PUSH1 0x3 SLOAD DUP2 GT PUSH2 0x93C JUMPI PUSH1 0x0 DUP2 DUP2 MSTORE PUSH1 0x4 PUSH1 0x20 MSTORE PUSH1 0x40 SWAP1 KECCAK256 PUSH1 0x3 ADD SLOAD PUSH1 0xFF AND DUP1 ISZERO PUSH2 0x91C JUMPI POP PUSH1 0x0 DUP2 DUP2 MSTORE PUSH1 0x4 PUSH1 0x20 MSTORE PUSH1 0x40 SWAP1 KECCAK256 SLOAD PUSH1 0x1 PUSH1 0x1 PUSH1 0xA0 SHL SUB AND CALLER EQ JUMPDEST ISZERO PUSH2 0x92A JUMPI PUSH1 0x1 SWAP2 POP PUSH2 0x93C JUMP JUMPDEST DUP1 PUSH2 0x934 DUP2 PUSH2 0x1B64 JUMP JUMPDEST SWAP2 POP POP PUSH2 0x8DC JUMP JUMPDEST POP DUP1 PUSH2 0x9A2 JUMPI PUSH1 0x40 MLOAD PUSH3 0x461BCD PUSH1 0xE5 SHL DUP2 MSTORE PUSH1 0x20 PUSH1 0x4 DUP3 ADD MSTORE PUSH1 0x2F PUSH1 0x24 DUP3 ADD MSTORE PUSH32 0x53656E646572206973206E6F742061207265676973746572656420616E642076 PUSH1 0x44 DUP3 ADD MSTORE PUSH15 0x6572696669656420636F6D70616E79 PUSH1 0x88 SHL PUSH1 0x64 DUP3 ADD MSTORE PUSH1 0x84 ADD PUSH2 0x301 JUMP JUMPDEST DUP2 MLOAD DUP4 MLOAD EQ PUSH2 0x9C3 JUMPI PUSH1 0x40 MLOAD PUSH3 0x461BCD PUSH1 0xE5 SHL DUP2 MSTORE PUSH1 0x4 ADD PUSH2 0x301 SWAP1 PUSH2 0x19B9 JUMP JUMPDEST PUSH1 0x0 JUMPDEST DUP4 MLOAD DUP2 LT ISZERO PUSH2 0x4D5 JUMPI PUSH1 0x0 DUP5 DUP3 DUP2 MLOAD DUP2 LT PUSH2 0x9E3 JUMPI PUSH2 0x9E3 PUSH2 0x19F0 JUMP JUMPDEST PUSH1 0x20 MUL PUSH1 0x20 ADD ADD MLOAD SWAP1 POP PUSH1 0x0 DUP5 DUP4 DUP2 MLOAD DUP2 LT PUSH2 0xA01 JUMPI PUSH2 0xA01 PUSH2 0x19F0 JUMP JUMPDEST PUSH1 0x20 MUL PUSH1 0x20 ADD ADD MLOAD SWAP1 POP PUSH1 0x5 PUSH1 0x0 DUP4 DUP2 MSTORE PUSH1 0x20 ADD SWAP1 DUP2 MSTORE PUSH1 0x20 ADD PUSH1 0x0 KECCAK256 PUSH1 0x1 ADD SLOAD PUSH1 0x0 EQ PUSH2 0xA80 JUMPI PUSH1 0x40 MLOAD PUSH3 0x461BCD PUSH1 0xE5 SHL DUP2 MSTORE PUSH1 0x20 PUSH1 0x4 DUP3 ADD MSTORE PUSH1 0x26 PUSH1 0x24 DUP3 ADD MSTORE PUSH32 0x43616E646964617465207769746820676976656E20494420616C726561647920 PUSH1 0x44 DUP3 ADD MSTORE PUSH6 0x657869737473 PUSH1 0xD0 SHL PUSH1 0x64 DUP3 ADD MSTORE PUSH1 0x84 ADD PUSH2 0x301 JUMP JUMPDEST PUSH1 0x40 DUP1 MLOAD PUSH1 0x60 DUP2 ADD DUP3 MSTORE DUP3 DUP2 MSTORE PUSH1 0x20 DUP1 DUP3 ADD DUP6 SWAP1 MSTORE PUSH1 0x0 DUP3 DUP5 ADD DUP2 SWAP1 MSTORE DUP6 DUP2 MSTORE PUSH1 0x5 SWAP1 SWAP2 MSTORE SWAP2 SWAP1 SWAP2 KECCAK256 DUP2 MLOAD DUP2 SWAP1 PUSH2 0xAB7 SWAP1 DUP3 PUSH2 0x1A8E JUMP JUMPDEST POP PUSH1 0x20 DUP3 ADD MLOAD PUSH1 0x1 DUP3 ADD SSTORE PUSH1 0x40 SWAP2 DUP3 ADD MLOAD PUSH1 0x2 SWAP1 SWAP2 ADD DUP1 SLOAD PUSH1 0xFF NOT AND SWAP2 ISZERO ISZERO SWAP2 SWAP1 SWAP2 OR SWAP1 SSTORE MLOAD DUP3 SWAP1 PUSH32 0xE83B2A43E7E82D975C8A0A6D2F045153C869E111136A34D1889AB7B598E396A3 SWAP1 PUSH2 0xB0C SWAP1 DUP5 SWAP1 PUSH2 0x1B7D JUMP JUMPDEST PUSH1 0x40 MLOAD DUP1 SWAP2 SUB SWAP1 LOG2 POP POP DUP1 DUP1 PUSH2 0xB21 SWAP1 PUSH2 0x1B64 JUMP JUMPDEST SWAP2 POP POP PUSH2 0x9C6 JUMP JUMPDEST PUSH1 0x0 DUP2 DUP2 MSTORE PUSH1 0x4 PUSH1 0x20 SWAP1 DUP2 MSTORE PUSH1 0x40 DUP1 DUP4 KECCAK256 DUP2 MLOAD PUSH1 0x80 DUP2 ADD SWAP1 SWAP3 MSTORE DUP1 SLOAD PUSH1 0x1 PUSH1 0x1 PUSH1 0xA0 SHL SUB AND DUP3 MSTORE PUSH1 0x1 DUP2 ADD DUP1 SLOAD PUSH1 0x60 SWAP5 DUP7 SWAP5 DUP6 SWAP5 SWAP1 SWAP4 SWAP1 SWAP3 SWAP2 DUP5 ADD SWAP2 PUSH2 0xB6E SWAP1 PUSH2 0x1A06 JUMP JUMPDEST DUP1 PUSH1 0x1F ADD PUSH1 0x20 DUP1 SWAP2 DIV MUL PUSH1 0x20 ADD PUSH1 0x40 MLOAD SWAP1 DUP2 ADD PUSH1 0x40 MSTORE DUP1 SWAP3 SWAP2 SWAP1 DUP2 DUP2 MSTORE PUSH1 0x20 ADD DUP3 DUP1 SLOAD PUSH2 0xB9A SWAP1 PUSH2 0x1A06 JUMP JUMPDEST DUP1 ISZERO PUSH2 0xBE7 JUMPI DUP1 PUSH1 0x1F LT PUSH2 0xBBC JUMPI PUSH2 0x100 DUP1 DUP4 SLOAD DIV MUL DUP4 MSTORE SWAP2 PUSH1 0x20 ADD SWAP2 PUSH2 0xBE7 JUMP JUMPDEST DUP3 ADD SWAP2 SWAP1 PUSH1 0x0 MSTORE PUSH1 0x20 PUSH1 0x0 KECCAK256 SWAP1 JUMPDEST DUP2 SLOAD DUP2 MSTORE SWAP1 PUSH1 0x1 ADD SWAP1 PUSH1 0x20 ADD DUP1 DUP4 GT PUSH2 0xBCA JUMPI DUP3 SWAP1 SUB PUSH1 0x1F AND DUP3 ADD SWAP2 JUMPDEST POP POP POP SWAP2 DUP4 MSTORE POP POP PUSH1 0x2 DUP3 ADD SLOAD PUSH1 0x20 DUP1 DUP4 ADD SWAP2 SWAP1 SWAP2 MSTORE PUSH1 0x3 SWAP1 SWAP3 ADD SLOAD PUSH1 0xFF AND ISZERO ISZERO PUSH1 0x40 SWAP2 DUP3 ADD MSTORE DUP3 MLOAD SWAP2 DUP4 ADD MLOAD SWAP3 ADD MLOAD SWAP1 SWAP8 SWAP2 SWAP7 POP SWAP5 POP SWAP3 POP POP POP JUMP JUMPDEST PUSH1 0x0 DUP1 JUMPDEST PUSH1 0x1 SLOAD DUP2 LT ISZERO PUSH2 0xC84 JUMPI CALLER PUSH1 0x1 PUSH1 0x1 PUSH1 0xA0 SHL SUB AND PUSH1 0x1 DUP3 DUP2 SLOAD DUP2 LT PUSH2 0xC4F JUMPI PUSH2 0xC4F PUSH2 0x19F0 JUMP JUMPDEST PUSH1 0x0 SWAP2 DUP3 MSTORE PUSH1 0x20 SWAP1 SWAP2 KECCAK256 ADD SLOAD PUSH1 0x1 PUSH1 0x1 PUSH1 0xA0 SHL SUB AND SUB PUSH2 0xC72 JUMPI PUSH1 0x1 SWAP2 POP PUSH2 0xC84 JUMP JUMPDEST DUP1 PUSH2 0xC7C DUP2 PUSH2 0x1B64 JUMP JUMPDEST SWAP2 POP POP PUSH2 0xC28 JUMP JUMPDEST POP DUP1 PUSH2 0xCDE JUMPI PUSH1 0x40 MLOAD PUSH3 0x461BCD PUSH1 0xE5 SHL DUP2 MSTORE PUSH1 0x20 PUSH1 0x4 DUP3 ADD MSTORE PUSH1 0x23 PUSH1 0x24 DUP3 ADD MSTORE PUSH32 0x53656E646572206973206E6F7420612072656769737465726564207665726966 PUSH1 0x44 DUP3 ADD MSTORE PUSH3 0x34B2B9 PUSH1 0xE9 SHL PUSH1 0x64 DUP3 ADD MSTORE PUSH1 0x84 ADD PUSH2 0x301 JUMP JUMPDEST PUSH1 0x0 JUMPDEST DUP3 MLOAD DUP2 LT ISZERO PUSH2 0x8D2 JUMPI PUSH1 0x0 DUP4 DUP3 DUP2 MLOAD DUP2 LT PUSH2 0xCFE JUMPI PUSH2 0xCFE PUSH2 0x19F0 JUMP JUMPDEST PUSH1 0x20 MUL PUSH1 0x20 ADD ADD MLOAD SWAP1 POP PUSH1 0x5 PUSH1 0x0 DUP3 DUP2 MSTORE PUSH1 0x20 ADD SWAP1 DUP2 MSTORE PUSH1 0x20 ADD PUSH1 0x0 KECCAK256 PUSH1 0x1 ADD SLOAD PUSH1 0x0 SUB PUSH2 0xD7D JUMPI PUSH1 0x40 MLOAD PUSH3 0x461BCD PUSH1 0xE5 SHL DUP2 MSTORE PUSH1 0x20 PUSH1 0x4 DUP3 ADD MSTORE PUSH1 0x26 PUSH1 0x24 DUP3 ADD MSTORE PUSH32 0x43616E646964617465207769746820676976656E20494420646F6573206E6F74 PUSH1 0x44 DUP3 ADD MSTORE PUSH6 0x8195E1A5CDD PUSH1 0xD2 SHL PUSH1 0x64 DUP3 ADD MSTORE PUSH1 0x84 ADD PUSH2 0x301 JUMP JUMPDEST PUSH1 0x0 DUP2 DUP2 MSTORE PUSH1 0x5 PUSH1 0x20 MSTORE PUSH1 0x40 DUP1 DUP3 KECCAK256 PUSH1 0x2 ADD DUP1 SLOAD PUSH1 0xFF NOT AND PUSH1 0x1 OR SWAP1 SSTORE MLOAD DUP3 SWAP2 PUSH32 0x997C311B21CA9ADA6475CC93D746592EBF05CB114894E4105380CD22DD4FF87A SWAP2 LOG2 POP DUP1 PUSH2 0xDCB DUP2 PUSH2 0x1B64 JUMP JUMPDEST SWAP2 POP POP PUSH2 0xCE1 JUMP JUMPDEST PUSH2 0xDDB PUSH2 0x13B7 JUMP JUMPDEST PUSH2 0xDE5 PUSH1 0x0 PUSH2 0x1411 JUMP JUMPDEST JUMP JUMPDEST PUSH2 0xDEF PUSH2 0x13B7 JUMP JUMPDEST PUSH1 0x0 DUP2 MLOAD GT PUSH2 0xE39 JUMPI PUSH1 0x40 MLOAD PUSH3 0x461BCD PUSH1 0xE5 SHL DUP2 MSTORE PUSH1 0x20 PUSH1 0x4 DUP3 ADD MSTORE PUSH1 0x16 PUSH1 0x24 DUP3 ADD MSTORE PUSH22 0x4E6F2076657269666965727320746F2072656D6F7665 PUSH1 0x50 SHL PUSH1 0x44 DUP3 ADD MSTORE PUSH1 0x64 ADD PUSH2 0x301 JUMP JUMPDEST PUSH1 0x0 JUMPDEST DUP2 MLOAD DUP2 LT ISZERO PUSH2 0xFB3 JUMPI PUSH1 0x0 DUP3 DUP3 DUP2 MLOAD DUP2 LT PUSH2 0xE59 JUMPI PUSH2 0xE59 PUSH2 0x19F0 JUMP JUMPDEST PUSH1 0x20 MUL PUSH1 0x20 ADD ADD MLOAD SWAP1 POP PUSH1 0x0 JUMPDEST PUSH1 0x1 SLOAD DUP2 LT ISZERO PUSH2 0xF9E JUMPI DUP2 PUSH1 0x1 PUSH1 0x1 PUSH1 0xA0 SHL SUB AND PUSH1 0x1 DUP3 DUP2 SLOAD DUP2 LT PUSH2 0xE8D JUMPI PUSH2 0xE8D PUSH2 0x19F0 JUMP JUMPDEST PUSH1 0x0 SWAP2 DUP3 MSTORE PUSH1 0x20 SWAP1 SWAP2 KECCAK256 ADD SLOAD PUSH1 0x1 PUSH1 0x1 PUSH1 0xA0 SHL SUB AND SUB PUSH2 0xF8C JUMPI PUSH1 0x1 DUP1 SLOAD PUSH2 0xEB6 SWAP1 DUP3 SWAP1 PUSH2 0x1BB9 JUMP JUMPDEST DUP2 SLOAD DUP2 LT PUSH2 0xEC6 JUMPI PUSH2 0xEC6 PUSH2 0x19F0 JUMP JUMPDEST PUSH1 0x0 SWAP2 DUP3 MSTORE PUSH1 0x20 SWAP1 SWAP2 KECCAK256 ADD SLOAD PUSH1 0x1 DUP1 SLOAD PUSH1 0x1 PUSH1 0x1 PUSH1 0xA0 SHL SUB SWAP1 SWAP3 AND SWAP2 DUP4 SWAP1 DUP2 LT PUSH2 0xEF2 JUMPI PUSH2 0xEF2 PUSH2 0x19F0 JUMP JUMPDEST SWAP1 PUSH1 0x0 MSTORE PUSH1 0x20 PUSH1 0x0 KECCAK256 ADD PUSH1 0x0 PUSH2 0x100 EXP DUP2 SLOAD DUP2 PUSH1 0x1 PUSH1 0x1 PUSH1 0xA0 SHL SUB MUL NOT AND SWAP1 DUP4 PUSH1 0x1 PUSH1 0x1 PUSH1 0xA0 SHL SUB AND MUL OR SWAP1 SSTORE POP PUSH1 0x1 DUP1 SLOAD DUP1 PUSH2 0xF31 JUMPI PUSH2 0xF31 PUSH2 0x1BD2 JUMP JUMPDEST PUSH1 0x0 DUP3 DUP2 MSTORE PUSH1 0x20 DUP2 KECCAK256 DUP3 ADD PUSH1 0x0 NOT SWAP1 DUP2 ADD DUP1 SLOAD PUSH1 0x1 PUSH1 0x1 PUSH1 0xA0 SHL SUB NOT AND SWAP1 SSTORE SWAP1 SWAP2 ADD SWAP1 SWAP2 SSTORE PUSH1 0x40 MLOAD PUSH1 0x1 PUSH1 0x1 PUSH1 0xA0 SHL SUB DUP5 AND SWAP2 PUSH32 0x44A3CD4EB5CC5748F6169DF057B1CB2AE4C383E87CD94663C430E095D4CBA424 SWAP2 LOG2 PUSH2 0xF9E JUMP JUMPDEST DUP1 PUSH2 0xF96 DUP2 PUSH2 0x1B64 JUMP JUMPDEST SWAP2 POP POP PUSH2 0xE66 JUMP JUMPDEST POP POP DUP1 DUP1 PUSH2 0xFAB SWAP1 PUSH2 0x1B64 JUMP JUMPDEST SWAP2 POP POP PUSH2 0xE3C JUMP JUMPDEST POP POP JUMP JUMPDEST PUSH2 0xFBF PUSH2 0x13B7 JUMP JUMPDEST PUSH1 0x0 JUMPDEST DUP2 MLOAD DUP2 LT ISZERO PUSH2 0xFB3 JUMPI PUSH1 0x0 DUP3 DUP3 DUP2 MLOAD DUP2 LT PUSH2 0xFDF JUMPI PUSH2 0xFDF PUSH2 0x19F0 JUMP JUMPDEST PUSH1 0x20 MUL PUSH1 0x20 ADD ADD MLOAD SWAP1 POP PUSH1 0x4 PUSH1 0x0 DUP3 DUP2 MSTORE PUSH1 0x20 ADD SWAP1 DUP2 MSTORE PUSH1 0x20 ADD PUSH1 0x0 KECCAK256 PUSH1 0x2 ADD SLOAD PUSH1 0x0 SUB PUSH2 0x105B JUMPI PUSH1 0x40 MLOAD PUSH3 0x461BCD PUSH1 0xE5 SHL DUP2 MSTORE PUSH1 0x20 PUSH1 0x4 DUP3 ADD MSTORE PUSH1 0x24 DUP1 DUP3 ADD MSTORE PUSH32 0x436F6D70616E79207769746820676976656E20494420646F6573206E6F742065 PUSH1 0x44 DUP3 ADD MSTORE PUSH4 0x1E1A5CDD PUSH1 0xE2 SHL PUSH1 0x64 DUP3 ADD MSTORE PUSH1 0x84 ADD PUSH2 0x301 JUMP JUMPDEST PUSH1 0x0 DUP2 DUP2 MSTORE PUSH1 0x4 PUSH1 0x20 MSTORE PUSH1 0x40 DUP1 DUP3 KECCAK256 PUSH1 0x3 ADD DUP1 SLOAD PUSH1 0xFF NOT AND PUSH1 0x1 OR SWAP1 SSTORE MLOAD DUP3 SWAP2 PUSH32 0xB1D23F50E6F774CA910C932D482A8C9D0F0F32E7F4EAF8F9B590ACA21CBD2C37 SWAP2 LOG2 POP DUP1 PUSH2 0x10A9 DUP2 PUSH2 0x1B64 JUMP JUMPDEST SWAP2 POP POP PUSH2 0xFC2 JUMP JUMPDEST PUSH1 0x60 PUSH1 0x1 DUP1 SLOAD DUP1 PUSH1 0x20 MUL PUSH1 0x20 ADD PUSH1 0x40 MLOAD SWAP1 DUP2 ADD PUSH1 0x40 MSTORE DUP1 SWAP3 SWAP2 SWAP1 DUP2 DUP2 MSTORE PUSH1 0x20 ADD DUP3 DUP1 SLOAD DUP1 ISZERO PUSH2 0x1109 JUMPI PUSH1 0x20 MUL DUP3 ADD SWAP2 SWAP1 PUSH1 0x0 MSTORE PUSH1 0x20 PUSH1 0x0 KECCAK256 SWAP1 JUMPDEST DUP2 SLOAD PUSH1 0x1 PUSH1 0x1 PUSH1 0xA0 SHL SUB AND DUP2 MSTORE PUSH1 0x1 SWAP1 SWAP2 ADD SWAP1 PUSH1 0x20 ADD DUP1 DUP4 GT PUSH2 0x10EB JUMPI JUMPDEST POP POP POP POP POP SWAP1 POP SWAP1 JUMP JUMPDEST PUSH1 0x1 DUP2 DUP2 SLOAD DUP2 LT PUSH2 0x1123 JUMPI PUSH1 0x0 DUP1 REVERT JUMPDEST PUSH1 0x0 SWAP2 DUP3 MSTORE PUSH1 0x20 SWAP1 SWAP2 KECCAK256 ADD SLOAD PUSH1 0x1 PUSH1 0x1 PUSH1 0xA0 SHL SUB AND SWAP1 POP DUP2 JUMP JUMPDEST PUSH2 0x1145 PUSH2 0x13B7 JUMP JUMPDEST PUSH1 0x0 DUP2 MLOAD GT PUSH2 0x118C JUMPI PUSH1 0x40 MLOAD PUSH3 0x461BCD PUSH1 0xE5 SHL DUP2 MSTORE PUSH1 0x20 PUSH1 0x4 DUP3 ADD MSTORE PUSH1 0x13 PUSH1 0x24 DUP3 ADD MSTORE PUSH19 0x139BC81D995C9A599A595C9CC81D1BC8185919 PUSH1 0x6A SHL PUSH1 0x44 DUP3 ADD MSTORE PUSH1 0x64 ADD PUSH2 0x301 JUMP JUMPDEST PUSH1 0x0 JUMPDEST DUP2 MLOAD DUP2 LT ISZERO PUSH2 0xFB3 JUMPI PUSH1 0x0 DUP3 DUP3 DUP2 MLOAD DUP2 LT PUSH2 0x11AC JUMPI PUSH2 0x11AC PUSH2 0x19F0 JUMP JUMPDEST PUSH1 0x20 MUL PUSH1 0x20 ADD ADD MLOAD SWAP1 POP PUSH1 0x0 PUSH1 0x1 PUSH1 0x1 PUSH1 0xA0 SHL SUB AND DUP2 PUSH1 0x1 PUSH1 0x1 PUSH1 0xA0 SHL SUB AND SUB PUSH2 0x11E8 JUMPI PUSH1 0x40 MLOAD PUSH3 0x461BCD PUSH1 0xE5 SHL DUP2 MSTORE PUSH1 0x4 ADD PUSH2 0x301 SWAP1 PUSH2 0x1B90 JUMP JUMPDEST PUSH1 0x2 SLOAD PUSH1 0x1 SLOAD LT PUSH2 0x1247 JUMPI PUSH1 0x40 MLOAD PUSH3 0x461BCD PUSH1 0xE5 SHL DUP2 MSTORE PUSH1 0x20 PUSH1 0x4 DUP3 ADD MSTORE PUSH1 0x23 PUSH1 0x24 DUP3 ADD MSTORE PUSH32 0x4D6178696D756D206E756D626572206F66207665726966696572732072656163 PUSH1 0x44 DUP3 ADD MSTORE PUSH3 0x1A1959 PUSH1 0xEA SHL PUSH1 0x64 DUP3 ADD MSTORE PUSH1 0x84 ADD PUSH2 0x301 JUMP JUMPDEST PUSH1 0x1 DUP1 SLOAD DUP1 DUP3 ADD DUP3 SSTORE PUSH1 0x0 SWAP2 DUP3 MSTORE PUSH32 0xB10E2D527612073B26EECDFD717E6A320CF44B4AFAC2B0732D9FCBE2B7FA0CF6 ADD DUP1 SLOAD PUSH1 0x1 PUSH1 0x1 PUSH1 0xA0 SHL SUB NOT AND PUSH1 0x1 PUSH1 0x1 PUSH1 0xA0 SHL SUB DUP5 AND SWAP1 DUP2 OR SWAP1 SWAP2 SSTORE PUSH1 0x40 MLOAD SWAP1 SWAP2 PUSH32 0x6D05492139C5EA989514A5D2150C028041E5C087E2A39967F67DC7D2655ADB81 SWAP2 LOG2 POP DUP1 PUSH2 0x12C6 DUP2 PUSH2 0x1B64 JUMP JUMPDEST SWAP2 POP POP PUSH2 0x118F JUMP JUMPDEST PUSH2 0x12D6 PUSH2 0x13B7 JUMP JUMPDEST PUSH1 0x1 PUSH1 0x1 PUSH1 0xA0 SHL SUB DUP2 AND PUSH2 0x133B JUMPI PUSH1 0x40 MLOAD PUSH3 0x461BCD PUSH1 0xE5 SHL DUP2 MSTORE PUSH1 0x20 PUSH1 0x4 DUP3 ADD MSTORE PUSH1 0x26 PUSH1 0x24 DUP3 ADD MSTORE PUSH32 0x4F776E61626C653A206E6577206F776E657220697320746865207A65726F2061 PUSH1 0x44 DUP3 ADD MSTORE PUSH6 0x646472657373 PUSH1 0xD0 SHL PUSH1 0x64 DUP3 ADD MSTORE PUSH1 0x84 ADD PUSH2 0x301 JUMP JUMPDEST PUSH2 0x1344 DUP2 PUSH2 0x1411 JUMP JUMPDEST POP JUMP JUMPDEST PUSH2 0x134F PUSH2 0x13B7 JUMP JUMPDEST PUSH1 0x0 DUP2 GT PUSH2 0x13B2 JUMPI PUSH1 0x40 MLOAD PUSH3 0x461BCD PUSH1 0xE5 SHL DUP2 MSTORE PUSH1 0x20 PUSH1 0x4 DUP3 ADD MSTORE PUSH1 0x2A PUSH1 0x24 DUP3 ADD MSTORE PUSH32 0x4D6178696D756D207665726966696572732073686F756C642062652067726561 PUSH1 0x44 DUP3 ADD MSTORE PUSH10 0x746572207468616E203 PUSH1 0xB4 SHL PUSH1 0x64 DUP3 ADD MSTORE PUSH1 0x84 ADD PUSH2 0x301 JUMP JUMPDEST PUSH1 0x2 SSTORE JUMP JUMPDEST PUSH1 0x0 SLOAD PUSH1 0x1 PUSH1 0x1 PUSH1 0xA0 SHL SUB AND CALLER EQ PUSH2 0xDE5 JUMPI PUSH1 0x40 MLOAD PUSH3 0x461BCD PUSH1 0xE5 SHL DUP2 MSTORE PUSH1 0x20 PUSH1 0x4 DUP3 ADD DUP2 SWAP1 MSTORE PUSH1 0x24 DUP3 ADD MSTORE PUSH32 0x4F776E61626C653A2063616C6C6572206973206E6F7420746865206F776E6572 PUSH1 0x44 DUP3 ADD MSTORE PUSH1 0x64 ADD PUSH2 0x301 JUMP JUMPDEST PUSH1 0x0 DUP1 SLOAD PUSH1 0x1 PUSH1 0x1 PUSH1 0xA0 SHL SUB DUP4 DUP2 AND PUSH1 0x1 PUSH1 0x1 PUSH1 0xA0 SHL SUB NOT DUP4 AND DUP2 OR DUP5 SSTORE PUSH1 0x40 MLOAD SWAP2 SWAP1 SWAP3 AND SWAP3 DUP4 SWAP2 PUSH32 0x8BE0079C531659141344CD1FD0A4F28419497F9722A3DAAFE3B4186F6B6457E0 SWAP2 SWAP1 LOG3 POP POP JUMP JUMPDEST PUSH4 0x4E487B71 PUSH1 0xE0 SHL PUSH1 0x0 MSTORE PUSH1 0x41 PUSH1 0x4 MSTORE PUSH1 0x24 PUSH1 0x0 REVERT JUMPDEST PUSH1 0x40 MLOAD PUSH1 0x1F DUP3 ADD PUSH1 0x1F NOT AND DUP2 ADD PUSH8 0xFFFFFFFFFFFFFFFF DUP2 GT DUP3 DUP3 LT OR ISZERO PUSH2 0x14A0 JUMPI PUSH2 0x14A0 PUSH2 0x1461 JUMP JUMPDEST PUSH1 0x40 MSTORE SWAP2 SWAP1 POP JUMP JUMPDEST PUSH1 0x0 PUSH8 0xFFFFFFFFFFFFFFFF DUP3 GT ISZERO PUSH2 0x14C2 JUMPI PUSH2 0x14C2 PUSH2 0x1461 JUMP JUMPDEST POP PUSH1 0x5 SHL PUSH1 0x20 ADD SWAP1 JUMP JUMPDEST PUSH1 0x0 DUP3 PUSH1 0x1F DUP4 ADD SLT PUSH2 0x14DD JUMPI PUSH1 0x0 DUP1 REVERT JUMPDEST DUP2 CALLDATALOAD PUSH1 0x20 PUSH2 0x14F2 PUSH2 0x14ED DUP4 PUSH2 0x14A8 JUMP JUMPDEST PUSH2 0x1477 JUMP JUMPDEST DUP3 DUP2 MSTORE PUSH1 0x5 SWAP3 SWAP1 SWAP3 SHL DUP5 ADD DUP2 ADD SWAP2 DUP2 DUP2 ADD SWAP1 DUP7 DUP5 GT ISZERO PUSH2 0x1511 JUMPI PUSH1 0x0 DUP1 REVERT JUMPDEST DUP3 DUP7 ADD JUMPDEST DUP5 DUP2 LT ISZERO PUSH2 0x152C JUMPI DUP1 CALLDATALOAD DUP4 MSTORE SWAP2 DUP4 ADD SWAP2 DUP4 ADD PUSH2 0x1515 JUMP JUMPDEST POP SWAP7 SWAP6 POP POP POP POP POP POP JUMP JUMPDEST DUP1 CALLDATALOAD PUSH1 0x1 PUSH1 0x1 PUSH1 0xA0 SHL SUB DUP2 AND DUP2 EQ PUSH2 0x154E JUMPI PUSH1 0x0 DUP1 REVERT JUMPDEST SWAP2 SWAP1 POP JUMP JUMPDEST PUSH1 0x0 DUP3 PUSH1 0x1F DUP4 ADD SLT PUSH2 0x1564 JUMPI PUSH1 0x0 DUP1 REVERT JUMPDEST DUP2 CALLDATALOAD PUSH1 0x20 PUSH2 0x1574 PUSH2 0x14ED DUP4 PUSH2 0x14A8 JUMP JUMPDEST DUP3 DUP2 MSTORE PUSH1 0x5 SWAP3 SWAP1 SWAP3 SHL DUP5 ADD DUP2 ADD SWAP2 DUP2 DUP2 ADD SWAP1 DUP7 DUP5 GT ISZERO PUSH2 0x1593 JUMPI PUSH1 0x0 DUP1 REVERT JUMPDEST DUP3 DUP7 ADD JUMPDEST DUP5 DUP2 LT ISZERO PUSH2 0x152C JUMPI PUSH2 0x15A8 DUP2 PUSH2 0x1537 JUMP JUMPDEST DUP4 MSTORE SWAP2 DUP4 ADD SWAP2 DUP4 ADD PUSH2 0x1597 JUMP JUMPDEST PUSH1 0x0 PUSH1 0x1F DUP4 DUP2 DUP5 ADD SLT PUSH2 0x15C7 JUMPI PUSH1 0x0 DUP1 REVERT JUMPDEST DUP3 CALLDATALOAD PUSH1 0x20 PUSH2 0x15D7 PUSH2 0x14ED DUP4 PUSH2 0x14A8 JUMP JUMPDEST DUP3 DUP2 MSTORE PUSH1 0x5 SWAP3 SWAP1 SWAP3 SHL DUP6 ADD DUP2 ADD SWAP2 DUP2 DUP2 ADD SWAP1 DUP8 DUP5 GT ISZERO PUSH2 0x15F6 JUMPI PUSH1 0x0 DUP1 REVERT JUMPDEST DUP3 DUP8 ADD JUMPDEST DUP5 DUP2 LT ISZERO PUSH2 0x168D JUMPI DUP1 CALLDATALOAD PUSH8 0xFFFFFFFFFFFFFFFF DUP1 DUP3 GT ISZERO PUSH2 0x161B JUMPI PUSH1 0x0 DUP1 DUP2 REVERT JUMPDEST DUP2 DUP11 ADD SWAP2 POP DUP11 PUSH1 0x3F DUP4 ADD SLT PUSH2 0x1630 JUMPI PUSH1 0x0 DUP1 DUP2 REVERT JUMPDEST DUP6 DUP3 ADD CALLDATALOAD PUSH1 0x40 DUP3 DUP3 GT ISZERO PUSH2 0x1646 JUMPI PUSH2 0x1646 PUSH2 0x1461 JUMP JUMPDEST PUSH2 0x1657 DUP3 DUP12 ADD PUSH1 0x1F NOT AND DUP10 ADD PUSH2 0x1477 JUMP JUMPDEST SWAP3 POP DUP2 DUP4 MSTORE DUP13 DUP2 DUP4 DUP7 ADD ADD GT ISZERO PUSH2 0x166E JUMPI PUSH1 0x0 DUP1 DUP2 REVERT JUMPDEST DUP2 DUP2 DUP6 ADD DUP10 DUP6 ADD CALLDATACOPY POP PUSH1 0x0 SWAP1 DUP3 ADD DUP8 ADD MSTORE DUP5 MSTORE POP SWAP2 DUP4 ADD SWAP2 DUP4 ADD PUSH2 0x15FA JUMP JUMPDEST POP SWAP8 SWAP7 POP POP POP POP POP POP POP JUMP JUMPDEST PUSH1 0x0 DUP1 PUSH1 0x0 PUSH1 0x60 DUP5 DUP7 SUB SLT ISZERO PUSH2 0x16AE JUMPI PUSH1 0x0 DUP1 REVERT JUMPDEST DUP4 CALLDATALOAD PUSH8 0xFFFFFFFFFFFFFFFF DUP1 DUP3 GT ISZERO PUSH2 0x16C6 JUMPI PUSH1 0x0 DUP1 REVERT JUMPDEST PUSH2 0x16D2 DUP8 DUP4 DUP9 ADD PUSH2 0x14CC JUMP JUMPDEST SWAP5 POP PUSH1 0x20 DUP7 ADD CALLDATALOAD SWAP2 POP DUP1 DUP3 GT ISZERO PUSH2 0x16E8 JUMPI PUSH1 0x0 DUP1 REVERT JUMPDEST PUSH2 0x16F4 DUP8 DUP4 DUP9 ADD PUSH2 0x1553 JUMP JUMPDEST SWAP4 POP PUSH1 0x40 DUP7 ADD CALLDATALOAD SWAP2 POP DUP1 DUP3 GT ISZERO PUSH2 0x170A JUMPI PUSH1 0x0 DUP1 REVERT JUMPDEST POP PUSH2 0x1717 DUP7 DUP3 DUP8 ADD PUSH2 0x15B5 JUMP JUMPDEST SWAP2 POP POP SWAP3 POP SWAP3 POP SWAP3 JUMP JUMPDEST PUSH1 0x0 PUSH1 0x20 DUP3 DUP5 SUB SLT ISZERO PUSH2 0x1733 JUMPI PUSH1 0x0 DUP1 REVERT JUMPDEST POP CALLDATALOAD SWAP2 SWAP1 POP JUMP JUMPDEST PUSH1 0x0 DUP2 MLOAD DUP1 DUP5 MSTORE PUSH1 0x0 JUMPDEST DUP2 DUP2 LT ISZERO PUSH2 0x1760 JUMPI PUSH1 0x20 DUP2 DUP6 ADD DUP2 ADD MLOAD DUP7 DUP4 ADD DUP3 ADD MSTORE ADD PUSH2 0x1744 JUMP JUMPDEST POP PUSH1 0x0 PUSH1 0x20 DUP3 DUP7 ADD ADD MSTORE PUSH1 0x20 PUSH1 0x1F NOT PUSH1 0x1F DUP4 ADD AND DUP6 ADD ADD SWAP2 POP POP SWAP3 SWAP2 POP POP JUMP JUMPDEST PUSH1 0x1 PUSH1 0x1 PUSH1 0xA0 SHL SUB DUP6 AND DUP2 MSTORE PUSH1 0x80 PUSH1 0x20 DUP3 ADD DUP2 SWAP1 MSTORE PUSH1 0x0 SWAP1 PUSH2 0x17A4 SWAP1 DUP4 ADD DUP7 PUSH2 0x173A JUMP JUMPDEST PUSH1 0x40 DUP4 ADD SWAP5 SWAP1 SWAP5 MSTORE POP SWAP1 ISZERO ISZERO PUSH1 0x60 SWAP1 SWAP2 ADD MSTORE SWAP3 SWAP2 POP POP JUMP JUMPDEST PUSH1 0x60 DUP2 MSTORE PUSH1 0x0 PUSH2 0x17CF PUSH1 0x60 DUP4 ADD DUP7 PUSH2 0x173A JUMP JUMPDEST PUSH1 0x20 DUP4 ADD SWAP5 SWAP1 SWAP5 MSTORE POP SWAP1 ISZERO ISZERO PUSH1 0x40 SWAP1 SWAP2 ADD MSTORE SWAP2 SWAP1 POP JUMP JUMPDEST PUSH1 0x0 DUP1 PUSH1 0x40 DUP4 DUP6 SUB SLT ISZERO PUSH2 0x17F9 JUMPI PUSH1 0x0 DUP1 REVERT JUMPDEST DUP3 CALLDATALOAD PUSH8 0xFFFFFFFFFFFFFFFF DUP1 DUP3 GT ISZERO PUSH2 0x1811 JUMPI PUSH1 0x0 DUP1 REVERT JUMPDEST PUSH2 0x181D DUP7 DUP4 DUP8 ADD PUSH2 0x1553 JUMP JUMPDEST SWAP4 POP PUSH1 0x20 DUP6 ADD CALLDATALOAD SWAP2 POP DUP1 DUP3 GT ISZERO PUSH2 0x1833 JUMPI PUSH1 0x0 DUP1 REVERT JUMPDEST POP PUSH2 0x1840 DUP6 DUP3 DUP7 ADD PUSH2 0x1553 JUMP JUMPDEST SWAP2 POP POP SWAP3 POP SWAP3 SWAP1 POP JUMP JUMPDEST PUSH1 0x0 DUP1 PUSH1 0x40 DUP4 DUP6 SUB SLT ISZERO PUSH2 0x185D JUMPI PUSH1 0x0 DUP1 REVERT JUMPDEST DUP3 CALLDATALOAD PUSH8 0xFFFFFFFFFFFFFFFF DUP1 DUP3 GT ISZERO PUSH2 0x1875 JUMPI PUSH1 0x0 DUP1 REVERT JUMPDEST PUSH2 0x1881 DUP7 DUP4 DUP8 ADD PUSH2 0x14CC JUMP JUMPDEST SWAP4 POP PUSH1 0x20 DUP6 ADD CALLDATALOAD SWAP2 POP DUP1 DUP3 GT ISZERO PUSH2 0x1897 JUMPI PUSH1 0x0 DUP1 REVERT JUMPDEST POP PUSH2 0x1840 DUP6 DUP3 DUP7 ADD PUSH2 0x15B5 JUMP JUMPDEST PUSH1 0x1 PUSH1 0x1 PUSH1 0xA0 SHL SUB DUP5 AND DUP2 MSTORE PUSH1 0x60 PUSH1 0x20 DUP3 ADD DUP2 SWAP1 MSTORE PUSH1 0x0 SWAP1 PUSH2 0x18C8 SWAP1 DUP4 ADD DUP6 PUSH2 0x173A JUMP JUMPDEST SWAP1 POP DUP3 PUSH1 0x40 DUP4 ADD MSTORE SWAP5 SWAP4 POP POP POP POP JUMP JUMPDEST PUSH1 0x0 PUSH1 0x20 DUP3 DUP5 SUB SLT ISZERO PUSH2 0x18EA JUMPI PUSH1 0x0 DUP1 REVERT JUMPDEST DUP2 CALLDATALOAD PUSH8 0xFFFFFFFFFFFFFFFF DUP2 GT ISZERO PUSH2 0x1901 JUMPI PUSH1 0x0 DUP1 REVERT JUMPDEST PUSH2 0x190D DUP5 DUP3 DUP6 ADD PUSH2 0x14CC JUMP JUMPDEST SWAP5 SWAP4 POP POP POP POP JUMP JUMPDEST PUSH1 0x0 PUSH1 0x20 DUP3 DUP5 SUB SLT ISZERO PUSH2 0x1927 JUMPI PUSH1 0x0 DUP1 REVERT JUMPDEST DUP2 CALLDATALOAD PUSH8 0xFFFFFFFFFFFFFFFF DUP2 GT ISZERO PUSH2 0x193E JUMPI PUSH1 0x0 DUP1 REVERT JUMPDEST PUSH2 0x190D DUP5 DUP3 DUP6 ADD PUSH2 0x1553 JUMP JUMPDEST PUSH1 0x20 DUP1 DUP3 MSTORE DUP3 MLOAD DUP3 DUP3 ADD DUP2 SWAP1 MSTORE PUSH1 0x0 SWAP2 SWAP1 DUP5 DUP3 ADD SWAP1 PUSH1 0x40 DUP6 ADD SWAP1 DUP5 JUMPDEST DUP2 DUP2 LT ISZERO PUSH2 0x198B JUMPI DUP4 MLOAD PUSH1 0x1 PUSH1 0x1 PUSH1 0xA0 SHL SUB AND DUP4 MSTORE SWAP3 DUP5 ADD SWAP3 SWAP2 DUP5 ADD SWAP2 PUSH1 0x1 ADD PUSH2 0x1966 JUMP JUMPDEST POP SWAP1 SWAP7 SWAP6 POP POP POP POP POP POP JUMP JUMPDEST PUSH1 0x0 PUSH1 0x20 DUP3 DUP5 SUB SLT ISZERO PUSH2 0x19A9 JUMPI PUSH1 0x0 DUP1 REVERT JUMPDEST PUSH2 0x19B2 DUP3 PUSH2 0x1537 JUMP JUMPDEST SWAP4 SWAP3 POP POP POP JUMP JUMPDEST PUSH1 0x20 DUP1 DUP3 MSTORE PUSH1 0x18 SWAP1 DUP3 ADD MSTORE PUSH32 0x4D69736D61746368656420696E707574206C656E677468730000000000000000 PUSH1 0x40 DUP3 ADD MSTORE PUSH1 0x60 ADD SWAP1 JUMP JUMPDEST PUSH4 0x4E487B71 PUSH1 0xE0 SHL PUSH1 0x0 MSTORE PUSH1 0x32 PUSH1 0x4 MSTORE PUSH1 0x24 PUSH1 0x0 REVERT JUMPDEST PUSH1 0x1 DUP2 DUP2 SHR SWAP1 DUP3 AND DUP1 PUSH2 0x1A1A JUMPI PUSH1 0x7F DUP3 AND SWAP2 POP JUMPDEST PUSH1 0x20 DUP3 LT DUP2 SUB PUSH2 0x1A3A JUMPI PUSH4 0x4E487B71 PUSH1 0xE0 SHL PUSH1 0x0 MSTORE PUSH1 0x22 PUSH1 0x4 MSTORE PUSH1 0x24 PUSH1 0x0 REVERT JUMPDEST POP SWAP2 SWAP1 POP JUMP JUMPDEST PUSH1 0x1F DUP3 GT ISZERO PUSH2 0x8D2 JUMPI PUSH1 0x0 DUP2 DUP2 MSTORE PUSH1 0x20 DUP2 KECCAK256 PUSH1 0x1F DUP6 ADD PUSH1 0x5 SHR DUP2 ADD PUSH1 0x20 DUP7 LT ISZERO PUSH2 0x1A67 JUMPI POP DUP1 JUMPDEST PUSH1 0x1F DUP6 ADD PUSH1 0x5 SHR DUP3 ADD SWAP2 POP JUMPDEST DUP2 DUP2 LT ISZERO PUSH2 0x1A86 JUMPI DUP3 DUP2 SSTORE PUSH1 0x1 ADD PUSH2 0x1A73 JUMP JUMPDEST POP POP POP POP POP POP JUMP JUMPDEST DUP2 MLOAD PUSH8 0xFFFFFFFFFFFFFFFF DUP2 GT ISZERO PUSH2 0x1AA8 JUMPI PUSH2 0x1AA8 PUSH2 0x1461 JUMP JUMPDEST PUSH2 0x1ABC DUP2 PUSH2 0x1AB6 DUP5 SLOAD PUSH2 0x1A06 JUMP JUMPDEST DUP5 PUSH2 0x1A40 JUMP JUMPDEST PUSH1 0x20 DUP1 PUSH1 0x1F DUP4 GT PUSH1 0x1 DUP2 EQ PUSH2 0x1AF1 JUMPI PUSH1 0x0 DUP5 ISZERO PUSH2 0x1AD9 JUMPI POP DUP6 DUP4 ADD MLOAD JUMPDEST PUSH1 0x0 NOT PUSH1 0x3 DUP7 SWAP1 SHL SHR NOT AND PUSH1 0x1 DUP6 SWAP1 SHL OR DUP6 SSTORE PUSH2 0x1A86 JUMP JUMPDEST PUSH1 0x0 DUP6 DUP2 MSTORE PUSH1 0x20 DUP2 KECCAK256 PUSH1 0x1F NOT DUP7 AND SWAP2 JUMPDEST DUP3 DUP2 LT ISZERO PUSH2 0x1B20 JUMPI DUP9 DUP7 ADD MLOAD DUP3 SSTORE SWAP5 DUP5 ADD SWAP5 PUSH1 0x1 SWAP1 SWAP2 ADD SWAP1 DUP5 ADD PUSH2 0x1B01 JUMP JUMPDEST POP DUP6 DUP3 LT ISZERO PUSH2 0x1B3E JUMPI DUP8 DUP6 ADD MLOAD PUSH1 0x0 NOT PUSH1 0x3 DUP9 SWAP1 SHL PUSH1 0xF8 AND SHR NOT AND DUP2 SSTORE JUMPDEST POP POP POP POP POP PUSH1 0x1 SWAP1 DUP2 SHL ADD SWAP1 SSTORE POP JUMP JUMPDEST PUSH4 0x4E487B71 PUSH1 0xE0 SHL PUSH1 0x0 MSTORE PUSH1 0x11 PUSH1 0x4 MSTORE PUSH1 0x24 PUSH1 0x0 REVERT JUMPDEST PUSH1 0x0 PUSH1 0x1 DUP3 ADD PUSH2 0x1B76 JUMPI PUSH2 0x1B76 PUSH2 0x1B4E JUMP JUMPDEST POP PUSH1 0x1 ADD SWAP1 JUMP JUMPDEST PUSH1 0x20 DUP2 MSTORE PUSH1 0x0 PUSH2 0x19B2 PUSH1 0x20 DUP4 ADD DUP5 PUSH2 0x173A JUMP JUMPDEST PUSH1 0x20 DUP1 DUP3 MSTORE PUSH1 0xF SWAP1 DUP3 ADD MSTORE PUSH15 0x496E76616C69642061646472657373 PUSH1 0x88 SHL PUSH1 0x40 DUP3 ADD MSTORE PUSH1 0x60 ADD SWAP1 JUMP JUMPDEST DUP2 DUP2 SUB DUP2 DUP2 GT ISZERO PUSH2 0x1BCC JUMPI PUSH2 0x1BCC PUSH2 0x1B4E JUMP JUMPDEST SWAP3 SWAP2 POP POP JUMP JUMPDEST PUSH4 0x4E487B71 PUSH1 0xE0 SHL PUSH1 0x0 MSTORE PUSH1 0x31 PUSH1 0x4 MSTORE PUSH1 0x24 PUSH1 0x0 REVERT INVALID LOG2 PUSH5 0x6970667358 0x22 SLT KECCAK256 DUP11 PUSH3 0x351D7 PUSH2 0xC44E LT CODECOPY 0xBF CREATE PUSH5 0x3D81282430 RETURNDATASIZE 0xE7 0xB2 0xE9 CALLER CALLCODE 0xA7 JUMP PUSH9 0x325FC5C8164736F6C PUSH4 0x43000814 STOP CALLER "},"methodIdentifiers":{"addCandidates(uint256[],string[])":"540faf24","addCompanies(uint256[],address[],string[])":"249f77b1","addVerifiers(address[])":"b5344257","candidates(uint256)":"3477ee2e","companies(uint256)":"2813d19d","getCandidate(uint256)":"35b8e820","getCompany(uint256)":"57d13917","getVerifiers()":"a935e766","maxVerifiers()":"78bda750","numCompanies()":"874fdf2d","owner()":"8da5cb5b","removeVerifiers(address[])":"86ae47f0","renounceOwnership()":"715018a6","replaceVerifiers(address[],address[])":"4dc95895","setMaxVerifiers(uint256)":"fc7435e1","transferOwnership(address)":"f2fde38b","verifiers(uint256)":"ac1eff68","verifyCandidates(uint256[])":"58b8a88c","verifyCompanies(uint256[])":"950bf50d"}}}}}