{
  "_format": "hh-sol-artifact-1",
  "contractName": "Verification",
  "sourceName": "src/contracts/Verification.sol",
  "abi": [
    {
      "anonymous": false,
      "inputs": [
        {
          "indexed": true,
          "internalType": "uint256",
          "name": "id",
          "type": "uint256"
        },
        {
          "indexed": false,
          "internalType": "string",
          "name": "name",
          "type": "string"
        },
        {
          "indexed": false,
          "internalType": "string",
          "name": "location",
          "type": "string"
        },
        {
          "indexed": false,
          "internalType": "string",
          "name": "email",
          "type": "string"
        },
        {
          "indexed": false,
          "internalType": "uint256",
          "name": "phoneNumber",
          "type": "uint256"
        }
      ],
      "name": "CandidateAdded",
      "type": "event"
    },
    {
      "anonymous": false,
      "inputs": [
        {
          "indexed": true,
          "internalType": "uint256",
          "name": "id",
          "type": "uint256"
        },
        {
          "indexed": false,
          "internalType": "address",
          "name": "newCurrentCompany",
          "type": "address"
        }
      ],
      "name": "CandidateCurrentCompanyEdited",
      "type": "event"
    },
    {
      "anonymous": false,
      "inputs": [
        {
          "indexed": true,
          "internalType": "uint256",
          "name": "id",
          "type": "uint256"
        },
        {
          "indexed": false,
          "internalType": "string",
          "name": "name",
          "type": "string"
        },
        {
          "indexed": false,
          "internalType": "string",
          "name": "location",
          "type": "string"
        },
        {
          "indexed": false,
          "internalType": "string",
          "name": "email",
          "type": "string"
        },
        {
          "indexed": false,
          "internalType": "uint256",
          "name": "phoneNumber",
          "type": "uint256"
        },
        {
          "indexed": false,
          "internalType": "address",
          "name": "currentCompany",
          "type": "address"
        }
      ],
      "name": "CandidateEdited",
      "type": "event"
    },
    {
      "anonymous": false,
      "inputs": [
        {
          "indexed": true,
          "internalType": "uint256",
          "name": "id",
          "type": "uint256"
        }
      ],
      "name": "CandidateRemoved",
      "type": "event"
    },
    {
      "anonymous": false,
      "inputs": [
        {
          "indexed": true,
          "internalType": "uint256",
          "name": "id",
          "type": "uint256"
        },
        {
          "indexed": true,
          "internalType": "address",
          "name": "companyAddress",
          "type": "address"
        },
        {
          "indexed": false,
          "internalType": "string",
          "name": "name",
          "type": "string"
        },
        {
          "indexed": false,
          "internalType": "string",
          "name": "location",
          "type": "string"
        },
        {
          "indexed": false,
          "internalType": "uint256",
          "name": "phoneNumber",
          "type": "uint256"
        },
        {
          "indexed": false,
          "internalType": "string",
          "name": "licenseNumber",
          "type": "string"
        },
        {
          "indexed": false,
          "internalType": "string",
          "name": "email",
          "type": "string"
        }
      ],
      "name": "CompanyAdded",
      "type": "event"
    },
    {
      "anonymous": false,
      "inputs": [
        {
          "indexed": true,
          "internalType": "uint256",
          "name": "id",
          "type": "uint256"
        }
      ],
      "name": "CompanyRemoved",
      "type": "event"
    },
    {
      "anonymous": false,
      "inputs": [
        {
          "indexed": true,
          "internalType": "uint256",
          "name": "id",
          "type": "uint256"
        },
        {
          "indexed": false,
          "internalType": "string",
          "name": "name",
          "type": "string"
        },
        {
          "indexed": false,
          "internalType": "string",
          "name": "cid",
          "type": "string"
        },
        {
          "indexed": false,
          "internalType": "uint256",
          "name": "candidateId",
          "type": "uint256"
        },
        {
          "indexed": false,
          "internalType": "string",
          "name": "typeOfDocument",
          "type": "string"
        },
        {
          "indexed": false,
          "internalType": "string",
          "name": "expirationDate",
          "type": "string"
        }
      ],
      "name": "DocumentAdded",
      "type": "event"
    },
    {
      "anonymous": false,
      "inputs": [
        {
          "indexed": true,
          "internalType": "uint256",
          "name": "id",
          "type": "uint256"
        }
      ],
      "name": "DocumentCancelled",
      "type": "event"
    },
    {
      "anonymous": false,
      "inputs": [
        {
          "indexed": false,
          "internalType": "uint256",
          "name": "documentId",
          "type": "uint256"
        },
        {
          "indexed": false,
          "internalType": "uint256",
          "name": "candidateId",
          "type": "uint256"
        }
      ],
      "name": "DocumentRemoved",
      "type": "event"
    },
    {
      "anonymous": false,
      "inputs": [
        {
          "indexed": true,
          "internalType": "uint256",
          "name": "id",
          "type": "uint256"
        }
      ],
      "name": "DocumentVerified",
      "type": "event"
    },
    {
      "anonymous": false,
      "inputs": [
        {
          "indexed": true,
          "internalType": "address",
          "name": "previousOwner",
          "type": "address"
        },
        {
          "indexed": true,
          "internalType": "address",
          "name": "newOwner",
          "type": "address"
        }
      ],
      "name": "OwnershipTransferred",
      "type": "event"
    },
    {
      "anonymous": false,
      "inputs": [
        {
          "indexed": true,
          "internalType": "address",
          "name": "verifier",
          "type": "address"
        }
      ],
      "name": "VerifierAdded",
      "type": "event"
    },
    {
      "anonymous": false,
      "inputs": [
        {
          "indexed": true,
          "internalType": "address",
          "name": "verifier",
          "type": "address"
        }
      ],
      "name": "VerifierRemoved",
      "type": "event"
    },
    {
      "anonymous": false,
      "inputs": [
        {
          "indexed": true,
          "internalType": "address",
          "name": "oldVerifier",
          "type": "address"
        },
        {
          "indexed": true,
          "internalType": "address",
          "name": "newVerifier",
          "type": "address"
        }
      ],
      "name": "VerifierReplaced",
      "type": "event"
    },
    {
      "inputs": [
        {
          "internalType": "address[]",
          "name": "_addresses",
          "type": "address[]"
        },
        {
          "internalType": "string[]",
          "name": "_names",
          "type": "string[]"
        },
        {
          "internalType": "string[]",
          "name": "_locations",
          "type": "string[]"
        },
        {
          "internalType": "string[]",
          "name": "_emails",
          "type": "string[]"
        },
        {
          "internalType": "uint256[]",
          "name": "_phoneNumbers",
          "type": "uint256[]"
        }
      ],
      "name": "addCandidates",
      "outputs": [],
      "stateMutability": "nonpayable",
      "type": "function"
    },
    {
      "inputs": [
        {
          "internalType": "address[]",
          "name": "_addresses",
          "type": "address[]"
        },
        {
          "internalType": "string[]",
          "name": "_names",
          "type": "string[]"
        },
        {
          "internalType": "string[]",
          "name": "_locations",
          "type": "string[]"
        },
        {
          "internalType": "uint256[]",
          "name": "_phoneNumbers",
          "type": "uint256[]"
        },
        {
          "internalType": "string[]",
          "name": "_licenseNumbers",
          "type": "string[]"
        },
        {
          "internalType": "string[]",
          "name": "_emails",
          "type": "string[]"
        }
      ],
      "name": "addCompanies",
      "outputs": [],
      "stateMutability": "nonpayable",
      "type": "function"
    },
    {
      "inputs": [
        {
          "internalType": "string[]",
          "name": "_names",
          "type": "string[]"
        },
        {
          "internalType": "string[]",
          "name": "_cids",
          "type": "string[]"
        },
        {
          "internalType": "uint256[]",
          "name": "_candidateIds",
          "type": "uint256[]"
        },
        {
          "internalType": "string[]",
          "name": "_typesOfDocument",
          "type": "string[]"
        },
        {
          "internalType": "string[]",
          "name": "_expirationDates",
          "type": "string[]"
        }
      ],
      "name": "addDocuments",
      "outputs": [],
      "stateMutability": "nonpayable",
      "type": "function"
    },
    {
      "inputs": [
        {
          "internalType": "address[]",
          "name": "_verifiers",
          "type": "address[]"
        }
      ],
      "name": "addVerifiers",
      "outputs": [],
      "stateMutability": "nonpayable",
      "type": "function"
    },
    {
      "inputs": [
        {
          "internalType": "address",
          "name": "",
          "type": "address"
        }
      ],
      "name": "candidateAddress",
      "outputs": [
        {
          "internalType": "uint256",
          "name": "",
          "type": "uint256"
        }
      ],
      "stateMutability": "view",
      "type": "function"
    },
    {
      "inputs": [
        {
          "internalType": "uint256",
          "name": "",
          "type": "uint256"
        }
      ],
      "name": "candidates",
      "outputs": [
        {
          "internalType": "uint256",
          "name": "date",
          "type": "uint256"
        },
        {
          "internalType": "address",
          "name": "address_",
          "type": "address"
        },
        {
          "internalType": "address",
          "name": "currentCompany",
          "type": "address"
        },
        {
          "internalType": "string",
          "name": "name",
          "type": "string"
        },
        {
          "internalType": "uint256",
          "name": "Id",
          "type": "uint256"
        },
        {
          "internalType": "string",
          "name": "location",
          "type": "string"
        },
        {
          "internalType": "string",
          "name": "email",
          "type": "string"
        },
        {
          "internalType": "uint256",
          "name": "phoneNumber",
          "type": "uint256"
        }
      ],
      "stateMutability": "view",
      "type": "function"
    },
    {
      "inputs": [
        {
          "internalType": "uint256",
          "name": "",
          "type": "uint256"
        }
      ],
      "name": "companies",
      "outputs": [
        {
          "internalType": "uint256",
          "name": "date",
          "type": "uint256"
        },
        {
          "internalType": "address",
          "name": "address_",
          "type": "address"
        },
        {
          "internalType": "string",
          "name": "name",
          "type": "string"
        },
        {
          "internalType": "uint256",
          "name": "Id",
          "type": "uint256"
        },
        {
          "internalType": "string",
          "name": "location",
          "type": "string"
        },
        {
          "internalType": "uint256",
          "name": "phoneNumber",
          "type": "uint256"
        },
        {
          "internalType": "string",
          "name": "licenseNumber",
          "type": "string"
        },
        {
          "internalType": "string",
          "name": "email",
          "type": "string"
        }
      ],
      "stateMutability": "view",
      "type": "function"
    },
    {
      "inputs": [
        {
          "internalType": "address",
          "name": "",
          "type": "address"
        }
      ],
      "name": "companyAddress",
      "outputs": [
        {
          "internalType": "uint256",
          "name": "",
          "type": "uint256"
        }
      ],
      "stateMutability": "view",
      "type": "function"
    },
    {
      "inputs": [
        {
          "internalType": "uint256",
          "name": "",
          "type": "uint256"
        }
      ],
      "name": "documents",
      "outputs": [
        {
          "internalType": "uint256",
          "name": "date",
          "type": "uint256"
        },
        {
          "internalType": "string",
          "name": "name",
          "type": "string"
        },
        {
          "internalType": "uint256",
          "name": "id",
          "type": "uint256"
        },
        {
          "internalType": "string",
          "name": "cid",
          "type": "string"
        },
        {
          "internalType": "string",
          "name": "typeOfDocument",
          "type": "string"
        },
        {
          "internalType": "string",
          "name": "expirationDate",
          "type": "string"
        },
        {
          "internalType": "bool",
          "name": "isVerified",
          "type": "bool"
        },
        {
          "internalType": "bool",
          "name": "isCancelled",
          "type": "bool"
        },
        {
          "internalType": "uint256",
          "name": "candidateId",
          "type": "uint256"
        }
      ],
      "stateMutability": "view",
      "type": "function"
    },
    {
      "inputs": [
        {
          "internalType": "uint256",
          "name": "_candidateId",
          "type": "uint256"
        },
        {
          "internalType": "string",
          "name": "_name",
          "type": "string"
        },
        {
          "internalType": "string",
          "name": "_location",
          "type": "string"
        },
        {
          "internalType": "string",
          "name": "_email",
          "type": "string"
        },
        {
          "internalType": "uint256",
          "name": "_phoneNumber",
          "type": "uint256"
        },
        {
          "internalType": "address",
          "name": "_currentCompany",
          "type": "address"
        }
      ],
      "name": "editCandidate",
      "outputs": [],
      "stateMutability": "nonpayable",
      "type": "function"
    },
    {
      "inputs": [
        {
          "internalType": "uint256",
          "name": "_candidateId",
          "type": "uint256"
        },
        {
          "internalType": "address",
          "name": "_newCurrentCompany",
          "type": "address"
        }
      ],
      "name": "editCandidateCurrentCompany",
      "outputs": [],
      "stateMutability": "nonpayable",
      "type": "function"
    },
    {
      "inputs": [
        {
          "internalType": "uint256",
          "name": "_id",
          "type": "uint256"
        }
      ],
      "name": "getCandidate",
      "outputs": [
        {
          "components": [
            {
              "internalType": "uint256",
              "name": "date",
              "type": "uint256"
            },
            {
              "internalType": "address",
              "name": "address_",
              "type": "address"
            },
            {
              "internalType": "address",
              "name": "currentCompany",
              "type": "address"
            },
            {
              "internalType": "string",
              "name": "name",
              "type": "string"
            },
            {
              "internalType": "uint256[]",
              "name": "documentIds",
              "type": "uint256[]"
            },
            {
              "internalType": "uint256",
              "name": "Id",
              "type": "uint256"
            },
            {
              "internalType": "string",
              "name": "location",
              "type": "string"
            },
            {
              "internalType": "string",
              "name": "email",
              "type": "string"
            },
            {
              "internalType": "uint256",
              "name": "phoneNumber",
              "type": "uint256"
            }
          ],
          "internalType": "struct Verification.Candidate",
          "name": "",
          "type": "tuple"
        }
      ],
      "stateMutability": "view",
      "type": "function"
    },
    {
      "inputs": [
        {
          "internalType": "uint256",
          "name": "_companyId",
          "type": "uint256"
        }
      ],
      "name": "getCandidatesByCompany",
      "outputs": [
        {
          "components": [
            {
              "internalType": "uint256",
              "name": "date",
              "type": "uint256"
            },
            {
              "internalType": "address",
              "name": "address_",
              "type": "address"
            },
            {
              "internalType": "address",
              "name": "currentCompany",
              "type": "address"
            },
            {
              "internalType": "string",
              "name": "name",
              "type": "string"
            },
            {
              "internalType": "uint256[]",
              "name": "documentIds",
              "type": "uint256[]"
            },
            {
              "internalType": "uint256",
              "name": "Id",
              "type": "uint256"
            },
            {
              "internalType": "string",
              "name": "location",
              "type": "string"
            },
            {
              "internalType": "string",
              "name": "email",
              "type": "string"
            },
            {
              "internalType": "uint256",
              "name": "phoneNumber",
              "type": "uint256"
            }
          ],
          "internalType": "struct Verification.Candidate[]",
          "name": "",
          "type": "tuple[]"
        }
      ],
      "stateMutability": "view",
      "type": "function"
    },
    {
      "inputs": [
        {
          "internalType": "uint256",
          "name": "_companyId",
          "type": "uint256"
        }
      ],
      "name": "getCompany",
      "outputs": [
        {
          "internalType": "uint256",
          "name": "",
          "type": "uint256"
        },
        {
          "internalType": "address",
          "name": "",
          "type": "address"
        },
        {
          "internalType": "string",
          "name": "",
          "type": "string"
        },
        {
          "internalType": "string",
          "name": "",
          "type": "string"
        },
        {
          "internalType": "uint256",
          "name": "",
          "type": "uint256"
        },
        {
          "internalType": "string",
          "name": "",
          "type": "string"
        },
        {
          "internalType": "string",
          "name": "",
          "type": "string"
        }
      ],
      "stateMutability": "view",
      "type": "function"
    },
    {
      "inputs": [],
      "name": "getCompanyIdOfSender",
      "outputs": [
        {
          "internalType": "uint256",
          "name": "",
          "type": "uint256"
        }
      ],
      "stateMutability": "view",
      "type": "function"
    },
    {
      "inputs": [
        {
          "internalType": "uint256",
          "name": "_candidateId",
          "type": "uint256"
        }
      ],
      "name": "getDocuments",
      "outputs": [
        {
          "components": [
            {
              "internalType": "uint256",
              "name": "date",
              "type": "uint256"
            },
            {
              "internalType": "string",
              "name": "name",
              "type": "string"
            },
            {
              "internalType": "uint256",
              "name": "id",
              "type": "uint256"
            },
            {
              "internalType": "string",
              "name": "cid",
              "type": "string"
            },
            {
              "internalType": "string",
              "name": "typeOfDocument",
              "type": "string"
            },
            {
              "internalType": "string",
              "name": "expirationDate",
              "type": "string"
            },
            {
              "internalType": "bool",
              "name": "isVerified",
              "type": "bool"
            },
            {
              "internalType": "bool",
              "name": "isCancelled",
              "type": "bool"
            },
            {
              "internalType": "uint256",
              "name": "candidateId",
              "type": "uint256"
            }
          ],
          "internalType": "struct Verification.Document[]",
          "name": "",
          "type": "tuple[]"
        }
      ],
      "stateMutability": "view",
      "type": "function"
    },
    {
      "inputs": [
        {
          "internalType": "uint256",
          "name": "_candidateId",
          "type": "uint256"
        }
      ],
      "name": "getDocumentsByCandidate",
      "outputs": [
        {
          "components": [
            {
              "internalType": "uint256",
              "name": "date",
              "type": "uint256"
            },
            {
              "internalType": "string",
              "name": "name",
              "type": "string"
            },
            {
              "internalType": "uint256",
              "name": "id",
              "type": "uint256"
            },
            {
              "internalType": "string",
              "name": "cid",
              "type": "string"
            },
            {
              "internalType": "string",
              "name": "typeOfDocument",
              "type": "string"
            },
            {
              "internalType": "string",
              "name": "expirationDate",
              "type": "string"
            },
            {
              "internalType": "bool",
              "name": "isVerified",
              "type": "bool"
            },
            {
              "internalType": "bool",
              "name": "isCancelled",
              "type": "bool"
            },
            {
              "internalType": "uint256",
              "name": "candidateId",
              "type": "uint256"
            }
          ],
          "internalType": "struct Verification.Document[]",
          "name": "",
          "type": "tuple[]"
        }
      ],
      "stateMutability": "view",
      "type": "function"
    },
    {
      "inputs": [],
      "name": "getOwner",
      "outputs": [
        {
          "internalType": "address",
          "name": "",
          "type": "address"
        }
      ],
      "stateMutability": "view",
      "type": "function"
    },
    {
      "inputs": [],
      "name": "getVerifiers",
      "outputs": [
        {
          "internalType": "address[]",
          "name": "",
          "type": "address[]"
        }
      ],
      "stateMutability": "view",
      "type": "function"
    },
    {
      "inputs": [],
      "name": "getZeroAddress",
      "outputs": [
        {
          "internalType": "address",
          "name": "",
          "type": "address"
        }
      ],
      "stateMutability": "pure",
      "type": "function"
    },
    {
      "inputs": [],
      "name": "maxVerifiers",
      "outputs": [
        {
          "internalType": "uint256",
          "name": "",
          "type": "uint256"
        }
      ],
      "stateMutability": "view",
      "type": "function"
    },
    {
      "inputs": [],
      "name": "owner",
      "outputs": [
        {
          "internalType": "address",
          "name": "",
          "type": "address"
        }
      ],
      "stateMutability": "view",
      "type": "function"
    },
    {
      "inputs": [
        {
          "internalType": "uint256[]",
          "name": "_ids",
          "type": "uint256[]"
        }
      ],
      "name": "removeCandidates",
      "outputs": [],
      "stateMutability": "nonpayable",
      "type": "function"
    },
    {
      "inputs": [
        {
          "internalType": "uint256[]",
          "name": "_ids",
          "type": "uint256[]"
        }
      ],
      "name": "removeCompanies",
      "outputs": [],
      "stateMutability": "nonpayable",
      "type": "function"
    },
    {
      "inputs": [
        {
          "internalType": "uint256[]",
          "name": "_candidateIds",
          "type": "uint256[]"
        },
        {
          "internalType": "uint256[]",
          "name": "_documentIds",
          "type": "uint256[]"
        }
      ],
      "name": "removeDocuments",
      "outputs": [],
      "stateMutability": "nonpayable",
      "type": "function"
    },
    {
      "inputs": [],
      "name": "renounceOwnership",
      "outputs": [],
      "stateMutability": "nonpayable",
      "type": "function"
    },
    {
      "inputs": [
        {
          "internalType": "address[]",
          "name": "_oldVerifiers",
          "type": "address[]"
        },
        {
          "internalType": "address[]",
          "name": "_newVerifiers",
          "type": "address[]"
        }
      ],
      "name": "replaceVerifiers",
      "outputs": [],
      "stateMutability": "nonpayable",
      "type": "function"
    },
    {
      "inputs": [
        {
          "internalType": "uint256",
          "name": "_maxVerifiers",
          "type": "uint256"
        }
      ],
      "name": "setMaxVerifiers",
      "outputs": [],
      "stateMutability": "nonpayable",
      "type": "function"
    },
    {
      "inputs": [
        {
          "internalType": "address",
          "name": "newOwner",
          "type": "address"
        }
      ],
      "name": "transferOwnership",
      "outputs": [],
      "stateMutability": "nonpayable",
      "type": "function"
    },
    {
      "inputs": [
        {
          "internalType": "uint256",
          "name": "",
          "type": "uint256"
        }
      ],
      "name": "verifiers",
      "outputs": [
        {
          "internalType": "address",
          "name": "",
          "type": "address"
        }
      ],
      "stateMutability": "view",
      "type": "function"
    },
    {
      "inputs": [
        {
          "internalType": "uint256",
          "name": "_documentId",
          "type": "uint256"
        },
        {
          "internalType": "bool",
          "name": "_isCancelled",
          "type": "bool"
        }
      ],
      "name": "verifyDocument",
      "outputs": [],
      "stateMutability": "nonpayable",
      "type": "function"
    }
  ],
  "bytecode": "0x6080604052600a6002553480156200001657600080fd5b50620000223362000028565b62000078565b600080546001600160a01b038381166001600160a01b0319831681178455604051919092169283917f8be0079c531659141344cd1fd0a4f28419497f9722a3daafe3b4186f6b6457e09190a35050565b614dd380620000886000396000f3fe608060405234801561001057600080fd5b50600436106101e55760003560e01c806378bda7501161010f578063b4d7e8df116100a2578063df2ba0de11610071578063df2ba0de14610488578063eed183181461049b578063f2fde38b146104ae578063fc7435e1146104c157600080fd5b8063b4d7e8df14610425578063b53442571461043a578063bb3096aa1461044d578063c2ed2b051461046057600080fd5b806399e37a55116100de57806399e37a55146103ca578063a2576089146103ea578063a935e766146103fd578063ac1eff681461041257600080fd5b806378bda75014610384578063893d20e81461038d5780638da5cb5b146103b25780639483fbcb146103c357600080fd5b806335af9742116101875780635990ce80116101565780635990ce801461031b5780636dd080471461032e5780636eb3b4e91461035c578063715018a61461037c57600080fd5b806335af9742146102a257806335b8e820146102c25780634dc95895146102e257806357d13917146102f557600080fd5b80631e32f407116101c35780631e32f4071461022557806324e96df6146102385780632813d19d1461024b5780633477ee2e1461027b57600080fd5b806313a1c563146101ea5780631a203a31146101ff5780631b280ea914610212575b600080fd5b6101fd6101f8366004613fab565b6104d4565b005b6101fd61020d36600461407c565b610933565b6101fd6102203660046140a8565b610b0b565b6101fd610233366004614152565b610d84565b6101fd610246366004614216565b6110a2565b61025e61025936600461424b565b6112e6565b6040516102729897969594939291906142aa565b60405180910390f35b61028e61028936600461424b565b611565565b60405161027298979695949392919061432c565b6102b56102b036600461424b565b61175f565b60405161027291906144a3565b6102d56102d036600461424b565b611b4d565b6040516102729190614505565b6101fd6102f0366004614518565b611e37565b61030861030336600461424b565b612127565b604051610272979695949392919061457b565b6101fd6103293660046145f3565b612468565b61034e61033c36600461462f565b60036020526000908152604090205481565b604051908152602001610272565b61036f61036a36600461424b565b612628565b604051610272919061464a565b6101fd612a67565b61034e60025481565b6000546001600160a01b03165b6040516001600160a01b039091168152602001610272565b6000546001600160a01b031661039a565b600061039a565b61034e6103d836600461462f565b60046020526000908152604090205481565b61036f6103f836600461424b565b612a80565b610405612ec1565b6040516102729190614747565b61039a61042036600461424b565b612f2b565b3360009081526003602052604090205461034e565b6101fd610448366004614794565b612f55565b6101fd61045b3660046147c8565b613115565b61047361046e36600461424b565b6132a6565b60405161027299989796959493929190614821565b6101fd6104963660046148a0565b613527565b6101fd6104a93660046145f3565b613868565b6101fd6104bc36600461462f565b6139fe565b6101fd6104cf36600461424b565b613a77565b336000908152600360205260409020546105095760405162461bcd60e51b815260040161050090614994565b60405180910390fd5b835185511461052a5760405162461bcd60e51b8152600401610500906149c3565b60005b855181101561092b57600086828151811061054a5761054a6149fa565b602002602001015190506000868381518110610568576105686149fa565b602002602001015190506000868481518110610586576105866149fa565b6020026020010151905060008685815181106105a4576105a46149fa565b6020026020010151905060008686815181106105c2576105c26149fa565b6020026020010151905060046000866001600160a01b03166001600160a01b03168152602001908152602001600020546000146106595760405162461bcd60e51b815260206004820152602f60248201527f43616e64696461746520776974682074686520676976656e206164647265737360448201526e20616c72656164792065786973747360881b6064820152608401610500565b6001600160a01b0385166106a85760405162461bcd60e51b8152602060048201526016602482015275416464726573732063616e6e6f74206265207a65726f60501b6044820152606401610500565b60008451116106f05760405162461bcd60e51b81526020600482015260146024820152734e616d652063616e6e6f7420626520656d70747960601b6044820152606401610500565b600654600090610701906001614a26565b90506006604051806101200160405280428152602001886001600160a01b03168152602001336001600160a01b0316815260200187815260200160006001600160401b0381111561075457610754613d6b565b60405190808252806020026020018201604052801561077d578160200160208202803683370190505b508152602080820185905260408083018990526060808401899052608090930187905284546001818101875560009687529583902085516009909202019081559184015194820180546001600160a01b039687166001600160a01b0319918216179091559084015160028301805491909616911617909355810151909190600382019061080a9082614abf565b5060808201518051610826916004840191602090910190613c05565b5060a0820151600582015560c082015160068201906108459082614abf565b5060e0820151600782019061085a9082614abf565b5061010091909101516008909101553360009081526003602052604090205460059061088890600190614b7e565b81548110610898576108986149fa565b60009182526020808320600460099093020182018054600181018255908452818420018490556001600160a01b0389168352526040908190208290555181907fb132c360d5c4c80c0d43f46e53b9b874e559e8e8ea4156a5fec2a021f826d00a9061090a908890889088908890614b91565b60405180910390a2505050505050808061092390614bdc565b91505061052d565b505050505050565b6000610940600184614b7e565b905061095a33600090815260036020526040902054151590565b6109765760405162461bcd60e51b815260040161050090614994565b60068181548110610989576109896149fa565b9060005260206000209060090201600501546000036109ba5760405162461bcd60e51b815260040161050090614bf5565b60006001600160a01b0316600682815481106109d8576109d86149fa565b60009182526020909120600260099092020101546001600160a01b031614610a8e5760405162461bcd60e51b815260206004820152605760248201527f41732074686520636f6d70616e7920686173206265656e20616c72656164792060448201527f61737369676e65642c20596f752063616e6e6f74206f7665722077726974652060648201527f63757272656e7420636f6d70616e792064657461696c73000000000000000000608482015260a401610500565b8160068281548110610aa257610aa26149fa565b60009182526020918290206009919091020160020180546001600160a01b0319166001600160a01b03938416179055604051918416825282917f1004bf4098083445cd4ac13954fdcea1d9530a61f6f2a7d5a628bea6141eb17c910160405180910390a2505050565b6000610b18600188614b7e565b9050610b3233600090815260036020526040902054151590565b610b4e5760405162461bcd60e51b815260040161050090614994565b60068181548110610b6157610b616149fa565b906000526020600020906009020160050154600003610b925760405162461bcd60e51b815260040161050090614bf5565b336001600160a01b031660068281548110610baf57610baf6149fa565b60009182526020909120600260099092020101546001600160a01b031614610c335760405162461bcd60e51b815260206004820152603160248201527f596f7520646f206e6f742068617665207065726d697373696f6e20746f206564604482015270697420746869732063616e64696461746560781b6064820152608401610500565b8560068281548110610c4757610c476149fa565b90600052602060002090600902016003019081610c649190614abf565b508460068281548110610c7957610c796149fa565b90600052602060002090600902016006019081610c969190614abf565b508360068281548110610cab57610cab6149fa565b90600052602060002090600902016007019081610cc89190614abf565b508260068281548110610cdd57610cdd6149fa565b9060005260206000209060090201600801819055508160068281548110610d0657610d066149fa565b906000526020600020906009020160020160006101000a8154816001600160a01b0302191690836001600160a01b03160217905550807fbdb27b8859f11d297edb4d29bc56f12a3d84d3a4d7f5668d62acf04df78789b48787878787604051610d73959493929190614c3b565b60405180910390a250505050505050565b33600090815260036020526040902054610db05760405162461bcd60e51b815260040161050090614994565b83518551148015610dc2575082518551145b610dde5760405162461bcd60e51b8152600401610500906149c3565b60005b855181101561092b576000868281518110610dfe57610dfe6149fa565b602002602001015190506000868381518110610e1c57610e1c6149fa565b602002602001015190506000868481518110610e3a57610e3a6149fa565b602002602001015190506000868581518110610e5857610e586149fa565b602002602001015190506000868681518110610e7657610e766149fa565b6020026020010151905060068381548110610e9357610e936149fa565b906000526020600020906009020160050154600003610ec45760405162461bcd60e51b815260040161050090614bf5565b600754600090610ed5906001614a26565b604080516101208101825242815260208101898152918101839052606081018890526080810186905260a08101859052600060c0820181905260e082018190526101008201889052600780546001810182559152815160089091027fa66cc928b5edb82af9bd49922954155ab7b0942694bea4ce44661d9a8736c68881019182559251939450909290917fa66cc928b5edb82af9bd49922954155ab7b0942694bea4ce44661d9a8736c6890190610f8c9082614abf565b506040820151600282015560608201516003820190610fab9082614abf565b5060808201516004820190610fc09082614abf565b5060a08201516005820190610fd59082614abf565b5060c08201516006828101805460e086015161ffff1990911693151561ff001916939093176101009315158402179055920151600790910155805485908110611020576110206149fa565b60009182526020808320600460099093020191909101805460018101825590835291200181905560405181907fdf3f376d0902d940a4e067b169121175e19dffa31960867f2ce6943bc6cb5abb906110819089908990899089908990614c97565b60405180910390a2505050505050808061109a90614bdc565b915050610de1565b6110aa613ae7565b6110ef5760405162461bcd60e51b815260206004820152601660248201527513db9b1e481d995c9a599a595c8818d85b8818d85b1b60521b6044820152606401610500565b6007548211156111375760405162461bcd60e51b8152602060048201526013602482015272125b9d985b1a5908191bd8dd5b595b9d081251606a1b6044820152606401610500565b6000611144600184614b7e565b905060006007828154811061115b5761115b6149fa565b9060005260206000209060080201905080600201546000036111cd5760405162461bcd60e51b815260206004820152602560248201527f446f63756d656e74207769746820676976656e20494420646f6573206e6f7420604482015264195e1a5cdd60da1b6064820152608401610500565b600681015460ff161580156111ec57506006810154610100900460ff16155b61125e5760405162461bcd60e51b815260206004820152603760248201527f446f63756d656e74207769746820676976656e20494420697320616c7265616460448201527f79207665726966696564206f722063616e63656c6c65640000000000000000006064820152608401610500565b82156112a55760068101805461ff00191661010017905560405184907f7b4845702fcfeef348208aa5c3ef0909d12e56c50c288cdba03c5462cfd921b590600090a26112e0565b60068101805460ff1916600117905560405184907f4b93fd5160fbc8b35d08aff650902cf41c86e6df325a3eabab5bcca811976cf790600090a25b50505050565b600581815481106112f657600080fd5b60009182526020909120600990910201805460018201546002830180549294506001600160a01b03909116929161132c90614a3f565b80601f016020809104026020016040519081016040528092919081815260200182805461135890614a3f565b80156113a55780601f1061137a576101008083540402835291602001916113a5565b820191906000526020600020905b81548152906001019060200180831161138857829003601f168201915b5050505050908060030154908060050180546113c090614a3f565b80601f01602080910402602001604051908101604052809291908181526020018280546113ec90614a3f565b80156114395780601f1061140e57610100808354040283529160200191611439565b820191906000526020600020905b81548152906001019060200180831161141c57829003601f168201915b50505050509080600601549080600701805461145490614a3f565b80601f016020809104026020016040519081016040528092919081815260200182805461148090614a3f565b80156114cd5780601f106114a2576101008083540402835291602001916114cd565b820191906000526020600020905b8154815290600101906020018083116114b057829003601f168201915b5050505050908060080180546114e290614a3f565b80601f016020809104026020016040519081016040528092919081815260200182805461150e90614a3f565b801561155b5780601f106115305761010080835404028352916020019161155b565b820191906000526020600020905b81548152906001019060200180831161153e57829003601f168201915b5050505050905088565b6006818154811061157557600080fd5b600091825260209091206009909102018054600182015460028301546003840180549395506001600160a01b039283169492909116926115b490614a3f565b80601f01602080910402602001604051908101604052809291908181526020018280546115e090614a3f565b801561162d5780601f106116025761010080835404028352916020019161162d565b820191906000526020600020905b81548152906001019060200180831161161057829003601f168201915b50505050509080600501549080600601805461164890614a3f565b80601f016020809104026020016040519081016040528092919081815260200182805461167490614a3f565b80156116c15780601f10611696576101008083540402835291602001916116c1565b820191906000526020600020905b8154815290600101906020018083116116a457829003601f168201915b5050505050908060070180546116d690614a3f565b80601f016020809104026020016040519081016040528092919081815260200182805461170290614a3f565b801561174f5780601f106117245761010080835404028352916020019161174f565b820191906000526020600020905b81548152906001019060200180831161173257829003601f168201915b5050505050908060080154905088565b6005546060908211156117845760405162461bcd60e51b815260040161050090614cf6565b6000611791600184614b7e565b90506000600582815481106117a8576117a86149fa565b906000526020600020906009020160040180548060200260200160405190810160405280929190818152602001828054801561180357602002820191906000526020600020905b8154815260200190600101908083116117ef575b50505050509050600081516001600160401b0381111561182557611825613d6b565b60405190808252806020026020018201604052801561185e57816020015b61184b613c50565b8152602001906001900390816118435790505b50905060005b8251811015611b445760066001848381518110611883576118836149fa565b60200260200101516118959190614b7e565b815481106118a5576118a56149fa565b6000918252602091829020604080516101208101825260099093029091018054835260018101546001600160a01b039081169484019490945260028101549093169082015260038201805491929160608401919061190290614a3f565b80601f016020809104026020016040519081016040528092919081815260200182805461192e90614a3f565b801561197b5780601f106119505761010080835404028352916020019161197b565b820191906000526020600020905b81548152906001019060200180831161195e57829003601f168201915b50505050508152602001600482018054806020026020016040519081016040528092919081815260200182805480156119d357602002820191906000526020600020905b8154815260200190600101908083116119bf575b50505050508152602001600582015481526020016006820180546119f690614a3f565b80601f0160208091040260200160405190810160405280929190818152602001828054611a2290614a3f565b8015611a6f5780601f10611a4457610100808354040283529160200191611a6f565b820191906000526020600020905b815481529060010190602001808311611a5257829003601f168201915b50505050508152602001600782018054611a8890614a3f565b80601f0160208091040260200160405190810160405280929190818152602001828054611ab490614a3f565b8015611b015780601f10611ad657610100808354040283529160200191611b01565b820191906000526020600020905b815481529060010190602001808311611ae457829003601f168201915b50505050508152602001600882015481525050828281518110611b2657611b266149fa565b60200260200101819052508080611b3c90614bdc565b915050611864565b50949350505050565b611b55613c50565b600654821115611b775760405162461bcd60e51b815260040161050090614d22565b6000611b84600184614b7e565b9050600060068281548110611b9b57611b9b6149fa565b6000918252602091829020604080516101208101825260099093029091018054835260018101546001600160a01b0390811694840194909452600281015490931690820152600382018054919291606084019190611bf890614a3f565b80601f0160208091040260200160405190810160405280929190818152602001828054611c2490614a3f565b8015611c715780601f10611c4657610100808354040283529160200191611c71565b820191906000526020600020905b815481529060010190602001808311611c5457829003601f168201915b5050505050815260200160048201805480602002602001604051908101604052809291908181526020018280548015611cc957602002820191906000526020600020905b815481526020019060010190808311611cb5575b5050505050815260200160058201548152602001600682018054611cec90614a3f565b80601f0160208091040260200160405190810160405280929190818152602001828054611d1890614a3f565b8015611d655780601f10611d3a57610100808354040283529160200191611d65565b820191906000526020600020905b815481529060010190602001808311611d4857829003601f168201915b50505050508152602001600782018054611d7e90614a3f565b80601f0160208091040260200160405190810160405280929190818152602001828054611daa90614a3f565b8015611df75780601f10611dcc57610100808354040283529160200191611df7565b820191906000526020600020905b815481529060010190602001808311611dda57829003601f168201915b5050505050815260200160088201548152505090508060a00151600003611e305760405162461bcd60e51b815260040161050090614bf5565b9392505050565b611e3f613af2565b8051825114611e605760405162461bcd60e51b8152600401610500906149c3565b60005b8251811015612122576000838281518110611e8057611e806149fa565b602002602001015190506000838381518110611e9e57611e9e6149fa565b6020026020010151905060006001600160a01b0316826001600160a01b031603611efc5760405162461bcd60e51b815260206004820152600f60248201526e496e76616c6964206164647265737360881b6044820152606401610500565b6001600160a01b03811661204b5760005b60015481101561204557826001600160a01b031660018281548110611f3457611f346149fa565b6000918252602090912001546001600160a01b0316036120335760018054611f5d908290614b7e565b81548110611f6d57611f6d6149fa565b600091825260209091200154600180546001600160a01b039092169183908110611f9957611f996149fa565b9060005260206000200160006101000a8154816001600160a01b0302191690836001600160a01b031602179055506001805480611fd857611fd8614d50565b600082815260208120820160001990810180546001600160a01b03191690559091019091556040516001600160a01b038516917f44a3cd4eb5cc5748f6169df057b1cb2ae4c383e87cd94663c430e095d4cba42491a2612045565b8061203d81614bdc565b915050611f0d565b5061210d565b60005b60015481101561210b57826001600160a01b031660018281548110612075576120756149fa565b6000918252602090912001546001600160a01b0316036120f95781600182815481106120a3576120a36149fa565b6000918252602082200180546001600160a01b0319166001600160a01b03938416179055604051848316928616917f50d741fe04ad9863c69d1406658f6ec7c4f5e48ec2faf966a36a3e47fc05c9d991a361210b565b8061210381614bdc565b91505061204e565b505b5050808061211a90614bdc565b915050611e63565b505050565b60008060608060006060806005805490508811156121575760405162461bcd60e51b815260040161050090614cf6565b600061216460018a614b7e565b905060006005828154811061217b5761217b6149fa565b9060005260206000209060090201905080600301546000036121eb5760405162461bcd60e51b8152602060048201526024808201527f436f6d70616e79207769746820676976656e20494420646f6573206e6f7420656044820152631e1a5cdd60e21b6064820152608401610500565b80600301548160010160009054906101000a90046001600160a01b031682600201836005018460060154856007018660080184805461222990614a3f565b80601f016020809104026020016040519081016040528092919081815260200182805461225590614a3f565b80156122a25780601f10612277576101008083540402835291602001916122a2565b820191906000526020600020905b81548152906001019060200180831161228557829003601f168201915b505050505094508380546122b590614a3f565b80601f01602080910402602001604051908101604052809291908181526020018280546122e190614a3f565b801561232e5780601f106123035761010080835404028352916020019161232e565b820191906000526020600020905b81548152906001019060200180831161231157829003601f168201915b5050505050935081805461234190614a3f565b80601f016020809104026020016040519081016040528092919081815260200182805461236d90614a3f565b80156123ba5780601f1061238f576101008083540402835291602001916123ba565b820191906000526020600020905b81548152906001019060200180831161239d57829003601f168201915b505050505091508080546123cd90614a3f565b80601f01602080910402602001604051908101604052809291908181526020018280546123f990614a3f565b80156124465780601f1061241b57610100808354040283529160200191612446565b820191906000526020600020905b81548152906001019060200180831161242957829003601f168201915b5050505050905098509850985098509850985098505050919395979092949650565b612470613ae7565b8061248557506000546001600160a01b031633145b6124a15760405162461bcd60e51b815260040161050090614d66565b60008151116124f25760405162461bcd60e51b815260206004820152601760248201527f4e6f20636f6d70616e79204944732070726f76696465640000000000000000006044820152606401610500565b60005b8151811015612624576000828281518110612512576125126149fa565b602002602001015190506005805490508111156125415760405162461bcd60e51b815260040161050090614cf6565b600061254e600183614b7e565b60405190915082907f028fe2791b514c47642f0d652f7c237752aea1929ed16396ef24b45eb7e2b31590600090a26005818154811061258f5761258f6149fa565b6000918252602082206009909102018181556001810180546001600160a01b0319169055906125c16002830182613cae565b60038201600090556004820160006125d99190613ce8565b6125e7600583016000613cae565b60068201600090556007820160006125ff9190613cae565b61260d600883016000613cae565b50505050808061261c90614bdc565b9150506124f5565b5050565b60065460609082111561264d5760405162461bcd60e51b815260040161050090614d22565b600061265a600184614b7e565b9050600060068281548110612671576126716149fa565b9060005260206000209060090201905080600501546000036126a55760405162461bcd60e51b815260040161050090614bf5565b6000816004018054806020026020016040519081016040528092919081815260200182805480156126f557602002820191906000526020600020905b8154815260200190600101908083116126e1575b50505050509050600081516001600160401b0381111561271757612717613d6b565b60405190808252806020026020018201604052801561275057816020015b61273d613d06565b8152602001906001900390816127355790505b50905060005b8251811015612a5d576007838281518110612773576127736149fa565b60200260200101518154811061278b5761278b6149fa565b906000526020600020906008020160405180610120016040529081600082015481526020016001820180546127bf90614a3f565b80601f01602080910402602001604051908101604052809291908181526020018280546127eb90614a3f565b80156128385780601f1061280d57610100808354040283529160200191612838565b820191906000526020600020905b81548152906001019060200180831161281b57829003601f168201915b505050505081526020016002820154815260200160038201805461285b90614a3f565b80601f016020809104026020016040519081016040528092919081815260200182805461288790614a3f565b80156128d45780601f106128a9576101008083540402835291602001916128d4565b820191906000526020600020905b8154815290600101906020018083116128b757829003601f168201915b505050505081526020016004820180546128ed90614a3f565b80601f016020809104026020016040519081016040528092919081815260200182805461291990614a3f565b80156129665780601f1061293b57610100808354040283529160200191612966565b820191906000526020600020905b81548152906001019060200180831161294957829003601f168201915b5050505050815260200160058201805461297f90614a3f565b80601f01602080910402602001604051908101604052809291908181526020018280546129ab90614a3f565b80156129f85780601f106129cd576101008083540402835291602001916129f8565b820191906000526020600020905b8154815290600101906020018083116129db57829003601f168201915b5050509183525050600682015460ff8082161515602084015261010090910416151560408201526007909101546060909101528251839083908110612a3f57612a3f6149fa565b60200260200101819052508080612a5590614bdc565b915050612756565b5095945050505050565b612a6f613af2565b612a796000613b4c565b565b905090565b600654606090821115612aa55760405162461bcd60e51b815260040161050090614d22565b6000612ab2600184614b7e565b9050600060068281548110612ac957612ac96149fa565b906000526020600020906009020190508060050154600003612afd5760405162461bcd60e51b815260040161050090614bf5565b600081600401805480602002602001604051908101604052809291908181526020018280548015612b4d57602002820191906000526020600020905b815481526020019060010190808311612b39575b50505050509050600081516001600160401b03811115612b6f57612b6f613d6b565b604051908082528060200260200182016040528015612ba857816020015b612b95613d06565b815260200190600190039081612b8d5790505b50905060005b8251811015612a5d5760076001848381518110612bcd57612bcd6149fa565b6020026020010151612bdf9190614b7e565b81548110612bef57612bef6149fa565b90600052602060002090600802016040518061012001604052908160008201548152602001600182018054612c2390614a3f565b80601f0160208091040260200160405190810160405280929190818152602001828054612c4f90614a3f565b8015612c9c5780601f10612c7157610100808354040283529160200191612c9c565b820191906000526020600020905b815481529060010190602001808311612c7f57829003601f168201915b5050505050815260200160028201548152602001600382018054612cbf90614a3f565b80601f0160208091040260200160405190810160405280929190818152602001828054612ceb90614a3f565b8015612d385780601f10612d0d57610100808354040283529160200191612d38565b820191906000526020600020905b815481529060010190602001808311612d1b57829003601f168201915b50505050508152602001600482018054612d5190614a3f565b80601f0160208091040260200160405190810160405280929190818152602001828054612d7d90614a3f565b8015612dca5780601f10612d9f57610100808354040283529160200191612dca565b820191906000526020600020905b815481529060010190602001808311612dad57829003601f168201915b50505050508152602001600582018054612de390614a3f565b80601f0160208091040260200160405190810160405280929190818152602001828054612e0f90614a3f565b8015612e5c5780601f10612e3157610100808354040283529160200191612e5c565b820191906000526020600020905b815481529060010190602001808311612e3f57829003601f168201915b5050509183525050600682015460ff8082161515602084015261010090910416151560408201526007909101546060909101528251839083908110612ea357612ea36149fa565b60200260200101819052508080612eb990614bdc565b915050612bae565b6060612ecb613af2565b6001805480602002602001604051908101604052809291908181526020018280548015612f2157602002820191906000526020600020905b81546001600160a01b03168152600190910190602001808311612f03575b5050505050905090565b60018181548110612f3b57600080fd5b6000918252602090912001546001600160a01b0316905081565b612f5d613af2565b6000815111612fa45760405162461bcd60e51b8152602060048201526013602482015272139bc81d995c9a599a595c9cc81d1bc8185919606a1b6044820152606401610500565b6002548151600154612fb69190614a26565b11156130105760405162461bcd60e51b815260206004820152602360248201527f45786365656473206d6178696d756d206e756d626572206f662076657269666960448201526265727360e81b6064820152608401610500565b60005b8151811015612624576000828281518110613030576130306149fa565b6020026020010151905060006001600160a01b0316816001600160a01b03160361308e5760405162461bcd60e51b815260206004820152600f60248201526e496e76616c6964206164647265737360881b6044820152606401610500565b60018054808201825560009182527fb10e2d527612073b26eecdfd717e6a320cf44b4afac2b0732d9fcbe2b7fa0cf60180546001600160a01b0319166001600160a01b03841690811790915560405190917f6d05492139c5ea989514a5d2150c028041e5c087e2a39967f67dc7d2655adb8191a2508061310d81614bdc565b915050613013565b336000908152600360205260409020546131415760405162461bcd60e51b815260040161050090614994565b80518251146131625760405162461bcd60e51b8152600401610500906149c3565b60005b82518110156121225760008361317c600184614b7e565b8151811061318c5761318c6149fa565b602002602001015190506000836001846131a69190614b7e565b815181106131b6576131b66149fa565b60200260200101519050600682815481106131d3576131d36149fa565b9060005260206000209060090201600501546000036132045760405162461bcd60e51b815260040161050090614bf5565b6000613211600183614b7e565b60408051848152602081018690529192507f61656cb8d1dc6013bb7713ae498059b6f4df3c60e832e655a6765c0c54863008910160405180910390a160068381548110613260576132606149fa565b90600052602060002090600902016004018181548110613282576132826149fa565b9060005260206000200160009055505050808061329e90614bdc565b915050613165565b600781815481106132b657600080fd5b600091825260209091206008909102018054600182018054919350906132db90614a3f565b80601f016020809104026020016040519081016040528092919081815260200182805461330790614a3f565b80156133545780601f1061332957610100808354040283529160200191613354565b820191906000526020600020905b81548152906001019060200180831161333757829003601f168201915b50505050509080600201549080600301805461336f90614a3f565b80601f016020809104026020016040519081016040528092919081815260200182805461339b90614a3f565b80156133e85780601f106133bd576101008083540402835291602001916133e8565b820191906000526020600020905b8154815290600101906020018083116133cb57829003601f168201915b5050505050908060040180546133fd90614a3f565b80601f016020809104026020016040519081016040528092919081815260200182805461342990614a3f565b80156134765780601f1061344b57610100808354040283529160200191613476565b820191906000526020600020905b81548152906001019060200180831161345957829003601f168201915b50505050509080600501805461348b90614a3f565b80601f01602080910402602001604051908101604052809291908181526020018280546134b790614a3f565b80156135045780601f106134d957610100808354040283529160200191613504565b820191906000526020600020905b8154815290600101906020018083116134e757829003601f168201915b505050506006830154600790930154919260ff8082169361010090920416915089565b61352f613ae7565b8061354457506000546001600160a01b031633145b6135605760405162461bcd60e51b815260040161050090614d66565b84518651148015613572575083518651145b801561357f575082518651145b801561358c575081518651145b8015613599575080518651145b6135b55760405162461bcd60e51b8152600401610500906149c3565b60005b865181101561385f5760008782815181106135d5576135d56149fa565b6020026020010151905060008783815181106135f3576135f36149fa565b602002602001015190506000878481518110613611576136116149fa565b60200260200101519050600087858151811061362f5761362f6149fa565b60200260200101519050600087868151811061364d5761364d6149fa565b60200260200101519050600087878151811061366b5761366b6149fa565b60200260200101519050600060058054905060016136899190614a26565b90506005604051806101200160405280428152602001896001600160a01b0316815260200188815260200183815260200160006001600160401b038111156136d3576136d3613d6b565b6040519080825280602002602001820160405280156136fc578160200160208202803683370190505b5081526020808201899052604080830189905260608301889052608090920186905283546001808201865560009586529482902084516009909202019081559083015193810180546001600160a01b0319166001600160a01b039095169490941790935581015190919060028201906137759082614abf565b50606082015160038201556080820151805161379b916004840191602090910190613c05565b5060a082015160058201906137b09082614abf565b5060c0820151600682015560e082015160078201906137cf9082614abf565b5061010082015160088201906137e59082614abf565b5050506001600160a01b038716600081815260036020526040908190208390555182907fc9c99e7b42f7789f7ac090a92a6e5f98c03ad412be267f7fb9bb60b571b690879061383d908a908a908a908a908a90614c97565b60405180910390a350505050505050808061385790614bdc565b9150506135b8565b50505050505050565b613870613ae7565b8061388957503360009081526003602052604090205415155b6138a55760405162461bcd60e51b815260040161050090614d66565b60005b8151811015612624576000826138bf600184614b7e565b815181106138cf576138cf6149fa565b60200260200101519050600681815481106138ec576138ec6149fa565b90600052602060002090600902016005015460000361391d5760405162461bcd60e51b815260040161050090614bf5565b600061392a600183614b7e565b60405190915082907f294c5a9bc8a39e6e06502bc8da429980f6c7b0990d75b682c12cb8705e3ace8590600090a26006818154811061396b5761396b6149fa565b6000918252602082206009909102018181556001810180546001600160a01b03199081169091556002820180549091169055906139ab6003830182613cae565b6139b9600483016000613ce8565b60058201600090556006820160006139d19190613cae565b6139df600783016000613cae565b60088201600090555050505080806139f690614bdc565b9150506138a8565b613a06613af2565b6001600160a01b038116613a6b5760405162461bcd60e51b815260206004820152602660248201527f4f776e61626c653a206e6577206f776e657220697320746865207a65726f206160448201526564647265737360d01b6064820152608401610500565b613a7481613b4c565b50565b613a7f613af2565b60008111613ae25760405162461bcd60e51b815260206004820152602a60248201527f4d6178696d756d207665726966696572732073686f756c6420626520677265616044820152690746572207468616e20360b41b6064820152608401610500565b600255565b6000612a7b33613b9c565b6000546001600160a01b03163314612a795760405162461bcd60e51b815260206004820181905260248201527f4f776e61626c653a2063616c6c6572206973206e6f7420746865206f776e65726044820152606401610500565b600080546001600160a01b038381166001600160a01b0319831681178455604051919092169283917f8be0079c531659141344cd1fd0a4f28419497f9722a3daafe3b4186f6b6457e09190a35050565b6000805b600154811015613bfc57826001600160a01b031660018281548110613bc757613bc76149fa565b6000918252602090912001546001600160a01b031603613bea5750600192915050565b80613bf481614bdc565b915050613ba0565b50600092915050565b828054828255906000526020600020908101928215613c40579160200282015b82811115613c40578251825591602001919060010190613c25565b50613c4c929150613d56565b5090565b6040518061012001604052806000815260200160006001600160a01b0316815260200160006001600160a01b031681526020016060815260200160608152602001600081526020016060815260200160608152602001600081525090565b508054613cba90614a3f565b6000825580601f10613cca575050565b601f016020900490600052602060002090810190613a749190613d56565b5080546000825590600052602060002090810190613a749190613d56565b604051806101200160405280600081526020016060815260200160008152602001606081526020016060815260200160608152602001600015158152602001600015158152602001600081525090565b5b80821115613c4c5760008155600101613d57565b634e487b7160e01b600052604160045260246000fd5b604051601f8201601f191681016001600160401b0381118282101715613da957613da9613d6b565b604052919050565b60006001600160401b03821115613dca57613dca613d6b565b5060051b60200190565b80356001600160a01b0381168114613deb57600080fd5b919050565b600082601f830112613e0157600080fd5b81356020613e16613e1183613db1565b613d81565b82815260059290921b84018101918181019086841115613e3557600080fd5b8286015b84811015613e5757613e4a81613dd4565b8352918301918301613e39565b509695505050505050565b600082601f830112613e7357600080fd5b81356001600160401b03811115613e8c57613e8c613d6b565b613e9f601f8201601f1916602001613d81565b818152846020838601011115613eb457600080fd5b816020850160208301376000918101602001919091529392505050565b600082601f830112613ee257600080fd5b81356020613ef2613e1183613db1565b82815260059290921b84018101918181019086841115613f1157600080fd5b8286015b84811015613e575780356001600160401b03811115613f345760008081fd5b613f428986838b0101613e62565b845250918301918301613f15565b600082601f830112613f6157600080fd5b81356020613f71613e1183613db1565b82815260059290921b84018101918181019086841115613f9057600080fd5b8286015b84811015613e575780358352918301918301613f94565b600080600080600060a08688031215613fc357600080fd5b85356001600160401b0380821115613fda57600080fd5b613fe689838a01613df0565b96506020880135915080821115613ffc57600080fd5b61400889838a01613ed1565b9550604088013591508082111561401e57600080fd5b61402a89838a01613ed1565b9450606088013591508082111561404057600080fd5b61404c89838a01613ed1565b9350608088013591508082111561406257600080fd5b5061406f88828901613f50565b9150509295509295909350565b6000806040838503121561408f57600080fd5b8235915061409f60208401613dd4565b90509250929050565b60008060008060008060c087890312156140c157600080fd5b8635955060208701356001600160401b03808211156140df57600080fd5b6140eb8a838b01613e62565b9650604089013591508082111561410157600080fd5b61410d8a838b01613e62565b9550606089013591508082111561412357600080fd5b5061413089828a01613e62565b9350506080870135915061414660a08801613dd4565b90509295509295509295565b600080600080600060a0868803121561416a57600080fd5b85356001600160401b038082111561418157600080fd5b61418d89838a01613ed1565b965060208801359150808211156141a357600080fd5b6141af89838a01613ed1565b955060408801359150808211156141c557600080fd5b6141d189838a01613f50565b945060608801359150808211156141e757600080fd5b6141f389838a01613ed1565b9350608088013591508082111561420957600080fd5b5061406f88828901613ed1565b6000806040838503121561422957600080fd5b823591506020830135801515811461424057600080fd5b809150509250929050565b60006020828403121561425d57600080fd5b5035919050565b6000815180845260005b8181101561428a5760208185018101518683018201520161426e565b506000602082860101526020601f19601f83011685010191505092915050565b8881526001600160a01b0388166020820152610100604082018190526000906142d58382018a614264565b905087606084015282810360808401526142ef8188614264565b90508560a084015282810360c08401526143098186614264565b905082810360e084015261431d8185614264565b9b9a5050505050505050505050565b8881526001600160a01b038881166020830152871660408201526101006060820181905260009061435f83820189614264565b905086608084015282810360a08401526143798187614264565b905082810360c084015261438d8186614264565b9150508260e08301529998505050505050505050565b600081518084526020808501945080840160005b838110156143d3578151875295820195908201906001016143b7565b509495945050505050565b600061012082518452602083015161440160208601826001600160a01b03169052565b50604083015161441c60408601826001600160a01b03169052565b50606083015181606086015261443482860182614264565b9150506080830151848203608086015261444e82826143a3565b91505060a083015160a085015260c083015184820360c08601526144728282614264565b91505060e083015184820360e086015261448c8282614264565b610100948501519590940194909452509092915050565b6000602080830181845280855180835260408601915060408160051b870101925083870160005b828110156144f857603f198886030184526144e68583516143de565b945092850192908501906001016144ca565b5092979650505050505050565b602081526000611e3060208301846143de565b6000806040838503121561452b57600080fd5b82356001600160401b038082111561454257600080fd5b61454e86838701613df0565b9350602085013591508082111561456457600080fd5b5061457185828601613df0565b9150509250929050565b8781526001600160a01b038716602082015260e0604082018190526000906145a590830188614264565b82810360608401526145b78188614264565b905085608084015282810360a08401526145d18186614264565b905082810360c08401526145e58185614264565b9a9950505050505050505050565b60006020828403121561460557600080fd5b81356001600160401b0381111561461b57600080fd5b61462784828501613f50565b949350505050565b60006020828403121561464157600080fd5b611e3082613dd4565b60006020808301818452808551808352604092508286019150828160051b87010184880160005b8381101561473957603f1989840301855281516101208151855288820151818a8701526146a082870182614264565b9150508782015188860152606080830151868303828801526146c28382614264565b92505050608080830151868303828801526146dd8382614264565b9250505060a080830151868303828801526146f88382614264565b9250505060c08083015161470f8288018215159052565b505060e0828101511515908601526101009182015191909401529386019390860190600101614671565b509098975050505050505050565b6020808252825182820181905260009190848201906040850190845b818110156147885783516001600160a01b031683529284019291840191600101614763565b50909695505050505050565b6000602082840312156147a657600080fd5b81356001600160401b038111156147bc57600080fd5b61462784828501613df0565b600080604083850312156147db57600080fd5b82356001600160401b03808211156147f257600080fd5b6147fe86838701613f50565b9350602085013591508082111561481457600080fd5b5061457185828601613f50565b60006101208b835280602084015261483b8184018c614264565b90508960408401528281036060840152614855818a614264565b905082810360808401526148698189614264565b905082810360a084015261487d8188614264565b95151560c0840152505091151560e0830152610100909101529695505050505050565b60008060008060008060c087890312156148b957600080fd5b86356001600160401b03808211156148d057600080fd5b6148dc8a838b01613df0565b975060208901359150808211156148f257600080fd5b6148fe8a838b01613ed1565b9650604089013591508082111561491457600080fd5b6149208a838b01613ed1565b9550606089013591508082111561493657600080fd5b6149428a838b01613f50565b9450608089013591508082111561495857600080fd5b6149648a838b01613ed1565b935060a089013591508082111561497a57600080fd5b5061498789828a01613ed1565b9150509295509295509295565b60208082526015908201527413db9b1e4818dbdb5c185b9e4818d85b8818d85b1b605a1b604082015260600190565b60208082526018908201527f4d69736d61746368656420696e707574206c656e677468730000000000000000604082015260600190565b634e487b7160e01b600052603260045260246000fd5b634e487b7160e01b600052601160045260246000fd5b80820180821115614a3957614a39614a10565b92915050565b600181811c90821680614a5357607f821691505b602082108103614a7357634e487b7160e01b600052602260045260246000fd5b50919050565b601f82111561212257600081815260208120601f850160051c81016020861015614aa05750805b601f850160051c820191505b8181101561092b57828155600101614aac565b81516001600160401b03811115614ad857614ad8613d6b565b614aec81614ae68454614a3f565b84614a79565b602080601f831160018114614b215760008415614b095750858301515b600019600386901b1c1916600185901b17855561092b565b600085815260208120601f198616915b82811015614b5057888601518255948401946001909101908401614b31565b5085821015614b6e5787850151600019600388901b60f8161c191681555b5050505050600190811b01905550565b81810381811115614a3957614a39614a10565b608081526000614ba46080830187614264565b8281036020840152614bb68187614264565b90508281036040840152614bca8186614264565b91505082606083015295945050505050565b600060018201614bee57614bee614a10565b5060010190565b60208082526026908201527f43616e646964617465207769746820676976656e20494420646f6573206e6f7460408201526508195e1a5cdd60d21b606082015260800190565b60a081526000614c4e60a0830188614264565b8281036020840152614c608188614264565b90508281036040840152614c748187614264565b606084019590955250506001600160a01b03919091166080909101529392505050565b60a081526000614caa60a0830188614264565b8281036020840152614cbc8188614264565b90508560408401528281036060840152614cd68186614264565b90508281036080840152614cea8185614264565b98975050505050505050565b602080825260129082015271125b9d985b1a590818dbdb5c185b9e48125160721b604082015260600190565b602080825260149082015273125b9d985b1a590818d85b991a59185d1948125160621b604082015260600190565b634e487b7160e01b600052603160045260246000fd5b6020808252601f908201527f4f6e6c79207665726966696572206f72206f776e65722063616e2063616c6c0060408201526060019056fea26469706673582212201208f4a82636cb9c74f6e6a462a3da220415767c920ac2233182be2277a4dc3764736f6c63430008150033",
  "linkReferences": {},
  "deployedLinkReferences": {}
}