{
  "_format": "hh-sol-artifact-1",
  "contractName": "Verification",
  "sourceName": "src/contracts/Verification.sol",
  "abi": [
    {
      "anonymous": false,
      "inputs": [
        {
          "indexed": true,
          "internalType": "uint256",
          "name": "id",
          "type": "uint256"
        },
        {
          "indexed": false,
          "internalType": "string",
          "name": "name",
          "type": "string"
        }
      ],
      "name": "CandidateAdded",
      "type": "event"
    },
    {
      "anonymous": false,
      "inputs": [
        {
          "indexed": true,
          "internalType": "uint256",
          "name": "id",
          "type": "uint256"
        }
      ],
      "name": "CandidateRemoved",
      "type": "event"
    },
    {
      "anonymous": false,
      "inputs": [
        {
          "indexed": true,
          "internalType": "uint256",
          "name": "id",
          "type": "uint256"
        },
        {
          "indexed": true,
          "internalType": "address",
          "name": "companyAddress",
          "type": "address"
        },
        {
          "indexed": false,
          "internalType": "string",
          "name": "name",
          "type": "string"
        }
      ],
      "name": "CompanyAdded",
      "type": "event"
    },
    {
      "anonymous": false,
      "inputs": [
        {
          "indexed": true,
          "internalType": "uint256",
          "name": "id",
          "type": "uint256"
        }
      ],
      "name": "CompanyRemoved",
      "type": "event"
    },
    {
      "anonymous": false,
      "inputs": [
        {
          "indexed": true,
          "internalType": "uint256",
          "name": "id",
          "type": "uint256"
        },
        {
          "indexed": false,
          "internalType": "string",
          "name": "name",
          "type": "string"
        },
        {
          "indexed": false,
          "internalType": "bytes",
          "name": "cid",
          "type": "bytes"
        },
        {
          "indexed": false,
          "internalType": "uint256",
          "name": "companyId",
          "type": "uint256"
        },
        {
          "indexed": false,
          "internalType": "uint256",
          "name": "candidateId",
          "type": "uint256"
        }
      ],
      "name": "DocumentAdded",
      "type": "event"
    },
    {
      "anonymous": false,
      "inputs": [
        {
          "indexed": false,
          "internalType": "uint256",
          "name": "documentId",
          "type": "uint256"
        },
        {
          "indexed": false,
          "internalType": "uint256",
          "name": "candidateId",
          "type": "uint256"
        },
        {
          "indexed": false,
          "internalType": "uint256",
          "name": "companyId",
          "type": "uint256"
        }
      ],
      "name": "DocumentRemoved",
      "type": "event"
    },
    {
      "anonymous": false,
      "inputs": [
        {
          "indexed": true,
          "internalType": "uint256",
          "name": "id",
          "type": "uint256"
        }
      ],
      "name": "DocumentVerified",
      "type": "event"
    },
    {
      "anonymous": false,
      "inputs": [
        {
          "indexed": true,
          "internalType": "address",
          "name": "previousOwner",
          "type": "address"
        },
        {
          "indexed": true,
          "internalType": "address",
          "name": "newOwner",
          "type": "address"
        }
      ],
      "name": "OwnershipTransferred",
      "type": "event"
    },
    {
      "anonymous": false,
      "inputs": [
        {
          "indexed": true,
          "internalType": "address",
          "name": "verifier",
          "type": "address"
        }
      ],
      "name": "VerifierAdded",
      "type": "event"
    },
    {
      "anonymous": false,
      "inputs": [
        {
          "indexed": true,
          "internalType": "address",
          "name": "verifier",
          "type": "address"
        }
      ],
      "name": "VerifierRemoved",
      "type": "event"
    },
    {
      "anonymous": false,
      "inputs": [
        {
          "indexed": true,
          "internalType": "address",
          "name": "oldVerifier",
          "type": "address"
        },
        {
          "indexed": true,
          "internalType": "address",
          "name": "newVerifier",
          "type": "address"
        }
      ],
      "name": "VerifierReplaced",
      "type": "event"
    },
    {
      "inputs": [
        {
          "internalType": "uint256[]",
          "name": "_ids",
          "type": "uint256[]"
        },
        {
          "internalType": "string[]",
          "name": "_names",
          "type": "string[]"
        }
      ],
      "name": "addCandidates",
      "outputs": [],
      "stateMutability": "nonpayable",
      "type": "function"
    },
    {
      "inputs": [
        {
          "internalType": "uint256[]",
          "name": "_ids",
          "type": "uint256[]"
        },
        {
          "internalType": "address[]",
          "name": "_addresses",
          "type": "address[]"
        },
        {
          "internalType": "string[]",
          "name": "_names",
          "type": "string[]"
        }
      ],
      "name": "addCompanies",
      "outputs": [],
      "stateMutability": "nonpayable",
      "type": "function"
    },
    {
      "inputs": [
        {
          "internalType": "string[]",
          "name": "_names",
          "type": "string[]"
        },
        {
          "internalType": "bytes[]",
          "name": "_cids",
          "type": "bytes[]"
        },
        {
          "internalType": "uint256[]",
          "name": "_candidateIds",
          "type": "uint256[]"
        }
      ],
      "name": "addDocuments",
      "outputs": [],
      "stateMutability": "nonpayable",
      "type": "function"
    },
    {
      "inputs": [
        {
          "internalType": "address[]",
          "name": "_verifiers",
          "type": "address[]"
        }
      ],
      "name": "addVerifiers",
      "outputs": [],
      "stateMutability": "nonpayable",
      "type": "function"
    },
    {
      "inputs": [
        {
          "internalType": "uint256",
          "name": "",
          "type": "uint256"
        }
      ],
      "name": "candidates",
      "outputs": [
        {
          "internalType": "string",
          "name": "name",
          "type": "string"
        },
        {
          "internalType": "uint256",
          "name": "Id",
          "type": "uint256"
        }
      ],
      "stateMutability": "view",
      "type": "function"
    },
    {
      "inputs": [
        {
          "internalType": "uint256",
          "name": "",
          "type": "uint256"
        }
      ],
      "name": "companies",
      "outputs": [
        {
          "internalType": "address",
          "name": "address_",
          "type": "address"
        },
        {
          "internalType": "string",
          "name": "name",
          "type": "string"
        },
        {
          "internalType": "uint256",
          "name": "Id",
          "type": "uint256"
        }
      ],
      "stateMutability": "view",
      "type": "function"
    },
    {
      "inputs": [
        {
          "internalType": "address",
          "name": "",
          "type": "address"
        }
      ],
      "name": "companyAddress",
      "outputs": [
        {
          "internalType": "address",
          "name": "address_",
          "type": "address"
        },
        {
          "internalType": "string",
          "name": "name",
          "type": "string"
        },
        {
          "internalType": "uint256",
          "name": "Id",
          "type": "uint256"
        }
      ],
      "stateMutability": "view",
      "type": "function"
    },
    {
      "inputs": [
        {
          "internalType": "uint256",
          "name": "",
          "type": "uint256"
        },
        {
          "internalType": "uint256",
          "name": "",
          "type": "uint256"
        }
      ],
      "name": "companyCandidateDocuments",
      "outputs": [
        {
          "internalType": "uint256",
          "name": "",
          "type": "uint256"
        }
      ],
      "stateMutability": "view",
      "type": "function"
    },
    {
      "inputs": [
        {
          "internalType": "uint256",
          "name": "",
          "type": "uint256"
        }
      ],
      "name": "documents",
      "outputs": [
        {
          "internalType": "string",
          "name": "name",
          "type": "string"
        },
        {
          "internalType": "bytes",
          "name": "cid",
          "type": "bytes"
        },
        {
          "internalType": "bool",
          "name": "isVerified",
          "type": "bool"
        }
      ],
      "stateMutability": "view",
      "type": "function"
    },
    {
      "inputs": [
        {
          "internalType": "uint256",
          "name": "_id",
          "type": "uint256"
        }
      ],
      "name": "getCandidate",
      "outputs": [
        {
          "internalType": "string",
          "name": "",
          "type": "string"
        },
        {
          "internalType": "uint256",
          "name": "",
          "type": "uint256"
        }
      ],
      "stateMutability": "view",
      "type": "function"
    },
    {
      "inputs": [
        {
          "internalType": "uint256",
          "name": "_id",
          "type": "uint256"
        }
      ],
      "name": "getCompany",
      "outputs": [
        {
          "internalType": "address",
          "name": "",
          "type": "address"
        },
        {
          "internalType": "string",
          "name": "",
          "type": "string"
        },
        {
          "internalType": "uint256",
          "name": "",
          "type": "uint256"
        }
      ],
      "stateMutability": "view",
      "type": "function"
    },
    {
      "inputs": [],
      "name": "getCompanyIdOfSender",
      "outputs": [
        {
          "internalType": "uint256",
          "name": "",
          "type": "uint256"
        }
      ],
      "stateMutability": "view",
      "type": "function"
    },
    {
      "inputs": [
        {
          "internalType": "uint256",
          "name": "_companyId",
          "type": "uint256"
        },
        {
          "internalType": "uint256",
          "name": "_candidateId",
          "type": "uint256"
        }
      ],
      "name": "getDocument",
      "outputs": [
        {
          "internalType": "uint256",
          "name": "",
          "type": "uint256"
        }
      ],
      "stateMutability": "view",
      "type": "function"
    },
    {
      "inputs": [],
      "name": "getOwner",
      "outputs": [
        {
          "internalType": "address",
          "name": "",
          "type": "address"
        }
      ],
      "stateMutability": "view",
      "type": "function"
    },
    {
      "inputs": [],
      "name": "getVerifiers",
      "outputs": [
        {
          "internalType": "address[]",
          "name": "",
          "type": "address[]"
        }
      ],
      "stateMutability": "view",
      "type": "function"
    },
    {
      "inputs": [],
      "name": "maxVerifiers",
      "outputs": [
        {
          "internalType": "uint256",
          "name": "",
          "type": "uint256"
        }
      ],
      "stateMutability": "view",
      "type": "function"
    },
    {
      "inputs": [],
      "name": "numCompanies",
      "outputs": [
        {
          "internalType": "uint256",
          "name": "",
          "type": "uint256"
        }
      ],
      "stateMutability": "view",
      "type": "function"
    },
    {
      "inputs": [],
      "name": "numDocuments",
      "outputs": [
        {
          "internalType": "uint256",
          "name": "",
          "type": "uint256"
        }
      ],
      "stateMutability": "view",
      "type": "function"
    },
    {
      "inputs": [
        {
          "internalType": "address",
          "name": "sender",
          "type": "address"
        }
      ],
      "name": "onlyCompany",
      "outputs": [
        {
          "internalType": "bool",
          "name": "",
          "type": "bool"
        }
      ],
      "stateMutability": "view",
      "type": "function"
    },
    {
      "inputs": [
        {
          "internalType": "address",
          "name": "sender",
          "type": "address"
        }
      ],
      "name": "onlyVerifier",
      "outputs": [
        {
          "internalType": "bool",
          "name": "",
          "type": "bool"
        }
      ],
      "stateMutability": "view",
      "type": "function"
    },
    {
      "inputs": [],
      "name": "owner",
      "outputs": [
        {
          "internalType": "address",
          "name": "",
          "type": "address"
        }
      ],
      "stateMutability": "view",
      "type": "function"
    },
    {
      "inputs": [
        {
          "internalType": "uint256[]",
          "name": "_ids",
          "type": "uint256[]"
        }
      ],
      "name": "removeCandidates",
      "outputs": [],
      "stateMutability": "nonpayable",
      "type": "function"
    },
    {
      "inputs": [
        {
          "internalType": "uint256[]",
          "name": "_ids",
          "type": "uint256[]"
        }
      ],
      "name": "removeCompanies",
      "outputs": [],
      "stateMutability": "nonpayable",
      "type": "function"
    },
    {
      "inputs": [
        {
          "internalType": "uint256[]",
          "name": "_candidateIds",
          "type": "uint256[]"
        }
      ],
      "name": "removeDocuments",
      "outputs": [],
      "stateMutability": "nonpayable",
      "type": "function"
    },
    {
      "inputs": [],
      "name": "renounceOwnership",
      "outputs": [],
      "stateMutability": "nonpayable",
      "type": "function"
    },
    {
      "inputs": [
        {
          "internalType": "address[]",
          "name": "_oldVerifiers",
          "type": "address[]"
        },
        {
          "internalType": "address[]",
          "name": "_newVerifiers",
          "type": "address[]"
        }
      ],
      "name": "replaceVerifiers",
      "outputs": [],
      "stateMutability": "nonpayable",
      "type": "function"
    },
    {
      "inputs": [
        {
          "internalType": "uint256",
          "name": "_maxVerifiers",
          "type": "uint256"
        }
      ],
      "name": "setMaxVerifiers",
      "outputs": [],
      "stateMutability": "nonpayable",
      "type": "function"
    },
    {
      "inputs": [
        {
          "internalType": "address",
          "name": "newOwner",
          "type": "address"
        }
      ],
      "name": "transferOwnership",
      "outputs": [],
      "stateMutability": "nonpayable",
      "type": "function"
    },
    {
      "inputs": [
        {
          "internalType": "uint256",
          "name": "",
          "type": "uint256"
        }
      ],
      "name": "verifiers",
      "outputs": [
        {
          "internalType": "address",
          "name": "",
          "type": "address"
        }
      ],
      "stateMutability": "view",
      "type": "function"
    },
    {
      "inputs": [
        {
          "internalType": "uint256[]",
          "name": "_ids",
          "type": "uint256[]"
        }
      ],
      "name": "verifyDocuments",
      "outputs": [],
      "stateMutability": "nonpayable",
      "type": "function"
    }
  ],
  "bytecode": "0x6080604052600a60025534801561001557600080fd5b5061001f33610024565b610074565b600080546001600160a01b038381166001600160a01b0319831681178455604051919092169283917f8be0079c531659141344cd1fd0a4f28419497f9722a3daafe3b4186f6b6457e09190a35050565b6124c4806100836000396000f3fe608060405234801561001057600080fd5b50600436106101da5760003560e01c8063854da65811610104578063abda9f95116100a2578063c2ed2b0511610071578063c2ed2b0514610415578063eed1831814610437578063f2fde38b1461044a578063fc7435e11461045d57600080fd5b8063abda9f95146103c4578063ac1eff68146103d7578063b4d7e8df146103ea578063b53442571461040257600080fd5b80638b0e6305116100de5780638b0e6305146103605780638da5cb5b1461038b5780639a9ad4aa1461039c578063a935e766146103af57600080fd5b8063854da6581461031f578063874fdf2d14610332578063893d20e81461033b57600080fd5b806341affd451161017c5780635990ce801161014b5780635990ce80146102e85780636dd08047146102fb578063715018a61461030e57806378bda7501461031657600080fd5b806341affd45146102a65780634dc95895146102af578063540faf24146102c257806357d13917146102d557600080fd5b8063249f77b1116101b8578063249f77b11461023d5780632813d19d146102505780633477ee2e1461027257806335b8e8201461029357600080fd5b80630dff71ba146101df5780630f53ce0114610207578063103395ae14610228575b600080fd5b6101f26101ed366004611b39565b610470565b60405190151581526020015b60405180910390f35b61021a610215366004611b5b565b6104d8565b6040519081526020016101fe565b61023b610236366004611d40565b6104f9565b005b61023b61024b366004611eae565b61070a565b61026361025e366004611f2c565b610886565b6040516101fe93929190611f8b565b610285610280366004611f2c565b61093b565b6040516101fe929190611fbf565b6102856102a1366004611f2c565b6109df565b61021a60045481565b61023b6102bd366004611fe1565b610ab0565b61023b6102d0366004612045565b610da0565b6102636102e3366004611f2c565b610ebb565b61023b6102f636600461209f565b610fa5565b610263610309366004611b39565b611125565b61023b611151565b61021a60025481565b61023b61032d36600461209f565b611165565b61021a60035481565b6000546001600160a01b03165b6040516001600160a01b0390911681526020016101fe565b61021a61036e366004611b5b565b600960209081526000928352604080842090915290825290205481565b6000546001600160a01b0316610348565b6101f26103aa366004611b39565b611285565b6103b76112d0565b6040516101fe91906120dc565b61023b6103d236600461209f565b611332565b6103486103e5366004611f2c565b6114f4565b3360009081526006602052604090206002015461021a565b61023b610410366004612129565b61151e565b610428610423366004611f2c565b6116d1565b6040516101fe9392919061215e565b61023b61044536600461209f565b611806565b61023b610458366004611b39565b61193c565b61023b61046b366004611f2c565b6119b5565b600080805b6001548110156104d157836001600160a01b03166001828154811061049c5761049c612196565b6000918252602090912001546001600160a01b0316036104bf57600191506104d1565b806104c9816121c2565b915050610475565b5092915050565b60008281526009602090815260408083208484529091529020545b92915050565b61050233611285565b6105275760405162461bcd60e51b815260040161051e906121db565b60405180910390fd5b81518351148015610539575080518351145b6105555760405162461bcd60e51b815260040161051e9061222a565b33600090815260066020526040812060020154905b845181101561070357600085828151811061058757610587612196565b6020026020010151905060008583815181106105a5576105a5612196565b6020026020010151905060008584815181106105c3576105c3612196565b6020026020010151905060076000828152602001908152602001600020600101546000036106035760405162461bcd60e51b815260040161051e90612261565b6000600454600161061491906122a7565b60408051606081018252868152602080820187905260008284018190528481526008909152919091208151929350909181906106509082612342565b50602082015160018201906106659082612342565b50604091820151600291909101805460ff1916911515919091179055600087815260096020908152828220858352905290812082905560048054916106a9836121c2565b9190505550807fdb879b1e3c2f75c93515e5b83d6870a210a8c28cf57f86e4b6d433a303b1b192858589866040516106e49493929190612402565b60405180910390a25050505080806106fb906121c2565b91505061056a565b5050505050565b610712611a25565b81518351148015610724575080518351145b6107405760405162461bcd60e51b815260040161051e9061222a565b60005b835181101561088057600084828151811061076057610760612196565b60200260200101519050600084838151811061077e5761077e612196565b60200260200101519050600084848151811061079c5761079c612196565b602090810291909101810151604080516060810182526001600160a01b0386811682528185018481528284018990526000898152600590965292909420815181546001600160a01b03191695169490941784559051919350919060018201906108059082612342565b506040919091015160029091015560038054906000610823836121c2565b9190505550816001600160a01b0316837fdc1e73d079344d1e85a82a0b8774d8c7d9c194542b8061b78db50b702833428b83604051610862919061243b565b60405180910390a35050508080610878906121c2565b915050610743565b50505050565b600560205260009081526040902080546001820180546001600160a01b0390921692916108b2906122ba565b80601f01602080910402602001604051908101604052809291908181526020018280546108de906122ba565b801561092b5780601f106109005761010080835404028352916020019161092b565b820191906000526020600020905b81548152906001019060200180831161090e57829003601f168201915b5050505050908060020154905083565b600760205260009081526040902080548190610956906122ba565b80601f0160208091040260200160405190810160405280929190818152602001828054610982906122ba565b80156109cf5780601f106109a4576101008083540402835291602001916109cf565b820191906000526020600020905b8154815290600101906020018083116109b257829003601f168201915b5050505050908060010154905082565b606060008060076000858152602001908152602001600020604051806040016040529081600082018054610a12906122ba565b80601f0160208091040260200160405190810160405280929190818152602001828054610a3e906122ba565b8015610a8b5780601f10610a6057610100808354040283529160200191610a8b565b820191906000526020600020905b815481529060010190602001808311610a6e57829003601f168201915b5050509183525050600191909101546020918201528151910151909590945092505050565b610ab8611a25565b60005b8251811015610d9b576000838281518110610ad857610ad8612196565b602002602001015190506000838381518110610af657610af6612196565b6020026020010151905060006001600160a01b0316826001600160a01b031603610b545760405162461bcd60e51b815260206004820152600f60248201526e496e76616c6964206164647265737360881b604482015260640161051e565b6001600160a01b038116610ca35760005b600154811015610c9d57826001600160a01b031660018281548110610b8c57610b8c612196565b6000918252602090912001546001600160a01b031603610c8b5760018054610bb590829061244e565b81548110610bc557610bc5612196565b600091825260209091200154600180546001600160a01b039092169183908110610bf157610bf1612196565b9060005260206000200160006101000a8154816001600160a01b0302191690836001600160a01b031602179055506001805480610c3057610c30612461565b600082815260208120820160001990810180546001600160a01b03191690559091019091556040516001600160a01b038516917f44a3cd4eb5cc5748f6169df057b1cb2ae4c383e87cd94663c430e095d4cba42491a2610c9d565b80610c95816121c2565b915050610b65565b50610d86565b8351855114610cc45760405162461bcd60e51b815260040161051e9061222a565b60005b600154811015610d8457826001600160a01b031660018281548110610cee57610cee612196565b6000918252602090912001546001600160a01b031603610d72578160018281548110610d1c57610d1c612196565b6000918252602082200180546001600160a01b0319166001600160a01b03938416179055604051848316928616917f50d741fe04ad9863c69d1406658f6ec7c4f5e48ec2faf966a36a3e47fc05c9d991a3610d84565b80610d7c816121c2565b915050610cc7565b505b50508080610d93906121c2565b915050610abb565b505050565b610da933610470565b610dc55760405162461bcd60e51b815260040161051e906121db565b8051825114610de65760405162461bcd60e51b815260040161051e9061222a565b60005b8251811015610d9b576000838281518110610e0657610e06612196565b602002602001015190506000838381518110610e2457610e24612196565b6020908102919091018101516040805180820182528281528084018690526000868152600790945292208251919350908190610e609082612342565b5060208201518160010155905050817fe83b2a43e7e82d975c8a0a6d2f045153c869e111136a34d1889ab7b598e396a382604051610e9e919061243b565b60405180910390a250508080610eb3906121c2565b915050610de9565b60008181526005602090815260408083208151606081810190935281546001600160a01b03168152600182018054939486948594929184019190610efe906122ba565b80601f0160208091040260200160405190810160405280929190818152602001828054610f2a906122ba565b8015610f775780601f10610f4c57610100808354040283529160200191610f77565b820191906000526020600020905b815481529060010190602001808311610f5a57829003601f168201915b5050509183525050600291909101546020918201528151908201516040909201519097919650945092505050565b610fad611a25565b6000815111610ffe5760405162461bcd60e51b815260206004820152601760248201527f4e6f20636f6d70616e79204944732070726f7669646564000000000000000000604482015260640161051e565b60005b815181101561112157600082828151811061101e5761101e612196565b60200260200101519050600560008281526020019081526020016000206002015460000361109a5760405162461bcd60e51b8152602060048201526024808201527f436f6d70616e79207769746820676976656e20494420646f6573206e6f7420656044820152631e1a5cdd60e21b606482015260840161051e565b600081815260056020526040812080546001600160a01b0319168155906110c46001830182611acf565b50600060029190910181905560038054916110de83612477565b909155505060405181907f028fe2791b514c47642f0d652f7c237752aea1929ed16396ef24b45eb7e2b31590600090a25080611119816121c2565b915050611001565b5050565b600660205260009081526040902080546001820180546001600160a01b0390921692916108b2906122ba565b611159611a25565b6111636000611a7f565b565b61116e33610470565b61118a5760405162461bcd60e51b815260040161051e906121db565b60005b81518110156111215760008282815181106111aa576111aa612196565b6020908102919091018101516000818152600890925260409091206002015490915060ff161561122f5760405162461bcd60e51b815260206004820152602a60248201527f446f63756d656e74207769746820676976656e20494420697320616c726561646044820152691e481d995c9a599a595960b21b606482015260840161051e565b600081815260086020526040808220600201805460ff191660011790555182917f4b93fd5160fbc8b35d08aff650902cf41c86e6df325a3eabab5bcca811976cf791a2508061127d816121c2565b91505061118d565b60008060015b60035481116104d1576000818152600560205260409020546001600160a01b038086169116036112be57600191506104d1565b806112c8816121c2565b91505061128b565b6060600180548060200260200160405190810160405280929190818152602001828054801561132857602002820191906000526020600020905b81546001600160a01b0316815260019091019060200180831161130a575b5050505050905090565b61133b33611285565b6113575760405162461bcd60e51b815260040161051e906121db565b33600090815260066020526040812060020154905b8251811015610d9b57600083828151811061138957611389612196565b6020026020010151905060076000828152602001908152602001600020600101546000036113c95760405162461bcd60e51b815260040161051e90612261565b6000838152600960209081526040808320848452909152812054908190036114515760405162461bcd60e51b815260206004820152603560248201527f4e6f20646f63756d656e7420666f756e6420666f722074686520676976656e2060448201527463616e64696461746520616e6420636f6d70616e7960581b606482015260840161051e565b60008181526008602052604081209061146a8282611acf565b611478600183016000611acf565b50600201805460ff19169055600084815260096020908152604080832085845282528083209290925581518381529081018490529081018590527fcefed05bf9cf6c25889c16d2d30733104edfd4536eb965a70e933dda18ef326e9060600160405180910390a1505080806114ec906121c2565b91505061136c565b6001818154811061150457600080fd5b6000918252602090912001546001600160a01b0316905081565b611526611a25565b600081511161156d5760405162461bcd60e51b8152602060048201526013602482015272139bc81d995c9a599a595c9cc81d1bc8185919606a1b604482015260640161051e565b60005b815181101561112157600082828151811061158d5761158d612196565b6020026020010151905060006001600160a01b0316816001600160a01b0316036115eb5760405162461bcd60e51b815260206004820152600f60248201526e496e76616c6964206164647265737360881b604482015260640161051e565b6002546001541061164a5760405162461bcd60e51b815260206004820152602360248201527f4d6178696d756d206e756d626572206f662076657269666965727320726561636044820152621a195960ea1b606482015260840161051e565b60018054808201825560009182527fb10e2d527612073b26eecdfd717e6a320cf44b4afac2b0732d9fcbe2b7fa0cf60180546001600160a01b0319166001600160a01b03841690811790915560405190917f6d05492139c5ea989514a5d2150c028041e5c087e2a39967f67dc7d2655adb8191a250806116c9816121c2565b915050611570565b6008602052600090815260409020805481906116ec906122ba565b80601f0160208091040260200160405190810160405280929190818152602001828054611718906122ba565b80156117655780601f1061173a57610100808354040283529160200191611765565b820191906000526020600020905b81548152906001019060200180831161174857829003601f168201915b50505050509080600101805461177a906122ba565b80601f01602080910402602001604051908101604052809291908181526020018280546117a6906122ba565b80156117f35780601f106117c8576101008083540402835291602001916117f3565b820191906000526020600020905b8154815290600101906020018083116117d657829003601f168201915b5050506002909301549192505060ff1683565b61180f33610470565b61182b5760405162461bcd60e51b815260040161051e906121db565b600081511161187c5760405162461bcd60e51b815260206004820152601960248201527f4e6f2063616e646964617465204944732070726f766964656400000000000000604482015260640161051e565b60005b815181101561112157600082828151811061189c5761189c612196565b6020026020010151905060076000828152602001908152602001600020600101546000036118dc5760405162461bcd60e51b815260040161051e90612261565b6000818152600760205260408120906118f58282611acf565b50600060019190910181905560405182917f294c5a9bc8a39e6e06502bc8da429980f6c7b0990d75b682c12cb8705e3ace8591a25080611934816121c2565b91505061187f565b611944611a25565b6001600160a01b0381166119a95760405162461bcd60e51b815260206004820152602660248201527f4f776e61626c653a206e6577206f776e657220697320746865207a65726f206160448201526564647265737360d01b606482015260840161051e565b6119b281611a7f565b50565b6119bd611a25565b60008111611a205760405162461bcd60e51b815260206004820152602a60248201527f4d6178696d756d207665726966696572732073686f756c6420626520677265616044820152690746572207468616e20360b41b606482015260840161051e565b600255565b6000546001600160a01b031633146111635760405162461bcd60e51b815260206004820181905260248201527f4f776e61626c653a2063616c6c6572206973206e6f7420746865206f776e6572604482015260640161051e565b600080546001600160a01b038381166001600160a01b0319831681178455604051919092169283917f8be0079c531659141344cd1fd0a4f28419497f9722a3daafe3b4186f6b6457e09190a35050565b508054611adb906122ba565b6000825580601f10611aeb575050565b601f0160209004906000526020600020908101906119b291905b80821115611b195760008155600101611b05565b5090565b80356001600160a01b0381168114611b3457600080fd5b919050565b600060208284031215611b4b57600080fd5b611b5482611b1d565b9392505050565b60008060408385031215611b6e57600080fd5b50508035926020909101359150565b634e487b7160e01b600052604160045260246000fd5b604051601f8201601f1916810167ffffffffffffffff81118282101715611bbc57611bbc611b7d565b604052919050565b600067ffffffffffffffff821115611bde57611bde611b7d565b5060051b60200190565b600067ffffffffffffffff831115611c0257611c02611b7d565b611c15601f8401601f1916602001611b93565b9050828152838383011115611c2957600080fd5b828260208301376000602084830101529392505050565b600082601f830112611c5157600080fd5b81356020611c66611c6183611bc4565b611b93565b82815260059290921b84018101918181019086841115611c8557600080fd5b8286015b84811015611cda57803567ffffffffffffffff811115611ca95760008081fd5b8701603f81018913611cbb5760008081fd5b611ccc898683013560408401611be8565b845250918301918301611c89565b509695505050505050565b600082601f830112611cf657600080fd5b81356020611d06611c6183611bc4565b82815260059290921b84018101918181019086841115611d2557600080fd5b8286015b84811015611cda5780358352918301918301611d29565b600080600060608486031215611d5557600080fd5b833567ffffffffffffffff80821115611d6d57600080fd5b611d7987838801611c40565b9450602091508186013581811115611d9057600080fd5b8601601f81018813611da157600080fd5b8035611daf611c6182611bc4565b81815260059190911b8201840190848101908a831115611dce57600080fd5b8584015b83811015611e1b57803586811115611dea5760008081fd5b8501603f81018d13611dfc5760008081fd5b611e0d8d8983013560408401611be8565b845250918601918601611dd2565b5096505050506040860135915080821115611e3557600080fd5b50611e4286828701611ce5565b9150509250925092565b600082601f830112611e5d57600080fd5b81356020611e6d611c6183611bc4565b82815260059290921b84018101918181019086841115611e8c57600080fd5b8286015b84811015611cda57611ea181611b1d565b8352918301918301611e90565b600080600060608486031215611ec357600080fd5b833567ffffffffffffffff80821115611edb57600080fd5b611ee787838801611ce5565b94506020860135915080821115611efd57600080fd5b611f0987838801611e4c565b93506040860135915080821115611f1f57600080fd5b50611e4286828701611c40565b600060208284031215611f3e57600080fd5b5035919050565b6000815180845260005b81811015611f6b57602081850181015186830182015201611f4f565b506000602082860101526020601f19601f83011685010191505092915050565b6001600160a01b0384168152606060208201819052600090611faf90830185611f45565b9050826040830152949350505050565b604081526000611fd26040830185611f45565b90508260208301529392505050565b60008060408385031215611ff457600080fd5b823567ffffffffffffffff8082111561200c57600080fd5b61201886838701611e4c565b9350602085013591508082111561202e57600080fd5b5061203b85828601611e4c565b9150509250929050565b6000806040838503121561205857600080fd5b823567ffffffffffffffff8082111561207057600080fd5b61207c86838701611ce5565b9350602085013591508082111561209257600080fd5b5061203b85828601611c40565b6000602082840312156120b157600080fd5b813567ffffffffffffffff8111156120c857600080fd5b6120d484828501611ce5565b949350505050565b6020808252825182820181905260009190848201906040850190845b8181101561211d5783516001600160a01b0316835292840192918401916001016120f8565b50909695505050505050565b60006020828403121561213b57600080fd5b813567ffffffffffffffff81111561215257600080fd5b6120d484828501611e4c565b6060815260006121716060830186611f45565b82810360208401526121838186611f45565b9150508215156040830152949350505050565b634e487b7160e01b600052603260045260246000fd5b634e487b7160e01b600052601160045260246000fd5b6000600182016121d4576121d46121ac565b5060010190565b6020808252602f908201527f53656e646572206973206e6f742061207265676973746572656420616e64207660408201526e6572696669656420636f6d70616e7960881b606082015260800190565b60208082526018908201527f4d69736d61746368656420696e707574206c656e677468730000000000000000604082015260600190565b60208082526026908201527f43616e646964617465207769746820676976656e20494420646f6573206e6f7460408201526508195e1a5cdd60d21b606082015260800190565b808201808211156104f3576104f36121ac565b600181811c908216806122ce57607f821691505b6020821081036122ee57634e487b7160e01b600052602260045260246000fd5b50919050565b601f821115610d9b57600081815260208120601f850160051c8101602086101561231b5750805b601f850160051c820191505b8181101561233a57828155600101612327565b505050505050565b815167ffffffffffffffff81111561235c5761235c611b7d565b6123708161236a84546122ba565b846122f4565b602080601f8311600181146123a5576000841561238d5750858301515b600019600386901b1c1916600185901b17855561233a565b600085815260208120601f198616915b828110156123d4578886015182559484019460019091019084016123b5565b50858210156123f25787850151600019600388901b60f8161c191681555b5050505050600190811b01905550565b6080815260006124156080830187611f45565b82810360208401526124278187611f45565b604084019590955250506060015292915050565b602081526000611b546020830184611f45565b818103818111156104f3576104f36121ac565b634e487b7160e01b600052603160045260246000fd5b600081612486576124866121ac565b50600019019056fea2646970667358221220ace91ba691d91e4d7532bd89eedb92fd8c1ba90e49382db1439f7b57a837971d64736f6c63430008140033",
  "linkReferences": {},
  "deployedLinkReferences": {}
}