{
  "_format": "hh-sol-artifact-1",
  "contractName": "Verification",
  "sourceName": "src/contracts/Verification.sol",
  "abi": [
    {
      "anonymous": false,
      "inputs": [
        {
          "indexed": true,
          "internalType": "uint256",
          "name": "id",
          "type": "uint256"
        },
        {
          "indexed": false,
          "internalType": "string",
          "name": "name",
          "type": "string"
        },
        {
          "indexed": false,
          "internalType": "string",
          "name": "location",
          "type": "string"
        },
        {
          "indexed": false,
          "internalType": "string",
          "name": "email",
          "type": "string"
        },
        {
          "indexed": false,
          "internalType": "uint256",
          "name": "phoneNumber",
          "type": "uint256"
        }
      ],
      "name": "CandidateAdded",
      "type": "event"
    },
    {
      "anonymous": false,
      "inputs": [
        {
          "indexed": true,
          "internalType": "uint256",
          "name": "id",
          "type": "uint256"
        },
        {
          "indexed": false,
          "internalType": "address",
          "name": "newCurrentCompany",
          "type": "address"
        }
      ],
      "name": "CandidateCurrentCompanyEdited",
      "type": "event"
    },
    {
      "anonymous": false,
      "inputs": [
        {
          "indexed": true,
          "internalType": "uint256",
          "name": "id",
          "type": "uint256"
        },
        {
          "indexed": false,
          "internalType": "string",
          "name": "name",
          "type": "string"
        },
        {
          "indexed": false,
          "internalType": "string",
          "name": "location",
          "type": "string"
        },
        {
          "indexed": false,
          "internalType": "string",
          "name": "email",
          "type": "string"
        },
        {
          "indexed": false,
          "internalType": "uint256",
          "name": "phoneNumber",
          "type": "uint256"
        },
        {
          "indexed": false,
          "internalType": "address",
          "name": "currentCompany",
          "type": "address"
        }
      ],
      "name": "CandidateEdited",
      "type": "event"
    },
    {
      "anonymous": false,
      "inputs": [
        {
          "indexed": true,
          "internalType": "uint256",
          "name": "id",
          "type": "uint256"
        }
      ],
      "name": "CandidateRemoved",
      "type": "event"
    },
    {
      "anonymous": false,
      "inputs": [
        {
          "indexed": true,
          "internalType": "uint256",
          "name": "id",
          "type": "uint256"
        },
        {
          "indexed": true,
          "internalType": "address",
          "name": "companyAddress",
          "type": "address"
        },
        {
          "indexed": false,
          "internalType": "string",
          "name": "name",
          "type": "string"
        },
        {
          "indexed": false,
          "internalType": "string",
          "name": "location",
          "type": "string"
        },
        {
          "indexed": false,
          "internalType": "uint256",
          "name": "phoneNumber",
          "type": "uint256"
        },
        {
          "indexed": false,
          "internalType": "string",
          "name": "licenseNumber",
          "type": "string"
        },
        {
          "indexed": false,
          "internalType": "string",
          "name": "email",
          "type": "string"
        }
      ],
      "name": "CompanyAdded",
      "type": "event"
    },
    {
      "anonymous": false,
      "inputs": [
        {
          "indexed": true,
          "internalType": "uint256",
          "name": "id",
          "type": "uint256"
        }
      ],
      "name": "CompanyRemoved",
      "type": "event"
    },
    {
      "anonymous": false,
      "inputs": [
        {
          "indexed": true,
          "internalType": "uint256",
          "name": "id",
          "type": "uint256"
        },
        {
          "indexed": false,
          "internalType": "string",
          "name": "name",
          "type": "string"
        },
        {
          "indexed": false,
          "internalType": "string",
          "name": "cid",
          "type": "string"
        },
        {
          "indexed": false,
          "internalType": "uint256",
          "name": "candidateId",
          "type": "uint256"
        },
        {
          "indexed": false,
          "internalType": "string",
          "name": "typeOfDocument",
          "type": "string"
        },
        {
          "indexed": false,
          "internalType": "string",
          "name": "expirationDate",
          "type": "string"
        }
      ],
      "name": "DocumentAdded",
      "type": "event"
    },
    {
      "anonymous": false,
      "inputs": [
        {
          "indexed": true,
          "internalType": "uint256",
          "name": "id",
          "type": "uint256"
        }
      ],
      "name": "DocumentCancelled",
      "type": "event"
    },
    {
      "anonymous": false,
      "inputs": [
        {
          "indexed": false,
          "internalType": "uint256",
          "name": "documentId",
          "type": "uint256"
        },
        {
          "indexed": false,
          "internalType": "uint256",
          "name": "candidateId",
          "type": "uint256"
        }
      ],
      "name": "DocumentRemoved",
      "type": "event"
    },
    {
      "anonymous": false,
      "inputs": [
        {
          "indexed": true,
          "internalType": "uint256",
          "name": "id",
          "type": "uint256"
        }
      ],
      "name": "DocumentVerified",
      "type": "event"
    },
    {
      "anonymous": false,
      "inputs": [
        {
          "indexed": true,
          "internalType": "address",
          "name": "previousOwner",
          "type": "address"
        },
        {
          "indexed": true,
          "internalType": "address",
          "name": "newOwner",
          "type": "address"
        }
      ],
      "name": "OwnershipTransferred",
      "type": "event"
    },
    {
      "anonymous": false,
      "inputs": [
        {
          "indexed": true,
          "internalType": "address",
          "name": "verifier",
          "type": "address"
        }
      ],
      "name": "VerifierAdded",
      "type": "event"
    },
    {
      "anonymous": false,
      "inputs": [
        {
          "indexed": true,
          "internalType": "address",
          "name": "verifier",
          "type": "address"
        }
      ],
      "name": "VerifierRemoved",
      "type": "event"
    },
    {
      "anonymous": false,
      "inputs": [
        {
          "indexed": true,
          "internalType": "address",
          "name": "oldVerifier",
          "type": "address"
        },
        {
          "indexed": true,
          "internalType": "address",
          "name": "newVerifier",
          "type": "address"
        }
      ],
      "name": "VerifierReplaced",
      "type": "event"
    },
    {
      "inputs": [
        {
          "internalType": "address[]",
          "name": "_addresses",
          "type": "address[]"
        },
        {
          "internalType": "string[]",
          "name": "_names",
          "type": "string[]"
        },
        {
          "internalType": "string[]",
          "name": "_locations",
          "type": "string[]"
        },
        {
          "internalType": "string[]",
          "name": "_emails",
          "type": "string[]"
        },
        {
          "internalType": "uint256[]",
          "name": "_phoneNumbers",
          "type": "uint256[]"
        }
      ],
      "name": "addCandidates",
      "outputs": [],
      "stateMutability": "nonpayable",
      "type": "function"
    },
    {
      "inputs": [
        {
          "internalType": "address[]",
          "name": "_addresses",
          "type": "address[]"
        },
        {
          "internalType": "string[]",
          "name": "_names",
          "type": "string[]"
        },
        {
          "internalType": "string[]",
          "name": "_locations",
          "type": "string[]"
        },
        {
          "internalType": "uint256[]",
          "name": "_phoneNumbers",
          "type": "uint256[]"
        },
        {
          "internalType": "string[]",
          "name": "_licenseNumbers",
          "type": "string[]"
        },
        {
          "internalType": "string[]",
          "name": "_emails",
          "type": "string[]"
        }
      ],
      "name": "addCompanies",
      "outputs": [],
      "stateMutability": "nonpayable",
      "type": "function"
    },
    {
      "inputs": [
        {
          "internalType": "string",
          "name": "_name",
          "type": "string"
        },
        {
          "internalType": "string",
          "name": "_cid",
          "type": "string"
        },
        {
          "internalType": "uint256",
          "name": "_candidateId",
          "type": "uint256"
        },
        {
          "internalType": "string",
          "name": "_typeOfDocument",
          "type": "string"
        },
        {
          "internalType": "string",
          "name": "_expirationDate",
          "type": "string"
        }
      ],
      "name": "addDocuments",
      "outputs": [],
      "stateMutability": "nonpayable",
      "type": "function"
    },
    {
      "inputs": [
        {
          "internalType": "address[]",
          "name": "_verifiers",
          "type": "address[]"
        }
      ],
      "name": "addVerifiers",
      "outputs": [],
      "stateMutability": "nonpayable",
      "type": "function"
    },
    {
      "inputs": [
        {
          "internalType": "address",
          "name": "",
          "type": "address"
        }
      ],
      "name": "candidateAddress",
      "outputs": [
        {
          "internalType": "uint256",
          "name": "",
          "type": "uint256"
        }
      ],
      "stateMutability": "view",
      "type": "function"
    },
    {
      "inputs": [
        {
          "internalType": "uint256",
          "name": "",
          "type": "uint256"
        }
      ],
      "name": "candidates",
      "outputs": [
        {
          "internalType": "uint256",
          "name": "date",
          "type": "uint256"
        },
        {
          "internalType": "address",
          "name": "address_",
          "type": "address"
        },
        {
          "internalType": "address",
          "name": "currentCompany",
          "type": "address"
        },
        {
          "internalType": "string",
          "name": "name",
          "type": "string"
        },
        {
          "internalType": "uint256",
          "name": "Id",
          "type": "uint256"
        },
        {
          "internalType": "string",
          "name": "location",
          "type": "string"
        },
        {
          "internalType": "string",
          "name": "email",
          "type": "string"
        },
        {
          "internalType": "uint256",
          "name": "phoneNumber",
          "type": "uint256"
        }
      ],
      "stateMutability": "view",
      "type": "function"
    },
    {
      "inputs": [
        {
          "internalType": "uint256",
          "name": "",
          "type": "uint256"
        }
      ],
      "name": "companies",
      "outputs": [
        {
          "internalType": "uint256",
          "name": "date",
          "type": "uint256"
        },
        {
          "internalType": "address",
          "name": "address_",
          "type": "address"
        },
        {
          "internalType": "string",
          "name": "name",
          "type": "string"
        },
        {
          "internalType": "uint256",
          "name": "Id",
          "type": "uint256"
        },
        {
          "internalType": "string",
          "name": "location",
          "type": "string"
        },
        {
          "internalType": "uint256",
          "name": "phoneNumber",
          "type": "uint256"
        },
        {
          "internalType": "string",
          "name": "licenseNumber",
          "type": "string"
        },
        {
          "internalType": "string",
          "name": "email",
          "type": "string"
        }
      ],
      "stateMutability": "view",
      "type": "function"
    },
    {
      "inputs": [
        {
          "internalType": "address",
          "name": "",
          "type": "address"
        }
      ],
      "name": "companyAddress",
      "outputs": [
        {
          "internalType": "uint256",
          "name": "",
          "type": "uint256"
        }
      ],
      "stateMutability": "view",
      "type": "function"
    },
    {
      "inputs": [
        {
          "internalType": "uint256",
          "name": "",
          "type": "uint256"
        }
      ],
      "name": "documents",
      "outputs": [
        {
          "internalType": "uint256",
          "name": "date",
          "type": "uint256"
        },
        {
          "internalType": "string",
          "name": "name",
          "type": "string"
        },
        {
          "internalType": "uint256",
          "name": "id",
          "type": "uint256"
        },
        {
          "internalType": "string",
          "name": "cid",
          "type": "string"
        },
        {
          "internalType": "string",
          "name": "typeOfDocument",
          "type": "string"
        },
        {
          "internalType": "string",
          "name": "expirationDate",
          "type": "string"
        },
        {
          "internalType": "bool",
          "name": "isVerified",
          "type": "bool"
        },
        {
          "internalType": "bool",
          "name": "isCancelled",
          "type": "bool"
        },
        {
          "internalType": "uint256",
          "name": "candidateId",
          "type": "uint256"
        }
      ],
      "stateMutability": "view",
      "type": "function"
    },
    {
      "inputs": [
        {
          "internalType": "uint256",
          "name": "_candidateId",
          "type": "uint256"
        },
        {
          "internalType": "string",
          "name": "_name",
          "type": "string"
        },
        {
          "internalType": "string",
          "name": "_location",
          "type": "string"
        },
        {
          "internalType": "string",
          "name": "_email",
          "type": "string"
        },
        {
          "internalType": "uint256",
          "name": "_phoneNumber",
          "type": "uint256"
        },
        {
          "internalType": "address",
          "name": "_currentCompany",
          "type": "address"
        }
      ],
      "name": "editCandidate",
      "outputs": [],
      "stateMutability": "nonpayable",
      "type": "function"
    },
    {
      "inputs": [
        {
          "internalType": "uint256",
          "name": "_candidateId",
          "type": "uint256"
        },
        {
          "internalType": "address",
          "name": "_newCurrentCompany",
          "type": "address"
        }
      ],
      "name": "editCandidateCurrentCompany",
      "outputs": [],
      "stateMutability": "nonpayable",
      "type": "function"
    },
    {
      "inputs": [],
      "name": "getAllCandidates",
      "outputs": [
        {
          "components": [
            {
              "internalType": "uint256",
              "name": "date",
              "type": "uint256"
            },
            {
              "internalType": "address",
              "name": "address_",
              "type": "address"
            },
            {
              "internalType": "address",
              "name": "currentCompany",
              "type": "address"
            },
            {
              "internalType": "string",
              "name": "name",
              "type": "string"
            },
            {
              "internalType": "uint256[]",
              "name": "documentIds",
              "type": "uint256[]"
            },
            {
              "internalType": "uint256",
              "name": "Id",
              "type": "uint256"
            },
            {
              "internalType": "string",
              "name": "location",
              "type": "string"
            },
            {
              "internalType": "string",
              "name": "email",
              "type": "string"
            },
            {
              "internalType": "uint256",
              "name": "phoneNumber",
              "type": "uint256"
            }
          ],
          "internalType": "struct Verification.Candidate[]",
          "name": "",
          "type": "tuple[]"
        }
      ],
      "stateMutability": "view",
      "type": "function"
    },
    {
      "inputs": [],
      "name": "getAllCompanies",
      "outputs": [
        {
          "components": [
            {
              "internalType": "uint256",
              "name": "date",
              "type": "uint256"
            },
            {
              "internalType": "address",
              "name": "address_",
              "type": "address"
            },
            {
              "internalType": "string",
              "name": "name",
              "type": "string"
            },
            {
              "internalType": "uint256",
              "name": "Id",
              "type": "uint256"
            },
            {
              "internalType": "uint256[]",
              "name": "candidateIds",
              "type": "uint256[]"
            },
            {
              "internalType": "string",
              "name": "location",
              "type": "string"
            },
            {
              "internalType": "uint256",
              "name": "phoneNumber",
              "type": "uint256"
            },
            {
              "internalType": "string",
              "name": "licenseNumber",
              "type": "string"
            },
            {
              "internalType": "string",
              "name": "email",
              "type": "string"
            }
          ],
          "internalType": "struct Verification.Company[]",
          "name": "",
          "type": "tuple[]"
        }
      ],
      "stateMutability": "view",
      "type": "function"
    },
    {
      "inputs": [],
      "name": "getAllDocuments",
      "outputs": [
        {
          "components": [
            {
              "internalType": "uint256",
              "name": "date",
              "type": "uint256"
            },
            {
              "internalType": "string",
              "name": "name",
              "type": "string"
            },
            {
              "internalType": "uint256",
              "name": "id",
              "type": "uint256"
            },
            {
              "internalType": "string",
              "name": "cid",
              "type": "string"
            },
            {
              "internalType": "string",
              "name": "typeOfDocument",
              "type": "string"
            },
            {
              "internalType": "string",
              "name": "expirationDate",
              "type": "string"
            },
            {
              "internalType": "bool",
              "name": "isVerified",
              "type": "bool"
            },
            {
              "internalType": "bool",
              "name": "isCancelled",
              "type": "bool"
            },
            {
              "internalType": "uint256",
              "name": "candidateId",
              "type": "uint256"
            }
          ],
          "internalType": "struct Verification.Document[]",
          "name": "",
          "type": "tuple[]"
        }
      ],
      "stateMutability": "view",
      "type": "function"
    },
    {
      "inputs": [
        {
          "internalType": "uint256",
          "name": "_id",
          "type": "uint256"
        }
      ],
      "name": "getCandidate",
      "outputs": [
        {
          "components": [
            {
              "internalType": "uint256",
              "name": "date",
              "type": "uint256"
            },
            {
              "internalType": "address",
              "name": "address_",
              "type": "address"
            },
            {
              "internalType": "address",
              "name": "currentCompany",
              "type": "address"
            },
            {
              "internalType": "string",
              "name": "name",
              "type": "string"
            },
            {
              "internalType": "uint256[]",
              "name": "documentIds",
              "type": "uint256[]"
            },
            {
              "internalType": "uint256",
              "name": "Id",
              "type": "uint256"
            },
            {
              "internalType": "string",
              "name": "location",
              "type": "string"
            },
            {
              "internalType": "string",
              "name": "email",
              "type": "string"
            },
            {
              "internalType": "uint256",
              "name": "phoneNumber",
              "type": "uint256"
            }
          ],
          "internalType": "struct Verification.Candidate",
          "name": "",
          "type": "tuple"
        }
      ],
      "stateMutability": "view",
      "type": "function"
    },
    {
      "inputs": [
        {
          "internalType": "uint256",
          "name": "_companyId",
          "type": "uint256"
        }
      ],
      "name": "getCandidatesByCompany",
      "outputs": [
        {
          "components": [
            {
              "internalType": "uint256",
              "name": "date",
              "type": "uint256"
            },
            {
              "internalType": "address",
              "name": "address_",
              "type": "address"
            },
            {
              "internalType": "address",
              "name": "currentCompany",
              "type": "address"
            },
            {
              "internalType": "string",
              "name": "name",
              "type": "string"
            },
            {
              "internalType": "uint256[]",
              "name": "documentIds",
              "type": "uint256[]"
            },
            {
              "internalType": "uint256",
              "name": "Id",
              "type": "uint256"
            },
            {
              "internalType": "string",
              "name": "location",
              "type": "string"
            },
            {
              "internalType": "string",
              "name": "email",
              "type": "string"
            },
            {
              "internalType": "uint256",
              "name": "phoneNumber",
              "type": "uint256"
            }
          ],
          "internalType": "struct Verification.Candidate[]",
          "name": "",
          "type": "tuple[]"
        }
      ],
      "stateMutability": "view",
      "type": "function"
    },
    {
      "inputs": [
        {
          "internalType": "uint256",
          "name": "_companyId",
          "type": "uint256"
        }
      ],
      "name": "getCompany",
      "outputs": [
        {
          "components": [
            {
              "internalType": "uint256",
              "name": "date",
              "type": "uint256"
            },
            {
              "internalType": "address",
              "name": "address_",
              "type": "address"
            },
            {
              "internalType": "string",
              "name": "name",
              "type": "string"
            },
            {
              "internalType": "uint256",
              "name": "Id",
              "type": "uint256"
            },
            {
              "internalType": "uint256[]",
              "name": "candidateIds",
              "type": "uint256[]"
            },
            {
              "internalType": "string",
              "name": "location",
              "type": "string"
            },
            {
              "internalType": "uint256",
              "name": "phoneNumber",
              "type": "uint256"
            },
            {
              "internalType": "string",
              "name": "licenseNumber",
              "type": "string"
            },
            {
              "internalType": "string",
              "name": "email",
              "type": "string"
            }
          ],
          "internalType": "struct Verification.Company",
          "name": "",
          "type": "tuple"
        }
      ],
      "stateMutability": "view",
      "type": "function"
    },
    {
      "inputs": [],
      "name": "getCompanyIdOfSender",
      "outputs": [
        {
          "internalType": "uint256",
          "name": "",
          "type": "uint256"
        }
      ],
      "stateMutability": "view",
      "type": "function"
    },
    {
      "inputs": [
        {
          "internalType": "uint256",
          "name": "_candidateId",
          "type": "uint256"
        }
      ],
      "name": "getDocuments",
      "outputs": [
        {
          "components": [
            {
              "internalType": "uint256",
              "name": "date",
              "type": "uint256"
            },
            {
              "internalType": "string",
              "name": "name",
              "type": "string"
            },
            {
              "internalType": "uint256",
              "name": "id",
              "type": "uint256"
            },
            {
              "internalType": "string",
              "name": "cid",
              "type": "string"
            },
            {
              "internalType": "string",
              "name": "typeOfDocument",
              "type": "string"
            },
            {
              "internalType": "string",
              "name": "expirationDate",
              "type": "string"
            },
            {
              "internalType": "bool",
              "name": "isVerified",
              "type": "bool"
            },
            {
              "internalType": "bool",
              "name": "isCancelled",
              "type": "bool"
            },
            {
              "internalType": "uint256",
              "name": "candidateId",
              "type": "uint256"
            }
          ],
          "internalType": "struct Verification.Document[]",
          "name": "",
          "type": "tuple[]"
        }
      ],
      "stateMutability": "view",
      "type": "function"
    },
    {
      "inputs": [
        {
          "internalType": "uint256",
          "name": "_candidateId",
          "type": "uint256"
        }
      ],
      "name": "getDocumentsByCandidate",
      "outputs": [
        {
          "components": [
            {
              "internalType": "uint256",
              "name": "date",
              "type": "uint256"
            },
            {
              "internalType": "string",
              "name": "name",
              "type": "string"
            },
            {
              "internalType": "uint256",
              "name": "id",
              "type": "uint256"
            },
            {
              "internalType": "string",
              "name": "cid",
              "type": "string"
            },
            {
              "internalType": "string",
              "name": "typeOfDocument",
              "type": "string"
            },
            {
              "internalType": "string",
              "name": "expirationDate",
              "type": "string"
            },
            {
              "internalType": "bool",
              "name": "isVerified",
              "type": "bool"
            },
            {
              "internalType": "bool",
              "name": "isCancelled",
              "type": "bool"
            },
            {
              "internalType": "uint256",
              "name": "candidateId",
              "type": "uint256"
            }
          ],
          "internalType": "struct Verification.Document[]",
          "name": "",
          "type": "tuple[]"
        }
      ],
      "stateMutability": "view",
      "type": "function"
    },
    {
      "inputs": [],
      "name": "getOwner",
      "outputs": [
        {
          "internalType": "address",
          "name": "",
          "type": "address"
        }
      ],
      "stateMutability": "view",
      "type": "function"
    },
    {
      "inputs": [],
      "name": "getTotalCandidates",
      "outputs": [
        {
          "internalType": "uint256",
          "name": "",
          "type": "uint256"
        }
      ],
      "stateMutability": "view",
      "type": "function"
    },
    {
      "inputs": [],
      "name": "getTotalCompanies",
      "outputs": [
        {
          "internalType": "uint256",
          "name": "",
          "type": "uint256"
        }
      ],
      "stateMutability": "view",
      "type": "function"
    },
    {
      "inputs": [],
      "name": "getTotalDocuments",
      "outputs": [
        {
          "internalType": "uint256",
          "name": "",
          "type": "uint256"
        }
      ],
      "stateMutability": "view",
      "type": "function"
    },
    {
      "inputs": [],
      "name": "getVerifiers",
      "outputs": [
        {
          "internalType": "address[]",
          "name": "",
          "type": "address[]"
        }
      ],
      "stateMutability": "view",
      "type": "function"
    },
    {
      "inputs": [],
      "name": "getZeroAddress",
      "outputs": [
        {
          "internalType": "address",
          "name": "",
          "type": "address"
        }
      ],
      "stateMutability": "pure",
      "type": "function"
    },
    {
      "inputs": [],
      "name": "maxVerifiers",
      "outputs": [
        {
          "internalType": "uint256",
          "name": "",
          "type": "uint256"
        }
      ],
      "stateMutability": "view",
      "type": "function"
    },
    {
      "inputs": [],
      "name": "owner",
      "outputs": [
        {
          "internalType": "address",
          "name": "",
          "type": "address"
        }
      ],
      "stateMutability": "view",
      "type": "function"
    },
    {
      "inputs": [
        {
          "internalType": "uint256[]",
          "name": "_ids",
          "type": "uint256[]"
        }
      ],
      "name": "removeCandidates",
      "outputs": [],
      "stateMutability": "nonpayable",
      "type": "function"
    },
    {
      "inputs": [
        {
          "internalType": "uint256[]",
          "name": "_ids",
          "type": "uint256[]"
        }
      ],
      "name": "removeCompanies",
      "outputs": [],
      "stateMutability": "nonpayable",
      "type": "function"
    },
    {
      "inputs": [
        {
          "internalType": "uint256[]",
          "name": "_candidateIds",
          "type": "uint256[]"
        },
        {
          "internalType": "uint256[]",
          "name": "_documentIds",
          "type": "uint256[]"
        }
      ],
      "name": "removeDocuments",
      "outputs": [],
      "stateMutability": "nonpayable",
      "type": "function"
    },
    {
      "inputs": [],
      "name": "renounceOwnership",
      "outputs": [],
      "stateMutability": "nonpayable",
      "type": "function"
    },
    {
      "inputs": [
        {
          "internalType": "address[]",
          "name": "_oldVerifiers",
          "type": "address[]"
        },
        {
          "internalType": "address[]",
          "name": "_newVerifiers",
          "type": "address[]"
        }
      ],
      "name": "replaceVerifiers",
      "outputs": [],
      "stateMutability": "nonpayable",
      "type": "function"
    },
    {
      "inputs": [
        {
          "internalType": "uint256",
          "name": "_maxVerifiers",
          "type": "uint256"
        }
      ],
      "name": "setMaxVerifiers",
      "outputs": [],
      "stateMutability": "nonpayable",
      "type": "function"
    },
    {
      "inputs": [
        {
          "internalType": "address",
          "name": "newOwner",
          "type": "address"
        }
      ],
      "name": "transferOwnership",
      "outputs": [],
      "stateMutability": "nonpayable",
      "type": "function"
    },
    {
      "inputs": [
        {
          "internalType": "uint256",
          "name": "",
          "type": "uint256"
        }
      ],
      "name": "verifiers",
      "outputs": [
        {
          "internalType": "address",
          "name": "",
          "type": "address"
        }
      ],
      "stateMutability": "view",
      "type": "function"
    },
    {
      "inputs": [
        {
          "internalType": "uint256",
          "name": "_documentId",
          "type": "uint256"
        },
        {
          "internalType": "bool",
          "name": "_isCancelled",
          "type": "bool"
        }
      ],
      "name": "verifyDocument",
      "outputs": [],
      "stateMutability": "nonpayable",
      "type": "function"
    }
  ],
  "bytecode": "0x6080604052600a6002553480156200001657600080fd5b50620000223362000028565b62000078565b600080546001600160a01b038381166001600160a01b0319831681178455604051919092169283917f8be0079c531659141344cd1fd0a4f28419497f9722a3daafe3b4186f6b6457e09190a35050565b615f5c80620000886000396000f3fe608060405234801561001057600080fd5b50600436106102275760003560e01c8063715018a611610130578063ac1eff68116100b8578063df2ba0de1161007c578063df2ba0de146104f1578063e90e7ad414610504578063eed183181461050c578063f2fde38b1461051f578063fc7435e11461053257600080fd5b8063ac1eff681461047b578063b4d7e8df1461048e578063b5344257146104a3578063bb3096aa146104b6578063c2ed2b05146104c957600080fd5b80639483fbcb116100ff5780639483fbcb1461042457806399e37a551461042b5780639fa5f50b1461044b578063a257608914610453578063a935e7661461046657600080fd5b8063715018a6146103dd57806378bda750146103e5578063893d20e8146103ee5780638da5cb5b1461041357600080fd5b806335af9742116101b35780634dc95895116101825780634dc958951461035757806357d139171461036a5780635990ce801461038a5780636dd080471461039d5780636eb3b4e9146103bd57600080fd5b806335af97421461030757806335b8e8201461031a578063408bf4c31461033a578063486b1b111461034f57600080fd5b80631b280ea9116101fa5780631b280ea91461027e57806324e96df6146102915780632813d19d146102a45780632e6997fe146102cb5780633477ee2e146102e057600080fd5b80630deb56ab1461022c57806313a1c5631461024357806319f5205c146102585780631a203a311461026b575b600080fd5b6006545b6040519081526020015b60405180910390f35b61025661025136600461509d565b610545565b005b61025661026636600461516e565b6109a4565b610256610279366004615217565b610b5c565b61025661028c366004615243565b610d34565b61025661029f3660046152ed565b610fad565b6102b76102b2366004615322565b6111f1565b60405161023a989796959493929190615381565b6102d3611470565b60405161023a9190615503565b6102f36102ee366004615322565b611722565b60405161023a989796959493929190615565565b6102d3610315366004615322565b61191c565b61032d610328366004615322565b611fb7565b60405161023a91906155dc565b6103426122a1565b60405161023a91906156b1565b600554610230565b610256610365366004615706565b6125cc565b61037d610378366004615322565b6128bc565b60405161023a9190615769565b61025661039836600461577c565b612cb1565b6102306103ab3660046157b8565b60036020526000908152604090205481565b6103d06103cb366004615322565b612e71565b60405161023a91906157d3565b610256613596565b61023060025481565b6000546001600160a01b03165b6040516001600160a01b03909116815260200161023a565b6000546001600160a01b03166103fb565b60006103fb565b6102306104393660046157b8565b60046020526000908152604090205481565b6103d06135af565b6103d0610461366004615322565b613891565b61046e613fb3565b60405161023a91906158d0565b6103fb610489366004615322565b61401d565b33600090815260036020526040902054610230565b6102566104b136600461591d565b614047565b6102566104c4366004615951565b614207565b6104dc6104d7366004615322565b614398565b60405161023a999897969594939291906159aa565b6102566104ff366004615a29565b614619565b600754610230565b61025661051a36600461577c565b61495a565b61025661052d3660046157b8565b614af0565b610256610540366004615322565b614b69565b3360009081526003602052604090205461057a5760405162461bcd60e51b815260040161057190615b1d565b60405180910390fd5b835185511461059b5760405162461bcd60e51b815260040161057190615b4c565b60005b855181101561099c5760008682815181106105bb576105bb615b83565b6020026020010151905060008683815181106105d9576105d9615b83565b6020026020010151905060008684815181106105f7576105f7615b83565b60200260200101519050600086858151811061061557610615615b83565b60200260200101519050600086868151811061063357610633615b83565b6020026020010151905060046000866001600160a01b03166001600160a01b03168152602001908152602001600020546000146106ca5760405162461bcd60e51b815260206004820152602f60248201527f43616e64696461746520776974682074686520676976656e206164647265737360448201526e20616c72656164792065786973747360881b6064820152608401610571565b6001600160a01b0385166107195760405162461bcd60e51b8152602060048201526016602482015275416464726573732063616e6e6f74206265207a65726f60501b6044820152606401610571565b60008451116107615760405162461bcd60e51b81526020600482015260146024820152734e616d652063616e6e6f7420626520656d70747960601b6044820152606401610571565b600654600090610772906001615baf565b90506006604051806101200160405280428152602001886001600160a01b03168152602001336001600160a01b0316815260200187815260200160006001600160401b038111156107c5576107c5614e5d565b6040519080825280602002602001820160405280156107ee578160200160208202803683370190505b508152602080820185905260408083018990526060808401899052608090930187905284546001818101875560009687529583902085516009909202019081559184015194820180546001600160a01b039687166001600160a01b0319918216179091559084015160028301805491909616911617909355810151909190600382019061087b9082615c48565b5060808201518051610897916004840191602090910190614cf7565b5060a0820151600582015560c082015160068201906108b69082615c48565b5060e082015160078201906108cb9082615c48565b506101009190910151600890910155336000908152600360205260409020546005906108f990600190615d07565b8154811061090957610909615b83565b60009182526020808320600460099093020182018054600181018255908452818420018490556001600160a01b0389168352526040908190208290555181907fb132c360d5c4c80c0d43f46e53b9b874e559e8e8ea4156a5fec2a021f826d00a9061097b908890889088908890615d1a565b60405180910390a2505050505050808061099490615d65565b91505061059e565b505050505050565b336000908152600360205260409020546109d05760405162461bcd60e51b815260040161057190615b1d565b6007546000906109e1906001615baf565b604080516101208101825242815260208101898152918101839052606081018890526080810186905260a08101859052600060c0820181905260e082018190526101008201889052600780546001810182559152815160089091027fa66cc928b5edb82af9bd49922954155ab7b0942694bea4ce44661d9a8736c68881019182559251939450909283927fa66cc928b5edb82af9bd49922954155ab7b0942694bea4ce44661d9a8736c6890190610a989082615c48565b506040820151600282015560608201516003820190610ab79082615c48565b5060808201516004820190610acc9082615c48565b5060a08201516005820190610ae19082615c48565b5060c08201516006828101805460e086015161ffff1990911693151561ff001916939093176101009315158402179055920151600790910155805486908110610b2c57610b2c615b83565b60009182526020808320600460099093020191909101805460018101825590835291200191909155505050505050565b6000610b69600184615d07565b9050610b8333600090815260036020526040902054151590565b610b9f5760405162461bcd60e51b815260040161057190615b1d565b60068181548110610bb257610bb2615b83565b906000526020600020906009020160050154600003610be35760405162461bcd60e51b815260040161057190615d7e565b60006001600160a01b031660068281548110610c0157610c01615b83565b60009182526020909120600260099092020101546001600160a01b031614610cb75760405162461bcd60e51b815260206004820152605760248201527f41732074686520636f6d70616e7920686173206265656e20616c72656164792060448201527f61737369676e65642c20596f752063616e6e6f74206f7665722077726974652060648201527f63757272656e7420636f6d70616e792064657461696c73000000000000000000608482015260a401610571565b8160068281548110610ccb57610ccb615b83565b60009182526020918290206009919091020160020180546001600160a01b0319166001600160a01b03938416179055604051918416825282917f1004bf4098083445cd4ac13954fdcea1d9530a61f6f2a7d5a628bea6141eb17c910160405180910390a2505050565b6000610d41600188615d07565b9050610d5b33600090815260036020526040902054151590565b610d775760405162461bcd60e51b815260040161057190615b1d565b60068181548110610d8a57610d8a615b83565b906000526020600020906009020160050154600003610dbb5760405162461bcd60e51b815260040161057190615d7e565b336001600160a01b031660068281548110610dd857610dd8615b83565b60009182526020909120600260099092020101546001600160a01b031614610e5c5760405162461bcd60e51b815260206004820152603160248201527f596f7520646f206e6f742068617665207065726d697373696f6e20746f206564604482015270697420746869732063616e64696461746560781b6064820152608401610571565b8560068281548110610e7057610e70615b83565b90600052602060002090600902016003019081610e8d9190615c48565b508460068281548110610ea257610ea2615b83565b90600052602060002090600902016006019081610ebf9190615c48565b508360068281548110610ed457610ed4615b83565b90600052602060002090600902016007019081610ef19190615c48565b508260068281548110610f0657610f06615b83565b9060005260206000209060090201600801819055508160068281548110610f2f57610f2f615b83565b906000526020600020906009020160020160006101000a8154816001600160a01b0302191690836001600160a01b03160217905550807fbdb27b8859f11d297edb4d29bc56f12a3d84d3a4d7f5668d62acf04df78789b48787878787604051610f9c959493929190615dc4565b60405180910390a250505050505050565b610fb5614bd9565b610ffa5760405162461bcd60e51b815260206004820152601660248201527513db9b1e481d995c9a599a595c8818d85b8818d85b1b60521b6044820152606401610571565b6007548211156110425760405162461bcd60e51b8152602060048201526013602482015272125b9d985b1a5908191bd8dd5b595b9d081251606a1b6044820152606401610571565b600061104f600184615d07565b905060006007828154811061106657611066615b83565b9060005260206000209060080201905080600201546000036110d85760405162461bcd60e51b815260206004820152602560248201527f446f63756d656e74207769746820676976656e20494420646f6573206e6f7420604482015264195e1a5cdd60da1b6064820152608401610571565b600681015460ff161580156110f757506006810154610100900460ff16155b6111695760405162461bcd60e51b815260206004820152603760248201527f446f63756d656e74207769746820676976656e20494420697320616c7265616460448201527f79207665726966696564206f722063616e63656c6c65640000000000000000006064820152608401610571565b82156111b05760068101805461ff00191661010017905560405184907f7b4845702fcfeef348208aa5c3ef0909d12e56c50c288cdba03c5462cfd921b590600090a26111eb565b60068101805460ff1916600117905560405184907f4b93fd5160fbc8b35d08aff650902cf41c86e6df325a3eabab5bcca811976cf790600090a25b50505050565b6005818154811061120157600080fd5b60009182526020909120600990910201805460018201546002830180549294506001600160a01b03909116929161123790615bc8565b80601f016020809104026020016040519081016040528092919081815260200182805461126390615bc8565b80156112b05780601f10611285576101008083540402835291602001916112b0565b820191906000526020600020905b81548152906001019060200180831161129357829003601f168201915b5050505050908060030154908060050180546112cb90615bc8565b80601f01602080910402602001604051908101604052809291908181526020018280546112f790615bc8565b80156113445780601f1061131957610100808354040283529160200191611344565b820191906000526020600020905b81548152906001019060200180831161132757829003601f168201915b50505050509080600601549080600701805461135f90615bc8565b80601f016020809104026020016040519081016040528092919081815260200182805461138b90615bc8565b80156113d85780601f106113ad576101008083540402835291602001916113d8565b820191906000526020600020905b8154815290600101906020018083116113bb57829003601f168201915b5050505050908060080180546113ed90615bc8565b80601f016020809104026020016040519081016040528092919081815260200182805461141990615bc8565b80156114665780601f1061143b57610100808354040283529160200191611466565b820191906000526020600020905b81548152906001019060200180831161144957829003601f168201915b5050505050905088565b60606006805480602002602001604051908101604052809291908181526020016000905b828210156117195760008481526020908190206040805161012081018252600986029092018054835260018101546001600160a01b03908116948401949094526002810154909316908201526003820180549192916060840191906114f890615bc8565b80601f016020809104026020016040519081016040528092919081815260200182805461152490615bc8565b80156115715780601f1061154657610100808354040283529160200191611571565b820191906000526020600020905b81548152906001019060200180831161155457829003601f168201915b50505050508152602001600482018054806020026020016040519081016040528092919081815260200182805480156115c957602002820191906000526020600020905b8154815260200190600101908083116115b5575b50505050508152602001600582015481526020016006820180546115ec90615bc8565b80601f016020809104026020016040519081016040528092919081815260200182805461161890615bc8565b80156116655780601f1061163a57610100808354040283529160200191611665565b820191906000526020600020905b81548152906001019060200180831161164857829003601f168201915b5050505050815260200160078201805461167e90615bc8565b80601f01602080910402602001604051908101604052809291908181526020018280546116aa90615bc8565b80156116f75780601f106116cc576101008083540402835291602001916116f7565b820191906000526020600020905b8154815290600101906020018083116116da57829003601f168201915b5050505050815260200160088201548152505081526020019060010190611494565b50505050905090565b6006818154811061173257600080fd5b600091825260209091206009909102018054600182015460028301546003840180549395506001600160a01b0392831694929091169261177190615bc8565b80601f016020809104026020016040519081016040528092919081815260200182805461179d90615bc8565b80156117ea5780601f106117bf576101008083540402835291602001916117ea565b820191906000526020600020905b8154815290600101906020018083116117cd57829003601f168201915b50505050509080600501549080600601805461180590615bc8565b80601f016020809104026020016040519081016040528092919081815260200182805461183190615bc8565b801561187e5780601f106118535761010080835404028352916020019161187e565b820191906000526020600020905b81548152906001019060200180831161186157829003601f168201915b50505050509080600701805461189390615bc8565b80601f01602080910402602001604051908101604052809291908181526020018280546118bf90615bc8565b801561190c5780601f106118e15761010080835404028352916020019161190c565b820191906000526020600020905b8154815290600101906020018083116118ef57829003601f168201915b5050505050908060080154905088565b6005546060908211156119415760405162461bcd60e51b815260040161057190615e20565b600061194e600184615d07565b905060006005828154811061196557611965615b83565b90600052602060002090600902016004018054806020026020016040519081016040528092919081815260200182805480156119c057602002820191906000526020600020905b8154815260200190600101908083116119ac575b50505050509050600081516001600160401b038111156119e2576119e2614e5d565b604051908082528060200260200182016040528015611a1b57816020015b611a08614d42565b815260200190600190039081611a005790505b50905060005b8251811015611d015760066001848381518110611a4057611a40615b83565b6020026020010151611a529190615d07565b81548110611a6257611a62615b83565b6000918252602091829020604080516101208101825260099093029091018054835260018101546001600160a01b0390811694840194909452600281015490931690820152600382018054919291606084019190611abf90615bc8565b80601f0160208091040260200160405190810160405280929190818152602001828054611aeb90615bc8565b8015611b385780601f10611b0d57610100808354040283529160200191611b38565b820191906000526020600020905b815481529060010190602001808311611b1b57829003601f168201915b5050505050815260200160048201805480602002602001604051908101604052809291908181526020018280548015611b9057602002820191906000526020600020905b815481526020019060010190808311611b7c575b5050505050815260200160058201548152602001600682018054611bb390615bc8565b80601f0160208091040260200160405190810160405280929190818152602001828054611bdf90615bc8565b8015611c2c5780601f10611c0157610100808354040283529160200191611c2c565b820191906000526020600020905b815481529060010190602001808311611c0f57829003601f168201915b50505050508152602001600782018054611c4590615bc8565b80601f0160208091040260200160405190810160405280929190818152602001828054611c7190615bc8565b8015611cbe5780601f10611c9357610100808354040283529160200191611cbe565b820191906000526020600020905b815481529060010190602001808311611ca157829003601f168201915b50505050508152602001600882015481525050828281518110611ce357611ce3615b83565b60200260200101819052508080611cf990615d65565b915050611a21565b506006805480602002602001604051908101604052809291908181526020016000905b82821015611fa95760008481526020908190206040805161012081018252600986029092018054835260018101546001600160a01b0390811694840194909452600281015490931690820152600382018054919291606084019190611d8890615bc8565b80601f0160208091040260200160405190810160405280929190818152602001828054611db490615bc8565b8015611e015780601f10611dd657610100808354040283529160200191611e01565b820191906000526020600020905b815481529060010190602001808311611de457829003601f168201915b5050505050815260200160048201805480602002602001604051908101604052809291908181526020018280548015611e5957602002820191906000526020600020905b815481526020019060010190808311611e45575b5050505050815260200160058201548152602001600682018054611e7c90615bc8565b80601f0160208091040260200160405190810160405280929190818152602001828054611ea890615bc8565b8015611ef55780601f10611eca57610100808354040283529160200191611ef5565b820191906000526020600020905b815481529060010190602001808311611ed857829003601f168201915b50505050508152602001600782018054611f0e90615bc8565b80601f0160208091040260200160405190810160405280929190818152602001828054611f3a90615bc8565b8015611f875780601f10611f5c57610100808354040283529160200191611f87565b820191906000526020600020905b815481529060010190602001808311611f6a57829003601f168201915b5050505050815260200160088201548152505081526020019060010190611d24565b505050509350505050919050565b611fbf614d42565b600654821115611fe15760405162461bcd60e51b815260040161057190615e4c565b6000611fee600184615d07565b905060006006828154811061200557612005615b83565b6000918252602091829020604080516101208101825260099093029091018054835260018101546001600160a01b039081169484019490945260028101549093169082015260038201805491929160608401919061206290615bc8565b80601f016020809104026020016040519081016040528092919081815260200182805461208e90615bc8565b80156120db5780601f106120b0576101008083540402835291602001916120db565b820191906000526020600020905b8154815290600101906020018083116120be57829003601f168201915b505050505081526020016004820180548060200260200160405190810160405280929190818152602001828054801561213357602002820191906000526020600020905b81548152602001906001019080831161211f575b505050505081526020016005820154815260200160068201805461215690615bc8565b80601f016020809104026020016040519081016040528092919081815260200182805461218290615bc8565b80156121cf5780601f106121a4576101008083540402835291602001916121cf565b820191906000526020600020905b8154815290600101906020018083116121b257829003601f168201915b505050505081526020016007820180546121e890615bc8565b80601f016020809104026020016040519081016040528092919081815260200182805461221490615bc8565b80156122615780601f1061223657610100808354040283529160200191612261565b820191906000526020600020905b81548152906001019060200180831161224457829003601f168201915b5050505050815260200160088201548152505090508060a0015160000361229a5760405162461bcd60e51b815260040161057190615d7e565b9392505050565b60606005805480602002602001604051908101604052809291908181526020016000905b828210156117195760008481526020908190206040805161012081018252600986029092018054835260018101546001600160a01b0316938301939093526002830180549293929184019161231990615bc8565b80601f016020809104026020016040519081016040528092919081815260200182805461234590615bc8565b80156123925780601f1061236757610100808354040283529160200191612392565b820191906000526020600020905b81548152906001019060200180831161237557829003601f168201915b5050505050815260200160038201548152602001600482018054806020026020016040519081016040528092919081815260200182805480156123f457602002820191906000526020600020905b8154815260200190600101908083116123e0575b5050505050815260200160058201805461240d90615bc8565b80601f016020809104026020016040519081016040528092919081815260200182805461243990615bc8565b80156124865780601f1061245b57610100808354040283529160200191612486565b820191906000526020600020905b81548152906001019060200180831161246957829003601f168201915b50505050508152602001600682015481526020016007820180546124a990615bc8565b80601f01602080910402602001604051908101604052809291908181526020018280546124d590615bc8565b80156125225780601f106124f757610100808354040283529160200191612522565b820191906000526020600020905b81548152906001019060200180831161250557829003601f168201915b5050505050815260200160088201805461253b90615bc8565b80601f016020809104026020016040519081016040528092919081815260200182805461256790615bc8565b80156125b45780601f10612589576101008083540402835291602001916125b4565b820191906000526020600020905b81548152906001019060200180831161259757829003601f168201915b505050505081525050815260200190600101906122c5565b6125d4614be4565b80518251146125f55760405162461bcd60e51b815260040161057190615b4c565b60005b82518110156128b757600083828151811061261557612615615b83565b60200260200101519050600083838151811061263357612633615b83565b6020026020010151905060006001600160a01b0316826001600160a01b0316036126915760405162461bcd60e51b815260206004820152600f60248201526e496e76616c6964206164647265737360881b6044820152606401610571565b6001600160a01b0381166127e05760005b6001548110156127da57826001600160a01b0316600182815481106126c9576126c9615b83565b6000918252602090912001546001600160a01b0316036127c857600180546126f2908290615d07565b8154811061270257612702615b83565b600091825260209091200154600180546001600160a01b03909216918390811061272e5761272e615b83565b9060005260206000200160006101000a8154816001600160a01b0302191690836001600160a01b03160217905550600180548061276d5761276d615e7a565b600082815260208120820160001990810180546001600160a01b03191690559091019091556040516001600160a01b038516917f44a3cd4eb5cc5748f6169df057b1cb2ae4c383e87cd94663c430e095d4cba42491a26127da565b806127d281615d65565b9150506126a2565b506128a2565b60005b6001548110156128a057826001600160a01b03166001828154811061280a5761280a615b83565b6000918252602090912001546001600160a01b03160361288e57816001828154811061283857612838615b83565b6000918252602082200180546001600160a01b0319166001600160a01b03938416179055604051848316928616917f50d741fe04ad9863c69d1406658f6ec7c4f5e48ec2faf966a36a3e47fc05c9d991a36128a0565b8061289881615d65565b9150506127e3565b505b505080806128af90615d65565b9150506125f8565b505050565b6129146040518061012001604052806000815260200160006001600160a01b03168152602001606081526020016000815260200160608152602001606081526020016000815260200160608152602001606081525090565b6005548211156129365760405162461bcd60e51b815260040161057190615e20565b6000612943600184615d07565b905060006005828154811061295a5761295a615b83565b9060005260206000209060090201905080600301546000036129ca5760405162461bcd60e51b8152602060048201526024808201527f436f6d70616e79207769746820676976656e20494420646f6573206e6f7420656044820152631e1a5cdd60e21b6064820152608401610571565b60408051610120810182528254815260018301546001600160a01b03166020820152600283018054919284929084019190612a0490615bc8565b80601f0160208091040260200160405190810160405280929190818152602001828054612a3090615bc8565b8015612a7d5780601f10612a5257610100808354040283529160200191612a7d565b820191906000526020600020905b815481529060010190602001808311612a6057829003601f168201915b505050505081526020016003820154815260200160048201805480602002602001604051908101604052809291908181526020018280548015612adf57602002820191906000526020600020905b815481526020019060010190808311612acb575b50505050508152602001600582018054612af890615bc8565b80601f0160208091040260200160405190810160405280929190818152602001828054612b2490615bc8565b8015612b715780601f10612b4657610100808354040283529160200191612b71565b820191906000526020600020905b815481529060010190602001808311612b5457829003601f168201915b5050505050815260200160068201548152602001600782018054612b9490615bc8565b80601f0160208091040260200160405190810160405280929190818152602001828054612bc090615bc8565b8015612c0d5780601f10612be257610100808354040283529160200191612c0d565b820191906000526020600020905b815481529060010190602001808311612bf057829003601f168201915b50505050508152602001600882018054612c2690615bc8565b80601f0160208091040260200160405190810160405280929190818152602001828054612c5290615bc8565b8015612c9f5780601f10612c7457610100808354040283529160200191612c9f565b820191906000526020600020905b815481529060010190602001808311612c8257829003601f168201915b50505050508152505092505050919050565b612cb9614bd9565b80612cce57506000546001600160a01b031633145b612cea5760405162461bcd60e51b815260040161057190615e90565b6000815111612d3b5760405162461bcd60e51b815260206004820152601760248201527f4e6f20636f6d70616e79204944732070726f76696465640000000000000000006044820152606401610571565b60005b8151811015612e6d576000828281518110612d5b57612d5b615b83565b60200260200101519050600580549050811115612d8a5760405162461bcd60e51b815260040161057190615e20565b6000612d97600183615d07565b60405190915082907f028fe2791b514c47642f0d652f7c237752aea1929ed16396ef24b45eb7e2b31590600090a260058181548110612dd857612dd8615b83565b6000918252602082206009909102018181556001810180546001600160a01b031916905590612e0a6002830182614da0565b6003820160009055600482016000612e229190614dda565b612e30600583016000614da0565b6006820160009055600782016000612e489190614da0565b612e56600883016000614da0565b505050508080612e6590615d65565b915050612d3e565b5050565b600654606090821115612e965760405162461bcd60e51b815260040161057190615e4c565b6000612ea3600184615d07565b9050600060068281548110612eba57612eba615b83565b906000526020600020906009020190508060050154600003612eee5760405162461bcd60e51b815260040161057190615d7e565b600081600401805480602002602001604051908101604052809291908181526020018280548015612f3e57602002820191906000526020600020905b815481526020019060010190808311612f2a575b50505050509050600081516001600160401b03811115612f6057612f60614e5d565b604051908082528060200260200182016040528015612f9957816020015b612f86614df8565b815260200190600190039081612f7e5790505b50905060005b82518110156132a6576007838281518110612fbc57612fbc615b83565b602002602001015181548110612fd457612fd4615b83565b9060005260206000209060080201604051806101200160405290816000820154815260200160018201805461300890615bc8565b80601f016020809104026020016040519081016040528092919081815260200182805461303490615bc8565b80156130815780601f1061305657610100808354040283529160200191613081565b820191906000526020600020905b81548152906001019060200180831161306457829003601f168201915b50505050508152602001600282015481526020016003820180546130a490615bc8565b80601f01602080910402602001604051908101604052809291908181526020018280546130d090615bc8565b801561311d5780601f106130f25761010080835404028352916020019161311d565b820191906000526020600020905b81548152906001019060200180831161310057829003601f168201915b5050505050815260200160048201805461313690615bc8565b80601f016020809104026020016040519081016040528092919081815260200182805461316290615bc8565b80156131af5780601f10613184576101008083540402835291602001916131af565b820191906000526020600020905b81548152906001019060200180831161319257829003601f168201915b505050505081526020016005820180546131c890615bc8565b80601f01602080910402602001604051908101604052809291908181526020018280546131f490615bc8565b80156132415780601f1061321657610100808354040283529160200191613241565b820191906000526020600020905b81548152906001019060200180831161322457829003601f168201915b5050509183525050600682015460ff808216151560208401526101009091041615156040820152600790910154606090910152825183908390811061328857613288615b83565b6020026020010181905250808061329e90615d65565b915050612f9f565b506007805480602002602001604051908101604052809291908181526020016000905b828210156135875783829060005260206000209060080201604051806101200160405290816000820154815260200160018201805461330790615bc8565b80601f016020809104026020016040519081016040528092919081815260200182805461333390615bc8565b80156133805780601f1061335557610100808354040283529160200191613380565b820191906000526020600020905b81548152906001019060200180831161336357829003601f168201915b50505050508152602001600282015481526020016003820180546133a390615bc8565b80601f01602080910402602001604051908101604052809291908181526020018280546133cf90615bc8565b801561341c5780601f106133f15761010080835404028352916020019161341c565b820191906000526020600020905b8154815290600101906020018083116133ff57829003601f168201915b5050505050815260200160048201805461343590615bc8565b80601f016020809104026020016040519081016040528092919081815260200182805461346190615bc8565b80156134ae5780601f10613483576101008083540402835291602001916134ae565b820191906000526020600020905b81548152906001019060200180831161349157829003601f168201915b505050505081526020016005820180546134c790615bc8565b80601f01602080910402602001604051908101604052809291908181526020018280546134f390615bc8565b80156135405780601f1061351557610100808354040283529160200191613540565b820191906000526020600020905b81548152906001019060200180831161352357829003601f168201915b5050509183525050600682015460ff8082161515602080850191909152610100909204161515604083015260079092015460609091015290825260019290920191016132c9565b50505050945050505050919050565b61359e614be4565b6135a86000614c3e565b565b905090565b60606007805480602002602001604051908101604052809291908181526020016000905b828210156117195783829060005260206000209060080201604051806101200160405290816000820154815260200160018201805461361190615bc8565b80601f016020809104026020016040519081016040528092919081815260200182805461363d90615bc8565b801561368a5780601f1061365f5761010080835404028352916020019161368a565b820191906000526020600020905b81548152906001019060200180831161366d57829003601f168201915b50505050508152602001600282015481526020016003820180546136ad90615bc8565b80601f01602080910402602001604051908101604052809291908181526020018280546136d990615bc8565b80156137265780601f106136fb57610100808354040283529160200191613726565b820191906000526020600020905b81548152906001019060200180831161370957829003601f168201915b5050505050815260200160048201805461373f90615bc8565b80601f016020809104026020016040519081016040528092919081815260200182805461376b90615bc8565b80156137b85780601f1061378d576101008083540402835291602001916137b8565b820191906000526020600020905b81548152906001019060200180831161379b57829003601f168201915b505050505081526020016005820180546137d190615bc8565b80601f01602080910402602001604051908101604052809291908181526020018280546137fd90615bc8565b801561384a5780601f1061381f5761010080835404028352916020019161384a565b820191906000526020600020905b81548152906001019060200180831161382d57829003601f168201915b5050509183525050600682015460ff8082161515602080850191909152610100909204161515604083015260079092015460609091015290825260019290920191016135d3565b6006546060908211156138b65760405162461bcd60e51b815260040161057190615e4c565b60006138c3600184615d07565b90506000600682815481106138da576138da615b83565b90600052602060002090600902019050806005015460000361390e5760405162461bcd60e51b815260040161057190615d7e565b60008160040180548060200260200160405190810160405280929190818152602001828054801561395e57602002820191906000526020600020905b81548152602001906001019080831161394a575b50505050509050600081516001600160401b0381111561398057613980614e5d565b6040519080825280602002602001820160405280156139b957816020015b6139a6614df8565b81526020019060019003908161399e5790505b50905060005b8251811015613cd257600760018483815181106139de576139de615b83565b60200260200101516139f09190615d07565b81548110613a0057613a00615b83565b90600052602060002090600802016040518061012001604052908160008201548152602001600182018054613a3490615bc8565b80601f0160208091040260200160405190810160405280929190818152602001828054613a6090615bc8565b8015613aad5780601f10613a8257610100808354040283529160200191613aad565b820191906000526020600020905b815481529060010190602001808311613a9057829003601f168201915b5050505050815260200160028201548152602001600382018054613ad090615bc8565b80601f0160208091040260200160405190810160405280929190818152602001828054613afc90615bc8565b8015613b495780601f10613b1e57610100808354040283529160200191613b49565b820191906000526020600020905b815481529060010190602001808311613b2c57829003601f168201915b50505050508152602001600482018054613b6290615bc8565b80601f0160208091040260200160405190810160405280929190818152602001828054613b8e90615bc8565b8015613bdb5780601f10613bb057610100808354040283529160200191613bdb565b820191906000526020600020905b815481529060010190602001808311613bbe57829003601f168201915b50505050508152602001600582018054613bf490615bc8565b80601f0160208091040260200160405190810160405280929190818152602001828054613c2090615bc8565b8015613c6d5780601f10613c4257610100808354040283529160200191613c6d565b820191906000526020600020905b815481529060010190602001808311613c5057829003601f168201915b5050509183525050600682015460ff8082161515602084015261010090910416151560408201526007909101546060909101528251839083908110613cb457613cb4615b83565b60200260200101819052508080613cca90615d65565b9150506139bf565b506007805480602002602001604051908101604052809291908181526020016000905b8282101561358757838290600052602060002090600802016040518061012001604052908160008201548152602001600182018054613d3390615bc8565b80601f0160208091040260200160405190810160405280929190818152602001828054613d5f90615bc8565b8015613dac5780601f10613d8157610100808354040283529160200191613dac565b820191906000526020600020905b815481529060010190602001808311613d8f57829003601f168201915b5050505050815260200160028201548152602001600382018054613dcf90615bc8565b80601f0160208091040260200160405190810160405280929190818152602001828054613dfb90615bc8565b8015613e485780601f10613e1d57610100808354040283529160200191613e48565b820191906000526020600020905b815481529060010190602001808311613e2b57829003601f168201915b50505050508152602001600482018054613e6190615bc8565b80601f0160208091040260200160405190810160405280929190818152602001828054613e8d90615bc8565b8015613eda5780601f10613eaf57610100808354040283529160200191613eda565b820191906000526020600020905b815481529060010190602001808311613ebd57829003601f168201915b50505050508152602001600582018054613ef390615bc8565b80601f0160208091040260200160405190810160405280929190818152602001828054613f1f90615bc8565b8015613f6c5780601f10613f4157610100808354040283529160200191613f6c565b820191906000526020600020905b815481529060010190602001808311613f4f57829003601f168201915b5050509183525050600682015460ff808216151560208085019190915261010090920416151560408301526007909201546060909101529082526001929092019101613cf5565b6060613fbd614be4565b600180548060200260200160405190810160405280929190818152602001828054801561401357602002820191906000526020600020905b81546001600160a01b03168152600190910190602001808311613ff5575b5050505050905090565b6001818154811061402d57600080fd5b6000918252602090912001546001600160a01b0316905081565b61404f614be4565b60008151116140965760405162461bcd60e51b8152602060048201526013602482015272139bc81d995c9a599a595c9cc81d1bc8185919606a1b6044820152606401610571565b60025481516001546140a89190615baf565b11156141025760405162461bcd60e51b815260206004820152602360248201527f45786365656473206d6178696d756d206e756d626572206f662076657269666960448201526265727360e81b6064820152608401610571565b60005b8151811015612e6d57600082828151811061412257614122615b83565b6020026020010151905060006001600160a01b0316816001600160a01b0316036141805760405162461bcd60e51b815260206004820152600f60248201526e496e76616c6964206164647265737360881b6044820152606401610571565b60018054808201825560009182527fb10e2d527612073b26eecdfd717e6a320cf44b4afac2b0732d9fcbe2b7fa0cf60180546001600160a01b0319166001600160a01b03841690811790915560405190917f6d05492139c5ea989514a5d2150c028041e5c087e2a39967f67dc7d2655adb8191a250806141ff81615d65565b915050614105565b336000908152600360205260409020546142335760405162461bcd60e51b815260040161057190615b1d565b80518251146142545760405162461bcd60e51b815260040161057190615b4c565b60005b82518110156128b75760008361426e600184615d07565b8151811061427e5761427e615b83565b602002602001015190506000836001846142989190615d07565b815181106142a8576142a8615b83565b60200260200101519050600682815481106142c5576142c5615b83565b9060005260206000209060090201600501546000036142f65760405162461bcd60e51b815260040161057190615d7e565b6000614303600183615d07565b60408051848152602081018690529192507f61656cb8d1dc6013bb7713ae498059b6f4df3c60e832e655a6765c0c54863008910160405180910390a16006838154811061435257614352615b83565b9060005260206000209060090201600401818154811061437457614374615b83565b9060005260206000200160009055505050808061439090615d65565b915050614257565b600781815481106143a857600080fd5b600091825260209091206008909102018054600182018054919350906143cd90615bc8565b80601f01602080910402602001604051908101604052809291908181526020018280546143f990615bc8565b80156144465780601f1061441b57610100808354040283529160200191614446565b820191906000526020600020905b81548152906001019060200180831161442957829003601f168201915b50505050509080600201549080600301805461446190615bc8565b80601f016020809104026020016040519081016040528092919081815260200182805461448d90615bc8565b80156144da5780601f106144af576101008083540402835291602001916144da565b820191906000526020600020905b8154815290600101906020018083116144bd57829003601f168201915b5050505050908060040180546144ef90615bc8565b80601f016020809104026020016040519081016040528092919081815260200182805461451b90615bc8565b80156145685780601f1061453d57610100808354040283529160200191614568565b820191906000526020600020905b81548152906001019060200180831161454b57829003601f168201915b50505050509080600501805461457d90615bc8565b80601f01602080910402602001604051908101604052809291908181526020018280546145a990615bc8565b80156145f65780601f106145cb576101008083540402835291602001916145f6565b820191906000526020600020905b8154815290600101906020018083116145d957829003601f168201915b505050506006830154600790930154919260ff8082169361010090920416915089565b614621614bd9565b8061463657506000546001600160a01b031633145b6146525760405162461bcd60e51b815260040161057190615e90565b84518651148015614664575083518651145b8015614671575082518651145b801561467e575081518651145b801561468b575080518651145b6146a75760405162461bcd60e51b815260040161057190615b4c565b60005b86518110156149515760008782815181106146c7576146c7615b83565b6020026020010151905060008783815181106146e5576146e5615b83565b60200260200101519050600087848151811061470357614703615b83565b60200260200101519050600087858151811061472157614721615b83565b60200260200101519050600087868151811061473f5761473f615b83565b60200260200101519050600087878151811061475d5761475d615b83565b602002602001015190506000600580549050600161477b9190615baf565b90506005604051806101200160405280428152602001896001600160a01b0316815260200188815260200183815260200160006001600160401b038111156147c5576147c5614e5d565b6040519080825280602002602001820160405280156147ee578160200160208202803683370190505b5081526020808201899052604080830189905260608301889052608090920186905283546001808201865560009586529482902084516009909202019081559083015193810180546001600160a01b0319166001600160a01b039095169490941790935581015190919060028201906148679082615c48565b50606082015160038201556080820151805161488d916004840191602090910190614cf7565b5060a082015160058201906148a29082615c48565b5060c0820151600682015560e082015160078201906148c19082615c48565b5061010082015160088201906148d79082615c48565b5050506001600160a01b038716600081815260036020526040908190208390555182907fc9c99e7b42f7789f7ac090a92a6e5f98c03ad412be267f7fb9bb60b571b690879061492f908a908a908a908a908a90615ec7565b60405180910390a350505050505050808061494990615d65565b9150506146aa565b50505050505050565b614962614bd9565b8061497b57503360009081526003602052604090205415155b6149975760405162461bcd60e51b815260040161057190615e90565b60005b8151811015612e6d576000826149b1600184615d07565b815181106149c1576149c1615b83565b60200260200101519050600681815481106149de576149de615b83565b906000526020600020906009020160050154600003614a0f5760405162461bcd60e51b815260040161057190615d7e565b6000614a1c600183615d07565b60405190915082907f294c5a9bc8a39e6e06502bc8da429980f6c7b0990d75b682c12cb8705e3ace8590600090a260068181548110614a5d57614a5d615b83565b6000918252602082206009909102018181556001810180546001600160a01b0319908116909155600282018054909116905590614a9d6003830182614da0565b614aab600483016000614dda565b6005820160009055600682016000614ac39190614da0565b614ad1600783016000614da0565b6008820160009055505050508080614ae890615d65565b91505061499a565b614af8614be4565b6001600160a01b038116614b5d5760405162461bcd60e51b815260206004820152602660248201527f4f776e61626c653a206e6577206f776e657220697320746865207a65726f206160448201526564647265737360d01b6064820152608401610571565b614b6681614c3e565b50565b614b71614be4565b60008111614bd45760405162461bcd60e51b815260206004820152602a60248201527f4d6178696d756d207665726966696572732073686f756c6420626520677265616044820152690746572207468616e20360b41b6064820152608401610571565b600255565b60006135aa33614c8e565b6000546001600160a01b031633146135a85760405162461bcd60e51b815260206004820181905260248201527f4f776e61626c653a2063616c6c6572206973206e6f7420746865206f776e65726044820152606401610571565b600080546001600160a01b038381166001600160a01b0319831681178455604051919092169283917f8be0079c531659141344cd1fd0a4f28419497f9722a3daafe3b4186f6b6457e09190a35050565b6000805b600154811015614cee57826001600160a01b031660018281548110614cb957614cb9615b83565b6000918252602090912001546001600160a01b031603614cdc5750600192915050565b80614ce681615d65565b915050614c92565b50600092915050565b828054828255906000526020600020908101928215614d32579160200282015b82811115614d32578251825591602001919060010190614d17565b50614d3e929150614e48565b5090565b6040518061012001604052806000815260200160006001600160a01b0316815260200160006001600160a01b031681526020016060815260200160608152602001600081526020016060815260200160608152602001600081525090565b508054614dac90615bc8565b6000825580601f10614dbc575050565b601f016020900490600052602060002090810190614b669190614e48565b5080546000825590600052602060002090810190614b669190614e48565b604051806101200160405280600081526020016060815260200160008152602001606081526020016060815260200160608152602001600015158152602001600015158152602001600081525090565b5b80821115614d3e5760008155600101614e49565b634e487b7160e01b600052604160045260246000fd5b604051601f8201601f191681016001600160401b0381118282101715614e9b57614e9b614e5d565b604052919050565b60006001600160401b03821115614ebc57614ebc614e5d565b5060051b60200190565b80356001600160a01b0381168114614edd57600080fd5b919050565b600082601f830112614ef357600080fd5b81356020614f08614f0383614ea3565b614e73565b82815260059290921b84018101918181019086841115614f2757600080fd5b8286015b84811015614f4957614f3c81614ec6565b8352918301918301614f2b565b509695505050505050565b600082601f830112614f6557600080fd5b81356001600160401b03811115614f7e57614f7e614e5d565b614f91601f8201601f1916602001614e73565b818152846020838601011115614fa657600080fd5b816020850160208301376000918101602001919091529392505050565b600082601f830112614fd457600080fd5b81356020614fe4614f0383614ea3565b82815260059290921b8401810191818101908684111561500357600080fd5b8286015b84811015614f495780356001600160401b038111156150265760008081fd5b6150348986838b0101614f54565b845250918301918301615007565b600082601f83011261505357600080fd5b81356020615063614f0383614ea3565b82815260059290921b8401810191818101908684111561508257600080fd5b8286015b84811015614f495780358352918301918301615086565b600080600080600060a086880312156150b557600080fd5b85356001600160401b03808211156150cc57600080fd5b6150d889838a01614ee2565b965060208801359150808211156150ee57600080fd5b6150fa89838a01614fc3565b9550604088013591508082111561511057600080fd5b61511c89838a01614fc3565b9450606088013591508082111561513257600080fd5b61513e89838a01614fc3565b9350608088013591508082111561515457600080fd5b5061516188828901615042565b9150509295509295909350565b600080600080600060a0868803121561518657600080fd5b85356001600160401b038082111561519d57600080fd5b6151a989838a01614f54565b965060208801359150808211156151bf57600080fd5b6151cb89838a01614f54565b95506040880135945060608801359150808211156151e857600080fd5b6151f489838a01614f54565b9350608088013591508082111561520a57600080fd5b5061516188828901614f54565b6000806040838503121561522a57600080fd5b8235915061523a60208401614ec6565b90509250929050565b60008060008060008060c0878903121561525c57600080fd5b8635955060208701356001600160401b038082111561527a57600080fd5b6152868a838b01614f54565b9650604089013591508082111561529c57600080fd5b6152a88a838b01614f54565b955060608901359150808211156152be57600080fd5b506152cb89828a01614f54565b935050608087013591506152e160a08801614ec6565b90509295509295509295565b6000806040838503121561530057600080fd5b823591506020830135801515811461531757600080fd5b809150509250929050565b60006020828403121561533457600080fd5b5035919050565b6000815180845260005b8181101561536157602081850181015186830182015201615345565b506000602082860101526020601f19601f83011685010191505092915050565b8881526001600160a01b0388166020820152610100604082018190526000906153ac8382018a61533b565b905087606084015282810360808401526153c6818861533b565b90508560a084015282810360c08401526153e0818661533b565b905082810360e08401526153f4818561533b565b9b9a5050505050505050505050565b600081518084526020808501945080840160005b8381101561543357815187529582019590820190600101615417565b509495945050505050565b600061012082518452602083015161546160208601826001600160a01b03169052565b50604083015161547c60408601826001600160a01b03169052565b5060608301518160608601526154948286018261533b565b915050608083015184820360808601526154ae8282615403565b91505060a083015160a085015260c083015184820360c08601526154d2828261533b565b91505060e083015184820360e08601526154ec828261533b565b610100948501519590940194909452509092915050565b6000602080830181845280855180835260408601915060408160051b870101925083870160005b8281101561555857603f1988860301845261554685835161543e565b9450928501929085019060010161552a565b5092979650505050505050565b8881526001600160a01b03888116602083015287166040820152610100606082018190526000906155988382018961533b565b905086608084015282810360a08401526155b2818761533b565b905082810360c08401526155c6818661533b565b9150508260e08301529998505050505050505050565b60208152600061229a602083018461543e565b600061012082518452602083015161561260208601826001600160a01b03169052565b50604083015181604086015261562a8286018261533b565b915050606083015160608501526080830151848203608086015261564e8282615403565b91505060a083015184820360a0860152615668828261533b565b91505060c083015160c085015260e083015184820360e086015261568c828261533b565b91505061010080840151858303828701526156a7838261533b565b9695505050505050565b6000602080830181845280855180835260408601915060408160051b870101925083870160005b8281101561555857603f198886030184526156f48583516155ef565b945092850192908501906001016156d8565b6000806040838503121561571957600080fd5b82356001600160401b038082111561573057600080fd5b61573c86838701614ee2565b9350602085013591508082111561575257600080fd5b5061575f85828601614ee2565b9150509250929050565b60208152600061229a60208301846155ef565b60006020828403121561578e57600080fd5b81356001600160401b038111156157a457600080fd5b6157b084828501615042565b949350505050565b6000602082840312156157ca57600080fd5b61229a82614ec6565b60006020808301818452808551808352604092508286019150828160051b87010184880160005b838110156158c257603f1989840301855281516101208151855288820151818a8701526158298287018261533b565b91505087820151888601526060808301518683038288015261584b838261533b565b9250505060808083015186830382880152615866838261533b565b9250505060a08083015186830382880152615881838261533b565b9250505060c0808301516158988288018215159052565b505060e08281015115159086015261010091820151919094015293860193908601906001016157fa565b509098975050505050505050565b6020808252825182820181905260009190848201906040850190845b818110156159115783516001600160a01b0316835292840192918401916001016158ec565b50909695505050505050565b60006020828403121561592f57600080fd5b81356001600160401b0381111561594557600080fd5b6157b084828501614ee2565b6000806040838503121561596457600080fd5b82356001600160401b038082111561597b57600080fd5b61598786838701615042565b9350602085013591508082111561599d57600080fd5b5061575f85828601615042565b60006101208b83528060208401526159c48184018c61533b565b905089604084015282810360608401526159de818a61533b565b905082810360808401526159f2818961533b565b905082810360a0840152615a06818861533b565b95151560c0840152505091151560e0830152610100909101529695505050505050565b60008060008060008060c08789031215615a4257600080fd5b86356001600160401b0380821115615a5957600080fd5b615a658a838b01614ee2565b97506020890135915080821115615a7b57600080fd5b615a878a838b01614fc3565b96506040890135915080821115615a9d57600080fd5b615aa98a838b01614fc3565b95506060890135915080821115615abf57600080fd5b615acb8a838b01615042565b94506080890135915080821115615ae157600080fd5b615aed8a838b01614fc3565b935060a0890135915080821115615b0357600080fd5b50615b1089828a01614fc3565b9150509295509295509295565b60208082526015908201527413db9b1e4818dbdb5c185b9e4818d85b8818d85b1b605a1b604082015260600190565b60208082526018908201527f4d69736d61746368656420696e707574206c656e677468730000000000000000604082015260600190565b634e487b7160e01b600052603260045260246000fd5b634e487b7160e01b600052601160045260246000fd5b80820180821115615bc257615bc2615b99565b92915050565b600181811c90821680615bdc57607f821691505b602082108103615bfc57634e487b7160e01b600052602260045260246000fd5b50919050565b601f8211156128b757600081815260208120601f850160051c81016020861015615c295750805b601f850160051c820191505b8181101561099c57828155600101615c35565b81516001600160401b03811115615c6157615c61614e5d565b615c7581615c6f8454615bc8565b84615c02565b602080601f831160018114615caa5760008415615c925750858301515b600019600386901b1c1916600185901b17855561099c565b600085815260208120601f198616915b82811015615cd957888601518255948401946001909101908401615cba565b5085821015615cf75787850151600019600388901b60f8161c191681555b5050505050600190811b01905550565b81810381811115615bc257615bc2615b99565b608081526000615d2d608083018761533b565b8281036020840152615d3f818761533b565b90508281036040840152615d53818661533b565b91505082606083015295945050505050565b600060018201615d7757615d77615b99565b5060010190565b60208082526026908201527f43616e646964617465207769746820676976656e20494420646f6573206e6f7460408201526508195e1a5cdd60d21b606082015260800190565b60a081526000615dd760a083018861533b565b8281036020840152615de9818861533b565b90508281036040840152615dfd818761533b565b606084019590955250506001600160a01b03919091166080909101529392505050565b602080825260129082015271125b9d985b1a590818dbdb5c185b9e48125160721b604082015260600190565b602080825260149082015273125b9d985b1a590818d85b991a59185d1948125160621b604082015260600190565b634e487b7160e01b600052603160045260246000fd5b6020808252601f908201527f4f6e6c79207665726966696572206f72206f776e65722063616e2063616c6c00604082015260600190565b60a081526000615eda60a083018861533b565b8281036020840152615eec818861533b565b90508560408401528281036060840152615f06818661533b565b90508281036080840152615f1a818561533b565b9897505050505050505056fea2646970667358221220b9083cd7875b2fbd27bbb8f9defdc435eec02b75f97e0c8d2832f88fdad65c3064736f6c63430008150033",
  "linkReferences": {},
  "deployedLinkReferences": {}
}