{
  "_format": "hh-sol-artifact-1",
  "contractName": "Verification",
  "sourceName": "src/contracts/Verification.sol",
  "abi": [
    {
      "anonymous": false,
      "inputs": [
        {
          "indexed": true,
          "internalType": "uint256",
          "name": "id",
          "type": "uint256"
        },
        {
          "indexed": false,
          "internalType": "string",
          "name": "name",
          "type": "string"
        },
        {
          "indexed": false,
          "internalType": "string",
          "name": "location",
          "type": "string"
        },
        {
          "indexed": false,
          "internalType": "string",
          "name": "email",
          "type": "string"
        },
        {
          "indexed": false,
          "internalType": "uint256",
          "name": "phoneNumber",
          "type": "uint256"
        }
      ],
      "name": "CandidateAdded",
      "type": "event"
    },
    {
      "anonymous": false,
      "inputs": [
        {
          "indexed": true,
          "internalType": "uint256",
          "name": "id",
          "type": "uint256"
        },
        {
          "indexed": false,
          "internalType": "address",
          "name": "newCurrentCompany",
          "type": "address"
        }
      ],
      "name": "CandidateCurrentCompanyEdited",
      "type": "event"
    },
    {
      "anonymous": false,
      "inputs": [
        {
          "indexed": true,
          "internalType": "uint256",
          "name": "id",
          "type": "uint256"
        },
        {
          "indexed": false,
          "internalType": "string",
          "name": "name",
          "type": "string"
        },
        {
          "indexed": false,
          "internalType": "string",
          "name": "location",
          "type": "string"
        },
        {
          "indexed": false,
          "internalType": "string",
          "name": "email",
          "type": "string"
        },
        {
          "indexed": false,
          "internalType": "uint256",
          "name": "phoneNumber",
          "type": "uint256"
        },
        {
          "indexed": false,
          "internalType": "address",
          "name": "currentCompany",
          "type": "address"
        }
      ],
      "name": "CandidateEdited",
      "type": "event"
    },
    {
      "anonymous": false,
      "inputs": [
        {
          "indexed": true,
          "internalType": "uint256",
          "name": "id",
          "type": "uint256"
        }
      ],
      "name": "CandidateRemoved",
      "type": "event"
    },
    {
      "anonymous": false,
      "inputs": [
        {
          "indexed": true,
          "internalType": "uint256",
          "name": "id",
          "type": "uint256"
        },
        {
          "indexed": true,
          "internalType": "address",
          "name": "companyAddress",
          "type": "address"
        },
        {
          "indexed": false,
          "internalType": "string",
          "name": "name",
          "type": "string"
        },
        {
          "indexed": false,
          "internalType": "string",
          "name": "location",
          "type": "string"
        },
        {
          "indexed": false,
          "internalType": "uint256",
          "name": "phoneNumber",
          "type": "uint256"
        },
        {
          "indexed": false,
          "internalType": "string",
          "name": "licenseNumber",
          "type": "string"
        },
        {
          "indexed": false,
          "internalType": "string",
          "name": "email",
          "type": "string"
        }
      ],
      "name": "CompanyAdded",
      "type": "event"
    },
    {
      "anonymous": false,
      "inputs": [
        {
          "indexed": true,
          "internalType": "uint256",
          "name": "id",
          "type": "uint256"
        }
      ],
      "name": "CompanyRemoved",
      "type": "event"
    },
    {
      "anonymous": false,
      "inputs": [
        {
          "indexed": true,
          "internalType": "uint256",
          "name": "id",
          "type": "uint256"
        },
        {
          "indexed": false,
          "internalType": "string",
          "name": "name",
          "type": "string"
        },
        {
          "indexed": false,
          "internalType": "string",
          "name": "cid",
          "type": "string"
        },
        {
          "indexed": false,
          "internalType": "uint256",
          "name": "candidateId",
          "type": "uint256"
        },
        {
          "indexed": false,
          "internalType": "string",
          "name": "typeOfDocument",
          "type": "string"
        },
        {
          "indexed": false,
          "internalType": "string",
          "name": "expirationDate",
          "type": "string"
        }
      ],
      "name": "DocumentAdded",
      "type": "event"
    },
    {
      "anonymous": false,
      "inputs": [
        {
          "indexed": true,
          "internalType": "uint256",
          "name": "id",
          "type": "uint256"
        }
      ],
      "name": "DocumentCancelled",
      "type": "event"
    },
    {
      "anonymous": false,
      "inputs": [
        {
          "indexed": false,
          "internalType": "uint256",
          "name": "documentId",
          "type": "uint256"
        },
        {
          "indexed": false,
          "internalType": "uint256",
          "name": "candidateId",
          "type": "uint256"
        }
      ],
      "name": "DocumentRemoved",
      "type": "event"
    },
    {
      "anonymous": false,
      "inputs": [
        {
          "indexed": true,
          "internalType": "uint256",
          "name": "id",
          "type": "uint256"
        }
      ],
      "name": "DocumentVerified",
      "type": "event"
    },
    {
      "anonymous": false,
      "inputs": [
        {
          "indexed": true,
          "internalType": "address",
          "name": "previousOwner",
          "type": "address"
        },
        {
          "indexed": true,
          "internalType": "address",
          "name": "newOwner",
          "type": "address"
        }
      ],
      "name": "OwnershipTransferred",
      "type": "event"
    },
    {
      "anonymous": false,
      "inputs": [
        {
          "indexed": true,
          "internalType": "address",
          "name": "verifier",
          "type": "address"
        }
      ],
      "name": "VerifierAdded",
      "type": "event"
    },
    {
      "anonymous": false,
      "inputs": [
        {
          "indexed": true,
          "internalType": "address",
          "name": "verifier",
          "type": "address"
        }
      ],
      "name": "VerifierRemoved",
      "type": "event"
    },
    {
      "anonymous": false,
      "inputs": [
        {
          "indexed": true,
          "internalType": "address",
          "name": "oldVerifier",
          "type": "address"
        },
        {
          "indexed": true,
          "internalType": "address",
          "name": "newVerifier",
          "type": "address"
        }
      ],
      "name": "VerifierReplaced",
      "type": "event"
    },
    {
      "inputs": [
        {
          "internalType": "address[]",
          "name": "_addresses",
          "type": "address[]"
        },
        {
          "internalType": "string[]",
          "name": "_names",
          "type": "string[]"
        },
        {
          "internalType": "string[]",
          "name": "_locations",
          "type": "string[]"
        },
        {
          "internalType": "string[]",
          "name": "_emails",
          "type": "string[]"
        },
        {
          "internalType": "uint256[]",
          "name": "_phoneNumbers",
          "type": "uint256[]"
        }
      ],
      "name": "addCandidates",
      "outputs": [],
      "stateMutability": "nonpayable",
      "type": "function"
    },
    {
      "inputs": [
        {
          "internalType": "address[]",
          "name": "_addresses",
          "type": "address[]"
        },
        {
          "internalType": "string[]",
          "name": "_names",
          "type": "string[]"
        },
        {
          "internalType": "string[]",
          "name": "_locations",
          "type": "string[]"
        },
        {
          "internalType": "uint256[]",
          "name": "_phoneNumbers",
          "type": "uint256[]"
        },
        {
          "internalType": "string[]",
          "name": "_licenseNumbers",
          "type": "string[]"
        },
        {
          "internalType": "string[]",
          "name": "_emails",
          "type": "string[]"
        }
      ],
      "name": "addCompanies",
      "outputs": [],
      "stateMutability": "nonpayable",
      "type": "function"
    },
    {
      "inputs": [
        {
          "internalType": "string",
          "name": "_name",
          "type": "string"
        },
        {
          "internalType": "string",
          "name": "_cid",
          "type": "string"
        },
        {
          "internalType": "uint256",
          "name": "_candidateId",
          "type": "uint256"
        },
        {
          "internalType": "string",
          "name": "_typeOfDocument",
          "type": "string"
        },
        {
          "internalType": "string",
          "name": "_expirationDate",
          "type": "string"
        }
      ],
      "name": "addDocuments",
      "outputs": [],
      "stateMutability": "nonpayable",
      "type": "function"
    },
    {
      "inputs": [
        {
          "internalType": "address[]",
          "name": "_verifiers",
          "type": "address[]"
        }
      ],
      "name": "addVerifiers",
      "outputs": [],
      "stateMutability": "nonpayable",
      "type": "function"
    },
    {
      "inputs": [
        {
          "internalType": "address",
          "name": "",
          "type": "address"
        }
      ],
      "name": "candidateAddress",
      "outputs": [
        {
          "internalType": "uint256",
          "name": "",
          "type": "uint256"
        }
      ],
      "stateMutability": "view",
      "type": "function"
    },
    {
      "inputs": [
        {
          "internalType": "uint256",
          "name": "",
          "type": "uint256"
        }
      ],
      "name": "candidates",
      "outputs": [
        {
          "internalType": "uint256",
          "name": "date",
          "type": "uint256"
        },
        {
          "internalType": "address",
          "name": "address_",
          "type": "address"
        },
        {
          "internalType": "address",
          "name": "currentCompany",
          "type": "address"
        },
        {
          "internalType": "string",
          "name": "name",
          "type": "string"
        },
        {
          "internalType": "uint256",
          "name": "Id",
          "type": "uint256"
        },
        {
          "internalType": "string",
          "name": "location",
          "type": "string"
        },
        {
          "internalType": "string",
          "name": "email",
          "type": "string"
        },
        {
          "internalType": "uint256",
          "name": "phoneNumber",
          "type": "uint256"
        }
      ],
      "stateMutability": "view",
      "type": "function"
    },
    {
      "inputs": [
        {
          "internalType": "uint256",
          "name": "",
          "type": "uint256"
        }
      ],
      "name": "companies",
      "outputs": [
        {
          "internalType": "uint256",
          "name": "date",
          "type": "uint256"
        },
        {
          "internalType": "address",
          "name": "address_",
          "type": "address"
        },
        {
          "internalType": "string",
          "name": "name",
          "type": "string"
        },
        {
          "internalType": "uint256",
          "name": "Id",
          "type": "uint256"
        },
        {
          "internalType": "string",
          "name": "location",
          "type": "string"
        },
        {
          "internalType": "uint256",
          "name": "phoneNumber",
          "type": "uint256"
        },
        {
          "internalType": "string",
          "name": "licenseNumber",
          "type": "string"
        },
        {
          "internalType": "string",
          "name": "email",
          "type": "string"
        }
      ],
      "stateMutability": "view",
      "type": "function"
    },
    {
      "inputs": [
        {
          "internalType": "address",
          "name": "",
          "type": "address"
        }
      ],
      "name": "companyAddress",
      "outputs": [
        {
          "internalType": "uint256",
          "name": "",
          "type": "uint256"
        }
      ],
      "stateMutability": "view",
      "type": "function"
    },
    {
      "inputs": [
        {
          "internalType": "uint256",
          "name": "",
          "type": "uint256"
        }
      ],
      "name": "documents",
      "outputs": [
        {
          "internalType": "uint256",
          "name": "date",
          "type": "uint256"
        },
        {
          "internalType": "string",
          "name": "name",
          "type": "string"
        },
        {
          "internalType": "uint256",
          "name": "id",
          "type": "uint256"
        },
        {
          "internalType": "string",
          "name": "cid",
          "type": "string"
        },
        {
          "internalType": "string",
          "name": "typeOfDocument",
          "type": "string"
        },
        {
          "internalType": "string",
          "name": "expirationDate",
          "type": "string"
        },
        {
          "internalType": "bool",
          "name": "isVerified",
          "type": "bool"
        },
        {
          "internalType": "bool",
          "name": "isCancelled",
          "type": "bool"
        },
        {
          "internalType": "uint256",
          "name": "candidateId",
          "type": "uint256"
        }
      ],
      "stateMutability": "view",
      "type": "function"
    },
    {
      "inputs": [
        {
          "internalType": "uint256",
          "name": "_candidateId",
          "type": "uint256"
        },
        {
          "internalType": "string",
          "name": "_name",
          "type": "string"
        },
        {
          "internalType": "string",
          "name": "_location",
          "type": "string"
        },
        {
          "internalType": "string",
          "name": "_email",
          "type": "string"
        },
        {
          "internalType": "uint256",
          "name": "_phoneNumber",
          "type": "uint256"
        },
        {
          "internalType": "address",
          "name": "_currentCompany",
          "type": "address"
        }
      ],
      "name": "editCandidate",
      "outputs": [],
      "stateMutability": "nonpayable",
      "type": "function"
    },
    {
      "inputs": [
        {
          "internalType": "uint256",
          "name": "_candidateId",
          "type": "uint256"
        },
        {
          "internalType": "address",
          "name": "_newCurrentCompany",
          "type": "address"
        }
      ],
      "name": "editCandidateCurrentCompany",
      "outputs": [],
      "stateMutability": "nonpayable",
      "type": "function"
    },
    {
      "inputs": [
        {
          "internalType": "uint256",
          "name": "_id",
          "type": "uint256"
        }
      ],
      "name": "getCandidate",
      "outputs": [
        {
          "components": [
            {
              "internalType": "uint256",
              "name": "date",
              "type": "uint256"
            },
            {
              "internalType": "address",
              "name": "address_",
              "type": "address"
            },
            {
              "internalType": "address",
              "name": "currentCompany",
              "type": "address"
            },
            {
              "internalType": "string",
              "name": "name",
              "type": "string"
            },
            {
              "internalType": "uint256[]",
              "name": "documentIds",
              "type": "uint256[]"
            },
            {
              "internalType": "uint256",
              "name": "Id",
              "type": "uint256"
            },
            {
              "internalType": "string",
              "name": "location",
              "type": "string"
            },
            {
              "internalType": "string",
              "name": "email",
              "type": "string"
            },
            {
              "internalType": "uint256",
              "name": "phoneNumber",
              "type": "uint256"
            }
          ],
          "internalType": "struct Verification.Candidate",
          "name": "",
          "type": "tuple"
        }
      ],
      "stateMutability": "view",
      "type": "function"
    },
    {
      "inputs": [
        {
          "internalType": "uint256",
          "name": "_companyId",
          "type": "uint256"
        }
      ],
      "name": "getCandidatesByCompany",
      "outputs": [
        {
          "components": [
            {
              "internalType": "uint256",
              "name": "date",
              "type": "uint256"
            },
            {
              "internalType": "address",
              "name": "address_",
              "type": "address"
            },
            {
              "internalType": "address",
              "name": "currentCompany",
              "type": "address"
            },
            {
              "internalType": "string",
              "name": "name",
              "type": "string"
            },
            {
              "internalType": "uint256[]",
              "name": "documentIds",
              "type": "uint256[]"
            },
            {
              "internalType": "uint256",
              "name": "Id",
              "type": "uint256"
            },
            {
              "internalType": "string",
              "name": "location",
              "type": "string"
            },
            {
              "internalType": "string",
              "name": "email",
              "type": "string"
            },
            {
              "internalType": "uint256",
              "name": "phoneNumber",
              "type": "uint256"
            }
          ],
          "internalType": "struct Verification.Candidate[]",
          "name": "",
          "type": "tuple[]"
        }
      ],
      "stateMutability": "view",
      "type": "function"
    },
    {
      "inputs": [
        {
          "internalType": "uint256",
          "name": "_companyId",
          "type": "uint256"
        }
      ],
      "name": "getCompany",
      "outputs": [
        {
          "internalType": "uint256",
          "name": "",
          "type": "uint256"
        },
        {
          "internalType": "address",
          "name": "",
          "type": "address"
        },
        {
          "internalType": "string",
          "name": "",
          "type": "string"
        },
        {
          "internalType": "string",
          "name": "",
          "type": "string"
        },
        {
          "internalType": "uint256",
          "name": "",
          "type": "uint256"
        },
        {
          "internalType": "string",
          "name": "",
          "type": "string"
        },
        {
          "internalType": "string",
          "name": "",
          "type": "string"
        }
      ],
      "stateMutability": "view",
      "type": "function"
    },
    {
      "inputs": [],
      "name": "getCompanyIdOfSender",
      "outputs": [
        {
          "internalType": "uint256",
          "name": "",
          "type": "uint256"
        }
      ],
      "stateMutability": "view",
      "type": "function"
    },
    {
      "inputs": [
        {
          "internalType": "uint256",
          "name": "_candidateId",
          "type": "uint256"
        }
      ],
      "name": "getDocuments",
      "outputs": [
        {
          "components": [
            {
              "internalType": "uint256",
              "name": "date",
              "type": "uint256"
            },
            {
              "internalType": "string",
              "name": "name",
              "type": "string"
            },
            {
              "internalType": "uint256",
              "name": "id",
              "type": "uint256"
            },
            {
              "internalType": "string",
              "name": "cid",
              "type": "string"
            },
            {
              "internalType": "string",
              "name": "typeOfDocument",
              "type": "string"
            },
            {
              "internalType": "string",
              "name": "expirationDate",
              "type": "string"
            },
            {
              "internalType": "bool",
              "name": "isVerified",
              "type": "bool"
            },
            {
              "internalType": "bool",
              "name": "isCancelled",
              "type": "bool"
            },
            {
              "internalType": "uint256",
              "name": "candidateId",
              "type": "uint256"
            }
          ],
          "internalType": "struct Verification.Document[]",
          "name": "",
          "type": "tuple[]"
        }
      ],
      "stateMutability": "view",
      "type": "function"
    },
    {
      "inputs": [
        {
          "internalType": "uint256",
          "name": "_candidateId",
          "type": "uint256"
        }
      ],
      "name": "getDocumentsByCandidate",
      "outputs": [
        {
          "components": [
            {
              "internalType": "uint256",
              "name": "date",
              "type": "uint256"
            },
            {
              "internalType": "string",
              "name": "name",
              "type": "string"
            },
            {
              "internalType": "uint256",
              "name": "id",
              "type": "uint256"
            },
            {
              "internalType": "string",
              "name": "cid",
              "type": "string"
            },
            {
              "internalType": "string",
              "name": "typeOfDocument",
              "type": "string"
            },
            {
              "internalType": "string",
              "name": "expirationDate",
              "type": "string"
            },
            {
              "internalType": "bool",
              "name": "isVerified",
              "type": "bool"
            },
            {
              "internalType": "bool",
              "name": "isCancelled",
              "type": "bool"
            },
            {
              "internalType": "uint256",
              "name": "candidateId",
              "type": "uint256"
            }
          ],
          "internalType": "struct Verification.Document[]",
          "name": "",
          "type": "tuple[]"
        }
      ],
      "stateMutability": "view",
      "type": "function"
    },
    {
      "inputs": [],
      "name": "getOwner",
      "outputs": [
        {
          "internalType": "address",
          "name": "",
          "type": "address"
        }
      ],
      "stateMutability": "view",
      "type": "function"
    },
    {
      "inputs": [],
      "name": "getTotalCandidates",
      "outputs": [
        {
          "internalType": "uint256",
          "name": "",
          "type": "uint256"
        }
      ],
      "stateMutability": "view",
      "type": "function"
    },
    {
      "inputs": [],
      "name": "getTotalCompanies",
      "outputs": [
        {
          "internalType": "uint256",
          "name": "",
          "type": "uint256"
        }
      ],
      "stateMutability": "view",
      "type": "function"
    },
    {
      "inputs": [],
      "name": "getTotalDocuments",
      "outputs": [
        {
          "internalType": "uint256",
          "name": "",
          "type": "uint256"
        }
      ],
      "stateMutability": "view",
      "type": "function"
    },
    {
      "inputs": [],
      "name": "getVerifiers",
      "outputs": [
        {
          "internalType": "address[]",
          "name": "",
          "type": "address[]"
        }
      ],
      "stateMutability": "view",
      "type": "function"
    },
    {
      "inputs": [],
      "name": "getZeroAddress",
      "outputs": [
        {
          "internalType": "address",
          "name": "",
          "type": "address"
        }
      ],
      "stateMutability": "pure",
      "type": "function"
    },
    {
      "inputs": [],
      "name": "maxVerifiers",
      "outputs": [
        {
          "internalType": "uint256",
          "name": "",
          "type": "uint256"
        }
      ],
      "stateMutability": "view",
      "type": "function"
    },
    {
      "inputs": [],
      "name": "owner",
      "outputs": [
        {
          "internalType": "address",
          "name": "",
          "type": "address"
        }
      ],
      "stateMutability": "view",
      "type": "function"
    },
    {
      "inputs": [
        {
          "internalType": "uint256[]",
          "name": "_ids",
          "type": "uint256[]"
        }
      ],
      "name": "removeCandidates",
      "outputs": [],
      "stateMutability": "nonpayable",
      "type": "function"
    },
    {
      "inputs": [
        {
          "internalType": "uint256[]",
          "name": "_ids",
          "type": "uint256[]"
        }
      ],
      "name": "removeCompanies",
      "outputs": [],
      "stateMutability": "nonpayable",
      "type": "function"
    },
    {
      "inputs": [
        {
          "internalType": "uint256[]",
          "name": "_candidateIds",
          "type": "uint256[]"
        },
        {
          "internalType": "uint256[]",
          "name": "_documentIds",
          "type": "uint256[]"
        }
      ],
      "name": "removeDocuments",
      "outputs": [],
      "stateMutability": "nonpayable",
      "type": "function"
    },
    {
      "inputs": [],
      "name": "renounceOwnership",
      "outputs": [],
      "stateMutability": "nonpayable",
      "type": "function"
    },
    {
      "inputs": [
        {
          "internalType": "address[]",
          "name": "_oldVerifiers",
          "type": "address[]"
        },
        {
          "internalType": "address[]",
          "name": "_newVerifiers",
          "type": "address[]"
        }
      ],
      "name": "replaceVerifiers",
      "outputs": [],
      "stateMutability": "nonpayable",
      "type": "function"
    },
    {
      "inputs": [
        {
          "internalType": "uint256",
          "name": "_maxVerifiers",
          "type": "uint256"
        }
      ],
      "name": "setMaxVerifiers",
      "outputs": [],
      "stateMutability": "nonpayable",
      "type": "function"
    },
    {
      "inputs": [
        {
          "internalType": "address",
          "name": "newOwner",
          "type": "address"
        }
      ],
      "name": "transferOwnership",
      "outputs": [],
      "stateMutability": "nonpayable",
      "type": "function"
    },
    {
      "inputs": [
        {
          "internalType": "uint256",
          "name": "",
          "type": "uint256"
        }
      ],
      "name": "verifiers",
      "outputs": [
        {
          "internalType": "address",
          "name": "",
          "type": "address"
        }
      ],
      "stateMutability": "view",
      "type": "function"
    },
    {
      "inputs": [
        {
          "internalType": "uint256",
          "name": "_documentId",
          "type": "uint256"
        },
        {
          "internalType": "bool",
          "name": "_isCancelled",
          "type": "bool"
        }
      ],
      "name": "verifyDocument",
      "outputs": [],
      "stateMutability": "nonpayable",
      "type": "function"
    }
  ],
  "bytecode": "0x6080604052600a6002553480156200001657600080fd5b50620000223362000028565b62000078565b600080546001600160a01b038381166001600160a01b0319831681178455604051919092169283917f8be0079c531659141344cd1fd0a4f28419497f9722a3daafe3b4186f6b6457e09190a35050565b614c8380620000886000396000f3fe608060405234801561001057600080fd5b50600436106102065760003560e01c806378bda7501161011a578063b4d7e8df116100ad578063df2ba0de1161007c578063df2ba0de146104b1578063e90e7ad4146104c4578063eed18318146104cc578063f2fde38b146104df578063fc7435e1146104f257600080fd5b8063b4d7e8df1461044e578063b534425714610463578063bb3096aa14610476578063c2ed2b051461048957600080fd5b806399e37a55116100e957806399e37a55146103f3578063a257608914610413578063a935e76614610426578063ac1eff681461043b57600080fd5b806378bda750146103ad578063893d20e8146103b65780638da5cb5b146103db5780639483fbcb146103ec57600080fd5b806335af97421161019d57806357d139171161016c57806357d139171461032c5780635990ce80146103525780636dd08047146103655780636eb3b4e914610385578063715018a6146103a557600080fd5b806335af9742146102d157806335b8e820146102f1578063486b1b11146103115780634dc958951461031957600080fd5b80631b280ea9116101d95780631b280ea91461025d57806324e96df6146102705780632813d19d146102835780633477ee2e146102aa57600080fd5b80630deb56ab1461020b57806313a1c5631461022257806319f5205c146102375780631a203a311461024a575b600080fd5b6006545b6040519081526020015b60405180910390f35b610235610230366004613e76565b610505565b005b610235610245366004613f47565b610964565b610235610258366004613ff0565b610b1c565b61023561026b36600461401c565b610cf4565b61023561027e3660046140c6565b610f6d565b6102966102913660046140fb565b6111b1565b60405161021998979695949392919061415a565b6102bd6102b83660046140fb565b611430565b6040516102199897969594939291906141dc565b6102e46102df3660046140fb565b61162a565b6040516102199190614353565b6103046102ff3660046140fb565b611a18565b60405161021991906143b5565b60055461020f565b6102356103273660046143c8565b611d02565b61033f61033a3660046140fb565b611ff2565b604051610219979695949392919061442b565b6102356103603660046144a3565b612333565b61020f6103733660046144df565b60036020526000908152604090205481565b6103986103933660046140fb565b6124f3565b60405161021991906144fa565b610235612932565b61020f60025481565b6000546001600160a01b03165b6040516001600160a01b039091168152602001610219565b6000546001600160a01b03166103c3565b60006103c3565b61020f6104013660046144df565b60046020526000908152604090205481565b6103986104213660046140fb565b61294b565b61042e612d8c565b60405161021991906145f7565b6103c36104493660046140fb565b612df6565b3360009081526003602052604090205461020f565b610235610471366004614644565b612e20565b610235610484366004614678565b612fe0565b61049c6104973660046140fb565b613171565b604051610219999897969594939291906146d1565b6102356104bf366004614750565b6133f2565b60075461020f565b6102356104da3660046144a3565b613733565b6102356104ed3660046144df565b6138c9565b6102356105003660046140fb565b613942565b3360009081526003602052604090205461053a5760405162461bcd60e51b815260040161053190614844565b60405180910390fd5b835185511461055b5760405162461bcd60e51b815260040161053190614873565b60005b855181101561095c57600086828151811061057b5761057b6148aa565b602002602001015190506000868381518110610599576105996148aa565b6020026020010151905060008684815181106105b7576105b76148aa565b6020026020010151905060008685815181106105d5576105d56148aa565b6020026020010151905060008686815181106105f3576105f36148aa565b6020026020010151905060046000866001600160a01b03166001600160a01b031681526020019081526020016000205460001461068a5760405162461bcd60e51b815260206004820152602f60248201527f43616e64696461746520776974682074686520676976656e206164647265737360448201526e20616c72656164792065786973747360881b6064820152608401610531565b6001600160a01b0385166106d95760405162461bcd60e51b8152602060048201526016602482015275416464726573732063616e6e6f74206265207a65726f60501b6044820152606401610531565b60008451116107215760405162461bcd60e51b81526020600482015260146024820152734e616d652063616e6e6f7420626520656d70747960601b6044820152606401610531565b6006546000906107329060016148d6565b90506006604051806101200160405280428152602001886001600160a01b03168152602001336001600160a01b0316815260200187815260200160006001600160401b0381111561078557610785613c36565b6040519080825280602002602001820160405280156107ae578160200160208202803683370190505b508152602080820185905260408083018990526060808401899052608090930187905284546001818101875560009687529583902085516009909202019081559184015194820180546001600160a01b039687166001600160a01b0319918216179091559084015160028301805491909616911617909355810151909190600382019061083b908261496f565b5060808201518051610857916004840191602090910190613ad0565b5060a0820151600582015560c08201516006820190610876908261496f565b5060e0820151600782019061088b908261496f565b506101009190910151600890910155336000908152600360205260409020546005906108b990600190614a2e565b815481106108c9576108c96148aa565b60009182526020808320600460099093020182018054600181018255908452818420018490556001600160a01b0389168352526040908190208290555181907fb132c360d5c4c80c0d43f46e53b9b874e559e8e8ea4156a5fec2a021f826d00a9061093b908890889088908890614a41565b60405180910390a2505050505050808061095490614a8c565b91505061055e565b505050505050565b336000908152600360205260409020546109905760405162461bcd60e51b815260040161053190614844565b6007546000906109a19060016148d6565b604080516101208101825242815260208101898152918101839052606081018890526080810186905260a08101859052600060c0820181905260e082018190526101008201889052600780546001810182559152815160089091027fa66cc928b5edb82af9bd49922954155ab7b0942694bea4ce44661d9a8736c68881019182559251939450909283927fa66cc928b5edb82af9bd49922954155ab7b0942694bea4ce44661d9a8736c6890190610a58908261496f565b506040820151600282015560608201516003820190610a77908261496f565b5060808201516004820190610a8c908261496f565b5060a08201516005820190610aa1908261496f565b5060c08201516006828101805460e086015161ffff1990911693151561ff001916939093176101009315158402179055920151600790910155805486908110610aec57610aec6148aa565b60009182526020808320600460099093020191909101805460018101825590835291200191909155505050505050565b6000610b29600184614a2e565b9050610b4333600090815260036020526040902054151590565b610b5f5760405162461bcd60e51b815260040161053190614844565b60068181548110610b7257610b726148aa565b906000526020600020906009020160050154600003610ba35760405162461bcd60e51b815260040161053190614aa5565b60006001600160a01b031660068281548110610bc157610bc16148aa565b60009182526020909120600260099092020101546001600160a01b031614610c775760405162461bcd60e51b815260206004820152605760248201527f41732074686520636f6d70616e7920686173206265656e20616c72656164792060448201527f61737369676e65642c20596f752063616e6e6f74206f7665722077726974652060648201527f63757272656e7420636f6d70616e792064657461696c73000000000000000000608482015260a401610531565b8160068281548110610c8b57610c8b6148aa565b60009182526020918290206009919091020160020180546001600160a01b0319166001600160a01b03938416179055604051918416825282917f1004bf4098083445cd4ac13954fdcea1d9530a61f6f2a7d5a628bea6141eb17c910160405180910390a2505050565b6000610d01600188614a2e565b9050610d1b33600090815260036020526040902054151590565b610d375760405162461bcd60e51b815260040161053190614844565b60068181548110610d4a57610d4a6148aa565b906000526020600020906009020160050154600003610d7b5760405162461bcd60e51b815260040161053190614aa5565b336001600160a01b031660068281548110610d9857610d986148aa565b60009182526020909120600260099092020101546001600160a01b031614610e1c5760405162461bcd60e51b815260206004820152603160248201527f596f7520646f206e6f742068617665207065726d697373696f6e20746f206564604482015270697420746869732063616e64696461746560781b6064820152608401610531565b8560068281548110610e3057610e306148aa565b90600052602060002090600902016003019081610e4d919061496f565b508460068281548110610e6257610e626148aa565b90600052602060002090600902016006019081610e7f919061496f565b508360068281548110610e9457610e946148aa565b90600052602060002090600902016007019081610eb1919061496f565b508260068281548110610ec657610ec66148aa565b9060005260206000209060090201600801819055508160068281548110610eef57610eef6148aa565b906000526020600020906009020160020160006101000a8154816001600160a01b0302191690836001600160a01b03160217905550807fbdb27b8859f11d297edb4d29bc56f12a3d84d3a4d7f5668d62acf04df78789b48787878787604051610f5c959493929190614aeb565b60405180910390a250505050505050565b610f756139b2565b610fba5760405162461bcd60e51b815260206004820152601660248201527513db9b1e481d995c9a599a595c8818d85b8818d85b1b60521b6044820152606401610531565b6007548211156110025760405162461bcd60e51b8152602060048201526013602482015272125b9d985b1a5908191bd8dd5b595b9d081251606a1b6044820152606401610531565b600061100f600184614a2e565b9050600060078281548110611026576110266148aa565b9060005260206000209060080201905080600201546000036110985760405162461bcd60e51b815260206004820152602560248201527f446f63756d656e74207769746820676976656e20494420646f6573206e6f7420604482015264195e1a5cdd60da1b6064820152608401610531565b600681015460ff161580156110b757506006810154610100900460ff16155b6111295760405162461bcd60e51b815260206004820152603760248201527f446f63756d656e74207769746820676976656e20494420697320616c7265616460448201527f79207665726966696564206f722063616e63656c6c65640000000000000000006064820152608401610531565b82156111705760068101805461ff00191661010017905560405184907f7b4845702fcfeef348208aa5c3ef0909d12e56c50c288cdba03c5462cfd921b590600090a26111ab565b60068101805460ff1916600117905560405184907f4b93fd5160fbc8b35d08aff650902cf41c86e6df325a3eabab5bcca811976cf790600090a25b50505050565b600581815481106111c157600080fd5b60009182526020909120600990910201805460018201546002830180549294506001600160a01b0390911692916111f7906148ef565b80601f0160208091040260200160405190810160405280929190818152602001828054611223906148ef565b80156112705780601f1061124557610100808354040283529160200191611270565b820191906000526020600020905b81548152906001019060200180831161125357829003601f168201915b50505050509080600301549080600501805461128b906148ef565b80601f01602080910402602001604051908101604052809291908181526020018280546112b7906148ef565b80156113045780601f106112d957610100808354040283529160200191611304565b820191906000526020600020905b8154815290600101906020018083116112e757829003601f168201915b50505050509080600601549080600701805461131f906148ef565b80601f016020809104026020016040519081016040528092919081815260200182805461134b906148ef565b80156113985780601f1061136d57610100808354040283529160200191611398565b820191906000526020600020905b81548152906001019060200180831161137b57829003601f168201915b5050505050908060080180546113ad906148ef565b80601f01602080910402602001604051908101604052809291908181526020018280546113d9906148ef565b80156114265780601f106113fb57610100808354040283529160200191611426565b820191906000526020600020905b81548152906001019060200180831161140957829003601f168201915b5050505050905088565b6006818154811061144057600080fd5b600091825260209091206009909102018054600182015460028301546003840180549395506001600160a01b0392831694929091169261147f906148ef565b80601f01602080910402602001604051908101604052809291908181526020018280546114ab906148ef565b80156114f85780601f106114cd576101008083540402835291602001916114f8565b820191906000526020600020905b8154815290600101906020018083116114db57829003601f168201915b505050505090806005015490806006018054611513906148ef565b80601f016020809104026020016040519081016040528092919081815260200182805461153f906148ef565b801561158c5780601f106115615761010080835404028352916020019161158c565b820191906000526020600020905b81548152906001019060200180831161156f57829003601f168201915b5050505050908060070180546115a1906148ef565b80601f01602080910402602001604051908101604052809291908181526020018280546115cd906148ef565b801561161a5780601f106115ef5761010080835404028352916020019161161a565b820191906000526020600020905b8154815290600101906020018083116115fd57829003601f168201915b5050505050908060080154905088565b60055460609082111561164f5760405162461bcd60e51b815260040161053190614b47565b600061165c600184614a2e565b9050600060058281548110611673576116736148aa565b90600052602060002090600902016004018054806020026020016040519081016040528092919081815260200182805480156116ce57602002820191906000526020600020905b8154815260200190600101908083116116ba575b50505050509050600081516001600160401b038111156116f0576116f0613c36565b60405190808252806020026020018201604052801561172957816020015b611716613b1b565b81526020019060019003908161170e5790505b50905060005b8251811015611a0f576006600184838151811061174e5761174e6148aa565b60200260200101516117609190614a2e565b81548110611770576117706148aa565b6000918252602091829020604080516101208101825260099093029091018054835260018101546001600160a01b03908116948401949094526002810154909316908201526003820180549192916060840191906117cd906148ef565b80601f01602080910402602001604051908101604052809291908181526020018280546117f9906148ef565b80156118465780601f1061181b57610100808354040283529160200191611846565b820191906000526020600020905b81548152906001019060200180831161182957829003601f168201915b505050505081526020016004820180548060200260200160405190810160405280929190818152602001828054801561189e57602002820191906000526020600020905b81548152602001906001019080831161188a575b50505050508152602001600582015481526020016006820180546118c1906148ef565b80601f01602080910402602001604051908101604052809291908181526020018280546118ed906148ef565b801561193a5780601f1061190f5761010080835404028352916020019161193a565b820191906000526020600020905b81548152906001019060200180831161191d57829003601f168201915b50505050508152602001600782018054611953906148ef565b80601f016020809104026020016040519081016040528092919081815260200182805461197f906148ef565b80156119cc5780601f106119a1576101008083540402835291602001916119cc565b820191906000526020600020905b8154815290600101906020018083116119af57829003601f168201915b505050505081526020016008820154815250508282815181106119f1576119f16148aa565b60200260200101819052508080611a0790614a8c565b91505061172f565b50949350505050565b611a20613b1b565b600654821115611a425760405162461bcd60e51b815260040161053190614b73565b6000611a4f600184614a2e565b9050600060068281548110611a6657611a666148aa565b6000918252602091829020604080516101208101825260099093029091018054835260018101546001600160a01b0390811694840194909452600281015490931690820152600382018054919291606084019190611ac3906148ef565b80601f0160208091040260200160405190810160405280929190818152602001828054611aef906148ef565b8015611b3c5780601f10611b1157610100808354040283529160200191611b3c565b820191906000526020600020905b815481529060010190602001808311611b1f57829003601f168201915b5050505050815260200160048201805480602002602001604051908101604052809291908181526020018280548015611b9457602002820191906000526020600020905b815481526020019060010190808311611b80575b5050505050815260200160058201548152602001600682018054611bb7906148ef565b80601f0160208091040260200160405190810160405280929190818152602001828054611be3906148ef565b8015611c305780601f10611c0557610100808354040283529160200191611c30565b820191906000526020600020905b815481529060010190602001808311611c1357829003601f168201915b50505050508152602001600782018054611c49906148ef565b80601f0160208091040260200160405190810160405280929190818152602001828054611c75906148ef565b8015611cc25780601f10611c9757610100808354040283529160200191611cc2565b820191906000526020600020905b815481529060010190602001808311611ca557829003601f168201915b5050505050815260200160088201548152505090508060a00151600003611cfb5760405162461bcd60e51b815260040161053190614aa5565b9392505050565b611d0a6139bd565b8051825114611d2b5760405162461bcd60e51b815260040161053190614873565b60005b8251811015611fed576000838281518110611d4b57611d4b6148aa565b602002602001015190506000838381518110611d6957611d696148aa565b6020026020010151905060006001600160a01b0316826001600160a01b031603611dc75760405162461bcd60e51b815260206004820152600f60248201526e496e76616c6964206164647265737360881b6044820152606401610531565b6001600160a01b038116611f165760005b600154811015611f1057826001600160a01b031660018281548110611dff57611dff6148aa565b6000918252602090912001546001600160a01b031603611efe5760018054611e28908290614a2e565b81548110611e3857611e386148aa565b600091825260209091200154600180546001600160a01b039092169183908110611e6457611e646148aa565b9060005260206000200160006101000a8154816001600160a01b0302191690836001600160a01b031602179055506001805480611ea357611ea3614ba1565b600082815260208120820160001990810180546001600160a01b03191690559091019091556040516001600160a01b038516917f44a3cd4eb5cc5748f6169df057b1cb2ae4c383e87cd94663c430e095d4cba42491a2611f10565b80611f0881614a8c565b915050611dd8565b50611fd8565b60005b600154811015611fd657826001600160a01b031660018281548110611f4057611f406148aa565b6000918252602090912001546001600160a01b031603611fc4578160018281548110611f6e57611f6e6148aa565b6000918252602082200180546001600160a01b0319166001600160a01b03938416179055604051848316928616917f50d741fe04ad9863c69d1406658f6ec7c4f5e48ec2faf966a36a3e47fc05c9d991a3611fd6565b80611fce81614a8c565b915050611f19565b505b50508080611fe590614a8c565b915050611d2e565b505050565b60008060608060006060806005805490508811156120225760405162461bcd60e51b815260040161053190614b47565b600061202f60018a614a2e565b9050600060058281548110612046576120466148aa565b9060005260206000209060090201905080600301546000036120b65760405162461bcd60e51b8152602060048201526024808201527f436f6d70616e79207769746820676976656e20494420646f6573206e6f7420656044820152631e1a5cdd60e21b6064820152608401610531565b80600301548160010160009054906101000a90046001600160a01b03168260020183600501846006015485600701866008018480546120f4906148ef565b80601f0160208091040260200160405190810160405280929190818152602001828054612120906148ef565b801561216d5780601f106121425761010080835404028352916020019161216d565b820191906000526020600020905b81548152906001019060200180831161215057829003601f168201915b50505050509450838054612180906148ef565b80601f01602080910402602001604051908101604052809291908181526020018280546121ac906148ef565b80156121f95780601f106121ce576101008083540402835291602001916121f9565b820191906000526020600020905b8154815290600101906020018083116121dc57829003601f168201915b5050505050935081805461220c906148ef565b80601f0160208091040260200160405190810160405280929190818152602001828054612238906148ef565b80156122855780601f1061225a57610100808354040283529160200191612285565b820191906000526020600020905b81548152906001019060200180831161226857829003601f168201915b50505050509150808054612298906148ef565b80601f01602080910402602001604051908101604052809291908181526020018280546122c4906148ef565b80156123115780601f106122e657610100808354040283529160200191612311565b820191906000526020600020905b8154815290600101906020018083116122f457829003601f168201915b5050505050905098509850985098509850985098505050919395979092949650565b61233b6139b2565b8061235057506000546001600160a01b031633145b61236c5760405162461bcd60e51b815260040161053190614bb7565b60008151116123bd5760405162461bcd60e51b815260206004820152601760248201527f4e6f20636f6d70616e79204944732070726f76696465640000000000000000006044820152606401610531565b60005b81518110156124ef5760008282815181106123dd576123dd6148aa565b6020026020010151905060058054905081111561240c5760405162461bcd60e51b815260040161053190614b47565b6000612419600183614a2e565b60405190915082907f028fe2791b514c47642f0d652f7c237752aea1929ed16396ef24b45eb7e2b31590600090a26005818154811061245a5761245a6148aa565b6000918252602082206009909102018181556001810180546001600160a01b03191690559061248c6002830182613b79565b60038201600090556004820160006124a49190613bb3565b6124b2600583016000613b79565b60068201600090556007820160006124ca9190613b79565b6124d8600883016000613b79565b5050505080806124e790614a8c565b9150506123c0565b5050565b6006546060908211156125185760405162461bcd60e51b815260040161053190614b73565b6000612525600184614a2e565b905060006006828154811061253c5761253c6148aa565b9060005260206000209060090201905080600501546000036125705760405162461bcd60e51b815260040161053190614aa5565b6000816004018054806020026020016040519081016040528092919081815260200182805480156125c057602002820191906000526020600020905b8154815260200190600101908083116125ac575b50505050509050600081516001600160401b038111156125e2576125e2613c36565b60405190808252806020026020018201604052801561261b57816020015b612608613bd1565b8152602001906001900390816126005790505b50905060005b825181101561292857600783828151811061263e5761263e6148aa565b602002602001015181548110612656576126566148aa565b9060005260206000209060080201604051806101200160405290816000820154815260200160018201805461268a906148ef565b80601f01602080910402602001604051908101604052809291908181526020018280546126b6906148ef565b80156127035780601f106126d857610100808354040283529160200191612703565b820191906000526020600020905b8154815290600101906020018083116126e657829003601f168201915b5050505050815260200160028201548152602001600382018054612726906148ef565b80601f0160208091040260200160405190810160405280929190818152602001828054612752906148ef565b801561279f5780601f106127745761010080835404028352916020019161279f565b820191906000526020600020905b81548152906001019060200180831161278257829003601f168201915b505050505081526020016004820180546127b8906148ef565b80601f01602080910402602001604051908101604052809291908181526020018280546127e4906148ef565b80156128315780601f1061280657610100808354040283529160200191612831565b820191906000526020600020905b81548152906001019060200180831161281457829003601f168201915b5050505050815260200160058201805461284a906148ef565b80601f0160208091040260200160405190810160405280929190818152602001828054612876906148ef565b80156128c35780601f10612898576101008083540402835291602001916128c3565b820191906000526020600020905b8154815290600101906020018083116128a657829003601f168201915b5050509183525050600682015460ff808216151560208401526101009091041615156040820152600790910154606090910152825183908390811061290a5761290a6148aa565b6020026020010181905250808061292090614a8c565b915050612621565b5095945050505050565b61293a6139bd565b6129446000613a17565b565b905090565b6006546060908211156129705760405162461bcd60e51b815260040161053190614b73565b600061297d600184614a2e565b9050600060068281548110612994576129946148aa565b9060005260206000209060090201905080600501546000036129c85760405162461bcd60e51b815260040161053190614aa5565b600081600401805480602002602001604051908101604052809291908181526020018280548015612a1857602002820191906000526020600020905b815481526020019060010190808311612a04575b50505050509050600081516001600160401b03811115612a3a57612a3a613c36565b604051908082528060200260200182016040528015612a7357816020015b612a60613bd1565b815260200190600190039081612a585790505b50905060005b82518110156129285760076001848381518110612a9857612a986148aa565b6020026020010151612aaa9190614a2e565b81548110612aba57612aba6148aa565b90600052602060002090600802016040518061012001604052908160008201548152602001600182018054612aee906148ef565b80601f0160208091040260200160405190810160405280929190818152602001828054612b1a906148ef565b8015612b675780601f10612b3c57610100808354040283529160200191612b67565b820191906000526020600020905b815481529060010190602001808311612b4a57829003601f168201915b5050505050815260200160028201548152602001600382018054612b8a906148ef565b80601f0160208091040260200160405190810160405280929190818152602001828054612bb6906148ef565b8015612c035780601f10612bd857610100808354040283529160200191612c03565b820191906000526020600020905b815481529060010190602001808311612be657829003601f168201915b50505050508152602001600482018054612c1c906148ef565b80601f0160208091040260200160405190810160405280929190818152602001828054612c48906148ef565b8015612c955780601f10612c6a57610100808354040283529160200191612c95565b820191906000526020600020905b815481529060010190602001808311612c7857829003601f168201915b50505050508152602001600582018054612cae906148ef565b80601f0160208091040260200160405190810160405280929190818152602001828054612cda906148ef565b8015612d275780601f10612cfc57610100808354040283529160200191612d27565b820191906000526020600020905b815481529060010190602001808311612d0a57829003601f168201915b5050509183525050600682015460ff8082161515602084015261010090910416151560408201526007909101546060909101528251839083908110612d6e57612d6e6148aa565b60200260200101819052508080612d8490614a8c565b915050612a79565b6060612d966139bd565b6001805480602002602001604051908101604052809291908181526020018280548015612dec57602002820191906000526020600020905b81546001600160a01b03168152600190910190602001808311612dce575b5050505050905090565b60018181548110612e0657600080fd5b6000918252602090912001546001600160a01b0316905081565b612e286139bd565b6000815111612e6f5760405162461bcd60e51b8152602060048201526013602482015272139bc81d995c9a599a595c9cc81d1bc8185919606a1b6044820152606401610531565b6002548151600154612e8191906148d6565b1115612edb5760405162461bcd60e51b815260206004820152602360248201527f45786365656473206d6178696d756d206e756d626572206f662076657269666960448201526265727360e81b6064820152608401610531565b60005b81518110156124ef576000828281518110612efb57612efb6148aa565b6020026020010151905060006001600160a01b0316816001600160a01b031603612f595760405162461bcd60e51b815260206004820152600f60248201526e496e76616c6964206164647265737360881b6044820152606401610531565b60018054808201825560009182527fb10e2d527612073b26eecdfd717e6a320cf44b4afac2b0732d9fcbe2b7fa0cf60180546001600160a01b0319166001600160a01b03841690811790915560405190917f6d05492139c5ea989514a5d2150c028041e5c087e2a39967f67dc7d2655adb8191a25080612fd881614a8c565b915050612ede565b3360009081526003602052604090205461300c5760405162461bcd60e51b815260040161053190614844565b805182511461302d5760405162461bcd60e51b815260040161053190614873565b60005b8251811015611fed57600083613047600184614a2e565b81518110613057576130576148aa565b602002602001015190506000836001846130719190614a2e565b81518110613081576130816148aa565b602002602001015190506006828154811061309e5761309e6148aa565b9060005260206000209060090201600501546000036130cf5760405162461bcd60e51b815260040161053190614aa5565b60006130dc600183614a2e565b60408051848152602081018690529192507f61656cb8d1dc6013bb7713ae498059b6f4df3c60e832e655a6765c0c54863008910160405180910390a16006838154811061312b5761312b6148aa565b9060005260206000209060090201600401818154811061314d5761314d6148aa565b9060005260206000200160009055505050808061316990614a8c565b915050613030565b6007818154811061318157600080fd5b600091825260209091206008909102018054600182018054919350906131a6906148ef565b80601f01602080910402602001604051908101604052809291908181526020018280546131d2906148ef565b801561321f5780601f106131f45761010080835404028352916020019161321f565b820191906000526020600020905b81548152906001019060200180831161320257829003601f168201915b50505050509080600201549080600301805461323a906148ef565b80601f0160208091040260200160405190810160405280929190818152602001828054613266906148ef565b80156132b35780601f10613288576101008083540402835291602001916132b3565b820191906000526020600020905b81548152906001019060200180831161329657829003601f168201915b5050505050908060040180546132c8906148ef565b80601f01602080910402602001604051908101604052809291908181526020018280546132f4906148ef565b80156133415780601f1061331657610100808354040283529160200191613341565b820191906000526020600020905b81548152906001019060200180831161332457829003601f168201915b505050505090806005018054613356906148ef565b80601f0160208091040260200160405190810160405280929190818152602001828054613382906148ef565b80156133cf5780601f106133a4576101008083540402835291602001916133cf565b820191906000526020600020905b8154815290600101906020018083116133b257829003601f168201915b505050506006830154600790930154919260ff8082169361010090920416915089565b6133fa6139b2565b8061340f57506000546001600160a01b031633145b61342b5760405162461bcd60e51b815260040161053190614bb7565b8451865114801561343d575083518651145b801561344a575082518651145b8015613457575081518651145b8015613464575080518651145b6134805760405162461bcd60e51b815260040161053190614873565b60005b865181101561372a5760008782815181106134a0576134a06148aa565b6020026020010151905060008783815181106134be576134be6148aa565b6020026020010151905060008784815181106134dc576134dc6148aa565b6020026020010151905060008785815181106134fa576134fa6148aa565b602002602001015190506000878681518110613518576135186148aa565b602002602001015190506000878781518110613536576135366148aa565b602002602001015190506000600580549050600161355491906148d6565b90506005604051806101200160405280428152602001896001600160a01b0316815260200188815260200183815260200160006001600160401b0381111561359e5761359e613c36565b6040519080825280602002602001820160405280156135c7578160200160208202803683370190505b5081526020808201899052604080830189905260608301889052608090920186905283546001808201865560009586529482902084516009909202019081559083015193810180546001600160a01b0319166001600160a01b03909516949094179093558101519091906002820190613640908261496f565b506060820151600382015560808201518051613666916004840191602090910190613ad0565b5060a0820151600582019061367b908261496f565b5060c0820151600682015560e0820151600782019061369a908261496f565b5061010082015160088201906136b0908261496f565b5050506001600160a01b038716600081815260036020526040908190208390555182907fc9c99e7b42f7789f7ac090a92a6e5f98c03ad412be267f7fb9bb60b571b6908790613708908a908a908a908a908a90614bee565b60405180910390a350505050505050808061372290614a8c565b915050613483565b50505050505050565b61373b6139b2565b8061375457503360009081526003602052604090205415155b6137705760405162461bcd60e51b815260040161053190614bb7565b60005b81518110156124ef5760008261378a600184614a2e565b8151811061379a5761379a6148aa565b60200260200101519050600681815481106137b7576137b76148aa565b9060005260206000209060090201600501546000036137e85760405162461bcd60e51b815260040161053190614aa5565b60006137f5600183614a2e565b60405190915082907f294c5a9bc8a39e6e06502bc8da429980f6c7b0990d75b682c12cb8705e3ace8590600090a260068181548110613836576138366148aa565b6000918252602082206009909102018181556001810180546001600160a01b03199081169091556002820180549091169055906138766003830182613b79565b613884600483016000613bb3565b600582016000905560068201600061389c9190613b79565b6138aa600783016000613b79565b60088201600090555050505080806138c190614a8c565b915050613773565b6138d16139bd565b6001600160a01b0381166139365760405162461bcd60e51b815260206004820152602660248201527f4f776e61626c653a206e6577206f776e657220697320746865207a65726f206160448201526564647265737360d01b6064820152608401610531565b61393f81613a17565b50565b61394a6139bd565b600081116139ad5760405162461bcd60e51b815260206004820152602a60248201527f4d6178696d756d207665726966696572732073686f756c6420626520677265616044820152690746572207468616e20360b41b6064820152608401610531565b600255565b600061294633613a67565b6000546001600160a01b031633146129445760405162461bcd60e51b815260206004820181905260248201527f4f776e61626c653a2063616c6c6572206973206e6f7420746865206f776e65726044820152606401610531565b600080546001600160a01b038381166001600160a01b0319831681178455604051919092169283917f8be0079c531659141344cd1fd0a4f28419497f9722a3daafe3b4186f6b6457e09190a35050565b6000805b600154811015613ac757826001600160a01b031660018281548110613a9257613a926148aa565b6000918252602090912001546001600160a01b031603613ab55750600192915050565b80613abf81614a8c565b915050613a6b565b50600092915050565b828054828255906000526020600020908101928215613b0b579160200282015b82811115613b0b578251825591602001919060010190613af0565b50613b17929150613c21565b5090565b6040518061012001604052806000815260200160006001600160a01b0316815260200160006001600160a01b031681526020016060815260200160608152602001600081526020016060815260200160608152602001600081525090565b508054613b85906148ef565b6000825580601f10613b95575050565b601f01602090049060005260206000209081019061393f9190613c21565b508054600082559060005260206000209081019061393f9190613c21565b604051806101200160405280600081526020016060815260200160008152602001606081526020016060815260200160608152602001600015158152602001600015158152602001600081525090565b5b80821115613b175760008155600101613c22565b634e487b7160e01b600052604160045260246000fd5b604051601f8201601f191681016001600160401b0381118282101715613c7457613c74613c36565b604052919050565b60006001600160401b03821115613c9557613c95613c36565b5060051b60200190565b80356001600160a01b0381168114613cb657600080fd5b919050565b600082601f830112613ccc57600080fd5b81356020613ce1613cdc83613c7c565b613c4c565b82815260059290921b84018101918181019086841115613d0057600080fd5b8286015b84811015613d2257613d1581613c9f565b8352918301918301613d04565b509695505050505050565b600082601f830112613d3e57600080fd5b81356001600160401b03811115613d5757613d57613c36565b613d6a601f8201601f1916602001613c4c565b818152846020838601011115613d7f57600080fd5b816020850160208301376000918101602001919091529392505050565b600082601f830112613dad57600080fd5b81356020613dbd613cdc83613c7c565b82815260059290921b84018101918181019086841115613ddc57600080fd5b8286015b84811015613d225780356001600160401b03811115613dff5760008081fd5b613e0d8986838b0101613d2d565b845250918301918301613de0565b600082601f830112613e2c57600080fd5b81356020613e3c613cdc83613c7c565b82815260059290921b84018101918181019086841115613e5b57600080fd5b8286015b84811015613d225780358352918301918301613e5f565b600080600080600060a08688031215613e8e57600080fd5b85356001600160401b0380821115613ea557600080fd5b613eb189838a01613cbb565b96506020880135915080821115613ec757600080fd5b613ed389838a01613d9c565b95506040880135915080821115613ee957600080fd5b613ef589838a01613d9c565b94506060880135915080821115613f0b57600080fd5b613f1789838a01613d9c565b93506080880135915080821115613f2d57600080fd5b50613f3a88828901613e1b565b9150509295509295909350565b600080600080600060a08688031215613f5f57600080fd5b85356001600160401b0380821115613f7657600080fd5b613f8289838a01613d2d565b96506020880135915080821115613f9857600080fd5b613fa489838a01613d2d565b9550604088013594506060880135915080821115613fc157600080fd5b613fcd89838a01613d2d565b93506080880135915080821115613fe357600080fd5b50613f3a88828901613d2d565b6000806040838503121561400357600080fd5b8235915061401360208401613c9f565b90509250929050565b60008060008060008060c0878903121561403557600080fd5b8635955060208701356001600160401b038082111561405357600080fd5b61405f8a838b01613d2d565b9650604089013591508082111561407557600080fd5b6140818a838b01613d2d565b9550606089013591508082111561409757600080fd5b506140a489828a01613d2d565b935050608087013591506140ba60a08801613c9f565b90509295509295509295565b600080604083850312156140d957600080fd5b82359150602083013580151581146140f057600080fd5b809150509250929050565b60006020828403121561410d57600080fd5b5035919050565b6000815180845260005b8181101561413a5760208185018101518683018201520161411e565b506000602082860101526020601f19601f83011685010191505092915050565b8881526001600160a01b0388166020820152610100604082018190526000906141858382018a614114565b9050876060840152828103608084015261419f8188614114565b90508560a084015282810360c08401526141b98186614114565b905082810360e08401526141cd8185614114565b9b9a5050505050505050505050565b8881526001600160a01b038881166020830152871660408201526101006060820181905260009061420f83820189614114565b905086608084015282810360a08401526142298187614114565b905082810360c084015261423d8186614114565b9150508260e08301529998505050505050505050565b600081518084526020808501945080840160005b8381101561428357815187529582019590820190600101614267565b509495945050505050565b60006101208251845260208301516142b160208601826001600160a01b03169052565b5060408301516142cc60408601826001600160a01b03169052565b5060608301518160608601526142e482860182614114565b915050608083015184820360808601526142fe8282614253565b91505060a083015160a085015260c083015184820360c08601526143228282614114565b91505060e083015184820360e086015261433c8282614114565b610100948501519590940194909452509092915050565b6000602080830181845280855180835260408601915060408160051b870101925083870160005b828110156143a857603f1988860301845261439685835161428e565b9450928501929085019060010161437a565b5092979650505050505050565b602081526000611cfb602083018461428e565b600080604083850312156143db57600080fd5b82356001600160401b03808211156143f257600080fd5b6143fe86838701613cbb565b9350602085013591508082111561441457600080fd5b5061442185828601613cbb565b9150509250929050565b8781526001600160a01b038716602082015260e06040820181905260009061445590830188614114565b82810360608401526144678188614114565b905085608084015282810360a08401526144818186614114565b905082810360c08401526144958185614114565b9a9950505050505050505050565b6000602082840312156144b557600080fd5b81356001600160401b038111156144cb57600080fd5b6144d784828501613e1b565b949350505050565b6000602082840312156144f157600080fd5b611cfb82613c9f565b60006020808301818452808551808352604092508286019150828160051b87010184880160005b838110156145e957603f1989840301855281516101208151855288820151818a87015261455082870182614114565b9150508782015188860152606080830151868303828801526145728382614114565b925050506080808301518683038288015261458d8382614114565b9250505060a080830151868303828801526145a88382614114565b9250505060c0808301516145bf8288018215159052565b505060e0828101511515908601526101009182015191909401529386019390860190600101614521565b509098975050505050505050565b6020808252825182820181905260009190848201906040850190845b818110156146385783516001600160a01b031683529284019291840191600101614613565b50909695505050505050565b60006020828403121561465657600080fd5b81356001600160401b0381111561466c57600080fd5b6144d784828501613cbb565b6000806040838503121561468b57600080fd5b82356001600160401b03808211156146a257600080fd5b6146ae86838701613e1b565b935060208501359150808211156146c457600080fd5b5061442185828601613e1b565b60006101208b83528060208401526146eb8184018c614114565b90508960408401528281036060840152614705818a614114565b905082810360808401526147198189614114565b905082810360a084015261472d8188614114565b95151560c0840152505091151560e0830152610100909101529695505050505050565b60008060008060008060c0878903121561476957600080fd5b86356001600160401b038082111561478057600080fd5b61478c8a838b01613cbb565b975060208901359150808211156147a257600080fd5b6147ae8a838b01613d9c565b965060408901359150808211156147c457600080fd5b6147d08a838b01613d9c565b955060608901359150808211156147e657600080fd5b6147f28a838b01613e1b565b9450608089013591508082111561480857600080fd5b6148148a838b01613d9c565b935060a089013591508082111561482a57600080fd5b5061483789828a01613d9c565b9150509295509295509295565b60208082526015908201527413db9b1e4818dbdb5c185b9e4818d85b8818d85b1b605a1b604082015260600190565b60208082526018908201527f4d69736d61746368656420696e707574206c656e677468730000000000000000604082015260600190565b634e487b7160e01b600052603260045260246000fd5b634e487b7160e01b600052601160045260246000fd5b808201808211156148e9576148e96148c0565b92915050565b600181811c9082168061490357607f821691505b60208210810361492357634e487b7160e01b600052602260045260246000fd5b50919050565b601f821115611fed57600081815260208120601f850160051c810160208610156149505750805b601f850160051c820191505b8181101561095c5782815560010161495c565b81516001600160401b0381111561498857614988613c36565b61499c8161499684546148ef565b84614929565b602080601f8311600181146149d157600084156149b95750858301515b600019600386901b1c1916600185901b17855561095c565b600085815260208120601f198616915b82811015614a00578886015182559484019460019091019084016149e1565b5085821015614a1e5787850151600019600388901b60f8161c191681555b5050505050600190811b01905550565b818103818111156148e9576148e96148c0565b608081526000614a546080830187614114565b8281036020840152614a668187614114565b90508281036040840152614a7a8186614114565b91505082606083015295945050505050565b600060018201614a9e57614a9e6148c0565b5060010190565b60208082526026908201527f43616e646964617465207769746820676976656e20494420646f6573206e6f7460408201526508195e1a5cdd60d21b606082015260800190565b60a081526000614afe60a0830188614114565b8281036020840152614b108188614114565b90508281036040840152614b248187614114565b606084019590955250506001600160a01b03919091166080909101529392505050565b602080825260129082015271125b9d985b1a590818dbdb5c185b9e48125160721b604082015260600190565b602080825260149082015273125b9d985b1a590818d85b991a59185d1948125160621b604082015260600190565b634e487b7160e01b600052603160045260246000fd5b6020808252601f908201527f4f6e6c79207665726966696572206f72206f776e65722063616e2063616c6c00604082015260600190565b60a081526000614c0160a0830188614114565b8281036020840152614c138188614114565b90508560408401528281036060840152614c2d8186614114565b90508281036080840152614c418185614114565b9897505050505050505056fea264697066735822122036527ff24aa2b69b722da7502717d1e47488401fa3cae8d321629e519f150e6d64736f6c63430008150033",
  "linkReferences": {},
  "deployedLinkReferences": {}
}