{
  "_format": "hh-sol-artifact-1",
  "contractName": "Verification",
  "sourceName": "src/contracts/Verification.sol",
  "abi": [
    {
      "anonymous": false,
      "inputs": [
        {
          "indexed": true,
          "internalType": "uint256",
          "name": "id",
          "type": "uint256"
        },
        {
          "indexed": false,
          "internalType": "string",
          "name": "name",
          "type": "string"
        },
        {
          "indexed": false,
          "internalType": "string",
          "name": "location",
          "type": "string"
        },
        {
          "indexed": false,
          "internalType": "string",
          "name": "email",
          "type": "string"
        },
        {
          "indexed": false,
          "internalType": "uint256",
          "name": "phoneNumber",
          "type": "uint256"
        }
      ],
      "name": "CandidateAdded",
      "type": "event"
    },
    {
      "anonymous": false,
      "inputs": [
        {
          "indexed": true,
          "internalType": "uint256",
          "name": "id",
          "type": "uint256"
        },
        {
          "indexed": false,
          "internalType": "address",
          "name": "newCurrentCompany",
          "type": "address"
        }
      ],
      "name": "CandidateCurrentCompanyEdited",
      "type": "event"
    },
    {
      "anonymous": false,
      "inputs": [
        {
          "indexed": true,
          "internalType": "uint256",
          "name": "id",
          "type": "uint256"
        },
        {
          "indexed": false,
          "internalType": "string",
          "name": "name",
          "type": "string"
        },
        {
          "indexed": false,
          "internalType": "string",
          "name": "location",
          "type": "string"
        },
        {
          "indexed": false,
          "internalType": "string",
          "name": "email",
          "type": "string"
        },
        {
          "indexed": false,
          "internalType": "uint256",
          "name": "phoneNumber",
          "type": "uint256"
        },
        {
          "indexed": false,
          "internalType": "address",
          "name": "currentCompany",
          "type": "address"
        }
      ],
      "name": "CandidateEdited",
      "type": "event"
    },
    {
      "anonymous": false,
      "inputs": [
        {
          "indexed": true,
          "internalType": "uint256",
          "name": "id",
          "type": "uint256"
        }
      ],
      "name": "CandidateRemoved",
      "type": "event"
    },
    {
      "anonymous": false,
      "inputs": [
        {
          "indexed": true,
          "internalType": "uint256",
          "name": "id",
          "type": "uint256"
        },
        {
          "indexed": true,
          "internalType": "address",
          "name": "companyAddress",
          "type": "address"
        },
        {
          "indexed": false,
          "internalType": "string",
          "name": "name",
          "type": "string"
        },
        {
          "indexed": false,
          "internalType": "string",
          "name": "location",
          "type": "string"
        },
        {
          "indexed": false,
          "internalType": "uint256",
          "name": "phoneNumber",
          "type": "uint256"
        },
        {
          "indexed": false,
          "internalType": "string",
          "name": "licenseNumber",
          "type": "string"
        },
        {
          "indexed": false,
          "internalType": "string",
          "name": "email",
          "type": "string"
        }
      ],
      "name": "CompanyAdded",
      "type": "event"
    },
    {
      "anonymous": false,
      "inputs": [
        {
          "indexed": true,
          "internalType": "uint256",
          "name": "id",
          "type": "uint256"
        }
      ],
      "name": "CompanyRemoved",
      "type": "event"
    },
    {
      "anonymous": false,
      "inputs": [
        {
          "indexed": true,
          "internalType": "uint256",
          "name": "id",
          "type": "uint256"
        },
        {
          "indexed": false,
          "internalType": "string",
          "name": "name",
          "type": "string"
        },
        {
          "indexed": false,
          "internalType": "string",
          "name": "cid",
          "type": "string"
        },
        {
          "indexed": false,
          "internalType": "uint256",
          "name": "candidateId",
          "type": "uint256"
        },
        {
          "indexed": false,
          "internalType": "string",
          "name": "typeOfDocument",
          "type": "string"
        },
        {
          "indexed": false,
          "internalType": "string",
          "name": "expirationDate",
          "type": "string"
        }
      ],
      "name": "DocumentAdded",
      "type": "event"
    },
    {
      "anonymous": false,
      "inputs": [
        {
          "indexed": true,
          "internalType": "uint256",
          "name": "id",
          "type": "uint256"
        }
      ],
      "name": "DocumentCancelled",
      "type": "event"
    },
    {
      "anonymous": false,
      "inputs": [
        {
          "indexed": false,
          "internalType": "uint256",
          "name": "documentId",
          "type": "uint256"
        },
        {
          "indexed": false,
          "internalType": "uint256",
          "name": "candidateId",
          "type": "uint256"
        }
      ],
      "name": "DocumentRemoved",
      "type": "event"
    },
    {
      "anonymous": false,
      "inputs": [
        {
          "indexed": true,
          "internalType": "uint256",
          "name": "id",
          "type": "uint256"
        }
      ],
      "name": "DocumentVerified",
      "type": "event"
    },
    {
      "anonymous": false,
      "inputs": [
        {
          "indexed": true,
          "internalType": "address",
          "name": "previousOwner",
          "type": "address"
        },
        {
          "indexed": true,
          "internalType": "address",
          "name": "newOwner",
          "type": "address"
        }
      ],
      "name": "OwnershipTransferred",
      "type": "event"
    },
    {
      "anonymous": false,
      "inputs": [
        {
          "indexed": true,
          "internalType": "address",
          "name": "verifier",
          "type": "address"
        }
      ],
      "name": "VerifierAdded",
      "type": "event"
    },
    {
      "anonymous": false,
      "inputs": [
        {
          "indexed": true,
          "internalType": "address",
          "name": "verifier",
          "type": "address"
        }
      ],
      "name": "VerifierRemoved",
      "type": "event"
    },
    {
      "anonymous": false,
      "inputs": [
        {
          "indexed": true,
          "internalType": "address",
          "name": "oldVerifier",
          "type": "address"
        },
        {
          "indexed": true,
          "internalType": "address",
          "name": "newVerifier",
          "type": "address"
        }
      ],
      "name": "VerifierReplaced",
      "type": "event"
    },
    {
      "inputs": [
        {
          "internalType": "address[]",
          "name": "_addresses",
          "type": "address[]"
        },
        {
          "internalType": "string[]",
          "name": "_names",
          "type": "string[]"
        },
        {
          "internalType": "string[]",
          "name": "_locations",
          "type": "string[]"
        },
        {
          "internalType": "string[]",
          "name": "_emails",
          "type": "string[]"
        },
        {
          "internalType": "uint256[]",
          "name": "_phoneNumbers",
          "type": "uint256[]"
        }
      ],
      "name": "addCandidates",
      "outputs": [],
      "stateMutability": "nonpayable",
      "type": "function"
    },
    {
      "inputs": [
        {
          "internalType": "address[]",
          "name": "_addresses",
          "type": "address[]"
        },
        {
          "internalType": "string[]",
          "name": "_names",
          "type": "string[]"
        },
        {
          "internalType": "string[]",
          "name": "_locations",
          "type": "string[]"
        },
        {
          "internalType": "uint256[]",
          "name": "_phoneNumbers",
          "type": "uint256[]"
        },
        {
          "internalType": "string[]",
          "name": "_licenseNumbers",
          "type": "string[]"
        },
        {
          "internalType": "string[]",
          "name": "_emails",
          "type": "string[]"
        }
      ],
      "name": "addCompanies",
      "outputs": [],
      "stateMutability": "nonpayable",
      "type": "function"
    },
    {
      "inputs": [
        {
          "internalType": "string[]",
          "name": "_names",
          "type": "string[]"
        },
        {
          "internalType": "string[]",
          "name": "_cids",
          "type": "string[]"
        },
        {
          "internalType": "uint256[]",
          "name": "_candidateIds",
          "type": "uint256[]"
        },
        {
          "internalType": "string[]",
          "name": "_typesOfDocument",
          "type": "string[]"
        },
        {
          "internalType": "string[]",
          "name": "_expirationDates",
          "type": "string[]"
        }
      ],
      "name": "addDocuments",
      "outputs": [],
      "stateMutability": "nonpayable",
      "type": "function"
    },
    {
      "inputs": [
        {
          "internalType": "address[]",
          "name": "_verifiers",
          "type": "address[]"
        }
      ],
      "name": "addVerifiers",
      "outputs": [],
      "stateMutability": "nonpayable",
      "type": "function"
    },
    {
      "inputs": [
        {
          "internalType": "address",
          "name": "",
          "type": "address"
        }
      ],
      "name": "candidateAddress",
      "outputs": [
        {
          "internalType": "uint256",
          "name": "",
          "type": "uint256"
        }
      ],
      "stateMutability": "view",
      "type": "function"
    },
    {
      "inputs": [
        {
          "internalType": "uint256",
          "name": "",
          "type": "uint256"
        }
      ],
      "name": "candidates",
      "outputs": [
        {
          "internalType": "uint256",
          "name": "date",
          "type": "uint256"
        },
        {
          "internalType": "address",
          "name": "address_",
          "type": "address"
        },
        {
          "internalType": "address",
          "name": "currentCompany",
          "type": "address"
        },
        {
          "internalType": "string",
          "name": "name",
          "type": "string"
        },
        {
          "internalType": "uint256",
          "name": "Id",
          "type": "uint256"
        },
        {
          "internalType": "string",
          "name": "location",
          "type": "string"
        },
        {
          "internalType": "string",
          "name": "email",
          "type": "string"
        },
        {
          "internalType": "uint256",
          "name": "phoneNumber",
          "type": "uint256"
        }
      ],
      "stateMutability": "view",
      "type": "function"
    },
    {
      "inputs": [
        {
          "internalType": "uint256",
          "name": "",
          "type": "uint256"
        }
      ],
      "name": "companies",
      "outputs": [
        {
          "internalType": "uint256",
          "name": "date",
          "type": "uint256"
        },
        {
          "internalType": "address",
          "name": "address_",
          "type": "address"
        },
        {
          "internalType": "string",
          "name": "name",
          "type": "string"
        },
        {
          "internalType": "uint256",
          "name": "Id",
          "type": "uint256"
        },
        {
          "internalType": "string",
          "name": "location",
          "type": "string"
        },
        {
          "internalType": "uint256",
          "name": "phoneNumber",
          "type": "uint256"
        },
        {
          "internalType": "string",
          "name": "licenseNumber",
          "type": "string"
        },
        {
          "internalType": "string",
          "name": "email",
          "type": "string"
        }
      ],
      "stateMutability": "view",
      "type": "function"
    },
    {
      "inputs": [
        {
          "internalType": "address",
          "name": "",
          "type": "address"
        }
      ],
      "name": "companyAddress",
      "outputs": [
        {
          "internalType": "uint256",
          "name": "",
          "type": "uint256"
        }
      ],
      "stateMutability": "view",
      "type": "function"
    },
    {
      "inputs": [
        {
          "internalType": "uint256",
          "name": "",
          "type": "uint256"
        }
      ],
      "name": "documents",
      "outputs": [
        {
          "internalType": "uint256",
          "name": "date",
          "type": "uint256"
        },
        {
          "internalType": "string",
          "name": "name",
          "type": "string"
        },
        {
          "internalType": "uint256",
          "name": "id",
          "type": "uint256"
        },
        {
          "internalType": "string",
          "name": "cid",
          "type": "string"
        },
        {
          "internalType": "string",
          "name": "typeOfDocument",
          "type": "string"
        },
        {
          "internalType": "string",
          "name": "expirationDate",
          "type": "string"
        },
        {
          "internalType": "bool",
          "name": "isVerified",
          "type": "bool"
        },
        {
          "internalType": "bool",
          "name": "isCancelled",
          "type": "bool"
        },
        {
          "internalType": "uint256",
          "name": "candidateId",
          "type": "uint256"
        }
      ],
      "stateMutability": "view",
      "type": "function"
    },
    {
      "inputs": [
        {
          "internalType": "uint256",
          "name": "_candidateId",
          "type": "uint256"
        },
        {
          "internalType": "string",
          "name": "_name",
          "type": "string"
        },
        {
          "internalType": "string",
          "name": "_location",
          "type": "string"
        },
        {
          "internalType": "string",
          "name": "_email",
          "type": "string"
        },
        {
          "internalType": "uint256",
          "name": "_phoneNumber",
          "type": "uint256"
        },
        {
          "internalType": "address",
          "name": "_currentCompany",
          "type": "address"
        }
      ],
      "name": "editCandidate",
      "outputs": [],
      "stateMutability": "nonpayable",
      "type": "function"
    },
    {
      "inputs": [
        {
          "internalType": "uint256",
          "name": "_candidateId",
          "type": "uint256"
        },
        {
          "internalType": "address",
          "name": "_newCurrentCompany",
          "type": "address"
        }
      ],
      "name": "editCandidateCurrentCompany",
      "outputs": [],
      "stateMutability": "nonpayable",
      "type": "function"
    },
    {
      "inputs": [
        {
          "internalType": "uint256",
          "name": "_id",
          "type": "uint256"
        }
      ],
      "name": "getCandidate",
      "outputs": [
        {
          "internalType": "string",
          "name": "",
          "type": "string"
        },
        {
          "internalType": "uint256",
          "name": "",
          "type": "uint256"
        },
        {
          "internalType": "string",
          "name": "",
          "type": "string"
        },
        {
          "internalType": "string",
          "name": "",
          "type": "string"
        },
        {
          "internalType": "uint256",
          "name": "",
          "type": "uint256"
        }
      ],
      "stateMutability": "view",
      "type": "function"
    },
    {
      "inputs": [
        {
          "internalType": "uint256",
          "name": "_companyId",
          "type": "uint256"
        }
      ],
      "name": "getCandidatesByCompany",
      "outputs": [
        {
          "components": [
            {
              "internalType": "uint256",
              "name": "date",
              "type": "uint256"
            },
            {
              "internalType": "address",
              "name": "address_",
              "type": "address"
            },
            {
              "internalType": "address",
              "name": "currentCompany",
              "type": "address"
            },
            {
              "internalType": "string",
              "name": "name",
              "type": "string"
            },
            {
              "internalType": "uint256[]",
              "name": "documentIds",
              "type": "uint256[]"
            },
            {
              "internalType": "uint256",
              "name": "Id",
              "type": "uint256"
            },
            {
              "internalType": "string",
              "name": "location",
              "type": "string"
            },
            {
              "internalType": "string",
              "name": "email",
              "type": "string"
            },
            {
              "internalType": "uint256",
              "name": "phoneNumber",
              "type": "uint256"
            }
          ],
          "internalType": "struct Verification.Candidate[]",
          "name": "",
          "type": "tuple[]"
        }
      ],
      "stateMutability": "view",
      "type": "function"
    },
    {
      "inputs": [
        {
          "internalType": "uint256",
          "name": "_companyId",
          "type": "uint256"
        }
      ],
      "name": "getCompany",
      "outputs": [
        {
          "internalType": "uint256",
          "name": "",
          "type": "uint256"
        },
        {
          "internalType": "address",
          "name": "",
          "type": "address"
        },
        {
          "internalType": "string",
          "name": "",
          "type": "string"
        },
        {
          "internalType": "string",
          "name": "",
          "type": "string"
        },
        {
          "internalType": "uint256",
          "name": "",
          "type": "uint256"
        },
        {
          "internalType": "string",
          "name": "",
          "type": "string"
        },
        {
          "internalType": "string",
          "name": "",
          "type": "string"
        }
      ],
      "stateMutability": "view",
      "type": "function"
    },
    {
      "inputs": [],
      "name": "getCompanyIdOfSender",
      "outputs": [
        {
          "internalType": "uint256",
          "name": "",
          "type": "uint256"
        }
      ],
      "stateMutability": "view",
      "type": "function"
    },
    {
      "inputs": [
        {
          "internalType": "uint256",
          "name": "_candidateId",
          "type": "uint256"
        }
      ],
      "name": "getDocuments",
      "outputs": [
        {
          "components": [
            {
              "internalType": "uint256",
              "name": "date",
              "type": "uint256"
            },
            {
              "internalType": "string",
              "name": "name",
              "type": "string"
            },
            {
              "internalType": "uint256",
              "name": "id",
              "type": "uint256"
            },
            {
              "internalType": "string",
              "name": "cid",
              "type": "string"
            },
            {
              "internalType": "string",
              "name": "typeOfDocument",
              "type": "string"
            },
            {
              "internalType": "string",
              "name": "expirationDate",
              "type": "string"
            },
            {
              "internalType": "bool",
              "name": "isVerified",
              "type": "bool"
            },
            {
              "internalType": "bool",
              "name": "isCancelled",
              "type": "bool"
            },
            {
              "internalType": "uint256",
              "name": "candidateId",
              "type": "uint256"
            }
          ],
          "internalType": "struct Verification.Document[]",
          "name": "",
          "type": "tuple[]"
        }
      ],
      "stateMutability": "view",
      "type": "function"
    },
    {
      "inputs": [
        {
          "internalType": "uint256",
          "name": "_candidateId",
          "type": "uint256"
        }
      ],
      "name": "getDocumentsByCandidate",
      "outputs": [
        {
          "components": [
            {
              "internalType": "uint256",
              "name": "date",
              "type": "uint256"
            },
            {
              "internalType": "string",
              "name": "name",
              "type": "string"
            },
            {
              "internalType": "uint256",
              "name": "id",
              "type": "uint256"
            },
            {
              "internalType": "string",
              "name": "cid",
              "type": "string"
            },
            {
              "internalType": "string",
              "name": "typeOfDocument",
              "type": "string"
            },
            {
              "internalType": "string",
              "name": "expirationDate",
              "type": "string"
            },
            {
              "internalType": "bool",
              "name": "isVerified",
              "type": "bool"
            },
            {
              "internalType": "bool",
              "name": "isCancelled",
              "type": "bool"
            },
            {
              "internalType": "uint256",
              "name": "candidateId",
              "type": "uint256"
            }
          ],
          "internalType": "struct Verification.Document[]",
          "name": "",
          "type": "tuple[]"
        }
      ],
      "stateMutability": "view",
      "type": "function"
    },
    {
      "inputs": [],
      "name": "getOwner",
      "outputs": [
        {
          "internalType": "address",
          "name": "",
          "type": "address"
        }
      ],
      "stateMutability": "view",
      "type": "function"
    },
    {
      "inputs": [],
      "name": "getVerifiers",
      "outputs": [
        {
          "internalType": "address[]",
          "name": "",
          "type": "address[]"
        }
      ],
      "stateMutability": "view",
      "type": "function"
    },
    {
      "inputs": [],
      "name": "getZeroAddress",
      "outputs": [
        {
          "internalType": "address",
          "name": "",
          "type": "address"
        }
      ],
      "stateMutability": "pure",
      "type": "function"
    },
    {
      "inputs": [],
      "name": "maxVerifiers",
      "outputs": [
        {
          "internalType": "uint256",
          "name": "",
          "type": "uint256"
        }
      ],
      "stateMutability": "view",
      "type": "function"
    },
    {
      "inputs": [],
      "name": "owner",
      "outputs": [
        {
          "internalType": "address",
          "name": "",
          "type": "address"
        }
      ],
      "stateMutability": "view",
      "type": "function"
    },
    {
      "inputs": [
        {
          "internalType": "uint256[]",
          "name": "_ids",
          "type": "uint256[]"
        }
      ],
      "name": "removeCandidates",
      "outputs": [],
      "stateMutability": "nonpayable",
      "type": "function"
    },
    {
      "inputs": [
        {
          "internalType": "uint256[]",
          "name": "_ids",
          "type": "uint256[]"
        }
      ],
      "name": "removeCompanies",
      "outputs": [],
      "stateMutability": "nonpayable",
      "type": "function"
    },
    {
      "inputs": [
        {
          "internalType": "uint256[]",
          "name": "_candidateIds",
          "type": "uint256[]"
        },
        {
          "internalType": "uint256[]",
          "name": "_documentIds",
          "type": "uint256[]"
        }
      ],
      "name": "removeDocuments",
      "outputs": [],
      "stateMutability": "nonpayable",
      "type": "function"
    },
    {
      "inputs": [],
      "name": "renounceOwnership",
      "outputs": [],
      "stateMutability": "nonpayable",
      "type": "function"
    },
    {
      "inputs": [
        {
          "internalType": "address[]",
          "name": "_oldVerifiers",
          "type": "address[]"
        },
        {
          "internalType": "address[]",
          "name": "_newVerifiers",
          "type": "address[]"
        }
      ],
      "name": "replaceVerifiers",
      "outputs": [],
      "stateMutability": "nonpayable",
      "type": "function"
    },
    {
      "inputs": [
        {
          "internalType": "uint256",
          "name": "_maxVerifiers",
          "type": "uint256"
        }
      ],
      "name": "setMaxVerifiers",
      "outputs": [],
      "stateMutability": "nonpayable",
      "type": "function"
    },
    {
      "inputs": [
        {
          "internalType": "address",
          "name": "newOwner",
          "type": "address"
        }
      ],
      "name": "transferOwnership",
      "outputs": [],
      "stateMutability": "nonpayable",
      "type": "function"
    },
    {
      "inputs": [
        {
          "internalType": "uint256",
          "name": "",
          "type": "uint256"
        }
      ],
      "name": "verifiers",
      "outputs": [
        {
          "internalType": "address",
          "name": "",
          "type": "address"
        }
      ],
      "stateMutability": "view",
      "type": "function"
    },
    {
      "inputs": [
        {
          "internalType": "uint256",
          "name": "_documentId",
          "type": "uint256"
        },
        {
          "internalType": "bool",
          "name": "_isCancelled",
          "type": "bool"
        }
      ],
      "name": "verifyDocument",
      "outputs": [],
      "stateMutability": "nonpayable",
      "type": "function"
    }
  ],
  "bytecode": "0x6080604052600a6002553480156200001657600080fd5b50620000223362000028565b62000078565b600080546001600160a01b038381166001600160a01b0319831681178455604051919092169283917f8be0079c531659141344cd1fd0a4f28419497f9722a3daafe3b4186f6b6457e09190a35050565b614d6b80620000886000396000f3fe608060405234801561001057600080fd5b50600436106101e55760003560e01c806378bda7501161010f578063b4d7e8df116100a2578063df2ba0de11610071578063df2ba0de1461048c578063eed183181461049f578063f2fde38b146104b2578063fc7435e1146104c557600080fd5b8063b4d7e8df14610429578063b53442571461043e578063bb3096aa14610451578063c2ed2b051461046457600080fd5b806399e37a55116100de57806399e37a55146103ce578063a2576089146103ee578063a935e76614610401578063ac1eff681461041657600080fd5b806378bda75014610388578063893d20e8146103915780638da5cb5b146103b65780639483fbcb146103c757600080fd5b806335af9742116101875780635990ce80116101565780635990ce801461031f5780636dd08047146103325780636eb3b4e914610360578063715018a61461038057600080fd5b806335af9742146102a257806335b8e820146102c25780634dc95895146102e657806357d13917146102f957600080fd5b80631e32f407116101c35780631e32f4071461022557806324e96df6146102385780632813d19d1461024b5780633477ee2e1461027b57600080fd5b806313a1c563146101ea5780631a203a31146101ff5780631b280ea914610212575b600080fd5b6101fd6101f8366004613f2e565b6104d8565b005b6101fd61020d366004613fff565b610937565b6101fd61022036600461402b565b610b28565b6101fd6102333660046140d5565b610da1565b6101fd610246366004614199565b6110bf565b61025e6102593660046141ce565b611303565b60405161027298979695949392919061422d565b60405180910390f35b61028e6102893660046141ce565b611582565b6040516102729897969594939291906142af565b6102b56102b03660046141ce565b61177c565b6040516102729190614361565b6102d56102d03660046141ce565b611bc3565b604051610272959493929190614465565b6101fd6102f43660046144b7565b611e18565b61030c6103073660046141ce565b612108565b604051610272979695949392919061451a565b6101fd61032d366004614592565b612449565b6103526103403660046145ce565b60036020526000908152604090205481565b604051908152602001610272565b61037361036e3660046141ce565b612609565b60405161027291906145f0565b6101fd612a48565b61035260025481565b6000546001600160a01b03165b6040516001600160a01b039091168152602001610272565b6000546001600160a01b031661039e565b600061039e565b6103526103dc3660046145ce565b60046020526000908152604090205481565b6103736103fc3660046141ce565b612a61565b610409612ea2565b60405161027291906146df565b61039e6104243660046141ce565b612f0c565b33600090815260036020526040902054610352565b6101fd61044c36600461472c565b612f36565b6101fd61045f366004614760565b6130f6565b6104776104723660046141ce565b613287565b604051610272999897969594939291906147b9565b6101fd61049a366004614838565b613508565b6101fd6104ad366004614592565b613849565b6101fd6104c03660046145ce565b6139df565b6101fd6104d33660046141ce565b613a58565b3360009081526003602052604090205461050d5760405162461bcd60e51b81526004016105049061492c565b60405180910390fd5b835185511461052e5760405162461bcd60e51b81526004016105049061495b565b60005b855181101561092f57600086828151811061054e5761054e614992565b60200260200101519050600086838151811061056c5761056c614992565b60200260200101519050600086848151811061058a5761058a614992565b6020026020010151905060008685815181106105a8576105a8614992565b6020026020010151905060008686815181106105c6576105c6614992565b6020026020010151905060046000866001600160a01b03166001600160a01b031681526020019081526020016000205460001461065d5760405162461bcd60e51b815260206004820152602f60248201527f43616e64696461746520776974682074686520676976656e206164647265737360448201526e20616c72656164792065786973747360881b6064820152608401610504565b6001600160a01b0385166106ac5760405162461bcd60e51b8152602060048201526016602482015275416464726573732063616e6e6f74206265207a65726f60501b6044820152606401610504565b60008451116106f45760405162461bcd60e51b81526020600482015260146024820152734e616d652063616e6e6f7420626520656d70747960601b6044820152606401610504565b6006546000906107059060016149be565b90506006604051806101200160405280428152602001886001600160a01b03168152602001336001600160a01b0316815260200187815260200160006001600160401b0381111561075857610758613cee565b604051908082528060200260200182016040528015610781578160200160208202803683370190505b508152602080820185905260408083018990526060808401899052608090930187905284546001818101875560009687529583902085516009909202019081559184015194820180546001600160a01b039687166001600160a01b0319918216179091559084015160028301805491909616911617909355810151909190600382019061080e9082614a57565b506080820151805161082a916004840191602090910190613be6565b5060a0820151600582015560c082015160068201906108499082614a57565b5060e0820151600782019061085e9082614a57565b5061010091909101516008909101553360009081526003602052604090205460059061088c90600190614b16565b8154811061089c5761089c614992565b60009182526020808320600460099093020182018054600181018255908452818420018490556001600160a01b0389168352526040908190208290555181907fb132c360d5c4c80c0d43f46e53b9b874e559e8e8ea4156a5fec2a021f826d00a9061090e908890889088908890614b29565b60405180910390a2505050505050808061092790614b74565b915050610531565b505050505050565b8161095033600090815260036020526040902054151590565b61096c5760405162461bcd60e51b81526004016105049061492c565b6006818154811061097f5761097f614992565b9060005260206000209060090201600501546000036109b05760405162461bcd60e51b815260040161050490614b8d565b60006001600160a01b0316600682815481106109ce576109ce614992565b60009182526020909120600260099092020101546001600160a01b031614610aab57336001600160a01b031660068281548110610a0d57610a0d614992565b60009182526020909120600260099092020101546001600160a01b031614610aab5760405162461bcd60e51b8152602060048201526044602482018190527f596f7520646f206e6f742068617665207065726d697373696f6e20746f206564908201527f69742063757272656e74436f6d70616e7920666f7220746869732063616e64696064820152636461746560e01b608482015260a401610504565b8160068281548110610abf57610abf614992565b60009182526020918290206009919091020160020180546001600160a01b0319166001600160a01b03938416179055604051918416825282917f1004bf4098083445cd4ac13954fdcea1d9530a61f6f2a7d5a628bea6141eb17c910160405180910390a2505050565b6000610b35600188614b16565b9050610b4f33600090815260036020526040902054151590565b610b6b5760405162461bcd60e51b81526004016105049061492c565b60068181548110610b7e57610b7e614992565b906000526020600020906009020160050154600003610baf5760405162461bcd60e51b815260040161050490614b8d565b336001600160a01b031660068281548110610bcc57610bcc614992565b60009182526020909120600260099092020101546001600160a01b031614610c505760405162461bcd60e51b815260206004820152603160248201527f596f7520646f206e6f742068617665207065726d697373696f6e20746f206564604482015270697420746869732063616e64696461746560781b6064820152608401610504565b8560068281548110610c6457610c64614992565b90600052602060002090600902016003019081610c819190614a57565b508460068281548110610c9657610c96614992565b90600052602060002090600902016006019081610cb39190614a57565b508360068281548110610cc857610cc8614992565b90600052602060002090600902016007019081610ce59190614a57565b508260068281548110610cfa57610cfa614992565b9060005260206000209060090201600801819055508160068281548110610d2357610d23614992565b906000526020600020906009020160020160006101000a8154816001600160a01b0302191690836001600160a01b03160217905550807fbdb27b8859f11d297edb4d29bc56f12a3d84d3a4d7f5668d62acf04df78789b48787878787604051610d90959493929190614bd3565b60405180910390a250505050505050565b33600090815260036020526040902054610dcd5760405162461bcd60e51b81526004016105049061492c565b83518551148015610ddf575082518551145b610dfb5760405162461bcd60e51b81526004016105049061495b565b60005b855181101561092f576000868281518110610e1b57610e1b614992565b602002602001015190506000868381518110610e3957610e39614992565b602002602001015190506000868481518110610e5757610e57614992565b602002602001015190506000868581518110610e7557610e75614992565b602002602001015190506000868681518110610e9357610e93614992565b6020026020010151905060068381548110610eb057610eb0614992565b906000526020600020906009020160050154600003610ee15760405162461bcd60e51b815260040161050490614b8d565b600754600090610ef29060016149be565b604080516101208101825242815260208101898152918101839052606081018890526080810186905260a08101859052600060c0820181905260e082018190526101008201889052600780546001810182559152815160089091027fa66cc928b5edb82af9bd49922954155ab7b0942694bea4ce44661d9a8736c68881019182559251939450909290917fa66cc928b5edb82af9bd49922954155ab7b0942694bea4ce44661d9a8736c6890190610fa99082614a57565b506040820151600282015560608201516003820190610fc89082614a57565b5060808201516004820190610fdd9082614a57565b5060a08201516005820190610ff29082614a57565b5060c08201516006828101805460e086015161ffff1990911693151561ff00191693909317610100931515840217905592015160079091015580548590811061103d5761103d614992565b60009182526020808320600460099093020191909101805460018101825590835291200181905560405181907fdf3f376d0902d940a4e067b169121175e19dffa31960867f2ce6943bc6cb5abb9061109e9089908990899089908990614c2f565b60405180910390a250505050505080806110b790614b74565b915050610dfe565b6110c7613ac8565b61110c5760405162461bcd60e51b815260206004820152601660248201527513db9b1e481d995c9a599a595c8818d85b8818d85b1b60521b6044820152606401610504565b6007548211156111545760405162461bcd60e51b8152602060048201526013602482015272125b9d985b1a5908191bd8dd5b595b9d081251606a1b6044820152606401610504565b6000611161600184614b16565b905060006007828154811061117857611178614992565b9060005260206000209060080201905080600201546000036111ea5760405162461bcd60e51b815260206004820152602560248201527f446f63756d656e74207769746820676976656e20494420646f6573206e6f7420604482015264195e1a5cdd60da1b6064820152608401610504565b600681015460ff1615801561120957506006810154610100900460ff16155b61127b5760405162461bcd60e51b815260206004820152603760248201527f446f63756d656e74207769746820676976656e20494420697320616c7265616460448201527f79207665726966696564206f722063616e63656c6c65640000000000000000006064820152608401610504565b82156112c25760068101805461ff00191661010017905560405184907f7b4845702fcfeef348208aa5c3ef0909d12e56c50c288cdba03c5462cfd921b590600090a26112fd565b60068101805460ff1916600117905560405184907f4b93fd5160fbc8b35d08aff650902cf41c86e6df325a3eabab5bcca811976cf790600090a25b50505050565b6005818154811061131357600080fd5b60009182526020909120600990910201805460018201546002830180549294506001600160a01b039091169291611349906149d7565b80601f0160208091040260200160405190810160405280929190818152602001828054611375906149d7565b80156113c25780601f10611397576101008083540402835291602001916113c2565b820191906000526020600020905b8154815290600101906020018083116113a557829003601f168201915b5050505050908060030154908060050180546113dd906149d7565b80601f0160208091040260200160405190810160405280929190818152602001828054611409906149d7565b80156114565780601f1061142b57610100808354040283529160200191611456565b820191906000526020600020905b81548152906001019060200180831161143957829003601f168201915b505050505090806006015490806007018054611471906149d7565b80601f016020809104026020016040519081016040528092919081815260200182805461149d906149d7565b80156114ea5780601f106114bf576101008083540402835291602001916114ea565b820191906000526020600020905b8154815290600101906020018083116114cd57829003601f168201915b5050505050908060080180546114ff906149d7565b80601f016020809104026020016040519081016040528092919081815260200182805461152b906149d7565b80156115785780601f1061154d57610100808354040283529160200191611578565b820191906000526020600020905b81548152906001019060200180831161155b57829003601f168201915b5050505050905088565b6006818154811061159257600080fd5b600091825260209091206009909102018054600182015460028301546003840180549395506001600160a01b039283169492909116926115d1906149d7565b80601f01602080910402602001604051908101604052809291908181526020018280546115fd906149d7565b801561164a5780601f1061161f5761010080835404028352916020019161164a565b820191906000526020600020905b81548152906001019060200180831161162d57829003601f168201915b505050505090806005015490806006018054611665906149d7565b80601f0160208091040260200160405190810160405280929190818152602001828054611691906149d7565b80156116de5780601f106116b3576101008083540402835291602001916116de565b820191906000526020600020905b8154815290600101906020018083116116c157829003601f168201915b5050505050908060070180546116f3906149d7565b80601f016020809104026020016040519081016040528092919081815260200182805461171f906149d7565b801561176c5780601f106117415761010080835404028352916020019161176c565b820191906000526020600020905b81548152906001019060200180831161174f57829003601f168201915b5050505050908060080154905088565b6005546060908211156117a15760405162461bcd60e51b815260040161050490614c8e565b60006117ae600184614b16565b90506000600582815481106117c5576117c5614992565b906000526020600020906009020160040180548060200260200160405190810160405280929190818152602001828054801561182057602002820191906000526020600020905b81548152602001906001019080831161180c575b50505050509050600081516001600160401b0381111561184257611842613cee565b6040519080825280602002602001820160405280156118d457816020015b6118c16040518061012001604052806000815260200160006001600160a01b0316815260200160006001600160a01b031681526020016060815260200160608152602001600081526020016060815260200160608152602001600081525090565b8152602001906001900390816118605790505b50905060005b8251811015611bba57600660018483815181106118f9576118f9614992565b602002602001015161190b9190614b16565b8154811061191b5761191b614992565b6000918252602091829020604080516101208101825260099093029091018054835260018101546001600160a01b0390811694840194909452600281015490931690820152600382018054919291606084019190611978906149d7565b80601f01602080910402602001604051908101604052809291908181526020018280546119a4906149d7565b80156119f15780601f106119c6576101008083540402835291602001916119f1565b820191906000526020600020905b8154815290600101906020018083116119d457829003601f168201915b5050505050815260200160048201805480602002602001604051908101604052809291908181526020018280548015611a4957602002820191906000526020600020905b815481526020019060010190808311611a35575b5050505050815260200160058201548152602001600682018054611a6c906149d7565b80601f0160208091040260200160405190810160405280929190818152602001828054611a98906149d7565b8015611ae55780601f10611aba57610100808354040283529160200191611ae5565b820191906000526020600020905b815481529060010190602001808311611ac857829003601f168201915b50505050508152602001600782018054611afe906149d7565b80601f0160208091040260200160405190810160405280929190818152602001828054611b2a906149d7565b8015611b775780601f10611b4c57610100808354040283529160200191611b77565b820191906000526020600020905b815481529060010190602001808311611b5a57829003601f168201915b50505050508152602001600882015481525050828281518110611b9c57611b9c614992565b60200260200101819052508080611bb290614b74565b9150506118da565b50949350505050565b606060006060806000600680549050861115611bf15760405162461bcd60e51b815260040161050490614cba565b6000611bfe600188614b16565b9050600060068281548110611c1557611c15614992565b906000526020600020906009020190508060050154600003611c495760405162461bcd60e51b815260040161050490614b8d565b80600301816005015482600601836007018460080154848054611c6b906149d7565b80601f0160208091040260200160405190810160405280929190818152602001828054611c97906149d7565b8015611ce45780601f10611cb957610100808354040283529160200191611ce4565b820191906000526020600020905b815481529060010190602001808311611cc757829003601f168201915b50505050509450828054611cf7906149d7565b80601f0160208091040260200160405190810160405280929190818152602001828054611d23906149d7565b8015611d705780601f10611d4557610100808354040283529160200191611d70565b820191906000526020600020905b815481529060010190602001808311611d5357829003601f168201915b50505050509250818054611d83906149d7565b80601f0160208091040260200160405190810160405280929190818152602001828054611daf906149d7565b8015611dfc5780601f10611dd157610100808354040283529160200191611dfc565b820191906000526020600020905b815481529060010190602001808311611ddf57829003601f168201915b5050505050915096509650965096509650505091939590929450565b611e20613ad3565b8051825114611e415760405162461bcd60e51b81526004016105049061495b565b60005b8251811015612103576000838281518110611e6157611e61614992565b602002602001015190506000838381518110611e7f57611e7f614992565b6020026020010151905060006001600160a01b0316826001600160a01b031603611edd5760405162461bcd60e51b815260206004820152600f60248201526e496e76616c6964206164647265737360881b6044820152606401610504565b6001600160a01b03811661202c5760005b60015481101561202657826001600160a01b031660018281548110611f1557611f15614992565b6000918252602090912001546001600160a01b0316036120145760018054611f3e908290614b16565b81548110611f4e57611f4e614992565b600091825260209091200154600180546001600160a01b039092169183908110611f7a57611f7a614992565b9060005260206000200160006101000a8154816001600160a01b0302191690836001600160a01b031602179055506001805480611fb957611fb9614ce8565b600082815260208120820160001990810180546001600160a01b03191690559091019091556040516001600160a01b038516917f44a3cd4eb5cc5748f6169df057b1cb2ae4c383e87cd94663c430e095d4cba42491a2612026565b8061201e81614b74565b915050611eee565b506120ee565b60005b6001548110156120ec57826001600160a01b03166001828154811061205657612056614992565b6000918252602090912001546001600160a01b0316036120da57816001828154811061208457612084614992565b6000918252602082200180546001600160a01b0319166001600160a01b03938416179055604051848316928616917f50d741fe04ad9863c69d1406658f6ec7c4f5e48ec2faf966a36a3e47fc05c9d991a36120ec565b806120e481614b74565b91505061202f565b505b505080806120fb90614b74565b915050611e44565b505050565b60008060608060006060806005805490508811156121385760405162461bcd60e51b815260040161050490614c8e565b600061214560018a614b16565b905060006005828154811061215c5761215c614992565b9060005260206000209060090201905080600301546000036121cc5760405162461bcd60e51b8152602060048201526024808201527f436f6d70616e79207769746820676976656e20494420646f6573206e6f7420656044820152631e1a5cdd60e21b6064820152608401610504565b80600301548160010160009054906101000a90046001600160a01b031682600201836005018460060154856007018660080184805461220a906149d7565b80601f0160208091040260200160405190810160405280929190818152602001828054612236906149d7565b80156122835780601f1061225857610100808354040283529160200191612283565b820191906000526020600020905b81548152906001019060200180831161226657829003601f168201915b50505050509450838054612296906149d7565b80601f01602080910402602001604051908101604052809291908181526020018280546122c2906149d7565b801561230f5780601f106122e45761010080835404028352916020019161230f565b820191906000526020600020905b8154815290600101906020018083116122f257829003601f168201915b50505050509350818054612322906149d7565b80601f016020809104026020016040519081016040528092919081815260200182805461234e906149d7565b801561239b5780601f106123705761010080835404028352916020019161239b565b820191906000526020600020905b81548152906001019060200180831161237e57829003601f168201915b505050505091508080546123ae906149d7565b80601f01602080910402602001604051908101604052809291908181526020018280546123da906149d7565b80156124275780601f106123fc57610100808354040283529160200191612427565b820191906000526020600020905b81548152906001019060200180831161240a57829003601f168201915b5050505050905098509850985098509850985098505050919395979092949650565b612451613ac8565b8061246657506000546001600160a01b031633145b6124825760405162461bcd60e51b815260040161050490614cfe565b60008151116124d35760405162461bcd60e51b815260206004820152601760248201527f4e6f20636f6d70616e79204944732070726f76696465640000000000000000006044820152606401610504565b60005b81518110156126055760008282815181106124f3576124f3614992565b602002602001015190506005805490508111156125225760405162461bcd60e51b815260040161050490614c8e565b600061252f600183614b16565b60405190915082907f028fe2791b514c47642f0d652f7c237752aea1929ed16396ef24b45eb7e2b31590600090a26005818154811061257057612570614992565b6000918252602082206009909102018181556001810180546001600160a01b0319169055906125a26002830182613c31565b60038201600090556004820160006125ba9190613c6b565b6125c8600583016000613c31565b60068201600090556007820160006125e09190613c31565b6125ee600883016000613c31565b5050505080806125fd90614b74565b9150506124d6565b5050565b60065460609082111561262e5760405162461bcd60e51b815260040161050490614cba565b600061263b600184614b16565b905060006006828154811061265257612652614992565b9060005260206000209060090201905080600501546000036126865760405162461bcd60e51b815260040161050490614b8d565b6000816004018054806020026020016040519081016040528092919081815260200182805480156126d657602002820191906000526020600020905b8154815260200190600101908083116126c2575b50505050509050600081516001600160401b038111156126f8576126f8613cee565b60405190808252806020026020018201604052801561273157816020015b61271e613c89565b8152602001906001900390816127165790505b50905060005b8251811015612a3e57600783828151811061275457612754614992565b60200260200101518154811061276c5761276c614992565b906000526020600020906008020160405180610120016040529081600082015481526020016001820180546127a0906149d7565b80601f01602080910402602001604051908101604052809291908181526020018280546127cc906149d7565b80156128195780601f106127ee57610100808354040283529160200191612819565b820191906000526020600020905b8154815290600101906020018083116127fc57829003601f168201915b505050505081526020016002820154815260200160038201805461283c906149d7565b80601f0160208091040260200160405190810160405280929190818152602001828054612868906149d7565b80156128b55780601f1061288a576101008083540402835291602001916128b5565b820191906000526020600020905b81548152906001019060200180831161289857829003601f168201915b505050505081526020016004820180546128ce906149d7565b80601f01602080910402602001604051908101604052809291908181526020018280546128fa906149d7565b80156129475780601f1061291c57610100808354040283529160200191612947565b820191906000526020600020905b81548152906001019060200180831161292a57829003601f168201915b50505050508152602001600582018054612960906149d7565b80601f016020809104026020016040519081016040528092919081815260200182805461298c906149d7565b80156129d95780601f106129ae576101008083540402835291602001916129d9565b820191906000526020600020905b8154815290600101906020018083116129bc57829003601f168201915b5050509183525050600682015460ff8082161515602084015261010090910416151560408201526007909101546060909101528251839083908110612a2057612a20614992565b60200260200101819052508080612a3690614b74565b915050612737565b5095945050505050565b612a50613ad3565b612a5a6000613b2d565b565b905090565b600654606090821115612a865760405162461bcd60e51b815260040161050490614cba565b6000612a93600184614b16565b9050600060068281548110612aaa57612aaa614992565b906000526020600020906009020190508060050154600003612ade5760405162461bcd60e51b815260040161050490614b8d565b600081600401805480602002602001604051908101604052809291908181526020018280548015612b2e57602002820191906000526020600020905b815481526020019060010190808311612b1a575b50505050509050600081516001600160401b03811115612b5057612b50613cee565b604051908082528060200260200182016040528015612b8957816020015b612b76613c89565b815260200190600190039081612b6e5790505b50905060005b8251811015612a3e5760076001848381518110612bae57612bae614992565b6020026020010151612bc09190614b16565b81548110612bd057612bd0614992565b90600052602060002090600802016040518061012001604052908160008201548152602001600182018054612c04906149d7565b80601f0160208091040260200160405190810160405280929190818152602001828054612c30906149d7565b8015612c7d5780601f10612c5257610100808354040283529160200191612c7d565b820191906000526020600020905b815481529060010190602001808311612c6057829003601f168201915b5050505050815260200160028201548152602001600382018054612ca0906149d7565b80601f0160208091040260200160405190810160405280929190818152602001828054612ccc906149d7565b8015612d195780601f10612cee57610100808354040283529160200191612d19565b820191906000526020600020905b815481529060010190602001808311612cfc57829003601f168201915b50505050508152602001600482018054612d32906149d7565b80601f0160208091040260200160405190810160405280929190818152602001828054612d5e906149d7565b8015612dab5780601f10612d8057610100808354040283529160200191612dab565b820191906000526020600020905b815481529060010190602001808311612d8e57829003601f168201915b50505050508152602001600582018054612dc4906149d7565b80601f0160208091040260200160405190810160405280929190818152602001828054612df0906149d7565b8015612e3d5780601f10612e1257610100808354040283529160200191612e3d565b820191906000526020600020905b815481529060010190602001808311612e2057829003601f168201915b5050509183525050600682015460ff8082161515602084015261010090910416151560408201526007909101546060909101528251839083908110612e8457612e84614992565b60200260200101819052508080612e9a90614b74565b915050612b8f565b6060612eac613ad3565b6001805480602002602001604051908101604052809291908181526020018280548015612f0257602002820191906000526020600020905b81546001600160a01b03168152600190910190602001808311612ee4575b5050505050905090565b60018181548110612f1c57600080fd5b6000918252602090912001546001600160a01b0316905081565b612f3e613ad3565b6000815111612f855760405162461bcd60e51b8152602060048201526013602482015272139bc81d995c9a599a595c9cc81d1bc8185919606a1b6044820152606401610504565b6002548151600154612f9791906149be565b1115612ff15760405162461bcd60e51b815260206004820152602360248201527f45786365656473206d6178696d756d206e756d626572206f662076657269666960448201526265727360e81b6064820152608401610504565b60005b815181101561260557600082828151811061301157613011614992565b6020026020010151905060006001600160a01b0316816001600160a01b03160361306f5760405162461bcd60e51b815260206004820152600f60248201526e496e76616c6964206164647265737360881b6044820152606401610504565b60018054808201825560009182527fb10e2d527612073b26eecdfd717e6a320cf44b4afac2b0732d9fcbe2b7fa0cf60180546001600160a01b0319166001600160a01b03841690811790915560405190917f6d05492139c5ea989514a5d2150c028041e5c087e2a39967f67dc7d2655adb8191a250806130ee81614b74565b915050612ff4565b336000908152600360205260409020546131225760405162461bcd60e51b81526004016105049061492c565b80518251146131435760405162461bcd60e51b81526004016105049061495b565b60005b82518110156121035760008361315d600184614b16565b8151811061316d5761316d614992565b602002602001015190506000836001846131879190614b16565b8151811061319757613197614992565b60200260200101519050600682815481106131b4576131b4614992565b9060005260206000209060090201600501546000036131e55760405162461bcd60e51b815260040161050490614b8d565b60006131f2600183614b16565b60408051848152602081018690529192507f61656cb8d1dc6013bb7713ae498059b6f4df3c60e832e655a6765c0c54863008910160405180910390a16006838154811061324157613241614992565b9060005260206000209060090201600401818154811061326357613263614992565b9060005260206000200160009055505050808061327f90614b74565b915050613146565b6007818154811061329757600080fd5b600091825260209091206008909102018054600182018054919350906132bc906149d7565b80601f01602080910402602001604051908101604052809291908181526020018280546132e8906149d7565b80156133355780601f1061330a57610100808354040283529160200191613335565b820191906000526020600020905b81548152906001019060200180831161331857829003601f168201915b505050505090806002015490806003018054613350906149d7565b80601f016020809104026020016040519081016040528092919081815260200182805461337c906149d7565b80156133c95780601f1061339e576101008083540402835291602001916133c9565b820191906000526020600020905b8154815290600101906020018083116133ac57829003601f168201915b5050505050908060040180546133de906149d7565b80601f016020809104026020016040519081016040528092919081815260200182805461340a906149d7565b80156134575780601f1061342c57610100808354040283529160200191613457565b820191906000526020600020905b81548152906001019060200180831161343a57829003601f168201915b50505050509080600501805461346c906149d7565b80601f0160208091040260200160405190810160405280929190818152602001828054613498906149d7565b80156134e55780601f106134ba576101008083540402835291602001916134e5565b820191906000526020600020905b8154815290600101906020018083116134c857829003601f168201915b505050506006830154600790930154919260ff8082169361010090920416915089565b613510613ac8565b8061352557506000546001600160a01b031633145b6135415760405162461bcd60e51b815260040161050490614cfe565b84518651148015613553575083518651145b8015613560575082518651145b801561356d575081518651145b801561357a575080518651145b6135965760405162461bcd60e51b81526004016105049061495b565b60005b86518110156138405760008782815181106135b6576135b6614992565b6020026020010151905060008783815181106135d4576135d4614992565b6020026020010151905060008784815181106135f2576135f2614992565b60200260200101519050600087858151811061361057613610614992565b60200260200101519050600087868151811061362e5761362e614992565b60200260200101519050600087878151811061364c5761364c614992565b602002602001015190506000600580549050600161366a91906149be565b90506005604051806101200160405280428152602001896001600160a01b0316815260200188815260200183815260200160006001600160401b038111156136b4576136b4613cee565b6040519080825280602002602001820160405280156136dd578160200160208202803683370190505b5081526020808201899052604080830189905260608301889052608090920186905283546001808201865560009586529482902084516009909202019081559083015193810180546001600160a01b0319166001600160a01b039095169490941790935581015190919060028201906137569082614a57565b50606082015160038201556080820151805161377c916004840191602090910190613be6565b5060a082015160058201906137919082614a57565b5060c0820151600682015560e082015160078201906137b09082614a57565b5061010082015160088201906137c69082614a57565b5050506001600160a01b038716600081815260036020526040908190208390555182907fc9c99e7b42f7789f7ac090a92a6e5f98c03ad412be267f7fb9bb60b571b690879061381e908a908a908a908a908a90614c2f565b60405180910390a350505050505050808061383890614b74565b915050613599565b50505050505050565b613851613ac8565b8061386a57503360009081526003602052604090205415155b6138865760405162461bcd60e51b815260040161050490614cfe565b60005b8151811015612605576000826138a0600184614b16565b815181106138b0576138b0614992565b60200260200101519050600681815481106138cd576138cd614992565b9060005260206000209060090201600501546000036138fe5760405162461bcd60e51b815260040161050490614b8d565b600061390b600183614b16565b60405190915082907f294c5a9bc8a39e6e06502bc8da429980f6c7b0990d75b682c12cb8705e3ace8590600090a26006818154811061394c5761394c614992565b6000918252602082206009909102018181556001810180546001600160a01b031990811690915560028201805490911690559061398c6003830182613c31565b61399a600483016000613c6b565b60058201600090556006820160006139b29190613c31565b6139c0600783016000613c31565b60088201600090555050505080806139d790614b74565b915050613889565b6139e7613ad3565b6001600160a01b038116613a4c5760405162461bcd60e51b815260206004820152602660248201527f4f776e61626c653a206e6577206f776e657220697320746865207a65726f206160448201526564647265737360d01b6064820152608401610504565b613a5581613b2d565b50565b613a60613ad3565b60008111613ac35760405162461bcd60e51b815260206004820152602a60248201527f4d6178696d756d207665726966696572732073686f756c6420626520677265616044820152690746572207468616e20360b41b6064820152608401610504565b600255565b6000612a5c33613b7d565b6000546001600160a01b03163314612a5a5760405162461bcd60e51b815260206004820181905260248201527f4f776e61626c653a2063616c6c6572206973206e6f7420746865206f776e65726044820152606401610504565b600080546001600160a01b038381166001600160a01b0319831681178455604051919092169283917f8be0079c531659141344cd1fd0a4f28419497f9722a3daafe3b4186f6b6457e09190a35050565b6000805b600154811015613bdd57826001600160a01b031660018281548110613ba857613ba8614992565b6000918252602090912001546001600160a01b031603613bcb5750600192915050565b80613bd581614b74565b915050613b81565b50600092915050565b828054828255906000526020600020908101928215613c21579160200282015b82811115613c21578251825591602001919060010190613c06565b50613c2d929150613cd9565b5090565b508054613c3d906149d7565b6000825580601f10613c4d575050565b601f016020900490600052602060002090810190613a559190613cd9565b5080546000825590600052602060002090810190613a559190613cd9565b604051806101200160405280600081526020016060815260200160008152602001606081526020016060815260200160608152602001600015158152602001600015158152602001600081525090565b5b80821115613c2d5760008155600101613cda565b634e487b7160e01b600052604160045260246000fd5b604051601f8201601f191681016001600160401b0381118282101715613d2c57613d2c613cee565b604052919050565b60006001600160401b03821115613d4d57613d4d613cee565b5060051b60200190565b80356001600160a01b0381168114613d6e57600080fd5b919050565b600082601f830112613d8457600080fd5b81356020613d99613d9483613d34565b613d04565b82815260059290921b84018101918181019086841115613db857600080fd5b8286015b84811015613dda57613dcd81613d57565b8352918301918301613dbc565b509695505050505050565b600082601f830112613df657600080fd5b81356001600160401b03811115613e0f57613e0f613cee565b613e22601f8201601f1916602001613d04565b818152846020838601011115613e3757600080fd5b816020850160208301376000918101602001919091529392505050565b600082601f830112613e6557600080fd5b81356020613e75613d9483613d34565b82815260059290921b84018101918181019086841115613e9457600080fd5b8286015b84811015613dda5780356001600160401b03811115613eb75760008081fd5b613ec58986838b0101613de5565b845250918301918301613e98565b600082601f830112613ee457600080fd5b81356020613ef4613d9483613d34565b82815260059290921b84018101918181019086841115613f1357600080fd5b8286015b84811015613dda5780358352918301918301613f17565b600080600080600060a08688031215613f4657600080fd5b85356001600160401b0380821115613f5d57600080fd5b613f6989838a01613d73565b96506020880135915080821115613f7f57600080fd5b613f8b89838a01613e54565b95506040880135915080821115613fa157600080fd5b613fad89838a01613e54565b94506060880135915080821115613fc357600080fd5b613fcf89838a01613e54565b93506080880135915080821115613fe557600080fd5b50613ff288828901613ed3565b9150509295509295909350565b6000806040838503121561401257600080fd5b8235915061402260208401613d57565b90509250929050565b60008060008060008060c0878903121561404457600080fd5b8635955060208701356001600160401b038082111561406257600080fd5b61406e8a838b01613de5565b9650604089013591508082111561408457600080fd5b6140908a838b01613de5565b955060608901359150808211156140a657600080fd5b506140b389828a01613de5565b935050608087013591506140c960a08801613d57565b90509295509295509295565b600080600080600060a086880312156140ed57600080fd5b85356001600160401b038082111561410457600080fd5b61411089838a01613e54565b9650602088013591508082111561412657600080fd5b61413289838a01613e54565b9550604088013591508082111561414857600080fd5b61415489838a01613ed3565b9450606088013591508082111561416a57600080fd5b61417689838a01613e54565b9350608088013591508082111561418c57600080fd5b50613ff288828901613e54565b600080604083850312156141ac57600080fd5b82359150602083013580151581146141c357600080fd5b809150509250929050565b6000602082840312156141e057600080fd5b5035919050565b6000815180845260005b8181101561420d576020818501810151868301820152016141f1565b506000602082860101526020601f19601f83011685010191505092915050565b8881526001600160a01b0388166020820152610100604082018190526000906142588382018a6141e7565b9050876060840152828103608084015261427281886141e7565b90508560a084015282810360c084015261428c81866141e7565b905082810360e08401526142a081856141e7565b9b9a5050505050505050505050565b8881526001600160a01b03888116602083015287166040820152610100606082018190526000906142e2838201896141e7565b905086608084015282810360a08401526142fc81876141e7565b905082810360c084015261431081866141e7565b9150508260e08301529998505050505050505050565b600081518084526020808501945080840160005b838110156143565781518752958201959082019060010161433a565b509495945050505050565b60006020808301818452808551808352604092508286019150828160051b87010184880160005b8381101561445757603f19898403018552815180518452878101516001600160a01b039081168986015287820151168785015260608082015161012082870181905291906143d8838801826141e7565b92505050608080830151868303828801526143f38382614326565b9250505060a080830151818701525060c0808301518683038288015261441983826141e7565b9250505060e0808301518683038288015261443483826141e7565b610100948501519790940196909652505094870194925090860190600101614388565b509098975050505050505050565b60a08152600061447860a08301886141e7565b866020840152828103604084015261449081876141e7565b905082810360608401526144a481866141e7565b9150508260808301529695505050505050565b600080604083850312156144ca57600080fd5b82356001600160401b03808211156144e157600080fd5b6144ed86838701613d73565b9350602085013591508082111561450357600080fd5b5061451085828601613d73565b9150509250929050565b8781526001600160a01b038716602082015260e060408201819052600090614544908301886141e7565b828103606084015261455681886141e7565b905085608084015282810360a084015261457081866141e7565b905082810360c084015261458481856141e7565b9a9950505050505050505050565b6000602082840312156145a457600080fd5b81356001600160401b038111156145ba57600080fd5b6145c684828501613ed3565b949350505050565b6000602082840312156145e057600080fd5b6145e982613d57565b9392505050565b60006020808301818452808551808352604092508286019150828160051b87010184880160005b8381101561445757603f1989840301855281516101208151855288820151818a870152614646828701826141e7565b91505087820151888601526060808301518683038288015261466883826141e7565b925050506080808301518683038288015261468383826141e7565b9250505060a0808301518683038288015261469e83826141e7565b9250505060c0808301516146b58288018215159052565b505060e0828101511515908601526101009182015191909401529386019390860190600101614617565b6020808252825182820181905260009190848201906040850190845b818110156147205783516001600160a01b0316835292840192918401916001016146fb565b50909695505050505050565b60006020828403121561473e57600080fd5b81356001600160401b0381111561475457600080fd5b6145c684828501613d73565b6000806040838503121561477357600080fd5b82356001600160401b038082111561478a57600080fd5b61479686838701613ed3565b935060208501359150808211156147ac57600080fd5b5061451085828601613ed3565b60006101208b83528060208401526147d38184018c6141e7565b905089604084015282810360608401526147ed818a6141e7565b9050828103608084015261480181896141e7565b905082810360a084015261481581886141e7565b95151560c0840152505091151560e0830152610100909101529695505050505050565b60008060008060008060c0878903121561485157600080fd5b86356001600160401b038082111561486857600080fd5b6148748a838b01613d73565b9750602089013591508082111561488a57600080fd5b6148968a838b01613e54565b965060408901359150808211156148ac57600080fd5b6148b88a838b01613e54565b955060608901359150808211156148ce57600080fd5b6148da8a838b01613ed3565b945060808901359150808211156148f057600080fd5b6148fc8a838b01613e54565b935060a089013591508082111561491257600080fd5b5061491f89828a01613e54565b9150509295509295509295565b60208082526015908201527413db9b1e4818dbdb5c185b9e4818d85b8818d85b1b605a1b604082015260600190565b60208082526018908201527f4d69736d61746368656420696e707574206c656e677468730000000000000000604082015260600190565b634e487b7160e01b600052603260045260246000fd5b634e487b7160e01b600052601160045260246000fd5b808201808211156149d1576149d16149a8565b92915050565b600181811c908216806149eb57607f821691505b602082108103614a0b57634e487b7160e01b600052602260045260246000fd5b50919050565b601f82111561210357600081815260208120601f850160051c81016020861015614a385750805b601f850160051c820191505b8181101561092f57828155600101614a44565b81516001600160401b03811115614a7057614a70613cee565b614a8481614a7e84546149d7565b84614a11565b602080601f831160018114614ab95760008415614aa15750858301515b600019600386901b1c1916600185901b17855561092f565b600085815260208120601f198616915b82811015614ae857888601518255948401946001909101908401614ac9565b5085821015614b065787850151600019600388901b60f8161c191681555b5050505050600190811b01905550565b818103818111156149d1576149d16149a8565b608081526000614b3c60808301876141e7565b8281036020840152614b4e81876141e7565b90508281036040840152614b6281866141e7565b91505082606083015295945050505050565b600060018201614b8657614b866149a8565b5060010190565b60208082526026908201527f43616e646964617465207769746820676976656e20494420646f6573206e6f7460408201526508195e1a5cdd60d21b606082015260800190565b60a081526000614be660a08301886141e7565b8281036020840152614bf881886141e7565b90508281036040840152614c0c81876141e7565b606084019590955250506001600160a01b03919091166080909101529392505050565b60a081526000614c4260a08301886141e7565b8281036020840152614c5481886141e7565b90508560408401528281036060840152614c6e81866141e7565b90508281036080840152614c8281856141e7565b98975050505050505050565b602080825260129082015271125b9d985b1a590818dbdb5c185b9e48125160721b604082015260600190565b602080825260149082015273125b9d985b1a590818d85b991a59185d1948125160621b604082015260600190565b634e487b7160e01b600052603160045260246000fd5b6020808252601f908201527f4f6e6c79207665726966696572206f72206f776e65722063616e2063616c6c0060408201526060019056fea2646970667358221220ab1903e3d4f50c40dd0e68bc24e251992e5841ef1fe6cdea6afb672f787f419c64736f6c63430008150033",
  "linkReferences": {},
  "deployedLinkReferences": {}
}