{
  "_format": "hh-sol-artifact-1",
  "contractName": "Verification",
  "sourceName": "src/contracts/Verification.sol",
  "abi": [
    {
      "anonymous": false,
      "inputs": [
        {
          "indexed": true,
          "internalType": "uint256",
          "name": "id",
          "type": "uint256"
        },
        {
          "indexed": false,
          "internalType": "string",
          "name": "name",
          "type": "string"
        },
        {
          "indexed": false,
          "internalType": "string",
          "name": "location",
          "type": "string"
        },
        {
          "indexed": false,
          "internalType": "string",
          "name": "email",
          "type": "string"
        },
        {
          "indexed": false,
          "internalType": "string",
          "name": "phoneNumber",
          "type": "string"
        }
      ],
      "name": "CandidateAdded",
      "type": "event"
    },
    {
      "anonymous": false,
      "inputs": [
        {
          "indexed": true,
          "internalType": "uint256",
          "name": "id",
          "type": "uint256"
        },
        {
          "indexed": false,
          "internalType": "address",
          "name": "newCurrentCompany",
          "type": "address"
        }
      ],
      "name": "CandidateCurrentCompanyEdited",
      "type": "event"
    },
    {
      "anonymous": false,
      "inputs": [
        {
          "indexed": true,
          "internalType": "uint256",
          "name": "id",
          "type": "uint256"
        },
        {
          "indexed": false,
          "internalType": "string",
          "name": "name",
          "type": "string"
        },
        {
          "indexed": false,
          "internalType": "string",
          "name": "location",
          "type": "string"
        },
        {
          "indexed": false,
          "internalType": "string",
          "name": "email",
          "type": "string"
        },
        {
          "indexed": false,
          "internalType": "string",
          "name": "phoneNumber",
          "type": "string"
        }
      ],
      "name": "CandidateEdited",
      "type": "event"
    },
    {
      "anonymous": false,
      "inputs": [
        {
          "indexed": true,
          "internalType": "uint256",
          "name": "id",
          "type": "uint256"
        }
      ],
      "name": "CandidateRemoved",
      "type": "event"
    },
    {
      "anonymous": false,
      "inputs": [
        {
          "indexed": true,
          "internalType": "uint256",
          "name": "id",
          "type": "uint256"
        },
        {
          "indexed": true,
          "internalType": "address",
          "name": "companyAddress",
          "type": "address"
        },
        {
          "indexed": false,
          "internalType": "string",
          "name": "name",
          "type": "string"
        },
        {
          "indexed": false,
          "internalType": "string",
          "name": "location",
          "type": "string"
        },
        {
          "indexed": false,
          "internalType": "string",
          "name": "phoneNumber",
          "type": "string"
        },
        {
          "indexed": false,
          "internalType": "string",
          "name": "licenseNumber",
          "type": "string"
        },
        {
          "indexed": false,
          "internalType": "string",
          "name": "email",
          "type": "string"
        }
      ],
      "name": "CompanyAdded",
      "type": "event"
    },
    {
      "anonymous": false,
      "inputs": [
        {
          "indexed": true,
          "internalType": "uint256",
          "name": "id",
          "type": "uint256"
        }
      ],
      "name": "CompanyRemoved",
      "type": "event"
    },
    {
      "anonymous": false,
      "inputs": [
        {
          "indexed": true,
          "internalType": "uint256",
          "name": "id",
          "type": "uint256"
        },
        {
          "indexed": false,
          "internalType": "string",
          "name": "name",
          "type": "string"
        },
        {
          "indexed": false,
          "internalType": "string",
          "name": "cid",
          "type": "string"
        },
        {
          "indexed": false,
          "internalType": "uint256",
          "name": "candidateId",
          "type": "uint256"
        },
        {
          "indexed": false,
          "internalType": "string",
          "name": "typeOfDocument",
          "type": "string"
        },
        {
          "indexed": false,
          "internalType": "string",
          "name": "expirationDate",
          "type": "string"
        }
      ],
      "name": "DocumentAdded",
      "type": "event"
    },
    {
      "anonymous": false,
      "inputs": [
        {
          "indexed": true,
          "internalType": "uint256",
          "name": "id",
          "type": "uint256"
        }
      ],
      "name": "DocumentCancelled",
      "type": "event"
    },
    {
      "anonymous": false,
      "inputs": [
        {
          "indexed": false,
          "internalType": "uint256",
          "name": "documentId",
          "type": "uint256"
        },
        {
          "indexed": false,
          "internalType": "uint256",
          "name": "candidateId",
          "type": "uint256"
        }
      ],
      "name": "DocumentRemoved",
      "type": "event"
    },
    {
      "anonymous": false,
      "inputs": [
        {
          "indexed": true,
          "internalType": "uint256",
          "name": "id",
          "type": "uint256"
        }
      ],
      "name": "DocumentVerified",
      "type": "event"
    },
    {
      "anonymous": false,
      "inputs": [
        {
          "indexed": true,
          "internalType": "address",
          "name": "previousOwner",
          "type": "address"
        },
        {
          "indexed": true,
          "internalType": "address",
          "name": "newOwner",
          "type": "address"
        }
      ],
      "name": "OwnershipTransferred",
      "type": "event"
    },
    {
      "anonymous": false,
      "inputs": [
        {
          "indexed": true,
          "internalType": "address",
          "name": "verifier",
          "type": "address"
        }
      ],
      "name": "VerifierAdded",
      "type": "event"
    },
    {
      "anonymous": false,
      "inputs": [
        {
          "indexed": true,
          "internalType": "address",
          "name": "verifier",
          "type": "address"
        }
      ],
      "name": "VerifierRemoved",
      "type": "event"
    },
    {
      "anonymous": false,
      "inputs": [
        {
          "indexed": true,
          "internalType": "address",
          "name": "oldVerifier",
          "type": "address"
        },
        {
          "indexed": true,
          "internalType": "address",
          "name": "newVerifier",
          "type": "address"
        }
      ],
      "name": "VerifierReplaced",
      "type": "event"
    },
    {
      "inputs": [
        {
          "internalType": "address[]",
          "name": "_addresses",
          "type": "address[]"
        },
        {
          "internalType": "string[]",
          "name": "_names",
          "type": "string[]"
        },
        {
          "internalType": "string[]",
          "name": "_locations",
          "type": "string[]"
        },
        {
          "internalType": "string[]",
          "name": "_emails",
          "type": "string[]"
        },
        {
          "internalType": "string[]",
          "name": "_phoneNumbers",
          "type": "string[]"
        }
      ],
      "name": "addCandidates",
      "outputs": [],
      "stateMutability": "nonpayable",
      "type": "function"
    },
    {
      "inputs": [
        {
          "internalType": "address[]",
          "name": "_addresses",
          "type": "address[]"
        },
        {
          "internalType": "string[]",
          "name": "_names",
          "type": "string[]"
        },
        {
          "internalType": "string[]",
          "name": "_locations",
          "type": "string[]"
        },
        {
          "internalType": "string[]",
          "name": "_phoneNumbers",
          "type": "string[]"
        },
        {
          "internalType": "string[]",
          "name": "_licenseNumbers",
          "type": "string[]"
        },
        {
          "internalType": "string[]",
          "name": "_emails",
          "type": "string[]"
        }
      ],
      "name": "addCompanies",
      "outputs": [],
      "stateMutability": "nonpayable",
      "type": "function"
    },
    {
      "inputs": [
        {
          "internalType": "string[]",
          "name": "_names",
          "type": "string[]"
        },
        {
          "internalType": "string[]",
          "name": "_cids",
          "type": "string[]"
        },
        {
          "internalType": "uint256[]",
          "name": "_candidateIds",
          "type": "uint256[]"
        },
        {
          "internalType": "string[]",
          "name": "_typesOfDocument",
          "type": "string[]"
        },
        {
          "internalType": "string[]",
          "name": "_expirationDates",
          "type": "string[]"
        }
      ],
      "name": "addDocuments",
      "outputs": [],
      "stateMutability": "nonpayable",
      "type": "function"
    },
    {
      "inputs": [
        {
          "internalType": "address[]",
          "name": "_verifiers",
          "type": "address[]"
        }
      ],
      "name": "addVerifiers",
      "outputs": [],
      "stateMutability": "nonpayable",
      "type": "function"
    },
    {
      "inputs": [
        {
          "internalType": "address",
          "name": "",
          "type": "address"
        }
      ],
      "name": "candidateAddress",
      "outputs": [
        {
          "internalType": "uint256",
          "name": "",
          "type": "uint256"
        }
      ],
      "stateMutability": "view",
      "type": "function"
    },
    {
      "inputs": [
        {
          "internalType": "uint256",
          "name": "",
          "type": "uint256"
        }
      ],
      "name": "candidates",
      "outputs": [
        {
          "internalType": "uint256",
          "name": "date",
          "type": "uint256"
        },
        {
          "internalType": "address",
          "name": "address_",
          "type": "address"
        },
        {
          "internalType": "address",
          "name": "currentCompany",
          "type": "address"
        },
        {
          "internalType": "string",
          "name": "name",
          "type": "string"
        },
        {
          "internalType": "uint256",
          "name": "Id",
          "type": "uint256"
        },
        {
          "internalType": "string",
          "name": "location",
          "type": "string"
        },
        {
          "internalType": "string",
          "name": "email",
          "type": "string"
        },
        {
          "internalType": "string",
          "name": "phoneNumber",
          "type": "string"
        }
      ],
      "stateMutability": "view",
      "type": "function"
    },
    {
      "inputs": [
        {
          "internalType": "uint256",
          "name": "",
          "type": "uint256"
        }
      ],
      "name": "companies",
      "outputs": [
        {
          "internalType": "uint256",
          "name": "date",
          "type": "uint256"
        },
        {
          "internalType": "address",
          "name": "address_",
          "type": "address"
        },
        {
          "internalType": "string",
          "name": "name",
          "type": "string"
        },
        {
          "internalType": "uint256",
          "name": "Id",
          "type": "uint256"
        },
        {
          "internalType": "string",
          "name": "location",
          "type": "string"
        },
        {
          "internalType": "string",
          "name": "phoneNumber",
          "type": "string"
        },
        {
          "internalType": "string",
          "name": "licenseNumber",
          "type": "string"
        },
        {
          "internalType": "string",
          "name": "email",
          "type": "string"
        }
      ],
      "stateMutability": "view",
      "type": "function"
    },
    {
      "inputs": [
        {
          "internalType": "address",
          "name": "",
          "type": "address"
        }
      ],
      "name": "companyAddress",
      "outputs": [
        {
          "internalType": "uint256",
          "name": "",
          "type": "uint256"
        }
      ],
      "stateMutability": "view",
      "type": "function"
    },
    {
      "inputs": [
        {
          "internalType": "uint256",
          "name": "",
          "type": "uint256"
        }
      ],
      "name": "documents",
      "outputs": [
        {
          "internalType": "uint256",
          "name": "date",
          "type": "uint256"
        },
        {
          "internalType": "string",
          "name": "name",
          "type": "string"
        },
        {
          "internalType": "uint256",
          "name": "id",
          "type": "uint256"
        },
        {
          "internalType": "string",
          "name": "cid",
          "type": "string"
        },
        {
          "internalType": "string",
          "name": "typeOfDocument",
          "type": "string"
        },
        {
          "internalType": "string",
          "name": "expirationDate",
          "type": "string"
        },
        {
          "internalType": "bool",
          "name": "isVerified",
          "type": "bool"
        },
        {
          "internalType": "bool",
          "name": "isCancelled",
          "type": "bool"
        },
        {
          "internalType": "uint256",
          "name": "candidateId",
          "type": "uint256"
        }
      ],
      "stateMutability": "view",
      "type": "function"
    },
    {
      "inputs": [
        {
          "internalType": "uint256",
          "name": "_id",
          "type": "uint256"
        },
        {
          "internalType": "string",
          "name": "_name",
          "type": "string"
        },
        {
          "internalType": "string",
          "name": "_location",
          "type": "string"
        },
        {
          "internalType": "string",
          "name": "_email",
          "type": "string"
        },
        {
          "internalType": "string",
          "name": "_phoneNumber",
          "type": "string"
        }
      ],
      "name": "editCandidate",
      "outputs": [],
      "stateMutability": "nonpayable",
      "type": "function"
    },
    {
      "inputs": [
        {
          "internalType": "uint256",
          "name": "_id",
          "type": "uint256"
        },
        {
          "internalType": "address",
          "name": "_newCurrentCompany",
          "type": "address"
        }
      ],
      "name": "editCandidateCurrentCompany",
      "outputs": [],
      "stateMutability": "nonpayable",
      "type": "function"
    },
    {
      "inputs": [
        {
          "internalType": "uint256",
          "name": "_id",
          "type": "uint256"
        }
      ],
      "name": "getCandidate",
      "outputs": [
        {
          "internalType": "string",
          "name": "",
          "type": "string"
        },
        {
          "internalType": "uint256",
          "name": "",
          "type": "uint256"
        },
        {
          "internalType": "string",
          "name": "",
          "type": "string"
        },
        {
          "internalType": "string",
          "name": "",
          "type": "string"
        },
        {
          "internalType": "string",
          "name": "",
          "type": "string"
        }
      ],
      "stateMutability": "view",
      "type": "function"
    },
    {
      "inputs": [
        {
          "internalType": "uint256",
          "name": "_companyId",
          "type": "uint256"
        }
      ],
      "name": "getCandidatesByCompany",
      "outputs": [
        {
          "components": [
            {
              "internalType": "uint256",
              "name": "date",
              "type": "uint256"
            },
            {
              "internalType": "address",
              "name": "address_",
              "type": "address"
            },
            {
              "internalType": "address",
              "name": "currentCompany",
              "type": "address"
            },
            {
              "internalType": "string",
              "name": "name",
              "type": "string"
            },
            {
              "internalType": "uint256[]",
              "name": "documentIds",
              "type": "uint256[]"
            },
            {
              "internalType": "uint256",
              "name": "Id",
              "type": "uint256"
            },
            {
              "internalType": "string",
              "name": "location",
              "type": "string"
            },
            {
              "internalType": "string",
              "name": "email",
              "type": "string"
            },
            {
              "internalType": "string",
              "name": "phoneNumber",
              "type": "string"
            }
          ],
          "internalType": "struct Verification.Candidate[]",
          "name": "",
          "type": "tuple[]"
        }
      ],
      "stateMutability": "view",
      "type": "function"
    },
    {
      "inputs": [],
      "name": "getCompanyIdOfSender",
      "outputs": [
        {
          "internalType": "uint256",
          "name": "",
          "type": "uint256"
        }
      ],
      "stateMutability": "view",
      "type": "function"
    },
    {
      "inputs": [
        {
          "internalType": "uint256",
          "name": "_candidateId",
          "type": "uint256"
        }
      ],
      "name": "getDocuments",
      "outputs": [
        {
          "components": [
            {
              "internalType": "uint256",
              "name": "date",
              "type": "uint256"
            },
            {
              "internalType": "string",
              "name": "name",
              "type": "string"
            },
            {
              "internalType": "uint256",
              "name": "id",
              "type": "uint256"
            },
            {
              "internalType": "string",
              "name": "cid",
              "type": "string"
            },
            {
              "internalType": "string",
              "name": "typeOfDocument",
              "type": "string"
            },
            {
              "internalType": "string",
              "name": "expirationDate",
              "type": "string"
            },
            {
              "internalType": "bool",
              "name": "isVerified",
              "type": "bool"
            },
            {
              "internalType": "bool",
              "name": "isCancelled",
              "type": "bool"
            },
            {
              "internalType": "uint256",
              "name": "candidateId",
              "type": "uint256"
            }
          ],
          "internalType": "struct Verification.Document[]",
          "name": "",
          "type": "tuple[]"
        }
      ],
      "stateMutability": "view",
      "type": "function"
    },
    {
      "inputs": [
        {
          "internalType": "uint256",
          "name": "_candidateId",
          "type": "uint256"
        }
      ],
      "name": "getDocumentsByCandidate",
      "outputs": [
        {
          "components": [
            {
              "internalType": "uint256",
              "name": "date",
              "type": "uint256"
            },
            {
              "internalType": "string",
              "name": "name",
              "type": "string"
            },
            {
              "internalType": "uint256",
              "name": "id",
              "type": "uint256"
            },
            {
              "internalType": "string",
              "name": "cid",
              "type": "string"
            },
            {
              "internalType": "string",
              "name": "typeOfDocument",
              "type": "string"
            },
            {
              "internalType": "string",
              "name": "expirationDate",
              "type": "string"
            },
            {
              "internalType": "bool",
              "name": "isVerified",
              "type": "bool"
            },
            {
              "internalType": "bool",
              "name": "isCancelled",
              "type": "bool"
            },
            {
              "internalType": "uint256",
              "name": "candidateId",
              "type": "uint256"
            }
          ],
          "internalType": "struct Verification.Document[]",
          "name": "",
          "type": "tuple[]"
        }
      ],
      "stateMutability": "view",
      "type": "function"
    },
    {
      "inputs": [],
      "name": "getOwner",
      "outputs": [
        {
          "internalType": "address",
          "name": "",
          "type": "address"
        }
      ],
      "stateMutability": "view",
      "type": "function"
    },
    {
      "inputs": [],
      "name": "getVerifiers",
      "outputs": [
        {
          "internalType": "address[]",
          "name": "",
          "type": "address[]"
        }
      ],
      "stateMutability": "view",
      "type": "function"
    },
    {
      "inputs": [],
      "name": "maxVerifiers",
      "outputs": [
        {
          "internalType": "uint256",
          "name": "",
          "type": "uint256"
        }
      ],
      "stateMutability": "view",
      "type": "function"
    },
    {
      "inputs": [],
      "name": "owner",
      "outputs": [
        {
          "internalType": "address",
          "name": "",
          "type": "address"
        }
      ],
      "stateMutability": "view",
      "type": "function"
    },
    {
      "inputs": [
        {
          "internalType": "uint256[]",
          "name": "_ids",
          "type": "uint256[]"
        }
      ],
      "name": "removeCandidates",
      "outputs": [],
      "stateMutability": "nonpayable",
      "type": "function"
    },
    {
      "inputs": [
        {
          "internalType": "uint256[]",
          "name": "_ids",
          "type": "uint256[]"
        }
      ],
      "name": "removeCompanies",
      "outputs": [],
      "stateMutability": "nonpayable",
      "type": "function"
    },
    {
      "inputs": [
        {
          "internalType": "uint256[]",
          "name": "_candidateIds",
          "type": "uint256[]"
        },
        {
          "internalType": "uint256[]",
          "name": "_documentIds",
          "type": "uint256[]"
        }
      ],
      "name": "removeDocuments",
      "outputs": [],
      "stateMutability": "nonpayable",
      "type": "function"
    },
    {
      "inputs": [],
      "name": "renounceOwnership",
      "outputs": [],
      "stateMutability": "nonpayable",
      "type": "function"
    },
    {
      "inputs": [
        {
          "internalType": "address[]",
          "name": "_oldVerifiers",
          "type": "address[]"
        },
        {
          "internalType": "address[]",
          "name": "_newVerifiers",
          "type": "address[]"
        }
      ],
      "name": "replaceVerifiers",
      "outputs": [],
      "stateMutability": "nonpayable",
      "type": "function"
    },
    {
      "inputs": [
        {
          "internalType": "uint256",
          "name": "_maxVerifiers",
          "type": "uint256"
        }
      ],
      "name": "setMaxVerifiers",
      "outputs": [],
      "stateMutability": "nonpayable",
      "type": "function"
    },
    {
      "inputs": [
        {
          "internalType": "address",
          "name": "newOwner",
          "type": "address"
        }
      ],
      "name": "transferOwnership",
      "outputs": [],
      "stateMutability": "nonpayable",
      "type": "function"
    },
    {
      "inputs": [
        {
          "internalType": "uint256",
          "name": "",
          "type": "uint256"
        }
      ],
      "name": "verifiers",
      "outputs": [
        {
          "internalType": "address",
          "name": "",
          "type": "address"
        }
      ],
      "stateMutability": "view",
      "type": "function"
    },
    {
      "inputs": [
        {
          "internalType": "uint256",
          "name": "_documentId",
          "type": "uint256"
        },
        {
          "internalType": "bool",
          "name": "_isCancelled",
          "type": "bool"
        }
      ],
      "name": "verifyDocument",
      "outputs": [],
      "stateMutability": "nonpayable",
      "type": "function"
    }
  ],
  "bytecode": "0x6080604052600a6002553480156200001657600080fd5b50620000223362000028565b62000078565b600080546001600160a01b038381166001600160a01b0319831681178455604051919092169283917f8be0079c531659141344cd1fd0a4f28419497f9722a3daafe3b4186f6b6457e09190a35050565b61492880620000886000396000f3fe608060405234801561001057600080fd5b50600436106101cf5760003560e01c80637fbc12af11610104578063b4d7e8df116100a2578063c2ed2b0511610071578063c2ed2b0514610434578063eed183181461045c578063f2fde38b1461046f578063fc7435e11461048257600080fd5b8063b4d7e8df146103e6578063b5344257146103fb578063bb3096aa1461040e578063bfbbf5091461042157600080fd5b806399e37a55116100de57806399e37a551461038b578063a2576089146103ab578063a935e766146103be578063ac1eff68146103d357600080fd5b80637fbc12af14610342578063893d20e8146103555780638da5cb5b1461037a57600080fd5b806335b8e820116101715780636dd080471161014b5780636dd08047146102e35780636eb3b4e914610311578063715018a61461033157806378bda7501461033957600080fd5b806335b8e820146102995780634dc95895146102bd5780635990ce80146102d057600080fd5b806324e96df6116101ad57806324e96df61461020f5780632813d19d146102225780633477ee2e1461025257806335af97421461027957600080fd5b8063187c1ebe146101d45780631a203a31146101e95780631e32f407146101fc575b600080fd5b6101e76101e2366004613baf565b610495565b005b6101e76101f7366004613ca3565b6107ea565b6101e761020a366004613d2a565b6109d1565b6101e761021d366004613dfb565b610cf7565b610235610230366004613e30565b610f3b565b604051610249989796959493929190613e8f565b60405180910390f35b610265610260366004613e30565b611242565b604051610249989796959493929190613f1f565b61028c610287366004613e30565b611325565b6040516102499190613fa7565b6102ac6102a7366004613e30565b611819565b6040516102499594939291906140bb565b6101e76102cb36600461411a565b611af9565b6101e76102de36600461417d565b611de9565b6103036102f13660046141b9565b60036020526000908152604090205481565b604051908152602001610249565b61032461031f366004613e30565b611fd2565b60405161024991906141db565b6101e7612411565b61030360025481565b6101e76103503660046142ca565b612425565b6000546001600160a01b03165b6040516001600160a01b039091168152602001610249565b6000546001600160a01b0316610362565b6103036103993660046141b9565b60046020526000908152604090205481565b6103246103b9366004613e30565b612882565b6103c6612cc3565b6040516102499190614349565b6103626103e1366004613e30565b612d25565b33600090815260036020526040902054610303565b6101e7610409366004614396565b612d4f565b6101e761041c3660046143ca565b612f0f565b6101e761042f366004614423565b61308a565b610447610442366004613e30565b6132a8565b604051610249999897969594939291906144cc565b6101e761046a36600461417d565b613529565b6101e761047d3660046141b9565b6136bb565b6101e7610490366004613e30565b613734565b61049d6137a4565b806104b257506000546001600160a01b031633145b6104d75760405162461bcd60e51b81526004016104ce9061454b565b60405180910390fd5b845186511480156104e9575083518651145b80156104f6575082518651145b8015610503575081518651145b8015610510575080518651145b61052c5760405162461bcd60e51b81526004016104ce90614582565b60005b86518110156107e157600087828151811061054c5761054c6145b9565b60200260200101519050600087838151811061056a5761056a6145b9565b602002602001015190506000878481518110610588576105886145b9565b6020026020010151905060008785815181106105a6576105a66145b9565b6020026020010151905060008786815181106105c4576105c46145b9565b6020026020010151905060008787815181106105e2576105e26145b9565b602002602001015190506000600580549050600161060091906145e5565b90506005604051806101200160405280428152602001896001600160a01b0316815260200188815260200183815260200160006001600160401b0381111561064a5761064a6139ca565b604051908082528060200260200182016040528015610673578160200160208202803683370190505b5081526020808201899052604080830189905260608301889052608090920186905283546001808201865560009586529482902084516009909202019081559083015193810180546001600160a01b0319166001600160a01b039095169490941790935581015190919060028201906106ec908261467e565b5060608201516003820155608082015180516107129160048401916020909101906138c2565b5060a08201516005820190610727908261467e565b5060c0820151600682019061073c908261467e565b5060e08201516007820190610751908261467e565b506101008201516008820190610767908261467e565b5050506001600160a01b038716600081815260036020526040908190208390555182907f471c9ccf46d064e5e94779f1db07ba06345ec7fabeffc2b89995df5fd62a84da906107bf908a908a908a908a908a9061473d565b60405180910390a35050505050505080806107d990614776565b91505061052f565b50505050505050565b336000908152600360205260409020546108165760405162461bcd60e51b81526004016104ce9061478f565b60068281548110610829576108296145b9565b90600052602060002090600902016005015460000361085a5760405162461bcd60e51b81526004016104ce906147be565b60006001600160a01b031660068381548110610878576108786145b9565b60009182526020909120600260099092020101546001600160a01b03161461095557336001600160a01b0316600683815481106108b7576108b76145b9565b60009182526020909120600260099092020101546001600160a01b0316146109555760405162461bcd60e51b8152602060048201526044602482018190527f596f7520646f206e6f742068617665207065726d697373696f6e20746f206564908201527f69742063757272656e74436f6d70616e7920666f7220746869732063616e64696064820152636461746560e01b608482015260a4016104ce565b8060068381548110610969576109696145b9565b60009182526020918290206009919091020160020180546001600160a01b0319166001600160a01b03938416179055604051918316825283917f1004bf4098083445cd4ac13954fdcea1d9530a61f6f2a7d5a628bea6141eb17c910160405180910390a25050565b336000908152600360205260409020546109fd5760405162461bcd60e51b81526004016104ce9061478f565b83518551148015610a0f575082518551145b610a2b5760405162461bcd60e51b81526004016104ce90614582565b60005b8551811015610cef576000868281518110610a4b57610a4b6145b9565b602002602001015190506000868381518110610a6957610a696145b9565b602002602001015190506000868481518110610a8757610a876145b9565b602002602001015190506000868581518110610aa557610aa56145b9565b602002602001015190506000868681518110610ac357610ac36145b9565b6020026020010151905060068381548110610ae057610ae06145b9565b906000526020600020906009020160050154600003610b115760405162461bcd60e51b81526004016104ce906147be565b600754600090610b229060016145e5565b604080516101208101825242815260208101898152918101839052606081018890526080810186905260a08101859052600060c0820181905260e082018190526101008201889052600780546001810182559152815160089091027fa66cc928b5edb82af9bd49922954155ab7b0942694bea4ce44661d9a8736c68881019182559251939450909290917fa66cc928b5edb82af9bd49922954155ab7b0942694bea4ce44661d9a8736c6890190610bd9908261467e565b506040820151600282015560608201516003820190610bf8908261467e565b5060808201516004820190610c0d908261467e565b5060a08201516005820190610c22908261467e565b5060c08201516006828101805460e086015161ffff1990911693151561ff001916939093176101009315158402179055920151600790910155805485908110610c6d57610c6d6145b9565b60009182526020808320600460099093020191909101805460018101825590835291200181905560405181907fdf3f376d0902d940a4e067b169121175e19dffa31960867f2ce6943bc6cb5abb90610cce9089908990899089908990614804565b60405180910390a25050505050508080610ce790614776565b915050610a2e565b505050505050565b610cff6137a4565b610d445760405162461bcd60e51b815260206004820152601660248201527513db9b1e481d995c9a599a595c8818d85b8818d85b1b60521b60448201526064016104ce565b600754821115610d8c5760405162461bcd60e51b8152602060048201526013602482015272125b9d985b1a5908191bd8dd5b595b9d081251606a1b60448201526064016104ce565b6000610d99600184614843565b9050600060078281548110610db057610db06145b9565b906000526020600020906008020190508060020154600003610e225760405162461bcd60e51b815260206004820152602560248201527f446f63756d656e74207769746820676976656e20494420646f6573206e6f7420604482015264195e1a5cdd60da1b60648201526084016104ce565b600681015460ff16158015610e4157506006810154610100900460ff16155b610eb35760405162461bcd60e51b815260206004820152603760248201527f446f63756d656e74207769746820676976656e20494420697320616c7265616460448201527f79207665726966696564206f722063616e63656c6c656400000000000000000060648201526084016104ce565b8215610efa5760068101805461ff00191661010017905560405184907f7b4845702fcfeef348208aa5c3ef0909d12e56c50c288cdba03c5462cfd921b590600090a2610f35565b60068101805460ff1916600117905560405184907f4b93fd5160fbc8b35d08aff650902cf41c86e6df325a3eabab5bcca811976cf790600090a25b50505050565b60058181548110610f4b57600080fd5b60009182526020909120600990910201805460018201546002830180549294506001600160a01b039091169291610f81906145fe565b80601f0160208091040260200160405190810160405280929190818152602001828054610fad906145fe565b8015610ffa5780601f10610fcf57610100808354040283529160200191610ffa565b820191906000526020600020905b815481529060010190602001808311610fdd57829003601f168201915b505050505090806003015490806005018054611015906145fe565b80601f0160208091040260200160405190810160405280929190818152602001828054611041906145fe565b801561108e5780601f106110635761010080835404028352916020019161108e565b820191906000526020600020905b81548152906001019060200180831161107157829003601f168201915b5050505050908060060180546110a3906145fe565b80601f01602080910402602001604051908101604052809291908181526020018280546110cf906145fe565b801561111c5780601f106110f15761010080835404028352916020019161111c565b820191906000526020600020905b8154815290600101906020018083116110ff57829003601f168201915b505050505090806007018054611131906145fe565b80601f016020809104026020016040519081016040528092919081815260200182805461115d906145fe565b80156111aa5780601f1061117f576101008083540402835291602001916111aa565b820191906000526020600020905b81548152906001019060200180831161118d57829003601f168201915b5050505050908060080180546111bf906145fe565b80601f01602080910402602001604051908101604052809291908181526020018280546111eb906145fe565b80156112385780601f1061120d57610100808354040283529160200191611238565b820191906000526020600020905b81548152906001019060200180831161121b57829003601f168201915b5050505050905088565b6006818154811061125257600080fd5b600091825260209091206009909102018054600182015460028301546003840180549395506001600160a01b03928316949290911692611291906145fe565b80601f01602080910402602001604051908101604052809291908181526020018280546112bd906145fe565b801561130a5780601f106112df5761010080835404028352916020019161130a565b820191906000526020600020905b8154815290600101906020018083116112ed57829003601f168201915b5050505050908060050154908060060180546110a3906145fe565b60055460609082111561136f5760405162461bcd60e51b8152602060048201526012602482015271125b9d985b1a590818dbdb5c185b9e48125160721b60448201526064016104ce565b600061137c600184614843565b9050600060058281548110611393576113936145b9565b90600052602060002090600902016004018054806020026020016040519081016040528092919081815260200182805480156113ee57602002820191906000526020600020905b8154815260200190600101908083116113da575b50505050509050600081516001600160401b03811115611410576114106139ca565b6040519080825280602002602001820160405280156114a257816020015b61148f6040518061012001604052806000815260200160006001600160a01b0316815260200160006001600160a01b031681526020016060815260200160608152602001600081526020016060815260200160608152602001606081525090565b81526020019060019003908161142e5790505b50905060005b825181101561181057600660018483815181106114c7576114c76145b9565b60200260200101516114d99190614843565b815481106114e9576114e96145b9565b6000918252602091829020604080516101208101825260099093029091018054835260018101546001600160a01b0390811694840194909452600281015490931690820152600382018054919291606084019190611546906145fe565b80601f0160208091040260200160405190810160405280929190818152602001828054611572906145fe565b80156115bf5780601f10611594576101008083540402835291602001916115bf565b820191906000526020600020905b8154815290600101906020018083116115a257829003601f168201915b505050505081526020016004820180548060200260200160405190810160405280929190818152602001828054801561161757602002820191906000526020600020905b815481526020019060010190808311611603575b505050505081526020016005820154815260200160068201805461163a906145fe565b80601f0160208091040260200160405190810160405280929190818152602001828054611666906145fe565b80156116b35780601f10611688576101008083540402835291602001916116b3565b820191906000526020600020905b81548152906001019060200180831161169657829003601f168201915b505050505081526020016007820180546116cc906145fe565b80601f01602080910402602001604051908101604052809291908181526020018280546116f8906145fe565b80156117455780601f1061171a57610100808354040283529160200191611745565b820191906000526020600020905b81548152906001019060200180831161172857829003601f168201915b5050505050815260200160088201805461175e906145fe565b80601f016020809104026020016040519081016040528092919081815260200182805461178a906145fe565b80156117d75780601f106117ac576101008083540402835291602001916117d7565b820191906000526020600020905b8154815290600101906020018083116117ba57829003601f168201915b5050505050815250508282815181106117f2576117f26145b9565b6020026020010181905250808061180890614776565b9150506114a8565b50949350505050565b6060600060608060606006805490508611156118475760405162461bcd60e51b81526004016104ce90614856565b6000611854600188614843565b905060006006828154811061186b5761186b6145b9565b90600052602060002090600902019050806005015460000361189f5760405162461bcd60e51b81526004016104ce906147be565b8060030181600501548260060183600701846008018480546118c0906145fe565b80601f01602080910402602001604051908101604052809291908181526020018280546118ec906145fe565b80156119395780601f1061190e57610100808354040283529160200191611939565b820191906000526020600020905b81548152906001019060200180831161191c57829003601f168201915b5050505050945082805461194c906145fe565b80601f0160208091040260200160405190810160405280929190818152602001828054611978906145fe565b80156119c55780601f1061199a576101008083540402835291602001916119c5565b820191906000526020600020905b8154815290600101906020018083116119a857829003601f168201915b505050505092508180546119d8906145fe565b80601f0160208091040260200160405190810160405280929190818152602001828054611a04906145fe565b8015611a515780601f10611a2657610100808354040283529160200191611a51565b820191906000526020600020905b815481529060010190602001808311611a3457829003601f168201915b50505050509150808054611a64906145fe565b80601f0160208091040260200160405190810160405280929190818152602001828054611a90906145fe565b8015611add5780601f10611ab257610100808354040283529160200191611add565b820191906000526020600020905b815481529060010190602001808311611ac057829003601f168201915b5050505050905096509650965096509650505091939590929450565b611b016137af565b8051825114611b225760405162461bcd60e51b81526004016104ce90614582565b60005b8251811015611de4576000838281518110611b4257611b426145b9565b602002602001015190506000838381518110611b6057611b606145b9565b6020026020010151905060006001600160a01b0316826001600160a01b031603611bbe5760405162461bcd60e51b815260206004820152600f60248201526e496e76616c6964206164647265737360881b60448201526064016104ce565b6001600160a01b038116611d0d5760005b600154811015611d0757826001600160a01b031660018281548110611bf657611bf66145b9565b6000918252602090912001546001600160a01b031603611cf55760018054611c1f908290614843565b81548110611c2f57611c2f6145b9565b600091825260209091200154600180546001600160a01b039092169183908110611c5b57611c5b6145b9565b9060005260206000200160006101000a8154816001600160a01b0302191690836001600160a01b031602179055506001805480611c9a57611c9a614884565b600082815260208120820160001990810180546001600160a01b03191690559091019091556040516001600160a01b038516917f44a3cd4eb5cc5748f6169df057b1cb2ae4c383e87cd94663c430e095d4cba42491a2611d07565b80611cff81614776565b915050611bcf565b50611dcf565b60005b600154811015611dcd57826001600160a01b031660018281548110611d3757611d376145b9565b6000918252602090912001546001600160a01b031603611dbb578160018281548110611d6557611d656145b9565b6000918252602082200180546001600160a01b0319166001600160a01b03938416179055604051848316928616917f50d741fe04ad9863c69d1406658f6ec7c4f5e48ec2faf966a36a3e47fc05c9d991a3611dcd565b80611dc581614776565b915050611d10565b505b50508080611ddc90614776565b915050611b25565b505050565b611df16137a4565b80611e0657506000546001600160a01b031633145b611e225760405162461bcd60e51b81526004016104ce9061454b565b6000815111611e735760405162461bcd60e51b815260206004820152601760248201527f4e6f20636f6d70616e79204944732070726f766964656400000000000000000060448201526064016104ce565b60005b8151811015611fce576000828281518110611e9357611e936145b9565b60200260200101519050600580549050811115611ee75760405162461bcd60e51b8152602060048201526012602482015271125b9d985b1a590818dbdb5c185b9e48125160721b60448201526064016104ce565b6000611ef4600183614843565b60405190915082907f028fe2791b514c47642f0d652f7c237752aea1929ed16396ef24b45eb7e2b31590600090a260058181548110611f3557611f356145b9565b6000918252602082206009909102018181556001810180546001600160a01b031916905590611f67600283018261390d565b6003820160009055600482016000611f7f9190613947565b611f8d60058301600061390d565b611f9b60068301600061390d565b611fa960078301600061390d565b611fb760088301600061390d565b505050508080611fc690614776565b915050611e76565b5050565b600654606090821115611ff75760405162461bcd60e51b81526004016104ce90614856565b6000612004600184614843565b905060006006828154811061201b5761201b6145b9565b90600052602060002090600902019050806005015460000361204f5760405162461bcd60e51b81526004016104ce906147be565b60008160040180548060200260200160405190810160405280929190818152602001828054801561209f57602002820191906000526020600020905b81548152602001906001019080831161208b575b50505050509050600081516001600160401b038111156120c1576120c16139ca565b6040519080825280602002602001820160405280156120fa57816020015b6120e7613965565b8152602001906001900390816120df5790505b50905060005b825181101561240757600783828151811061211d5761211d6145b9565b602002602001015181548110612135576121356145b9565b90600052602060002090600802016040518061012001604052908160008201548152602001600182018054612169906145fe565b80601f0160208091040260200160405190810160405280929190818152602001828054612195906145fe565b80156121e25780601f106121b7576101008083540402835291602001916121e2565b820191906000526020600020905b8154815290600101906020018083116121c557829003601f168201915b5050505050815260200160028201548152602001600382018054612205906145fe565b80601f0160208091040260200160405190810160405280929190818152602001828054612231906145fe565b801561227e5780601f106122535761010080835404028352916020019161227e565b820191906000526020600020905b81548152906001019060200180831161226157829003601f168201915b50505050508152602001600482018054612297906145fe565b80601f01602080910402602001604051908101604052809291908181526020018280546122c3906145fe565b80156123105780601f106122e557610100808354040283529160200191612310565b820191906000526020600020905b8154815290600101906020018083116122f357829003601f168201915b50505050508152602001600582018054612329906145fe565b80601f0160208091040260200160405190810160405280929190818152602001828054612355906145fe565b80156123a25780601f10612377576101008083540402835291602001916123a2565b820191906000526020600020905b81548152906001019060200180831161238557829003601f168201915b5050509183525050600682015460ff80821615156020840152610100909104161515604082015260079091015460609091015282518390839081106123e9576123e96145b9565b602002602001018190525080806123ff90614776565b915050612100565b5095945050505050565b6124196137af565b6124236000613809565b565b336000908152600360205260409020546124515760405162461bcd60e51b81526004016104ce9061478f565b83518551146124725760405162461bcd60e51b81526004016104ce90614582565b60005b8551811015610cef576000868281518110612492576124926145b9565b6020026020010151905060008683815181106124b0576124b06145b9565b6020026020010151905060008684815181106124ce576124ce6145b9565b6020026020010151905060008685815181106124ec576124ec6145b9565b60200260200101519050600086868151811061250a5761250a6145b9565b6020026020010151905060046000866001600160a01b03166001600160a01b03168152602001908152602001600020546000146125a15760405162461bcd60e51b815260206004820152602f60248201527f43616e64696461746520776974682074686520676976656e206164647265737360448201526e20616c72656164792065786973747360881b60648201526084016104ce565b6001600160a01b0385166125f05760405162461bcd60e51b8152602060048201526016602482015275416464726573732063616e6e6f74206265207a65726f60501b60448201526064016104ce565b60008451116126385760405162461bcd60e51b81526020600482015260146024820152734e616d652063616e6e6f7420626520656d70747960601b60448201526064016104ce565b6006546000906126499060016145e5565b90506006604051806101200160405280428152602001886001600160a01b03168152602001336001600160a01b0316815260200187815260200160006001600160401b0381111561269c5761269c6139ca565b6040519080825280602002602001820160405280156126c5578160200160208202803683370190505b508152602080820185905260408083018990526060808401899052608090930187905284546001818101875560009687529583902085516009909202019081559184015194820180546001600160a01b039687166001600160a01b03199182161790915590840151600283018054919096169116179093558101519091906003820190612752908261467e565b506080820151805161276e9160048401916020909101906138c2565b5060a0820151600582015560c0820151600682019061278d908261467e565b5060e082015160078201906127a2908261467e565b5061010082015160088201906127b8908261467e565b505033600090815260036020526040902054600591506127da90600190614843565b815481106127ea576127ea6145b9565b60009182526020808320600460099093020182018054600181018255908452818420018490556001600160a01b0389168352526040908190208290555181907f1908f3f8bf9e04cbee388cdea6025f92e954127dec768c7e092afb158071f0d09061285c90889088908890889061489a565b60405180910390a2505050505050808061287590614776565b915050612475565b905090565b6006546060908211156128a75760405162461bcd60e51b81526004016104ce90614856565b60006128b4600184614843565b90506000600682815481106128cb576128cb6145b9565b9060005260206000209060090201905080600501546000036128ff5760405162461bcd60e51b81526004016104ce906147be565b60008160040180548060200260200160405190810160405280929190818152602001828054801561294f57602002820191906000526020600020905b81548152602001906001019080831161293b575b50505050509050600081516001600160401b03811115612971576129716139ca565b6040519080825280602002602001820160405280156129aa57816020015b612997613965565b81526020019060019003908161298f5790505b50905060005b825181101561240757600760018483815181106129cf576129cf6145b9565b60200260200101516129e19190614843565b815481106129f1576129f16145b9565b90600052602060002090600802016040518061012001604052908160008201548152602001600182018054612a25906145fe565b80601f0160208091040260200160405190810160405280929190818152602001828054612a51906145fe565b8015612a9e5780601f10612a7357610100808354040283529160200191612a9e565b820191906000526020600020905b815481529060010190602001808311612a8157829003601f168201915b5050505050815260200160028201548152602001600382018054612ac1906145fe565b80601f0160208091040260200160405190810160405280929190818152602001828054612aed906145fe565b8015612b3a5780601f10612b0f57610100808354040283529160200191612b3a565b820191906000526020600020905b815481529060010190602001808311612b1d57829003601f168201915b50505050508152602001600482018054612b53906145fe565b80601f0160208091040260200160405190810160405280929190818152602001828054612b7f906145fe565b8015612bcc5780601f10612ba157610100808354040283529160200191612bcc565b820191906000526020600020905b815481529060010190602001808311612baf57829003601f168201915b50505050508152602001600582018054612be5906145fe565b80601f0160208091040260200160405190810160405280929190818152602001828054612c11906145fe565b8015612c5e5780601f10612c3357610100808354040283529160200191612c5e565b820191906000526020600020905b815481529060010190602001808311612c4157829003601f168201915b5050509183525050600682015460ff8082161515602084015261010090910416151560408201526007909101546060909101528251839083908110612ca557612ca56145b9565b60200260200101819052508080612cbb90614776565b9150506129b0565b60606001805480602002602001604051908101604052809291908181526020018280548015612d1b57602002820191906000526020600020905b81546001600160a01b03168152600190910190602001808311612cfd575b5050505050905090565b60018181548110612d3557600080fd5b6000918252602090912001546001600160a01b0316905081565b612d576137af565b6000815111612d9e5760405162461bcd60e51b8152602060048201526013602482015272139bc81d995c9a599a595c9cc81d1bc8185919606a1b60448201526064016104ce565b6002548151600154612db091906145e5565b1115612e0a5760405162461bcd60e51b815260206004820152602360248201527f45786365656473206d6178696d756d206e756d626572206f662076657269666960448201526265727360e81b60648201526084016104ce565b60005b8151811015611fce576000828281518110612e2a57612e2a6145b9565b6020026020010151905060006001600160a01b0316816001600160a01b031603612e885760405162461bcd60e51b815260206004820152600f60248201526e496e76616c6964206164647265737360881b60448201526064016104ce565b60018054808201825560009182527fb10e2d527612073b26eecdfd717e6a320cf44b4afac2b0732d9fcbe2b7fa0cf60180546001600160a01b0319166001600160a01b03841690811790915560405190917f6d05492139c5ea989514a5d2150c028041e5c087e2a39967f67dc7d2655adb8191a25080612f0781614776565b915050612e0d565b33600090815260036020526040902054612f3b5760405162461bcd60e51b81526004016104ce9061478f565b8051825114612f5c5760405162461bcd60e51b81526004016104ce90614582565b60005b8251811015611de4576000838281518110612f7c57612f7c6145b9565b602002602001015190506000838381518110612f9a57612f9a6145b9565b6020026020010151905060068281548110612fb757612fb76145b9565b906000526020600020906009020160050154600003612fe85760405162461bcd60e51b81526004016104ce906147be565b6000612ff5600183614843565b60408051848152602081018690529192507f61656cb8d1dc6013bb7713ae498059b6f4df3c60e832e655a6765c0c54863008910160405180910390a160068381548110613044576130446145b9565b90600052602060002090600902016004018181548110613066576130666145b9565b9060005260206000200160009055505050808061308290614776565b915050612f5f565b336000908152600360205260409020546130b65760405162461bcd60e51b81526004016104ce9061478f565b600685815481106130c9576130c96145b9565b9060005260206000209060090201600501546000036130fa5760405162461bcd60e51b81526004016104ce906147be565b336001600160a01b031660068681548110613117576131176145b9565b60009182526020909120600260099092020101546001600160a01b03161461319b5760405162461bcd60e51b815260206004820152603160248201527f596f7520646f206e6f742068617665207065726d697373696f6e20746f206564604482015270697420746869732063616e64696461746560781b60648201526084016104ce565b83600686815481106131af576131af6145b9565b906000526020600020906009020160030190816131cc919061467e565b5082600686815481106131e1576131e16145b9565b906000526020600020906009020160060190816131fe919061467e565b508160068681548110613213576132136145b9565b90600052602060002090600902016007019081613230919061467e565b508060068681548110613245576132456145b9565b90600052602060002090600902016008019081613262919061467e565b50847f3a644a3850d6352df61b7cd6576765eaafc13f0e881f637864caacdb1ed8905c85858585604051613299949392919061489a565b60405180910390a25050505050565b600781815481106132b857600080fd5b600091825260209091206008909102018054600182018054919350906132dd906145fe565b80601f0160208091040260200160405190810160405280929190818152602001828054613309906145fe565b80156133565780601f1061332b57610100808354040283529160200191613356565b820191906000526020600020905b81548152906001019060200180831161333957829003601f168201915b505050505090806002015490806003018054613371906145fe565b80601f016020809104026020016040519081016040528092919081815260200182805461339d906145fe565b80156133ea5780601f106133bf576101008083540402835291602001916133ea565b820191906000526020600020905b8154815290600101906020018083116133cd57829003601f168201915b5050505050908060040180546133ff906145fe565b80601f016020809104026020016040519081016040528092919081815260200182805461342b906145fe565b80156134785780601f1061344d57610100808354040283529160200191613478565b820191906000526020600020905b81548152906001019060200180831161345b57829003601f168201915b50505050509080600501805461348d906145fe565b80601f01602080910402602001604051908101604052809291908181526020018280546134b9906145fe565b80156135065780601f106134db57610100808354040283529160200191613506565b820191906000526020600020905b8154815290600101906020018083116134e957829003601f168201915b505050506006830154600790930154919260ff8082169361010090920416915089565b6135316137a4565b8061354a57503360009081526003602052604090205415155b6135665760405162461bcd60e51b81526004016104ce9061454b565b60005b8151811015611fce576000828281518110613586576135866145b9565b60200260200101519050600681815481106135a3576135a36145b9565b9060005260206000209060090201600501546000036135d45760405162461bcd60e51b81526004016104ce906147be565b60006135e1600183614843565b60405190915082907f294c5a9bc8a39e6e06502bc8da429980f6c7b0990d75b682c12cb8705e3ace8590600090a260068181548110613622576136226145b9565b6000918252602082206009909102018181556001810180546001600160a01b0319908116909155600282018054909116905590613662600383018261390d565b613670600483016000613947565b6005820160009055600682016000613688919061390d565b61369660078301600061390d565b6136a460088301600061390d565b5050505080806136b390614776565b915050613569565b6136c36137af565b6001600160a01b0381166137285760405162461bcd60e51b815260206004820152602660248201527f4f776e61626c653a206e6577206f776e657220697320746865207a65726f206160448201526564647265737360d01b60648201526084016104ce565b61373181613809565b50565b61373c6137af565b6000811161379f5760405162461bcd60e51b815260206004820152602a60248201527f4d6178696d756d207665726966696572732073686f756c6420626520677265616044820152690746572207468616e20360b41b60648201526084016104ce565b600255565b600061287d33613859565b6000546001600160a01b031633146124235760405162461bcd60e51b815260206004820181905260248201527f4f776e61626c653a2063616c6c6572206973206e6f7420746865206f776e657260448201526064016104ce565b600080546001600160a01b038381166001600160a01b0319831681178455604051919092169283917f8be0079c531659141344cd1fd0a4f28419497f9722a3daafe3b4186f6b6457e09190a35050565b6000805b6001548110156138b957826001600160a01b031660018281548110613884576138846145b9565b6000918252602090912001546001600160a01b0316036138a75750600192915050565b806138b181614776565b91505061385d565b50600092915050565b8280548282559060005260206000209081019282156138fd579160200282015b828111156138fd5782518255916020019190600101906138e2565b506139099291506139b5565b5090565b508054613919906145fe565b6000825580601f10613929575050565b601f01602090049060005260206000209081019061373191906139b5565b508054600082559060005260206000209081019061373191906139b5565b604051806101200160405280600081526020016060815260200160008152602001606081526020016060815260200160608152602001600015158152602001600015158152602001600081525090565b5b8082111561390957600081556001016139b6565b634e487b7160e01b600052604160045260246000fd5b604051601f8201601f191681016001600160401b0381118282101715613a0857613a086139ca565b604052919050565b60006001600160401b03821115613a2957613a296139ca565b5060051b60200190565b80356001600160a01b0381168114613a4a57600080fd5b919050565b600082601f830112613a6057600080fd5b81356020613a75613a7083613a10565b6139e0565b82815260059290921b84018101918181019086841115613a9457600080fd5b8286015b84811015613ab657613aa981613a33565b8352918301918301613a98565b509695505050505050565b600082601f830112613ad257600080fd5b81356001600160401b03811115613aeb57613aeb6139ca565b613afe601f8201601f19166020016139e0565b818152846020838601011115613b1357600080fd5b816020850160208301376000918101602001919091529392505050565b600082601f830112613b4157600080fd5b81356020613b51613a7083613a10565b82815260059290921b84018101918181019086841115613b7057600080fd5b8286015b84811015613ab65780356001600160401b03811115613b935760008081fd5b613ba18986838b0101613ac1565b845250918301918301613b74565b60008060008060008060c08789031215613bc857600080fd5b86356001600160401b0380821115613bdf57600080fd5b613beb8a838b01613a4f565b97506020890135915080821115613c0157600080fd5b613c0d8a838b01613b30565b96506040890135915080821115613c2357600080fd5b613c2f8a838b01613b30565b95506060890135915080821115613c4557600080fd5b613c518a838b01613b30565b94506080890135915080821115613c6757600080fd5b613c738a838b01613b30565b935060a0890135915080821115613c8957600080fd5b50613c9689828a01613b30565b9150509295509295509295565b60008060408385031215613cb657600080fd5b82359150613cc660208401613a33565b90509250929050565b600082601f830112613ce057600080fd5b81356020613cf0613a7083613a10565b82815260059290921b84018101918181019086841115613d0f57600080fd5b8286015b84811015613ab65780358352918301918301613d13565b600080600080600060a08688031215613d4257600080fd5b85356001600160401b0380821115613d5957600080fd5b613d6589838a01613b30565b96506020880135915080821115613d7b57600080fd5b613d8789838a01613b30565b95506040880135915080821115613d9d57600080fd5b613da989838a01613ccf565b94506060880135915080821115613dbf57600080fd5b613dcb89838a01613b30565b93506080880135915080821115613de157600080fd5b50613dee88828901613b30565b9150509295509295909350565b60008060408385031215613e0e57600080fd5b8235915060208301358015158114613e2557600080fd5b809150509250929050565b600060208284031215613e4257600080fd5b5035919050565b6000815180845260005b81811015613e6f57602081850181015186830182015201613e53565b506000602082860101526020601f19601f83011685010191505092915050565b8881526001600160a01b038816602082015261010060408201819052600090613eba8382018a613e49565b90508760608401528281036080840152613ed48188613e49565b905082810360a0840152613ee88187613e49565b905082810360c0840152613efc8186613e49565b905082810360e0840152613f108185613e49565b9b9a5050505050505050505050565b8881526001600160a01b0388811660208301528716604082015261010060608201819052600090613f5283820189613e49565b905086608084015282810360a0840152613ee88187613e49565b600081518084526020808501945080840160005b83811015613f9c57815187529582019590820190600101613f80565b509495945050505050565b60006020808301818452808551808352604092508286019150828160051b87010184880160005b838110156140ad57603f19898403018552815180518452878101516001600160a01b0390811689860152878201511687850152606080820151610120828701819052919061401e83880182613e49565b92505050608080830151868303828801526140398382613f6c565b9250505060a080830151818701525060c0808301518683038288015261405f8382613e49565b9250505060e0808301518683038288015261407a8382613e49565b9250505061010080830151925085820381870152506140998183613e49565b968901969450505090860190600101613fce565b509098975050505050505050565b60a0815260006140ce60a0830188613e49565b86602084015282810360408401526140e68187613e49565b905082810360608401526140fa8186613e49565b9050828103608084015261410e8185613e49565b98975050505050505050565b6000806040838503121561412d57600080fd5b82356001600160401b038082111561414457600080fd5b61415086838701613a4f565b9350602085013591508082111561416657600080fd5b5061417385828601613a4f565b9150509250929050565b60006020828403121561418f57600080fd5b81356001600160401b038111156141a557600080fd5b6141b184828501613ccf565b949350505050565b6000602082840312156141cb57600080fd5b6141d482613a33565b9392505050565b60006020808301818452808551808352604092508286019150828160051b87010184880160005b838110156140ad57603f1989840301855281516101208151855288820151818a87015261423182870182613e49565b9150508782015188860152606080830151868303828801526142538382613e49565b925050506080808301518683038288015261426e8382613e49565b9250505060a080830151868303828801526142898382613e49565b9250505060c0808301516142a08288018215159052565b505060e0828101511515908601526101009182015191909401529386019390860190600101614202565b600080600080600060a086880312156142e257600080fd5b85356001600160401b03808211156142f957600080fd5b61430589838a01613a4f565b9650602088013591508082111561431b57600080fd5b61432789838a01613b30565b9550604088013591508082111561433d57600080fd5b613da989838a01613b30565b6020808252825182820181905260009190848201906040850190845b8181101561438a5783516001600160a01b031683529284019291840191600101614365565b50909695505050505050565b6000602082840312156143a857600080fd5b81356001600160401b038111156143be57600080fd5b6141b184828501613a4f565b600080604083850312156143dd57600080fd5b82356001600160401b03808211156143f457600080fd5b61440086838701613ccf565b9350602085013591508082111561441657600080fd5b5061417385828601613ccf565b600080600080600060a0868803121561443b57600080fd5b8535945060208601356001600160401b038082111561445957600080fd5b61446589838a01613ac1565b9550604088013591508082111561447b57600080fd5b61448789838a01613ac1565b9450606088013591508082111561449d57600080fd5b6144a989838a01613ac1565b935060808801359150808211156144bf57600080fd5b50613dee88828901613ac1565b60006101208b83528060208401526144e68184018c613e49565b90508960408401528281036060840152614500818a613e49565b905082810360808401526145148189613e49565b905082810360a08401526145288188613e49565b95151560c0840152505091151560e0830152610100909101529695505050505050565b6020808252601f908201527f4f6e6c79207665726966696572206f72206f776e65722063616e2063616c6c00604082015260600190565b60208082526018908201527f4d69736d61746368656420696e707574206c656e677468730000000000000000604082015260600190565b634e487b7160e01b600052603260045260246000fd5b634e487b7160e01b600052601160045260246000fd5b808201808211156145f8576145f86145cf565b92915050565b600181811c9082168061461257607f821691505b60208210810361463257634e487b7160e01b600052602260045260246000fd5b50919050565b601f821115611de457600081815260208120601f850160051c8101602086101561465f5750805b601f850160051c820191505b81811015610cef5782815560010161466b565b81516001600160401b03811115614697576146976139ca565b6146ab816146a584546145fe565b84614638565b602080601f8311600181146146e057600084156146c85750858301515b600019600386901b1c1916600185901b178555610cef565b600085815260208120601f198616915b8281101561470f578886015182559484019460019091019084016146f0565b508582101561472d5787850151600019600388901b60f8161c191681555b5050505050600190811b01905550565b60a08152600061475060a0830188613e49565b82810360208401526147628188613e49565b905082810360408401526140e68187613e49565b600060018201614788576147886145cf565b5060010190565b60208082526015908201527413db9b1e4818dbdb5c185b9e4818d85b8818d85b1b605a1b604082015260600190565b60208082526026908201527f43616e646964617465207769746820676976656e20494420646f6573206e6f7460408201526508195e1a5cdd60d21b606082015260800190565b60a08152600061481760a0830188613e49565b82810360208401526148298188613e49565b905085604084015282810360608401526140fa8186613e49565b818103818111156145f8576145f86145cf565b602080825260149082015273125b9d985b1a590818d85b991a59185d1948125160621b604082015260600190565b634e487b7160e01b600052603160045260246000fd5b6080815260006148ad6080830187613e49565b82810360208401526148bf8187613e49565b905082810360408401526148d38186613e49565b905082810360608401526148e78185613e49565b97965050505050505056fea264697066735822122085cde19d156eb96ce8be4878da8ce41cf9436c13e6267d1a282ca98e1c09200e64736f6c63430008150033",
  "linkReferences": {},
  "deployedLinkReferences": {}
}