{
  "_format": "hh-sol-artifact-1",
  "contractName": "Verification",
  "sourceName": "src/contracts/Verification.sol",
  "abi": [
    {
      "anonymous": false,
      "inputs": [
        {
          "indexed": true,
          "internalType": "uint256",
          "name": "id",
          "type": "uint256"
        },
        {
          "indexed": false,
          "internalType": "string",
          "name": "name",
          "type": "string"
        }
      ],
      "name": "CandidateAdded",
      "type": "event"
    },
    {
      "anonymous": false,
      "inputs": [
        {
          "indexed": true,
          "internalType": "uint256",
          "name": "id",
          "type": "uint256"
        }
      ],
      "name": "CandidateRemoved",
      "type": "event"
    },
    {
      "anonymous": false,
      "inputs": [
        {
          "indexed": true,
          "internalType": "uint256",
          "name": "id",
          "type": "uint256"
        },
        {
          "indexed": true,
          "internalType": "address",
          "name": "companyAddress",
          "type": "address"
        },
        {
          "indexed": false,
          "internalType": "string",
          "name": "name",
          "type": "string"
        }
      ],
      "name": "CompanyAdded",
      "type": "event"
    },
    {
      "anonymous": false,
      "inputs": [
        {
          "indexed": true,
          "internalType": "uint256",
          "name": "id",
          "type": "uint256"
        }
      ],
      "name": "CompanyRemoved",
      "type": "event"
    },
    {
      "anonymous": false,
      "inputs": [
        {
          "indexed": true,
          "internalType": "uint256",
          "name": "id",
          "type": "uint256"
        },
        {
          "indexed": false,
          "internalType": "string",
          "name": "name",
          "type": "string"
        },
        {
          "indexed": false,
          "internalType": "string",
          "name": "cid",
          "type": "string"
        },
        {
          "indexed": false,
          "internalType": "uint256",
          "name": "companyId",
          "type": "uint256"
        },
        {
          "indexed": false,
          "internalType": "uint256",
          "name": "candidateId",
          "type": "uint256"
        }
      ],
      "name": "DocumentAdded",
      "type": "event"
    },
    {
      "anonymous": false,
      "inputs": [
        {
          "indexed": false,
          "internalType": "uint256",
          "name": "documentId",
          "type": "uint256"
        },
        {
          "indexed": false,
          "internalType": "uint256",
          "name": "candidateId",
          "type": "uint256"
        },
        {
          "indexed": false,
          "internalType": "uint256",
          "name": "companyId",
          "type": "uint256"
        }
      ],
      "name": "DocumentRemoved",
      "type": "event"
    },
    {
      "anonymous": false,
      "inputs": [
        {
          "indexed": true,
          "internalType": "uint256",
          "name": "id",
          "type": "uint256"
        }
      ],
      "name": "DocumentVerified",
      "type": "event"
    },
    {
      "anonymous": false,
      "inputs": [
        {
          "indexed": true,
          "internalType": "address",
          "name": "previousOwner",
          "type": "address"
        },
        {
          "indexed": true,
          "internalType": "address",
          "name": "newOwner",
          "type": "address"
        }
      ],
      "name": "OwnershipTransferred",
      "type": "event"
    },
    {
      "anonymous": false,
      "inputs": [
        {
          "indexed": true,
          "internalType": "address",
          "name": "verifier",
          "type": "address"
        }
      ],
      "name": "VerifierAdded",
      "type": "event"
    },
    {
      "anonymous": false,
      "inputs": [
        {
          "indexed": true,
          "internalType": "address",
          "name": "verifier",
          "type": "address"
        }
      ],
      "name": "VerifierRemoved",
      "type": "event"
    },
    {
      "anonymous": false,
      "inputs": [
        {
          "indexed": true,
          "internalType": "address",
          "name": "oldVerifier",
          "type": "address"
        },
        {
          "indexed": true,
          "internalType": "address",
          "name": "newVerifier",
          "type": "address"
        }
      ],
      "name": "VerifierReplaced",
      "type": "event"
    },
    {
      "inputs": [
        {
          "internalType": "uint256[]",
          "name": "_ids",
          "type": "uint256[]"
        },
        {
          "internalType": "string[]",
          "name": "_names",
          "type": "string[]"
        }
      ],
      "name": "addCandidates",
      "outputs": [],
      "stateMutability": "nonpayable",
      "type": "function"
    },
    {
      "inputs": [
        {
          "internalType": "uint256[]",
          "name": "_ids",
          "type": "uint256[]"
        },
        {
          "internalType": "address[]",
          "name": "_addresses",
          "type": "address[]"
        },
        {
          "internalType": "string[]",
          "name": "_names",
          "type": "string[]"
        }
      ],
      "name": "addCompanies",
      "outputs": [],
      "stateMutability": "nonpayable",
      "type": "function"
    },
    {
      "inputs": [
        {
          "internalType": "string[]",
          "name": "_names",
          "type": "string[]"
        },
        {
          "internalType": "string[]",
          "name": "_cids",
          "type": "string[]"
        },
        {
          "internalType": "uint256[]",
          "name": "_candidateIds",
          "type": "uint256[]"
        }
      ],
      "name": "addDocuments",
      "outputs": [],
      "stateMutability": "nonpayable",
      "type": "function"
    },
    {
      "inputs": [
        {
          "internalType": "address[]",
          "name": "_verifiers",
          "type": "address[]"
        }
      ],
      "name": "addVerifiers",
      "outputs": [],
      "stateMutability": "nonpayable",
      "type": "function"
    },
    {
      "inputs": [
        {
          "internalType": "uint256",
          "name": "",
          "type": "uint256"
        }
      ],
      "name": "candidates",
      "outputs": [
        {
          "internalType": "string",
          "name": "name",
          "type": "string"
        },
        {
          "internalType": "uint256",
          "name": "Id",
          "type": "uint256"
        }
      ],
      "stateMutability": "view",
      "type": "function"
    },
    {
      "inputs": [
        {
          "internalType": "uint256",
          "name": "",
          "type": "uint256"
        }
      ],
      "name": "companies",
      "outputs": [
        {
          "internalType": "address",
          "name": "address_",
          "type": "address"
        },
        {
          "internalType": "string",
          "name": "name",
          "type": "string"
        },
        {
          "internalType": "uint256",
          "name": "Id",
          "type": "uint256"
        }
      ],
      "stateMutability": "view",
      "type": "function"
    },
    {
      "inputs": [
        {
          "internalType": "address",
          "name": "",
          "type": "address"
        }
      ],
      "name": "companyAddress",
      "outputs": [
        {
          "internalType": "address",
          "name": "address_",
          "type": "address"
        },
        {
          "internalType": "string",
          "name": "name",
          "type": "string"
        },
        {
          "internalType": "uint256",
          "name": "Id",
          "type": "uint256"
        }
      ],
      "stateMutability": "view",
      "type": "function"
    },
    {
      "inputs": [
        {
          "internalType": "uint256",
          "name": "",
          "type": "uint256"
        },
        {
          "internalType": "uint256",
          "name": "",
          "type": "uint256"
        }
      ],
      "name": "companyCandidateDocuments",
      "outputs": [
        {
          "internalType": "uint256",
          "name": "",
          "type": "uint256"
        }
      ],
      "stateMutability": "view",
      "type": "function"
    },
    {
      "inputs": [
        {
          "internalType": "uint256",
          "name": "",
          "type": "uint256"
        }
      ],
      "name": "documents",
      "outputs": [
        {
          "internalType": "string",
          "name": "name",
          "type": "string"
        },
        {
          "internalType": "string",
          "name": "cid",
          "type": "string"
        },
        {
          "internalType": "bool",
          "name": "isVerified",
          "type": "bool"
        }
      ],
      "stateMutability": "view",
      "type": "function"
    },
    {
      "inputs": [
        {
          "internalType": "uint256",
          "name": "_id",
          "type": "uint256"
        }
      ],
      "name": "getCandidate",
      "outputs": [
        {
          "internalType": "string",
          "name": "",
          "type": "string"
        },
        {
          "internalType": "uint256",
          "name": "",
          "type": "uint256"
        }
      ],
      "stateMutability": "view",
      "type": "function"
    },
    {
      "inputs": [
        {
          "internalType": "uint256",
          "name": "_id",
          "type": "uint256"
        }
      ],
      "name": "getCompany",
      "outputs": [
        {
          "internalType": "address",
          "name": "",
          "type": "address"
        },
        {
          "internalType": "string",
          "name": "",
          "type": "string"
        },
        {
          "internalType": "uint256",
          "name": "",
          "type": "uint256"
        }
      ],
      "stateMutability": "view",
      "type": "function"
    },
    {
      "inputs": [],
      "name": "getCompanyIdOfSender",
      "outputs": [
        {
          "internalType": "uint256",
          "name": "",
          "type": "uint256"
        }
      ],
      "stateMutability": "view",
      "type": "function"
    },
    {
      "inputs": [
        {
          "internalType": "uint256",
          "name": "_companyId",
          "type": "uint256"
        },
        {
          "internalType": "uint256",
          "name": "_candidateId",
          "type": "uint256"
        }
      ],
      "name": "getDocument",
      "outputs": [
        {
          "internalType": "uint256",
          "name": "",
          "type": "uint256"
        }
      ],
      "stateMutability": "view",
      "type": "function"
    },
    {
      "inputs": [],
      "name": "getOwner",
      "outputs": [
        {
          "internalType": "address",
          "name": "",
          "type": "address"
        }
      ],
      "stateMutability": "view",
      "type": "function"
    },
    {
      "inputs": [],
      "name": "getVerifiers",
      "outputs": [
        {
          "internalType": "address[]",
          "name": "",
          "type": "address[]"
        }
      ],
      "stateMutability": "view",
      "type": "function"
    },
    {
      "inputs": [],
      "name": "maxVerifiers",
      "outputs": [
        {
          "internalType": "uint256",
          "name": "",
          "type": "uint256"
        }
      ],
      "stateMutability": "view",
      "type": "function"
    },
    {
      "inputs": [],
      "name": "numCompanies",
      "outputs": [
        {
          "internalType": "uint256",
          "name": "",
          "type": "uint256"
        }
      ],
      "stateMutability": "view",
      "type": "function"
    },
    {
      "inputs": [],
      "name": "numDocuments",
      "outputs": [
        {
          "internalType": "uint256",
          "name": "",
          "type": "uint256"
        }
      ],
      "stateMutability": "view",
      "type": "function"
    },
    {
      "inputs": [
        {
          "internalType": "address",
          "name": "sender",
          "type": "address"
        }
      ],
      "name": "onlyCompany",
      "outputs": [
        {
          "internalType": "bool",
          "name": "",
          "type": "bool"
        }
      ],
      "stateMutability": "view",
      "type": "function"
    },
    {
      "inputs": [
        {
          "internalType": "address",
          "name": "sender",
          "type": "address"
        }
      ],
      "name": "onlyVerifier",
      "outputs": [
        {
          "internalType": "bool",
          "name": "",
          "type": "bool"
        }
      ],
      "stateMutability": "view",
      "type": "function"
    },
    {
      "inputs": [],
      "name": "owner",
      "outputs": [
        {
          "internalType": "address",
          "name": "",
          "type": "address"
        }
      ],
      "stateMutability": "view",
      "type": "function"
    },
    {
      "inputs": [
        {
          "internalType": "uint256[]",
          "name": "_ids",
          "type": "uint256[]"
        }
      ],
      "name": "removeCandidates",
      "outputs": [],
      "stateMutability": "nonpayable",
      "type": "function"
    },
    {
      "inputs": [
        {
          "internalType": "uint256[]",
          "name": "_ids",
          "type": "uint256[]"
        }
      ],
      "name": "removeCompanies",
      "outputs": [],
      "stateMutability": "nonpayable",
      "type": "function"
    },
    {
      "inputs": [
        {
          "internalType": "uint256[]",
          "name": "_candidateIds",
          "type": "uint256[]"
        }
      ],
      "name": "removeDocuments",
      "outputs": [],
      "stateMutability": "nonpayable",
      "type": "function"
    },
    {
      "inputs": [],
      "name": "renounceOwnership",
      "outputs": [],
      "stateMutability": "nonpayable",
      "type": "function"
    },
    {
      "inputs": [
        {
          "internalType": "address[]",
          "name": "_oldVerifiers",
          "type": "address[]"
        },
        {
          "internalType": "address[]",
          "name": "_newVerifiers",
          "type": "address[]"
        }
      ],
      "name": "replaceVerifiers",
      "outputs": [],
      "stateMutability": "nonpayable",
      "type": "function"
    },
    {
      "inputs": [
        {
          "internalType": "uint256",
          "name": "_maxVerifiers",
          "type": "uint256"
        }
      ],
      "name": "setMaxVerifiers",
      "outputs": [],
      "stateMutability": "nonpayable",
      "type": "function"
    },
    {
      "inputs": [
        {
          "internalType": "address",
          "name": "newOwner",
          "type": "address"
        }
      ],
      "name": "transferOwnership",
      "outputs": [],
      "stateMutability": "nonpayable",
      "type": "function"
    },
    {
      "inputs": [
        {
          "internalType": "uint256",
          "name": "",
          "type": "uint256"
        }
      ],
      "name": "verifiers",
      "outputs": [
        {
          "internalType": "address",
          "name": "",
          "type": "address"
        }
      ],
      "stateMutability": "view",
      "type": "function"
    },
    {
      "inputs": [
        {
          "internalType": "uint256[]",
          "name": "_ids",
          "type": "uint256[]"
        }
      ],
      "name": "verifyDocuments",
      "outputs": [],
      "stateMutability": "nonpayable",
      "type": "function"
    }
  ],
  "bytecode": "0x6080604052600a60025534801561001557600080fd5b5061001f33610024565b610074565b600080546001600160a01b038381166001600160a01b0319831681178455604051919092169283917f8be0079c531659141344cd1fd0a4f28419497f9722a3daafe3b4186f6b6457e09190a35050565b612661806100836000396000f3fe608060405234801561001057600080fd5b50600436106101da5760003560e01c8063854da65811610104578063abda9f95116100a2578063c2ed2b0511610071578063c2ed2b0514610420578063eed1831814610442578063f2fde38b14610455578063fc7435e11461046857600080fd5b8063abda9f95146103df578063ac1eff68146103f2578063b4d7e8df14610405578063b53442571461040d57600080fd5b80638b0e6305116100de5780638b0e6305146103605780638da5cb5b1461038b5780639a9ad4aa1461039c578063a935e766146103ca57600080fd5b8063854da6581461031f578063874fdf2d14610332578063893d20e81461033b57600080fd5b806341affd451161017c5780635990ce801161014b5780635990ce80146102e85780636dd08047146102fb578063715018a61461030e57806378bda7501461031657600080fd5b806341affd45146102a65780634dc95895146102af578063540faf24146102c257806357d13917146102d557600080fd5b8063249f77b1116101b8578063249f77b11461023d5780632813d19d146102505780633477ee2e1461027257806335b8e8201461029357600080fd5b80630dff71ba146101df5780630f53ce01146102075780630fdd15df14610228575b600080fd5b6101f26101ed366004611c6e565b61047b565b60405190151581526020015b60405180910390f35b61021a610215366004611c90565b6104e3565b6040519081526020016101fe565b61023b610236366004611e6c565b610504565b005b61023b61024b366004611f56565b61075b565b61026361025e366004611fd4565b61092d565b6040516101fe93929190612033565b610285610280366004611fd4565b6109e2565b6040516101fe929190612067565b6102856102a1366004611fd4565b610a86565b61021a60045481565b61023b6102bd366004612089565b610b57565b61023b6102d03660046120ed565b610e47565b6102636102e3366004611fd4565b610f62565b61023b6102f6366004612147565b61104c565b610263610309366004611c6e565b6111cc565b61023b6111f8565b61021a60025481565b61023b61032d366004612147565b61120c565b61021a60035481565b6000546001600160a01b03165b6040516001600160a01b0390911681526020016101fe565b61021a61036e366004611c90565b600960209081526000928352604080842090915290825290205481565b6000546001600160a01b0316610348565b6101f26103aa366004611c6e565b6001600160a01b0316600090815260066020526040902060020154151590565b6103d261132c565b6040516101fe9190612184565b61023b6103ed366004612147565b61138e565b610348610400366004611fd4565b611554565b61021a61157e565b61023b61041b3660046121d1565b611653565b61043361042e366004611fd4565b611806565b6040516101fe93929190612206565b61023b610450366004612147565b61193b565b61023b610463366004611c6e565b611a71565b61023b610476366004611fd4565b611aea565b600080805b6001548110156104dc57836001600160a01b0316600182815481106104a7576104a761223e565b6000918252602090912001546001600160a01b0316036104ca57600191506104dc565b806104d48161226a565b915050610480565b5092915050565b60008281526009602090815260408083208484529091529020545b92915050565b3360009081526006602052604090206002015461053c5760405162461bcd60e51b815260040161053390612283565b60405180910390fd5b8151835114801561054e575080518351145b61056a5760405162461bcd60e51b8152600401610533906122d2565b600061057461157e565b905060005b84518110156107545760008582815181106105965761059661223e565b6020026020010151905060008583815181106105b4576105b461223e565b6020026020010151905060008584815181106105d2576105d261223e565b6020026020010151905060076000828152602001908152602001600020600101546000036106125760405162461bcd60e51b815260040161053390612309565b600060001986836004546001610628919061234f565b60408051602081019490945283019190915260608201526080016040516020818303038152906040528051906020012060001c6106659190612362565b60408051606081018252868152602080820187905260008284018190528481526008909152919091208151929350909181906106a1908261240c565b50602082015160018201906106b6908261240c565b50604091820151600291909101805460ff1916911515919091179055600087815260096020908152828220858352905290812082905560048054916106fa8361226a565b9190505550807fea6f5ccf0b60c8dbc11ec3a5ec4e4aca66b94ef909319e0610e869a5a6ae7fac8585898660405161073594939291906124cc565b60405180910390a250505050808061074c9061226a565b915050610579565b5050505050565b610763611b5a565b81518351148015610775575080518351145b6107915760405162461bcd60e51b8152600401610533906122d2565b60005b83518110156109275760008482815181106107b1576107b161223e565b6020026020010151905060008483815181106107cf576107cf61223e565b6020026020010151905060008484815181106107ed576107ed61223e565b602090810291909101810151604080516060810182526001600160a01b0386811682528185018481528284018990526000898152600590965292909420815181546001600160a01b0319169516949094178455905191935091906001820190610856908261240c565b506040918201516002909101556000848152600560209081528282206001600160a01b038087168452600690925292909120825481546001600160a01b03191692169190911781556001808201906108b090840182612505565b50600291820154910155600380549060006108ca8361226a565b9190505550816001600160a01b0316837fdc1e73d079344d1e85a82a0b8774d8c7d9c194542b8061b78db50b702833428b8360405161090991906125d8565b60405180910390a3505050808061091f9061226a565b915050610794565b50505050565b600560205260009081526040902080546001820180546001600160a01b03909216929161095990612384565b80601f016020809104026020016040519081016040528092919081815260200182805461098590612384565b80156109d25780601f106109a7576101008083540402835291602001916109d2565b820191906000526020600020905b8154815290600101906020018083116109b557829003601f168201915b5050505050908060020154905083565b6007602052600090815260409020805481906109fd90612384565b80601f0160208091040260200160405190810160405280929190818152602001828054610a2990612384565b8015610a765780601f10610a4b57610100808354040283529160200191610a76565b820191906000526020600020905b815481529060010190602001808311610a5957829003601f168201915b5050505050908060010154905082565b606060008060076000858152602001908152602001600020604051806040016040529081600082018054610ab990612384565b80601f0160208091040260200160405190810160405280929190818152602001828054610ae590612384565b8015610b325780601f10610b0757610100808354040283529160200191610b32565b820191906000526020600020905b815481529060010190602001808311610b1557829003601f168201915b5050509183525050600191909101546020918201528151910151909590945092505050565b610b5f611b5a565b60005b8251811015610e42576000838281518110610b7f57610b7f61223e565b602002602001015190506000838381518110610b9d57610b9d61223e565b6020026020010151905060006001600160a01b0316826001600160a01b031603610bfb5760405162461bcd60e51b815260206004820152600f60248201526e496e76616c6964206164647265737360881b6044820152606401610533565b6001600160a01b038116610d4a5760005b600154811015610d4457826001600160a01b031660018281548110610c3357610c3361223e565b6000918252602090912001546001600160a01b031603610d325760018054610c5c9082906125eb565b81548110610c6c57610c6c61223e565b600091825260209091200154600180546001600160a01b039092169183908110610c9857610c9861223e565b9060005260206000200160006101000a8154816001600160a01b0302191690836001600160a01b031602179055506001805480610cd757610cd76125fe565b600082815260208120820160001990810180546001600160a01b03191690559091019091556040516001600160a01b038516917f44a3cd4eb5cc5748f6169df057b1cb2ae4c383e87cd94663c430e095d4cba42491a2610d44565b80610d3c8161226a565b915050610c0c565b50610e2d565b8351855114610d6b5760405162461bcd60e51b8152600401610533906122d2565b60005b600154811015610e2b57826001600160a01b031660018281548110610d9557610d9561223e565b6000918252602090912001546001600160a01b031603610e19578160018281548110610dc357610dc361223e565b6000918252602082200180546001600160a01b0319166001600160a01b03938416179055604051848316928616917f50d741fe04ad9863c69d1406658f6ec7c4f5e48ec2faf966a36a3e47fc05c9d991a3610e2b565b80610e238161226a565b915050610d6e565b505b50508080610e3a9061226a565b915050610b62565b505050565b610e503361047b565b610e6c5760405162461bcd60e51b815260040161053390612283565b8051825114610e8d5760405162461bcd60e51b8152600401610533906122d2565b60005b8251811015610e42576000838281518110610ead57610ead61223e565b602002602001015190506000838381518110610ecb57610ecb61223e565b6020908102919091018101516040805180820182528281528084018690526000868152600790945292208251919350908190610f07908261240c565b5060208201518160010155905050817fe83b2a43e7e82d975c8a0a6d2f045153c869e111136a34d1889ab7b598e396a382604051610f4591906125d8565b60405180910390a250508080610f5a9061226a565b915050610e90565b60008181526005602090815260408083208151606081810190935281546001600160a01b03168152600182018054939486948594929184019190610fa590612384565b80601f0160208091040260200160405190810160405280929190818152602001828054610fd190612384565b801561101e5780601f10610ff35761010080835404028352916020019161101e565b820191906000526020600020905b81548152906001019060200180831161100157829003601f168201915b5050509183525050600291909101546020918201528151908201516040909201519097919650945092505050565b611054611b5a565b60008151116110a55760405162461bcd60e51b815260206004820152601760248201527f4e6f20636f6d70616e79204944732070726f76696465640000000000000000006044820152606401610533565b60005b81518110156111c85760008282815181106110c5576110c561223e565b6020026020010151905060056000828152602001908152602001600020600201546000036111415760405162461bcd60e51b8152602060048201526024808201527f436f6d70616e79207769746820676976656e20494420646f6573206e6f7420656044820152631e1a5cdd60e21b6064820152608401610533565b600081815260056020526040812080546001600160a01b03191681559061116b6001830182611c04565b506000600291909101819055600380549161118583612614565b909155505060405181907f028fe2791b514c47642f0d652f7c237752aea1929ed16396ef24b45eb7e2b31590600090a250806111c08161226a565b9150506110a8565b5050565b600660205260009081526040902080546001820180546001600160a01b03909216929161095990612384565b611200611b5a565b61120a6000611bb4565b565b6112153361047b565b6112315760405162461bcd60e51b815260040161053390612283565b60005b81518110156111c85760008282815181106112515761125161223e565b6020908102919091018101516000818152600890925260409091206002015490915060ff16156112d65760405162461bcd60e51b815260206004820152602a60248201527f446f63756d656e74207769746820676976656e20494420697320616c726561646044820152691e481d995c9a599a595960b21b6064820152608401610533565b600081815260086020526040808220600201805460ff191660011790555182917f4b93fd5160fbc8b35d08aff650902cf41c86e6df325a3eabab5bcca811976cf791a250806113248161226a565b915050611234565b6060600180548060200260200160405190810160405280929190818152602001828054801561138457602002820191906000526020600020905b81546001600160a01b03168152600190910190602001808311611366575b5050505050905090565b336000908152600660205260409020600201546113bd5760405162461bcd60e51b815260040161053390612283565b60006113c761157e565b905060005b8251811015610e425760008382815181106113e9576113e961223e565b6020026020010151905060076000828152602001908152602001600020600101546000036114295760405162461bcd60e51b815260040161053390612309565b6000838152600960209081526040808320848452909152812054908190036114b15760405162461bcd60e51b815260206004820152603560248201527f4e6f20646f63756d656e7420666f756e6420666f722074686520676976656e2060448201527463616e64696461746520616e6420636f6d70616e7960581b6064820152608401610533565b6000818152600860205260408120906114ca8282611c04565b6114d8600183016000611c04565b50600201805460ff19169055600084815260096020908152604080832085845282528083209290925581518381529081018490529081018590527fcefed05bf9cf6c25889c16d2d30733104edfd4536eb965a70e933dda18ef326e9060600160405180910390a15050808061154c9061226a565b9150506113cc565b6001818154811061156457600080fd5b6000918252602090912001546001600160a01b0316905081565b33600090815260066020908152604080832081516060810190925280546001600160a01b031682526001810180548594840191906115bb90612384565b80601f01602080910402602001604051908101604052809291908181526020018280546115e790612384565b80156116345780601f1061160957610100808354040283529160200191611634565b820191906000526020600020905b81548152906001019060200180831161161757829003601f168201915b5050509183525050600291909101546020909101526040015192915050565b61165b611b5a565b60008151116116a25760405162461bcd60e51b8152602060048201526013602482015272139bc81d995c9a599a595c9cc81d1bc8185919606a1b6044820152606401610533565b60005b81518110156111c85760008282815181106116c2576116c261223e565b6020026020010151905060006001600160a01b0316816001600160a01b0316036117205760405162461bcd60e51b815260206004820152600f60248201526e496e76616c6964206164647265737360881b6044820152606401610533565b6002546001541061177f5760405162461bcd60e51b815260206004820152602360248201527f4d6178696d756d206e756d626572206f662076657269666965727320726561636044820152621a195960ea1b6064820152608401610533565b60018054808201825560009182527fb10e2d527612073b26eecdfd717e6a320cf44b4afac2b0732d9fcbe2b7fa0cf60180546001600160a01b0319166001600160a01b03841690811790915560405190917f6d05492139c5ea989514a5d2150c028041e5c087e2a39967f67dc7d2655adb8191a250806117fe8161226a565b9150506116a5565b60086020526000908152604090208054819061182190612384565b80601f016020809104026020016040519081016040528092919081815260200182805461184d90612384565b801561189a5780601f1061186f5761010080835404028352916020019161189a565b820191906000526020600020905b81548152906001019060200180831161187d57829003601f168201915b5050505050908060010180546118af90612384565b80601f01602080910402602001604051908101604052809291908181526020018280546118db90612384565b80156119285780601f106118fd57610100808354040283529160200191611928565b820191906000526020600020905b81548152906001019060200180831161190b57829003601f168201915b5050506002909301549192505060ff1683565b6119443361047b565b6119605760405162461bcd60e51b815260040161053390612283565b60008151116119b15760405162461bcd60e51b815260206004820152601960248201527f4e6f2063616e646964617465204944732070726f7669646564000000000000006044820152606401610533565b60005b81518110156111c85760008282815181106119d1576119d161223e565b602002602001015190506007600082815260200190815260200160002060010154600003611a115760405162461bcd60e51b815260040161053390612309565b600081815260076020526040812090611a2a8282611c04565b50600060019190910181905560405182917f294c5a9bc8a39e6e06502bc8da429980f6c7b0990d75b682c12cb8705e3ace8591a25080611a698161226a565b9150506119b4565b611a79611b5a565b6001600160a01b038116611ade5760405162461bcd60e51b815260206004820152602660248201527f4f776e61626c653a206e6577206f776e657220697320746865207a65726f206160448201526564647265737360d01b6064820152608401610533565b611ae781611bb4565b50565b611af2611b5a565b60008111611b555760405162461bcd60e51b815260206004820152602a60248201527f4d6178696d756d207665726966696572732073686f756c6420626520677265616044820152690746572207468616e20360b41b6064820152608401610533565b600255565b6000546001600160a01b0316331461120a5760405162461bcd60e51b815260206004820181905260248201527f4f776e61626c653a2063616c6c6572206973206e6f7420746865206f776e65726044820152606401610533565b600080546001600160a01b038381166001600160a01b0319831681178455604051919092169283917f8be0079c531659141344cd1fd0a4f28419497f9722a3daafe3b4186f6b6457e09190a35050565b508054611c1090612384565b6000825580601f10611c20575050565b601f016020900490600052602060002090810190611ae791905b80821115611c4e5760008155600101611c3a565b5090565b80356001600160a01b0381168114611c6957600080fd5b919050565b600060208284031215611c8057600080fd5b611c8982611c52565b9392505050565b60008060408385031215611ca357600080fd5b50508035926020909101359150565b634e487b7160e01b600052604160045260246000fd5b604051601f8201601f1916810167ffffffffffffffff81118282101715611cf157611cf1611cb2565b604052919050565b600067ffffffffffffffff821115611d1357611d13611cb2565b5060051b60200190565b6000601f8381840112611d2f57600080fd5b82356020611d44611d3f83611cf9565b611cc8565b82815260059290921b85018101918181019087841115611d6357600080fd5b8287015b84811015611dfa57803567ffffffffffffffff80821115611d885760008081fd5b818a0191508a603f830112611d9d5760008081fd5b85820135604082821115611db357611db3611cb2565b611dc4828b01601f19168901611cc8565b92508183528c81838601011115611ddb5760008081fd5b8181850189850137506000908201870152845250918301918301611d67565b50979650505050505050565b600082601f830112611e1757600080fd5b81356020611e27611d3f83611cf9565b82815260059290921b84018101918181019086841115611e4657600080fd5b8286015b84811015611e615780358352918301918301611e4a565b509695505050505050565b600080600060608486031215611e8157600080fd5b833567ffffffffffffffff80821115611e9957600080fd5b611ea587838801611d1d565b94506020860135915080821115611ebb57600080fd5b611ec787838801611d1d565b93506040860135915080821115611edd57600080fd5b50611eea86828701611e06565b9150509250925092565b600082601f830112611f0557600080fd5b81356020611f15611d3f83611cf9565b82815260059290921b84018101918181019086841115611f3457600080fd5b8286015b84811015611e6157611f4981611c52565b8352918301918301611f38565b600080600060608486031215611f6b57600080fd5b833567ffffffffffffffff80821115611f8357600080fd5b611f8f87838801611e06565b94506020860135915080821115611fa557600080fd5b611fb187838801611ef4565b93506040860135915080821115611fc757600080fd5b50611eea86828701611d1d565b600060208284031215611fe657600080fd5b5035919050565b6000815180845260005b8181101561201357602081850181015186830182015201611ff7565b506000602082860101526020601f19601f83011685010191505092915050565b6001600160a01b038416815260606020820181905260009061205790830185611fed565b9050826040830152949350505050565b60408152600061207a6040830185611fed565b90508260208301529392505050565b6000806040838503121561209c57600080fd5b823567ffffffffffffffff808211156120b457600080fd5b6120c086838701611ef4565b935060208501359150808211156120d657600080fd5b506120e385828601611ef4565b9150509250929050565b6000806040838503121561210057600080fd5b823567ffffffffffffffff8082111561211857600080fd5b61212486838701611e06565b9350602085013591508082111561213a57600080fd5b506120e385828601611d1d565b60006020828403121561215957600080fd5b813567ffffffffffffffff81111561217057600080fd5b61217c84828501611e06565b949350505050565b6020808252825182820181905260009190848201906040850190845b818110156121c55783516001600160a01b0316835292840192918401916001016121a0565b50909695505050505050565b6000602082840312156121e357600080fd5b813567ffffffffffffffff8111156121fa57600080fd5b61217c84828501611ef4565b6060815260006122196060830186611fed565b828103602084015261222b8186611fed565b9150508215156040830152949350505050565b634e487b7160e01b600052603260045260246000fd5b634e487b7160e01b600052601160045260246000fd5b60006001820161227c5761227c612254565b5060010190565b6020808252602f908201527f53656e646572206973206e6f742061207265676973746572656420616e64207660408201526e6572696669656420636f6d70616e7960881b606082015260800190565b60208082526018908201527f4d69736d61746368656420696e707574206c656e677468730000000000000000604082015260600190565b60208082526026908201527f43616e646964617465207769746820676976656e20494420646f6573206e6f7460408201526508195e1a5cdd60d21b606082015260800190565b808201808211156104fe576104fe612254565b60008261237f57634e487b7160e01b600052601260045260246000fd5b500690565b600181811c9082168061239857607f821691505b6020821081036123b857634e487b7160e01b600052602260045260246000fd5b50919050565b601f821115610e4257600081815260208120601f850160051c810160208610156123e55750805b601f850160051c820191505b81811015612404578281556001016123f1565b505050505050565b815167ffffffffffffffff81111561242657612426611cb2565b61243a816124348454612384565b846123be565b602080601f83116001811461246f57600084156124575750858301515b600019600386901b1c1916600185901b178555612404565b600085815260208120601f198616915b8281101561249e5788860151825594840194600190910190840161247f565b50858210156124bc5787850151600019600388901b60f8161c191681555b5050505050600190811b01905550565b6080815260006124df6080830187611fed565b82810360208401526124f18187611fed565b604084019590955250506060015292915050565b818103612510575050565b61251a8254612384565b67ffffffffffffffff81111561253257612532611cb2565b612540816124348454612384565b6000601f821160018114612574576000831561255c5750848201545b600019600385901b1c1916600184901b178455610754565b600085815260209020601f19841690600086815260209020845b838110156125ae578286015482556001958601959091019060200161258e565b50858310156124bc5793015460001960f8600387901b161c19169092555050600190811b01905550565b602081526000611c896020830184611fed565b818103818111156104fe576104fe612254565b634e487b7160e01b600052603160045260246000fd5b60008161262357612623612254565b50600019019056fea26469706673582212206ea9d072edfa5ff729708e239a0d8ad7196e9a8ff6f190af51cbfff8aeff2c4e64736f6c63430008140033",
  "linkReferences": {},
  "deployedLinkReferences": {}
}