{
  "_format": "hh-sol-artifact-1",
  "contractName": "Verification",
  "sourceName": "src/contracts/Verification.sol",
  "abi": [
    {
      "anonymous": false,
      "inputs": [
        {
          "indexed": true,
          "internalType": "uint256",
          "name": "id",
          "type": "uint256"
        },
        {
          "indexed": false,
          "internalType": "string",
          "name": "name",
          "type": "string"
        },
        {
          "indexed": false,
          "internalType": "uint256",
          "name": "date",
          "type": "uint256"
        },
        {
          "indexed": false,
          "internalType": "string",
          "name": "location",
          "type": "string"
        },
        {
          "indexed": false,
          "internalType": "string",
          "name": "email",
          "type": "string"
        },
        {
          "indexed": false,
          "internalType": "string",
          "name": "phoneNumber",
          "type": "string"
        }
      ],
      "name": "CandidateAdded",
      "type": "event"
    },
    {
      "anonymous": false,
      "inputs": [
        {
          "indexed": true,
          "internalType": "uint256",
          "name": "id",
          "type": "uint256"
        },
        {
          "indexed": false,
          "internalType": "address",
          "name": "newCurrentCompany",
          "type": "address"
        }
      ],
      "name": "CandidateCurrentCompanyEdited",
      "type": "event"
    },
    {
      "anonymous": false,
      "inputs": [
        {
          "indexed": true,
          "internalType": "uint256",
          "name": "id",
          "type": "uint256"
        },
        {
          "indexed": false,
          "internalType": "string",
          "name": "name",
          "type": "string"
        },
        {
          "indexed": false,
          "internalType": "uint256",
          "name": "date",
          "type": "uint256"
        },
        {
          "indexed": false,
          "internalType": "string",
          "name": "location",
          "type": "string"
        },
        {
          "indexed": false,
          "internalType": "string",
          "name": "email",
          "type": "string"
        },
        {
          "indexed": false,
          "internalType": "string",
          "name": "phoneNumber",
          "type": "string"
        }
      ],
      "name": "CandidateEdited",
      "type": "event"
    },
    {
      "anonymous": false,
      "inputs": [
        {
          "indexed": true,
          "internalType": "uint256",
          "name": "id",
          "type": "uint256"
        }
      ],
      "name": "CandidateRemoved",
      "type": "event"
    },
    {
      "anonymous": false,
      "inputs": [
        {
          "indexed": true,
          "internalType": "uint256",
          "name": "id",
          "type": "uint256"
        },
        {
          "indexed": true,
          "internalType": "address",
          "name": "companyAddress",
          "type": "address"
        },
        {
          "indexed": false,
          "internalType": "string",
          "name": "name",
          "type": "string"
        },
        {
          "indexed": false,
          "internalType": "uint256",
          "name": "date",
          "type": "uint256"
        },
        {
          "indexed": false,
          "internalType": "string",
          "name": "location",
          "type": "string"
        },
        {
          "indexed": false,
          "internalType": "string",
          "name": "phoneNumber",
          "type": "string"
        },
        {
          "indexed": false,
          "internalType": "string",
          "name": "licenseNumber",
          "type": "string"
        },
        {
          "indexed": false,
          "internalType": "string",
          "name": "email",
          "type": "string"
        }
      ],
      "name": "CompanyAdded",
      "type": "event"
    },
    {
      "anonymous": false,
      "inputs": [
        {
          "indexed": true,
          "internalType": "uint256",
          "name": "id",
          "type": "uint256"
        }
      ],
      "name": "CompanyRemoved",
      "type": "event"
    },
    {
      "anonymous": false,
      "inputs": [
        {
          "indexed": true,
          "internalType": "uint256",
          "name": "id",
          "type": "uint256"
        },
        {
          "indexed": false,
          "internalType": "string",
          "name": "name",
          "type": "string"
        },
        {
          "indexed": false,
          "internalType": "string",
          "name": "cid",
          "type": "string"
        },
        {
          "indexed": false,
          "internalType": "uint256",
          "name": "candidateId",
          "type": "uint256"
        },
        {
          "indexed": false,
          "internalType": "uint256",
          "name": "date",
          "type": "uint256"
        },
        {
          "indexed": false,
          "internalType": "string",
          "name": "typeOfDocument",
          "type": "string"
        },
        {
          "indexed": false,
          "internalType": "string",
          "name": "expirationDate",
          "type": "string"
        }
      ],
      "name": "DocumentAdded",
      "type": "event"
    },
    {
      "anonymous": false,
      "inputs": [
        {
          "indexed": true,
          "internalType": "uint256",
          "name": "id",
          "type": "uint256"
        }
      ],
      "name": "DocumentCancelled",
      "type": "event"
    },
    {
      "anonymous": false,
      "inputs": [
        {
          "indexed": false,
          "internalType": "uint256",
          "name": "documentId",
          "type": "uint256"
        },
        {
          "indexed": false,
          "internalType": "uint256",
          "name": "candidateId",
          "type": "uint256"
        }
      ],
      "name": "DocumentRemoved",
      "type": "event"
    },
    {
      "anonymous": false,
      "inputs": [
        {
          "indexed": true,
          "internalType": "uint256",
          "name": "id",
          "type": "uint256"
        }
      ],
      "name": "DocumentVerified",
      "type": "event"
    },
    {
      "anonymous": false,
      "inputs": [
        {
          "indexed": true,
          "internalType": "address",
          "name": "previousOwner",
          "type": "address"
        },
        {
          "indexed": true,
          "internalType": "address",
          "name": "newOwner",
          "type": "address"
        }
      ],
      "name": "OwnershipTransferred",
      "type": "event"
    },
    {
      "anonymous": false,
      "inputs": [
        {
          "indexed": true,
          "internalType": "address",
          "name": "verifier",
          "type": "address"
        }
      ],
      "name": "VerifierAdded",
      "type": "event"
    },
    {
      "anonymous": false,
      "inputs": [
        {
          "indexed": true,
          "internalType": "address",
          "name": "verifier",
          "type": "address"
        }
      ],
      "name": "VerifierRemoved",
      "type": "event"
    },
    {
      "anonymous": false,
      "inputs": [
        {
          "indexed": true,
          "internalType": "address",
          "name": "oldVerifier",
          "type": "address"
        },
        {
          "indexed": true,
          "internalType": "address",
          "name": "newVerifier",
          "type": "address"
        }
      ],
      "name": "VerifierReplaced",
      "type": "event"
    },
    {
      "inputs": [
        {
          "internalType": "uint256",
          "name": "",
          "type": "uint256"
        },
        {
          "internalType": "uint256",
          "name": "",
          "type": "uint256"
        }
      ],
      "name": "CandidateDocuments",
      "outputs": [
        {
          "internalType": "uint256",
          "name": "date",
          "type": "uint256"
        },
        {
          "internalType": "string",
          "name": "name",
          "type": "string"
        },
        {
          "internalType": "uint256",
          "name": "id",
          "type": "uint256"
        },
        {
          "internalType": "string",
          "name": "cid",
          "type": "string"
        },
        {
          "internalType": "string",
          "name": "typeOfDocument",
          "type": "string"
        },
        {
          "internalType": "string",
          "name": "expirationDate",
          "type": "string"
        },
        {
          "internalType": "bool",
          "name": "isVerified",
          "type": "bool"
        },
        {
          "internalType": "bool",
          "name": "isCancelled",
          "type": "bool"
        },
        {
          "internalType": "uint256",
          "name": "candidateId",
          "type": "uint256"
        }
      ],
      "stateMutability": "view",
      "type": "function"
    },
    {
      "inputs": [
        {
          "internalType": "address[]",
          "name": "_addresses",
          "type": "address[]"
        },
        {
          "internalType": "string[]",
          "name": "_names",
          "type": "string[]"
        },
        {
          "internalType": "string[]",
          "name": "_locations",
          "type": "string[]"
        },
        {
          "internalType": "string[]",
          "name": "_emails",
          "type": "string[]"
        },
        {
          "internalType": "string[]",
          "name": "_phoneNumbers",
          "type": "string[]"
        }
      ],
      "name": "addCandidates",
      "outputs": [],
      "stateMutability": "nonpayable",
      "type": "function"
    },
    {
      "inputs": [
        {
          "internalType": "address[]",
          "name": "_addresses",
          "type": "address[]"
        },
        {
          "internalType": "string[]",
          "name": "_names",
          "type": "string[]"
        },
        {
          "internalType": "string[]",
          "name": "_locations",
          "type": "string[]"
        },
        {
          "internalType": "string[]",
          "name": "_phoneNumbers",
          "type": "string[]"
        },
        {
          "internalType": "string[]",
          "name": "_licenseNumbers",
          "type": "string[]"
        },
        {
          "internalType": "string[]",
          "name": "_emails",
          "type": "string[]"
        }
      ],
      "name": "addCompanies",
      "outputs": [],
      "stateMutability": "nonpayable",
      "type": "function"
    },
    {
      "inputs": [
        {
          "internalType": "string[]",
          "name": "_names",
          "type": "string[]"
        },
        {
          "internalType": "string[]",
          "name": "_cids",
          "type": "string[]"
        },
        {
          "internalType": "uint256[]",
          "name": "_candidateIds",
          "type": "uint256[]"
        },
        {
          "internalType": "string[]",
          "name": "_typesOfDocument",
          "type": "string[]"
        },
        {
          "internalType": "string[]",
          "name": "_expirationDates",
          "type": "string[]"
        }
      ],
      "name": "addDocuments",
      "outputs": [],
      "stateMutability": "nonpayable",
      "type": "function"
    },
    {
      "inputs": [
        {
          "internalType": "address[]",
          "name": "_verifiers",
          "type": "address[]"
        }
      ],
      "name": "addVerifiers",
      "outputs": [],
      "stateMutability": "nonpayable",
      "type": "function"
    },
    {
      "inputs": [
        {
          "internalType": "address",
          "name": "",
          "type": "address"
        }
      ],
      "name": "candidateAddress",
      "outputs": [
        {
          "internalType": "uint256",
          "name": "",
          "type": "uint256"
        }
      ],
      "stateMutability": "view",
      "type": "function"
    },
    {
      "inputs": [
        {
          "internalType": "uint256",
          "name": "",
          "type": "uint256"
        }
      ],
      "name": "candidates",
      "outputs": [
        {
          "internalType": "uint256",
          "name": "date",
          "type": "uint256"
        },
        {
          "internalType": "address",
          "name": "address_",
          "type": "address"
        },
        {
          "internalType": "address",
          "name": "currentCompany",
          "type": "address"
        },
        {
          "internalType": "string",
          "name": "name",
          "type": "string"
        },
        {
          "internalType": "uint256",
          "name": "Id",
          "type": "uint256"
        },
        {
          "internalType": "string",
          "name": "location",
          "type": "string"
        },
        {
          "internalType": "string",
          "name": "email",
          "type": "string"
        },
        {
          "internalType": "string",
          "name": "phoneNumber",
          "type": "string"
        }
      ],
      "stateMutability": "view",
      "type": "function"
    },
    {
      "inputs": [
        {
          "internalType": "uint256",
          "name": "",
          "type": "uint256"
        }
      ],
      "name": "companies",
      "outputs": [
        {
          "internalType": "uint256",
          "name": "date",
          "type": "uint256"
        },
        {
          "internalType": "address",
          "name": "address_",
          "type": "address"
        },
        {
          "internalType": "string",
          "name": "name",
          "type": "string"
        },
        {
          "internalType": "uint256",
          "name": "Id",
          "type": "uint256"
        },
        {
          "internalType": "string",
          "name": "location",
          "type": "string"
        },
        {
          "internalType": "string",
          "name": "phoneNumber",
          "type": "string"
        },
        {
          "internalType": "string",
          "name": "licenseNumber",
          "type": "string"
        },
        {
          "internalType": "string",
          "name": "email",
          "type": "string"
        }
      ],
      "stateMutability": "view",
      "type": "function"
    },
    {
      "inputs": [
        {
          "internalType": "address",
          "name": "",
          "type": "address"
        }
      ],
      "name": "companyAddress",
      "outputs": [
        {
          "internalType": "uint256",
          "name": "",
          "type": "uint256"
        }
      ],
      "stateMutability": "view",
      "type": "function"
    },
    {
      "inputs": [
        {
          "internalType": "uint256",
          "name": "",
          "type": "uint256"
        }
      ],
      "name": "documents",
      "outputs": [
        {
          "internalType": "uint256",
          "name": "date",
          "type": "uint256"
        },
        {
          "internalType": "string",
          "name": "name",
          "type": "string"
        },
        {
          "internalType": "uint256",
          "name": "id",
          "type": "uint256"
        },
        {
          "internalType": "string",
          "name": "cid",
          "type": "string"
        },
        {
          "internalType": "string",
          "name": "typeOfDocument",
          "type": "string"
        },
        {
          "internalType": "string",
          "name": "expirationDate",
          "type": "string"
        },
        {
          "internalType": "bool",
          "name": "isVerified",
          "type": "bool"
        },
        {
          "internalType": "bool",
          "name": "isCancelled",
          "type": "bool"
        },
        {
          "internalType": "uint256",
          "name": "candidateId",
          "type": "uint256"
        }
      ],
      "stateMutability": "view",
      "type": "function"
    },
    {
      "inputs": [
        {
          "internalType": "uint256",
          "name": "_id",
          "type": "uint256"
        },
        {
          "internalType": "string",
          "name": "_name",
          "type": "string"
        },
        {
          "internalType": "string",
          "name": "_location",
          "type": "string"
        },
        {
          "internalType": "string",
          "name": "_email",
          "type": "string"
        },
        {
          "internalType": "string",
          "name": "_phoneNumber",
          "type": "string"
        }
      ],
      "name": "editCandidate",
      "outputs": [],
      "stateMutability": "nonpayable",
      "type": "function"
    },
    {
      "inputs": [
        {
          "internalType": "uint256",
          "name": "_id",
          "type": "uint256"
        },
        {
          "internalType": "address",
          "name": "_newCurrentCompany",
          "type": "address"
        }
      ],
      "name": "editCandidateCurrentCompany",
      "outputs": [],
      "stateMutability": "nonpayable",
      "type": "function"
    },
    {
      "inputs": [
        {
          "internalType": "uint256",
          "name": "_id",
          "type": "uint256"
        }
      ],
      "name": "getCandidate",
      "outputs": [
        {
          "internalType": "string",
          "name": "",
          "type": "string"
        },
        {
          "internalType": "uint256",
          "name": "",
          "type": "uint256"
        },
        {
          "internalType": "string",
          "name": "",
          "type": "string"
        },
        {
          "internalType": "string",
          "name": "",
          "type": "string"
        },
        {
          "internalType": "string",
          "name": "",
          "type": "string"
        }
      ],
      "stateMutability": "view",
      "type": "function"
    },
    {
      "inputs": [
        {
          "internalType": "uint256",
          "name": "_id",
          "type": "uint256"
        }
      ],
      "name": "getCompany",
      "outputs": [
        {
          "internalType": "address",
          "name": "",
          "type": "address"
        },
        {
          "internalType": "string",
          "name": "",
          "type": "string"
        },
        {
          "internalType": "uint256",
          "name": "",
          "type": "uint256"
        },
        {
          "internalType": "string",
          "name": "",
          "type": "string"
        },
        {
          "internalType": "string",
          "name": "",
          "type": "string"
        },
        {
          "internalType": "string",
          "name": "",
          "type": "string"
        },
        {
          "internalType": "string",
          "name": "",
          "type": "string"
        },
        {
          "internalType": "uint256",
          "name": "",
          "type": "uint256"
        }
      ],
      "stateMutability": "view",
      "type": "function"
    },
    {
      "inputs": [],
      "name": "getCompanyIdOfSender",
      "outputs": [
        {
          "internalType": "uint256",
          "name": "",
          "type": "uint256"
        }
      ],
      "stateMutability": "view",
      "type": "function"
    },
    {
      "inputs": [],
      "name": "getOwner",
      "outputs": [
        {
          "internalType": "address",
          "name": "",
          "type": "address"
        }
      ],
      "stateMutability": "view",
      "type": "function"
    },
    {
      "inputs": [],
      "name": "getVerifiers",
      "outputs": [
        {
          "internalType": "address[]",
          "name": "",
          "type": "address[]"
        }
      ],
      "stateMutability": "view",
      "type": "function"
    },
    {
      "inputs": [],
      "name": "maxVerifiers",
      "outputs": [
        {
          "internalType": "uint256",
          "name": "",
          "type": "uint256"
        }
      ],
      "stateMutability": "view",
      "type": "function"
    },
    {
      "inputs": [],
      "name": "numCandidates",
      "outputs": [
        {
          "internalType": "uint256",
          "name": "",
          "type": "uint256"
        }
      ],
      "stateMutability": "view",
      "type": "function"
    },
    {
      "inputs": [],
      "name": "numCompanies",
      "outputs": [
        {
          "internalType": "uint256",
          "name": "",
          "type": "uint256"
        }
      ],
      "stateMutability": "view",
      "type": "function"
    },
    {
      "inputs": [],
      "name": "numDocuments",
      "outputs": [
        {
          "internalType": "uint256",
          "name": "",
          "type": "uint256"
        }
      ],
      "stateMutability": "view",
      "type": "function"
    },
    {
      "inputs": [],
      "name": "owner",
      "outputs": [
        {
          "internalType": "address",
          "name": "",
          "type": "address"
        }
      ],
      "stateMutability": "view",
      "type": "function"
    },
    {
      "inputs": [
        {
          "internalType": "uint256[]",
          "name": "_ids",
          "type": "uint256[]"
        }
      ],
      "name": "removeCompanies",
      "outputs": [],
      "stateMutability": "nonpayable",
      "type": "function"
    },
    {
      "inputs": [],
      "name": "renounceOwnership",
      "outputs": [],
      "stateMutability": "nonpayable",
      "type": "function"
    },
    {
      "inputs": [
        {
          "internalType": "address[]",
          "name": "_oldVerifiers",
          "type": "address[]"
        },
        {
          "internalType": "address[]",
          "name": "_newVerifiers",
          "type": "address[]"
        }
      ],
      "name": "replaceVerifiers",
      "outputs": [],
      "stateMutability": "nonpayable",
      "type": "function"
    },
    {
      "inputs": [
        {
          "internalType": "uint256",
          "name": "_maxVerifiers",
          "type": "uint256"
        }
      ],
      "name": "setMaxVerifiers",
      "outputs": [],
      "stateMutability": "nonpayable",
      "type": "function"
    },
    {
      "inputs": [
        {
          "internalType": "address",
          "name": "newOwner",
          "type": "address"
        }
      ],
      "name": "transferOwnership",
      "outputs": [],
      "stateMutability": "nonpayable",
      "type": "function"
    },
    {
      "inputs": [
        {
          "internalType": "uint256",
          "name": "",
          "type": "uint256"
        }
      ],
      "name": "verifiers",
      "outputs": [
        {
          "internalType": "address",
          "name": "",
          "type": "address"
        }
      ],
      "stateMutability": "view",
      "type": "function"
    },
    {
      "inputs": [
        {
          "internalType": "uint256[]",
          "name": "_candidateIds",
          "type": "uint256[]"
        },
        {
          "internalType": "uint256[]",
          "name": "_documentIds",
          "type": "uint256[]"
        },
        {
          "internalType": "bool[]",
          "name": "_isCancelled",
          "type": "bool[]"
        }
      ],
      "name": "verifyDocuments",
      "outputs": [],
      "stateMutability": "nonpayable",
      "type": "function"
    }
  ],
  "bytecode": "0x6080604052600a6002553480156200001657600080fd5b50620000223362000028565b62000078565b600080546001600160a01b038381166001600160a01b0319831681178455604051919092169283917f8be0079c531659141344cd1fd0a4f28419497f9722a3daafe3b4186f6b6457e09190a35050565b61385b80620000886000396000f3fe608060405234801561001057600080fd5b50600436106101cf5760003560e01c8063715018a611610104578063a935e766116100a2578063bfbbf50911610071578063bfbbf50914610425578063c2ed2b0514610438578063f2fde38b1461044b578063fc7435e11461045e57600080fd5b8063a935e766146103d5578063ac1eff68146103ea578063b4d7e8df146103fd578063b53442571461041257600080fd5b8063874fdf2d116100de578063874fdf2d14610376578063893d20e81461037f5780638da5cb5b146103a457806399e37a55146103b557600080fd5b8063715018a61461035257806378bda7501461035a5780637fbc12af1461036357600080fd5b80633762a617116101715780635216509a1161014b5780635216509a146102ef57806357d13917146102f85780635990ce801461031f5780636dd080471461033257600080fd5b80633762a617146102b257806341affd45146102c55780634dc95895146102dc57600080fd5b80631e32f407116101ad5780631e32f4071461022d5780632813d19d146102405780633477ee2e1461026757806335b8e8201461028e57600080fd5b80630bbc73f5146101d4578063187c1ebe146102055780631a203a311461021a575b600080fd5b6101e76101e2366004612a87565b610471565b6040516101fc99989796959493929190612aef565b60405180910390f35b610218610213366004612d53565b6106ea565b005b610218610228366004612e47565b6109ec565b61021861023b366004612ece565b610b94565b61025361024e366004612f9f565b610e82565b6040516101fc989796959493929190612fb8565b61027a610275366004612f9f565b611175565b6040516101fc989796959493929190613048565b6102a161029c366004612f9f565b611245565b6040516101fc959493929190613095565b6102186102c03660046130f4565b611519565b6102ce60045481565b6040519081526020016101fc565b6102186102ea3660046131e0565b6117cb565b6102ce60055481565b61030b610306366004612f9f565b611abb565b6040516101fc989796959493929190613243565b61021861032d3660046132d4565b611e4c565b6102ce610340366004613310565b60096020526000908152604090205481565b610218612067565b6102ce60025481565b610218610371366004613332565b61207b565b6102ce60035481565b6000546001600160a01b03165b6040516001600160a01b0390911681526020016101fc565b6000546001600160a01b031661038c565b6102ce6103c3366004613310565b600a6020526000908152604090205481565b6103dd61241d565b6040516101fc91906133b1565b61038c6103f8366004612f9f565b61247f565b336000908152600960205260409020546102ce565b6102186104203660046133fe565b6124a9565b610218610433366004613432565b612669565b6101e7610446366004612f9f565b612810565b610218610459366004613310565b612832565b61021861046c366004612f9f565b6128ab565b600b6020908152600092835260408084209091529082529020805460018201805491929161049e906134db565b80601f01602080910402602001604051908101604052809291908181526020018280546104ca906134db565b80156105175780601f106104ec57610100808354040283529160200191610517565b820191906000526020600020905b8154815290600101906020018083116104fa57829003601f168201915b505050505090806002015490806003018054610532906134db565b80601f016020809104026020016040519081016040528092919081815260200182805461055e906134db565b80156105ab5780601f10610580576101008083540402835291602001916105ab565b820191906000526020600020905b81548152906001019060200180831161058e57829003601f168201915b5050505050908060040180546105c0906134db565b80601f01602080910402602001604051908101604052809291908181526020018280546105ec906134db565b80156106395780601f1061060e57610100808354040283529160200191610639565b820191906000526020600020905b81548152906001019060200180831161061c57829003601f168201915b50505050509080600501805461064e906134db565b80601f016020809104026020016040519081016040528092919081815260200182805461067a906134db565b80156106c75780601f1061069c576101008083540402835291602001916106c7565b820191906000526020600020905b8154815290600101906020018083116106aa57829003601f168201915b505050506006830154600790930154919260ff8082169361010090920416915089565b6106f261291b565b8061070757506000546001600160a01b031633145b61072c5760405162461bcd60e51b815260040161072390613515565b60405180910390fd5b8451865114801561073e575083518651145b801561074b575082518651145b8015610758575081518651145b8015610765575080518651145b6107815760405162461bcd60e51b81526004016107239061354c565b60005b86518110156109e35760008782815181106107a1576107a1613583565b6020026020010151905060008783815181106107bf576107bf613583565b6020026020010151905060008784815181106107dd576107dd613583565b6020026020010151905060008785815181106107fb576107fb613583565b60200260200101519050600087868151811061081957610819613583565b60200260200101519050600087878151811061083757610837613583565b602002602001015190506000600354600161085291906135af565b60408051610100810182524281526001600160a01b038a811660208084019182528385018c815260608501879052608085018c905260a085018b905260c085018a905260e08501899052600087815260069092529490208351815590516001820180546001600160a01b031916919093161790915591519293509160028201906108dc908261360e565b5060608201516003820155608082015160048201906108fb908261360e565b5060a08201516005820190610910908261360e565b5060c08201516006820190610925908261360e565b5060e0820151600782019061093a908261360e565b5050506001600160a01b03871660009081526009602052604081208290556003805491610966836136cd565b9091555050600081815260066020526040908190205490516001600160a01b0389169183917f261da74c4a3cfaa656ac5eaa9eefd94e3c13a0635ace95af2fae2dbf3390cde0916109c1918b91908b908b908b908b906136e6565b60405180910390a35050505050505080806109db906136cd565b915050610784565b50505050505050565b33600090815260096020526040902054610a405760405162461bcd60e51b815260206004820152601560248201527413db9b1e4818dbdb5c185b9e4818d85b8818d85b1b605a1b6044820152606401610723565b6000828152600760205260408120600401549003610a705760405162461bcd60e51b81526004016107239061375a565b6000828152600760205260409020600201546001600160a01b031615610b2d576000828152600760205260409020600201546001600160a01b03163314610b2d5760405162461bcd60e51b8152602060048201526044602482018190527f596f7520646f206e6f742068617665207065726d697373696f6e20746f206564908201527f69742063757272656e74436f6d70616e7920666f7220746869732063616e64696064820152636461746560e01b608482015260a401610723565b60008281526007602090815260409182902060020180546001600160a01b0319166001600160a01b038516908117909155915191825283917f1004bf4098083445cd4ac13954fdcea1d9530a61f6f2a7d5a628bea6141eb17c910160405180910390a25050565b33600090815260096020526040902054610be85760405162461bcd60e51b815260206004820152601560248201527413db9b1e4818dbdb5c185b9e4818d85b8818d85b1b605a1b6044820152606401610723565b83518551148015610bfa575082518551145b610c165760405162461bcd60e51b81526004016107239061354c565b60005b8551811015610e7a576000868281518110610c3657610c36613583565b602002602001015190506000868381518110610c5457610c54613583565b602002602001015190506000868481518110610c7257610c72613583565b602002602001015190506000868581518110610c9057610c90613583565b602002602001015190506000868681518110610cae57610cae613583565b602002602001015190506007600084815260200190815260200160002060040154600003610cee5760405162461bcd60e51b81526004016107239061375a565b60006004546001610cff91906135af565b600480549192506000610d11836136cd565b909155505060408051610120810182524281526020808201898152828401859052606083018990526080830187905260a08301869052600060c0840181905260e08401819052610100840189905285815260089092529290208151815591519091906001820190610d82908261360e565b506040820151600282015560608201516003820190610da1908261360e565b5060808201516004820190610db6908261360e565b5060a08201516005820190610dcb908261360e565b5060c082015160068201805460e085015161ffff1990911692151561ff001916929092176101009215158302179055909101516007909101556000848152600b602090815260408083208484529091529081902054905182917f2e775ddbac99bb2eb4b01ac0458b20344c049821b30b7565cf0cb211d0c9936491610e59918a918a918a918a908a906137a0565b60405180910390a25050505050508080610e72906136cd565b915050610c19565b505050505050565b60066020526000908152604090208054600182015460028301805492936001600160a01b0390921692610eb4906134db565b80601f0160208091040260200160405190810160405280929190818152602001828054610ee0906134db565b8015610f2d5780601f10610f0257610100808354040283529160200191610f2d565b820191906000526020600020905b815481529060010190602001808311610f1057829003601f168201915b505050505090806003015490806004018054610f48906134db565b80601f0160208091040260200160405190810160405280929190818152602001828054610f74906134db565b8015610fc15780601f10610f9657610100808354040283529160200191610fc1565b820191906000526020600020905b815481529060010190602001808311610fa457829003601f168201915b505050505090806005018054610fd6906134db565b80601f0160208091040260200160405190810160405280929190818152602001828054611002906134db565b801561104f5780601f106110245761010080835404028352916020019161104f565b820191906000526020600020905b81548152906001019060200180831161103257829003601f168201915b505050505090806006018054611064906134db565b80601f0160208091040260200160405190810160405280929190818152602001828054611090906134db565b80156110dd5780601f106110b2576101008083540402835291602001916110dd565b820191906000526020600020905b8154815290600101906020018083116110c057829003601f168201915b5050505050908060070180546110f2906134db565b80601f016020809104026020016040519081016040528092919081815260200182805461111e906134db565b801561116b5780601f106111405761010080835404028352916020019161116b565b820191906000526020600020905b81548152906001019060200180831161114e57829003601f168201915b5050505050905088565b600760205260009081526040902080546001820154600283015460038401805493946001600160a01b039384169493909216926111b1906134db565b80601f01602080910402602001604051908101604052809291908181526020018280546111dd906134db565b801561122a5780601f106111ff5761010080835404028352916020019161122a565b820191906000526020600020905b81548152906001019060200180831161120d57829003601f168201915b505050505090806004015490806005018054610fd6906134db565b60008181526007602090815260408083208151610100810183528154815260018201546001600160a01b03908116948201949094526002820154909316918301919091526003810180546060949385938493849387939291838601916112aa906134db565b80601f01602080910402602001604051908101604052809291908181526020018280546112d6906134db565b80156113235780601f106112f857610100808354040283529160200191611323565b820191906000526020600020905b81548152906001019060200180831161130657829003601f168201915b5050505050815260200160048201548152602001600582018054611346906134db565b80601f0160208091040260200160405190810160405280929190818152602001828054611372906134db565b80156113bf5780601f10611394576101008083540402835291602001916113bf565b820191906000526020600020905b8154815290600101906020018083116113a257829003601f168201915b505050505081526020016006820180546113d8906134db565b80601f0160208091040260200160405190810160405280929190818152602001828054611404906134db565b80156114515780601f1061142657610100808354040283529160200191611451565b820191906000526020600020905b81548152906001019060200180831161143457829003601f168201915b5050505050815260200160078201805461146a906134db565b80601f0160208091040260200160405190810160405280929190818152602001828054611496906134db565b80156114e35780601f106114b8576101008083540402835291602001916114e3565b820191906000526020600020905b8154815290600101906020018083116114c657829003601f168201915b505050919092525050506060810151608082015160a083015160c084015160e090940151929b919a509850919650945092505050565b61152161291b565b6115665760405162461bcd60e51b815260206004820152601660248201527513db9b1e481d995c9a599a595c8818d85b8818d85b1b60521b6044820152606401610723565b81518351148015611578575080518351145b6115c45760405162461bcd60e51b815260206004820152601b60248201527f4172726179206c656e67746873206d75737420626520657175616c00000000006044820152606401610723565b60005b83518110156117c55760008482815181106115e4576115e4613583565b60200260200101519050600084838151811061160257611602613583565b60200260200101519050600084848151811061162057611620613583565b6020908102919091018101516000858152600b83526040808220868352909352918220600781015491935091036116ab5760405162461bcd60e51b815260206004820152602960248201527f4e6f20646f63756d656e7420666f756e6420666f722074686520676976656e2060448201526863616e64696461746560b81b6064820152608401610723565b600681015460ff16156117265760405162461bcd60e51b815260206004820152603760248201527f446f63756d656e74207769746820676976656e20494420697320616c7265616460448201527f79207665726966696564206f722063616e63656c6c65640000000000000000006064820152608401610723565b81156117705760068101805461ff00191661010017905560028101546040517f7b4845702fcfeef348208aa5c3ef0909d12e56c50c288cdba03c5462cfd921b590600090a26117ae565b60068101805460ff1916600117905560028101546040517f4b93fd5160fbc8b35d08aff650902cf41c86e6df325a3eabab5bcca811976cf790600090a25b5050505080806117bd906136cd565b9150506115c7565b50505050565b6117d3612926565b80518251146117f45760405162461bcd60e51b81526004016107239061354c565b60005b8251811015611ab657600083828151811061181457611814613583565b60200260200101519050600083838151811061183257611832613583565b6020026020010151905060006001600160a01b0316826001600160a01b0316036118905760405162461bcd60e51b815260206004820152600f60248201526e496e76616c6964206164647265737360881b6044820152606401610723565b6001600160a01b0381166119df5760005b6001548110156119d957826001600160a01b0316600182815481106118c8576118c8613583565b6000918252602090912001546001600160a01b0316036119c757600180546118f19082906137e5565b8154811061190157611901613583565b600091825260209091200154600180546001600160a01b03909216918390811061192d5761192d613583565b9060005260206000200160006101000a8154816001600160a01b0302191690836001600160a01b03160217905550600180548061196c5761196c6137f8565b600082815260208120820160001990810180546001600160a01b03191690559091019091556040516001600160a01b038516917f44a3cd4eb5cc5748f6169df057b1cb2ae4c383e87cd94663c430e095d4cba42491a26119d9565b806119d1816136cd565b9150506118a1565b50611aa1565b60005b600154811015611a9f57826001600160a01b031660018281548110611a0957611a09613583565b6000918252602090912001546001600160a01b031603611a8d578160018281548110611a3757611a37613583565b6000918252602082200180546001600160a01b0319166001600160a01b03938416179055604051848316928616917f50d741fe04ad9863c69d1406658f6ec7c4f5e48ec2faf966a36a3e47fc05c9d991a3611a9f565b80611a97816136cd565b9150506119e2565b505b50508080611aae906136cd565b9150506117f7565b505050565b600060606000606080606080600080600660008b815260200190815260200160002060405180610100016040529081600082015481526020016001820160009054906101000a90046001600160a01b03166001600160a01b03166001600160a01b03168152602001600282018054611b32906134db565b80601f0160208091040260200160405190810160405280929190818152602001828054611b5e906134db565b8015611bab5780601f10611b8057610100808354040283529160200191611bab565b820191906000526020600020905b815481529060010190602001808311611b8e57829003601f168201915b5050505050815260200160038201548152602001600482018054611bce906134db565b80601f0160208091040260200160405190810160405280929190818152602001828054611bfa906134db565b8015611c475780601f10611c1c57610100808354040283529160200191611c47565b820191906000526020600020905b815481529060010190602001808311611c2a57829003601f168201915b50505050508152602001600582018054611c60906134db565b80601f0160208091040260200160405190810160405280929190818152602001828054611c8c906134db565b8015611cd95780601f10611cae57610100808354040283529160200191611cd9565b820191906000526020600020905b815481529060010190602001808311611cbc57829003601f168201915b50505050508152602001600682018054611cf2906134db565b80601f0160208091040260200160405190810160405280929190818152602001828054611d1e906134db565b8015611d6b5780601f10611d4057610100808354040283529160200191611d6b565b820191906000526020600020905b815481529060010190602001808311611d4e57829003601f168201915b50505050508152602001600782018054611d84906134db565b80601f0160208091040260200160405190810160405280929190818152602001828054611db0906134db565b8015611dfd5780601f10611dd257610100808354040283529160200191611dfd565b820191906000526020600020905b815481529060010190602001808311611de057829003601f168201915b505050505081525050905080602001518160400151826060015183608001518460a001518560c001518660e0015187600001519850985098509850985098509850985050919395975091939597565b611e5461291b565b80611e6957506000546001600160a01b031633145b611eae5760405162461bcd60e51b815260206004820152601660248201527513db9b1e481d995c9a599a595c8818d85b8818d85b1b60521b6044820152606401610723565b6000815111611eff5760405162461bcd60e51b815260206004820152601760248201527f4e6f20636f6d70616e79204944732070726f76696465640000000000000000006044820152606401610723565b60005b8151811015612063576000828281518110611f1f57611f1f613583565b602002602001015190506006600082815260200190815260200160002060030154600003611f9b5760405162461bcd60e51b8152602060048201526024808201527f436f6d70616e79207769746820676976656e20494420646f6573206e6f7420656044820152631e1a5cdd60e21b6064820152608401610723565b60008181526006602052604081208181556001810180546001600160a01b031916905590611fcc6002830182612a39565b6003820160009055600482016000611fe49190612a39565b611ff2600583016000612a39565b612000600683016000612a39565b61200e600783016000612a39565b5050600380549060006120208361380e565b909155505060405181907f028fe2791b514c47642f0d652f7c237752aea1929ed16396ef24b45eb7e2b31590600090a2508061205b816136cd565b915050611f02565b5050565b61206f612926565b6120796000612980565b565b336000908152600960205260409020546120a75760405162461bcd60e51b815260040161072390613515565b83518551146120c85760405162461bcd60e51b81526004016107239061354c565b60005b8551811015610e7a5760008682815181106120e8576120e8613583565b60200260200101519050600086838151811061210657612106613583565b60200260200101519050600086848151811061212457612124613583565b60200260200101519050600086858151811061214257612142613583565b60200260200101519050600086868151811061216057612160613583565b60200260200101519050600a6000866001600160a01b03166001600160a01b03168152602001908152602001600020546000146121f75760405162461bcd60e51b815260206004820152602f60248201527f43616e64696461746520776974682074686520676976656e206164647265737360448201526e20616c72656164792065786973747360881b6064820152608401610723565b6001600160a01b0385166122465760405162461bcd60e51b8152602060048201526016602482015275416464726573732063616e6e6f74206265207a65726f60501b6044820152606401610723565b600084511161228e5760405162461bcd60e51b81526020600482015260146024820152734e616d652063616e6e6f7420626520656d70747960601b6044820152606401610723565b6000600554600161229f91906135af565b60408051610100810182524281526001600160a01b03808a16602080840191825233848601908152606085018c81526080860188905260a086018c905260c086018b905260e086018a905260008881526007909352959091208451815591516001830180549185166001600160a01b0319928316179055905160028301805491909416911617909155915192935091600382019061233d908261360e565b506080820151600482015560a0820151600582019061235c908261360e565b5060c08201516006820190612371908261360e565b5060e08201516007820190612386908261360e565b5050336000908152600a60205260408120839055600580549250906123aa836136cd565b90915550506000818152600760205260409081902054905182917f7b9c7f27309ffd2ac53f4a79f1850d55fb69301e433730c1de54f3b266b4eb4c916123f7918991899089908990613095565b60405180910390a25050505050508080612410906136cd565b9150506120cb565b905090565b6060600180548060200260200160405190810160405280929190818152602001828054801561247557602002820191906000526020600020905b81546001600160a01b03168152600190910190602001808311612457575b5050505050905090565b6001818154811061248f57600080fd5b6000918252602090912001546001600160a01b0316905081565b6124b1612926565b60008151116124f85760405162461bcd60e51b8152602060048201526013602482015272139bc81d995c9a599a595c9cc81d1bc8185919606a1b6044820152606401610723565b600254815160015461250a91906135af565b11156125645760405162461bcd60e51b815260206004820152602360248201527f45786365656473206d6178696d756d206e756d626572206f662076657269666960448201526265727360e81b6064820152608401610723565b60005b815181101561206357600082828151811061258457612584613583565b6020026020010151905060006001600160a01b0316816001600160a01b0316036125e25760405162461bcd60e51b815260206004820152600f60248201526e496e76616c6964206164647265737360881b6044820152606401610723565b60018054808201825560009182527fb10e2d527612073b26eecdfd717e6a320cf44b4afac2b0732d9fcbe2b7fa0cf60180546001600160a01b0319166001600160a01b03841690811790915560405190917f6d05492139c5ea989514a5d2150c028041e5c087e2a39967f67dc7d2655adb8191a25080612661816136cd565b915050612567565b336000908152600960205260409020546126955760405162461bcd60e51b815260040161072390613515565b60008581526007602052604081206004015490036126c55760405162461bcd60e51b81526004016107239061375a565b6000858152600760205260409020600201546001600160a01b031633146127485760405162461bcd60e51b815260206004820152603160248201527f596f7520646f206e6f742068617665207065726d697373696f6e20746f206564604482015270697420746869732063616e64696461746560781b6064820152608401610723565b6000858152600760205260409020600301612763858261360e565b50600085815260076020526040902060050161277f848261360e565b50600085815260076020526040902060060161279b838261360e565b506000858152600760208190526040909120016127b8828261360e565b506000858152600760205260409081902054905186917fec0d46722939d1bbf8c6e9a7383f9f0aae3fc6cd4428fcb18978b87a5cbd34ff91612801918891889088908890613095565b60405180910390a25050505050565b6008602052600090815260409020805460018201805491929161049e906134db565b61283a612926565b6001600160a01b03811661289f5760405162461bcd60e51b815260206004820152602660248201527f4f776e61626c653a206e6577206f776e657220697320746865207a65726f206160448201526564647265737360d01b6064820152608401610723565b6128a881612980565b50565b6128b3612926565b600081116129165760405162461bcd60e51b815260206004820152602a60248201527f4d6178696d756d207665726966696572732073686f756c6420626520677265616044820152690746572207468616e20360b41b6064820152608401610723565b600255565b6000612418336129d0565b6000546001600160a01b031633146120795760405162461bcd60e51b815260206004820181905260248201527f4f776e61626c653a2063616c6c6572206973206e6f7420746865206f776e65726044820152606401610723565b600080546001600160a01b038381166001600160a01b0319831681178455604051919092169283917f8be0079c531659141344cd1fd0a4f28419497f9722a3daafe3b4186f6b6457e09190a35050565b6000805b600154811015612a3057826001600160a01b0316600182815481106129fb576129fb613583565b6000918252602090912001546001600160a01b031603612a1e5750600192915050565b80612a28816136cd565b9150506129d4565b50600092915050565b508054612a45906134db565b6000825580601f10612a55575050565b601f0160209004906000526020600020908101906128a891905b80821115612a835760008155600101612a6f565b5090565b60008060408385031215612a9a57600080fd5b50508035926020909101359150565b6000815180845260005b81811015612acf57602081850181015186830182015201612ab3565b506000602082860101526020601f19601f83011685010191505092915050565b60006101208b8352806020840152612b098184018c612aa9565b90508960408401528281036060840152612b23818a612aa9565b90508281036080840152612b378189612aa9565b905082810360a0840152612b4b8188612aa9565b95151560c0840152505091151560e0830152610100909101529695505050505050565b634e487b7160e01b600052604160045260246000fd5b604051601f8201601f191681016001600160401b0381118282101715612bac57612bac612b6e565b604052919050565b60006001600160401b03821115612bcd57612bcd612b6e565b5060051b60200190565b80356001600160a01b0381168114612bee57600080fd5b919050565b600082601f830112612c0457600080fd5b81356020612c19612c1483612bb4565b612b84565b82815260059290921b84018101918181019086841115612c3857600080fd5b8286015b84811015612c5a57612c4d81612bd7565b8352918301918301612c3c565b509695505050505050565b600082601f830112612c7657600080fd5b81356001600160401b03811115612c8f57612c8f612b6e565b612ca2601f8201601f1916602001612b84565b818152846020838601011115612cb757600080fd5b816020850160208301376000918101602001919091529392505050565b600082601f830112612ce557600080fd5b81356020612cf5612c1483612bb4565b82815260059290921b84018101918181019086841115612d1457600080fd5b8286015b84811015612c5a5780356001600160401b03811115612d375760008081fd5b612d458986838b0101612c65565b845250918301918301612d18565b60008060008060008060c08789031215612d6c57600080fd5b86356001600160401b0380821115612d8357600080fd5b612d8f8a838b01612bf3565b97506020890135915080821115612da557600080fd5b612db18a838b01612cd4565b96506040890135915080821115612dc757600080fd5b612dd38a838b01612cd4565b95506060890135915080821115612de957600080fd5b612df58a838b01612cd4565b94506080890135915080821115612e0b57600080fd5b612e178a838b01612cd4565b935060a0890135915080821115612e2d57600080fd5b50612e3a89828a01612cd4565b9150509295509295509295565b60008060408385031215612e5a57600080fd5b82359150612e6a60208401612bd7565b90509250929050565b600082601f830112612e8457600080fd5b81356020612e94612c1483612bb4565b82815260059290921b84018101918181019086841115612eb357600080fd5b8286015b84811015612c5a5780358352918301918301612eb7565b600080600080600060a08688031215612ee657600080fd5b85356001600160401b0380821115612efd57600080fd5b612f0989838a01612cd4565b96506020880135915080821115612f1f57600080fd5b612f2b89838a01612cd4565b95506040880135915080821115612f4157600080fd5b612f4d89838a01612e73565b94506060880135915080821115612f6357600080fd5b612f6f89838a01612cd4565b93506080880135915080821115612f8557600080fd5b50612f9288828901612cd4565b9150509295509295909350565b600060208284031215612fb157600080fd5b5035919050565b8881526001600160a01b038816602082015261010060408201819052600090612fe38382018a612aa9565b90508760608401528281036080840152612ffd8188612aa9565b905082810360a08401526130118187612aa9565b905082810360c08401526130258186612aa9565b905082810360e08401526130398185612aa9565b9b9a5050505050505050505050565b8881526001600160a01b038881166020830152871660408201526101006060820181905260009061307b83820189612aa9565b905086608084015282810360a08401526130118187612aa9565b60a0815260006130a860a0830188612aa9565b86602084015282810360408401526130c08187612aa9565b905082810360608401526130d48186612aa9565b905082810360808401526130e88185612aa9565b98975050505050505050565b60008060006060848603121561310957600080fd5b83356001600160401b038082111561312057600080fd5b61312c87838801612e73565b945060209150818601358181111561314357600080fd5b61314f88828901612e73565b94505060408601358181111561316457600080fd5b86019050601f8101871361317757600080fd5b8035613185612c1482612bb4565b81815260059190911b820183019083810190898311156131a457600080fd5b928401925b828410156131d157833580151581146131c25760008081fd5b825292840192908401906131a9565b80955050505050509250925092565b600080604083850312156131f357600080fd5b82356001600160401b038082111561320a57600080fd5b61321686838701612bf3565b9350602085013591508082111561322c57600080fd5b5061323985828601612bf3565b9150509250929050565b6001600160a01b0389168152610100602082018190526000906132688382018b612aa9565b905088604084015282810360608401526132828189612aa9565b905082810360808401526132968188612aa9565b905082810360a08401526132aa8187612aa9565b905082810360c08401526132be8186612aa9565b9150508260e08301529998505050505050505050565b6000602082840312156132e657600080fd5b81356001600160401b038111156132fc57600080fd5b61330884828501612e73565b949350505050565b60006020828403121561332257600080fd5b61332b82612bd7565b9392505050565b600080600080600060a0868803121561334a57600080fd5b85356001600160401b038082111561336157600080fd5b61336d89838a01612bf3565b9650602088013591508082111561338357600080fd5b61338f89838a01612cd4565b955060408801359150808211156133a557600080fd5b612f4d89838a01612cd4565b6020808252825182820181905260009190848201906040850190845b818110156133f25783516001600160a01b0316835292840192918401916001016133cd565b50909695505050505050565b60006020828403121561341057600080fd5b81356001600160401b0381111561342657600080fd5b61330884828501612bf3565b600080600080600060a0868803121561344a57600080fd5b8535945060208601356001600160401b038082111561346857600080fd5b61347489838a01612c65565b9550604088013591508082111561348a57600080fd5b61349689838a01612c65565b945060608801359150808211156134ac57600080fd5b6134b889838a01612c65565b935060808801359150808211156134ce57600080fd5b50612f9288828901612c65565b600181811c908216806134ef57607f821691505b60208210810361350f57634e487b7160e01b600052602260045260246000fd5b50919050565b6020808252601f908201527f4f6e6c79207665726966696572206f72206f776e65722063616e2063616c6c00604082015260600190565b60208082526018908201527f4d69736d61746368656420696e707574206c656e677468730000000000000000604082015260600190565b634e487b7160e01b600052603260045260246000fd5b634e487b7160e01b600052601160045260246000fd5b808201808211156135c2576135c2613599565b92915050565b601f821115611ab657600081815260208120601f850160051c810160208610156135ef5750805b601f850160051c820191505b81811015610e7a578281556001016135fb565b81516001600160401b0381111561362757613627612b6e565b61363b8161363584546134db565b846135c8565b602080601f83116001811461367057600084156136585750858301515b600019600386901b1c1916600185901b178555610e7a565b600085815260208120601f198616915b8281101561369f57888601518255948401946001909101908401613680565b50858210156136bd5787850151600019600388901b60f8161c191681555b5050505050600190811b01905550565b6000600182016136df576136df613599565b5060010190565b60c0815260006136f960c0830189612aa9565b87602084015282810360408401526137118188612aa9565b905082810360608401526137258187612aa9565b905082810360808401526137398186612aa9565b905082810360a084015261374d8185612aa9565b9998505050505050505050565b60208082526026908201527f43616e646964617465207769746820676976656e20494420646f6573206e6f7460408201526508195e1a5cdd60d21b606082015260800190565b60c0815260006137b360c0830189612aa9565b82810360208401526137c58189612aa9565b905086604084015285606084015282810360808401526137398186612aa9565b818103818111156135c2576135c2613599565b634e487b7160e01b600052603160045260246000fd5b60008161381d5761381d613599565b50600019019056fea2646970667358221220070dcc5c7d20173445e3e3c80c3ea4acbdf8ae9f8a4fbf3d0f0eff479c69f41d64736f6c63430008140033",
  "linkReferences": {},
  "deployedLinkReferences": {}
}