{
  "_format": "hh-sol-artifact-1",
  "contractName": "Verification",
  "sourceName": "src/contracts/Verification.sol",
  "abi": [
    {
      "anonymous": false,
      "inputs": [
        {
          "indexed": true,
          "internalType": "uint256",
          "name": "id",
          "type": "uint256"
        },
        {
          "indexed": false,
          "internalType": "string",
          "name": "name",
          "type": "string"
        },
        {
          "indexed": false,
          "internalType": "string",
          "name": "location",
          "type": "string"
        },
        {
          "indexed": false,
          "internalType": "string",
          "name": "email",
          "type": "string"
        },
        {
          "indexed": false,
          "internalType": "uint256",
          "name": "phoneNumber",
          "type": "uint256"
        }
      ],
      "name": "CandidateAdded",
      "type": "event"
    },
    {
      "anonymous": false,
      "inputs": [
        {
          "indexed": true,
          "internalType": "uint256",
          "name": "id",
          "type": "uint256"
        },
        {
          "indexed": false,
          "internalType": "address",
          "name": "newCurrentCompany",
          "type": "address"
        }
      ],
      "name": "CandidateCurrentCompanyEdited",
      "type": "event"
    },
    {
      "anonymous": false,
      "inputs": [
        {
          "indexed": true,
          "internalType": "uint256",
          "name": "id",
          "type": "uint256"
        },
        {
          "indexed": false,
          "internalType": "string",
          "name": "name",
          "type": "string"
        },
        {
          "indexed": false,
          "internalType": "string",
          "name": "location",
          "type": "string"
        },
        {
          "indexed": false,
          "internalType": "string",
          "name": "email",
          "type": "string"
        },
        {
          "indexed": false,
          "internalType": "uint256",
          "name": "phoneNumber",
          "type": "uint256"
        },
        {
          "indexed": false,
          "internalType": "address",
          "name": "currentCompany",
          "type": "address"
        }
      ],
      "name": "CandidateEdited",
      "type": "event"
    },
    {
      "anonymous": false,
      "inputs": [
        {
          "indexed": true,
          "internalType": "uint256",
          "name": "id",
          "type": "uint256"
        }
      ],
      "name": "CandidateRemoved",
      "type": "event"
    },
    {
      "anonymous": false,
      "inputs": [
        {
          "indexed": true,
          "internalType": "uint256",
          "name": "id",
          "type": "uint256"
        },
        {
          "indexed": true,
          "internalType": "address",
          "name": "companyAddress",
          "type": "address"
        },
        {
          "indexed": false,
          "internalType": "string",
          "name": "name",
          "type": "string"
        },
        {
          "indexed": false,
          "internalType": "string",
          "name": "location",
          "type": "string"
        },
        {
          "indexed": false,
          "internalType": "uint256",
          "name": "phoneNumber",
          "type": "uint256"
        },
        {
          "indexed": false,
          "internalType": "string",
          "name": "licenseNumber",
          "type": "string"
        },
        {
          "indexed": false,
          "internalType": "string",
          "name": "email",
          "type": "string"
        }
      ],
      "name": "CompanyAdded",
      "type": "event"
    },
    {
      "anonymous": false,
      "inputs": [
        {
          "indexed": true,
          "internalType": "uint256",
          "name": "id",
          "type": "uint256"
        }
      ],
      "name": "CompanyRemoved",
      "type": "event"
    },
    {
      "anonymous": false,
      "inputs": [
        {
          "indexed": true,
          "internalType": "uint256",
          "name": "id",
          "type": "uint256"
        },
        {
          "indexed": false,
          "internalType": "string",
          "name": "name",
          "type": "string"
        },
        {
          "indexed": false,
          "internalType": "string",
          "name": "cid",
          "type": "string"
        },
        {
          "indexed": false,
          "internalType": "uint256",
          "name": "candidateId",
          "type": "uint256"
        },
        {
          "indexed": false,
          "internalType": "string",
          "name": "typeOfDocument",
          "type": "string"
        },
        {
          "indexed": false,
          "internalType": "string",
          "name": "expirationDate",
          "type": "string"
        }
      ],
      "name": "DocumentAdded",
      "type": "event"
    },
    {
      "anonymous": false,
      "inputs": [
        {
          "indexed": true,
          "internalType": "uint256",
          "name": "id",
          "type": "uint256"
        }
      ],
      "name": "DocumentCancelled",
      "type": "event"
    },
    {
      "anonymous": false,
      "inputs": [
        {
          "indexed": false,
          "internalType": "uint256",
          "name": "documentId",
          "type": "uint256"
        },
        {
          "indexed": false,
          "internalType": "uint256",
          "name": "candidateId",
          "type": "uint256"
        }
      ],
      "name": "DocumentRemoved",
      "type": "event"
    },
    {
      "anonymous": false,
      "inputs": [
        {
          "indexed": true,
          "internalType": "uint256",
          "name": "id",
          "type": "uint256"
        }
      ],
      "name": "DocumentVerified",
      "type": "event"
    },
    {
      "anonymous": false,
      "inputs": [
        {
          "indexed": true,
          "internalType": "address",
          "name": "previousOwner",
          "type": "address"
        },
        {
          "indexed": true,
          "internalType": "address",
          "name": "newOwner",
          "type": "address"
        }
      ],
      "name": "OwnershipTransferred",
      "type": "event"
    },
    {
      "anonymous": false,
      "inputs": [
        {
          "indexed": true,
          "internalType": "address",
          "name": "verifier",
          "type": "address"
        }
      ],
      "name": "VerifierAdded",
      "type": "event"
    },
    {
      "anonymous": false,
      "inputs": [
        {
          "indexed": true,
          "internalType": "address",
          "name": "verifier",
          "type": "address"
        }
      ],
      "name": "VerifierRemoved",
      "type": "event"
    },
    {
      "anonymous": false,
      "inputs": [
        {
          "indexed": true,
          "internalType": "address",
          "name": "oldVerifier",
          "type": "address"
        },
        {
          "indexed": true,
          "internalType": "address",
          "name": "newVerifier",
          "type": "address"
        }
      ],
      "name": "VerifierReplaced",
      "type": "event"
    },
    {
      "inputs": [
        {
          "internalType": "address[]",
          "name": "_addresses",
          "type": "address[]"
        },
        {
          "internalType": "string[]",
          "name": "_names",
          "type": "string[]"
        },
        {
          "internalType": "string[]",
          "name": "_locations",
          "type": "string[]"
        },
        {
          "internalType": "string[]",
          "name": "_emails",
          "type": "string[]"
        },
        {
          "internalType": "uint256[]",
          "name": "_phoneNumbers",
          "type": "uint256[]"
        }
      ],
      "name": "addCandidates",
      "outputs": [],
      "stateMutability": "nonpayable",
      "type": "function"
    },
    {
      "inputs": [
        {
          "internalType": "address[]",
          "name": "_addresses",
          "type": "address[]"
        },
        {
          "internalType": "string[]",
          "name": "_names",
          "type": "string[]"
        },
        {
          "internalType": "string[]",
          "name": "_locations",
          "type": "string[]"
        },
        {
          "internalType": "uint256[]",
          "name": "_phoneNumbers",
          "type": "uint256[]"
        },
        {
          "internalType": "string[]",
          "name": "_licenseNumbers",
          "type": "string[]"
        },
        {
          "internalType": "string[]",
          "name": "_emails",
          "type": "string[]"
        }
      ],
      "name": "addCompanies",
      "outputs": [],
      "stateMutability": "nonpayable",
      "type": "function"
    },
    {
      "inputs": [
        {
          "internalType": "string",
          "name": "_name",
          "type": "string"
        },
        {
          "internalType": "string",
          "name": "_cid",
          "type": "string"
        },
        {
          "internalType": "uint256",
          "name": "_candidateId",
          "type": "uint256"
        },
        {
          "internalType": "string",
          "name": "_typeOfDocument",
          "type": "string"
        },
        {
          "internalType": "string",
          "name": "_expirationDate",
          "type": "string"
        }
      ],
      "name": "addDocuments",
      "outputs": [],
      "stateMutability": "nonpayable",
      "type": "function"
    },
    {
      "inputs": [
        {
          "internalType": "address[]",
          "name": "_verifiers",
          "type": "address[]"
        }
      ],
      "name": "addVerifiers",
      "outputs": [],
      "stateMutability": "nonpayable",
      "type": "function"
    },
    {
      "inputs": [
        {
          "internalType": "address",
          "name": "",
          "type": "address"
        }
      ],
      "name": "candidateAddress",
      "outputs": [
        {
          "internalType": "uint256",
          "name": "",
          "type": "uint256"
        }
      ],
      "stateMutability": "view",
      "type": "function"
    },
    {
      "inputs": [
        {
          "internalType": "uint256",
          "name": "",
          "type": "uint256"
        }
      ],
      "name": "candidates",
      "outputs": [
        {
          "internalType": "uint256",
          "name": "date",
          "type": "uint256"
        },
        {
          "internalType": "address",
          "name": "address_",
          "type": "address"
        },
        {
          "internalType": "address",
          "name": "currentCompany",
          "type": "address"
        },
        {
          "internalType": "string",
          "name": "name",
          "type": "string"
        },
        {
          "internalType": "uint256",
          "name": "Id",
          "type": "uint256"
        },
        {
          "internalType": "string",
          "name": "location",
          "type": "string"
        },
        {
          "internalType": "string",
          "name": "email",
          "type": "string"
        },
        {
          "internalType": "uint256",
          "name": "phoneNumber",
          "type": "uint256"
        }
      ],
      "stateMutability": "view",
      "type": "function"
    },
    {
      "inputs": [
        {
          "internalType": "uint256",
          "name": "",
          "type": "uint256"
        }
      ],
      "name": "companies",
      "outputs": [
        {
          "internalType": "uint256",
          "name": "date",
          "type": "uint256"
        },
        {
          "internalType": "address",
          "name": "address_",
          "type": "address"
        },
        {
          "internalType": "string",
          "name": "name",
          "type": "string"
        },
        {
          "internalType": "uint256",
          "name": "Id",
          "type": "uint256"
        },
        {
          "internalType": "string",
          "name": "location",
          "type": "string"
        },
        {
          "internalType": "uint256",
          "name": "phoneNumber",
          "type": "uint256"
        },
        {
          "internalType": "string",
          "name": "licenseNumber",
          "type": "string"
        },
        {
          "internalType": "string",
          "name": "email",
          "type": "string"
        }
      ],
      "stateMutability": "view",
      "type": "function"
    },
    {
      "inputs": [
        {
          "internalType": "address",
          "name": "",
          "type": "address"
        }
      ],
      "name": "companyAddress",
      "outputs": [
        {
          "internalType": "uint256",
          "name": "",
          "type": "uint256"
        }
      ],
      "stateMutability": "view",
      "type": "function"
    },
    {
      "inputs": [
        {
          "internalType": "uint256",
          "name": "",
          "type": "uint256"
        }
      ],
      "name": "documents",
      "outputs": [
        {
          "internalType": "uint256",
          "name": "date",
          "type": "uint256"
        },
        {
          "internalType": "string",
          "name": "name",
          "type": "string"
        },
        {
          "internalType": "uint256",
          "name": "id",
          "type": "uint256"
        },
        {
          "internalType": "string",
          "name": "cid",
          "type": "string"
        },
        {
          "internalType": "string",
          "name": "typeOfDocument",
          "type": "string"
        },
        {
          "internalType": "string",
          "name": "expirationDate",
          "type": "string"
        },
        {
          "internalType": "bool",
          "name": "isVerified",
          "type": "bool"
        },
        {
          "internalType": "bool",
          "name": "isCancelled",
          "type": "bool"
        },
        {
          "internalType": "uint256",
          "name": "candidateId",
          "type": "uint256"
        }
      ],
      "stateMutability": "view",
      "type": "function"
    },
    {
      "inputs": [
        {
          "internalType": "uint256",
          "name": "_candidateId",
          "type": "uint256"
        },
        {
          "internalType": "string",
          "name": "_name",
          "type": "string"
        },
        {
          "internalType": "string",
          "name": "_location",
          "type": "string"
        },
        {
          "internalType": "string",
          "name": "_email",
          "type": "string"
        },
        {
          "internalType": "uint256",
          "name": "_phoneNumber",
          "type": "uint256"
        },
        {
          "internalType": "address",
          "name": "_currentCompany",
          "type": "address"
        }
      ],
      "name": "editCandidate",
      "outputs": [],
      "stateMutability": "nonpayable",
      "type": "function"
    },
    {
      "inputs": [
        {
          "internalType": "uint256",
          "name": "_candidateId",
          "type": "uint256"
        },
        {
          "internalType": "address",
          "name": "_newCurrentCompany",
          "type": "address"
        }
      ],
      "name": "editCandidateCurrentCompany",
      "outputs": [],
      "stateMutability": "nonpayable",
      "type": "function"
    },
    {
      "inputs": [],
      "name": "getAllCandidates",
      "outputs": [
        {
          "components": [
            {
              "internalType": "uint256",
              "name": "date",
              "type": "uint256"
            },
            {
              "internalType": "address",
              "name": "address_",
              "type": "address"
            },
            {
              "internalType": "address",
              "name": "currentCompany",
              "type": "address"
            },
            {
              "internalType": "string",
              "name": "name",
              "type": "string"
            },
            {
              "internalType": "uint256[]",
              "name": "documentIds",
              "type": "uint256[]"
            },
            {
              "internalType": "uint256",
              "name": "Id",
              "type": "uint256"
            },
            {
              "internalType": "string",
              "name": "location",
              "type": "string"
            },
            {
              "internalType": "string",
              "name": "email",
              "type": "string"
            },
            {
              "internalType": "uint256",
              "name": "phoneNumber",
              "type": "uint256"
            }
          ],
          "internalType": "struct Verification.Candidate[]",
          "name": "",
          "type": "tuple[]"
        }
      ],
      "stateMutability": "view",
      "type": "function"
    },
    {
      "inputs": [],
      "name": "getAllCompanies",
      "outputs": [
        {
          "components": [
            {
              "internalType": "uint256",
              "name": "date",
              "type": "uint256"
            },
            {
              "internalType": "address",
              "name": "address_",
              "type": "address"
            },
            {
              "internalType": "string",
              "name": "name",
              "type": "string"
            },
            {
              "internalType": "uint256",
              "name": "Id",
              "type": "uint256"
            },
            {
              "internalType": "uint256[]",
              "name": "candidateIds",
              "type": "uint256[]"
            },
            {
              "internalType": "string",
              "name": "location",
              "type": "string"
            },
            {
              "internalType": "uint256",
              "name": "phoneNumber",
              "type": "uint256"
            },
            {
              "internalType": "string",
              "name": "licenseNumber",
              "type": "string"
            },
            {
              "internalType": "string",
              "name": "email",
              "type": "string"
            }
          ],
          "internalType": "struct Verification.Company[]",
          "name": "",
          "type": "tuple[]"
        }
      ],
      "stateMutability": "view",
      "type": "function"
    },
    {
      "inputs": [],
      "name": "getAllDocuments",
      "outputs": [
        {
          "components": [
            {
              "internalType": "uint256",
              "name": "date",
              "type": "uint256"
            },
            {
              "internalType": "string",
              "name": "name",
              "type": "string"
            },
            {
              "internalType": "uint256",
              "name": "id",
              "type": "uint256"
            },
            {
              "internalType": "string",
              "name": "cid",
              "type": "string"
            },
            {
              "internalType": "string",
              "name": "typeOfDocument",
              "type": "string"
            },
            {
              "internalType": "string",
              "name": "expirationDate",
              "type": "string"
            },
            {
              "internalType": "bool",
              "name": "isVerified",
              "type": "bool"
            },
            {
              "internalType": "bool",
              "name": "isCancelled",
              "type": "bool"
            },
            {
              "internalType": "uint256",
              "name": "candidateId",
              "type": "uint256"
            }
          ],
          "internalType": "struct Verification.Document[]",
          "name": "",
          "type": "tuple[]"
        }
      ],
      "stateMutability": "view",
      "type": "function"
    },
    {
      "inputs": [
        {
          "internalType": "uint256",
          "name": "_id",
          "type": "uint256"
        }
      ],
      "name": "getCandidate",
      "outputs": [
        {
          "components": [
            {
              "internalType": "uint256",
              "name": "date",
              "type": "uint256"
            },
            {
              "internalType": "address",
              "name": "address_",
              "type": "address"
            },
            {
              "internalType": "address",
              "name": "currentCompany",
              "type": "address"
            },
            {
              "internalType": "string",
              "name": "name",
              "type": "string"
            },
            {
              "internalType": "uint256[]",
              "name": "documentIds",
              "type": "uint256[]"
            },
            {
              "internalType": "uint256",
              "name": "Id",
              "type": "uint256"
            },
            {
              "internalType": "string",
              "name": "location",
              "type": "string"
            },
            {
              "internalType": "string",
              "name": "email",
              "type": "string"
            },
            {
              "internalType": "uint256",
              "name": "phoneNumber",
              "type": "uint256"
            }
          ],
          "internalType": "struct Verification.Candidate",
          "name": "",
          "type": "tuple"
        }
      ],
      "stateMutability": "view",
      "type": "function"
    },
    {
      "inputs": [
        {
          "internalType": "uint256",
          "name": "_companyId",
          "type": "uint256"
        }
      ],
      "name": "getCandidatesByCompany",
      "outputs": [
        {
          "components": [
            {
              "internalType": "uint256",
              "name": "date",
              "type": "uint256"
            },
            {
              "internalType": "address",
              "name": "address_",
              "type": "address"
            },
            {
              "internalType": "address",
              "name": "currentCompany",
              "type": "address"
            },
            {
              "internalType": "string",
              "name": "name",
              "type": "string"
            },
            {
              "internalType": "uint256[]",
              "name": "documentIds",
              "type": "uint256[]"
            },
            {
              "internalType": "uint256",
              "name": "Id",
              "type": "uint256"
            },
            {
              "internalType": "string",
              "name": "location",
              "type": "string"
            },
            {
              "internalType": "string",
              "name": "email",
              "type": "string"
            },
            {
              "internalType": "uint256",
              "name": "phoneNumber",
              "type": "uint256"
            }
          ],
          "internalType": "struct Verification.Candidate[]",
          "name": "",
          "type": "tuple[]"
        }
      ],
      "stateMutability": "view",
      "type": "function"
    },
    {
      "inputs": [
        {
          "internalType": "uint256",
          "name": "_companyId",
          "type": "uint256"
        }
      ],
      "name": "getCompany",
      "outputs": [
        {
          "components": [
            {
              "internalType": "uint256",
              "name": "date",
              "type": "uint256"
            },
            {
              "internalType": "address",
              "name": "address_",
              "type": "address"
            },
            {
              "internalType": "string",
              "name": "name",
              "type": "string"
            },
            {
              "internalType": "uint256",
              "name": "Id",
              "type": "uint256"
            },
            {
              "internalType": "uint256[]",
              "name": "candidateIds",
              "type": "uint256[]"
            },
            {
              "internalType": "string",
              "name": "location",
              "type": "string"
            },
            {
              "internalType": "uint256",
              "name": "phoneNumber",
              "type": "uint256"
            },
            {
              "internalType": "string",
              "name": "licenseNumber",
              "type": "string"
            },
            {
              "internalType": "string",
              "name": "email",
              "type": "string"
            }
          ],
          "internalType": "struct Verification.Company",
          "name": "",
          "type": "tuple"
        }
      ],
      "stateMutability": "view",
      "type": "function"
    },
    {
      "inputs": [],
      "name": "getCompanyIdOfSender",
      "outputs": [
        {
          "internalType": "uint256",
          "name": "",
          "type": "uint256"
        }
      ],
      "stateMutability": "view",
      "type": "function"
    },
    {
      "inputs": [
        {
          "internalType": "uint256",
          "name": "_candidateId",
          "type": "uint256"
        }
      ],
      "name": "getDocuments",
      "outputs": [
        {
          "components": [
            {
              "internalType": "uint256",
              "name": "date",
              "type": "uint256"
            },
            {
              "internalType": "string",
              "name": "name",
              "type": "string"
            },
            {
              "internalType": "uint256",
              "name": "id",
              "type": "uint256"
            },
            {
              "internalType": "string",
              "name": "cid",
              "type": "string"
            },
            {
              "internalType": "string",
              "name": "typeOfDocument",
              "type": "string"
            },
            {
              "internalType": "string",
              "name": "expirationDate",
              "type": "string"
            },
            {
              "internalType": "bool",
              "name": "isVerified",
              "type": "bool"
            },
            {
              "internalType": "bool",
              "name": "isCancelled",
              "type": "bool"
            },
            {
              "internalType": "uint256",
              "name": "candidateId",
              "type": "uint256"
            }
          ],
          "internalType": "struct Verification.Document[]",
          "name": "",
          "type": "tuple[]"
        }
      ],
      "stateMutability": "view",
      "type": "function"
    },
    {
      "inputs": [
        {
          "internalType": "uint256",
          "name": "_candidateId",
          "type": "uint256"
        }
      ],
      "name": "getDocumentsByCandidate",
      "outputs": [
        {
          "components": [
            {
              "internalType": "uint256",
              "name": "date",
              "type": "uint256"
            },
            {
              "internalType": "string",
              "name": "name",
              "type": "string"
            },
            {
              "internalType": "uint256",
              "name": "id",
              "type": "uint256"
            },
            {
              "internalType": "string",
              "name": "cid",
              "type": "string"
            },
            {
              "internalType": "string",
              "name": "typeOfDocument",
              "type": "string"
            },
            {
              "internalType": "string",
              "name": "expirationDate",
              "type": "string"
            },
            {
              "internalType": "bool",
              "name": "isVerified",
              "type": "bool"
            },
            {
              "internalType": "bool",
              "name": "isCancelled",
              "type": "bool"
            },
            {
              "internalType": "uint256",
              "name": "candidateId",
              "type": "uint256"
            }
          ],
          "internalType": "struct Verification.Document[]",
          "name": "",
          "type": "tuple[]"
        }
      ],
      "stateMutability": "view",
      "type": "function"
    },
    {
      "inputs": [],
      "name": "getOwner",
      "outputs": [
        {
          "internalType": "address",
          "name": "",
          "type": "address"
        }
      ],
      "stateMutability": "view",
      "type": "function"
    },
    {
      "inputs": [],
      "name": "getTotalCandidates",
      "outputs": [
        {
          "internalType": "uint256",
          "name": "",
          "type": "uint256"
        }
      ],
      "stateMutability": "view",
      "type": "function"
    },
    {
      "inputs": [],
      "name": "getTotalCompanies",
      "outputs": [
        {
          "internalType": "uint256",
          "name": "",
          "type": "uint256"
        }
      ],
      "stateMutability": "view",
      "type": "function"
    },
    {
      "inputs": [],
      "name": "getTotalDocuments",
      "outputs": [
        {
          "internalType": "uint256",
          "name": "",
          "type": "uint256"
        }
      ],
      "stateMutability": "view",
      "type": "function"
    },
    {
      "inputs": [],
      "name": "getVerifiers",
      "outputs": [
        {
          "internalType": "address[]",
          "name": "",
          "type": "address[]"
        }
      ],
      "stateMutability": "view",
      "type": "function"
    },
    {
      "inputs": [],
      "name": "getZeroAddress",
      "outputs": [
        {
          "internalType": "address",
          "name": "",
          "type": "address"
        }
      ],
      "stateMutability": "pure",
      "type": "function"
    },
    {
      "inputs": [],
      "name": "isCandidate",
      "outputs": [
        {
          "internalType": "bool",
          "name": "",
          "type": "bool"
        }
      ],
      "stateMutability": "view",
      "type": "function"
    },
    {
      "inputs": [],
      "name": "isCompany",
      "outputs": [
        {
          "internalType": "bool",
          "name": "",
          "type": "bool"
        }
      ],
      "stateMutability": "view",
      "type": "function"
    },
    {
      "inputs": [],
      "name": "isVerifier",
      "outputs": [
        {
          "internalType": "bool",
          "name": "",
          "type": "bool"
        }
      ],
      "stateMutability": "view",
      "type": "function"
    },
    {
      "inputs": [],
      "name": "maxVerifiers",
      "outputs": [
        {
          "internalType": "uint256",
          "name": "",
          "type": "uint256"
        }
      ],
      "stateMutability": "view",
      "type": "function"
    },
    {
      "inputs": [],
      "name": "owner",
      "outputs": [
        {
          "internalType": "address",
          "name": "",
          "type": "address"
        }
      ],
      "stateMutability": "view",
      "type": "function"
    },
    {
      "inputs": [
        {
          "internalType": "uint256[]",
          "name": "_ids",
          "type": "uint256[]"
        }
      ],
      "name": "removeCandidates",
      "outputs": [],
      "stateMutability": "nonpayable",
      "type": "function"
    },
    {
      "inputs": [
        {
          "internalType": "uint256[]",
          "name": "_ids",
          "type": "uint256[]"
        }
      ],
      "name": "removeCompanies",
      "outputs": [],
      "stateMutability": "nonpayable",
      "type": "function"
    },
    {
      "inputs": [
        {
          "internalType": "uint256[]",
          "name": "_candidateIds",
          "type": "uint256[]"
        },
        {
          "internalType": "uint256[]",
          "name": "_documentIds",
          "type": "uint256[]"
        }
      ],
      "name": "removeDocuments",
      "outputs": [],
      "stateMutability": "nonpayable",
      "type": "function"
    },
    {
      "inputs": [],
      "name": "renounceOwnership",
      "outputs": [],
      "stateMutability": "nonpayable",
      "type": "function"
    },
    {
      "inputs": [
        {
          "internalType": "address[]",
          "name": "_oldVerifiers",
          "type": "address[]"
        },
        {
          "internalType": "address[]",
          "name": "_newVerifiers",
          "type": "address[]"
        }
      ],
      "name": "replaceVerifiers",
      "outputs": [],
      "stateMutability": "nonpayable",
      "type": "function"
    },
    {
      "inputs": [
        {
          "internalType": "uint256",
          "name": "_maxVerifiers",
          "type": "uint256"
        }
      ],
      "name": "setMaxVerifiers",
      "outputs": [],
      "stateMutability": "nonpayable",
      "type": "function"
    },
    {
      "inputs": [
        {
          "internalType": "address",
          "name": "newOwner",
          "type": "address"
        }
      ],
      "name": "transferOwnership",
      "outputs": [],
      "stateMutability": "nonpayable",
      "type": "function"
    },
    {
      "inputs": [
        {
          "internalType": "uint256",
          "name": "",
          "type": "uint256"
        }
      ],
      "name": "verifiers",
      "outputs": [
        {
          "internalType": "address",
          "name": "",
          "type": "address"
        }
      ],
      "stateMutability": "view",
      "type": "function"
    },
    {
      "inputs": [
        {
          "internalType": "uint256",
          "name": "_documentId",
          "type": "uint256"
        },
        {
          "internalType": "bool",
          "name": "_isCancelled",
          "type": "bool"
        }
      ],
      "name": "verifyDocument",
      "outputs": [],
      "stateMutability": "nonpayable",
      "type": "function"
    }
  ],
  "bytecode": "0x6080604052600a6002553480156200001657600080fd5b50620000223362000028565b62000078565b600080546001600160a01b038381166001600160a01b0319831681178455604051919092169283917f8be0079c531659141344cd1fd0a4f28419497f9722a3daafe3b4186f6b6457e09190a35050565b615fbf80620000886000396000f3fe608060405234801561001057600080fd5b50600436106102485760003560e01c806378bda7501161013b578063b4d7e8df116100b8578063df2ba0de1161007c578063df2ba0de14610554578063e90e7ad414610567578063eed183181461056f578063f2fde38b14610582578063fc7435e11461059557600080fd5b8063b4d7e8df146104da578063b5344257146104ef578063bb3096aa14610502578063c2ed2b0514610515578063cd555bdf1461053d57600080fd5b806399e37a55116100ff57806399e37a55146104775780639fa5f50b14610497578063a25760891461049f578063a935e766146104b2578063ac1eff68146104c757600080fd5b806378bda750146104295780637efc818c14610432578063893d20e81461043a5780638da5cb5b1461045f5780639483fbcb1461047057600080fd5b806335af9742116101c957806357d139171161018d57806357d13917146103ae5780635990ce80146103ce5780636dd08047146103e15780636eb3b4e914610401578063715018a61461042157600080fd5b806335af97421461034b57806335b8e8201461035e578063408bf4c31461037e578063486b1b11146103935780634dc958951461039b57600080fd5b80631b280ea9116102105780631b280ea9146102c257806324e96df6146102d55780632813d19d146102e85780632e6997fe1461030f5780633477ee2e1461032457600080fd5b80630a636a6e1461024d5780630deb56ab1461027557806313a1c5631461028757806319f5205c1461029c5780631a203a31146102af575b600080fd5b3360009081526003602052604090205415155b60405190151581526020015b60405180910390f35b6006545b60405190815260200161026c565b61029a610295366004615100565b6105a8565b005b61029a6102aa3660046151d1565b610a07565b61029a6102bd36600461527a565b610bbf565b61029a6102d03660046152a6565b610d97565b61029a6102e3366004615350565b611010565b6102fb6102f6366004615385565b611254565b60405161026c9897969594939291906153e4565b6103176114d3565b60405161026c9190615566565b610337610332366004615385565b611785565b60405161026c9897969594939291906155c8565b610317610359366004615385565b61197f565b61037161036c366004615385565b61201a565b60405161026c919061563f565b610386612304565b60405161026c9190615714565b600554610279565b61029a6103a9366004615769565b61262f565b6103c16103bc366004615385565b61291f565b60405161026c91906157cc565b61029a6103dc3660046157df565b612d14565b6102796103ef36600461581b565b60036020526000908152604090205481565b61041461040f366004615385565b612ed4565b60405161026c9190615836565b61029a6135f9565b61027960025481565b61026061360d565b6000546001600160a01b03165b6040516001600160a01b03909116815260200161026c565b6000546001600160a01b0316610447565b6000610447565b61027961048536600461581b565b60046020526000908152604090205481565b61041461361d565b6104146104ad366004615385565b6138ff565b6104ba614021565b60405161026c9190615933565b6104476104d5366004615385565b61408b565b33600090815260036020526040902054610279565b61029a6104fd366004615980565b6140b5565b61029a6105103660046159b4565b614275565b610528610523366004615385565b614406565b60405161026c99989796959493929190615a0d565b336000908152600460205260409020541515610260565b61029a610562366004615a8c565b614687565b600754610279565b61029a61057d3660046157df565b6149c8565b61029a61059036600461581b565b614b5e565b61029a6105a3366004615385565b614bd7565b336000908152600360205260409020546105dd5760405162461bcd60e51b81526004016105d490615b80565b60405180910390fd5b83518551146105fe5760405162461bcd60e51b81526004016105d490615baf565b60005b85518110156109ff57600086828151811061061e5761061e615be6565b60200260200101519050600086838151811061063c5761063c615be6565b60200260200101519050600086848151811061065a5761065a615be6565b60200260200101519050600086858151811061067857610678615be6565b60200260200101519050600086868151811061069657610696615be6565b6020026020010151905060046000866001600160a01b03166001600160a01b031681526020019081526020016000205460001461072d5760405162461bcd60e51b815260206004820152602f60248201527f43616e64696461746520776974682074686520676976656e206164647265737360448201526e20616c72656164792065786973747360881b60648201526084016105d4565b6001600160a01b03851661077c5760405162461bcd60e51b8152602060048201526016602482015275416464726573732063616e6e6f74206265207a65726f60501b60448201526064016105d4565b60008451116107c45760405162461bcd60e51b81526020600482015260146024820152734e616d652063616e6e6f7420626520656d70747960601b60448201526064016105d4565b6006546000906107d5906001615c12565b90506006604051806101200160405280428152602001886001600160a01b03168152602001336001600160a01b0316815260200187815260200160006001600160401b0381111561082857610828614ec0565b604051908082528060200260200182016040528015610851578160200160208202803683370190505b508152602080820185905260408083018990526060808401899052608090930187905284546001818101875560009687529583902085516009909202019081559184015194820180546001600160a01b039687166001600160a01b031991821617909155908401516002830180549190961691161790935581015190919060038201906108de9082615cab565b50608082015180516108fa916004840191602090910190614d5a565b5060a0820151600582015560c082015160068201906109199082615cab565b5060e0820151600782019061092e9082615cab565b5061010091909101516008909101553360009081526003602052604090205460059061095c90600190615d6a565b8154811061096c5761096c615be6565b60009182526020808320600460099093020182018054600181018255908452818420018490556001600160a01b0389168352526040908190208290555181907fb132c360d5c4c80c0d43f46e53b9b874e559e8e8ea4156a5fec2a021f826d00a906109de908890889088908890615d7d565b60405180910390a250505050505080806109f790615dc8565b915050610601565b505050505050565b33600090815260036020526040902054610a335760405162461bcd60e51b81526004016105d490615b80565b600754600090610a44906001615c12565b604080516101208101825242815260208101898152918101839052606081018890526080810186905260a08101859052600060c0820181905260e082018190526101008201889052600780546001810182559152815160089091027fa66cc928b5edb82af9bd49922954155ab7b0942694bea4ce44661d9a8736c68881019182559251939450909283927fa66cc928b5edb82af9bd49922954155ab7b0942694bea4ce44661d9a8736c6890190610afb9082615cab565b506040820151600282015560608201516003820190610b1a9082615cab565b5060808201516004820190610b2f9082615cab565b5060a08201516005820190610b449082615cab565b5060c08201516006828101805460e086015161ffff1990911693151561ff001916939093176101009315158402179055920151600790910155805486908110610b8f57610b8f615be6565b60009182526020808320600460099093020191909101805460018101825590835291200191909155505050505050565b6000610bcc600184615d6a565b9050610be633600090815260036020526040902054151590565b610c025760405162461bcd60e51b81526004016105d490615b80565b60068181548110610c1557610c15615be6565b906000526020600020906009020160050154600003610c465760405162461bcd60e51b81526004016105d490615de1565b60006001600160a01b031660068281548110610c6457610c64615be6565b60009182526020909120600260099092020101546001600160a01b031614610d1a5760405162461bcd60e51b815260206004820152605760248201527f41732074686520636f6d70616e7920686173206265656e20616c72656164792060448201527f61737369676e65642c20596f752063616e6e6f74206f7665722077726974652060648201527f63757272656e7420636f6d70616e792064657461696c73000000000000000000608482015260a4016105d4565b8160068281548110610d2e57610d2e615be6565b60009182526020918290206009919091020160020180546001600160a01b0319166001600160a01b03938416179055604051918416825282917f1004bf4098083445cd4ac13954fdcea1d9530a61f6f2a7d5a628bea6141eb17c910160405180910390a2505050565b6000610da4600188615d6a565b9050610dbe33600090815260036020526040902054151590565b610dda5760405162461bcd60e51b81526004016105d490615b80565b60068181548110610ded57610ded615be6565b906000526020600020906009020160050154600003610e1e5760405162461bcd60e51b81526004016105d490615de1565b336001600160a01b031660068281548110610e3b57610e3b615be6565b60009182526020909120600260099092020101546001600160a01b031614610ebf5760405162461bcd60e51b815260206004820152603160248201527f596f7520646f206e6f742068617665207065726d697373696f6e20746f206564604482015270697420746869732063616e64696461746560781b60648201526084016105d4565b8560068281548110610ed357610ed3615be6565b90600052602060002090600902016003019081610ef09190615cab565b508460068281548110610f0557610f05615be6565b90600052602060002090600902016006019081610f229190615cab565b508360068281548110610f3757610f37615be6565b90600052602060002090600902016007019081610f549190615cab565b508260068281548110610f6957610f69615be6565b9060005260206000209060090201600801819055508160068281548110610f9257610f92615be6565b906000526020600020906009020160020160006101000a8154816001600160a01b0302191690836001600160a01b03160217905550807fbdb27b8859f11d297edb4d29bc56f12a3d84d3a4d7f5668d62acf04df78789b48787878787604051610fff959493929190615e27565b60405180910390a250505050505050565b61101861360d565b61105d5760405162461bcd60e51b815260206004820152601660248201527513db9b1e481d995c9a599a595c8818d85b8818d85b1b60521b60448201526064016105d4565b6007548211156110a55760405162461bcd60e51b8152602060048201526013602482015272125b9d985b1a5908191bd8dd5b595b9d081251606a1b60448201526064016105d4565b60006110b2600184615d6a565b90506000600782815481106110c9576110c9615be6565b90600052602060002090600802019050806002015460000361113b5760405162461bcd60e51b815260206004820152602560248201527f446f63756d656e74207769746820676976656e20494420646f6573206e6f7420604482015264195e1a5cdd60da1b60648201526084016105d4565b600681015460ff1615801561115a57506006810154610100900460ff16155b6111cc5760405162461bcd60e51b815260206004820152603760248201527f446f63756d656e74207769746820676976656e20494420697320616c7265616460448201527f79207665726966696564206f722063616e63656c6c656400000000000000000060648201526084016105d4565b82156112135760068101805461ff00191661010017905560405184907f7b4845702fcfeef348208aa5c3ef0909d12e56c50c288cdba03c5462cfd921b590600090a261124e565b60068101805460ff1916600117905560405184907f4b93fd5160fbc8b35d08aff650902cf41c86e6df325a3eabab5bcca811976cf790600090a25b50505050565b6005818154811061126457600080fd5b60009182526020909120600990910201805460018201546002830180549294506001600160a01b03909116929161129a90615c2b565b80601f01602080910402602001604051908101604052809291908181526020018280546112c690615c2b565b80156113135780601f106112e857610100808354040283529160200191611313565b820191906000526020600020905b8154815290600101906020018083116112f657829003601f168201915b50505050509080600301549080600501805461132e90615c2b565b80601f016020809104026020016040519081016040528092919081815260200182805461135a90615c2b565b80156113a75780601f1061137c576101008083540402835291602001916113a7565b820191906000526020600020905b81548152906001019060200180831161138a57829003601f168201915b5050505050908060060154908060070180546113c290615c2b565b80601f01602080910402602001604051908101604052809291908181526020018280546113ee90615c2b565b801561143b5780601f106114105761010080835404028352916020019161143b565b820191906000526020600020905b81548152906001019060200180831161141e57829003601f168201915b50505050509080600801805461145090615c2b565b80601f016020809104026020016040519081016040528092919081815260200182805461147c90615c2b565b80156114c95780601f1061149e576101008083540402835291602001916114c9565b820191906000526020600020905b8154815290600101906020018083116114ac57829003601f168201915b5050505050905088565b60606006805480602002602001604051908101604052809291908181526020016000905b8282101561177c5760008481526020908190206040805161012081018252600986029092018054835260018101546001600160a01b039081169484019490945260028101549093169082015260038201805491929160608401919061155b90615c2b565b80601f016020809104026020016040519081016040528092919081815260200182805461158790615c2b565b80156115d45780601f106115a9576101008083540402835291602001916115d4565b820191906000526020600020905b8154815290600101906020018083116115b757829003601f168201915b505050505081526020016004820180548060200260200160405190810160405280929190818152602001828054801561162c57602002820191906000526020600020905b815481526020019060010190808311611618575b505050505081526020016005820154815260200160068201805461164f90615c2b565b80601f016020809104026020016040519081016040528092919081815260200182805461167b90615c2b565b80156116c85780601f1061169d576101008083540402835291602001916116c8565b820191906000526020600020905b8154815290600101906020018083116116ab57829003601f168201915b505050505081526020016007820180546116e190615c2b565b80601f016020809104026020016040519081016040528092919081815260200182805461170d90615c2b565b801561175a5780601f1061172f5761010080835404028352916020019161175a565b820191906000526020600020905b81548152906001019060200180831161173d57829003601f168201915b50505050508152602001600882015481525050815260200190600101906114f7565b50505050905090565b6006818154811061179557600080fd5b600091825260209091206009909102018054600182015460028301546003840180549395506001600160a01b039283169492909116926117d490615c2b565b80601f016020809104026020016040519081016040528092919081815260200182805461180090615c2b565b801561184d5780601f106118225761010080835404028352916020019161184d565b820191906000526020600020905b81548152906001019060200180831161183057829003601f168201915b50505050509080600501549080600601805461186890615c2b565b80601f016020809104026020016040519081016040528092919081815260200182805461189490615c2b565b80156118e15780601f106118b6576101008083540402835291602001916118e1565b820191906000526020600020905b8154815290600101906020018083116118c457829003601f168201915b5050505050908060070180546118f690615c2b565b80601f016020809104026020016040519081016040528092919081815260200182805461192290615c2b565b801561196f5780601f106119445761010080835404028352916020019161196f565b820191906000526020600020905b81548152906001019060200180831161195257829003601f168201915b5050505050908060080154905088565b6005546060908211156119a45760405162461bcd60e51b81526004016105d490615e83565b60006119b1600184615d6a565b90506000600582815481106119c8576119c8615be6565b9060005260206000209060090201600401805480602002602001604051908101604052809291908181526020018280548015611a2357602002820191906000526020600020905b815481526020019060010190808311611a0f575b50505050509050600081516001600160401b03811115611a4557611a45614ec0565b604051908082528060200260200182016040528015611a7e57816020015b611a6b614da5565b815260200190600190039081611a635790505b50905060005b8251811015611d645760066001848381518110611aa357611aa3615be6565b6020026020010151611ab59190615d6a565b81548110611ac557611ac5615be6565b6000918252602091829020604080516101208101825260099093029091018054835260018101546001600160a01b0390811694840194909452600281015490931690820152600382018054919291606084019190611b2290615c2b565b80601f0160208091040260200160405190810160405280929190818152602001828054611b4e90615c2b565b8015611b9b5780601f10611b7057610100808354040283529160200191611b9b565b820191906000526020600020905b815481529060010190602001808311611b7e57829003601f168201915b5050505050815260200160048201805480602002602001604051908101604052809291908181526020018280548015611bf357602002820191906000526020600020905b815481526020019060010190808311611bdf575b5050505050815260200160058201548152602001600682018054611c1690615c2b565b80601f0160208091040260200160405190810160405280929190818152602001828054611c4290615c2b565b8015611c8f5780601f10611c6457610100808354040283529160200191611c8f565b820191906000526020600020905b815481529060010190602001808311611c7257829003601f168201915b50505050508152602001600782018054611ca890615c2b565b80601f0160208091040260200160405190810160405280929190818152602001828054611cd490615c2b565b8015611d215780601f10611cf657610100808354040283529160200191611d21565b820191906000526020600020905b815481529060010190602001808311611d0457829003601f168201915b50505050508152602001600882015481525050828281518110611d4657611d46615be6565b60200260200101819052508080611d5c90615dc8565b915050611a84565b506006805480602002602001604051908101604052809291908181526020016000905b8282101561200c5760008481526020908190206040805161012081018252600986029092018054835260018101546001600160a01b0390811694840194909452600281015490931690820152600382018054919291606084019190611deb90615c2b565b80601f0160208091040260200160405190810160405280929190818152602001828054611e1790615c2b565b8015611e645780601f10611e3957610100808354040283529160200191611e64565b820191906000526020600020905b815481529060010190602001808311611e4757829003601f168201915b5050505050815260200160048201805480602002602001604051908101604052809291908181526020018280548015611ebc57602002820191906000526020600020905b815481526020019060010190808311611ea8575b5050505050815260200160058201548152602001600682018054611edf90615c2b565b80601f0160208091040260200160405190810160405280929190818152602001828054611f0b90615c2b565b8015611f585780601f10611f2d57610100808354040283529160200191611f58565b820191906000526020600020905b815481529060010190602001808311611f3b57829003601f168201915b50505050508152602001600782018054611f7190615c2b565b80601f0160208091040260200160405190810160405280929190818152602001828054611f9d90615c2b565b8015611fea5780601f10611fbf57610100808354040283529160200191611fea565b820191906000526020600020905b815481529060010190602001808311611fcd57829003601f168201915b5050505050815260200160088201548152505081526020019060010190611d87565b505050509350505050919050565b612022614da5565b6006548211156120445760405162461bcd60e51b81526004016105d490615eaf565b6000612051600184615d6a565b905060006006828154811061206857612068615be6565b6000918252602091829020604080516101208101825260099093029091018054835260018101546001600160a01b03908116948401949094526002810154909316908201526003820180549192916060840191906120c590615c2b565b80601f01602080910402602001604051908101604052809291908181526020018280546120f190615c2b565b801561213e5780601f106121135761010080835404028352916020019161213e565b820191906000526020600020905b81548152906001019060200180831161212157829003601f168201915b505050505081526020016004820180548060200260200160405190810160405280929190818152602001828054801561219657602002820191906000526020600020905b815481526020019060010190808311612182575b50505050508152602001600582015481526020016006820180546121b990615c2b565b80601f01602080910402602001604051908101604052809291908181526020018280546121e590615c2b565b80156122325780601f1061220757610100808354040283529160200191612232565b820191906000526020600020905b81548152906001019060200180831161221557829003601f168201915b5050505050815260200160078201805461224b90615c2b565b80601f016020809104026020016040519081016040528092919081815260200182805461227790615c2b565b80156122c45780601f10612299576101008083540402835291602001916122c4565b820191906000526020600020905b8154815290600101906020018083116122a757829003601f168201915b5050505050815260200160088201548152505090508060a001516000036122fd5760405162461bcd60e51b81526004016105d490615de1565b9392505050565b60606005805480602002602001604051908101604052809291908181526020016000905b8282101561177c5760008481526020908190206040805161012081018252600986029092018054835260018101546001600160a01b0316938301939093526002830180549293929184019161237c90615c2b565b80601f01602080910402602001604051908101604052809291908181526020018280546123a890615c2b565b80156123f55780601f106123ca576101008083540402835291602001916123f5565b820191906000526020600020905b8154815290600101906020018083116123d857829003601f168201915b50505050508152602001600382015481526020016004820180548060200260200160405190810160405280929190818152602001828054801561245757602002820191906000526020600020905b815481526020019060010190808311612443575b5050505050815260200160058201805461247090615c2b565b80601f016020809104026020016040519081016040528092919081815260200182805461249c90615c2b565b80156124e95780601f106124be576101008083540402835291602001916124e9565b820191906000526020600020905b8154815290600101906020018083116124cc57829003601f168201915b505050505081526020016006820154815260200160078201805461250c90615c2b565b80601f016020809104026020016040519081016040528092919081815260200182805461253890615c2b565b80156125855780601f1061255a57610100808354040283529160200191612585565b820191906000526020600020905b81548152906001019060200180831161256857829003601f168201915b5050505050815260200160088201805461259e90615c2b565b80601f01602080910402602001604051908101604052809291908181526020018280546125ca90615c2b565b80156126175780601f106125ec57610100808354040283529160200191612617565b820191906000526020600020905b8154815290600101906020018083116125fa57829003601f168201915b50505050508152505081526020019060010190612328565b612637614c47565b80518251146126585760405162461bcd60e51b81526004016105d490615baf565b60005b825181101561291a57600083828151811061267857612678615be6565b60200260200101519050600083838151811061269657612696615be6565b6020026020010151905060006001600160a01b0316826001600160a01b0316036126f45760405162461bcd60e51b815260206004820152600f60248201526e496e76616c6964206164647265737360881b60448201526064016105d4565b6001600160a01b0381166128435760005b60015481101561283d57826001600160a01b03166001828154811061272c5761272c615be6565b6000918252602090912001546001600160a01b03160361282b5760018054612755908290615d6a565b8154811061276557612765615be6565b600091825260209091200154600180546001600160a01b03909216918390811061279157612791615be6565b9060005260206000200160006101000a8154816001600160a01b0302191690836001600160a01b0316021790555060018054806127d0576127d0615edd565b600082815260208120820160001990810180546001600160a01b03191690559091019091556040516001600160a01b038516917f44a3cd4eb5cc5748f6169df057b1cb2ae4c383e87cd94663c430e095d4cba42491a261283d565b8061283581615dc8565b915050612705565b50612905565b60005b60015481101561290357826001600160a01b03166001828154811061286d5761286d615be6565b6000918252602090912001546001600160a01b0316036128f157816001828154811061289b5761289b615be6565b6000918252602082200180546001600160a01b0319166001600160a01b03938416179055604051848316928616917f50d741fe04ad9863c69d1406658f6ec7c4f5e48ec2faf966a36a3e47fc05c9d991a3612903565b806128fb81615dc8565b915050612846565b505b5050808061291290615dc8565b91505061265b565b505050565b6129776040518061012001604052806000815260200160006001600160a01b03168152602001606081526020016000815260200160608152602001606081526020016000815260200160608152602001606081525090565b6005548211156129995760405162461bcd60e51b81526004016105d490615e83565b60006129a6600184615d6a565b90506000600582815481106129bd576129bd615be6565b906000526020600020906009020190508060030154600003612a2d5760405162461bcd60e51b8152602060048201526024808201527f436f6d70616e79207769746820676976656e20494420646f6573206e6f7420656044820152631e1a5cdd60e21b60648201526084016105d4565b60408051610120810182528254815260018301546001600160a01b03166020820152600283018054919284929084019190612a6790615c2b565b80601f0160208091040260200160405190810160405280929190818152602001828054612a9390615c2b565b8015612ae05780601f10612ab557610100808354040283529160200191612ae0565b820191906000526020600020905b815481529060010190602001808311612ac357829003601f168201915b505050505081526020016003820154815260200160048201805480602002602001604051908101604052809291908181526020018280548015612b4257602002820191906000526020600020905b815481526020019060010190808311612b2e575b50505050508152602001600582018054612b5b90615c2b565b80601f0160208091040260200160405190810160405280929190818152602001828054612b8790615c2b565b8015612bd45780601f10612ba957610100808354040283529160200191612bd4565b820191906000526020600020905b815481529060010190602001808311612bb757829003601f168201915b5050505050815260200160068201548152602001600782018054612bf790615c2b565b80601f0160208091040260200160405190810160405280929190818152602001828054612c2390615c2b565b8015612c705780601f10612c4557610100808354040283529160200191612c70565b820191906000526020600020905b815481529060010190602001808311612c5357829003601f168201915b50505050508152602001600882018054612c8990615c2b565b80601f0160208091040260200160405190810160405280929190818152602001828054612cb590615c2b565b8015612d025780601f10612cd757610100808354040283529160200191612d02565b820191906000526020600020905b815481529060010190602001808311612ce557829003601f168201915b50505050508152505092505050919050565b612d1c61360d565b80612d3157506000546001600160a01b031633145b612d4d5760405162461bcd60e51b81526004016105d490615ef3565b6000815111612d9e5760405162461bcd60e51b815260206004820152601760248201527f4e6f20636f6d70616e79204944732070726f766964656400000000000000000060448201526064016105d4565b60005b8151811015612ed0576000828281518110612dbe57612dbe615be6565b60200260200101519050600580549050811115612ded5760405162461bcd60e51b81526004016105d490615e83565b6000612dfa600183615d6a565b60405190915082907f028fe2791b514c47642f0d652f7c237752aea1929ed16396ef24b45eb7e2b31590600090a260058181548110612e3b57612e3b615be6565b6000918252602082206009909102018181556001810180546001600160a01b031916905590612e6d6002830182614e03565b6003820160009055600482016000612e859190614e3d565b612e93600583016000614e03565b6006820160009055600782016000612eab9190614e03565b612eb9600883016000614e03565b505050508080612ec890615dc8565b915050612da1565b5050565b600654606090821115612ef95760405162461bcd60e51b81526004016105d490615eaf565b6000612f06600184615d6a565b9050600060068281548110612f1d57612f1d615be6565b906000526020600020906009020190508060050154600003612f515760405162461bcd60e51b81526004016105d490615de1565b600081600401805480602002602001604051908101604052809291908181526020018280548015612fa157602002820191906000526020600020905b815481526020019060010190808311612f8d575b50505050509050600081516001600160401b03811115612fc357612fc3614ec0565b604051908082528060200260200182016040528015612ffc57816020015b612fe9614e5b565b815260200190600190039081612fe15790505b50905060005b825181101561330957600783828151811061301f5761301f615be6565b60200260200101518154811061303757613037615be6565b9060005260206000209060080201604051806101200160405290816000820154815260200160018201805461306b90615c2b565b80601f016020809104026020016040519081016040528092919081815260200182805461309790615c2b565b80156130e45780601f106130b9576101008083540402835291602001916130e4565b820191906000526020600020905b8154815290600101906020018083116130c757829003601f168201915b505050505081526020016002820154815260200160038201805461310790615c2b565b80601f016020809104026020016040519081016040528092919081815260200182805461313390615c2b565b80156131805780601f1061315557610100808354040283529160200191613180565b820191906000526020600020905b81548152906001019060200180831161316357829003601f168201915b5050505050815260200160048201805461319990615c2b565b80601f01602080910402602001604051908101604052809291908181526020018280546131c590615c2b565b80156132125780601f106131e757610100808354040283529160200191613212565b820191906000526020600020905b8154815290600101906020018083116131f557829003601f168201915b5050505050815260200160058201805461322b90615c2b565b80601f016020809104026020016040519081016040528092919081815260200182805461325790615c2b565b80156132a45780601f10613279576101008083540402835291602001916132a4565b820191906000526020600020905b81548152906001019060200180831161328757829003601f168201915b5050509183525050600682015460ff80821615156020840152610100909104161515604082015260079091015460609091015282518390839081106132eb576132eb615be6565b6020026020010181905250808061330190615dc8565b915050613002565b506007805480602002602001604051908101604052809291908181526020016000905b828210156135ea5783829060005260206000209060080201604051806101200160405290816000820154815260200160018201805461336a90615c2b565b80601f016020809104026020016040519081016040528092919081815260200182805461339690615c2b565b80156133e35780601f106133b8576101008083540402835291602001916133e3565b820191906000526020600020905b8154815290600101906020018083116133c657829003601f168201915b505050505081526020016002820154815260200160038201805461340690615c2b565b80601f016020809104026020016040519081016040528092919081815260200182805461343290615c2b565b801561347f5780601f106134545761010080835404028352916020019161347f565b820191906000526020600020905b81548152906001019060200180831161346257829003601f168201915b5050505050815260200160048201805461349890615c2b565b80601f01602080910402602001604051908101604052809291908181526020018280546134c490615c2b565b80156135115780601f106134e657610100808354040283529160200191613511565b820191906000526020600020905b8154815290600101906020018083116134f457829003601f168201915b5050505050815260200160058201805461352a90615c2b565b80601f016020809104026020016040519081016040528092919081815260200182805461355690615c2b565b80156135a35780601f10613578576101008083540402835291602001916135a3565b820191906000526020600020905b81548152906001019060200180831161358657829003601f168201915b5050509183525050600682015460ff80821615156020808501919091526101009092041615156040830152600790920154606090910152908252600192909201910161332c565b50505050945050505050919050565b613601614c47565b61360b6000614ca1565b565b600061361833614cf1565b905090565b60606007805480602002602001604051908101604052809291908181526020016000905b8282101561177c5783829060005260206000209060080201604051806101200160405290816000820154815260200160018201805461367f90615c2b565b80601f01602080910402602001604051908101604052809291908181526020018280546136ab90615c2b565b80156136f85780601f106136cd576101008083540402835291602001916136f8565b820191906000526020600020905b8154815290600101906020018083116136db57829003601f168201915b505050505081526020016002820154815260200160038201805461371b90615c2b565b80601f016020809104026020016040519081016040528092919081815260200182805461374790615c2b565b80156137945780601f1061376957610100808354040283529160200191613794565b820191906000526020600020905b81548152906001019060200180831161377757829003601f168201915b505050505081526020016004820180546137ad90615c2b565b80601f01602080910402602001604051908101604052809291908181526020018280546137d990615c2b565b80156138265780601f106137fb57610100808354040283529160200191613826565b820191906000526020600020905b81548152906001019060200180831161380957829003601f168201915b5050505050815260200160058201805461383f90615c2b565b80601f016020809104026020016040519081016040528092919081815260200182805461386b90615c2b565b80156138b85780601f1061388d576101008083540402835291602001916138b8565b820191906000526020600020905b81548152906001019060200180831161389b57829003601f168201915b5050509183525050600682015460ff808216151560208085019190915261010090920416151560408301526007909201546060909101529082526001929092019101613641565b6006546060908211156139245760405162461bcd60e51b81526004016105d490615eaf565b6000613931600184615d6a565b905060006006828154811061394857613948615be6565b90600052602060002090600902019050806005015460000361397c5760405162461bcd60e51b81526004016105d490615de1565b6000816004018054806020026020016040519081016040528092919081815260200182805480156139cc57602002820191906000526020600020905b8154815260200190600101908083116139b8575b50505050509050600081516001600160401b038111156139ee576139ee614ec0565b604051908082528060200260200182016040528015613a2757816020015b613a14614e5b565b815260200190600190039081613a0c5790505b50905060005b8251811015613d405760076001848381518110613a4c57613a4c615be6565b6020026020010151613a5e9190615d6a565b81548110613a6e57613a6e615be6565b90600052602060002090600802016040518061012001604052908160008201548152602001600182018054613aa290615c2b565b80601f0160208091040260200160405190810160405280929190818152602001828054613ace90615c2b565b8015613b1b5780601f10613af057610100808354040283529160200191613b1b565b820191906000526020600020905b815481529060010190602001808311613afe57829003601f168201915b5050505050815260200160028201548152602001600382018054613b3e90615c2b565b80601f0160208091040260200160405190810160405280929190818152602001828054613b6a90615c2b565b8015613bb75780601f10613b8c57610100808354040283529160200191613bb7565b820191906000526020600020905b815481529060010190602001808311613b9a57829003601f168201915b50505050508152602001600482018054613bd090615c2b565b80601f0160208091040260200160405190810160405280929190818152602001828054613bfc90615c2b565b8015613c495780601f10613c1e57610100808354040283529160200191613c49565b820191906000526020600020905b815481529060010190602001808311613c2c57829003601f168201915b50505050508152602001600582018054613c6290615c2b565b80601f0160208091040260200160405190810160405280929190818152602001828054613c8e90615c2b565b8015613cdb5780601f10613cb057610100808354040283529160200191613cdb565b820191906000526020600020905b815481529060010190602001808311613cbe57829003601f168201915b5050509183525050600682015460ff8082161515602084015261010090910416151560408201526007909101546060909101528251839083908110613d2257613d22615be6565b60200260200101819052508080613d3890615dc8565b915050613a2d565b506007805480602002602001604051908101604052809291908181526020016000905b828210156135ea57838290600052602060002090600802016040518061012001604052908160008201548152602001600182018054613da190615c2b565b80601f0160208091040260200160405190810160405280929190818152602001828054613dcd90615c2b565b8015613e1a5780601f10613def57610100808354040283529160200191613e1a565b820191906000526020600020905b815481529060010190602001808311613dfd57829003601f168201915b5050505050815260200160028201548152602001600382018054613e3d90615c2b565b80601f0160208091040260200160405190810160405280929190818152602001828054613e6990615c2b565b8015613eb65780601f10613e8b57610100808354040283529160200191613eb6565b820191906000526020600020905b815481529060010190602001808311613e9957829003601f168201915b50505050508152602001600482018054613ecf90615c2b565b80601f0160208091040260200160405190810160405280929190818152602001828054613efb90615c2b565b8015613f485780601f10613f1d57610100808354040283529160200191613f48565b820191906000526020600020905b815481529060010190602001808311613f2b57829003601f168201915b50505050508152602001600582018054613f6190615c2b565b80601f0160208091040260200160405190810160405280929190818152602001828054613f8d90615c2b565b8015613fda5780601f10613faf57610100808354040283529160200191613fda565b820191906000526020600020905b815481529060010190602001808311613fbd57829003601f168201915b5050509183525050600682015460ff808216151560208085019190915261010090920416151560408301526007909201546060909101529082526001929092019101613d63565b606061402b614c47565b600180548060200260200160405190810160405280929190818152602001828054801561408157602002820191906000526020600020905b81546001600160a01b03168152600190910190602001808311614063575b5050505050905090565b6001818154811061409b57600080fd5b6000918252602090912001546001600160a01b0316905081565b6140bd614c47565b60008151116141045760405162461bcd60e51b8152602060048201526013602482015272139bc81d995c9a599a595c9cc81d1bc8185919606a1b60448201526064016105d4565b60025481516001546141169190615c12565b11156141705760405162461bcd60e51b815260206004820152602360248201527f45786365656473206d6178696d756d206e756d626572206f662076657269666960448201526265727360e81b60648201526084016105d4565b60005b8151811015612ed057600082828151811061419057614190615be6565b6020026020010151905060006001600160a01b0316816001600160a01b0316036141ee5760405162461bcd60e51b815260206004820152600f60248201526e496e76616c6964206164647265737360881b60448201526064016105d4565b60018054808201825560009182527fb10e2d527612073b26eecdfd717e6a320cf44b4afac2b0732d9fcbe2b7fa0cf60180546001600160a01b0319166001600160a01b03841690811790915560405190917f6d05492139c5ea989514a5d2150c028041e5c087e2a39967f67dc7d2655adb8191a2508061426d81615dc8565b915050614173565b336000908152600360205260409020546142a15760405162461bcd60e51b81526004016105d490615b80565b80518251146142c25760405162461bcd60e51b81526004016105d490615baf565b60005b825181101561291a576000836142dc600184615d6a565b815181106142ec576142ec615be6565b602002602001015190506000836001846143069190615d6a565b8151811061431657614316615be6565b602002602001015190506006828154811061433357614333615be6565b9060005260206000209060090201600501546000036143645760405162461bcd60e51b81526004016105d490615de1565b6000614371600183615d6a565b60408051848152602081018690529192507f61656cb8d1dc6013bb7713ae498059b6f4df3c60e832e655a6765c0c54863008910160405180910390a1600683815481106143c0576143c0615be6565b906000526020600020906009020160040181815481106143e2576143e2615be6565b906000526020600020016000905550505080806143fe90615dc8565b9150506142c5565b6007818154811061441657600080fd5b6000918252602090912060089091020180546001820180549193509061443b90615c2b565b80601f016020809104026020016040519081016040528092919081815260200182805461446790615c2b565b80156144b45780601f10614489576101008083540402835291602001916144b4565b820191906000526020600020905b81548152906001019060200180831161449757829003601f168201915b5050505050908060020154908060030180546144cf90615c2b565b80601f01602080910402602001604051908101604052809291908181526020018280546144fb90615c2b565b80156145485780601f1061451d57610100808354040283529160200191614548565b820191906000526020600020905b81548152906001019060200180831161452b57829003601f168201915b50505050509080600401805461455d90615c2b565b80601f016020809104026020016040519081016040528092919081815260200182805461458990615c2b565b80156145d65780601f106145ab576101008083540402835291602001916145d6565b820191906000526020600020905b8154815290600101906020018083116145b957829003601f168201915b5050505050908060050180546145eb90615c2b565b80601f016020809104026020016040519081016040528092919081815260200182805461461790615c2b565b80156146645780601f1061463957610100808354040283529160200191614664565b820191906000526020600020905b81548152906001019060200180831161464757829003601f168201915b505050506006830154600790930154919260ff8082169361010090920416915089565b61468f61360d565b806146a457506000546001600160a01b031633145b6146c05760405162461bcd60e51b81526004016105d490615ef3565b845186511480156146d2575083518651145b80156146df575082518651145b80156146ec575081518651145b80156146f9575080518651145b6147155760405162461bcd60e51b81526004016105d490615baf565b60005b86518110156149bf57600087828151811061473557614735615be6565b60200260200101519050600087838151811061475357614753615be6565b60200260200101519050600087848151811061477157614771615be6565b60200260200101519050600087858151811061478f5761478f615be6565b6020026020010151905060008786815181106147ad576147ad615be6565b6020026020010151905060008787815181106147cb576147cb615be6565b60200260200101519050600060058054905060016147e99190615c12565b90506005604051806101200160405280428152602001896001600160a01b0316815260200188815260200183815260200160006001600160401b0381111561483357614833614ec0565b60405190808252806020026020018201604052801561485c578160200160208202803683370190505b5081526020808201899052604080830189905260608301889052608090920186905283546001808201865560009586529482902084516009909202019081559083015193810180546001600160a01b0319166001600160a01b039095169490941790935581015190919060028201906148d59082615cab565b5060608201516003820155608082015180516148fb916004840191602090910190614d5a565b5060a082015160058201906149109082615cab565b5060c0820151600682015560e0820151600782019061492f9082615cab565b5061010082015160088201906149459082615cab565b5050506001600160a01b038716600081815260036020526040908190208390555182907fc9c99e7b42f7789f7ac090a92a6e5f98c03ad412be267f7fb9bb60b571b690879061499d908a908a908a908a908a90615f2a565b60405180910390a35050505050505080806149b790615dc8565b915050614718565b50505050505050565b6149d061360d565b806149e957503360009081526003602052604090205415155b614a055760405162461bcd60e51b81526004016105d490615ef3565b60005b8151811015612ed057600082614a1f600184615d6a565b81518110614a2f57614a2f615be6565b6020026020010151905060068181548110614a4c57614a4c615be6565b906000526020600020906009020160050154600003614a7d5760405162461bcd60e51b81526004016105d490615de1565b6000614a8a600183615d6a565b60405190915082907f294c5a9bc8a39e6e06502bc8da429980f6c7b0990d75b682c12cb8705e3ace8590600090a260068181548110614acb57614acb615be6565b6000918252602082206009909102018181556001810180546001600160a01b0319908116909155600282018054909116905590614b0b6003830182614e03565b614b19600483016000614e3d565b6005820160009055600682016000614b319190614e03565b614b3f600783016000614e03565b6008820160009055505050508080614b5690615dc8565b915050614a08565b614b66614c47565b6001600160a01b038116614bcb5760405162461bcd60e51b815260206004820152602660248201527f4f776e61626c653a206e6577206f776e657220697320746865207a65726f206160448201526564647265737360d01b60648201526084016105d4565b614bd481614ca1565b50565b614bdf614c47565b60008111614c425760405162461bcd60e51b815260206004820152602a60248201527f4d6178696d756d207665726966696572732073686f756c6420626520677265616044820152690746572207468616e20360b41b60648201526084016105d4565b600255565b6000546001600160a01b0316331461360b5760405162461bcd60e51b815260206004820181905260248201527f4f776e61626c653a2063616c6c6572206973206e6f7420746865206f776e657260448201526064016105d4565b600080546001600160a01b038381166001600160a01b0319831681178455604051919092169283917f8be0079c531659141344cd1fd0a4f28419497f9722a3daafe3b4186f6b6457e09190a35050565b6000805b600154811015614d5157826001600160a01b031660018281548110614d1c57614d1c615be6565b6000918252602090912001546001600160a01b031603614d3f5750600192915050565b80614d4981615dc8565b915050614cf5565b50600092915050565b828054828255906000526020600020908101928215614d95579160200282015b82811115614d95578251825591602001919060010190614d7a565b50614da1929150614eab565b5090565b6040518061012001604052806000815260200160006001600160a01b0316815260200160006001600160a01b031681526020016060815260200160608152602001600081526020016060815260200160608152602001600081525090565b508054614e0f90615c2b565b6000825580601f10614e1f575050565b601f016020900490600052602060002090810190614bd49190614eab565b5080546000825590600052602060002090810190614bd49190614eab565b604051806101200160405280600081526020016060815260200160008152602001606081526020016060815260200160608152602001600015158152602001600015158152602001600081525090565b5b80821115614da15760008155600101614eac565b634e487b7160e01b600052604160045260246000fd5b604051601f8201601f191681016001600160401b0381118282101715614efe57614efe614ec0565b604052919050565b60006001600160401b03821115614f1f57614f1f614ec0565b5060051b60200190565b80356001600160a01b0381168114614f4057600080fd5b919050565b600082601f830112614f5657600080fd5b81356020614f6b614f6683614f06565b614ed6565b82815260059290921b84018101918181019086841115614f8a57600080fd5b8286015b84811015614fac57614f9f81614f29565b8352918301918301614f8e565b509695505050505050565b600082601f830112614fc857600080fd5b81356001600160401b03811115614fe157614fe1614ec0565b614ff4601f8201601f1916602001614ed6565b81815284602083860101111561500957600080fd5b816020850160208301376000918101602001919091529392505050565b600082601f83011261503757600080fd5b81356020615047614f6683614f06565b82815260059290921b8401810191818101908684111561506657600080fd5b8286015b84811015614fac5780356001600160401b038111156150895760008081fd5b6150978986838b0101614fb7565b84525091830191830161506a565b600082601f8301126150b657600080fd5b813560206150c6614f6683614f06565b82815260059290921b840181019181810190868411156150e557600080fd5b8286015b84811015614fac57803583529183019183016150e9565b600080600080600060a0868803121561511857600080fd5b85356001600160401b038082111561512f57600080fd5b61513b89838a01614f45565b9650602088013591508082111561515157600080fd5b61515d89838a01615026565b9550604088013591508082111561517357600080fd5b61517f89838a01615026565b9450606088013591508082111561519557600080fd5b6151a189838a01615026565b935060808801359150808211156151b757600080fd5b506151c4888289016150a5565b9150509295509295909350565b600080600080600060a086880312156151e957600080fd5b85356001600160401b038082111561520057600080fd5b61520c89838a01614fb7565b9650602088013591508082111561522257600080fd5b61522e89838a01614fb7565b955060408801359450606088013591508082111561524b57600080fd5b61525789838a01614fb7565b9350608088013591508082111561526d57600080fd5b506151c488828901614fb7565b6000806040838503121561528d57600080fd5b8235915061529d60208401614f29565b90509250929050565b60008060008060008060c087890312156152bf57600080fd5b8635955060208701356001600160401b03808211156152dd57600080fd5b6152e98a838b01614fb7565b965060408901359150808211156152ff57600080fd5b61530b8a838b01614fb7565b9550606089013591508082111561532157600080fd5b5061532e89828a01614fb7565b9350506080870135915061534460a08801614f29565b90509295509295509295565b6000806040838503121561536357600080fd5b823591506020830135801515811461537a57600080fd5b809150509250929050565b60006020828403121561539757600080fd5b5035919050565b6000815180845260005b818110156153c4576020818501810151868301820152016153a8565b506000602082860101526020601f19601f83011685010191505092915050565b8881526001600160a01b03881660208201526101006040820181905260009061540f8382018a61539e565b90508760608401528281036080840152615429818861539e565b90508560a084015282810360c0840152615443818661539e565b905082810360e0840152615457818561539e565b9b9a5050505050505050505050565b600081518084526020808501945080840160005b838110156154965781518752958201959082019060010161547a565b509495945050505050565b60006101208251845260208301516154c460208601826001600160a01b03169052565b5060408301516154df60408601826001600160a01b03169052565b5060608301518160608601526154f78286018261539e565b915050608083015184820360808601526155118282615466565b91505060a083015160a085015260c083015184820360c0860152615535828261539e565b91505060e083015184820360e086015261554f828261539e565b610100948501519590940194909452509092915050565b6000602080830181845280855180835260408601915060408160051b870101925083870160005b828110156155bb57603f198886030184526155a98583516154a1565b9450928501929085019060010161558d565b5092979650505050505050565b8881526001600160a01b03888116602083015287166040820152610100606082018190526000906155fb8382018961539e565b905086608084015282810360a0840152615615818761539e565b905082810360c0840152615629818661539e565b9150508260e08301529998505050505050505050565b6020815260006122fd60208301846154a1565b600061012082518452602083015161567560208601826001600160a01b03169052565b50604083015181604086015261568d8286018261539e565b91505060608301516060850152608083015184820360808601526156b18282615466565b91505060a083015184820360a08601526156cb828261539e565b91505060c083015160c085015260e083015184820360e08601526156ef828261539e565b915050610100808401518583038287015261570a838261539e565b9695505050505050565b6000602080830181845280855180835260408601915060408160051b870101925083870160005b828110156155bb57603f19888603018452615757858351615652565b9450928501929085019060010161573b565b6000806040838503121561577c57600080fd5b82356001600160401b038082111561579357600080fd5b61579f86838701614f45565b935060208501359150808211156157b557600080fd5b506157c285828601614f45565b9150509250929050565b6020815260006122fd6020830184615652565b6000602082840312156157f157600080fd5b81356001600160401b0381111561580757600080fd5b615813848285016150a5565b949350505050565b60006020828403121561582d57600080fd5b6122fd82614f29565b60006020808301818452808551808352604092508286019150828160051b87010184880160005b8381101561592557603f1989840301855281516101208151855288820151818a87015261588c8287018261539e565b9150508782015188860152606080830151868303828801526158ae838261539e565b92505050608080830151868303828801526158c9838261539e565b9250505060a080830151868303828801526158e4838261539e565b9250505060c0808301516158fb8288018215159052565b505060e082810151151590860152610100918201519190940152938601939086019060010161585d565b509098975050505050505050565b6020808252825182820181905260009190848201906040850190845b818110156159745783516001600160a01b03168352928401929184019160010161594f565b50909695505050505050565b60006020828403121561599257600080fd5b81356001600160401b038111156159a857600080fd5b61581384828501614f45565b600080604083850312156159c757600080fd5b82356001600160401b03808211156159de57600080fd5b6159ea868387016150a5565b93506020850135915080821115615a0057600080fd5b506157c2858286016150a5565b60006101208b8352806020840152615a278184018c61539e565b90508960408401528281036060840152615a41818a61539e565b90508281036080840152615a55818961539e565b905082810360a0840152615a69818861539e565b95151560c0840152505091151560e0830152610100909101529695505050505050565b60008060008060008060c08789031215615aa557600080fd5b86356001600160401b0380821115615abc57600080fd5b615ac88a838b01614f45565b97506020890135915080821115615ade57600080fd5b615aea8a838b01615026565b96506040890135915080821115615b0057600080fd5b615b0c8a838b01615026565b95506060890135915080821115615b2257600080fd5b615b2e8a838b016150a5565b94506080890135915080821115615b4457600080fd5b615b508a838b01615026565b935060a0890135915080821115615b6657600080fd5b50615b7389828a01615026565b9150509295509295509295565b60208082526015908201527413db9b1e4818dbdb5c185b9e4818d85b8818d85b1b605a1b604082015260600190565b60208082526018908201527f4d69736d61746368656420696e707574206c656e677468730000000000000000604082015260600190565b634e487b7160e01b600052603260045260246000fd5b634e487b7160e01b600052601160045260246000fd5b80820180821115615c2557615c25615bfc565b92915050565b600181811c90821680615c3f57607f821691505b602082108103615c5f57634e487b7160e01b600052602260045260246000fd5b50919050565b601f82111561291a57600081815260208120601f850160051c81016020861015615c8c5750805b601f850160051c820191505b818110156109ff57828155600101615c98565b81516001600160401b03811115615cc457615cc4614ec0565b615cd881615cd28454615c2b565b84615c65565b602080601f831160018114615d0d5760008415615cf55750858301515b600019600386901b1c1916600185901b1785556109ff565b600085815260208120601f198616915b82811015615d3c57888601518255948401946001909101908401615d1d565b5085821015615d5a5787850151600019600388901b60f8161c191681555b5050505050600190811b01905550565b81810381811115615c2557615c25615bfc565b608081526000615d90608083018761539e565b8281036020840152615da2818761539e565b90508281036040840152615db6818661539e565b91505082606083015295945050505050565b600060018201615dda57615dda615bfc565b5060010190565b60208082526026908201527f43616e646964617465207769746820676976656e20494420646f6573206e6f7460408201526508195e1a5cdd60d21b606082015260800190565b60a081526000615e3a60a083018861539e565b8281036020840152615e4c818861539e565b90508281036040840152615e60818761539e565b606084019590955250506001600160a01b03919091166080909101529392505050565b602080825260129082015271125b9d985b1a590818dbdb5c185b9e48125160721b604082015260600190565b602080825260149082015273125b9d985b1a590818d85b991a59185d1948125160621b604082015260600190565b634e487b7160e01b600052603160045260246000fd5b6020808252601f908201527f4f6e6c79207665726966696572206f72206f776e65722063616e2063616c6c00604082015260600190565b60a081526000615f3d60a083018861539e565b8281036020840152615f4f818861539e565b90508560408401528281036060840152615f69818661539e565b90508281036080840152615f7d818561539e565b9897505050505050505056fea2646970667358221220be70ab7b726238ff7b883247a01b7d38c089f6687f8a5174b9ef3343014c2b2d64736f6c63430008150033",
  "linkReferences": {},
  "deployedLinkReferences": {}
}