{
  "_format": "hh-sol-artifact-1",
  "contractName": "Verification",
  "sourceName": "src/contracts/Verification.sol",
  "abi": [
    {
      "anonymous": false,
      "inputs": [
        {
          "indexed": true,
          "internalType": "uint256",
          "name": "id",
          "type": "uint256"
        },
        {
          "indexed": false,
          "internalType": "string",
          "name": "name",
          "type": "string"
        },
        {
          "indexed": false,
          "internalType": "uint256",
          "name": "date",
          "type": "uint256"
        },
        {
          "indexed": false,
          "internalType": "string",
          "name": "location",
          "type": "string"
        },
        {
          "indexed": false,
          "internalType": "string",
          "name": "email",
          "type": "string"
        },
        {
          "indexed": false,
          "internalType": "string",
          "name": "phoneNumber",
          "type": "string"
        }
      ],
      "name": "CandidateAdded",
      "type": "event"
    },
    {
      "anonymous": false,
      "inputs": [
        {
          "indexed": true,
          "internalType": "uint256",
          "name": "id",
          "type": "uint256"
        },
        {
          "indexed": false,
          "internalType": "address",
          "name": "newCurrentCompany",
          "type": "address"
        }
      ],
      "name": "CandidateCurrentCompanyEdited",
      "type": "event"
    },
    {
      "anonymous": false,
      "inputs": [
        {
          "indexed": true,
          "internalType": "uint256",
          "name": "id",
          "type": "uint256"
        },
        {
          "indexed": false,
          "internalType": "string",
          "name": "name",
          "type": "string"
        },
        {
          "indexed": false,
          "internalType": "uint256",
          "name": "date",
          "type": "uint256"
        },
        {
          "indexed": false,
          "internalType": "string",
          "name": "location",
          "type": "string"
        },
        {
          "indexed": false,
          "internalType": "string",
          "name": "email",
          "type": "string"
        },
        {
          "indexed": false,
          "internalType": "string",
          "name": "phoneNumber",
          "type": "string"
        }
      ],
      "name": "CandidateEdited",
      "type": "event"
    },
    {
      "anonymous": false,
      "inputs": [
        {
          "indexed": true,
          "internalType": "uint256",
          "name": "id",
          "type": "uint256"
        }
      ],
      "name": "CandidateRemoved",
      "type": "event"
    },
    {
      "anonymous": false,
      "inputs": [
        {
          "indexed": true,
          "internalType": "uint256",
          "name": "id",
          "type": "uint256"
        },
        {
          "indexed": true,
          "internalType": "address",
          "name": "companyAddress",
          "type": "address"
        },
        {
          "indexed": false,
          "internalType": "string",
          "name": "name",
          "type": "string"
        },
        {
          "indexed": false,
          "internalType": "uint256",
          "name": "date",
          "type": "uint256"
        },
        {
          "indexed": false,
          "internalType": "string",
          "name": "location",
          "type": "string"
        },
        {
          "indexed": false,
          "internalType": "string",
          "name": "phoneNumber",
          "type": "string"
        },
        {
          "indexed": false,
          "internalType": "string",
          "name": "licenseNumber",
          "type": "string"
        },
        {
          "indexed": false,
          "internalType": "string",
          "name": "email",
          "type": "string"
        }
      ],
      "name": "CompanyAdded",
      "type": "event"
    },
    {
      "anonymous": false,
      "inputs": [
        {
          "indexed": true,
          "internalType": "uint256",
          "name": "id",
          "type": "uint256"
        }
      ],
      "name": "CompanyRemoved",
      "type": "event"
    },
    {
      "anonymous": false,
      "inputs": [
        {
          "indexed": true,
          "internalType": "uint256",
          "name": "id",
          "type": "uint256"
        },
        {
          "indexed": false,
          "internalType": "string",
          "name": "name",
          "type": "string"
        },
        {
          "indexed": false,
          "internalType": "string",
          "name": "cid",
          "type": "string"
        },
        {
          "indexed": false,
          "internalType": "uint256",
          "name": "companyId",
          "type": "uint256"
        },
        {
          "indexed": false,
          "internalType": "uint256",
          "name": "candidateId",
          "type": "uint256"
        },
        {
          "indexed": false,
          "internalType": "uint256",
          "name": "date",
          "type": "uint256"
        },
        {
          "indexed": false,
          "internalType": "string",
          "name": "typeOfDocument",
          "type": "string"
        }
      ],
      "name": "DocumentAdded",
      "type": "event"
    },
    {
      "anonymous": false,
      "inputs": [
        {
          "indexed": false,
          "internalType": "uint256",
          "name": "documentId",
          "type": "uint256"
        },
        {
          "indexed": false,
          "internalType": "uint256",
          "name": "candidateId",
          "type": "uint256"
        },
        {
          "indexed": false,
          "internalType": "uint256",
          "name": "companyId",
          "type": "uint256"
        }
      ],
      "name": "DocumentRemoved",
      "type": "event"
    },
    {
      "anonymous": false,
      "inputs": [
        {
          "indexed": true,
          "internalType": "uint256",
          "name": "id",
          "type": "uint256"
        }
      ],
      "name": "DocumentVerified",
      "type": "event"
    },
    {
      "anonymous": false,
      "inputs": [
        {
          "indexed": true,
          "internalType": "address",
          "name": "previousOwner",
          "type": "address"
        },
        {
          "indexed": true,
          "internalType": "address",
          "name": "newOwner",
          "type": "address"
        }
      ],
      "name": "OwnershipTransferred",
      "type": "event"
    },
    {
      "anonymous": false,
      "inputs": [
        {
          "indexed": true,
          "internalType": "address",
          "name": "verifier",
          "type": "address"
        }
      ],
      "name": "VerifierAdded",
      "type": "event"
    },
    {
      "anonymous": false,
      "inputs": [
        {
          "indexed": true,
          "internalType": "address",
          "name": "verifier",
          "type": "address"
        }
      ],
      "name": "VerifierRemoved",
      "type": "event"
    },
    {
      "anonymous": false,
      "inputs": [
        {
          "indexed": true,
          "internalType": "address",
          "name": "oldVerifier",
          "type": "address"
        },
        {
          "indexed": true,
          "internalType": "address",
          "name": "newVerifier",
          "type": "address"
        }
      ],
      "name": "VerifierReplaced",
      "type": "event"
    },
    {
      "inputs": [
        {
          "internalType": "address[]",
          "name": "_addresses",
          "type": "address[]"
        },
        {
          "internalType": "string[]",
          "name": "_names",
          "type": "string[]"
        },
        {
          "internalType": "string[]",
          "name": "_locations",
          "type": "string[]"
        },
        {
          "internalType": "string[]",
          "name": "_emails",
          "type": "string[]"
        },
        {
          "internalType": "string[]",
          "name": "_phoneNumbers",
          "type": "string[]"
        }
      ],
      "name": "addCandidates",
      "outputs": [],
      "stateMutability": "nonpayable",
      "type": "function"
    },
    {
      "inputs": [
        {
          "internalType": "address[]",
          "name": "_addresses",
          "type": "address[]"
        },
        {
          "internalType": "string[]",
          "name": "_names",
          "type": "string[]"
        },
        {
          "internalType": "string[]",
          "name": "_locations",
          "type": "string[]"
        },
        {
          "internalType": "string[]",
          "name": "_phoneNumbers",
          "type": "string[]"
        },
        {
          "internalType": "string[]",
          "name": "_licenseNumbers",
          "type": "string[]"
        },
        {
          "internalType": "string[]",
          "name": "_emails",
          "type": "string[]"
        }
      ],
      "name": "addCompanies",
      "outputs": [],
      "stateMutability": "nonpayable",
      "type": "function"
    },
    {
      "inputs": [
        {
          "internalType": "string[]",
          "name": "_names",
          "type": "string[]"
        },
        {
          "internalType": "string[]",
          "name": "_cids",
          "type": "string[]"
        },
        {
          "internalType": "uint256[]",
          "name": "_candidateIds",
          "type": "uint256[]"
        },
        {
          "internalType": "string[]",
          "name": "_typesOfDocument",
          "type": "string[]"
        }
      ],
      "name": "addDocuments",
      "outputs": [],
      "stateMutability": "nonpayable",
      "type": "function"
    },
    {
      "inputs": [
        {
          "internalType": "address[]",
          "name": "_verifiers",
          "type": "address[]"
        }
      ],
      "name": "addVerifiers",
      "outputs": [],
      "stateMutability": "nonpayable",
      "type": "function"
    },
    {
      "inputs": [
        {
          "internalType": "address",
          "name": "",
          "type": "address"
        }
      ],
      "name": "candidateAddress",
      "outputs": [
        {
          "internalType": "uint256",
          "name": "",
          "type": "uint256"
        }
      ],
      "stateMutability": "view",
      "type": "function"
    },
    {
      "inputs": [
        {
          "internalType": "uint256",
          "name": "",
          "type": "uint256"
        }
      ],
      "name": "candidates",
      "outputs": [
        {
          "internalType": "uint256",
          "name": "date",
          "type": "uint256"
        },
        {
          "internalType": "address",
          "name": "address_",
          "type": "address"
        },
        {
          "internalType": "address",
          "name": "currentCompany",
          "type": "address"
        },
        {
          "internalType": "string",
          "name": "name",
          "type": "string"
        },
        {
          "internalType": "uint256",
          "name": "Id",
          "type": "uint256"
        },
        {
          "internalType": "string",
          "name": "location",
          "type": "string"
        },
        {
          "internalType": "string",
          "name": "email",
          "type": "string"
        },
        {
          "internalType": "string",
          "name": "phoneNumber",
          "type": "string"
        }
      ],
      "stateMutability": "view",
      "type": "function"
    },
    {
      "inputs": [
        {
          "internalType": "uint256",
          "name": "",
          "type": "uint256"
        }
      ],
      "name": "companies",
      "outputs": [
        {
          "internalType": "uint256",
          "name": "date",
          "type": "uint256"
        },
        {
          "internalType": "address",
          "name": "address_",
          "type": "address"
        },
        {
          "internalType": "string",
          "name": "name",
          "type": "string"
        },
        {
          "internalType": "uint256",
          "name": "Id",
          "type": "uint256"
        },
        {
          "internalType": "string",
          "name": "location",
          "type": "string"
        },
        {
          "internalType": "string",
          "name": "phoneNumber",
          "type": "string"
        },
        {
          "internalType": "string",
          "name": "licenseNumber",
          "type": "string"
        },
        {
          "internalType": "string",
          "name": "email",
          "type": "string"
        }
      ],
      "stateMutability": "view",
      "type": "function"
    },
    {
      "inputs": [
        {
          "internalType": "address",
          "name": "",
          "type": "address"
        }
      ],
      "name": "companyAddress",
      "outputs": [
        {
          "internalType": "uint256",
          "name": "",
          "type": "uint256"
        }
      ],
      "stateMutability": "view",
      "type": "function"
    },
    {
      "inputs": [
        {
          "internalType": "uint256",
          "name": "",
          "type": "uint256"
        },
        {
          "internalType": "uint256",
          "name": "",
          "type": "uint256"
        }
      ],
      "name": "companyCandidateDocuments",
      "outputs": [
        {
          "internalType": "uint256",
          "name": "date",
          "type": "uint256"
        },
        {
          "internalType": "string",
          "name": "name",
          "type": "string"
        },
        {
          "internalType": "uint256",
          "name": "id",
          "type": "uint256"
        },
        {
          "internalType": "string",
          "name": "cid",
          "type": "string"
        },
        {
          "internalType": "string",
          "name": "typeOfDocument",
          "type": "string"
        },
        {
          "internalType": "bool",
          "name": "isVerified",
          "type": "bool"
        },
        {
          "internalType": "uint256",
          "name": "companyId",
          "type": "uint256"
        },
        {
          "internalType": "uint256",
          "name": "candidateId",
          "type": "uint256"
        }
      ],
      "stateMutability": "view",
      "type": "function"
    },
    {
      "inputs": [
        {
          "internalType": "uint256",
          "name": "",
          "type": "uint256"
        }
      ],
      "name": "documents",
      "outputs": [
        {
          "internalType": "uint256",
          "name": "date",
          "type": "uint256"
        },
        {
          "internalType": "string",
          "name": "name",
          "type": "string"
        },
        {
          "internalType": "uint256",
          "name": "id",
          "type": "uint256"
        },
        {
          "internalType": "string",
          "name": "cid",
          "type": "string"
        },
        {
          "internalType": "string",
          "name": "typeOfDocument",
          "type": "string"
        },
        {
          "internalType": "bool",
          "name": "isVerified",
          "type": "bool"
        },
        {
          "internalType": "uint256",
          "name": "companyId",
          "type": "uint256"
        },
        {
          "internalType": "uint256",
          "name": "candidateId",
          "type": "uint256"
        }
      ],
      "stateMutability": "view",
      "type": "function"
    },
    {
      "inputs": [
        {
          "internalType": "uint256",
          "name": "_id",
          "type": "uint256"
        },
        {
          "internalType": "string",
          "name": "_name",
          "type": "string"
        },
        {
          "internalType": "string",
          "name": "_location",
          "type": "string"
        },
        {
          "internalType": "string",
          "name": "_email",
          "type": "string"
        },
        {
          "internalType": "string",
          "name": "_phoneNumber",
          "type": "string"
        }
      ],
      "name": "editCandidate",
      "outputs": [],
      "stateMutability": "nonpayable",
      "type": "function"
    },
    {
      "inputs": [
        {
          "internalType": "uint256",
          "name": "_id",
          "type": "uint256"
        },
        {
          "internalType": "address",
          "name": "_newCurrentCompany",
          "type": "address"
        }
      ],
      "name": "editCandidateCurrentCompany",
      "outputs": [],
      "stateMutability": "nonpayable",
      "type": "function"
    },
    {
      "inputs": [
        {
          "internalType": "uint256",
          "name": "_id",
          "type": "uint256"
        }
      ],
      "name": "getCandidate",
      "outputs": [
        {
          "internalType": "string",
          "name": "",
          "type": "string"
        },
        {
          "internalType": "uint256",
          "name": "",
          "type": "uint256"
        },
        {
          "internalType": "string",
          "name": "",
          "type": "string"
        },
        {
          "internalType": "string",
          "name": "",
          "type": "string"
        },
        {
          "internalType": "string",
          "name": "",
          "type": "string"
        }
      ],
      "stateMutability": "view",
      "type": "function"
    },
    {
      "inputs": [
        {
          "internalType": "uint256",
          "name": "_id",
          "type": "uint256"
        }
      ],
      "name": "getCompany",
      "outputs": [
        {
          "internalType": "address",
          "name": "",
          "type": "address"
        },
        {
          "internalType": "string",
          "name": "",
          "type": "string"
        },
        {
          "internalType": "uint256",
          "name": "",
          "type": "uint256"
        },
        {
          "internalType": "string",
          "name": "",
          "type": "string"
        },
        {
          "internalType": "string",
          "name": "",
          "type": "string"
        },
        {
          "internalType": "string",
          "name": "",
          "type": "string"
        },
        {
          "internalType": "string",
          "name": "",
          "type": "string"
        },
        {
          "internalType": "uint256",
          "name": "",
          "type": "uint256"
        }
      ],
      "stateMutability": "view",
      "type": "function"
    },
    {
      "inputs": [],
      "name": "getCompanyIdOfSender",
      "outputs": [
        {
          "internalType": "uint256",
          "name": "",
          "type": "uint256"
        }
      ],
      "stateMutability": "view",
      "type": "function"
    },
    {
      "inputs": [
        {
          "internalType": "uint256",
          "name": "_id",
          "type": "uint256"
        }
      ],
      "name": "getDocument",
      "outputs": [
        {
          "internalType": "string",
          "name": "",
          "type": "string"
        },
        {
          "internalType": "string",
          "name": "",
          "type": "string"
        },
        {
          "internalType": "bool",
          "name": "",
          "type": "bool"
        },
        {
          "internalType": "uint256",
          "name": "",
          "type": "uint256"
        },
        {
          "internalType": "uint256",
          "name": "",
          "type": "uint256"
        }
      ],
      "stateMutability": "view",
      "type": "function"
    },
    {
      "inputs": [],
      "name": "getOwner",
      "outputs": [
        {
          "internalType": "address",
          "name": "",
          "type": "address"
        }
      ],
      "stateMutability": "view",
      "type": "function"
    },
    {
      "inputs": [],
      "name": "getVerifiers",
      "outputs": [
        {
          "internalType": "address[]",
          "name": "",
          "type": "address[]"
        }
      ],
      "stateMutability": "view",
      "type": "function"
    },
    {
      "inputs": [],
      "name": "maxVerifiers",
      "outputs": [
        {
          "internalType": "uint256",
          "name": "",
          "type": "uint256"
        }
      ],
      "stateMutability": "view",
      "type": "function"
    },
    {
      "inputs": [],
      "name": "numCandidates",
      "outputs": [
        {
          "internalType": "uint256",
          "name": "",
          "type": "uint256"
        }
      ],
      "stateMutability": "view",
      "type": "function"
    },
    {
      "inputs": [],
      "name": "numCompanies",
      "outputs": [
        {
          "internalType": "uint256",
          "name": "",
          "type": "uint256"
        }
      ],
      "stateMutability": "view",
      "type": "function"
    },
    {
      "inputs": [],
      "name": "numDocuments",
      "outputs": [
        {
          "internalType": "uint256",
          "name": "",
          "type": "uint256"
        }
      ],
      "stateMutability": "view",
      "type": "function"
    },
    {
      "inputs": [],
      "name": "owner",
      "outputs": [
        {
          "internalType": "address",
          "name": "",
          "type": "address"
        }
      ],
      "stateMutability": "view",
      "type": "function"
    },
    {
      "inputs": [
        {
          "internalType": "uint256[]",
          "name": "_ids",
          "type": "uint256[]"
        }
      ],
      "name": "removeCandidates",
      "outputs": [],
      "stateMutability": "nonpayable",
      "type": "function"
    },
    {
      "inputs": [
        {
          "internalType": "uint256[]",
          "name": "_ids",
          "type": "uint256[]"
        }
      ],
      "name": "removeCompanies",
      "outputs": [],
      "stateMutability": "nonpayable",
      "type": "function"
    },
    {
      "inputs": [
        {
          "internalType": "uint256[]",
          "name": "_candidateIds",
          "type": "uint256[]"
        },
        {
          "internalType": "uint256[]",
          "name": "_documentIds",
          "type": "uint256[]"
        }
      ],
      "name": "removeDocuments",
      "outputs": [],
      "stateMutability": "nonpayable",
      "type": "function"
    },
    {
      "inputs": [],
      "name": "renounceOwnership",
      "outputs": [],
      "stateMutability": "nonpayable",
      "type": "function"
    },
    {
      "inputs": [
        {
          "internalType": "address[]",
          "name": "_oldVerifiers",
          "type": "address[]"
        },
        {
          "internalType": "address[]",
          "name": "_newVerifiers",
          "type": "address[]"
        }
      ],
      "name": "replaceVerifiers",
      "outputs": [],
      "stateMutability": "nonpayable",
      "type": "function"
    },
    {
      "inputs": [
        {
          "internalType": "uint256",
          "name": "_maxVerifiers",
          "type": "uint256"
        }
      ],
      "name": "setMaxVerifiers",
      "outputs": [],
      "stateMutability": "nonpayable",
      "type": "function"
    },
    {
      "inputs": [
        {
          "internalType": "address",
          "name": "newOwner",
          "type": "address"
        }
      ],
      "name": "transferOwnership",
      "outputs": [],
      "stateMutability": "nonpayable",
      "type": "function"
    },
    {
      "inputs": [
        {
          "internalType": "uint256",
          "name": "",
          "type": "uint256"
        }
      ],
      "name": "verifiers",
      "outputs": [
        {
          "internalType": "address",
          "name": "",
          "type": "address"
        }
      ],
      "stateMutability": "view",
      "type": "function"
    },
    {
      "inputs": [
        {
          "internalType": "uint256[]",
          "name": "_candidateIds",
          "type": "uint256[]"
        }
      ],
      "name": "verifyDocuments",
      "outputs": [],
      "stateMutability": "nonpayable",
      "type": "function"
    }
  ],
  "bytecode": "0x6080604052600a6002553480156200001657600080fd5b50620000223362000028565b62000078565b600080546001600160a01b038381166001600160a01b0319831681178455604051919092169283917f8be0079c531659141344cd1fd0a4f28419497f9722a3daafe3b4186f6b6457e09190a35050565b613cf780620000886000396000f3fe608060405234801561001057600080fd5b50600436106101f05760003560e01c8063854da6581161010f578063b4d7e8df116100a2578063c2ed2b0511610071578063c2ed2b051461048f578063eed18318146104a2578063f2fde38b146104b5578063fc7435e1146104c857600080fd5b8063b4d7e8df14610441578063b534425714610456578063bb3096aa14610469578063bfbbf5091461047c57600080fd5b80638da5cb5b116100de5780638da5cb5b146103e857806399e37a55146103f9578063a935e76614610419578063ac1eff681461042e57600080fd5b8063854da65814610380578063874fdf2d14610393578063893d20e81461039c5780638b0e6305146103c157600080fd5b80634dc95895116101875780636dd08047116101565780636dd080471461033c578063715018a61461035c57806378bda750146103645780637fbc12af1461036d57600080fd5b80634dc95895146102e65780635216509a146102f957806357d13917146103025780635990ce801461032957600080fd5b80633477ee2e116101c35780633477ee2e1461026057806335b8e820146102875780633f9b250a146102ab57806341affd45146102cf57600080fd5b80631546a239146101f5578063187c1ebe1461020a5780631a203a311461021d5780632813d19d14610230575b600080fd5b610208610203366004613064565b6104db565b005b61020861021836600461318e565b610794565b61020861022b366004613282565b610a9c565b61024361023e3660046132ae565b610c1c565b60405161025798979695949392919061330d565b60405180910390f35b61027361026e3660046132ae565b610f0f565b60405161025798979695949392919061339d565b61029a6102953660046132ae565b610fdf565b6040516102579594939291906133ea565b6102be6102b93660046132ae565b6112b3565b604051610257959493929190613449565b6102d860045481565b604051908152602001610257565b6102086102f436600461348c565b6114f7565b6102d860055481565b6103156103103660046132ae565b6117e7565b6040516102579897969594939291906134ef565b610208610337366004613580565b611b78565b6102d861034a3660046135bc565b60076020526000908152604090205481565b610208611d79565b6102d860025481565b61020861037b3660046135de565b611d8d565b61020861038e366004613580565b61212a565b6102d860035481565b6000546001600160a01b03165b6040516001600160a01b039091168152602001610257565b6103d46103cf3660046136af565b612285565b6040516102579897969594939291906136d1565b6000546001600160a01b03166103a9565b6102d86104073660046135bc565b600b6020526000908152604090205481565b61042161246f565b604051610257919061373a565b6103a961043c3660046132ae565b6124d1565b336000908152600760205260409020546102d8565b610208610464366004613787565b6124fb565b6102086104773660046137bb565b6126bb565b61020861048a366004613814565b6128e4565b6103d461049d3660046132ae565b612a8a565b6102086104b0366004613580565b612aac565b6102086104c33660046135bc565b612c4d565b6102086104d63660046132ae565b612cc6565b336000908152600760205260409020546105105760405162461bcd60e51b8152600401610507906138bd565b60405180910390fd5b82518451148015610522575081518451145b801561052f575080518451145b61054b5760405162461bcd60e51b8152600401610507906138ec565b33600090815260076020526040812054905b855181101561078c57600086828151811061057a5761057a613923565b60200260200101519050600086838151811061059857610598613923565b6020026020010151905060008684815181106105b6576105b6613923565b6020026020010151905060008685815181106105d4576105d4613923565b6020026020010151905060086000838152602001908152602001600020600401546000036106145760405162461bcd60e51b815260040161050790613939565b600082815260086020526040812060040154610631908790613995565b604080516101008101825242815260208082018981528284018590526060830189905260808301879052600060a0840181905260c084018d905260e084018990528c8152600a835284812089825290925292902081518155915192935091600182019061069e9082613a2e565b5060408201516002820155606082015160038201906106bd9082613a2e565b50608082015160048201906106d29082613a2e565b5060a082015160058201805460ff191691151591909117905560c0820151600682015560e0909101516007909101556004805490600061071183613aed565b90915550506000878152600a602090815260408083208684529091529081902054905182917fd3ed96614adf2b10e41f86dd9c3930fce8e45b5fd05644a610bb234bb21c29219161076c91899189918d918a91908a90613b06565b60405180910390a25050505050808061078490613aed565b91505061055d565b505050505050565b61079c612d36565b806107c05750336107b56000546001600160a01b031690565b6001600160a01b0316145b6107dc5760405162461bcd60e51b815260040161050790613b5e565b845186511480156107ee575083518651145b80156107fb575082518651145b8015610808575081518651145b8015610815575080518651145b6108315760405162461bcd60e51b8152600401610507906138ec565b60005b8651811015610a9357600087828151811061085157610851613923565b60200260200101519050600087838151811061086f5761086f613923565b60200260200101519050600087848151811061088d5761088d613923565b6020026020010151905060008785815181106108ab576108ab613923565b6020026020010151905060008786815181106108c9576108c9613923565b6020026020010151905060008787815181106108e7576108e7613923565b60200260200101519050600060035460016109029190613995565b60408051610100810182524281526001600160a01b038a811660208084019182528385018c815260608501879052608085018c905260a085018b905260c085018a905260e08501899052600087815260069092529490208351815590516001820180546001600160a01b0319169190931617909155915192935091600282019061098c9082613a2e565b5060608201516003820155608082015160048201906109ab9082613a2e565b5060a082015160058201906109c09082613a2e565b5060c082015160068201906109d59082613a2e565b5060e082015160078201906109ea9082613a2e565b5050506001600160a01b03871660009081526007602052604081208290556003805491610a1683613aed565b9091555050600081815260066020526040908190205490516001600160a01b0389169183917f261da74c4a3cfaa656ac5eaa9eefd94e3c13a0635ace95af2fae2dbf3390cde091610a71918b91908b908b908b908b90613b95565b60405180910390a3505050505050508080610a8b90613aed565b915050610834565b50505050505050565b33600090815260076020526040902054610ac85760405162461bcd60e51b8152600401610507906138bd565b6000828152600860205260408120600401549003610af85760405162461bcd60e51b815260040161050790613939565b6000828152600860205260409020600201546001600160a01b031615610bb5576000828152600860205260409020600201546001600160a01b03163314610bb55760405162461bcd60e51b8152602060048201526044602482018190527f596f7520646f206e6f742068617665207065726d697373696f6e20746f206564908201527f69742063757272656e74436f6d70616e7920666f7220746869732063616e64696064820152636461746560e01b608482015260a401610507565b60008281526008602090815260409182902060020180546001600160a01b0319166001600160a01b038516908117909155915191825283917f1004bf4098083445cd4ac13954fdcea1d9530a61f6f2a7d5a628bea6141eb17c910160405180910390a25050565b60066020526000908152604090208054600182015460028301805492936001600160a01b0390921692610c4e906139ae565b80601f0160208091040260200160405190810160405280929190818152602001828054610c7a906139ae565b8015610cc75780601f10610c9c57610100808354040283529160200191610cc7565b820191906000526020600020905b815481529060010190602001808311610caa57829003601f168201915b505050505090806003015490806004018054610ce2906139ae565b80601f0160208091040260200160405190810160405280929190818152602001828054610d0e906139ae565b8015610d5b5780601f10610d3057610100808354040283529160200191610d5b565b820191906000526020600020905b815481529060010190602001808311610d3e57829003601f168201915b505050505090806005018054610d70906139ae565b80601f0160208091040260200160405190810160405280929190818152602001828054610d9c906139ae565b8015610de95780601f10610dbe57610100808354040283529160200191610de9565b820191906000526020600020905b815481529060010190602001808311610dcc57829003601f168201915b505050505090806006018054610dfe906139ae565b80601f0160208091040260200160405190810160405280929190818152602001828054610e2a906139ae565b8015610e775780601f10610e4c57610100808354040283529160200191610e77565b820191906000526020600020905b815481529060010190602001808311610e5a57829003601f168201915b505050505090806007018054610e8c906139ae565b80601f0160208091040260200160405190810160405280929190818152602001828054610eb8906139ae565b8015610f055780601f10610eda57610100808354040283529160200191610f05565b820191906000526020600020905b815481529060010190602001808311610ee857829003601f168201915b5050505050905088565b600860205260009081526040902080546001820154600283015460038401805493946001600160a01b03938416949390921692610f4b906139ae565b80601f0160208091040260200160405190810160405280929190818152602001828054610f77906139ae565b8015610fc45780601f10610f9957610100808354040283529160200191610fc4565b820191906000526020600020905b815481529060010190602001808311610fa757829003601f168201915b505050505090806004015490806005018054610d70906139ae565b60008181526008602090815260408083208151610100810183528154815260018201546001600160a01b0390811694820194909452600282015490931691830191909152600381018054606094938593849384938793929183860191611044906139ae565b80601f0160208091040260200160405190810160405280929190818152602001828054611070906139ae565b80156110bd5780601f10611092576101008083540402835291602001916110bd565b820191906000526020600020905b8154815290600101906020018083116110a057829003601f168201915b50505050508152602001600482015481526020016005820180546110e0906139ae565b80601f016020809104026020016040519081016040528092919081815260200182805461110c906139ae565b80156111595780601f1061112e57610100808354040283529160200191611159565b820191906000526020600020905b81548152906001019060200180831161113c57829003601f168201915b50505050508152602001600682018054611172906139ae565b80601f016020809104026020016040519081016040528092919081815260200182805461119e906139ae565b80156111eb5780601f106111c0576101008083540402835291602001916111eb565b820191906000526020600020905b8154815290600101906020018083116111ce57829003601f168201915b50505050508152602001600782018054611204906139ae565b80601f0160208091040260200160405190810160405280929190818152602001828054611230906139ae565b801561127d5780601f106112525761010080835404028352916020019161127d565b820191906000526020600020905b81548152906001019060200180831161126057829003601f168201915b505050919092525050506060810151608082015160a083015160c084015160e090940151929b919a509850919650945092505050565b6060806000806000806009600088815260200190815260200160002060405180610100016040529081600082015481526020016001820180546112f5906139ae565b80601f0160208091040260200160405190810160405280929190818152602001828054611321906139ae565b801561136e5780601f106113435761010080835404028352916020019161136e565b820191906000526020600020905b81548152906001019060200180831161135157829003601f168201915b5050505050815260200160028201548152602001600382018054611391906139ae565b80601f01602080910402602001604051908101604052809291908181526020018280546113bd906139ae565b801561140a5780601f106113df5761010080835404028352916020019161140a565b820191906000526020600020905b8154815290600101906020018083116113ed57829003601f168201915b50505050508152602001600482018054611423906139ae565b80601f016020809104026020016040519081016040528092919081815260200182805461144f906139ae565b801561149c5780601f106114715761010080835404028352916020019161149c565b820191906000526020600020905b81548152906001019060200180831161147f57829003601f168201915b5050509183525050600582015460ff16151560208083019190915260068301546040830152600790920154606091820152908201519082015160a083015160c084015160e090940151929b919a509850919650945092505050565b6114ff612d41565b80518251146115205760405162461bcd60e51b8152600401610507906138ec565b60005b82518110156117e257600083828151811061154057611540613923565b60200260200101519050600083838151811061155e5761155e613923565b6020026020010151905060006001600160a01b0316826001600160a01b0316036115bc5760405162461bcd60e51b815260206004820152600f60248201526e496e76616c6964206164647265737360881b6044820152606401610507565b6001600160a01b03811661170b5760005b60015481101561170557826001600160a01b0316600182815481106115f4576115f4613923565b6000918252602090912001546001600160a01b0316036116f3576001805461161d908290613bfc565b8154811061162d5761162d613923565b600091825260209091200154600180546001600160a01b03909216918390811061165957611659613923565b9060005260206000200160006101000a8154816001600160a01b0302191690836001600160a01b03160217905550600180548061169857611698613c0f565b600082815260208120820160001990810180546001600160a01b03191690559091019091556040516001600160a01b038516917f44a3cd4eb5cc5748f6169df057b1cb2ae4c383e87cd94663c430e095d4cba42491a2611705565b806116fd81613aed565b9150506115cd565b506117cd565b60005b6001548110156117cb57826001600160a01b03166001828154811061173557611735613923565b6000918252602090912001546001600160a01b0316036117b957816001828154811061176357611763613923565b6000918252602082200180546001600160a01b0319166001600160a01b03938416179055604051848316928616917f50d741fe04ad9863c69d1406658f6ec7c4f5e48ec2faf966a36a3e47fc05c9d991a36117cb565b806117c381613aed565b91505061170e565b505b505080806117da90613aed565b915050611523565b505050565b600060606000606080606080600080600660008b815260200190815260200160002060405180610100016040529081600082015481526020016001820160009054906101000a90046001600160a01b03166001600160a01b03166001600160a01b0316815260200160028201805461185e906139ae565b80601f016020809104026020016040519081016040528092919081815260200182805461188a906139ae565b80156118d75780601f106118ac576101008083540402835291602001916118d7565b820191906000526020600020905b8154815290600101906020018083116118ba57829003601f168201915b50505050508152602001600382015481526020016004820180546118fa906139ae565b80601f0160208091040260200160405190810160405280929190818152602001828054611926906139ae565b80156119735780601f1061194857610100808354040283529160200191611973565b820191906000526020600020905b81548152906001019060200180831161195657829003601f168201915b5050505050815260200160058201805461198c906139ae565b80601f01602080910402602001604051908101604052809291908181526020018280546119b8906139ae565b8015611a055780601f106119da57610100808354040283529160200191611a05565b820191906000526020600020905b8154815290600101906020018083116119e857829003601f168201915b50505050508152602001600682018054611a1e906139ae565b80601f0160208091040260200160405190810160405280929190818152602001828054611a4a906139ae565b8015611a975780601f10611a6c57610100808354040283529160200191611a97565b820191906000526020600020905b815481529060010190602001808311611a7a57829003601f168201915b50505050508152602001600782018054611ab0906139ae565b80601f0160208091040260200160405190810160405280929190818152602001828054611adc906139ae565b8015611b295780601f10611afe57610100808354040283529160200191611b29565b820191906000526020600020905b815481529060010190602001808311611b0c57829003601f168201915b505050505081525050905080602001518160400151826060015183608001518460a001518560c001518660e0015187600001519850985098509850985098509850985050919395975091939597565b611b80612d36565b80611ba4575033611b996000546001600160a01b031690565b6001600160a01b0316145b611bc05760405162461bcd60e51b815260040161050790613c25565b6000815111611c115760405162461bcd60e51b815260206004820152601760248201527f4e6f20636f6d70616e79204944732070726f76696465640000000000000000006044820152606401610507565b60005b8151811015611d75576000828281518110611c3157611c31613923565b602002602001015190506006600082815260200190815260200160002060030154600003611cad5760405162461bcd60e51b8152602060048201526024808201527f436f6d70616e79207769746820676976656e20494420646f6573206e6f7420656044820152631e1a5cdd60e21b6064820152608401610507565b60008181526006602052604081208181556001810180546001600160a01b031916905590611cde6002830182612e54565b6003820160009055600482016000611cf69190612e54565b611d04600583016000612e54565b611d12600683016000612e54565b611d20600783016000612e54565b505060038054906000611d3283613c55565b909155505060405181907f028fe2791b514c47642f0d652f7c237752aea1929ed16396ef24b45eb7e2b31590600090a25080611d6d81613aed565b915050611c14565b5050565b611d81612d41565b611d8b6000612d9b565b565b33600090815260076020526040902054611db95760405162461bcd60e51b815260040161050790613b5e565b8351855114611dda5760405162461bcd60e51b8152600401610507906138ec565b60005b855181101561078c576000868281518110611dfa57611dfa613923565b602002602001015190506000868381518110611e1857611e18613923565b602002602001015190506000868481518110611e3657611e36613923565b602002602001015190506000868581518110611e5457611e54613923565b602002602001015190506000868681518110611e7257611e72613923565b60200260200101519050600b6000866001600160a01b03166001600160a01b0316815260200190815260200160002054600014611f095760405162461bcd60e51b815260206004820152602f60248201527f43616e64696461746520776974682074686520676976656e206164647265737360448201526e20616c72656164792065786973747360881b6064820152608401610507565b6001600160a01b038516611f585760405162461bcd60e51b8152602060048201526016602482015275416464726573732063616e6e6f74206265207a65726f60501b6044820152606401610507565b6000845111611fa05760405162461bcd60e51b81526020600482015260146024820152734e616d652063616e6e6f7420626520656d70747960601b6044820152606401610507565b60006005546001611fb19190613995565b60408051610100810182524281526001600160a01b03808a16602080840191825233848601908152606085018c81526080860188905260a086018c905260c086018b905260e086018a905260008881526008909352959091208451815591516001830180549185166001600160a01b0319928316179055905160028301805491909416911617909155915192935091600382019061204f9082613a2e565b506080820151600482015560a0820151600582019061206e9082613a2e565b5060c082015160068201906120839082613a2e565b5060e082015160078201906120989082613a2e565b5050336000908152600b60205260408120839055600580549250906120bc83613aed565b90915550506000818152600860205260409081902054905182917f7b9c7f27309ffd2ac53f4a79f1850d55fb69301e433730c1de54f3b266b4eb4c916121099189918990899089906133ea565b60405180910390a2505050505050808061212290613aed565b915050611ddd565b612132612d36565b61214e5760405162461bcd60e51b815260040161050790613c25565b33600090815260076020526040812054905b82518110156117e257600083828151811061217d5761217d613923565b6020908102919091018101516000858152600a83526040808220838352909352918220600681015491935091036121c65760405162461bcd60e51b815260040161050790613c6c565b600581015460ff161561222e5760405162461bcd60e51b815260206004820152602a60248201527f446f63756d656e74207769746820676976656e20494420697320616c726561646044820152691e481d995c9a599a595960b21b6064820152608401610507565b60058101805460ff1916600117905560028101546040517f4b93fd5160fbc8b35d08aff650902cf41c86e6df325a3eabab5bcca811976cf790600090a25050808061227890613aed565b915050612160565b905090565b600a602090815260009283526040808420909152908252902080546001820180549192916122b2906139ae565b80601f01602080910402602001604051908101604052809291908181526020018280546122de906139ae565b801561232b5780601f106123005761010080835404028352916020019161232b565b820191906000526020600020905b81548152906001019060200180831161230e57829003601f168201915b505050505090806002015490806003018054612346906139ae565b80601f0160208091040260200160405190810160405280929190818152602001828054612372906139ae565b80156123bf5780601f10612394576101008083540402835291602001916123bf565b820191906000526020600020905b8154815290600101906020018083116123a257829003601f168201915b5050505050908060040180546123d4906139ae565b80601f0160208091040260200160405190810160405280929190818152602001828054612400906139ae565b801561244d5780601f106124225761010080835404028352916020019161244d565b820191906000526020600020905b81548152906001019060200180831161243057829003601f168201915b5050505060058301546006840154600790940154929360ff9091169290915088565b606060018054806020026020016040519081016040528092919081815260200182805480156124c757602002820191906000526020600020905b81546001600160a01b031681526001909101906020018083116124a9575b5050505050905090565b600181815481106124e157600080fd5b6000918252602090912001546001600160a01b0316905081565b612503612d41565b600081511161254a5760405162461bcd60e51b8152602060048201526013602482015272139bc81d995c9a599a595c9cc81d1bc8185919606a1b6044820152606401610507565b600254815160015461255c9190613995565b11156125b65760405162461bcd60e51b815260206004820152602360248201527f45786365656473206d6178696d756d206e756d626572206f662076657269666960448201526265727360e81b6064820152608401610507565b60005b8151811015611d755760008282815181106125d6576125d6613923565b6020026020010151905060006001600160a01b0316816001600160a01b0316036126345760405162461bcd60e51b815260206004820152600f60248201526e496e76616c6964206164647265737360881b6044820152606401610507565b60018054808201825560009182527fb10e2d527612073b26eecdfd717e6a320cf44b4afac2b0732d9fcbe2b7fa0cf60180546001600160a01b0319166001600160a01b03841690811790915560405190917f6d05492139c5ea989514a5d2150c028041e5c087e2a39967f67dc7d2655adb8191a250806126b381613aed565b9150506125b9565b336000908152600760205260409020546126e75760405162461bcd60e51b8152600401610507906138bd565b3360009081526007602052604090205481518351146127185760405162461bcd60e51b8152600401610507906138ec565b60005b83518110156128de57600084828151811061273857612738613923565b60200260200101519050600084838151811061275657612756613923565b6020026020010151905060086000838152602001908152602001600020600401546000036127965760405162461bcd60e51b815260040161050790613939565b6000848152600a60209081526040808320858452909152812060068101549091036127d35760405162461bcd60e51b815260040161050790613c6c565b8060020154821461281b5760405162461bcd60e51b8152602060048201526012602482015271125b9d985b1a5908191bd8dd5b595b9d125960721b6044820152606401610507565b6000858152600a602090815260408083208684529091528120818155906128456001830182612e54565b600282016000905560038201600061285d9190612e54565b61286b600483016000612e54565b5060058101805460ff1916905560006006820181905560079091015560408051838152602081018590529081018690527fcefed05bf9cf6c25889c16d2d30733104edfd4536eb965a70e933dda18ef326e9060600160405180910390a150505080806128d690613aed565b91505061271b565b50505050565b336000908152600760205260409020546129105760405162461bcd60e51b815260040161050790613b5e565b60008581526008602052604081206004015490036129405760405162461bcd60e51b815260040161050790613939565b6000858152600860205260409020600201546001600160a01b031633146129c35760405162461bcd60e51b815260206004820152603160248201527f596f7520646f206e6f742068617665207065726d697373696f6e20746f206564604482015270697420746869732063616e64696461746560781b6064820152608401610507565b60008581526008602052604090206003016129de8582613a2e565b5060008581526008602052604090206005016129fa8482613a2e565b506000858152600860205260409020600601612a168382613a2e565b506000858152600860205260409020600701612a328282613a2e565b506000858152600860205260409081902054905186917fec0d46722939d1bbf8c6e9a7383f9f0aae3fc6cd4428fcb18978b87a5cbd34ff91612a7b9188918890889088906133ea565b60405180910390a25050505050565b600960205260009081526040902080546001820180549192916122b2906139ae565b612ab4612d36565b80612acd57503360009081526007602052604090205415155b612ae95760405162461bcd60e51b815260040161050790613c25565b6000815111612b3a5760405162461bcd60e51b815260206004820152601960248201527f4e6f2063616e646964617465204944732070726f7669646564000000000000006044820152606401610507565b60005b8151811015611d75576000828281518110612b5a57612b5a613923565b602002602001015190506008600082815260200190815260200160002060040154600003612b9a5760405162461bcd60e51b815260040161050790613939565b60008181526008602052604081208181556001810180546001600160a01b0319908116909155600282018054909116905590612bd96003830182612e54565b6004820160009055600582016000612bf19190612e54565b612bff600683016000612e54565b612c0d600783016000612e54565b505060405181907f294c5a9bc8a39e6e06502bc8da429980f6c7b0990d75b682c12cb8705e3ace8590600090a25080612c4581613aed565b915050612b3d565b612c55612d41565b6001600160a01b038116612cba5760405162461bcd60e51b815260206004820152602660248201527f4f776e61626c653a206e6577206f776e657220697320746865207a65726f206160448201526564647265737360d01b6064820152608401610507565b612cc381612d9b565b50565b612cce612d41565b60008111612d315760405162461bcd60e51b815260206004820152602a60248201527f4d6178696d756d207665726966696572732073686f756c6420626520677265616044820152690746572207468616e20360b41b6064820152608401610507565b600255565b600061228033612deb565b6000546001600160a01b03163314611d8b5760405162461bcd60e51b815260206004820181905260248201527f4f776e61626c653a2063616c6c6572206973206e6f7420746865206f776e65726044820152606401610507565b600080546001600160a01b038381166001600160a01b0319831681178455604051919092169283917f8be0079c531659141344cd1fd0a4f28419497f9722a3daafe3b4186f6b6457e09190a35050565b6000805b600154811015612e4b57826001600160a01b031660018281548110612e1657612e16613923565b6000918252602090912001546001600160a01b031603612e395750600192915050565b80612e4381613aed565b915050612def565b50600092915050565b508054612e60906139ae565b6000825580601f10612e70575050565b601f016020900490600052602060002090810190612cc391905b80821115612e9e5760008155600101612e8a565b5090565b634e487b7160e01b600052604160045260246000fd5b604051601f8201601f191681016001600160401b0381118282101715612ee057612ee0612ea2565b604052919050565b60006001600160401b03821115612f0157612f01612ea2565b5060051b60200190565b600082601f830112612f1c57600080fd5b81356001600160401b03811115612f3557612f35612ea2565b612f48601f8201601f1916602001612eb8565b818152846020838601011115612f5d57600080fd5b816020850160208301376000918101602001919091529392505050565b600082601f830112612f8b57600080fd5b81356020612fa0612f9b83612ee8565b612eb8565b82815260059290921b84018101918181019086841115612fbf57600080fd5b8286015b84811015612ffe5780356001600160401b03811115612fe25760008081fd5b612ff08986838b0101612f0b565b845250918301918301612fc3565b509695505050505050565b600082601f83011261301a57600080fd5b8135602061302a612f9b83612ee8565b82815260059290921b8401810191818101908684111561304957600080fd5b8286015b84811015612ffe578035835291830191830161304d565b6000806000806080858703121561307a57600080fd5b84356001600160401b038082111561309157600080fd5b61309d88838901612f7a565b955060208701359150808211156130b357600080fd5b6130bf88838901612f7a565b945060408701359150808211156130d557600080fd5b6130e188838901613009565b935060608701359150808211156130f757600080fd5b5061310487828801612f7a565b91505092959194509250565b80356001600160a01b038116811461312757600080fd5b919050565b600082601f83011261313d57600080fd5b8135602061314d612f9b83612ee8565b82815260059290921b8401810191818101908684111561316c57600080fd5b8286015b84811015612ffe5761318181613110565b8352918301918301613170565b60008060008060008060c087890312156131a757600080fd5b86356001600160401b03808211156131be57600080fd5b6131ca8a838b0161312c565b975060208901359150808211156131e057600080fd5b6131ec8a838b01612f7a565b9650604089013591508082111561320257600080fd5b61320e8a838b01612f7a565b9550606089013591508082111561322457600080fd5b6132308a838b01612f7a565b9450608089013591508082111561324657600080fd5b6132528a838b01612f7a565b935060a089013591508082111561326857600080fd5b5061327589828a01612f7a565b9150509295509295509295565b6000806040838503121561329557600080fd5b823591506132a560208401613110565b90509250929050565b6000602082840312156132c057600080fd5b5035919050565b6000815180845260005b818110156132ed576020818501810151868301820152016132d1565b506000602082860101526020601f19601f83011685010191505092915050565b8881526001600160a01b0388166020820152610100604082018190526000906133388382018a6132c7565b9050876060840152828103608084015261335281886132c7565b905082810360a084015261336681876132c7565b905082810360c084015261337a81866132c7565b905082810360e084015261338e81856132c7565b9b9a5050505050505050505050565b8881526001600160a01b03888116602083015287166040820152610100606082018190526000906133d0838201896132c7565b905086608084015282810360a084015261336681876132c7565b60a0815260006133fd60a08301886132c7565b866020840152828103604084015261341581876132c7565b9050828103606084015261342981866132c7565b9050828103608084015261343d81856132c7565b98975050505050505050565b60a08152600061345c60a08301886132c7565b828103602084015261346e81886132c7565b95151560408401525050606081019290925260809091015292915050565b6000806040838503121561349f57600080fd5b82356001600160401b03808211156134b657600080fd5b6134c28683870161312c565b935060208501359150808211156134d857600080fd5b506134e58582860161312c565b9150509250929050565b6001600160a01b0389168152610100602082018190526000906135148382018b6132c7565b9050886040840152828103606084015261352e81896132c7565b9050828103608084015261354281886132c7565b905082810360a084015261355681876132c7565b905082810360c084015261356a81866132c7565b9150508260e08301529998505050505050505050565b60006020828403121561359257600080fd5b81356001600160401b038111156135a857600080fd5b6135b484828501613009565b949350505050565b6000602082840312156135ce57600080fd5b6135d782613110565b9392505050565b600080600080600060a086880312156135f657600080fd5b85356001600160401b038082111561360d57600080fd5b61361989838a0161312c565b9650602088013591508082111561362f57600080fd5b61363b89838a01612f7a565b9550604088013591508082111561365157600080fd5b61365d89838a01612f7a565b9450606088013591508082111561367357600080fd5b61367f89838a01612f7a565b9350608088013591508082111561369557600080fd5b506136a288828901612f7a565b9150509295509295909350565b600080604083850312156136c257600080fd5b50508035926020909101359150565b60006101008a83528060208401526136eb8184018b6132c7565b9050886040840152828103606084015261370581896132c7565b9050828103608084015261371981886132c7565b95151560a0840152505060c081019290925260e09091015295945050505050565b6020808252825182820181905260009190848201906040850190845b8181101561377b5783516001600160a01b031683529284019291840191600101613756565b50909695505050505050565b60006020828403121561379957600080fd5b81356001600160401b038111156137af57600080fd5b6135b48482850161312c565b600080604083850312156137ce57600080fd5b82356001600160401b03808211156137e557600080fd5b6137f186838701613009565b9350602085013591508082111561380757600080fd5b506134e585828601613009565b600080600080600060a0868803121561382c57600080fd5b8535945060208601356001600160401b038082111561384a57600080fd5b61385689838a01612f0b565b9550604088013591508082111561386c57600080fd5b61387889838a01612f0b565b9450606088013591508082111561388e57600080fd5b61389a89838a01612f0b565b935060808801359150808211156138b057600080fd5b506136a288828901612f0b565b60208082526015908201527413db9b1e4818dbdb5c185b9e4818d85b8818d85b1b605a1b604082015260600190565b60208082526018908201527f4d69736d61746368656420696e707574206c656e677468730000000000000000604082015260600190565b634e487b7160e01b600052603260045260246000fd5b60208082526026908201527f43616e646964617465207769746820676976656e20494420646f6573206e6f7460408201526508195e1a5cdd60d21b606082015260800190565b634e487b7160e01b600052601160045260246000fd5b808201808211156139a8576139a861397f565b92915050565b600181811c908216806139c257607f821691505b6020821081036139e257634e487b7160e01b600052602260045260246000fd5b50919050565b601f8211156117e257600081815260208120601f850160051c81016020861015613a0f5750805b601f850160051c820191505b8181101561078c57828155600101613a1b565b81516001600160401b03811115613a4757613a47612ea2565b613a5b81613a5584546139ae565b846139e8565b602080601f831160018114613a905760008415613a785750858301515b600019600386901b1c1916600185901b17855561078c565b600085815260208120601f198616915b82811015613abf57888601518255948401946001909101908401613aa0565b5085821015613add5787850151600019600388901b60f8161c191681555b5050505050600190811b01905550565b600060018201613aff57613aff61397f565b5060010190565b60c081526000613b1960c08301896132c7565b8281036020840152613b2b81896132c7565b905086604084015285606084015284608084015282810360a0840152613b5181856132c7565b9998505050505050505050565b6020808252601f908201527f4f6e6c79207665726966696572206f72206f776e65722063616e2063616c6c00604082015260600190565b60c081526000613ba860c08301896132c7565b8760208401528281036040840152613bc081886132c7565b90508281036060840152613bd481876132c7565b90508281036080840152613be881866132c7565b905082810360a0840152613b5181856132c7565b818103818111156139a8576139a861397f565b634e487b7160e01b600052603160045260246000fd5b60208082526016908201527513db9b1e481d995c9a599a595c8818d85b8818d85b1b60521b604082015260600190565b600081613c6457613c6461397f565b506000190190565b60208082526035908201527f4e6f20646f63756d656e7420666f756e6420666f722074686520676976656e2060408201527463616e64696461746520616e6420636f6d70616e7960581b60608201526080019056fea264697066735822122030579bd5948c4f0a9d208f8f30edfc6aba11d7dc4fa3a95973dcf5670659bd7364736f6c63430008140033",
  "linkReferences": {},
  "deployedLinkReferences": {}
}